{"abi":[{"type":"constructor","inputs":[{"name":"_baseUri","type":"string","internalType":"string"},{"name":"_collectionUri","type":"string","internalType":"string"},{"name":"_name","type":"string","internalType":"string"},{"name":"_symbol","type":"string","internalType":"string"},{"name":"_factory","type":"address","internalType":"address"}],"stateMutability":"nonpayable"},{"type":"function","name":"FACTORY","inputs":[],"outputs":[{"name":"","type":"address","internalType":"address"}],"stateMutability":"view"},{"type":"function","name":"approve","inputs":[{"name":"to","type":"address","internalType":"address"},{"name":"tokenId","type":"uint256","internalType":"uint256"}],"outputs":[],"stateMutability":"nonpayable"},{"type":"function","name":"balanceOf","inputs":[{"name":"owner","type":"address","internalType":"address"}],"outputs":[{"name":"","type":"uint256","internalType":"uint256"}],"stateMutability":"view"},{"type":"function","name":"baseUri","inputs":[],"outputs":[{"name":"","type":"string","internalType":"string"}],"stateMutability":"view"},{"type":"function","name":"collectionUri","inputs":[],"outputs":[{"name":"","type":"string","internalType":"string"}],"stateMutability":"view"},{"type":"function","name":"contractURI","inputs":[],"outputs":[{"name":"","type":"string","internalType":"string"}],"stateMutability":"view"},{"type":"function","name":"getApproved","inputs":[{"name":"tokenId","type":"uint256","internalType":"uint256"}],"outputs":[{"name":"","type":"address","internalType":"address"}],"stateMutability":"view"},{"type":"function","name":"isApprovedForAll","inputs":[{"name":"owner","type":"address","internalType":"address"},{"name":"operator","type":"address","internalType":"address"}],"outputs":[{"name":"","type":"bool","internalType":"bool"}],"stateMutability":"view"},{"type":"function","name":"mintTo","inputs":[{"name":"_to","type":"address","internalType":"address"}],"outputs":[{"name":"","type":"uint256","internalType":"uint256"}],"stateMutability":"nonpayable"},{"type":"function","name":"name","inputs":[],"outputs":[{"name":"","type":"string","internalType":"string"}],"stateMutability":"view"},{"type":"function","name":"ownerOf","inputs":[{"name":"tokenId","type":"uint256","internalType":"uint256"}],"outputs":[{"name":"","type":"address","internalType":"address"}],"stateMutability":"view"},{"type":"function","name":"royaltyInfo","inputs":[{"name":"tokenId","type":"uint256","internalType":"uint256"},{"name":"salePrice","type":"uint256","internalType":"uint256"}],"outputs":[{"name":"","type":"address","internalType":"address"},{"name":"","type":"uint256","internalType":"uint256"}],"stateMutability":"view"},{"type":"function","name":"safeTransferFrom","inputs":[{"name":"from","type":"address","internalType":"address"},{"name":"to","type":"address","internalType":"address"},{"name":"tokenId","type":"uint256","internalType":"uint256"}],"outputs":[],"stateMutability":"nonpayable"},{"type":"function","name":"safeTransferFrom","inputs":[{"name":"from","type":"address","internalType":"address"},{"name":"to","type":"address","internalType":"address"},{"name":"tokenId","type":"uint256","internalType":"uint256"},{"name":"data","type":"bytes","internalType":"bytes"}],"outputs":[],"stateMutability":"nonpayable"},{"type":"function","name":"setApprovalForAll","inputs":[{"name":"operator","type":"address","internalType":"address"},{"name":"approved","type":"bool","internalType":"bool"}],"outputs":[],"stateMutability":"nonpayable"},{"type":"function","name":"supportsInterface","inputs":[{"name":"interfaceId","type":"bytes4","internalType":"bytes4"}],"outputs":[{"name":"","type":"bool","internalType":"bool"}],"stateMutability":"view"},{"type":"function","name":"symbol","inputs":[],"outputs":[{"name":"","type":"string","internalType":"string"}],"stateMutability":"view"},{"type":"function","name":"tokenByIndex","inputs":[{"name":"index","type":"uint256","internalType":"uint256"}],"outputs":[{"name":"","type":"uint256","internalType":"uint256"}],"stateMutability":"view"},{"type":"function","name":"tokenOfOwnerByIndex","inputs":[{"name":"owner","type":"address","internalType":"address"},{"name":"index","type":"uint256","internalType":"uint256"}],"outputs":[{"name":"","type":"uint256","internalType":"uint256"}],"stateMutability":"view"},{"type":"function","name":"tokenURI","inputs":[{"name":"_tokenId","type":"uint256","internalType":"uint256"}],"outputs":[{"name":"","type":"string","internalType":"string"}],"stateMutability":"view"},{"type":"function","name":"totalSupply","inputs":[],"outputs":[{"name":"","type":"uint256","internalType":"uint256"}],"stateMutability":"view"},{"type":"function","name":"transferFrom","inputs":[{"name":"from","type":"address","internalType":"address"},{"name":"to","type":"address","internalType":"address"},{"name":"tokenId","type":"uint256","internalType":"uint256"}],"outputs":[],"stateMutability":"nonpayable"},{"type":"function","name":"transferNFT","inputs":[{"name":"_tokenId","type":"uint256","internalType":"uint256"},{"name":"_to","type":"address","internalType":"address"}],"outputs":[],"stateMutability":"nonpayable"},{"type":"function","name":"userTokenIdList","inputs":[{"name":"_owner","type":"address","internalType":"address"}],"outputs":[{"name":"_tokensOfOwner","type":"uint256[]","internalType":"uint256[]"}],"stateMutability":"view"},{"type":"event","name":"Approval","inputs":[{"name":"owner","type":"address","indexed":true,"internalType":"address"},{"name":"approved","type":"address","indexed":true,"internalType":"address"},{"name":"tokenId","type":"uint256","indexed":true,"internalType":"uint256"}],"anonymous":false},{"type":"event","name":"ApprovalForAll","inputs":[{"name":"owner","type":"address","indexed":true,"internalType":"address"},{"name":"operator","type":"address","indexed":true,"internalType":"address"},{"name":"approved","type":"bool","indexed":false,"internalType":"bool"}],"anonymous":false},{"type":"event","name":"Transfer","inputs":[{"name":"from","type":"address","indexed":true,"internalType":"address"},{"name":"to","type":"address","indexed":true,"internalType":"address"},{"name":"tokenId","type":"uint256","indexed":true,"internalType":"uint256"}],"anonymous":false}],"bytecode":{"object":"0x60a06040523480156200001157600080fd5b506040516200276d3803806200276d833981016040819052620000349162000158565b82826002620000448382620002c6565b506003620000538282620002c6565b50506001600c5550600e620000698682620002c6565b50600f620000788582620002c6565b506001600160a01b0316608052506200039292505050565b634e487b7160e01b600052604160045260246000fd5b600082601f830112620000b857600080fd5b81516001600160401b0380821115620000d557620000d562000090565b604051601f8301601f19908116603f0116810190828211818310171562000100576200010062000090565b81604052838152602092508660208588010111156200011e57600080fd5b600091505b8382101562000142578582018301518183018401529082019062000123565b6000602085830101528094505050505092915050565b600080600080600060a086880312156200017157600080fd5b85516001600160401b03808211156200018957600080fd5b6200019789838a01620000a6565b96506020880151915080821115620001ae57600080fd5b620001bc89838a01620000a6565b95506040880151915080821115620001d357600080fd5b620001e189838a01620000a6565b94506060880151915080821115620001f857600080fd5b506200020788828901620000a6565b608088015190935090506001600160a01b03811681146200022757600080fd5b809150509295509295909350565b600181811c908216806200024a57607f821691505b6020821081036200026b57634e487b7160e01b600052602260045260246000fd5b50919050565b601f821115620002c1576000816000526020600020601f850160051c810160208610156200029c5750805b601f850160051c820191505b81811015620002bd57828155600101620002a8565b5050505b505050565b81516001600160401b03811115620002e257620002e262000090565b620002fa81620002f3845462000235565b8462000271565b602080601f831160018114620003325760008415620003195750858301515b600019600386901b1c1916600185901b178555620002bd565b600085815260208120601f198616915b82811015620003635788860151825594840194600190910190840162000342565b5085821015620003825787850151600019600388901b60f8161c191681555b5050505050600190811b01905550565b6080516123b8620003b56000396000818161027a01526109c501526123b86000f3fe608060405234801561001057600080fd5b50600436106101985760003560e01c806370a08231116100e3578063a22cb4651161008c578063defcd4b311610066578063defcd4b31461038a578063e8a3d48514610392578063e985e9c51461039a57600080fd5b8063a22cb46514610351578063b88d4fde14610364578063c87b56dd1461037757600080fd5b80639036c050116100bd5780639036c0501461032e57806395d89b41146103415780639abc83201461034957600080fd5b806370a08231146102e8578063755edd17146102fb578063809711031461030e57600080fd5b80632a55205a1161014557806342842e0e1161011f57806342842e0e146102af5780634f6ccce7146102c25780636352211e146102d557600080fd5b80632a55205a146102435780632dd31000146102755780632f745c591461029c57600080fd5b8063095ea7b311610176578063095ea7b31461020557806318160ddd1461021a57806323b872dd1461023057600080fd5b806301ffc9a71461019d57806306fdde03146101c5578063081812fc146101da575b600080fd5b6101b06101ab366004611d48565b6103d6565b60405190151581526020015b60405180910390f35b6101cd6103e7565b6040516101bc9190611dda565b6101ed6101e8366004611ded565b610479565b6040516001600160a01b0390911681526020016101bc565b610218610213366004611e1d565b6104a0565b005b6102226105d6565b6040519081526020016101bc565b61021861023e366004611e47565b6105e6565b610256610251366004611e83565b61066d565b604080516001600160a01b0390931683526020830191909152016101bc565b6101ed7f000000000000000000000000000000000000000000000000000000000000000081565b6102226102aa366004611e1d565b61074a565b6102186102bd366004611e47565b6107f2565b6102226102d0366004611ded565b61080d565b6101ed6102e3366004611ded565b6108b1565b6102226102f6366004611ea5565b610916565b610222610309366004611ea5565b6109b0565b61032161031c366004611ea5565b610a7f565b6040516101bc9190611ec0565b61021861033c366004611f04565b610b16565b6101cd610b2e565b6101cd610b3d565b61021861035f366004611f30565b610bcb565b610218610372366004611f9b565b610bda565b6101cd610385366004611ded565b610c68565b6101cd610d27565b6101cd610d34565b6101b06103a8366004612095565b6001600160a01b03918216600090815260076020908152604080832093909416825291909152205460ff1690565b60006103e182610d43565b92915050565b6060600280546103f6906120bf565b80601f0160208091040260200160405190810160405280929190818152602001828054610422906120bf565b801561046f5780601f106104445761010080835404028352916020019161046f565b820191906000526020600020905b81548152906001019060200180831161045257829003601f168201915b5050505050905090565b600061048482610d99565b506000908152600660205260409020546001600160a01b031690565b60006104ab826108b1565b9050806001600160a01b0316836001600160a01b0316036105395760405162461bcd60e51b815260206004820152602160248201527f4552433732313a20617070726f76616c20746f2063757272656e74206f776e6560448201527f720000000000000000000000000000000000000000000000000000000000000060648201526084015b60405180910390fd5b336001600160a01b0382161480610555575061055581336103a8565b6105c75760405162461bcd60e51b815260206004820152603d60248201527f4552433732313a20617070726f76652063616c6c6572206973206e6f7420746f60448201527f6b656e206f776e6572206f7220617070726f76656420666f7220616c6c0000006064820152608401610530565b6105d18383610e00565b505050565b60006105e1600d5490565b905090565b6105f03382610e86565b6106625760405162461bcd60e51b815260206004820152602d60248201527f4552433732313a2063616c6c6572206973206e6f7420746f6b656e206f776e6560448201527f72206f7220617070726f766564000000000000000000000000000000000000006064820152608401610530565b6105d1838383610f05565b60008281526001602090815260408083208151808301909252546001600160a01b038116808352740100000000000000000000000000000000000000009091046bffffffffffffffffffffffff1692820192909252829161070e5750604080518082019091526000546001600160a01b03811682527401000000000000000000000000000000000000000090046bffffffffffffffffffffffff1660208201525b602081015160009061271090610732906bffffffffffffffffffffffff168761213b565b61073c9190612152565b915196919550909350505050565b600061075583610916565b82106107c95760405162461bcd60e51b815260206004820152602b60248201527f455243373231456e756d657261626c653a206f776e657220696e646578206f7560448201527f74206f6620626f756e64730000000000000000000000000000000000000000006064820152608401610530565b506001600160a01b03919091166000908152600860209081526040808320938352929052205490565b6105d183838360405180602001604052806000815250610bda565b6000610818600a5490565b821061088c5760405162461bcd60e51b815260206004820152602c60248201527f455243373231456e756d657261626c653a20676c6f62616c20696e646578206f60448201527f7574206f6620626f756e647300000000000000000000000000000000000000006064820152608401610530565b600a828154811061089f5761089f61218d565b90600052602060002001549050919050565b6000818152600460205260408120546001600160a01b0316806103e15760405162461bcd60e51b815260206004820152601860248201527f4552433732313a20696e76616c696420746f6b656e20494400000000000000006044820152606401610530565b60006001600160a01b0382166109945760405162461bcd60e51b815260206004820152602960248201527f4552433732313a2061646472657373207a65726f206973206e6f74206120766160448201527f6c6964206f776e657200000000000000000000000000000000000000000000006064820152608401610530565b506001600160a01b031660009081526005602052604090205490565b60006109ba611171565b336001600160a01b037f00000000000000000000000000000000000000000000000000000000000000001614610a585760405162461bcd60e51b815260206004820152602660248201527f6d696e74546f3a2063616c6c6572206973206e6f7420666163746f727920636f60448201527f6e747261637400000000000000000000000000000000000000000000000000006064820152608401610530565b6000610a626111ca565b9050610a6e83826111e1565b9050610a7a6001600c55565b919050565b6060610a8a82610916565b67ffffffffffffffff811115610aa257610aa2611f6c565b604051908082528060200260200182016040528015610acb578160200160208202803683370190505b50905060005b610ada83610916565b811015610b1057610aeb838261074a565b828281518110610afd57610afd61218d565b6020908102919091010152600101610ad1565b50919050565b6000610b21836108b1565b90506105d18183856105e6565b6060600380546103f6906120bf565b600e8054610b4a906120bf565b80601f0160208091040260200160405190810160405280929190818152602001828054610b76906120bf565b8015610bc35780601f10610b9857610100808354040283529160200191610bc3565b820191906000526020600020905b815481529060010190602001808311610ba657829003601f168201915b505050505081565b610bd63383836111fb565b5050565b610be43383610e86565b610c565760405162461bcd60e51b815260206004820152602d60248201527f4552433732313a2063616c6c6572206973206e6f7420746f6b656e206f776e6560448201527f72206f7220617070726f766564000000000000000000000000000000000000006064820152608401610530565b610c62848484846112e7565b50505050565b6000818152600460205260409020546060906001600160a01b0316610cf55760405162461bcd60e51b815260206004820152602f60248201527f4552433732314d657461646174613a2055524920717565727920666f72206e6f60448201527f6e6578697374656e7420746f6b656e00000000000000000000000000000000006064820152608401610530565b600e610d0083611370565b604051602001610d119291906121d8565b6040516020818303038152906040529050919050565b600f8054610b4a906120bf565b6060600f80546103f6906120bf565b60007fffffffff0000000000000000000000000000000000000000000000000000000082167f780e9d630000000000000000000000000000000000000000000000000000000014806103e157506103e18261142e565b6000818152600460205260409020546001600160a01b0316610dfd5760405162461bcd60e51b815260206004820152601860248201527f4552433732313a20696e76616c696420746f6b656e20494400000000000000006044820152606401610530565b50565b600081815260066020526040902080547fffffffffffffffffffffffff0000000000000000000000000000000000000000166001600160a01b0384169081179091558190610e4d826108b1565b6001600160a01b03167f8c5be1e5ebec7d5bd14f71427d1e84f3dd0314c0f7b2291e5b200ac8c7c3b92560405160405180910390a45050565b600080610e92836108b1565b9050806001600160a01b0316846001600160a01b03161480610ed957506001600160a01b0380821660009081526007602090815260408083209388168352929052205460ff165b80610efd5750836001600160a01b0316610ef284610479565b6001600160a01b0316145b949350505050565b826001600160a01b0316610f18826108b1565b6001600160a01b031614610f945760405162461bcd60e51b815260206004820152602560248201527f4552433732313a207472616e736665722066726f6d20696e636f72726563742060448201527f6f776e65720000000000000000000000000000000000000000000000000000006064820152608401610530565b6001600160a01b03821661100f5760405162461bcd60e51b8152602060048201526024808201527f4552433732313a207472616e7366657220746f20746865207a65726f2061646460448201527f72657373000000000000000000000000000000000000000000000000000000006064820152608401610530565b61101c83838360016114d0565b826001600160a01b031661102f826108b1565b6001600160a01b0316146110ab5760405162461bcd60e51b815260206004820152602560248201527f4552433732313a207472616e736665722066726f6d20696e636f72726563742060448201527f6f776e65720000000000000000000000000000000000000000000000000000006064820152608401610530565b600081815260066020908152604080832080547fffffffffffffffffffffffff00000000000000000000000000000000000000009081169091556001600160a01b038781168086526005855283862080547fffffffffffffffffffffffffffffffffffffffffffffffffffffffffffffffff01905590871680865283862080546001019055868652600490945282852080549092168417909155905184937fddf252ad1be2c89b69c2b068fc378daa952ba7f163c4a11628f55a4df523b3ef91a4505050565b6002600c54036111c35760405162461bcd60e51b815260206004820152601f60248201527f5265656e7472616e637947756172643a207265656e7472616e742063616c6c006044820152606401610530565b6002600c55565b60006111da600d80546001019055565b50600d5490565b610bd68282604051806020016040528060008152506114dc565b816001600160a01b0316836001600160a01b03160361125c5760405162461bcd60e51b815260206004820152601960248201527f4552433732313a20617070726f766520746f2063616c6c6572000000000000006044820152606401610530565b6001600160a01b0383811660008181526007602090815260408083209487168084529482529182902080547fffffffffffffffffffffffffffffffffffffffffffffffffffffffffffffff001686151590811790915591519182527f17307eab39ab6107e8899845ad3d59bd9653f200f220920489ca2b5937696c31910160405180910390a3505050565b6112f2848484610f05565b6112fe84848484611565565b610c625760405162461bcd60e51b815260206004820152603260248201527f4552433732313a207472616e7366657220746f206e6f6e20455243373231526560448201527f63656976657220696d706c656d656e74657200000000000000000000000000006064820152608401610530565b6060600061137d83611724565b600101905060008167ffffffffffffffff81111561139d5761139d611f6c565b6040519080825280601f01601f1916602001820160405280156113c7576020820181803683370190505b5090508181016020015b7fffffffffffffffffffffffffffffffffffffffffffffffffffffffffffffffff017f3031323334353637383961626364656600000000000000000000000000000000600a86061a8153600a85049450846113d157509392505050565b60007fffffffff0000000000000000000000000000000000000000000000000000000082167f80ac58cd0000000000000000000000000000000000000000000000000000000014806114c157507fffffffff0000000000000000000000000000000000000000000000000000000082167f5b5e139f00000000000000000000000000000000000000000000000000000000145b806103e157506103e182611806565b610c628484848461189d565b6114e683836119d9565b6114f36000848484611565565b6105d15760405162461bcd60e51b815260206004820152603260248201527f4552433732313a207472616e7366657220746f206e6f6e20455243373231526560448201527f63656976657220696d706c656d656e74657200000000000000000000000000006064820152608401610530565b60006001600160a01b0384163b15611719576040517f150b7a020000000000000000000000000000000000000000000000000000000081526001600160a01b0385169063150b7a02906115c29033908990889088906004016122e7565b6020604051808303816000875af192505050801561161b575060408051601f3d9081017fffffffffffffffffffffffffffffffffffffffffffffffffffffffffffffffe016820190925261161891810190612323565b60015b6116ce573d808015611649576040519150601f19603f3d011682016040523d82523d6000602084013e61164e565b606091505b5080516000036116c65760405162461bcd60e51b815260206004820152603260248201527f4552433732313a207472616e7366657220746f206e6f6e20455243373231526560448201527f63656976657220696d706c656d656e74657200000000000000000000000000006064820152608401610530565b805181602001fd5b7fffffffff00000000000000000000000000000000000000000000000000000000167f150b7a0200000000000000000000000000000000000000000000000000000000149050610efd565b506001949350505050565b6000807a184f03e93ff9f4daa797ed6e38ed64bf6a1f010000000000000000831061176d577a184f03e93ff9f4daa797ed6e38ed64bf6a1f010000000000000000830492506040015b6d04ee2d6d415b85acef81000000008310611799576d04ee2d6d415b85acef8100000000830492506020015b662386f26fc1000083106117b757662386f26fc10000830492506010015b6305f5e10083106117cf576305f5e100830492506008015b61271083106117e357612710830492506004015b606483106117f5576064830492506002015b600a83106103e15760010192915050565b60007fffffffff0000000000000000000000000000000000000000000000000000000082167f2a55205a0000000000000000000000000000000000000000000000000000000014806103e157507f01ffc9a7000000000000000000000000000000000000000000000000000000007fffffffff000000000000000000000000000000000000000000000000000000008316146103e1565b60018111156119145760405162461bcd60e51b815260206004820152603560248201527f455243373231456e756d657261626c653a20636f6e736563757469766520747260448201527f616e7366657273206e6f7420737570706f7274656400000000000000000000006064820152608401610530565b816001600160a01b0385166119705761196b81600a80546000838152600b60205260408120829055600182018355919091527fc65a7bb8d6351c1cf70c95a316cc6a92839c986682d98bc35f958f4883f9d2a80155565b611993565b836001600160a01b0316856001600160a01b031614611993576119938582611b8a565b6001600160a01b0384166119af576119aa81611c27565b6119d2565b846001600160a01b0316846001600160a01b0316146119d2576119d28482611cd6565b5050505050565b6001600160a01b038216611a2f5760405162461bcd60e51b815260206004820181905260248201527f4552433732313a206d696e7420746f20746865207a65726f20616464726573736044820152606401610530565b6000818152600460205260409020546001600160a01b031615611a945760405162461bcd60e51b815260206004820152601c60248201527f4552433732313a20746f6b656e20616c7265616479206d696e746564000000006044820152606401610530565b611aa26000838360016114d0565b6000818152600460205260409020546001600160a01b031615611b075760405162461bcd60e51b815260206004820152601c60248201527f4552433732313a20746f6b656e20616c7265616479206d696e746564000000006044820152606401610530565b6001600160a01b038216600081815260056020908152604080832080546001019055848352600490915280822080547fffffffffffffffffffffffff0000000000000000000000000000000000000000168417905551839291907fddf252ad1be2c89b69c2b068fc378daa952ba7f163c4a11628f55a4df523b3ef908290a45050565b60006001611b9784610916565b611ba19190612340565b600083815260096020526040902054909150808214611bf4576001600160a01b03841660009081526008602090815260408083208584528252808320548484528184208190558352600990915290208190555b5060009182526009602090815260408084208490556001600160a01b039094168352600881528383209183525290812055565b600a54600090611c3990600190612340565b6000838152600b6020526040812054600a8054939450909284908110611c6157611c6161218d565b9060005260206000200154905080600a8381548110611c8257611c8261218d565b6000918252602080832090910192909255828152600b9091526040808220849055858252812055600a805480611cba57611cba612353565b6001900381819060005260206000200160009055905550505050565b6000611ce183610916565b6001600160a01b039093166000908152600860209081526040808320868452825280832085905593825260099052919091209190915550565b7fffffffff0000000000000000000000000000000000000000000000000000000081168114610dfd57600080fd5b600060208284031215611d5a57600080fd5b8135611d6581611d1a565b9392505050565b60005b83811015611d87578181015183820152602001611d6f565b50506000910152565b60008151808452611da8816020860160208601611d6c565b601f017fffffffffffffffffffffffffffffffffffffffffffffffffffffffffffffffe0169290920160200192915050565b602081526000611d656020830184611d90565b600060208284031215611dff57600080fd5b5035919050565b80356001600160a01b0381168114610a7a57600080fd5b60008060408385031215611e3057600080fd5b611e3983611e06565b946020939093013593505050565b600080600060608486031215611e5c57600080fd5b611e6584611e06565b9250611e7360208501611e06565b9150604084013590509250925092565b60008060408385031215611e9657600080fd5b50508035926020909101359150565b600060208284031215611eb757600080fd5b611d6582611e06565b6020808252825182820181905260009190848201906040850190845b81811015611ef857835183529284019291840191600101611edc565b50909695505050505050565b60008060408385031215611f1757600080fd5b82359150611f2760208401611e06565b90509250929050565b60008060408385031215611f4357600080fd5b611f4c83611e06565b915060208301358015158114611f6157600080fd5b809150509250929050565b7f4e487b7100000000000000000000000000000000000000000000000000000000600052604160045260246000fd5b60008060008060808587031215611fb157600080fd5b611fba85611e06565b9350611fc860208601611e06565b925060408501359150606085013567ffffffffffffffff80821115611fec57600080fd5b818701915087601f83011261200057600080fd5b81358181111561201257612012611f6c565b604051601f82017fffffffffffffffffffffffffffffffffffffffffffffffffffffffffffffffe0908116603f0116810190838211818310171561205857612058611f6c565b816040528281528a602084870101111561207157600080fd5b82602086016020830137600060208483010152809550505050505092959194509250565b600080604083850312156120a857600080fd5b6120b183611e06565b9150611f2760208401611e06565b600181811c908216806120d357607f821691505b602082108103610b10577f4e487b7100000000000000000000000000000000000000000000000000000000600052602260045260246000fd5b7f4e487b7100000000000000000000000000000000000000000000000000000000600052601160045260246000fd5b80820281158282048414176103e1576103e161210c565b600082612188577f4e487b7100000000000000000000000000000000000000000000000000000000600052601260045260246000fd5b500490565b7f4e487b7100000000000000000000000000000000000000000000000000000000600052603260045260246000fd5b600081516121ce818560208601611d6c565b9290920192915050565b60008084548160018260011c915060018316806121f657607f831692505b6020808410820361222e577f4e487b710000000000000000000000000000000000000000000000000000000086526022600452602486fd5b8180156122425760018114612275576122a2565b7fffffffffffffffffffffffffffffffffffffffffffffffffffffffffffffff00861689528415158502890196506122a2565b60008b81526020902060005b8681101561229a5781548b820152908501908301612281565b505084890196505b5050505050506122de6122b582866121bc565b7f2e6a736f6e000000000000000000000000000000000000000000000000000000815260050190565b95945050505050565b60006001600160a01b038087168352808616602084015250836040830152608060608301526123196080830184611d90565b9695505050505050565b60006020828403121561233557600080fd5b8151611d6581611d1a565b818103818111156103e1576103e161210c565b7f4e487b7100000000000000000000000000000000000000000000000000000000600052603160045260246000fdfea2646970667358221220235e7aa3b80a083075ba2bd70153dccafcfe6602bbd8e75b10dbd6a7a2319c1064736f6c63430008180033","linkReferences":{}},"methodIdentifiers":{"FACTORY()":"2dd31000","approve(address,uint256)":"095ea7b3","balanceOf(address)":"70a08231","baseUri()":"9abc8320","collectionUri()":"defcd4b3","contractURI()":"e8a3d485","getApproved(uint256)":"081812fc","isApprovedForAll(address,address)":"e985e9c5","mintTo(address)":"755edd17","name()":"06fdde03","ownerOf(uint256)":"6352211e","royaltyInfo(uint256,uint256)":"2a55205a","safeTransferFrom(address,address,uint256)":"42842e0e","safeTransferFrom(address,address,uint256,bytes)":"b88d4fde","setApprovalForAll(address,bool)":"a22cb465","supportsInterface(bytes4)":"01ffc9a7","symbol()":"95d89b41","tokenByIndex(uint256)":"4f6ccce7","tokenOfOwnerByIndex(address,uint256)":"2f745c59","tokenURI(uint256)":"c87b56dd","totalSupply()":"18160ddd","transferFrom(address,address,uint256)":"23b872dd","transferNFT(uint256,address)":"9036c050","userTokenIdList(address)":"80971103"},"id":10}