{"abi":[{"type":"constructor","inputs":[{"name":"_ownable","type":"address","internalType":"address"},{"name":"_uniHelper","type":"address","internalType":"address"}],"stateMutability":"nonpayable"},{"type":"receive","stateMutability":"payable"},{"type":"function","name":"baseUri","inputs":[],"outputs":[{"name":"","type":"string","internalType":"string"}],"stateMutability":"view"},{"type":"function","name":"categoryList","inputs":[{"name":"","type":"uint256","internalType":"uint256"}],"outputs":[{"name":"","type":"uint256","internalType":"uint256"}],"stateMutability":"view"},{"type":"function","name":"collectionUri","inputs":[],"outputs":[{"name":"","type":"string","internalType":"string"}],"stateMutability":"view"},{"type":"function","name":"deploySubNFTContract","inputs":[{"name":"_name","type":"string","internalType":"string"},{"name":"_symbol","type":"string","internalType":"string"}],"outputs":[],"stateMutability":"nonpayable"},{"type":"function","name":"getExpectedTokenAmount","inputs":[{"name":"_token","type":"address","internalType":"address"},{"name":"_usdcAmount","type":"uint256","internalType":"uint256"}],"outputs":[{"name":"amount_","type":"uint256","internalType":"uint256"}],"stateMutability":"view"},{"type":"function","name":"getLockInfo","inputs":[{"name":"_tokenId","type":"uint256","internalType":"uint256"}],"outputs":[{"name":"subPeriod_","type":"uint256","internalType":"uint256"},{"name":"lockPeriod_","type":"uint256","internalType":"uint256"},{"name":"lockTime_","type":"uint256","internalType":"uint256"},{"name":"category_","type":"uint256","internalType":"uint256"},{"name":"minter_","type":"address","internalType":"address"}],"stateMutability":"view"},{"type":"function","name":"getMintInfo","inputs":[{"name":"_category","type":"uint256","internalType":"uint256"}],"outputs":[{"name":"mintAmount_","type":"uint256","internalType":"uint256"},{"name":"mintPrice_","type":"uint256","internalType":"uint256"},{"name":"lockPeriod_","type":"uint256","internalType":"uint256"}],"stateMutability":"view"},{"type":"function","name":"getNFTOwner","inputs":[{"name":"_tokenId","type":"uint256","internalType":"uint256"}],"outputs":[{"name":"owner_","type":"address","internalType":"address"}],"stateMutability":"view"},{"type":"function","name":"getTokenUri","inputs":[{"name":"_tokenId","type":"uint256","internalType":"uint256"}],"outputs":[{"name":"tokeUri_","type":"string","internalType":"string"}],"stateMutability":"view"},{"type":"function","name":"getTotalSupply","inputs":[],"outputs":[{"name":"","type":"uint256","internalType":"uint256"}],"stateMutability":"view"},{"type":"function","name":"getUserTokenIdList","inputs":[{"name":"_owner","type":"address","internalType":"address"}],"outputs":[{"name":"tokenIds_","type":"uint256[]","internalType":"uint256[]"}],"stateMutability":"view"},{"type":"function","name":"lockNFT","inputs":[{"name":"_tokenId","type":"uint256","internalType":"uint256"}],"outputs":[],"stateMutability":"nonpayable"},{"type":"function","name":"mintToBatch","inputs":[{"name":"_token","type":"address","internalType":"address"},{"name":"_toList","type":"address[]","internalType":"address[]"},{"name":"_periodList","type":"uint256[]","internalType":"uint256[]"},{"name":"_categoryList","type":"uint256[]","internalType":"uint256[]"}],"outputs":[],"stateMutability":"payable"},{"type":"function","name":"onERC721Received","inputs":[{"name":"","type":"address","internalType":"address"},{"name":"","type":"address","internalType":"address"},{"name":"","type":"uint256","internalType":"uint256"},{"name":"","type":"bytes","internalType":"bytes"}],"outputs":[{"name":"","type":"bytes4","internalType":"bytes4"}],"stateMutability":"pure"},{"type":"function","name":"setBaseURI","inputs":[{"name":"_baseUri","type":"string","internalType":"string"},{"name":"_collectionUri","type":"string","internalType":"string"}],"outputs":[],"stateMutability":"nonpayable"},{"type":"function","name":"setMintInfo","inputs":[{"name":"_mintAmount","type":"uint256","internalType":"uint256"},{"name":"_mintPrice","type":"uint256","internalType":"uint256"},{"name":"_lockPeriod","type":"uint256","internalType":"uint256"},{"name":"_category","type":"uint256","internalType":"uint256"}],"outputs":[],"stateMutability":"nonpayable"},{"type":"function","name":"subNFTAddress","inputs":[],"outputs":[{"name":"","type":"address","internalType":"address"}],"stateMutability":"view"},{"type":"function","name":"subNFTTokenList","inputs":[{"name":"","type":"address","internalType":"address"},{"name":"","type":"uint256","internalType":"uint256"}],"outputs":[{"name":"","type":"uint256","internalType":"uint256"}],"stateMutability":"view"},{"type":"function","name":"unlockNFT","inputs":[{"name":"_tokenId","type":"uint256","internalType":"uint256"}],"outputs":[],"stateMutability":"nonpayable"},{"type":"event","name":"SubscriptionERC721Created","inputs":[{"name":"nftCreator","type":"address","indexed":true,"internalType":"address"},{"name":"nftContract","type":"address","indexed":false,"internalType":"address"}],"anonymous":false},{"type":"event","name":"SubscriptionERC721Minted","inputs":[{"name":"receiver","type":"address","indexed":false,"internalType":"address"},{"name":"subscriptionPeriod","type":"uint256","indexed":false,"internalType":"uint256"},{"name":"tokenId","type":"uint256","indexed":true,"internalType":"uint256"}],"anonymous":false},{"type":"event","name":"SubscriptionNFTLocked","inputs":[{"name":"tokenId","type":"uint256","indexed":true,"internalType":"uint256"},{"name":"lockPeriod","type":"uint256","indexed":false,"internalType":"uint256"},{"name":"owner","type":"address","indexed":false,"internalType":"address"}],"anonymous":false},{"type":"event","name":"SubscriptionNFTUnLocked","inputs":[{"name":"tokenId","type":"uint256","indexed":true,"internalType":"uint256"},{"name":"owner","type":"address","indexed":false,"internalType":"address"}],"anonymous":false}],"bytecode":{"object":"0x60c06040523480156200001157600080fd5b5060405162005bec38038062005bec833981016040819052620000349162000123565b60016000556001600160a01b038216620000955760405162461bcd60e51b815260206004820152601d60248201527f6f776e61626c65436f6e74726163743a205a65726f206164647265737300000060448201526064015b60405180910390fd5b6001600160a01b038083166080528116620000f35760405162461bcd60e51b815260206004820152601f60248201527f756e6948656c706572436f6e74726163743a205a65726f20616464726573730060448201526064016200008c565b6001600160a01b031660a052506200015b565b80516001600160a01b03811681146200011e57600080fd5b919050565b600080604083850312156200013757600080fd5b620001428362000106565b9150620001526020840162000106565b90509250929050565b60805160a051615a17620001d56000396000818161082a01528181611a8601528181611af601528181611b7b0152611d2401526000818161078c0152818161085a01528181610bc401528181610d81015281816111b701528181611c0a01528181611db301528181611e4a0152611f350152615a176000f3fe608060405260043610620001625760003560e01c80638ad9134511620000cf578063c4e41b22116200007d578063deaea2e31162000060578063deaea2e31462000484578063defcd4b314620004a9578063f826276c14620004c157600080fd5b8063c4e41b221462000415578063c9102afd146200042d57600080fd5b8063b1b2274111620000b2578063b1b227411462000397578063c21260a514620003cb578063c2935d1314620003f057600080fd5b80638ad91345146200034b5780639abc8320146200037f57600080fd5b806342189514116200012d5780636711c37311620001105780636711c37314620002c65780636790a9de14620002eb5780636bba2ff7146200031057600080fd5b806342189514146200026e5780636014606c14620002af57600080fd5b806308e4b463146200016f578063150b7a0214620001a75780632b7170d014620002225780633e96c149146200024957600080fd5b366200016a57005b600080fd5b3480156200017c57600080fd5b50620001946200018e3660046200290e565b620004e6565b6040519081526020015b60405180910390f35b348015620001b457600080fd5b50620001f0620001c63660046200293d565b7f150b7a020000000000000000000000000000000000000000000000000000000095945050505050565b6040517fffffffff0000000000000000000000000000000000000000000000000000000090911681526020016200019e565b3480156200022f57600080fd5b506200024762000241366004620029e5565b62000518565b005b3480156200025657600080fd5b5062000194620002683660046200290e565b62000785565b3480156200027b57600080fd5b50620002936200028d366004620029e5565b62000978565b604080519384526020840192909252908201526060016200019e565b62000247620002c036600462002a4e565b62000a0d565b348015620002d357600080fd5b5062000247620002e536600462002bf1565b62000bc2565b348015620002f857600080fd5b50620002476200030a36600462002bf1565b62000d7f565b3480156200031d57600080fd5b5060085462000332906001600160a01b031681565b6040516001600160a01b0390911681526020016200019e565b3480156200035857600080fd5b50620003706200036a366004620029e5565b62000f34565b6040516200019e919062002cb0565b3480156200038c57600080fd5b506200037062001015565b348015620003a457600080fd5b50620003bc620003b636600462002cc5565b620010ab565b6040516200019e919062002cec565b348015620003d857600080fd5b5062000194620003ea366004620029e5565b62001193565b348015620003fd57600080fd5b50620002476200040f36600462002d32565b620011b5565b3480156200042257600080fd5b5062000194620013a2565b3480156200043a57600080fd5b50620004526200044c366004620029e5565b62001431565b6040805195865260208601949094529284019190915260608301526001600160a01b0316608082015260a0016200019e565b3480156200049157600080fd5b5062000332620004a3366004620029e5565b620014f0565b348015620004b657600080fd5b5062000370620015cd565b348015620004ce57600080fd5b5062000247620004e0366004620029e5565b620015dc565b600560205281600052604060002081815481106200050357600080fd5b90600052602060002001600091509150505481565b62000522620018c5565b6007546040517f6352211e000000000000000000000000000000000000000000000000000000008152600481018390526001600160a01b0390911690636352211e90602401602060405180830381865afa15801562000585573d6000803e3d6000fd5b505050506040513d601f19601f82011682018060405250810190620005ab919062002d65565b6001600160a01b0316336001600160a01b031614620006115760405162461bcd60e51b815260206004820152601560248201527f6c6f636b3a206e6f7420746f6b656e206f776e6572000000000000000000000060448201526064015b60405180910390fd5b600081815260046020819052604090912001546001600160a01b031633146200067d5760405162461bcd60e51b815260206004820152601660248201527f6c6f636b3a206e6f7420746f6b656e206d696e74657200000000000000000000604482015260640162000608565b6007546040517f9036c050000000000000000000000000000000000000000000000000000000008152600481018390523060248201526001600160a01b0390911690639036c05090604401600060405180830381600087803b158015620006e357600080fd5b505af1158015620006f8573d6000803e3d6000fd5b505050600082815260046020818152604080842060038082015480875290845282862060029081015496899052948452600182018690554294909101939093558051848152339281019290925291935084917f0bf8275e64e47de3fbe23827caa9b7cf95be0d06a73e56afb99f285381663bf6910160405180910390a25050620007826001600055565b50565b60008190507f00000000000000000000000000000000000000000000000000000000000000006001600160a01b031663fa5692746040518163ffffffff1660e01b8152600401602060405180830381865afa158015620007e9573d6000803e3d6000fd5b505050506040513d601f19601f820116820180604052508101906200080f919062002d65565b6001600160a01b0316836001600160a01b03161462000972577f00000000000000000000000000000000000000000000000000000000000000006001600160a01b031663eeee26ce837f00000000000000000000000000000000000000000000000000000000000000006001600160a01b031663fa5692746040518163ffffffff1660e01b8152600401602060405180830381865afa158015620008b7573d6000803e3d6000fd5b505050506040513d601f19601f82011682018060405250810190620008dd919062002d65565b6040517fffffffff0000000000000000000000000000000000000000000000000000000060e085901b16815260048101929092526001600160a01b03908116602483015286166044820152606401602060405180830381865afa15801562000949573d6000803e3d6000fd5b505050506040513d601f19601f820116820180604052508101906200096f919062002d85565b90505b92915050565b600080600083600003620009cf5760405162461bcd60e51b815260206004820152601260248201527f6765743a207a65726f2063617465676f72790000000000000000000000000000604482015260640162000608565b505050600090815260036020908152604091829020825160608101845281548082526001830154938201849052600290920154930183905292909190565b62000a17620018c5565b84801580159062000a2957506103e881105b62000a775760405162461bcd60e51b815260206004820152601b60248201527f62617463684d696e743a207a65726f206974656d206c656e6774680000000000604482015260640162000608565b80841462000ac85760405162461bcd60e51b815260206004820152601c60248201527f62617463684d696e743a20626164206974656d2d31206c656e67746800000000604482015260640162000608565b80821462000b195760405162461bcd60e51b815260206004820152601c60248201527f62617463684d696e743a20626164206974656d2d32206c656e67746800000000604482015260640162000608565b62000b28888686868662001920565b60005b8181101562000bac5762000ba38989898481811062000b4e5762000b4e62002d9f565b905060200201602081019062000b65919062002cc5565b88888581811062000b7a5762000b7a62002d9f565b9050602002013587878681811062000b965762000b9662002d9f565b9050602002013562001e48565b60010162000b2b565b505062000bb96001600055565b50505050505050565b7f00000000000000000000000000000000000000000000000000000000000000006001600160a01b0316633ec045a66040518163ffffffff1660e01b8152600401602060405180830381865afa15801562000c21573d6000803e3d6000fd5b505050506040513d601f19601f8201168201806040525081019062000c47919062002d65565b6001600160a01b0316336001600160a01b03161462000ca95760405162461bcd60e51b815260206004820152601960248201527f63616c6c6572206973206e6f74207468652061756469746f7200000000000000604482015260640162000608565b62000cb3620018c5565b6001600283833060405162000cc890620028ea565b62000cd895949392919062002ec6565b604051809103906000f08015801562000cf5573d6000803e3d6000fd5b50600780547fffffffffffffffffffffffff00000000000000000000000000000000000000009081166001600160a01b0393909316928317909155600880549091168217905560405190815233907fe2456ef0668a09be4575615c8127f8793202a972ce32e09db0eeb5f1979fbf989060200160405180910390a262000d7b6001600055565b5050565b7f00000000000000000000000000000000000000000000000000000000000000006001600160a01b0316633ec045a66040518163ffffffff1660e01b8152600401602060405180830381865afa15801562000dde573d6000803e3d6000fd5b505050506040513d601f19601f8201168201806040525081019062000e04919062002d65565b6001600160a01b0316336001600160a01b03161462000e665760405162461bcd60e51b815260206004820152601960248201527f63616c6c6572206973206e6f74207468652061756469746f7200000000000000604482015260640162000608565b8151829060000362000ebb5760405162461bcd60e51b815260206004820152600d60248201527f656d707479206261736555726900000000000000000000000000000000000000604482015260640162000608565b8151829060000362000f105760405162461bcd60e51b815260206004820152601360248201527f656d70747920636f6c6c656374696f6e55726900000000000000000000000000604482015260640162000608565b600162000f1e858262002f83565b50600262000f2d848262002f83565b5050505050565b60608160000362000f885760405162461bcd60e51b815260206004820152601260248201527f6765743a207a65726f20746f6b656e2069640000000000000000000000000000604482015260640162000608565b6007546040517fc87b56dd000000000000000000000000000000000000000000000000000000008152600481018490526001600160a01b039091169063c87b56dd90602401600060405180830381865afa15801562000feb573d6000803e3d6000fd5b505050506040513d6000823e601f3d908101601f191682016040526200097291908101906200308c565b60018054620010249062002dce565b80601f0160208091040260200160405190810160405280929190818152602001828054620010529062002dce565b8015620010a35780601f106200107757610100808354040283529160200191620010a3565b820191906000526020600020905b8154815290600101906020018083116200108557829003601f168201915b505050505081565b60606001600160a01b038216620011055760405162461bcd60e51b815260206004820152600f60248201527f6765743a207a65726f206f776e65720000000000000000000000000000000000604482015260640162000608565b6007546040517f809711030000000000000000000000000000000000000000000000000000000081526001600160a01b03848116600483015290911690638097110390602401600060405180830381865afa15801562001169573d6000803e3d6000fd5b505050506040513d6000823e601f3d908101601f191682016040526200097291908101906200310c565b60068181548110620011a457600080fd5b600091825260209091200154905081565b7f00000000000000000000000000000000000000000000000000000000000000006001600160a01b0316633ec045a66040518163ffffffff1660e01b8152600401602060405180830381865afa15801562001214573d6000803e3d6000fd5b505050506040513d601f19601f820116820180604052508101906200123a919062002d65565b6001600160a01b0316336001600160a01b0316146200129c5760405162461bcd60e51b815260206004820152601960248201527f63616c6c6572206973206e6f74207468652061756469746f7200000000000000604482015260640162000608565b83600003620012ee5760405162461bcd60e51b815260206004820152601e60248201527f73657441646d696e4d696e743a207a65726f206d696e7420616d6f756e740000604482015260640162000608565b80600003620013405760405162461bcd60e51b815260206004820152601b60248201527f73657441646d696e4d696e743a207a65726f2063617465676f72790000000000604482015260640162000608565b600081815260036020526040812080549091036200138e57600680546001810182556000919091527ff652222313e28459528d920b65115c16c04f3efc82aaedc97be59f3f377c0d3f018290555b938455506001830191909155600290910155565b600754604080517f18160ddd00000000000000000000000000000000000000000000000000000000815290516000926001600160a01b0316916318160ddd9160048083019260209291908290030181865afa15801562001406573d6000803e3d6000fd5b505050506040513d601f19601f820116820180604052508101906200142c919062002d85565b905090565b6000806000806000856000036200148b5760405162461bcd60e51b815260206004820152601160248201527f6765743a207a65726f20746f6b656e4964000000000000000000000000000000604482015260640162000608565b5050506000928352505060046020818152604092839020835160a08101855281548082526001830154938201849052600283015495820186905260038301546060830181905292909401546001600160a01b0316608090910181905292949193929091565b600081600003620015445760405162461bcd60e51b815260206004820152601260248201527f6765743a207a65726f20746f6b656e2069640000000000000000000000000000604482015260640162000608565b6007546040517f6352211e000000000000000000000000000000000000000000000000000000008152600481018490526001600160a01b0390911690636352211e90602401602060405180830381865afa158015620015a7573d6000803e3d6000fd5b505050506040513d601f19601f8201168201806040525081019062000972919062002d65565b60028054620010249062002dce565b620015e6620018c5565b6007546040517f6352211e000000000000000000000000000000000000000000000000000000008152600481018390526001600160a01b0390911690636352211e90602401602060405180830381865afa15801562001649573d6000803e3d6000fd5b505050506040513d601f19601f820116820180604052508101906200166f919062002d65565b6001600160a01b0316306001600160a01b031614620016d15760405162461bcd60e51b815260206004820152601760248201527f756e6c6f636b3a206e6f7420746f6b656e206f776e6572000000000000000000604482015260640162000608565b600081815260046020819052604090912001546001600160a01b031633146200173d5760405162461bcd60e51b815260206004820152601860248201527f756e6c6f636b3a206e6f7420746f6b656e206d696e7465720000000000000000604482015260640162000608565b600081815260046020818152604092839020835160a0810185528154815260018201549281018390526002820154948101859052600382015460608201529201546001600160a01b0316608083015290916200179991620031ec565b4211620017e95760405162461bcd60e51b815260206004820152601260248201527f756e6c6f636b3a206c6f636b6564207965740000000000000000000000000000604482015260640162000608565b6007546040517f9036c050000000000000000000000000000000000000000000000000000000008152600481018490523360248201526001600160a01b0390911690639036c05090604401600060405180830381600087803b1580156200184f57600080fd5b505af115801562001864573d6000803e3d6000fd5b5050506000838152600460209081526040808320600181018490556002019290925590513381528492507f9d7ae7064b9e89d4b180b297cdbd05ec2251ce94142ab5cc72d13ef64716ea97910160405180910390a250620007826001600055565b600260005403620019195760405162461bcd60e51b815260206004820152601f60248201527f5265656e7472616e637947756172643a207265656e7472616e742063616c6c00604482015260640162000608565b6002600055565b6000836103e88110620019765760405162461bcd60e51b815260206004820152600960248201527f6261642061727261790000000000000000000000000000000000000000000000604482015260640162000608565b60005b81811015620019fe576000600360008787858181106200199d576200199d62002d9f565b905060200201358152602001908152602001600020600101549050620019e689828a8a86818110620019d357620019d362002d9f565b9050602002013562000268919062003202565b620019f29085620031ec565b93505060010162001979565b506001600160a01b03871662001ab2578134101562001a605760405162461bcd60e51b815260206004820152601c60248201527f68616e646c655061793a20496e73756666696369656e74207061696400000000604482015260640162000608565b8134111562001a805762001a803362001a7a84346200321c565b6200228b565b62001aac7f0000000000000000000000000000000000000000000000000000000000000000836200228b565b62001c05565b62001ac08733308562002379565b6040517fdd62ed3e0000000000000000000000000000000000000000000000000000000081523060048201526001600160a01b037f00000000000000000000000000000000000000000000000000000000000000008116602483015288169063dd62ed3e90604401602060405180830381865afa15801562001b46573d6000803e3d6000fd5b505050506040513d601f19601f8201168201806040525081019062001b6c919062002d85565b60000362001c055762001c05877f0000000000000000000000000000000000000000000000000000000000000000896001600160a01b03166318160ddd6040518163ffffffff1660e01b8152600401602060405180830381865afa15801562001bd9573d6000803e3d6000fd5b505050506040513d601f19601f8201168201806040525081019062001bff919062002d85565b62002554565b6000807f00000000000000000000000000000000000000000000000000000000000000006001600160a01b031663fa5692746040518163ffffffff1660e01b8152600401602060405180830381865afa15801562001c67573d6000803e3d6000fd5b505050506040513d601f19601f8201168201806040525081019062001c8d919062002d65565b9050806001600160a01b0316896001600160a01b03160362001cb25783915062001da5565b6000848a8360405160200162001ce4939291909283526001600160a01b03918216602084015216604082015260600190565b60408051601f19818403018152908290527fab4e9ba600000000000000000000000000000000000000000000000000000000825291506001600160a01b037f0000000000000000000000000000000000000000000000000000000000000000169063ab4e9ba69062001d5b90849060040162002cb0565b6020604051808303816000875af115801562001d7b573d6000803e3d6000fd5b505050506040513d601f19601f8201168201806040525081019062001da1919062002d85565b9250505b811562001e3d5762001e3d817f00000000000000000000000000000000000000000000000000000000000000006001600160a01b0316637d328e5c6040518163ffffffff1660e01b8152600401602060405180830381865afa15801562001e10573d6000803e3d6000fd5b505050506040513d601f19601f8201168201806040525081019062001e36919062002d65565b846200271f565b505050505050505050565b7f00000000000000000000000000000000000000000000000000000000000000006001600160a01b031663e2f6f5116040518163ffffffff1660e01b8152600401602060405180830381865afa15801562001ea7573d6000803e3d6000fd5b505050506040513d601f19601f8201168201806040525081019062001ecd919062002d65565b6001600160a01b0316846001600160a01b03161415801562001ef757506001600160a01b03841615155b1562001ff1576040517fbdbef07d0000000000000000000000000000000000000000000000000000000081526001600160a01b0385811660048301527f0000000000000000000000000000000000000000000000000000000000000000169063bdbef07d90602401602060405180830381865afa15801562001f7d573d6000803e3d6000fd5b505050506040513d601f19601f8201168201806040525081019062001fa3919062003232565b62001ff15760405162461bcd60e51b815260206004820152601760248201527f6d696e743a206e6f7420616c6c6f776564206173736574000000000000000000604482015260640162000608565b6008546001600160a01b03166200204b5760405162461bcd60e51b815260206004820152601460248201527f6d696e743a206e6f74206465706c6f7920796574000000000000000000000000604482015260640162000608565b6000818152600360205260408120549003620020aa5760405162461bcd60e51b815260206004820152601860248201527f6d696e743a206e6f2061646d696e206d696e7420696e666f0000000000000000604482015260640162000608565b620020b4620013a2565b60008281526003602052604090205411620021125760405162461bcd60e51b815260206004820152601c60248201527f6d696e743a20657863656564206d6178206d696e7420616d6f756e7400000000604482015260640162000608565b6000818152600360205260409020600201548381156200212f5750305b6007546040517f755edd170000000000000000000000000000000000000000000000000000000081526001600160a01b038381166004830152600092169063755edd17906024016020604051808303816000875af115801562002196573d6000803e3d6000fd5b505050506040513d601f19601f82011682018060405250810190620021bc919062002d85565b60008181526004602081905260409091208781556001810186905590810180547fffffffffffffffffffffffff000000000000000000000000000000000000000016331790556003810186905590915083156200221a574260028201555b6001600160a01b03831660008181526005602090815260408083208054600181018255908452928290209092018590558151928352820188905283917ff339f77ef29917341ef747d9d123a5972effad8d265b0f53e463ed3c93173aac910160405180910390a25050505050505050565b604080516000808252602082019092526001600160a01b038416908390604051620022b7919062003256565b60006040518083038185875af1925050503d8060008114620022f6576040519150601f19603f3d011682016040523d82523d6000602084013e620022fb565b606091505b5050905080620023745760405162461bcd60e51b815260206004820152602f60248201527f566162626c6544414f3a3a736166655472616e736665724554483a204554482060448201527f7472616e73666572206661696c65640000000000000000000000000000000000606482015260840162000608565b505050565b6001600160a01b0384163b620023d25760405162461bcd60e51b815260206004820152600160248201527f4300000000000000000000000000000000000000000000000000000000000000604482015260640162000608565b604080516001600160a01b0385811660248301528481166044830152606480830185905283518084039091018152608490920183526020820180517bffffffffffffffffffffffffffffffffffffffffffffffffffffffff167f23b872dd00000000000000000000000000000000000000000000000000000000179052915160009283929088169162002466919062003256565b6000604051808303816000865af19150503d8060008114620024a5576040519150601f19603f3d011682016040523d82523d6000602084013e620024aa565b606091505b5091509150818015620024d8575080511580620024d8575080806020019051810190620024d8919062003232565b6200254c5760405162461bcd60e51b815260206004820152602c60248201527f566162626c6544414f3a3a7472616e7366657246726f6d3a207472616e73666560448201527f7246726f6d206661696c65640000000000000000000000000000000000000000606482015260840162000608565b505050505050565b6001600160a01b0383163b620025ad5760405162461bcd60e51b815260206004820152600160248201527f4300000000000000000000000000000000000000000000000000000000000000604482015260640162000608565b604080516001600160a01b038481166024830152604480830185905283518084039091018152606490920183526020820180517bffffffffffffffffffffffffffffffffffffffffffffffffffffffff167f095ea7b300000000000000000000000000000000000000000000000000000000179052915160009283929087169162002639919062003256565b6000604051808303816000865af19150503d806000811462002678576040519150601f19603f3d011682016040523d82523d6000602084013e6200267d565b606091505b5091509150818015620026ab575080511580620026ab575080806020019051810190620026ab919062003232565b62000f2d5760405162461bcd60e51b815260206004820152602b60248201527f5472616e7366657248656c7065723a3a73616665417070726f76653a2061707060448201527f726f7665206661696c6564000000000000000000000000000000000000000000606482015260840162000608565b6001600160a01b0383163b620027785760405162461bcd60e51b815260206004820152600160248201527f4300000000000000000000000000000000000000000000000000000000000000604482015260640162000608565b604080516001600160a01b038481166024830152604480830185905283518084039091018152606490920183526020820180517bffffffffffffffffffffffffffffffffffffffffffffffffffffffff167fa9059cbb00000000000000000000000000000000000000000000000000000000179052915160009283929087169162002804919062003256565b6000604051808303816000865af19150503d806000811462002843576040519150601f19603f3d011682016040523d82523d6000602084013e62002848565b606091505b5091509150818015620028765750805115806200287657508080602001905181019062002876919062003232565b62000f2d5760405162461bcd60e51b815260206004820152602860248201527f566162626c6544414f3a3a736166655472616e736665723a207472616e73666560448201527f72206661696c6564000000000000000000000000000000000000000000000000606482015260840162000608565b61276d806200327583390190565b6001600160a01b03811681146200078257600080fd5b600080604083850312156200292257600080fd5b82356200292f81620028f8565b946020939093013593505050565b6000806000806000608086880312156200295657600080fd5b85356200296381620028f8565b945060208601356200297581620028f8565b935060408601359250606086013567ffffffffffffffff808211156200299a57600080fd5b818801915088601f830112620029af57600080fd5b813581811115620029bf57600080fd5b896020828501011115620029d257600080fd5b9699959850939650602001949392505050565b600060208284031215620029f857600080fd5b5035919050565b60008083601f84011262002a1257600080fd5b50813567ffffffffffffffff81111562002a2b57600080fd5b6020830191508360208260051b850101111562002a4757600080fd5b9250929050565b60008060008060008060006080888a03121562002a6a57600080fd5b873562002a7781620028f8565b9650602088013567ffffffffffffffff8082111562002a9557600080fd5b62002aa38b838c01620029ff565b909850965060408a013591508082111562002abd57600080fd5b62002acb8b838c01620029ff565b909650945060608a013591508082111562002ae557600080fd5b5062002af48a828b01620029ff565b989b979a50959850939692959293505050565b7f4e487b7100000000000000000000000000000000000000000000000000000000600052604160045260246000fd5b604051601f8201601f1916810167ffffffffffffffff8111828210171562002b625762002b6262002b07565b604052919050565b600067ffffffffffffffff82111562002b875762002b8762002b07565b50601f01601f191660200190565b600082601f83011262002ba757600080fd5b813562002bbe62002bb88262002b6a565b62002b36565b81815284602083860101111562002bd457600080fd5b816020850160208301376000918101602001919091529392505050565b6000806040838503121562002c0557600080fd5b823567ffffffffffffffff8082111562002c1e57600080fd5b62002c2c8683870162002b95565b9350602085013591508082111562002c4357600080fd5b5062002c528582860162002b95565b9150509250929050565b60005b8381101562002c7957818101518382015260200162002c5f565b50506000910152565b6000815180845262002c9c81602086016020860162002c5c565b601f01601f19169290920160200192915050565b6020815260006200096f602083018462002c82565b60006020828403121562002cd857600080fd5b813562002ce581620028f8565b9392505050565b6020808252825182820181905260009190848201906040850190845b8181101562002d265783518352928401929184019160010162002d08565b50909695505050505050565b6000806000806080858703121562002d4957600080fd5b5050823594602084013594506040840135936060013592509050565b60006020828403121562002d7857600080fd5b815162002ce581620028f8565b60006020828403121562002d9857600080fd5b5051919050565b7f4e487b7100000000000000000000000000000000000000000000000000000000600052603260045260246000fd5b600181811c9082168062002de357607f821691505b60208210810362002e1d577f4e487b7100000000000000000000000000000000000000000000000000000000600052602260045260246000fd5b50919050565b6000815462002e328162002dce565b80855260206001838116801562002e52576001811462002e8b5762002ebb565b7fffffffffffffffffffffffffffffffffffffffffffffffffffffffffffffff008516838901528284151560051b890101955062002ebb565b866000528260002060005b8581101562002eb35781548a820186015290830190840162002e96565b890184019650505b505050505092915050565b60a08152600062002edb60a083018862002e23565b828103602084015262002eef818862002e23565b9050828103604084015262002f05818762002c82565b9050828103606084015262002f1b818662002c82565b9150506001600160a01b03831660808301529695505050505050565b601f82111562002374576000816000526020600020601f850160051c8101602086101562002f625750805b601f850160051c820191505b818110156200254c5782815560010162002f6e565b815167ffffffffffffffff81111562002fa05762002fa062002b07565b62002fb88162002fb1845462002dce565b8462002f37565b602080601f8311600181146200300e576000841562002fd75750858301515b7fffffffffffffffffffffffffffffffffffffffffffffffffffffffffffffffff600386901b1c1916600185901b1785556200254c565b600085815260208120601f198616915b828110156200303f578886015182559484019460019091019084016200301e565b50858210156200307c57878501517fffffffffffffffffffffffffffffffffffffffffffffffffffffffffffffffff600388901b60f8161c191681555b5050505050600190811b01905550565b6000602082840312156200309f57600080fd5b815167ffffffffffffffff811115620030b757600080fd5b8201601f81018413620030c957600080fd5b8051620030da62002bb88262002b6a565b818152856020838501011115620030f057600080fd5b6200310382602083016020860162002c5c565b95945050505050565b600060208083850312156200312057600080fd5b825167ffffffffffffffff808211156200313957600080fd5b818501915085601f8301126200314e57600080fd5b81518181111562003163576200316362002b07565b8060051b91506200317684830162002b36565b81815291830184019184810190888411156200319157600080fd5b938501935b83851015620031b15784518252938501939085019062003196565b98975050505050505050565b7f4e487b7100000000000000000000000000000000000000000000000000000000600052601160045260246000fd5b80820180821115620009725762000972620031bd565b8082028115828204841417620009725762000972620031bd565b81810381811115620009725762000972620031bd565b6000602082840312156200324557600080fd5b8151801515811462002ce557600080fd5b600082516200326a81846020870162002c5c565b919091019291505056fe60a06040523480156200001157600080fd5b506040516200276d3803806200276d833981016040819052620000349162000158565b82826002620000448382620002c6565b506003620000538282620002c6565b50506001600c5550600e620000698682620002c6565b50600f620000788582620002c6565b506001600160a01b0316608052506200039292505050565b634e487b7160e01b600052604160045260246000fd5b600082601f830112620000b857600080fd5b81516001600160401b0380821115620000d557620000d562000090565b604051601f8301601f19908116603f0116810190828211818310171562000100576200010062000090565b81604052838152602092508660208588010111156200011e57600080fd5b600091505b8382101562000142578582018301518183018401529082019062000123565b6000602085830101528094505050505092915050565b600080600080600060a086880312156200017157600080fd5b85516001600160401b03808211156200018957600080fd5b6200019789838a01620000a6565b96506020880151915080821115620001ae57600080fd5b620001bc89838a01620000a6565b95506040880151915080821115620001d357600080fd5b620001e189838a01620000a6565b94506060880151915080821115620001f857600080fd5b506200020788828901620000a6565b608088015190935090506001600160a01b03811681146200022757600080fd5b809150509295509295909350565b600181811c908216806200024a57607f821691505b6020821081036200026b57634e487b7160e01b600052602260045260246000fd5b50919050565b601f821115620002c1576000816000526020600020601f850160051c810160208610156200029c5750805b601f850160051c820191505b81811015620002bd57828155600101620002a8565b5050505b505050565b81516001600160401b03811115620002e257620002e262000090565b620002fa81620002f3845462000235565b8462000271565b602080601f831160018114620003325760008415620003195750858301515b600019600386901b1c1916600185901b178555620002bd565b600085815260208120601f198616915b82811015620003635788860151825594840194600190910190840162000342565b5085821015620003825787850151600019600388901b60f8161c191681555b5050505050600190811b01905550565b6080516123b8620003b56000396000818161027a01526109c501526123b86000f3fe608060405234801561001057600080fd5b50600436106101985760003560e01c806370a08231116100e3578063a22cb4651161008c578063defcd4b311610066578063defcd4b31461038a578063e8a3d48514610392578063e985e9c51461039a57600080fd5b8063a22cb46514610351578063b88d4fde14610364578063c87b56dd1461037757600080fd5b80639036c050116100bd5780639036c0501461032e57806395d89b41146103415780639abc83201461034957600080fd5b806370a08231146102e8578063755edd17146102fb578063809711031461030e57600080fd5b80632a55205a1161014557806342842e0e1161011f57806342842e0e146102af5780634f6ccce7146102c25780636352211e146102d557600080fd5b80632a55205a146102435780632dd31000146102755780632f745c591461029c57600080fd5b8063095ea7b311610176578063095ea7b31461020557806318160ddd1461021a57806323b872dd1461023057600080fd5b806301ffc9a71461019d57806306fdde03146101c5578063081812fc146101da575b600080fd5b6101b06101ab366004611d48565b6103d6565b60405190151581526020015b60405180910390f35b6101cd6103e7565b6040516101bc9190611dda565b6101ed6101e8366004611ded565b610479565b6040516001600160a01b0390911681526020016101bc565b610218610213366004611e1d565b6104a0565b005b6102226105d6565b6040519081526020016101bc565b61021861023e366004611e47565b6105e6565b610256610251366004611e83565b61066d565b604080516001600160a01b0390931683526020830191909152016101bc565b6101ed7f000000000000000000000000000000000000000000000000000000000000000081565b6102226102aa366004611e1d565b61074a565b6102186102bd366004611e47565b6107f2565b6102226102d0366004611ded565b61080d565b6101ed6102e3366004611ded565b6108b1565b6102226102f6366004611ea5565b610916565b610222610309366004611ea5565b6109b0565b61032161031c366004611ea5565b610a7f565b6040516101bc9190611ec0565b61021861033c366004611f04565b610b16565b6101cd610b2e565b6101cd610b3d565b61021861035f366004611f30565b610bcb565b610218610372366004611f9b565b610bda565b6101cd610385366004611ded565b610c68565b6101cd610d27565b6101cd610d34565b6101b06103a8366004612095565b6001600160a01b03918216600090815260076020908152604080832093909416825291909152205460ff1690565b60006103e182610d43565b92915050565b6060600280546103f6906120bf565b80601f0160208091040260200160405190810160405280929190818152602001828054610422906120bf565b801561046f5780601f106104445761010080835404028352916020019161046f565b820191906000526020600020905b81548152906001019060200180831161045257829003601f168201915b5050505050905090565b600061048482610d99565b506000908152600660205260409020546001600160a01b031690565b60006104ab826108b1565b9050806001600160a01b0316836001600160a01b0316036105395760405162461bcd60e51b815260206004820152602160248201527f4552433732313a20617070726f76616c20746f2063757272656e74206f776e6560448201527f720000000000000000000000000000000000000000000000000000000000000060648201526084015b60405180910390fd5b336001600160a01b0382161480610555575061055581336103a8565b6105c75760405162461bcd60e51b815260206004820152603d60248201527f4552433732313a20617070726f76652063616c6c6572206973206e6f7420746f60448201527f6b656e206f776e6572206f7220617070726f76656420666f7220616c6c0000006064820152608401610530565b6105d18383610e00565b505050565b60006105e1600d5490565b905090565b6105f03382610e86565b6106625760405162461bcd60e51b815260206004820152602d60248201527f4552433732313a2063616c6c6572206973206e6f7420746f6b656e206f776e6560448201527f72206f7220617070726f766564000000000000000000000000000000000000006064820152608401610530565b6105d1838383610f05565b60008281526001602090815260408083208151808301909252546001600160a01b038116808352740100000000000000000000000000000000000000009091046bffffffffffffffffffffffff1692820192909252829161070e5750604080518082019091526000546001600160a01b03811682527401000000000000000000000000000000000000000090046bffffffffffffffffffffffff1660208201525b602081015160009061271090610732906bffffffffffffffffffffffff168761213b565b61073c9190612152565b915196919550909350505050565b600061075583610916565b82106107c95760405162461bcd60e51b815260206004820152602b60248201527f455243373231456e756d657261626c653a206f776e657220696e646578206f7560448201527f74206f6620626f756e64730000000000000000000000000000000000000000006064820152608401610530565b506001600160a01b03919091166000908152600860209081526040808320938352929052205490565b6105d183838360405180602001604052806000815250610bda565b6000610818600a5490565b821061088c5760405162461bcd60e51b815260206004820152602c60248201527f455243373231456e756d657261626c653a20676c6f62616c20696e646578206f60448201527f7574206f6620626f756e647300000000000000000000000000000000000000006064820152608401610530565b600a828154811061089f5761089f61218d565b90600052602060002001549050919050565b6000818152600460205260408120546001600160a01b0316806103e15760405162461bcd60e51b815260206004820152601860248201527f4552433732313a20696e76616c696420746f6b656e20494400000000000000006044820152606401610530565b60006001600160a01b0382166109945760405162461bcd60e51b815260206004820152602960248201527f4552433732313a2061646472657373207a65726f206973206e6f74206120766160448201527f6c6964206f776e657200000000000000000000000000000000000000000000006064820152608401610530565b506001600160a01b031660009081526005602052604090205490565b60006109ba611171565b336001600160a01b037f00000000000000000000000000000000000000000000000000000000000000001614610a585760405162461bcd60e51b815260206004820152602660248201527f6d696e74546f3a2063616c6c6572206973206e6f7420666163746f727920636f60448201527f6e747261637400000000000000000000000000000000000000000000000000006064820152608401610530565b6000610a626111ca565b9050610a6e83826111e1565b9050610a7a6001600c55565b919050565b6060610a8a82610916565b67ffffffffffffffff811115610aa257610aa2611f6c565b604051908082528060200260200182016040528015610acb578160200160208202803683370190505b50905060005b610ada83610916565b811015610b1057610aeb838261074a565b828281518110610afd57610afd61218d565b6020908102919091010152600101610ad1565b50919050565b6000610b21836108b1565b90506105d18183856105e6565b6060600380546103f6906120bf565b600e8054610b4a906120bf565b80601f0160208091040260200160405190810160405280929190818152602001828054610b76906120bf565b8015610bc35780601f10610b9857610100808354040283529160200191610bc3565b820191906000526020600020905b815481529060010190602001808311610ba657829003601f168201915b505050505081565b610bd63383836111fb565b5050565b610be43383610e86565b610c565760405162461bcd60e51b815260206004820152602d60248201527f4552433732313a2063616c6c6572206973206e6f7420746f6b656e206f776e6560448201527f72206f7220617070726f766564000000000000000000000000000000000000006064820152608401610530565b610c62848484846112e7565b50505050565b6000818152600460205260409020546060906001600160a01b0316610cf55760405162461bcd60e51b815260206004820152602f60248201527f4552433732314d657461646174613a2055524920717565727920666f72206e6f60448201527f6e6578697374656e7420746f6b656e00000000000000000000000000000000006064820152608401610530565b600e610d0083611370565b604051602001610d119291906121d8565b6040516020818303038152906040529050919050565b600f8054610b4a906120bf565b6060600f80546103f6906120bf565b60007fffffffff0000000000000000000000000000000000000000000000000000000082167f780e9d630000000000000000000000000000000000000000000000000000000014806103e157506103e18261142e565b6000818152600460205260409020546001600160a01b0316610dfd5760405162461bcd60e51b815260206004820152601860248201527f4552433732313a20696e76616c696420746f6b656e20494400000000000000006044820152606401610530565b50565b600081815260066020526040902080547fffffffffffffffffffffffff0000000000000000000000000000000000000000166001600160a01b0384169081179091558190610e4d826108b1565b6001600160a01b03167f8c5be1e5ebec7d5bd14f71427d1e84f3dd0314c0f7b2291e5b200ac8c7c3b92560405160405180910390a45050565b600080610e92836108b1565b9050806001600160a01b0316846001600160a01b03161480610ed957506001600160a01b0380821660009081526007602090815260408083209388168352929052205460ff165b80610efd5750836001600160a01b0316610ef284610479565b6001600160a01b0316145b949350505050565b826001600160a01b0316610f18826108b1565b6001600160a01b031614610f945760405162461bcd60e51b815260206004820152602560248201527f4552433732313a207472616e736665722066726f6d20696e636f72726563742060448201527f6f776e65720000000000000000000000000000000000000000000000000000006064820152608401610530565b6001600160a01b03821661100f5760405162461bcd60e51b8152602060048201526024808201527f4552433732313a207472616e7366657220746f20746865207a65726f2061646460448201527f72657373000000000000000000000000000000000000000000000000000000006064820152608401610530565b61101c83838360016114d0565b826001600160a01b031661102f826108b1565b6001600160a01b0316146110ab5760405162461bcd60e51b815260206004820152602560248201527f4552433732313a207472616e736665722066726f6d20696e636f72726563742060448201527f6f776e65720000000000000000000000000000000000000000000000000000006064820152608401610530565b600081815260066020908152604080832080547fffffffffffffffffffffffff00000000000000000000000000000000000000009081169091556001600160a01b038781168086526005855283862080547fffffffffffffffffffffffffffffffffffffffffffffffffffffffffffffffff01905590871680865283862080546001019055868652600490945282852080549092168417909155905184937fddf252ad1be2c89b69c2b068fc378daa952ba7f163c4a11628f55a4df523b3ef91a4505050565b6002600c54036111c35760405162461bcd60e51b815260206004820152601f60248201527f5265656e7472616e637947756172643a207265656e7472616e742063616c6c006044820152606401610530565b6002600c55565b60006111da600d80546001019055565b50600d5490565b610bd68282604051806020016040528060008152506114dc565b816001600160a01b0316836001600160a01b03160361125c5760405162461bcd60e51b815260206004820152601960248201527f4552433732313a20617070726f766520746f2063616c6c6572000000000000006044820152606401610530565b6001600160a01b0383811660008181526007602090815260408083209487168084529482529182902080547fffffffffffffffffffffffffffffffffffffffffffffffffffffffffffffff001686151590811790915591519182527f17307eab39ab6107e8899845ad3d59bd9653f200f220920489ca2b5937696c31910160405180910390a3505050565b6112f2848484610f05565b6112fe84848484611565565b610c625760405162461bcd60e51b815260206004820152603260248201527f4552433732313a207472616e7366657220746f206e6f6e20455243373231526560448201527f63656976657220696d706c656d656e74657200000000000000000000000000006064820152608401610530565b6060600061137d83611724565b600101905060008167ffffffffffffffff81111561139d5761139d611f6c565b6040519080825280601f01601f1916602001820160405280156113c7576020820181803683370190505b5090508181016020015b7fffffffffffffffffffffffffffffffffffffffffffffffffffffffffffffffff017f3031323334353637383961626364656600000000000000000000000000000000600a86061a8153600a85049450846113d157509392505050565b60007fffffffff0000000000000000000000000000000000000000000000000000000082167f80ac58cd0000000000000000000000000000000000000000000000000000000014806114c157507fffffffff0000000000000000000000000000000000000000000000000000000082167f5b5e139f00000000000000000000000000000000000000000000000000000000145b806103e157506103e182611806565b610c628484848461189d565b6114e683836119d9565b6114f36000848484611565565b6105d15760405162461bcd60e51b815260206004820152603260248201527f4552433732313a207472616e7366657220746f206e6f6e20455243373231526560448201527f63656976657220696d706c656d656e74657200000000000000000000000000006064820152608401610530565b60006001600160a01b0384163b15611719576040517f150b7a020000000000000000000000000000000000000000000000000000000081526001600160a01b0385169063150b7a02906115c29033908990889088906004016122e7565b6020604051808303816000875af192505050801561161b575060408051601f3d9081017fffffffffffffffffffffffffffffffffffffffffffffffffffffffffffffffe016820190925261161891810190612323565b60015b6116ce573d808015611649576040519150601f19603f3d011682016040523d82523d6000602084013e61164e565b606091505b5080516000036116c65760405162461bcd60e51b815260206004820152603260248201527f4552433732313a207472616e7366657220746f206e6f6e20455243373231526560448201527f63656976657220696d706c656d656e74657200000000000000000000000000006064820152608401610530565b805181602001fd5b7fffffffff00000000000000000000000000000000000000000000000000000000167f150b7a0200000000000000000000000000000000000000000000000000000000149050610efd565b506001949350505050565b6000807a184f03e93ff9f4daa797ed6e38ed64bf6a1f010000000000000000831061176d577a184f03e93ff9f4daa797ed6e38ed64bf6a1f010000000000000000830492506040015b6d04ee2d6d415b85acef81000000008310611799576d04ee2d6d415b85acef8100000000830492506020015b662386f26fc1000083106117b757662386f26fc10000830492506010015b6305f5e10083106117cf576305f5e100830492506008015b61271083106117e357612710830492506004015b606483106117f5576064830492506002015b600a83106103e15760010192915050565b60007fffffffff0000000000000000000000000000000000000000000000000000000082167f2a55205a0000000000000000000000000000000000000000000000000000000014806103e157507f01ffc9a7000000000000000000000000000000000000000000000000000000007fffffffff000000000000000000000000000000000000000000000000000000008316146103e1565b60018111156119145760405162461bcd60e51b815260206004820152603560248201527f455243373231456e756d657261626c653a20636f6e736563757469766520747260448201527f616e7366657273206e6f7420737570706f7274656400000000000000000000006064820152608401610530565b816001600160a01b0385166119705761196b81600a80546000838152600b60205260408120829055600182018355919091527fc65a7bb8d6351c1cf70c95a316cc6a92839c986682d98bc35f958f4883f9d2a80155565b611993565b836001600160a01b0316856001600160a01b031614611993576119938582611b8a565b6001600160a01b0384166119af576119aa81611c27565b6119d2565b846001600160a01b0316846001600160a01b0316146119d2576119d28482611cd6565b5050505050565b6001600160a01b038216611a2f5760405162461bcd60e51b815260206004820181905260248201527f4552433732313a206d696e7420746f20746865207a65726f20616464726573736044820152606401610530565b6000818152600460205260409020546001600160a01b031615611a945760405162461bcd60e51b815260206004820152601c60248201527f4552433732313a20746f6b656e20616c7265616479206d696e746564000000006044820152606401610530565b611aa26000838360016114d0565b6000818152600460205260409020546001600160a01b031615611b075760405162461bcd60e51b815260206004820152601c60248201527f4552433732313a20746f6b656e20616c7265616479206d696e746564000000006044820152606401610530565b6001600160a01b038216600081815260056020908152604080832080546001019055848352600490915280822080547fffffffffffffffffffffffff0000000000000000000000000000000000000000168417905551839291907fddf252ad1be2c89b69c2b068fc378daa952ba7f163c4a11628f55a4df523b3ef908290a45050565b60006001611b9784610916565b611ba19190612340565b600083815260096020526040902054909150808214611bf4576001600160a01b03841660009081526008602090815260408083208584528252808320548484528184208190558352600990915290208190555b5060009182526009602090815260408084208490556001600160a01b039094168352600881528383209183525290812055565b600a54600090611c3990600190612340565b6000838152600b6020526040812054600a8054939450909284908110611c6157611c6161218d565b9060005260206000200154905080600a8381548110611c8257611c8261218d565b6000918252602080832090910192909255828152600b9091526040808220849055858252812055600a805480611cba57611cba612353565b6001900381819060005260206000200160009055905550505050565b6000611ce183610916565b6001600160a01b039093166000908152600860209081526040808320868452825280832085905593825260099052919091209190915550565b7fffffffff0000000000000000000000000000000000000000000000000000000081168114610dfd57600080fd5b600060208284031215611d5a57600080fd5b8135611d6581611d1a565b9392505050565b60005b83811015611d87578181015183820152602001611d6f565b50506000910152565b60008151808452611da8816020860160208601611d6c565b601f017fffffffffffffffffffffffffffffffffffffffffffffffffffffffffffffffe0169290920160200192915050565b602081526000611d656020830184611d90565b600060208284031215611dff57600080fd5b5035919050565b80356001600160a01b0381168114610a7a57600080fd5b60008060408385031215611e3057600080fd5b611e3983611e06565b946020939093013593505050565b600080600060608486031215611e5c57600080fd5b611e6584611e06565b9250611e7360208501611e06565b9150604084013590509250925092565b60008060408385031215611e9657600080fd5b50508035926020909101359150565b600060208284031215611eb757600080fd5b611d6582611e06565b6020808252825182820181905260009190848201906040850190845b81811015611ef857835183529284019291840191600101611edc565b50909695505050505050565b60008060408385031215611f1757600080fd5b82359150611f2760208401611e06565b90509250929050565b60008060408385031215611f4357600080fd5b611f4c83611e06565b915060208301358015158114611f6157600080fd5b809150509250929050565b7f4e487b7100000000000000000000000000000000000000000000000000000000600052604160045260246000fd5b60008060008060808587031215611fb157600080fd5b611fba85611e06565b9350611fc860208601611e06565b925060408501359150606085013567ffffffffffffffff80821115611fec57600080fd5b818701915087601f83011261200057600080fd5b81358181111561201257612012611f6c565b604051601f82017fffffffffffffffffffffffffffffffffffffffffffffffffffffffffffffffe0908116603f0116810190838211818310171561205857612058611f6c565b816040528281528a602084870101111561207157600080fd5b82602086016020830137600060208483010152809550505050505092959194509250565b600080604083850312156120a857600080fd5b6120b183611e06565b9150611f2760208401611e06565b600181811c908216806120d357607f821691505b602082108103610b10577f4e487b7100000000000000000000000000000000000000000000000000000000600052602260045260246000fd5b7f4e487b7100000000000000000000000000000000000000000000000000000000600052601160045260246000fd5b80820281158282048414176103e1576103e161210c565b600082612188577f4e487b7100000000000000000000000000000000000000000000000000000000600052601260045260246000fd5b500490565b7f4e487b7100000000000000000000000000000000000000000000000000000000600052603260045260246000fd5b600081516121ce818560208601611d6c565b9290920192915050565b60008084548160018260011c915060018316806121f657607f831692505b6020808410820361222e577f4e487b710000000000000000000000000000000000000000000000000000000086526022600452602486fd5b8180156122425760018114612275576122a2565b7fffffffffffffffffffffffffffffffffffffffffffffffffffffffffffffff00861689528415158502890196506122a2565b60008b81526020902060005b8681101561229a5781548b820152908501908301612281565b505084890196505b5050505050506122de6122b582866121bc565b7f2e6a736f6e000000000000000000000000000000000000000000000000000000815260050190565b95945050505050565b60006001600160a01b038087168352808616602084015250836040830152608060608301526123196080830184611d90565b9695505050505050565b60006020828403121561233557600080fd5b8151611d6581611d1a565b818103818111156103e1576103e161210c565b7f4e487b7100000000000000000000000000000000000000000000000000000000600052603160045260246000fdfea2646970667358221220235e7aa3b80a083075ba2bd70153dccafcfe6602bbd8e75b10dbd6a7a2319c1064736f6c63430008180033a26469706673582212208a46e92297195321b5230af592df657b45b37c9d6ffad9fe396f287e149d52c064736f6c63430008180033","linkReferences":{}},"methodIdentifiers":{"baseUri()":"9abc8320","categoryList(uint256)":"c21260a5","collectionUri()":"defcd4b3","deploySubNFTContract(string,string)":"6711c373","getExpectedTokenAmount(address,uint256)":"3e96c149","getLockInfo(uint256)":"c9102afd","getMintInfo(uint256)":"42189514","getNFTOwner(uint256)":"deaea2e3","getTokenUri(uint256)":"8ad91345","getTotalSupply()":"c4e41b22","getUserTokenIdList(address)":"b1b22741","lockNFT(uint256)":"2b7170d0","mintToBatch(address,address[],uint256[],uint256[])":"6014606c","onERC721Received(address,address,uint256,bytes)":"150b7a02","setBaseURI(string,string)":"6790a9de","setMintInfo(uint256,uint256,uint256,uint256)":"c2935d13","subNFTAddress()":"6bba2ff7","subNFTTokenList(address,uint256)":"08e4b463","unlockNFT(uint256)":"f826276c"},"id":1}