{"abi":[{"type":"constructor","inputs":[{"name":"_name","type":"string","internalType":"string"},{"name":"_symbol","type":"string","internalType":"string"}],"stateMutability":"nonpayable"},{"type":"function","name":"approve","inputs":[{"name":"to","type":"address","internalType":"address"},{"name":"tokenId","type":"uint256","internalType":"uint256"}],"outputs":[],"stateMutability":"nonpayable"},{"type":"function","name":"balanceOf","inputs":[{"name":"owner","type":"address","internalType":"address"}],"outputs":[{"name":"","type":"uint256","internalType":"uint256"}],"stateMutability":"view"},{"type":"function","name":"baseTokenURI","inputs":[],"outputs":[{"name":"","type":"string","internalType":"string"}],"stateMutability":"pure"},{"type":"function","name":"batchMintTo","inputs":[{"name":"_to","type":"address","internalType":"address"},{"name":"_amount","type":"uint256","internalType":"uint256"}],"outputs":[],"stateMutability":"nonpayable"},{"type":"function","name":"getApproved","inputs":[{"name":"tokenId","type":"uint256","internalType":"uint256"}],"outputs":[{"name":"","type":"address","internalType":"address"}],"stateMutability":"view"},{"type":"function","name":"isApprovedForAll","inputs":[{"name":"owner","type":"address","internalType":"address"},{"name":"operator","type":"address","internalType":"address"}],"outputs":[{"name":"","type":"bool","internalType":"bool"}],"stateMutability":"view"},{"type":"function","name":"mintTo","inputs":[{"name":"_to","type":"address","internalType":"address"}],"outputs":[],"stateMutability":"nonpayable"},{"type":"function","name":"name","inputs":[],"outputs":[{"name":"","type":"string","internalType":"string"}],"stateMutability":"view"},{"type":"function","name":"owner","inputs":[],"outputs":[{"name":"","type":"address","internalType":"address"}],"stateMutability":"view"},{"type":"function","name":"ownerOf","inputs":[{"name":"tokenId","type":"uint256","internalType":"uint256"}],"outputs":[{"name":"","type":"address","internalType":"address"}],"stateMutability":"view"},{"type":"function","name":"renounceOwnership","inputs":[],"outputs":[],"stateMutability":"nonpayable"},{"type":"function","name":"safeTransferFrom","inputs":[{"name":"from","type":"address","internalType":"address"},{"name":"to","type":"address","internalType":"address"},{"name":"tokenId","type":"uint256","internalType":"uint256"}],"outputs":[],"stateMutability":"nonpayable"},{"type":"function","name":"safeTransferFrom","inputs":[{"name":"from","type":"address","internalType":"address"},{"name":"to","type":"address","internalType":"address"},{"name":"tokenId","type":"uint256","internalType":"uint256"},{"name":"data","type":"bytes","internalType":"bytes"}],"outputs":[],"stateMutability":"nonpayable"},{"type":"function","name":"setApprovalForAll","inputs":[{"name":"operator","type":"address","internalType":"address"},{"name":"approved","type":"bool","internalType":"bool"}],"outputs":[],"stateMutability":"nonpayable"},{"type":"function","name":"supportsInterface","inputs":[{"name":"interfaceId","type":"bytes4","internalType":"bytes4"}],"outputs":[{"name":"","type":"bool","internalType":"bool"}],"stateMutability":"view"},{"type":"function","name":"symbol","inputs":[],"outputs":[{"name":"","type":"string","internalType":"string"}],"stateMutability":"view"},{"type":"function","name":"tokenByIndex","inputs":[{"name":"index","type":"uint256","internalType":"uint256"}],"outputs":[{"name":"","type":"uint256","internalType":"uint256"}],"stateMutability":"view"},{"type":"function","name":"tokenOfOwnerByIndex","inputs":[{"name":"owner","type":"address","internalType":"address"},{"name":"index","type":"uint256","internalType":"uint256"}],"outputs":[{"name":"","type":"uint256","internalType":"uint256"}],"stateMutability":"view"},{"type":"function","name":"tokenURI","inputs":[{"name":"_tokenId","type":"uint256","internalType":"uint256"}],"outputs":[{"name":"","type":"string","internalType":"string"}],"stateMutability":"pure"},{"type":"function","name":"totalSupply","inputs":[],"outputs":[{"name":"","type":"uint256","internalType":"uint256"}],"stateMutability":"view"},{"type":"function","name":"transferFrom","inputs":[{"name":"from","type":"address","internalType":"address"},{"name":"to","type":"address","internalType":"address"},{"name":"tokenId","type":"uint256","internalType":"uint256"}],"outputs":[],"stateMutability":"nonpayable"},{"type":"function","name":"transferOwnership","inputs":[{"name":"newOwner","type":"address","internalType":"address"}],"outputs":[],"stateMutability":"nonpayable"},{"type":"event","name":"Approval","inputs":[{"name":"owner","type":"address","indexed":true,"internalType":"address"},{"name":"approved","type":"address","indexed":true,"internalType":"address"},{"name":"tokenId","type":"uint256","indexed":true,"internalType":"uint256"}],"anonymous":false},{"type":"event","name":"ApprovalForAll","inputs":[{"name":"owner","type":"address","indexed":true,"internalType":"address"},{"name":"operator","type":"address","indexed":true,"internalType":"address"},{"name":"approved","type":"bool","indexed":false,"internalType":"bool"}],"anonymous":false},{"type":"event","name":"OwnershipTransferred","inputs":[{"name":"previousOwner","type":"address","indexed":true,"internalType":"address"},{"name":"newOwner","type":"address","indexed":true,"internalType":"address"}],"anonymous":false},{"type":"event","name":"Transfer","inputs":[{"name":"from","type":"address","indexed":true,"internalType":"address"},{"name":"to","type":"address","indexed":true,"internalType":"address"},{"name":"tokenId","type":"uint256","indexed":true,"internalType":"uint256"}],"anonymous":false}],"bytecode":{"object":"0x60806040523480156200001157600080fd5b506040516200226a3803806200226a833981016040819052620000349162000196565b8181600062000044838262000291565b50600162000053828262000291565b505050620000706200006a6200007860201b60201c565b6200007c565b50506200035d565b3390565b600a80546001600160a01b038381166001600160a01b0319831681179093556040519116919082907f8be0079c531659141344cd1fd0a4f28419497f9722a3daafe3b4186f6b6457e090600090a35050565b634e487b7160e01b600052604160045260246000fd5b600082601f830112620000f657600080fd5b81516001600160401b0380821115620001135762000113620000ce565b604051601f8301601f19908116603f011681019082821181831017156200013e576200013e620000ce565b81604052838152602092508660208588010111156200015c57600080fd5b600091505b8382101562000180578582018301518183018401529082019062000161565b6000602085830101528094505050505092915050565b60008060408385031215620001aa57600080fd5b82516001600160401b0380821115620001c257600080fd5b620001d086838701620000e4565b93506020850151915080821115620001e757600080fd5b50620001f685828601620000e4565b9150509250929050565b600181811c908216806200021557607f821691505b6020821081036200023657634e487b7160e01b600052602260045260246000fd5b50919050565b601f8211156200028c576000816000526020600020601f850160051c81016020861015620002675750805b601f850160051c820191505b81811015620002885782815560010162000273565b5050505b505050565b81516001600160401b03811115620002ad57620002ad620000ce565b620002c581620002be845462000200565b846200023c565b602080601f831160018114620002fd5760008415620002e45750858301515b600019600386901b1c1916600185901b17855562000288565b600085815260208120601f198616915b828110156200032e578886015182559484019460019091019084016200030d565b50858210156200034d5787850151600019600388901b60f8161c191681555b5050505050600190811b01905550565b611efd806200036d6000396000f3fe608060405234801561001057600080fd5b50600436106101825760003560e01c8063715018a6116100d8578063b88d4fde1161008c578063e7e5107011610066578063e7e51070146102fd578063e985e9c514610310578063f2fde38b1461034c57600080fd5b8063b88d4fde146102cf578063c87b56dd146102e2578063d547cfb7146102f557600080fd5b80638da5cb5b116100bd5780638da5cb5b146102a357806395d89b41146102b4578063a22cb465146102bc57600080fd5b8063715018a614610288578063755edd171461029057600080fd5b806323b872dd1161013a5780634f6ccce7116101145780634f6ccce71461024f5780636352211e1461026257806370a082311461027557600080fd5b806323b872dd146102165780632f745c591461022957806342842e0e1461023c57600080fd5b8063081812fc1161016b578063081812fc146101c4578063095ea7b3146101ef57806318160ddd1461020457600080fd5b806301ffc9a71461018757806306fdde03146101af575b600080fd5b61019a6101953660046119dc565b61035f565b60405190151581526020015b60405180910390f35b6101b76103bb565b6040516101a69190611a67565b6101d76101d2366004611a7a565b61044d565b6040516001600160a01b0390911681526020016101a6565b6102026101fd366004611aaf565b610474565b005b6008545b6040519081526020016101a6565b610202610224366004611ad9565b6105aa565b610208610237366004611aaf565b610631565b61020261024a366004611ad9565b6106d9565b61020861025d366004611a7a565b6106f4565b6101d7610270366004611a7a565b610798565b610208610283366004611b15565b6107fd565b610202610897565b61020261029e366004611b15565b6108ab565b600a546001600160a01b03166101d7565b6101b76108d5565b6102026102ca366004611b30565b6108e4565b6102026102dd366004611b9b565b6108ef565b6101b76102f0366004611a7a565b61097d565b6101b76109b7565b61020261030b366004611aaf565b6109d7565b61019a61031e366004611c95565b6001600160a01b03918216600090815260056020908152604080832093909416825291909152205460ff1690565b61020261035a366004611b15565b610a11565b60007fffffffff0000000000000000000000000000000000000000000000000000000082167f780e9d630000000000000000000000000000000000000000000000000000000014806103b557506103b582610aa1565b92915050565b6060600080546103ca90611cc8565b80601f01602080910402602001604051908101604052809291908181526020018280546103f690611cc8565b80156104435780601f1061041857610100808354040283529160200191610443565b820191906000526020600020905b81548152906001019060200180831161042657829003601f168201915b5050505050905090565b600061045882610b84565b506000908152600460205260409020546001600160a01b031690565b600061047f82610798565b9050806001600160a01b0316836001600160a01b03160361050d5760405162461bcd60e51b815260206004820152602160248201527f4552433732313a20617070726f76616c20746f2063757272656e74206f776e6560448201527f720000000000000000000000000000000000000000000000000000000000000060648201526084015b60405180910390fd5b336001600160a01b03821614806105295750610529813361031e565b61059b5760405162461bcd60e51b815260206004820152603d60248201527f4552433732313a20617070726f76652063616c6c6572206973206e6f7420746f60448201527f6b656e206f776e6572206f7220617070726f76656420666f7220616c6c0000006064820152608401610504565b6105a58383610be8565b505050565b6105b43382610c6e565b6106265760405162461bcd60e51b815260206004820152602d60248201527f4552433732313a2063616c6c6572206973206e6f7420746f6b656e206f776e6560448201527f72206f7220617070726f766564000000000000000000000000000000000000006064820152608401610504565b6105a5838383610ced565b600061063c836107fd565b82106106b05760405162461bcd60e51b815260206004820152602b60248201527f455243373231456e756d657261626c653a206f776e657220696e646578206f7560448201527f74206f6620626f756e64730000000000000000000000000000000000000000006064820152608401610504565b506001600160a01b03919091166000908152600660209081526040808320938352929052205490565b6105a5838383604051806020016040528060008152506108ef565b60006106ff60085490565b82106107735760405162461bcd60e51b815260206004820152602c60248201527f455243373231456e756d657261626c653a20676c6f62616c20696e646578206f60448201527f7574206f6620626f756e647300000000000000000000000000000000000000006064820152608401610504565b6008828154811061078657610786611d1b565b90600052602060002001549050919050565b6000818152600260205260408120546001600160a01b0316806103b55760405162461bcd60e51b815260206004820152601860248201527f4552433732313a20696e76616c696420746f6b656e20494400000000000000006044820152606401610504565b60006001600160a01b03821661087b5760405162461bcd60e51b815260206004820152602960248201527f4552433732313a2061646472657373207a65726f206973206e6f74206120766160448201527f6c6964206f776e657200000000000000000000000000000000000000000000006064820152608401610504565b506001600160a01b031660009081526003602052604090205490565b61089f610f59565b6108a96000610fb3565b565b6108b3610f59565b60006108bd61101d565b90506108c98282611033565b6108d16111e4565b5050565b6060600180546103ca90611cc8565b6108d13383836111fb565b6108f93383610c6e565b61096b5760405162461bcd60e51b815260206004820152602d60248201527f4552433732313a2063616c6c6572206973206e6f7420746f6b656e206f776e6560448201527f72206f7220617070726f766564000000000000000000000000000000000000006064820152608401610504565b610977848484846112e7565b50505050565b60606109876109b7565b61099083611370565b6040516020016109a1929190611d4a565b6040516020818303038152906040529050919050565b6060604051806060016040528060398152602001611e8f60399139905090565b6109df610f59565b60005b818110156105a55760006109f461101d565b9050610a008482611033565b610a086111e4565b506001016109e2565b610a19610f59565b6001600160a01b038116610a955760405162461bcd60e51b815260206004820152602660248201527f4f776e61626c653a206e6577206f776e657220697320746865207a65726f206160448201527f64647265737300000000000000000000000000000000000000000000000000006064820152608401610504565b610a9e81610fb3565b50565b60007fffffffff0000000000000000000000000000000000000000000000000000000082167f80ac58cd000000000000000000000000000000000000000000000000000000001480610b3457507fffffffff0000000000000000000000000000000000000000000000000000000082167f5b5e139f00000000000000000000000000000000000000000000000000000000145b806103b557507f01ffc9a7000000000000000000000000000000000000000000000000000000007fffffffff000000000000000000000000000000000000000000000000000000008316146103b5565b6000818152600260205260409020546001600160a01b0316610a9e5760405162461bcd60e51b815260206004820152601860248201527f4552433732313a20696e76616c696420746f6b656e20494400000000000000006044820152606401610504565b600081815260046020526040902080547fffffffffffffffffffffffff0000000000000000000000000000000000000000166001600160a01b0384169081179091558190610c3582610798565b6001600160a01b03167f8c5be1e5ebec7d5bd14f71427d1e84f3dd0314c0f7b2291e5b200ac8c7c3b92560405160405180910390a45050565b600080610c7a83610798565b9050806001600160a01b0316846001600160a01b03161480610cc157506001600160a01b0380821660009081526005602090815260408083209388168352929052205460ff165b80610ce55750836001600160a01b0316610cda8461044d565b6001600160a01b0316145b949350505050565b826001600160a01b0316610d0082610798565b6001600160a01b031614610d7c5760405162461bcd60e51b815260206004820152602560248201527f4552433732313a207472616e736665722066726f6d20696e636f72726563742060448201527f6f776e65720000000000000000000000000000000000000000000000000000006064820152608401610504565b6001600160a01b038216610df75760405162461bcd60e51b8152602060048201526024808201527f4552433732313a207472616e7366657220746f20746865207a65726f2061646460448201527f72657373000000000000000000000000000000000000000000000000000000006064820152608401610504565b610e04838383600161142e565b826001600160a01b0316610e1782610798565b6001600160a01b031614610e935760405162461bcd60e51b815260206004820152602560248201527f4552433732313a207472616e736665722066726f6d20696e636f72726563742060448201527f6f776e65720000000000000000000000000000000000000000000000000000006064820152608401610504565b600081815260046020908152604080832080547fffffffffffffffffffffffff00000000000000000000000000000000000000009081169091556001600160a01b038781168086526003855283862080547fffffffffffffffffffffffffffffffffffffffffffffffffffffffffffffffff01905590871680865283862080546001019055868652600290945282852080549092168417909155905184937fddf252ad1be2c89b69c2b068fc378daa952ba7f163c4a11628f55a4df523b3ef91a4505050565b600a546001600160a01b031633146108a95760405162461bcd60e51b815260206004820181905260248201527f4f776e61626c653a2063616c6c6572206973206e6f7420746865206f776e65726044820152606401610504565b600a80546001600160a01b038381167fffffffffffffffffffffffff0000000000000000000000000000000000000000831681179093556040519116919082907f8be0079c531659141344cd1fd0a4f28419497f9722a3daafe3b4186f6b6457e090600090a35050565b600b5460009061102e90600161156a565b905090565b6001600160a01b0382166110895760405162461bcd60e51b815260206004820181905260248201527f4552433732313a206d696e7420746f20746865207a65726f20616464726573736044820152606401610504565b6000818152600260205260409020546001600160a01b0316156110ee5760405162461bcd60e51b815260206004820152601c60248201527f4552433732313a20746f6b656e20616c7265616479206d696e746564000000006044820152606401610504565b6110fc60008383600161142e565b6000818152600260205260409020546001600160a01b0316156111615760405162461bcd60e51b815260206004820152601c60248201527f4552433732313a20746f6b656e20616c7265616479206d696e746564000000006044820152606401610504565b6001600160a01b038216600081815260036020908152604080832080546001019055848352600290915280822080547fffffffffffffffffffffffff0000000000000000000000000000000000000000168417905551839291907fddf252ad1be2c89b69c2b068fc378daa952ba7f163c4a11628f55a4df523b3ef908290a45050565b600b80549060006111f483611da8565b9190505550565b816001600160a01b0316836001600160a01b03160361125c5760405162461bcd60e51b815260206004820152601960248201527f4552433732313a20617070726f766520746f2063616c6c6572000000000000006044820152606401610504565b6001600160a01b0383811660008181526005602090815260408083209487168084529482529182902080547fffffffffffffffffffffffffffffffffffffffffffffffffffffffffffffff001686151590811790915591519182527f17307eab39ab6107e8899845ad3d59bd9653f200f220920489ca2b5937696c31910160405180910390a3505050565b6112f2848484610ced565b6112fe8484848461157d565b6109775760405162461bcd60e51b815260206004820152603260248201527f4552433732313a207472616e7366657220746f206e6f6e20455243373231526560448201527f63656976657220696d706c656d656e74657200000000000000000000000000006064820152608401610504565b6060600061137d8361173c565b600101905060008167ffffffffffffffff81111561139d5761139d611b6c565b6040519080825280601f01601f1916602001820160405280156113c7576020820181803683370190505b5090508181016020015b7fffffffffffffffffffffffffffffffffffffffffffffffffffffffffffffffff017f3031323334353637383961626364656600000000000000000000000000000000600a86061a8153600a85049450846113d157509392505050565b60018111156114a55760405162461bcd60e51b815260206004820152603560248201527f455243373231456e756d657261626c653a20636f6e736563757469766520747260448201527f616e7366657273206e6f7420737570706f7274656400000000000000000000006064820152608401610504565b816001600160a01b038516611501576114fc81600880546000838152600960205260408120829055600182018355919091527ff3f7a9fe364faab93b216da50a3214154f22a0a2b415b23a84c8169e8b636ee30155565b611524565b836001600160a01b0316856001600160a01b03161461152457611524858261181e565b6001600160a01b0384166115405761153b816118bb565b611563565b846001600160a01b0316846001600160a01b03161461156357611563848261196a565b5050505050565b60006115768284611de0565b9392505050565b60006001600160a01b0384163b15611731576040517f150b7a020000000000000000000000000000000000000000000000000000000081526001600160a01b0385169063150b7a02906115da903390899088908890600401611df3565b6020604051808303816000875af1925050508015611633575060408051601f3d9081017fffffffffffffffffffffffffffffffffffffffffffffffffffffffffffffffe016820190925261163091810190611e2f565b60015b6116e6573d808015611661576040519150601f19603f3d011682016040523d82523d6000602084013e611666565b606091505b5080516000036116de5760405162461bcd60e51b815260206004820152603260248201527f4552433732313a207472616e7366657220746f206e6f6e20455243373231526560448201527f63656976657220696d706c656d656e74657200000000000000000000000000006064820152608401610504565b805181602001fd5b7fffffffff00000000000000000000000000000000000000000000000000000000167f150b7a0200000000000000000000000000000000000000000000000000000000149050610ce5565b506001949350505050565b6000807a184f03e93ff9f4daa797ed6e38ed64bf6a1f0100000000000000008310611785577a184f03e93ff9f4daa797ed6e38ed64bf6a1f010000000000000000830492506040015b6d04ee2d6d415b85acef810000000083106117b1576d04ee2d6d415b85acef8100000000830492506020015b662386f26fc1000083106117cf57662386f26fc10000830492506010015b6305f5e10083106117e7576305f5e100830492506008015b61271083106117fb57612710830492506004015b6064831061180d576064830492506002015b600a83106103b55760010192915050565b6000600161182b846107fd565b6118359190611e4c565b600083815260076020526040902054909150808214611888576001600160a01b03841660009081526006602090815260408083208584528252808320548484528184208190558352600790915290208190555b5060009182526007602090815260408084208490556001600160a01b039094168352600681528383209183525290812055565b6008546000906118cd90600190611e4c565b600083815260096020526040812054600880549394509092849081106118f5576118f5611d1b565b90600052602060002001549050806008838154811061191657611916611d1b565b600091825260208083209091019290925582815260099091526040808220849055858252812055600880548061194e5761194e611e5f565b6001900381819060005260206000200160009055905550505050565b6000611975836107fd565b6001600160a01b039093166000908152600660209081526040808320868452825280832085905593825260079052919091209190915550565b7fffffffff0000000000000000000000000000000000000000000000000000000081168114610a9e57600080fd5b6000602082840312156119ee57600080fd5b8135611576816119ae565b60005b83811015611a145781810151838201526020016119fc565b50506000910152565b60008151808452611a358160208601602086016119f9565b601f017fffffffffffffffffffffffffffffffffffffffffffffffffffffffffffffffe0169290920160200192915050565b6020815260006115766020830184611a1d565b600060208284031215611a8c57600080fd5b5035919050565b80356001600160a01b0381168114611aaa57600080fd5b919050565b60008060408385031215611ac257600080fd5b611acb83611a93565b946020939093013593505050565b600080600060608486031215611aee57600080fd5b611af784611a93565b9250611b0560208501611a93565b9150604084013590509250925092565b600060208284031215611b2757600080fd5b61157682611a93565b60008060408385031215611b4357600080fd5b611b4c83611a93565b915060208301358015158114611b6157600080fd5b809150509250929050565b7f4e487b7100000000000000000000000000000000000000000000000000000000600052604160045260246000fd5b60008060008060808587031215611bb157600080fd5b611bba85611a93565b9350611bc860208601611a93565b925060408501359150606085013567ffffffffffffffff80821115611bec57600080fd5b818701915087601f830112611c0057600080fd5b813581811115611c1257611c12611b6c565b604051601f82017fffffffffffffffffffffffffffffffffffffffffffffffffffffffffffffffe0908116603f01168101908382118183101715611c5857611c58611b6c565b816040528281528a6020848701011115611c7157600080fd5b82602086016020830137600060208483010152809550505050505092959194509250565b60008060408385031215611ca857600080fd5b611cb183611a93565b9150611cbf60208401611a93565b90509250929050565b600181811c90821680611cdc57607f821691505b602082108103611d15577f4e487b7100000000000000000000000000000000000000000000000000000000600052602260045260246000fd5b50919050565b7f4e487b7100000000000000000000000000000000000000000000000000000000600052603260045260246000fd5b60008351611d5c8184602088016119f9565b835190830190611d708183602088016119f9565b01949350505050565b7f4e487b7100000000000000000000000000000000000000000000000000000000600052601160045260246000fd5b60007fffffffffffffffffffffffffffffffffffffffffffffffffffffffffffffffff8203611dd957611dd9611d79565b5060010190565b808201808211156103b5576103b5611d79565b60006001600160a01b03808716835280861660208401525083604083015260806060830152611e256080830184611a1d565b9695505050505050565b600060208284031215611e4157600080fd5b8151611576816119ae565b818103818111156103b5576103b5611d79565b7f4e487b7100000000000000000000000000000000000000000000000000000000600052603160045260246000fdfe68747470733a2f2f6f70656e7365612d6372656174757265732d6170692e6865726f6b756170702e636f6d2f6170692f63726561747572652fa26469706673582212200d2b5760c42529c4a536499ac79c2e6a53708c23ccd3263e38fb4f38c58d9e5264736f6c63430008180033","linkReferences":{}},"methodIdentifiers":{"approve(address,uint256)":"095ea7b3","balanceOf(address)":"70a08231","baseTokenURI()":"d547cfb7","batchMintTo(address,uint256)":"e7e51070","getApproved(uint256)":"081812fc","isApprovedForAll(address,address)":"e985e9c5","mintTo(address)":"755edd17","name()":"06fdde03","owner()":"8da5cb5b","ownerOf(uint256)":"6352211e","renounceOwnership()":"715018a6","safeTransferFrom(address,address,uint256)":"42842e0e","safeTransferFrom(address,address,uint256,bytes)":"b88d4fde","setApprovalForAll(address,bool)":"a22cb465","supportsInterface(bytes4)":"01ffc9a7","symbol()":"95d89b41","tokenByIndex(uint256)":"4f6ccce7","tokenOfOwnerByIndex(address,uint256)":"2f745c59","tokenURI(uint256)":"c87b56dd","totalSupply()":"18160ddd","transferFrom(address,address,uint256)":"23b872dd","transferOwnership(address)":"f2fde38b"},"id":26}