{"abi":[{"type":"constructor","inputs":[{"name":"_ownable","type":"address","internalType":"address"},{"name":"_uniHelper","type":"address","internalType":"address"},{"name":"_vote","type":"address","internalType":"address"},{"name":"_staking","type":"address","internalType":"address"}],"stateMutability":"nonpayable"},{"type":"function","name":"DAO_FUND_REWARD","inputs":[],"outputs":[{"name":"","type":"address","internalType":"address"}],"stateMutability":"view"},{"type":"function","name":"agentVotePeriod","inputs":[],"outputs":[{"name":"","type":"uint256","internalType":"uint256"}],"stateMutability":"view"},{"type":"function","name":"availableVABAmount","inputs":[],"outputs":[{"name":"","type":"uint256","internalType":"uint256"}],"stateMutability":"view"},{"type":"function","name":"boardRewardRate","inputs":[],"outputs":[{"name":"","type":"uint256","internalType":"uint256"}],"stateMutability":"view"},{"type":"function","name":"boardVotePeriod","inputs":[],"outputs":[{"name":"","type":"uint256","internalType":"uint256"}],"stateMutability":"view"},{"type":"function","name":"boardVoteWeight","inputs":[],"outputs":[{"name":"","type":"uint256","internalType":"uint256"}],"stateMutability":"view"},{"type":"function","name":"checkGovWhitelist","inputs":[{"name":"_flag","type":"uint256","internalType":"uint256"},{"name":"_address","type":"address","internalType":"address"}],"outputs":[{"name":"","type":"uint256","internalType":"uint256"}],"stateMutability":"view"},{"type":"function","name":"checkPropertyWhitelist","inputs":[{"name":"_flag","type":"uint256","internalType":"uint256"},{"name":"_property","type":"uint256","internalType":"uint256"}],"outputs":[{"name":"","type":"uint256","internalType":"uint256"}],"stateMutability":"view"},{"type":"function","name":"disputeGracePeriod","inputs":[],"outputs":[{"name":"","type":"uint256","internalType":"uint256"}],"stateMutability":"view"},{"type":"function","name":"filmRewardClaimPeriod","inputs":[],"outputs":[{"name":"","type":"uint256","internalType":"uint256"}],"stateMutability":"view"},{"type":"function","name":"filmVotePeriod","inputs":[],"outputs":[{"name":"","type":"uint256","internalType":"uint256"}],"stateMutability":"view"},{"type":"function","name":"fundFeePercent","inputs":[],"outputs":[{"name":"","type":"uint256","internalType":"uint256"}],"stateMutability":"view"},{"type":"function","name":"getAgentProposerStakeAmount","inputs":[{"name":"_index","type":"uint256","internalType":"uint256"}],"outputs":[{"name":"","type":"uint256","internalType":"uint256"}],"stateMutability":"view"},{"type":"function","name":"getAllGovProposalInfo","inputs":[{"name":"_flag","type":"uint256","internalType":"uint256"}],"outputs":[{"name":"","type":"address[]","internalType":"address[]"}],"stateMutability":"view"},{"type":"function","name":"getGovProposalInfo","inputs":[{"name":"_index","type":"uint256","internalType":"uint256"},{"name":"_flag","type":"uint256","internalType":"uint256"}],"outputs":[{"name":"","type":"uint256","internalType":"uint256"},{"name":"","type":"uint256","internalType":"uint256"},{"name":"","type":"uint256","internalType":"uint256"},{"name":"","type":"address","internalType":"address"},{"name":"","type":"address","internalType":"address"},{"name":"","type":"uint8","internalType":"enum Helper.Status"}],"stateMutability":"view"},{"type":"function","name":"getGovProposalList","inputs":[{"name":"_flag","type":"uint256","internalType":"uint256"}],"outputs":[{"name":"","type":"address[]","internalType":"address[]"}],"stateMutability":"view"},{"type":"function","name":"getGovProposalStr","inputs":[{"name":"_index","type":"uint256","internalType":"uint256"},{"name":"_flag","type":"uint256","internalType":"uint256"}],"outputs":[{"name":"","type":"string","internalType":"string"},{"name":"","type":"string","internalType":"string"}],"stateMutability":"view"},{"type":"function","name":"getPropertyProposalInfo","inputs":[{"name":"_index","type":"uint256","internalType":"uint256"},{"name":"_flag","type":"uint256","internalType":"uint256"}],"outputs":[{"name":"","type":"uint256","internalType":"uint256"},{"name":"","type":"uint256","internalType":"uint256"},{"name":"","type":"uint256","internalType":"uint256"},{"name":"","type":"uint256","internalType":"uint256"},{"name":"","type":"address","internalType":"address"},{"name":"","type":"uint8","internalType":"enum Helper.Status"}],"stateMutability":"view"},{"type":"function","name":"getPropertyProposalList","inputs":[{"name":"_flag","type":"uint256","internalType":"uint256"}],"outputs":[{"name":"_list","type":"uint256[]","internalType":"uint256[]"}],"stateMutability":"view"},{"type":"function","name":"getPropertyProposalStr","inputs":[{"name":"_index","type":"uint256","internalType":"uint256"},{"name":"_flag","type":"uint256","internalType":"uint256"}],"outputs":[{"name":"","type":"string","internalType":"string"},{"name":"","type":"string","internalType":"string"}],"stateMutability":"view"},{"type":"function","name":"governanceProposalCount","inputs":[],"outputs":[{"name":"","type":"uint256","internalType":"uint256"}],"stateMutability":"view"},{"type":"function","name":"lockPeriod","inputs":[],"outputs":[{"name":"","type":"uint256","internalType":"uint256"}],"stateMutability":"view"},{"type":"function","name":"maxAllowPeriod","inputs":[],"outputs":[{"name":"","type":"uint256","internalType":"uint256"}],"stateMutability":"view"},{"type":"function","name":"maxDepositAmount","inputs":[],"outputs":[{"name":"","type":"uint256","internalType":"uint256"}],"stateMutability":"view"},{"type":"function","name":"maxMintFeePercent","inputs":[],"outputs":[{"name":"","type":"uint256","internalType":"uint256"}],"stateMutability":"view"},{"type":"function","name":"minDepositAmount","inputs":[],"outputs":[{"name":"","type":"uint256","internalType":"uint256"}],"stateMutability":"view"},{"type":"function","name":"minStakerCountPercent","inputs":[],"outputs":[{"name":"","type":"uint256","internalType":"uint256"}],"stateMutability":"view"},{"type":"function","name":"minVoteCount","inputs":[],"outputs":[{"name":"","type":"uint256","internalType":"uint256"}],"stateMutability":"view"},{"type":"function","name":"propertyVotePeriod","inputs":[],"outputs":[{"name":"","type":"uint256","internalType":"uint256"}],"stateMutability":"view"},{"type":"function","name":"proposalAuditor","inputs":[{"name":"_agent","type":"address","internalType":"address"},{"name":"_title","type":"string","internalType":"string"},{"name":"_description","type":"string","internalType":"string"}],"outputs":[],"stateMutability":"nonpayable"},{"type":"function","name":"proposalFeeAmount","inputs":[],"outputs":[{"name":"","type":"uint256","internalType":"uint256"}],"stateMutability":"view"},{"type":"function","name":"proposalFilmBoard","inputs":[{"name":"_member","type":"address","internalType":"address"},{"name":"_title","type":"string","internalType":"string"},{"name":"_description","type":"string","internalType":"string"}],"outputs":[],"stateMutability":"nonpayable"},{"type":"function","name":"proposalProperty","inputs":[{"name":"_property","type":"uint256","internalType":"uint256"},{"name":"_flag","type":"uint256","internalType":"uint256"},{"name":"_title","type":"string","internalType":"string"},{"name":"_description","type":"string","internalType":"string"}],"outputs":[],"stateMutability":"nonpayable"},{"type":"function","name":"proposalRewardFund","inputs":[{"name":"_rewardAddress","type":"address","internalType":"address"},{"name":"_title","type":"string","internalType":"string"},{"name":"_description","type":"string","internalType":"string"}],"outputs":[],"stateMutability":"nonpayable"},{"type":"function","name":"removeFilmBoardMember","inputs":[{"name":"_member","type":"address","internalType":"address"}],"outputs":[],"stateMutability":"nonpayable"},{"type":"function","name":"rewardRate","inputs":[],"outputs":[{"name":"","type":"uint256","internalType":"uint256"}],"stateMutability":"view"},{"type":"function","name":"rewardVotePeriod","inputs":[],"outputs":[{"name":"","type":"uint256","internalType":"uint256"}],"stateMutability":"view"},{"type":"function","name":"subscriptionAmount","inputs":[],"outputs":[{"name":"","type":"uint256","internalType":"uint256"}],"stateMutability":"view"},{"type":"function","name":"updateGovProposal","inputs":[{"name":"_index","type":"uint256","internalType":"uint256"},{"name":"_flag","type":"uint256","internalType":"uint256"},{"name":"_approveStatus","type":"uint256","internalType":"uint256"}],"outputs":[],"stateMutability":"nonpayable"},{"type":"function","name":"updatePropertyProposal","inputs":[{"name":"_index","type":"uint256","internalType":"uint256"},{"name":"_flag","type":"uint256","internalType":"uint256"},{"name":"_approveStatus","type":"uint256","internalType":"uint256"}],"outputs":[],"stateMutability":"nonpayable"},{"type":"function","name":"userGovProposalCount","inputs":[{"name":"","type":"address","internalType":"address"}],"outputs":[{"name":"","type":"uint256","internalType":"uint256"}],"stateMutability":"view"},{"type":"event","name":"AuditorProposalCreated","inputs":[{"name":"creator","type":"address","indexed":true,"internalType":"address"},{"name":"member","type":"address","indexed":false,"internalType":"address"},{"name":"title","type":"string","indexed":false,"internalType":"string"},{"name":"description","type":"string","indexed":false,"internalType":"string"}],"anonymous":false},{"type":"event","name":"FilmBoardMemberRemoved","inputs":[{"name":"caller","type":"address","indexed":true,"internalType":"address"},{"name":"member","type":"address","indexed":false,"internalType":"address"}],"anonymous":false},{"type":"event","name":"FilmBoardProposalCreated","inputs":[{"name":"creator","type":"address","indexed":true,"internalType":"address"},{"name":"member","type":"address","indexed":false,"internalType":"address"},{"name":"title","type":"string","indexed":false,"internalType":"string"},{"name":"description","type":"string","indexed":false,"internalType":"string"}],"anonymous":false},{"type":"event","name":"PropertyProposalCreated","inputs":[{"name":"creator","type":"address","indexed":true,"internalType":"address"},{"name":"property","type":"uint256","indexed":false,"internalType":"uint256"},{"name":"flag","type":"uint256","indexed":false,"internalType":"uint256"},{"name":"title","type":"string","indexed":false,"internalType":"string"},{"name":"description","type":"string","indexed":false,"internalType":"string"}],"anonymous":false},{"type":"event","name":"RewardFundProposalCreated","inputs":[{"name":"creator","type":"address","indexed":true,"internalType":"address"},{"name":"member","type":"address","indexed":false,"internalType":"address"},{"name":"title","type":"string","indexed":false,"internalType":"string"},{"name":"description","type":"string","indexed":false,"internalType":"string"}],"anonymous":false}],"bytecode":{"object":"0x6101006040523480156200001257600080fd5b5060405162006d1138038062006d11833981016040819052620000359162000cdd565b60016000556001600160a01b038416620000965760405162461bcd60e51b815260206004820152601560248201527f6f776e61626c653a207a65726f2061646472657373000000000000000000000060448201526064015b60405180910390fd5b6001600160a01b038085166080528316620000f45760405162461bcd60e51b815260206004820152601760248201527f756e6948656c7065723a207a65726f206164647265737300000000000000000060448201526064016200008d565b6001600160a01b0380841660e0528216620001475760405162461bcd60e51b8152602060048201526012602482015271766f74653a207a65726f206164647265737360701b60448201526064016200008d565b6001600160a01b0380831660a0528116620001a55760405162461bcd60e51b815260206004820152601560248201527f7374616b696e673a207a65726f2061646472657373000000000000000000000060448201526064016200008d565b6001600160a01b0380821660c052620d2f00600281905562127500601255600381905562278d00600481815560059290925562093a8060145560068190556276a70060095560085563b2d05e00601355622625a0600755639502f900601655630bebc200600b55633b9aca00600e55631dcd650060105560408051633e95a49d60e21b8152905160009388169263fa569274928082019260209290918290030181865afa1580156200025b573d6000803e3d6000fd5b505050506040513d601f19601f8201168201806040525081019062000281919062000d3a565b90506000856001600160a01b031663e2f6f5116040518163ffffffff1660e01b8152600401602060405180830381865afa158015620002c4573d6000803e3d6000fd5b505050506040513d601f19601f82011682018060405250810190620002ea919062000d3a565b9050816001600160a01b031663313ce5676040518163ffffffff1660e01b8152600401602060405180830381865afa1580156200032b573d6000803e3d6000fd5b505050506040513d601f19601f8201168201806040525081019062000351919062000d5f565b6200035e90600a62000e99565b6200036b90601462000eaa565b600a81905550816001600160a01b031663313ce5676040518163ffffffff1660e01b8152600401602060405180830381865afa158015620003b0573d6000803e3d6000fd5b505050506040513d601f19601f82011682018060405250810190620003d6919062000d5f565b620003e390600a62000e99565b620003f090603262000eaa565b600c81905550816001600160a01b031663313ce5676040518163ffffffff1660e01b8152600401602060405180830381865afa15801562000435573d6000803e3d6000fd5b505050506040513d601f19601f820116820180604052508101906200045b919062000d5f565b6200046890600a62000e99565b620004769061138862000eaa565b600d81905550806001600160a01b031663313ce5676040518163ffffffff1660e01b8152600401602060405180830381865afa158015620004bb573d6000803e3d6000fd5b505050506040513d601f19601f82011682018060405250810190620004e1919062000d5f565b620004ee90600a62000e99565b620004fe906302faf08062000eaa565b6011819055506064826001600160a01b031663313ce5676040518163ffffffff1660e01b8152600401602060405180830381865afa15801562000545573d6000803e3d6000fd5b505050506040513d601f19601f820116820180604052508101906200056b919062000d5f565b6200057890600a62000e99565b620005869061012b62000eaa565b62000592919062000ec4565b6015819055506001600f81905550604051806102a0016040528062093a80815260200162093a80815260200162093a80815260200162093a80815260200162093a80815260200162030d40815260200162015180815260200162093a808152602001836001600160a01b031663313ce5676040518163ffffffff1660e01b8152600401602060405180830381865afa15801562000633573d6000803e3d6000fd5b505050506040513d601f19601f8201168201806040525081019062000659919062000d5f565b6200066690600a62000e99565b6200067390601462000eaa565b8152602001630bebc2008152602001836001600160a01b031663313ce5676040518163ffffffff1660e01b8152600401602060405180830381865afa158015620006c1573d6000803e3d6000fd5b505050506040513d601f19601f82011682018060405250810190620006e7919062000d5f565b620006f490600a62000e99565b6200070190600562000eaa565b8152602001836001600160a01b031663313ce5676040518163ffffffff1660e01b8152600401602060405180830381865afa15801562000745573d6000803e3d6000fd5b505050506040513d601f19601f820116820180604052508101906200076b919062000d5f565b6200077890600a62000e99565b6200078590600562000eaa565b81526020016305f5e1008152602001600181526020016311e1a3008152602001826001600160a01b031663313ce5676040518163ffffffff1660e01b8152600401602060405180830381865afa158015620007e4573d6000803e3d6000fd5b505050506040513d601f19601f820116820180604052508101906200080a919062000d5f565b6200081790600a62000e99565b62000827906302faf08062000eaa565b815260200162093a808152602001631dcd6500815260200162093a8081526020016064846001600160a01b031663313ce5676040518163ffffffff1660e01b8152600401602060405180830381865afa15801562000889573d6000803e3d6000fd5b505050506040513d601f19601f82011682018060405250810190620008af919062000d5f565b620008bc90600a62000e99565b620008ca9061012b62000eaa565b620008d6919062000ec4565b81526305f5e100602090910152620008f390601890601562000c59565b50604051806102a001604052806276a70081526020016276a70081526020016276a70081526020016276a70081526020016276a70081526020016258804081526020016276a70081526020016276a7008152602001836001600160a01b031663313ce5676040518163ffffffff1660e01b8152600401602060405180830381865afa15801562000987573d6000803e3d6000fd5b505050506040513d601f19601f82011682018060405250810190620009ad919062000d5f565b620009ba90600a62000e99565b620009c8906101f462000eaa565b8152602001633b9aca008152602001836001600160a01b031663313ce5676040518163ffffffff1660e01b8152600401602060405180830381865afa15801562000a16573d6000803e3d6000fd5b505050506040513d601f19601f8201168201806040525081019062000a3c919062000d5f565b62000a4990600a62000e99565b62000a58906298968062000eaa565b8152602001836001600160a01b031663313ce5676040518163ffffffff1660e01b8152600401602060405180830381865afa15801562000a9c573d6000803e3d6000fd5b505050506040513d601f19601f8201168201806040525081019062000ac2919062000d5f565b62000acf90600a62000e99565b62000ade906298968062000eaa565b8152602001633b9aca008152602001600a8152602001633b9aca008152602001826001600160a01b031663313ce5676040518163ffffffff1660e01b8152600401602060405180830381865afa15801562000b3d573d6000803e3d6000fd5b505050506040513d601f19601f8201168201806040525081019062000b63919062000d5f565b62000b7090600a62000e99565b62000b8090630bebc20062000eaa565b81526020016276a700815260200163b2d05e0081526020016276a70081526020016064846001600160a01b031663313ce5676040518163ffffffff1660e01b8152600401602060405180830381865afa15801562000be2573d6000803e3d6000fd5b505050506040513d601f19601f8201168201806040525081019062000c08919062000d5f565b62000c1590600a62000e99565b62000c239061270f62000eaa565b62000c2f919062000ec4565b8152637735940060209091015262000c4c90601790601562000c59565b5050505050505062000ee7565b82805482825590600052602060002090810192821562000c97579160200282015b8281111562000c9757825182559160200191906001019062000c7a565b5062000ca592915062000ca9565b5090565b5b8082111562000ca5576000815560010162000caa565b80516001600160a01b038116811462000cd857600080fd5b919050565b6000806000806080858703121562000cf457600080fd5b62000cff8562000cc0565b935062000d0f6020860162000cc0565b925062000d1f6040860162000cc0565b915062000d2f6060860162000cc0565b905092959194509250565b60006020828403121562000d4d57600080fd5b62000d588262000cc0565b9392505050565b60006020828403121562000d7257600080fd5b815160ff8116811462000d5857600080fd5b634e487b7160e01b600052601160045260246000fd5b600181815b8085111562000ddb57816000190482111562000dbf5762000dbf62000d84565b8085161562000dcd57918102915b93841c939080029062000d9f565b509250929050565b60008262000df45750600162000e93565b8162000e035750600062000e93565b816001811462000e1c576002811462000e275762000e47565b600191505062000e93565b60ff84111562000e3b5762000e3b62000d84565b50506001821b62000e93565b5060208310610133831016604e8410600b841016171562000e6c575081810a62000e93565b62000e78838362000d9a565b806000190482111562000e8f5762000e8f62000d84565b0290505b92915050565b600062000d5860ff84168362000de3565b808202811582820484141762000e935762000e9362000d84565b60008262000ee257634e487b7160e01b600052601260045260246000fd5b500490565b60805160a05160c05160e051615d7262000f9f6000396000614c84015260008181610bd701528181610f3c015281816114340152818161178e01528181611fbb015281816131fe01528181613afb01528181613dc00152818161421801528181614355015281816147d10152818161498a01528181614daa01528181614e2a0152614eec0152600081816105ef01528181613cdf0152613f6c0152600081816144db01528181614b0a0152614b9d0152615d726000f3fe608060405234801561001057600080fd5b50600436106102d35760003560e01c80638ed8327111610186578063bd038cd4116100e3578063dcccc8e811610097578063f2a3b34311610071578063f2a3b343146105a8578063f8a149cc146105b1578063fd35e224146105c457600080fd5b8063dcccc8e81461056c578063eb7c5fbb1461057f578063ef75552c1461059f57600080fd5b8063cb9f7d23116100c8578063cb9f7d2314610551578063d56b58741461055a578063da18716f1461056357600080fd5b8063bd038cd41461053f578063c4ad4fbd1461054857600080fd5b8063a6be63be1161013a578063b1276d891161011f578063b1276d891461050d578063b35cf4bf14610516578063bc2a78c31461053657600080fd5b8063a6be63be146104d5578063ac92074e146104fa57600080fd5b8063999a4fc41161016b578063999a4fc414610494578063a0658cef1461049d578063a3b13561146104b057600080fd5b80638ed83271146104785780638f5518701461048157600080fd5b80634be520e21161023457806368477d58116101e85780637b0a47ee116101cd5780637b0a47ee14610449578063814f10b61461045257806382f94d951461046557600080fd5b806368477d58146103f35780636ea0cce31461043657600080fd5b80635e28407d116102195780635e28407d146103b657806363d8efb5146103c9578063645006ca146103ea57600080fd5b80634be520e2146103a457806354f8a8c2146103ad57600080fd5b80632145fb481161028b5780633fd8b02f116102705780633fd8b02f1461038957806340be28831461039257806341d4e3511461039b57600080fd5b80632145fb48146103605780633346cfb61461038057600080fd5b806309eca169116102bc57806309eca169146102fd5780630b63a6e1146103425780631d00c7fa1461034b57600080fd5b806303b9b14c146102d857806306b25c7b146102f4575b600080fd5b6102e1600b5481565b6040519081526020015b60405180910390f35b6102e1600a5481565b60015461031d9073ffffffffffffffffffffffffffffffffffffffff1681565b60405173ffffffffffffffffffffffffffffffffffffffff90911681526020016102eb565b6102e160045481565b61035e6103593660046154fa565b6105d7565b005b61037361036e366004615526565b610911565b6040516102eb919061553f565b6102e160105481565b6102e160065481565b6102e1600f5481565b6102e160025481565b6102e160085481565b6102e160155481565b6102e16103c4366004615599565b61098a565b6103dc6103d7366004615599565b6109ab565b6040516102eb929190615629565b6102e1600c5481565b6102e1610401366004615679565b600091825260336020908152604080842073ffffffffffffffffffffffffffffffffffffffff93909316845291905290205490565b61035e610444366004615783565b610ba6565b6102e160075481565b610373610460366004615526565b61114f565b61035e610473366004615783565b611406565b6102e1600d5481565b6103dc61048f366004615599565b611989565b6102e160055481565b6102e16104ab366004615526565b611b60565b6104c36104be366004615599565b611b8e565b6040516102eb96959493929190615863565b6104e86104e3366004615599565b611db4565b6040516102eb969594939291906158b4565b61035e6105083660046158fa565b611f8d565b6102e160195481565b610529610524366004615526565b613319565b6040516102eb9190615971565b6102e1600e5481565b6102e160095481565b6102e160135481565b6102e160165481565b6102e160035481565b6102e160125481565b61035e61057a3660046159a9565b613acd565b6102e161058d3660046159a9565b60386020526000908152604090205481565b6102e160115481565b6102e160145481565b61035e6105bf3660046154fa565b613f54565b61035e6105d2366004615783565b614324565b3373ffffffffffffffffffffffffffffffffffffffff7f0000000000000000000000000000000000000000000000000000000000000000161461067b576040517f08c379a000000000000000000000000000000000000000000000000000000000815260206004820152601f60248201527f63616c6c6572206973206e6f742074686520766f746520636f6e74726163740060448201526064015b60405180910390fd5b600082815260366020908152604080832086845290915290206005810154426003909201919091556001829003610720576000838152603660209081526040808320878452825280832060060180547fffffffffffffffffffffff00ffffffffffffffffffffffffffffffffffffffff16740100000000000000000000000000000000000000001790558583526034825280832084845290915290206002905561078d565b6000838152603660209081526040808320878452825280832060060180547fffffffffffffffffffffff00ffffffffffffffffffffffffffffffffffffffff1674040000000000000000000000000000000000000000179055858352603482528083208484529091528120555b8160010361090b57826000036107a757600281905561090b565b826001036107b957600381905561090b565b826002036107cb57600481905561090b565b826003036107dd57600581905561090b565b826004036107ef57600681905561090b565b8260050361080157600781905561090b565b8260060361081357600881905561090b565b8260070361082557600981905561090b565b8260080361083757600a81905561090b565b8260090361084957600b81905561090b565b82600a0361085b57600c81905561090b565b82600b0361086d57600d81905561090b565b82600c0361087f57600e81905561090b565b82600d0361089157600f81905561090b565b82600e036108a357601081905561090b565b82600f036108b557601181905561090b565b826010036108c757601281905561090b565b826011036108d957601381905561090b565b826012036108eb57601481905561090b565b826013036108fd57601581905561090b565b8260140361090b5760168190555b50505050565b60008181526037602090815260409182902080548351818402810184019094528084526060939283018282801561097e57602002820191906000526020600020905b815473ffffffffffffffffffffffffffffffffffffffff168152600190910190602001808311610953575b50505050509050919050565b60008281526034602090815260408083208484529091529020545b92915050565b6060806000603660008581526020019081526020016000206000868152602001908152602001600020604051806101000160405290816000820180546109f0906159cd565b80601f0160208091040260200160405190810160405280929190818152602001828054610a1c906159cd565b8015610a695780601f10610a3e57610100808354040283529160200191610a69565b820191906000526020600020905b815481529060010190602001808311610a4c57829003601f168201915b50505050508152602001600182018054610a82906159cd565b80601f0160208091040260200160405190810160405280929190818152602001828054610aae906159cd565b8015610afb5780601f10610ad057610100808354040283529160200191610afb565b820191906000526020600020905b815481529060010190602001808311610ade57829003601f168201915b50505091835250506002820154602082015260038201546040820152600482015460608201526005808301546080830152600683015473ffffffffffffffffffffffffffffffffffffffff811660a084015260c09092019174010000000000000000000000000000000000000000900460ff1690811115610b7e57610b7e6157f9565b6005811115610b8f57610b8f6157f9565b905250805160209091015190969095509350505050565b6011546040517f0c2eb4030000000000000000000000000000000000000000000000000000000081523360048201527f000000000000000000000000000000000000000000000000000000000000000073ffffffffffffffffffffffffffffffffffffffff1690630c2eb40390602401602060405180830381865afa158015610c33573d6000803e3d6000fd5b505050506040513d601f19601f82011682018060405250810190610c579190615a20565b1015610cbf576040517f08c379a000000000000000000000000000000000000000000000000000000000815260206004820152600960248201527f4e6f74206d616a6f7200000000000000000000000000000000000000000000006044820152606401610672565b610cc7614a93565b73ffffffffffffffffffffffffffffffffffffffff8316610d44576040517f08c379a000000000000000000000000000000000000000000000000000000000815260206004820152600960248201527f7052463a207a65726f00000000000000000000000000000000000000000000006044820152606401610672565b73ffffffffffffffffffffffffffffffffffffffff831660009081527fe88f4be96ed539661cee3b41510d312b428e0ad7225259b5c818476011acd4af602052604090205415610df0576040517f08c379a000000000000000000000000000000000000000000000000000000000815260206004820152601660248201527f7052463a20616c72656164792063616e646964617465000000000000000000006044820152606401610672565b610e07600a54600a610e029190615a68565b614b06565b60305460009081527fe5602d426990c0b7b248ffeae167f30eba43086d790c7aa793e2bf3d0e5939196020526040902080610e428482615ac7565b5060018101610e518382615ac7565b50426002820181905560058201805473ffffffffffffffffffffffffffffffffffffffff8781167fffffffffffffffffffffffff0000000000000000000000000000000000000000909216919091179091556006830180547fffffffffffffffffffffff00ffffffffffffffffffffffffffffffffffffffff339081167fffffffffffffffffffffff000000000000000000000000000000000000000000909216919091179091556014546040517f4037f8aa0000000000000000000000000000000000000000000000000000000081526004810192909252602482019390935260448101929092527f00000000000000000000000000000000000000000000000000000000000000001690634037f8aa906064016020604051808303816000875af1158015610f85573d6000803e3d6000fd5b505050506040513d601f19601f82011682018060405250810190610fa99190615a20565b600482015573ffffffffffffffffffffffffffffffffffffffff841660009081527fe88f4be96ed539661cee3b41510d312b428e0ad7225259b5c818476011acd4af60205260408120600190819055601980549192909161100b908490615be1565b9091555050336000908152603860205260408120805460019290611030908490615be1565b909155505060376020527f81d0999fde243adcc41b7fa1be5cea14f789e3a6065b815ac58f4bc0838c3155805460018181019092557fc5e939af4ad9ec52215436cdae422a4d44cb030db6a8769f824f07d08288fcdd01805473ffffffffffffffffffffffffffffffffffffffff87167fffffffffffffffffffffffff000000000000000000000000000000000000000091821681179092556030805493840181556000527f6ff97a59c90d62cc7236ba3a37cd85351bf564556780cf8c1157a220f31f0cbb909201805490921617905560405133907fefb847defb19fc0750143c2b0770cb73c541e41364fe326173bc04357cfae78d9061113790879087908790615bf4565b60405180910390a25061114a6001600055565b505050565b606081158015906111605750600582105b6111c6576040517f08c379a000000000000000000000000000000000000000000000000000000000815260206004820152600860248201527f62616420666c61670000000000000000000000000000000000000000000000006044820152606401610672565b816001036112aa57602f5460009067ffffffffffffffff8111156111ec576111ec6156a9565b604051908082528060200260200182016040528015611215578160200160208202803683370190505b50905060005b602f548110156112a357602f818154811061123857611238615c3f565b6000918252602090912060029091020154825173ffffffffffffffffffffffffffffffffffffffff9091169083908390811061127657611276615c3f565b73ffffffffffffffffffffffffffffffffffffffff9092166020928302919091019091015260010161121b565b5092915050565b8160020361131f57603180548060200260200160405190810160405280929190818152602001828054801561097e5760200282019190600052602060002090815473ffffffffffffffffffffffffffffffffffffffff1681526001909101906020018083116109535750505050509050919050565b8160030361139457603080548060200260200160405190810160405280929190818152602001828054801561097e5760200282019190600052602060002090815473ffffffffffffffffffffffffffffffffffffffff1681526001909101906020018083116109535750505050509050919050565b603280548060200260200160405190810160405280929190818152602001828054801561097e5760200282019190600052602060002090815473ffffffffffffffffffffffffffffffffffffffff1681526001909101906020018083116109535750505050509050919050565b919050565b6040517f0c2eb4030000000000000000000000000000000000000000000000000000000081523360048201527f000000000000000000000000000000000000000000000000000000000000000073ffffffffffffffffffffffffffffffffffffffff1690630c2eb40390602401602060405180830381865afa158015611490573d6000803e3d6000fd5b505050506040513d601f19601f820116820180604052508101906114b49190615a20565b60000361151d576040517f08c379a000000000000000000000000000000000000000000000000000000000815260206004820152600a60248201527f4e6f74207374616b6572000000000000000000000000000000000000000000006044820152606401610672565b611525614a93565b73ffffffffffffffffffffffffffffffffffffffff83166115a2576040517f08c379a000000000000000000000000000000000000000000000000000000000815260206004820152600960248201527f7046423a207a65726f00000000000000000000000000000000000000000000006044820152606401610672565b73ffffffffffffffffffffffffffffffffffffffff831660009081527f4c61297e4655be30d3d195f2bd8fb04ca1887c13893ca54a860373a17c0d760460205260409020541561164e576040517f08c379a000000000000000000000000000000000000000000000000000000000815260206004820152601660248201527f7046423a20616c72656164792063616e646964617465000000000000000000006044820152606401610672565b611659600a54614b06565b60315460009081527ff45abd214a7998af36d567f4bc75c5d50e868cf767d965b54d3b0f5c6200ab6460205260409020806116948482615ac7565b50600181016116a38382615ac7565b50426002820181905560058201805473ffffffffffffffffffffffffffffffffffffffff8781167fffffffffffffffffffffffff0000000000000000000000000000000000000000909216919091179091556006830180547fffffffffffffffffffffff00ffffffffffffffffffffffffffffffffffffffff339081167fffffffffffffffffffffff000000000000000000000000000000000000000000909216919091179091556012546040517f4037f8aa0000000000000000000000000000000000000000000000000000000081526004810192909252602482019390935260448101929092527f00000000000000000000000000000000000000000000000000000000000000001690634037f8aa906064016020604051808303816000875af11580156117d7573d6000803e3d6000fd5b505050506040513d601f19601f820116820180604052508101906117fb9190615a20565b600482015573ffffffffffffffffffffffffffffffffffffffff841660009081527f4c61297e4655be30d3d195f2bd8fb04ca1887c13893ca54a860373a17c0d760460205260408120600190819055601980549192909161185d908490615be1565b9091555050336000908152603860205260408120805460019290611882908490615be1565b909155505060376020527f67dcc86da9aaaf40a183002157e56801115aa6057705e43279b4c1c90942d6b2805460018181019092557fa3f4856930af8b405d0c4dfd71f5e436241d797d5312971aeb91eb56f8a5c01201805473ffffffffffffffffffffffffffffffffffffffff87167fffffffffffffffffffffffff000000000000000000000000000000000000000091821681179092556031805493840181556000527fc54045fa7c6ec765e825df7f9e9bf9dec12c5cef146f93a5eee56772ee647fbc909201805490921617905560405133907f073a273fd3d419a0d24840be1b45b44d4233d4d2a60f957ca3883689d9beb7639061113790879087908790615bf4565b6060806000603560008581526020019081526020016000206000868152602001908152602001600020604051806101000160405290816000820180546119ce906159cd565b80601f01602080910402602001604051908101604052809291908181526020018280546119fa906159cd565b8015611a475780601f10611a1c57610100808354040283529160200191611a47565b820191906000526020600020905b815481529060010190602001808311611a2a57829003601f168201915b50505050508152602001600182018054611a60906159cd565b80601f0160208091040260200160405190810160405280929190818152602001828054611a8c906159cd565b8015611ad95780601f10611aae57610100808354040283529160200191611ad9565b820191906000526020600020905b815481529060010190602001808311611abc57829003601f168201915b505050918352505060028201546020820152600382015460408201526004820154606082015260058083015473ffffffffffffffffffffffffffffffffffffffff9081166080840152600684015490811660a084015260c09092019174010000000000000000000000000000000000000000900460ff1690811115610b7e57610b7e6157f9565b6000602f8281548110611b7557611b75615c3f565b9060005260206000209060020201600101549050919050565b60008060008060008060006035600089815260200190815260200160002060008a815260200190815260200160002060405180610100016040529081600082018054611bd9906159cd565b80601f0160208091040260200160405190810160405280929190818152602001828054611c05906159cd565b8015611c525780601f10611c2757610100808354040283529160200191611c52565b820191906000526020600020905b815481529060010190602001808311611c3557829003601f168201915b50505050508152602001600182018054611c6b906159cd565b80601f0160208091040260200160405190810160405280929190818152602001828054611c97906159cd565b8015611ce45780601f10611cb957610100808354040283529160200191611ce4565b820191906000526020600020905b815481529060010190602001808311611cc757829003601f168201915b505050918352505060028201546020820152600382015460408201526004820154606082015260058083015473ffffffffffffffffffffffffffffffffffffffff9081166080840152600684015490811660a084015260c09092019174010000000000000000000000000000000000000000900460ff1690811115611d6b57611d6b6157f9565b6005811115611d7c57611d7c6157f9565b90525060408101516060820151608083015160a084015160c085015160e090950151939e929d50909b50995091975095509350505050565b60008060008060008060006036600089815260200190815260200160002060008a815260200190815260200160002060405180610100016040529081600082018054611dff906159cd565b80601f0160208091040260200160405190810160405280929190818152602001828054611e2b906159cd565b8015611e785780601f10611e4d57610100808354040283529160200191611e78565b820191906000526020600020905b815481529060010190602001808311611e5b57829003601f168201915b50505050508152602001600182018054611e91906159cd565b80601f0160208091040260200160405190810160405280929190818152602001828054611ebd906159cd565b8015611f0a5780601f10611edf57610100808354040283529160200191611f0a565b820191906000526020600020905b815481529060010190602001808311611eed57829003601f168201915b50505091835250506002820154602082015260038201546040820152600482015460608201526005808301546080830152600683015473ffffffffffffffffffffffffffffffffffffffff811660a084015260c09092019174010000000000000000000000000000000000000000900460ff1690811115611d6b57611d6b6157f9565b6040517f0c2eb4030000000000000000000000000000000000000000000000000000000081523360048201527f000000000000000000000000000000000000000000000000000000000000000073ffffffffffffffffffffffffffffffffffffffff1690630c2eb40390602401602060405180830381865afa158015612017573d6000803e3d6000fd5b505050506040513d601f19601f8201168201806040525081019061203b9190615a20565b6000036120a4576040517f08c379a000000000000000000000000000000000000000000000000000000000815260206004820152600a60248201527f4e6f74207374616b6572000000000000000000000000000000000000000000006044820152606401610672565b6120ac614a93565b83158015906120b9575060015b80156120c6575060175483105b61212c576040517f08c379a000000000000000000000000000000000000000000000000000000000815260206004820152600d60248201527f70503a206261642076616c7565000000000000000000000000000000000000006044820152606401610672565b6000838152603460209081526040808320878452909152902054156121ad576040517f08c379a000000000000000000000000000000000000000000000000000000000815260206004820152601560248201527f70503a20616c72656164792063616e64696461746500000000000000000000006044820152606401610672565b83601884815481106121c1576121c1615c3f565b9060005260206000200154111580156121f75750601783815481106121e8576121e8615c3f565b90600052602060002001548411155b61225d576040517f08c379a000000000000000000000000000000000000000000000000000000000815260206004820152600b60248201527f70503a20696e76616c69640000000000000000000000000000000000000000006044820152606401610672565b612268600a54614b06565b6000836000036123195784600254036122dd576040517f08c379a000000000000000000000000000000000000000000000000000000000815260206004820152601a60248201527f70503a20616c72656164792066696c6d566f7465506572696f640000000000006044820152606401610672565b50601a80546001810182556000919091527f057c384a7d1c54f3a1b2e5e67b2617b8224fdfd1ea7234eea573a6ff665ff63e810185905561310d565b836001036123c857846003540361238c576040517f08c379a000000000000000000000000000000000000000000000000000000000815260206004820152601b60248201527f70503a20616c7265616479206167656e74566f7465506572696f6400000000006044820152606401610672565b50601b80546001810182556000919091527f3ad8aa4f87544323a9d1e5dd902f40c356527a7955687113db5f9a85ad579dc1810185905561310d565b8360020361247757846004540361243b576040517f08c379a000000000000000000000000000000000000000000000000000000000815260206004820152601e60248201527f70503a20616c726561647920646973707574654772616365506572696f6400006044820152606401610672565b50601c80546001810182556000919091527f0e4562a10381dec21b205ed72637e6b1b523bdd0e4d4d50af5cd23dd4500a211810185905561310d565b836003036125265784600554036124ea576040517f08c379a000000000000000000000000000000000000000000000000000000000815260206004820152601e60248201527f70503a20616c72656164792070726f7065727479566f7465506572696f6400006044820152606401610672565b50601d80546001810182556000919091527f6d4407e7be21f808e6509aa9fa9143369579dd7d760fe20a2c09680fc146134f810185905561310d565b836004036125d5578460065403612599576040517f08c379a000000000000000000000000000000000000000000000000000000000815260206004820152601660248201527f70503a20616c7265616479206c6f636b506572696f64000000000000000000006044820152606401610672565b50601e80546001810182556000919091527f50bb669a95c7b50b7e8a6f09454034b2b14cf2b85c730dca9a539ca82cb6e350810185905561310d565b83600503612684578460075403612648576040517f08c379a000000000000000000000000000000000000000000000000000000000815260206004820152601660248201527f70503a20616c72656164792072657761726452617465000000000000000000006044820152606401610672565b50601f80546001810182556000919091527fa03837a25210ee280c2113ff4b77ca23440b19d4866cca721c801278fd08d807810185905561310d565b8360060361275957846008540361271d576040517f08c379a000000000000000000000000000000000000000000000000000000000815260206004820152602160248201527f70503a20616c72656164792066696c6d526577617264436c61696d506572696f60448201527f64000000000000000000000000000000000000000000000000000000000000006064820152608401610672565b50602080546001810182556000919091527fc97bfaf2f8ee708c303a06d134f5ecd8389ae0432af62dc132a24118292866bb810185905561310d565b836007036128085784600954036127cc576040517f08c379a000000000000000000000000000000000000000000000000000000000815260206004820152601a60248201527f70503a20616c7265616479206d6178416c6c6f77506572696f640000000000006044820152606401610672565b50602180546001810182556000919091527f3a6357012c1a3ae0a17d304c9920310382d968ebcc4b1771f41c6b304205b570810185905561310d565b836008036128b75784600a540361287b576040517f08c379a000000000000000000000000000000000000000000000000000000000815260206004820152601d60248201527f70503a20616c72656164792070726f706f73616c466565416d6f756e740000006044820152606401610672565b50602280546001810182556000919091527f61035b26e3e9eee00e0d72fd1ee8ddca6894550dca6916ea2ac6baa90d11e510810185905561310d565b836009036129665784600b540361292a576040517f08c379a000000000000000000000000000000000000000000000000000000000815260206004820152601a60248201527f70503a20616c72656164792066756e6446656550657263656e740000000000006044820152606401610672565b50602380546001810182556000919091527fd57b2b5166478fd4318d2acc6cc2c704584312bdd8781b32d5d06abda57f4230810185905561310d565b83600a03612a155784600c54036129d9576040517f08c379a000000000000000000000000000000000000000000000000000000000815260206004820152601c60248201527f70503a20616c7265616479206d696e4465706f736974416d6f756e74000000006044820152606401610672565b50602480546001810182556000919091527f7cd332d19b93bcabe3cce7ca0c18a052f57e5fd03b4758a09f30f5ddc4b22ec4810185905561310d565b83600b03612ac45784600d5403612a88576040517f08c379a000000000000000000000000000000000000000000000000000000000815260206004820152601c60248201527f70503a20616c7265616479206d61784465706f736974416d6f756e74000000006044820152606401610672565b50602580546001810182556000919091527f401968ff42a154441da5f6c4c935ac46b8671f0e062baaa62a7545ba53bb6e4c810185905561310d565b83600c03612b735784600e5403612b37576040517f08c379a000000000000000000000000000000000000000000000000000000000815260206004820152601d60248201527f70503a20616c7265616479206d61784d696e7446656550657263656e740000006044820152606401610672565b50602680546001810182556000919091527f744a2cf8fd7008e3d53b67916e73460df9fa5214e3ef23dd4259ca09493a3594810185905561310d565b83600d03612c225784600f5403612be6576040517f08c379a000000000000000000000000000000000000000000000000000000000815260206004820152601860248201527f70503a20616c7265616479206d696e566f7465436f756e7400000000000000006044820152606401610672565b50602780546001810182556000919091527f98a476f1687bc3d60a2da2adbcba2c46958e61fa2fb4042cd7bc5816a710195b810185905561310d565b83600e03612cf7578460105403612cbb576040517f08c379a000000000000000000000000000000000000000000000000000000000815260206004820152602160248201527f70503a20616c7265616479206d696e5374616b6572436f756e7450657263656e60448201527f74000000000000000000000000000000000000000000000000000000000000006064820152608401610672565b50602880546001810182556000919091527fe16da923a2d88192e5070f37b4571d58682c0d66212ec634d495f33de3f77ab5810185905561310d565b83600f03612da6578460115403612d6a576040517f08c379a000000000000000000000000000000000000000000000000000000000815260206004820152601e60248201527f70503a20616c726561647920617661696c61626c65564142416d6f756e7400006044820152606401610672565b50602980546001810182556000919091527fcb7c14ce178f56e2e8d86ab33ebc0ae081ba8556a00cd122038841867181caac810185905561310d565b83601003612e55578460125403612e19576040517f08c379a000000000000000000000000000000000000000000000000000000000815260206004820152601b60248201527f70503a20616c726561647920626f617264566f7465506572696f6400000000006044820152606401610672565b50602a80546001810182556000919091527fbeced09521047d05b8960b7e7bcc1d1292cf3e4b2a6b63f48335cbde5f7545d2810185905561310d565b83601103612f04578460135403612ec8576040517f08c379a000000000000000000000000000000000000000000000000000000000815260206004820152601b60248201527f70503a20616c726561647920626f617264566f746557656967687400000000006044820152606401610672565b50602b80546001810182556000919091527f11c44e4875b74d31ff9fd779bf2566af7bd15b87fc985d01f5094b89e3669e4f810185905561310d565b83601203612fb3578460145403612f77576040517f08c379a000000000000000000000000000000000000000000000000000000000815260206004820152601c60248201527f70503a20616c726561647920726577617264566f7465506572696f64000000006044820152606401610672565b50602c80546001810182556000919091527f7416c943b4a09859521022fd2e90eac0dd9026dad28fa317782a135f28a86091810185905561310d565b83601303613062578460155403613026576040517f08c379a000000000000000000000000000000000000000000000000000000000815260206004820152601e60248201527f70503a20616c726561647920737562736372697074696f6e416d6f756e7400006044820152606401610672565b50602d80546001810182556000919091527f4a2cc91ee622da3bc833a54c37ffcb6f3ec23b7793efc5eaf5e71b7b406c5c06810185905561310d565b8360140361310d5784601654036130d5576040517f08c379a000000000000000000000000000000000000000000000000000000000815260206004820152601b60248201527f70503a20616c726561647920626f6172645265776172645261746500000000006044820152606401610672565b50602e80546001810182556000919091527f37fa166cbdbfbb1561ccd9ea985ec0218b5e68502e230525f544285b2bdf3d7e81018590555b60008481526036602090815260408083208484529091529020806131318582615ac7565b50600181016131408482615ac7565b50426002820181905560058083018890556006830180547fffffffffffffffffffffff00ffffffffffffffffffffffffffffffffffffffff339081167fffffffffffffffffffffff0000000000000000000000000000000000000000009092169190911790915590546040517f4037f8aa00000000000000000000000000000000000000000000000000000000815260048101929092526024820192909252604481019190915273ffffffffffffffffffffffffffffffffffffffff7f00000000000000000000000000000000000000000000000000000000000000001690634037f8aa906064016020604051808303816000875af1158015613247573d6000803e3d6000fd5b505050506040513d601f19601f8201168201806040525081019061326b9190615a20565b81600401819055506001601960008282546132869190615be1565b90915550503360009081526038602052604081208054600192906132ab908490615be1565b9091555050600085815260346020908152604080832089845290915290819020600190555133907f525af3b2c674c5c4b0e536c2756eb8111f2fa70f8e7ebd601c51c1e9bc4e777390613305908990899089908990615c6e565b60405180910390a2505061090b6001600055565b60608160000361337a57601a80548060200260200160405190810160405280929190818152602001828054801561097e57602002820191906000526020600020905b81548152602001906001019080831161335b5750505050509050919050565b816001036133d857601b80548060200260200160405190810160405280929190818152602001828054801561097e576020028201919060005260206000209081548152602001906001019080831161335b5750505050509050919050565b8160020361343657601c80548060200260200160405190810160405280929190818152602001828054801561097e576020028201919060005260206000209081548152602001906001019080831161335b5750505050509050919050565b8160030361349457601d80548060200260200160405190810160405280929190818152602001828054801561097e576020028201919060005260206000209081548152602001906001019080831161335b5750505050509050919050565b816004036134f257601e80548060200260200160405190810160405280929190818152602001828054801561097e576020028201919060005260206000209081548152602001906001019080831161335b5750505050509050919050565b8160050361355057601f80548060200260200160405190810160405280929190818152602001828054801561097e576020028201919060005260206000209081548152602001906001019080831161335b5750505050509050919050565b816006036135a95760208054604080518284028101840190915281815291908282018282801561097e576020028201919060005260206000209081548152602001906001019080831161335b5750505050509050919050565b8160070361360757602180548060200260200160405190810160405280929190818152602001828054801561097e576020028201919060005260206000209081548152602001906001019080831161335b5750505050509050919050565b8160080361366557602280548060200260200160405190810160405280929190818152602001828054801561097e576020028201919060005260206000209081548152602001906001019080831161335b5750505050509050919050565b816009036136c357602380548060200260200160405190810160405280929190818152602001828054801561097e576020028201919060005260206000209081548152602001906001019080831161335b5750505050509050919050565b81600a0361372157602480548060200260200160405190810160405280929190818152602001828054801561097e576020028201919060005260206000209081548152602001906001019080831161335b5750505050509050919050565b81600b0361377f57602580548060200260200160405190810160405280929190818152602001828054801561097e576020028201919060005260206000209081548152602001906001019080831161335b5750505050509050919050565b81600c036137dd57602680548060200260200160405190810160405280929190818152602001828054801561097e576020028201919060005260206000209081548152602001906001019080831161335b5750505050509050919050565b81600d0361383b57602780548060200260200160405190810160405280929190818152602001828054801561097e576020028201919060005260206000209081548152602001906001019080831161335b5750505050509050919050565b81600e0361389957602880548060200260200160405190810160405280929190818152602001828054801561097e576020028201919060005260206000209081548152602001906001019080831161335b5750505050509050919050565b81600f036138f757602980548060200260200160405190810160405280929190818152602001828054801561097e576020028201919060005260206000209081548152602001906001019080831161335b5750505050509050919050565b8160100361395557602a80548060200260200160405190810160405280929190818152602001828054801561097e576020028201919060005260206000209081548152602001906001019080831161335b5750505050509050919050565b816011036139b357602b80548060200260200160405190810160405280929190818152602001828054801561097e576020028201919060005260206000209081548152602001906001019080831161335b5750505050509050919050565b81601203613a1157602c80548060200260200160405190810160405280929190818152602001828054801561097e576020028201919060005260206000209081548152602001906001019080831161335b5750505050509050919050565b81601303613a6f57602d80548060200260200160405190810160405280929190818152602001828054801561097e576020028201919060005260206000209081548152602001906001019080831161335b5750505050509050919050565b8160140361140157602e80548060200260200160405190810160405280929190818152602001828054801561097e576020028201919060005260206000209081548152602001906001019080831161335b5750505050509050919050565b6040517f0c2eb4030000000000000000000000000000000000000000000000000000000081523360048201527f000000000000000000000000000000000000000000000000000000000000000073ffffffffffffffffffffffffffffffffffffffff1690630c2eb40390602401602060405180830381865afa158015613b57573d6000803e3d6000fd5b505050506040513d601f19601f82011682018060405250810190613b7b9190615a20565b600003613be4576040517f08c379a000000000000000000000000000000000000000000000000000000000815260206004820152600a60248201527f4e6f74207374616b6572000000000000000000000000000000000000000000006044820152606401610672565b613bec614a93565b73ffffffffffffffffffffffffffffffffffffffff811660009081527f4c61297e4655be30d3d195f2bd8fb04ca1887c13893ca54a860373a17c0d76046020526040902054600214613c9a576040517f08c379a000000000000000000000000000000000000000000000000000000000815260206004820152601660248201527f7246424d3a206e6f7420626f617264206d656d626572000000000000000000006044820152606401610672565b6040517fda081df000000000000000000000000000000000000000000000000000000000815273ffffffffffffffffffffffffffffffffffffffff82811660048301527f0000000000000000000000000000000000000000000000000000000000000000169063da081df090602401602060405180830381865afa158015613d26573d6000803e3d6000fd5b505050506040513d601f19601f82011682018060405250810190613d4a9190615a20565b613d549042615c9f565b60095410613dbe576040517f08c379a000000000000000000000000000000000000000000000000000000000815260206004820152600860248201527f7246424d3a2065310000000000000000000000000000000000000000000000006044820152606401610672565b7f000000000000000000000000000000000000000000000000000000000000000073ffffffffffffffffffffffffffffffffffffffff1663178e5aea6040518163ffffffff1660e01b8152600401602060405180830381865afa158015613e29573d6000803e3d6000fd5b505050506040513d601f19601f82011682018060405250810190613e4d9190615a20565b613e579042615c9f565b60095411613ec1576040517f08c379a000000000000000000000000000000000000000000000000000000000815260206004820152600860248201527f7246424d3a2065320000000000000000000000000000000000000000000000006044820152606401610672565b613eca81614f63565b73ffffffffffffffffffffffffffffffffffffffff811660008181527f4c61297e4655be30d3d195f2bd8fb04ca1887c13893ca54a860373a17c0d76046020908152604080832092909255905191825233917f437522ff564350feae203c088777f11958473d8dcd0bae7cfab48f1abeb23f77910160405180910390a2613f516001600055565b50565b3373ffffffffffffffffffffffffffffffffffffffff7f00000000000000000000000000000000000000000000000000000000000000001614613ff3576040517f08c379a000000000000000000000000000000000000000000000000000000000815260206004820152601f60248201527f63616c6c6572206973206e6f742074686520766f746520636f6e7472616374006044820152606401610672565b600082815260356020908152604080832086845290915290206005808201544260039093019290925573ffffffffffffffffffffffffffffffffffffffff909116908290036140d557600083815260356020908152604080832087845290915290206006018054600591907fffffffffffffffffffffff00ffffffffffffffffffffffffffffffffffffffff1674010000000000000000000000000000000000000000835b0217905550600083815260336020908152604080832073ffffffffffffffffffffffffffffffffffffffff851684529091529020600290556141c0565b8160010361413d57600083815260356020908152604080832087845290915290206006018054600191907fffffffffffffffffffffff00ffffffffffffffffffffffffffffffffffffffff167401000000000000000000000000000000000000000083614098565b6000838152603560209081526040808320878452825280832060060180547fffffffffffffffffffffff00ffffffffffffffffffffffffffffffffffffffff16740400000000000000000000000000000000000000001790558583526033825280832073ffffffffffffffffffffffffffffffffffffffff851684529091528120555b8260031480156141d05750816001145b156142975780600160006101000a81548173ffffffffffffffffffffffffffffffffffffffff021916908373ffffffffffffffffffffffffffffffffffffffff1602179055507f000000000000000000000000000000000000000000000000000000000000000073ffffffffffffffffffffffffffffffffffffffff166371e6651a6040518163ffffffff1660e01b8152600401600060405180830381600087803b15801561427e57600080fd5b505af1158015614292573d6000803e3d6000fd5b505050505b8260021480156142a75750816001145b1561090b57603280546001810182556000919091527f11df491316f14931039edfd4f8964c9a443b862f02d4c7611d18c2bc4e6ff69701805473ffffffffffffffffffffffffffffffffffffffff83167fffffffffffffffffffffffff000000000000000000000000000000000000000090911617905550505050565b6011546040517f0c2eb4030000000000000000000000000000000000000000000000000000000081523360048201527f000000000000000000000000000000000000000000000000000000000000000073ffffffffffffffffffffffffffffffffffffffff1690630c2eb40390602401602060405180830381865afa1580156143b1573d6000803e3d6000fd5b505050506040513d601f19601f820116820180604052508101906143d59190615a20565b101561443d576040517f08c379a000000000000000000000000000000000000000000000000000000000815260206004820152600960248201527f4e6f74206d616a6f7200000000000000000000000000000000000000000000006044820152606401610672565b614445614a93565b73ffffffffffffffffffffffffffffffffffffffff83166144c2576040517f08c379a000000000000000000000000000000000000000000000000000000000815260206004820152600860248201527f70413a207a65726f0000000000000000000000000000000000000000000000006044820152606401610672565b8273ffffffffffffffffffffffffffffffffffffffff167f000000000000000000000000000000000000000000000000000000000000000073ffffffffffffffffffffffffffffffffffffffff16633ec045a66040518163ffffffff1660e01b8152600401602060405180830381865afa158015614544573d6000803e3d6000fd5b505050506040513d601f19601f820116820180604052508101906145689190615cb2565b73ffffffffffffffffffffffffffffffffffffffff16036145e5576040517f08c379a000000000000000000000000000000000000000000000000000000000815260206004820152601360248201527f70413a20616c72656164792061756469746f72000000000000000000000000006044820152606401610672565b73ffffffffffffffffffffffffffffffffffffffff831660009081527f10f6f77027d502f219862b0303542eb5dd005b06fa23ff4d1775aaa45bbf9477602052604090205415614691576040517f08c379a000000000000000000000000000000000000000000000000000000000815260206004820152601560248201527f70413a20616c72656164792063616e64696461746500000000000000000000006044820152606401610672565b61469c600a54614b06565b602f5460009081527f8e3caac72b6c5bb0462da38c8c8c3b5fbc00a646bd75367c23c11d594c4e36c960205260409020806146d78482615ac7565b50600181016146e68382615ac7565b50426002820181905560058201805473ffffffffffffffffffffffffffffffffffffffff8781167fffffffffffffffffffffffff0000000000000000000000000000000000000000909216919091179091556006830180547fffffffffffffffffffffff00ffffffffffffffffffffffffffffffffffffffff339081167fffffffffffffffffffffff000000000000000000000000000000000000000000909216919091179091556003546040517f4037f8aa0000000000000000000000000000000000000000000000000000000081526004810192909252602482019390935260448101929092527f00000000000000000000000000000000000000000000000000000000000000001690634037f8aa906064016020604051808303816000875af115801561481a573d6000803e3d6000fd5b505050506040513d601f19601f8201168201806040525081019061483e9190615a20565b81600401819055506001601960008282546148599190615be1565b909155505033600090815260386020526040812080546001929061487e908490615be1565b909155505073ffffffffffffffffffffffffffffffffffffffff84811660008181527f10f6f77027d502f219862b0303542eb5dd005b06fa23ff4d1775aaa45bbf947760209081526040808320600190819055603783527f8e0cc0f1f0504b4cb44a23b328568106915b169e79003737a7b094503cdbeeb0805491820181559093527f39fe8831f12e5d1ecfa13b1c4de9c59bb9a0396ce2c001c520b54bac91c8af5890920180547fffffffffffffffffffffffff000000000000000000000000000000000000000016841790558151808301835292835290517f0c2eb403000000000000000000000000000000000000000000000000000000008152336004820152602f93918301917f00000000000000000000000000000000000000000000000000000000000000001690630c2eb40390602401602060405180830381865afa1580156149d1573d6000803e3d6000fd5b505050506040513d601f19601f820116820180604052508101906149f59190615a20565b90528154600180820184556000938452602093849020835160029093020180547fffffffffffffffffffffffff00000000000000000000000000000000000000001673ffffffffffffffffffffffffffffffffffffffff909316929092178255919092015191015560405133907fb9b2f8d4f50ab8ea9532d1c9ffb2bd82f749566876118adb73e2954bf5b4e0419061113790879087908790615bf4565b600260005403614aff576040517f08c379a000000000000000000000000000000000000000000000000000000000815260206004820152601f60248201527f5265656e7472616e637947756172643a207265656e7472616e742063616c6c006044820152606401610672565b6002600055565b60007f000000000000000000000000000000000000000000000000000000000000000073ffffffffffffffffffffffffffffffffffffffff1663fa5692746040518163ffffffff1660e01b8152600401602060405180830381865afa158015614b73573d6000803e3d6000fd5b505050506040513d601f19601f82011682018060405250810190614b979190615cb2565b905060007f000000000000000000000000000000000000000000000000000000000000000073ffffffffffffffffffffffffffffffffffffffff1663e2f6f5116040518163ffffffff1660e01b8152600401602060405180830381865afa158015614c06573d6000803e3d6000fd5b505050506040513d601f19601f82011682018060405250810190614c2a9190615cb2565b6040517feeee26ce0000000000000000000000000000000000000000000000000000000081526004810185905273ffffffffffffffffffffffffffffffffffffffff848116602483015280831660448301529192506000917f0000000000000000000000000000000000000000000000000000000000000000169063eeee26ce90606401602060405180830381865afa158015614ccb573d6000803e3d6000fd5b505050506040513d601f19601f82011682018060405250810190614cef9190615a20565b905080600003614d5b576040517f08c379a000000000000000000000000000000000000000000000000000000000815260206004820152601260248201527f704665653a204e6f7420706169642066656500000000000000000000000000006044820152606401610672565b614d67823330846150c9565b6040517fdd62ed3e00000000000000000000000000000000000000000000000000000000815230600482015273ffffffffffffffffffffffffffffffffffffffff7f00000000000000000000000000000000000000000000000000000000000000008116602483015283169063dd62ed3e90604401602060405180830381865afa158015614df9573d6000803e3d6000fd5b505050506040513d601f19601f82011682018060405250810190614e1d9190615a20565b600003614ebd57614ebd827f00000000000000000000000000000000000000000000000000000000000000008473ffffffffffffffffffffffffffffffffffffffff166318160ddd6040518163ffffffff1660e01b8152600401602060405180830381865afa158015614e94573d6000803e3d6000fd5b505050506040513d601f19601f82011682018060405250810190614eb89190615a20565b6152e6565b6040517f3a53ed49000000000000000000000000000000000000000000000000000000008152600481018290527f000000000000000000000000000000000000000000000000000000000000000073ffffffffffffffffffffffffffffffffffffffff1690633a53ed4990602401600060405180830381600087803b158015614f4557600080fd5b505af1158015614f59573d6000803e3d6000fd5b5050505050505050565b60005b6032548110156150c55760328181548110614f8357614f83615c3f565b60009182526020909120015473ffffffffffffffffffffffffffffffffffffffff908116908316036150bd5760328054614fbf90600190615c9f565b81548110614fcf57614fcf615c3f565b6000918252602090912001546032805473ffffffffffffffffffffffffffffffffffffffff909216918390811061500857615008615c3f565b9060005260206000200160006101000a81548173ffffffffffffffffffffffffffffffffffffffff021916908373ffffffffffffffffffffffffffffffffffffffff160217905550603280548061506157615061615ccf565b60008281526020902081017fffffffffffffffffffffffffffffffffffffffffffffffffffffffffffffffff90810180547fffffffffffffffffffffffff00000000000000000000000000000000000000001690550190555050565b600101614f66565b5050565b73ffffffffffffffffffffffffffffffffffffffff84163b615147576040517f08c379a000000000000000000000000000000000000000000000000000000000815260206004820152600160248201527f43000000000000000000000000000000000000000000000000000000000000006044820152606401610672565b6040805173ffffffffffffffffffffffffffffffffffffffff85811660248301528481166044830152606480830185905283518084039091018152608490920183526020820180517bffffffffffffffffffffffffffffffffffffffffffffffffffffffff167f23b872dd0000000000000000000000000000000000000000000000000000000017905291516000928392908816916151e69190615cfe565b6000604051808303816000865af19150503d8060008114615223576040519150601f19603f3d011682016040523d82523d6000602084013e615228565b606091505b50915091508180156152525750805115806152525750808060200190518101906152529190615d1a565b6152de576040517f08c379a000000000000000000000000000000000000000000000000000000000815260206004820152602c60248201527f566162626c6544414f3a3a7472616e7366657246726f6d3a207472616e73666560448201527f7246726f6d206661696c656400000000000000000000000000000000000000006064820152608401610672565b505050505050565b73ffffffffffffffffffffffffffffffffffffffff83163b615364576040517f08c379a000000000000000000000000000000000000000000000000000000000815260206004820152600160248201527f43000000000000000000000000000000000000000000000000000000000000006044820152606401610672565b6040805173ffffffffffffffffffffffffffffffffffffffff8481166024830152604480830185905283518084039091018152606490920183526020820180517bffffffffffffffffffffffffffffffffffffffffffffffffffffffff167f095ea7b30000000000000000000000000000000000000000000000000000000017905291516000928392908716916153fb9190615cfe565b6000604051808303816000865af19150503d8060008114615438576040519150601f19603f3d011682016040523d82523d6000602084013e61543d565b606091505b50915091508180156154675750805115806154675750808060200190518101906154679190615d1a565b6154f3576040517f08c379a000000000000000000000000000000000000000000000000000000000815260206004820152602b60248201527f5472616e7366657248656c7065723a3a73616665417070726f76653a2061707060448201527f726f7665206661696c65640000000000000000000000000000000000000000006064820152608401610672565b5050505050565b60008060006060848603121561550f57600080fd5b505081359360208301359350604090920135919050565b60006020828403121561553857600080fd5b5035919050565b6020808252825182820181905260009190848201906040850190845b8181101561558d57835173ffffffffffffffffffffffffffffffffffffffff168352928401929184019160010161555b565b50909695505050505050565b600080604083850312156155ac57600080fd5b50508035926020909101359150565b60005b838110156155d65781810151838201526020016155be565b50506000910152565b600081518084526155f78160208601602086016155bb565b601f017fffffffffffffffffffffffffffffffffffffffffffffffffffffffffffffffe0169290920160200192915050565b60408152600061563c60408301856155df565b828103602084015261564e81856155df565b95945050505050565b73ffffffffffffffffffffffffffffffffffffffff81168114613f5157600080fd5b6000806040838503121561568c57600080fd5b82359150602083013561569e81615657565b809150509250929050565b7f4e487b7100000000000000000000000000000000000000000000000000000000600052604160045260246000fd5b600082601f8301126156e957600080fd5b813567ffffffffffffffff80821115615704576157046156a9565b604051601f83017fffffffffffffffffffffffffffffffffffffffffffffffffffffffffffffffe0908116603f0116810190828211818310171561574a5761574a6156a9565b8160405283815286602085880101111561576357600080fd5b836020870160208301376000602085830101528094505050505092915050565b60008060006060848603121561579857600080fd5b83356157a381615657565b9250602084013567ffffffffffffffff808211156157c057600080fd5b6157cc878388016156d8565b935060408601359150808211156157e257600080fd5b506157ef868287016156d8565b9150509250925092565b7f4e487b7100000000000000000000000000000000000000000000000000000000600052602160045260246000fd5b6006811061585f577f4e487b7100000000000000000000000000000000000000000000000000000000600052602160045260246000fd5b9052565b868152602081018690526040810185905273ffffffffffffffffffffffffffffffffffffffff84811660608301528316608082015260c081016158a960a0830184615828565b979650505050505050565b600060c08201905087825286602083015285604083015284606083015273ffffffffffffffffffffffffffffffffffffffff841660808301526158a960a0830184615828565b6000806000806080858703121561591057600080fd5b8435935060208501359250604085013567ffffffffffffffff8082111561593657600080fd5b615942888389016156d8565b9350606087013591508082111561595857600080fd5b50615965878288016156d8565b91505092959194509250565b6020808252825182820181905260009190848201906040850190845b8181101561558d5783518352928401929184019160010161598d565b6000602082840312156159bb57600080fd5b81356159c681615657565b9392505050565b600181811c908216806159e157607f821691505b602082108103615a1a577f4e487b7100000000000000000000000000000000000000000000000000000000600052602260045260246000fd5b50919050565b600060208284031215615a3257600080fd5b5051919050565b7f4e487b7100000000000000000000000000000000000000000000000000000000600052601160045260246000fd5b80820281158282048414176109a5576109a5615a39565b601f82111561114a576000816000526020600020601f850160051c81016020861015615aa85750805b601f850160051c820191505b818110156152de57828155600101615ab4565b815167ffffffffffffffff811115615ae157615ae16156a9565b615af581615aef84546159cd565b84615a7f565b602080601f831160018114615b485760008415615b125750858301515b7fffffffffffffffffffffffffffffffffffffffffffffffffffffffffffffffff600386901b1c1916600185901b1785556152de565b6000858152602081207fffffffffffffffffffffffffffffffffffffffffffffffffffffffffffffffe08616915b82811015615b9557888601518255948401946001909101908401615b76565b5085821015615bd157878501517fffffffffffffffffffffffffffffffffffffffffffffffffffffffffffffffff600388901b60f8161c191681555b5050505050600190811b01905550565b808201808211156109a5576109a5615a39565b73ffffffffffffffffffffffffffffffffffffffff84168152606060208201526000615c2360608301856155df565b8281036040840152615c3581856155df565b9695505050505050565b7f4e487b7100000000000000000000000000000000000000000000000000000000600052603260045260246000fd5b848152836020820152608060408201526000615c8d60808301856155df565b82810360608401526158a981856155df565b818103818111156109a5576109a5615a39565b600060208284031215615cc457600080fd5b81516159c681615657565b7f4e487b7100000000000000000000000000000000000000000000000000000000600052603160045260246000fd5b60008251615d108184602087016155bb565b9190910192915050565b600060208284031215615d2c57600080fd5b815180151581146159c657600080fdfea2646970667358221220f463bf69741d4dd1515e14c4fc7c0087d654946585e454f967d77bcd3e9c911c64736f6c63430008180033","linkReferences":{}},"methodIdentifiers":{"DAO_FUND_REWARD()":"09eca169","agentVotePeriod()":"d56b5874","availableVABAmount()":"ef75552c","boardRewardRate()":"cb9f7d23","boardVotePeriod()":"da18716f","boardVoteWeight()":"c4ad4fbd","checkGovWhitelist(uint256,address)":"68477d58","checkPropertyWhitelist(uint256,uint256)":"5e28407d","disputeGracePeriod()":"0b63a6e1","filmRewardClaimPeriod()":"4be520e2","filmVotePeriod()":"41d4e351","fundFeePercent()":"03b9b14c","getAgentProposerStakeAmount(uint256)":"a0658cef","getAllGovProposalInfo(uint256)":"2145fb48","getGovProposalInfo(uint256,uint256)":"a3b13561","getGovProposalList(uint256)":"814f10b6","getGovProposalStr(uint256,uint256)":"8f551870","getPropertyProposalInfo(uint256,uint256)":"a6be63be","getPropertyProposalList(uint256)":"b35cf4bf","getPropertyProposalStr(uint256,uint256)":"63d8efb5","governanceProposalCount()":"b1276d89","lockPeriod()":"3fd8b02f","maxAllowPeriod()":"bd038cd4","maxDepositAmount()":"8ed83271","maxMintFeePercent()":"bc2a78c3","minDepositAmount()":"645006ca","minStakerCountPercent()":"3346cfb6","minVoteCount()":"40be2883","propertyVotePeriod()":"999a4fc4","proposalAuditor(address,string,string)":"fd35e224","proposalFeeAmount()":"06b25c7b","proposalFilmBoard(address,string,string)":"82f94d95","proposalProperty(uint256,uint256,string,string)":"ac92074e","proposalRewardFund(address,string,string)":"6ea0cce3","removeFilmBoardMember(address)":"dcccc8e8","rewardRate()":"7b0a47ee","rewardVotePeriod()":"f2a3b343","subscriptionAmount()":"54f8a8c2","updateGovProposal(uint256,uint256,uint256)":"f8a149cc","updatePropertyProposal(uint256,uint256,uint256)":"1d00c7fa","userGovProposalCount(address)":"eb7c5fbb"},"id":5}