{"abi":[{"type":"constructor","inputs":[{"name":"_name","type":"string","internalType":"string"},{"name":"_symbol","type":"string","internalType":"string"}],"stateMutability":"nonpayable"},{"type":"function","name":"approve","inputs":[{"name":"to","type":"address","internalType":"address"},{"name":"tokenId","type":"uint256","internalType":"uint256"}],"outputs":[],"stateMutability":"nonpayable"},{"type":"function","name":"balanceOf","inputs":[{"name":"owner","type":"address","internalType":"address"}],"outputs":[{"name":"","type":"uint256","internalType":"uint256"}],"stateMutability":"view"},{"type":"function","name":"baseTokenURI","inputs":[],"outputs":[{"name":"","type":"string","internalType":"string"}],"stateMutability":"pure"},{"type":"function","name":"batchMintTo","inputs":[{"name":"_to","type":"address","internalType":"address"},{"name":"_amount","type":"uint256","internalType":"uint256"}],"outputs":[],"stateMutability":"nonpayable"},{"type":"function","name":"getApproved","inputs":[{"name":"tokenId","type":"uint256","internalType":"uint256"}],"outputs":[{"name":"","type":"address","internalType":"address"}],"stateMutability":"view"},{"type":"function","name":"isApprovedForAll","inputs":[{"name":"owner","type":"address","internalType":"address"},{"name":"operator","type":"address","internalType":"address"}],"outputs":[{"name":"","type":"bool","internalType":"bool"}],"stateMutability":"view"},{"type":"function","name":"mintTo","inputs":[{"name":"_to","type":"address","internalType":"address"}],"outputs":[],"stateMutability":"nonpayable"},{"type":"function","name":"name","inputs":[],"outputs":[{"name":"","type":"string","internalType":"string"}],"stateMutability":"view"},{"type":"function","name":"owner","inputs":[],"outputs":[{"name":"","type":"address","internalType":"address"}],"stateMutability":"view"},{"type":"function","name":"ownerOf","inputs":[{"name":"tokenId","type":"uint256","internalType":"uint256"}],"outputs":[{"name":"","type":"address","internalType":"address"}],"stateMutability":"view"},{"type":"function","name":"renounceOwnership","inputs":[],"outputs":[],"stateMutability":"nonpayable"},{"type":"function","name":"safeTransferFrom","inputs":[{"name":"from","type":"address","internalType":"address"},{"name":"to","type":"address","internalType":"address"},{"name":"tokenId","type":"uint256","internalType":"uint256"}],"outputs":[],"stateMutability":"nonpayable"},{"type":"function","name":"safeTransferFrom","inputs":[{"name":"from","type":"address","internalType":"address"},{"name":"to","type":"address","internalType":"address"},{"name":"tokenId","type":"uint256","internalType":"uint256"},{"name":"data","type":"bytes","internalType":"bytes"}],"outputs":[],"stateMutability":"nonpayable"},{"type":"function","name":"setApprovalForAll","inputs":[{"name":"operator","type":"address","internalType":"address"},{"name":"approved","type":"bool","internalType":"bool"}],"outputs":[],"stateMutability":"nonpayable"},{"type":"function","name":"supportsInterface","inputs":[{"name":"interfaceId","type":"bytes4","internalType":"bytes4"}],"outputs":[{"name":"","type":"bool","internalType":"bool"}],"stateMutability":"view"},{"type":"function","name":"symbol","inputs":[],"outputs":[{"name":"","type":"string","internalType":"string"}],"stateMutability":"view"},{"type":"function","name":"tokenByIndex","inputs":[{"name":"index","type":"uint256","internalType":"uint256"}],"outputs":[{"name":"","type":"uint256","internalType":"uint256"}],"stateMutability":"view"},{"type":"function","name":"tokenOfOwnerByIndex","inputs":[{"name":"owner","type":"address","internalType":"address"},{"name":"index","type":"uint256","internalType":"uint256"}],"outputs":[{"name":"","type":"uint256","internalType":"uint256"}],"stateMutability":"view"},{"type":"function","name":"tokenURI","inputs":[{"name":"_tokenId","type":"uint256","internalType":"uint256"}],"outputs":[{"name":"","type":"string","internalType":"string"}],"stateMutability":"pure"},{"type":"function","name":"totalSupply","inputs":[],"outputs":[{"name":"","type":"uint256","internalType":"uint256"}],"stateMutability":"view"},{"type":"function","name":"transferFrom","inputs":[{"name":"from","type":"address","internalType":"address"},{"name":"to","type":"address","internalType":"address"},{"name":"tokenId","type":"uint256","internalType":"uint256"}],"outputs":[],"stateMutability":"nonpayable"},{"type":"function","name":"transferOwnership","inputs":[{"name":"newOwner","type":"address","internalType":"address"}],"outputs":[],"stateMutability":"nonpayable"},{"type":"event","name":"Approval","inputs":[{"name":"owner","type":"address","indexed":true,"internalType":"address"},{"name":"approved","type":"address","indexed":true,"internalType":"address"},{"name":"tokenId","type":"uint256","indexed":true,"internalType":"uint256"}],"anonymous":false},{"type":"event","name":"ApprovalForAll","inputs":[{"name":"owner","type":"address","indexed":true,"internalType":"address"},{"name":"operator","type":"address","indexed":true,"internalType":"address"},{"name":"approved","type":"bool","indexed":false,"internalType":"bool"}],"anonymous":false},{"type":"event","name":"OwnershipTransferred","inputs":[{"name":"previousOwner","type":"address","indexed":true,"internalType":"address"},{"name":"newOwner","type":"address","indexed":true,"internalType":"address"}],"anonymous":false},{"type":"event","name":"Transfer","inputs":[{"name":"from","type":"address","indexed":true,"internalType":"address"},{"name":"to","type":"address","indexed":true,"internalType":"address"},{"name":"tokenId","type":"uint256","indexed":true,"internalType":"uint256"}],"anonymous":false}],"bytecode":{"object":"0x60806040523480156200001157600080fd5b50604051620026fc380380620026fc833981016040819052620000349162000196565b8181600062000044838262000291565b50600162000053828262000291565b505050620000706200006a6200007860201b60201c565b6200007c565b50506200035d565b3390565b600a80546001600160a01b038381166001600160a01b0319831681179093556040519116919082907f8be0079c531659141344cd1fd0a4f28419497f9722a3daafe3b4186f6b6457e090600090a35050565b634e487b7160e01b600052604160045260246000fd5b600082601f830112620000f657600080fd5b81516001600160401b0380821115620001135762000113620000ce565b604051601f8301601f19908116603f011681019082821181831017156200013e576200013e620000ce565b81604052838152602092508660208588010111156200015c57600080fd5b600091505b8382101562000180578582018301518183018401529082019062000161565b6000602085830101528094505050505092915050565b60008060408385031215620001aa57600080fd5b82516001600160401b0380821115620001c257600080fd5b620001d086838701620000e4565b93506020850151915080821115620001e757600080fd5b50620001f685828601620000e4565b9150509250929050565b600181811c908216806200021557607f821691505b6020821081036200023657634e487b7160e01b600052602260045260246000fd5b50919050565b601f8211156200028c576000816000526020600020601f850160051c81016020861015620002675750805b601f850160051c820191505b81811015620002885782815560010162000273565b5050505b505050565b81516001600160401b03811115620002ad57620002ad620000ce565b620002c581620002be845462000200565b846200023c565b602080601f831160018114620002fd5760008415620002e45750858301515b600019600386901b1c1916600185901b17855562000288565b600085815260208120601f198616915b828110156200032e578886015182559484019460019091019084016200030d565b50858210156200034d5787850151600019600388901b60f8161c191681555b5050505050600190811b01905550565b61238f806200036d6000396000f3fe608060405234801561001057600080fd5b50600436106101825760003560e01c8063715018a6116100d8578063b88d4fde1161008c578063e7e5107011610066578063e7e5107014610317578063e985e9c51461032a578063f2fde38b1461037357600080fd5b8063b88d4fde146102e9578063c87b56dd146102fc578063d547cfb71461030f57600080fd5b80638da5cb5b116100bd5780638da5cb5b146102b057806395d89b41146102ce578063a22cb465146102d657600080fd5b8063715018a614610295578063755edd171461029d57600080fd5b806323b872dd1161013a5780634f6ccce7116101145780634f6ccce71461025c5780636352211e1461026f57806370a082311461028257600080fd5b806323b872dd146102235780632f745c591461023657806342842e0e1461024957600080fd5b8063081812fc1161016b578063081812fc146101c4578063095ea7b3146101fc57806318160ddd1461021157600080fd5b806301ffc9a71461018757806306fdde03146101af575b600080fd5b61019a610195366004611e54565b610386565b60405190151581526020015b60405180910390f35b6101b76103e2565b6040516101a69190611edf565b6101d76101d2366004611ef2565b610474565b60405173ffffffffffffffffffffffffffffffffffffffff90911681526020016101a6565b61020f61020a366004611f34565b6104a8565b005b6008545b6040519081526020016101a6565b61020f610231366004611f5e565b610639565b610215610244366004611f34565b6106da565b61020f610257366004611f5e565b6107a9565b61021561026a366004611ef2565b6107c4565b6101d761027d366004611ef2565b610882565b610215610290366004611f9a565b61090e565b61020f6109dc565b61020f6102ab366004611f9a565b6109f0565b600a5473ffffffffffffffffffffffffffffffffffffffff166101d7565b6101b7610a1a565b61020f6102e4366004611fb5565b610a29565b61020f6102f7366004612020565b610a34565b6101b761030a366004611ef2565b610adc565b6101b7610b16565b61020f610325366004611f34565b610b36565b61019a61033836600461211a565b73ffffffffffffffffffffffffffffffffffffffff918216600090815260056020908152604080832093909416825291909152205460ff1690565b61020f610381366004611f9a565b610b70565b60007fffffffff0000000000000000000000000000000000000000000000000000000082167f780e9d630000000000000000000000000000000000000000000000000000000014806103dc57506103dc82610c27565b92915050565b6060600080546103f19061214d565b80601f016020809104026020016040519081016040528092919081815260200182805461041d9061214d565b801561046a5780601f1061043f5761010080835404028352916020019161046a565b820191906000526020600020905b81548152906001019060200180831161044d57829003601f168201915b5050505050905090565b600061047f82610d0a565b5060009081526004602052604090205473ffffffffffffffffffffffffffffffffffffffff1690565b60006104b382610882565b90508073ffffffffffffffffffffffffffffffffffffffff168373ffffffffffffffffffffffffffffffffffffffff1603610575576040517f08c379a000000000000000000000000000000000000000000000000000000000815260206004820152602160248201527f4552433732313a20617070726f76616c20746f2063757272656e74206f776e6560448201527f720000000000000000000000000000000000000000000000000000000000000060648201526084015b60405180910390fd5b3373ffffffffffffffffffffffffffffffffffffffff8216148061059e575061059e8133610338565b61062a576040517f08c379a000000000000000000000000000000000000000000000000000000000815260206004820152603d60248201527f4552433732313a20617070726f76652063616c6c6572206973206e6f7420746f60448201527f6b656e206f776e6572206f7220617070726f76656420666f7220616c6c000000606482015260840161056c565b6106348383610d95565b505050565b6106433382610e35565b6106cf576040517f08c379a000000000000000000000000000000000000000000000000000000000815260206004820152602d60248201527f4552433732313a2063616c6c6572206973206e6f7420746f6b656e206f776e6560448201527f72206f7220617070726f76656400000000000000000000000000000000000000606482015260840161056c565b610634838383610ef5565b60006106e58361090e565b8210610773576040517f08c379a000000000000000000000000000000000000000000000000000000000815260206004820152602b60248201527f455243373231456e756d657261626c653a206f776e657220696e646578206f7560448201527f74206f6620626f756e6473000000000000000000000000000000000000000000606482015260840161056c565b5073ffffffffffffffffffffffffffffffffffffffff919091166000908152600660209081526040808320938352929052205490565b61063483838360405180602001604052806000815250610a34565b60006107cf60085490565b821061085d576040517f08c379a000000000000000000000000000000000000000000000000000000000815260206004820152602c60248201527f455243373231456e756d657261626c653a20676c6f62616c20696e646578206f60448201527f7574206f6620626f756e64730000000000000000000000000000000000000000606482015260840161056c565b60088281548110610870576108706121a0565b90600052602060002001549050919050565b60008181526002602052604081205473ffffffffffffffffffffffffffffffffffffffff16806103dc576040517f08c379a000000000000000000000000000000000000000000000000000000000815260206004820152601860248201527f4552433732313a20696e76616c696420746f6b656e2049440000000000000000604482015260640161056c565b600073ffffffffffffffffffffffffffffffffffffffff82166109b3576040517f08c379a000000000000000000000000000000000000000000000000000000000815260206004820152602960248201527f4552433732313a2061646472657373207a65726f206973206e6f74206120766160448201527f6c6964206f776e65720000000000000000000000000000000000000000000000606482015260840161056c565b5073ffffffffffffffffffffffffffffffffffffffff1660009081526003602052604090205490565b6109e46111fd565b6109ee600061127e565b565b6109f86111fd565b6000610a026112f5565b9050610a0e828261130b565b610a1661153e565b5050565b6060600180546103f19061214d565b610a16338383611555565b610a3e3383610e35565b610aca576040517f08c379a000000000000000000000000000000000000000000000000000000000815260206004820152602d60248201527f4552433732313a2063616c6c6572206973206e6f7420746f6b656e206f776e6560448201527f72206f7220617070726f76656400000000000000000000000000000000000000606482015260840161056c565b610ad684848484611682565b50505050565b6060610ae6610b16565b610aef83611725565b604051602001610b009291906121cf565b6040516020818303038152906040529050919050565b606060405180606001604052806039815260200161232160399139905090565b610b3e6111fd565b60005b81811015610634576000610b536112f5565b9050610b5f848261130b565b610b6761153e565b50600101610b41565b610b786111fd565b73ffffffffffffffffffffffffffffffffffffffff8116610c1b576040517f08c379a000000000000000000000000000000000000000000000000000000000815260206004820152602660248201527f4f776e61626c653a206e6577206f776e657220697320746865207a65726f206160448201527f6464726573730000000000000000000000000000000000000000000000000000606482015260840161056c565b610c248161127e565b50565b60007fffffffff0000000000000000000000000000000000000000000000000000000082167f80ac58cd000000000000000000000000000000000000000000000000000000001480610cba57507fffffffff0000000000000000000000000000000000000000000000000000000082167f5b5e139f00000000000000000000000000000000000000000000000000000000145b806103dc57507f01ffc9a7000000000000000000000000000000000000000000000000000000007fffffffff000000000000000000000000000000000000000000000000000000008316146103dc565b60008181526002602052604090205473ffffffffffffffffffffffffffffffffffffffff16610c24576040517f08c379a000000000000000000000000000000000000000000000000000000000815260206004820152601860248201527f4552433732313a20696e76616c696420746f6b656e2049440000000000000000604482015260640161056c565b600081815260046020526040902080547fffffffffffffffffffffffff00000000000000000000000000000000000000001673ffffffffffffffffffffffffffffffffffffffff84169081179091558190610def82610882565b73ffffffffffffffffffffffffffffffffffffffff167f8c5be1e5ebec7d5bd14f71427d1e84f3dd0314c0f7b2291e5b200ac8c7c3b92560405160405180910390a45050565b600080610e4183610882565b90508073ffffffffffffffffffffffffffffffffffffffff168473ffffffffffffffffffffffffffffffffffffffff161480610eaf575073ffffffffffffffffffffffffffffffffffffffff80821660009081526005602090815260408083209388168352929052205460ff165b80610eed57508373ffffffffffffffffffffffffffffffffffffffff16610ed584610474565b73ffffffffffffffffffffffffffffffffffffffff16145b949350505050565b8273ffffffffffffffffffffffffffffffffffffffff16610f1582610882565b73ffffffffffffffffffffffffffffffffffffffff1614610fb8576040517f08c379a000000000000000000000000000000000000000000000000000000000815260206004820152602560248201527f4552433732313a207472616e736665722066726f6d20696e636f72726563742060448201527f6f776e6572000000000000000000000000000000000000000000000000000000606482015260840161056c565b73ffffffffffffffffffffffffffffffffffffffff821661105a576040517f08c379a0000000000000000000000000000000000000000000000000000000008152602060048201526024808201527f4552433732313a207472616e7366657220746f20746865207a65726f2061646460448201527f7265737300000000000000000000000000000000000000000000000000000000606482015260840161056c565b61106783838360016117e3565b8273ffffffffffffffffffffffffffffffffffffffff1661108782610882565b73ffffffffffffffffffffffffffffffffffffffff161461112a576040517f08c379a000000000000000000000000000000000000000000000000000000000815260206004820152602560248201527f4552433732313a207472616e736665722066726f6d20696e636f72726563742060448201527f6f776e6572000000000000000000000000000000000000000000000000000000606482015260840161056c565b600081815260046020908152604080832080547fffffffffffffffffffffffff000000000000000000000000000000000000000090811690915573ffffffffffffffffffffffffffffffffffffffff8781168086526003855283862080547fffffffffffffffffffffffffffffffffffffffffffffffffffffffffffffffff01905590871680865283862080546001019055868652600290945282852080549092168417909155905184937fddf252ad1be2c89b69c2b068fc378daa952ba7f163c4a11628f55a4df523b3ef91a4505050565b600a5473ffffffffffffffffffffffffffffffffffffffff1633146109ee576040517f08c379a000000000000000000000000000000000000000000000000000000000815260206004820181905260248201527f4f776e61626c653a2063616c6c6572206973206e6f7420746865206f776e6572604482015260640161056c565b600a805473ffffffffffffffffffffffffffffffffffffffff8381167fffffffffffffffffffffffff0000000000000000000000000000000000000000831681179093556040519116919082907f8be0079c531659141344cd1fd0a4f28419497f9722a3daafe3b4186f6b6457e090600090a35050565b600b54600090611306906001611987565b905090565b73ffffffffffffffffffffffffffffffffffffffff8216611388576040517f08c379a000000000000000000000000000000000000000000000000000000000815260206004820181905260248201527f4552433732313a206d696e7420746f20746865207a65726f2061646472657373604482015260640161056c565b60008181526002602052604090205473ffffffffffffffffffffffffffffffffffffffff1615611414576040517f08c379a000000000000000000000000000000000000000000000000000000000815260206004820152601c60248201527f4552433732313a20746f6b656e20616c7265616479206d696e74656400000000604482015260640161056c565b6114226000838360016117e3565b60008181526002602052604090205473ffffffffffffffffffffffffffffffffffffffff16156114ae576040517f08c379a000000000000000000000000000000000000000000000000000000000815260206004820152601c60248201527f4552433732313a20746f6b656e20616c7265616479206d696e74656400000000604482015260640161056c565b73ffffffffffffffffffffffffffffffffffffffff8216600081815260036020908152604080832080546001019055848352600290915280822080547fffffffffffffffffffffffff0000000000000000000000000000000000000000168417905551839291907fddf252ad1be2c89b69c2b068fc378daa952ba7f163c4a11628f55a4df523b3ef908290a45050565b600b805490600061154e8361222d565b9190505550565b8173ffffffffffffffffffffffffffffffffffffffff168373ffffffffffffffffffffffffffffffffffffffff16036115ea576040517f08c379a000000000000000000000000000000000000000000000000000000000815260206004820152601960248201527f4552433732313a20617070726f766520746f2063616c6c657200000000000000604482015260640161056c565b73ffffffffffffffffffffffffffffffffffffffff83811660008181526005602090815260408083209487168084529482529182902080547fffffffffffffffffffffffffffffffffffffffffffffffffffffffffffffff001686151590811790915591519182527f17307eab39ab6107e8899845ad3d59bd9653f200f220920489ca2b5937696c31910160405180910390a3505050565b61168d848484610ef5565b6116998484848461199a565b610ad6576040517f08c379a000000000000000000000000000000000000000000000000000000000815260206004820152603260248201527f4552433732313a207472616e7366657220746f206e6f6e20455243373231526560448201527f63656976657220696d706c656d656e7465720000000000000000000000000000606482015260840161056c565b6060600061173283611b8d565b600101905060008167ffffffffffffffff81111561175257611752611ff1565b6040519080825280601f01601f19166020018201604052801561177c576020820181803683370190505b5090508181016020015b7fffffffffffffffffffffffffffffffffffffffffffffffffffffffffffffffff017f3031323334353637383961626364656600000000000000000000000000000000600a86061a8153600a850494508461178657509392505050565b6001811115611874576040517f08c379a000000000000000000000000000000000000000000000000000000000815260206004820152603560248201527f455243373231456e756d657261626c653a20636f6e736563757469766520747260448201527f616e7366657273206e6f7420737570706f727465640000000000000000000000606482015260840161056c565b8173ffffffffffffffffffffffffffffffffffffffff85166118dd576118d881600880546000838152600960205260408120829055600182018355919091527ff3f7a9fe364faab93b216da50a3214154f22a0a2b415b23a84c8169e8b636ee30155565b61191a565b8373ffffffffffffffffffffffffffffffffffffffff168573ffffffffffffffffffffffffffffffffffffffff161461191a5761191a8582611c6f565b73ffffffffffffffffffffffffffffffffffffffff84166119435761193e81611d26565b611980565b8473ffffffffffffffffffffffffffffffffffffffff168473ffffffffffffffffffffffffffffffffffffffff1614611980576119808482611dd5565b5050505050565b60006119938284612265565b9392505050565b600073ffffffffffffffffffffffffffffffffffffffff84163b15611b82576040517f150b7a0200000000000000000000000000000000000000000000000000000000815273ffffffffffffffffffffffffffffffffffffffff85169063150b7a0290611a11903390899088908890600401612278565b6020604051808303816000875af1925050508015611a6a575060408051601f3d9081017fffffffffffffffffffffffffffffffffffffffffffffffffffffffffffffffe0168201909252611a67918101906122c1565b60015b611b37573d808015611a98576040519150601f19603f3d011682016040523d82523d6000602084013e611a9d565b606091505b508051600003611b2f576040517f08c379a000000000000000000000000000000000000000000000000000000000815260206004820152603260248201527f4552433732313a207472616e7366657220746f206e6f6e20455243373231526560448201527f63656976657220696d706c656d656e7465720000000000000000000000000000606482015260840161056c565b805181602001fd5b7fffffffff00000000000000000000000000000000000000000000000000000000167f150b7a0200000000000000000000000000000000000000000000000000000000149050610eed565b506001949350505050565b6000807a184f03e93ff9f4daa797ed6e38ed64bf6a1f0100000000000000008310611bd6577a184f03e93ff9f4daa797ed6e38ed64bf6a1f010000000000000000830492506040015b6d04ee2d6d415b85acef81000000008310611c02576d04ee2d6d415b85acef8100000000830492506020015b662386f26fc100008310611c2057662386f26fc10000830492506010015b6305f5e1008310611c38576305f5e100830492506008015b6127108310611c4c57612710830492506004015b60648310611c5e576064830492506002015b600a83106103dc5760010192915050565b60006001611c7c8461090e565b611c8691906122de565b600083815260076020526040902054909150808214611ce65773ffffffffffffffffffffffffffffffffffffffff841660009081526006602090815260408083208584528252808320548484528184208190558352600790915290208190555b50600091825260076020908152604080842084905573ffffffffffffffffffffffffffffffffffffffff9094168352600681528383209183525290812055565b600854600090611d38906001906122de565b60008381526009602052604081205460088054939450909284908110611d6057611d606121a0565b906000526020600020015490508060088381548110611d8157611d816121a0565b6000918252602080832090910192909255828152600990915260408082208490558582528120556008805480611db957611db96122f1565b6001900381819060005260206000200160009055905550505050565b6000611de08361090e565b73ffffffffffffffffffffffffffffffffffffffff9093166000908152600660209081526040808320868452825280832085905593825260079052919091209190915550565b7fffffffff0000000000000000000000000000000000000000000000000000000081168114610c2457600080fd5b600060208284031215611e6657600080fd5b813561199381611e26565b60005b83811015611e8c578181015183820152602001611e74565b50506000910152565b60008151808452611ead816020860160208601611e71565b601f017fffffffffffffffffffffffffffffffffffffffffffffffffffffffffffffffe0169290920160200192915050565b6020815260006119936020830184611e95565b600060208284031215611f0457600080fd5b5035919050565b803573ffffffffffffffffffffffffffffffffffffffff81168114611f2f57600080fd5b919050565b60008060408385031215611f4757600080fd5b611f5083611f0b565b946020939093013593505050565b600080600060608486031215611f7357600080fd5b611f7c84611f0b565b9250611f8a60208501611f0b565b9150604084013590509250925092565b600060208284031215611fac57600080fd5b61199382611f0b565b60008060408385031215611fc857600080fd5b611fd183611f0b565b915060208301358015158114611fe657600080fd5b809150509250929050565b7f4e487b7100000000000000000000000000000000000000000000000000000000600052604160045260246000fd5b6000806000806080858703121561203657600080fd5b61203f85611f0b565b935061204d60208601611f0b565b925060408501359150606085013567ffffffffffffffff8082111561207157600080fd5b818701915087601f83011261208557600080fd5b81358181111561209757612097611ff1565b604051601f82017fffffffffffffffffffffffffffffffffffffffffffffffffffffffffffffffe0908116603f011681019083821181831017156120dd576120dd611ff1565b816040528281528a60208487010111156120f657600080fd5b82602086016020830137600060208483010152809550505050505092959194509250565b6000806040838503121561212d57600080fd5b61213683611f0b565b915061214460208401611f0b565b90509250929050565b600181811c9082168061216157607f821691505b60208210810361219a577f4e487b7100000000000000000000000000000000000000000000000000000000600052602260045260246000fd5b50919050565b7f4e487b7100000000000000000000000000000000000000000000000000000000600052603260045260246000fd5b600083516121e1818460208801611e71565b8351908301906121f5818360208801611e71565b01949350505050565b7f4e487b7100000000000000000000000000000000000000000000000000000000600052601160045260246000fd5b60007fffffffffffffffffffffffffffffffffffffffffffffffffffffffffffffffff820361225e5761225e6121fe565b5060010190565b808201808211156103dc576103dc6121fe565b600073ffffffffffffffffffffffffffffffffffffffff8087168352808616602084015250836040830152608060608301526122b76080830184611e95565b9695505050505050565b6000602082840312156122d357600080fd5b815161199381611e26565b818103818111156103dc576103dc6121fe565b7f4e487b7100000000000000000000000000000000000000000000000000000000600052603160045260246000fdfe68747470733a2f2f6f70656e7365612d6372656174757265732d6170692e6865726f6b756170702e636f6d2f6170692f63726561747572652fa26469706673582212209a6925d33d6a19e9a9bb40cfec26c7c79383c4b043c115674bf196f8bf9c5f8964736f6c63430008180033","linkReferences":{}},"methodIdentifiers":{"approve(address,uint256)":"095ea7b3","balanceOf(address)":"70a08231","baseTokenURI()":"d547cfb7","batchMintTo(address,uint256)":"e7e51070","getApproved(uint256)":"081812fc","isApprovedForAll(address,address)":"e985e9c5","mintTo(address)":"755edd17","name()":"06fdde03","owner()":"8da5cb5b","ownerOf(uint256)":"6352211e","renounceOwnership()":"715018a6","safeTransferFrom(address,address,uint256)":"42842e0e","safeTransferFrom(address,address,uint256,bytes)":"b88d4fde","setApprovalForAll(address,bool)":"a22cb465","supportsInterface(bytes4)":"01ffc9a7","symbol()":"95d89b41","tokenByIndex(uint256)":"4f6ccce7","tokenOfOwnerByIndex(address,uint256)":"2f745c59","tokenURI(uint256)":"c87b56dd","totalSupply()":"18160ddd","transferFrom(address,address,uint256)":"23b872dd","transferOwnership(address)":"f2fde38b"},"id":27}