{"abi":[{"type":"constructor","inputs":[{"name":"_name_","type":"string","internalType":"string"},{"name":"_symbol_","type":"string","internalType":"string"}],"stateMutability":"nonpayable"},{"type":"function","name":"allowance","inputs":[{"name":"owner","type":"address","internalType":"address"},{"name":"spender","type":"address","internalType":"address"}],"outputs":[{"name":"","type":"uint256","internalType":"uint256"}],"stateMutability":"view"},{"type":"function","name":"approve","inputs":[{"name":"spender","type":"address","internalType":"address"},{"name":"amount","type":"uint256","internalType":"uint256"}],"outputs":[{"name":"","type":"bool","internalType":"bool"}],"stateMutability":"nonpayable"},{"type":"function","name":"balanceOf","inputs":[{"name":"account","type":"address","internalType":"address"}],"outputs":[{"name":"","type":"uint256","internalType":"uint256"}],"stateMutability":"view"},{"type":"function","name":"decimals","inputs":[],"outputs":[{"name":"","type":"uint8","internalType":"uint8"}],"stateMutability":"pure"},{"type":"function","name":"decreaseAllowance","inputs":[{"name":"spender","type":"address","internalType":"address"},{"name":"subtractedValue","type":"uint256","internalType":"uint256"}],"outputs":[{"name":"","type":"bool","internalType":"bool"}],"stateMutability":"nonpayable"},{"type":"function","name":"faucet","inputs":[{"name":"_amount","type":"uint256","internalType":"uint256"}],"outputs":[],"stateMutability":"nonpayable"},{"type":"function","name":"faucetLimit","inputs":[],"outputs":[{"name":"","type":"uint256","internalType":"uint256"}],"stateMutability":"view"},{"type":"function","name":"increaseAllowance","inputs":[{"name":"spender","type":"address","internalType":"address"},{"name":"addedValue","type":"uint256","internalType":"uint256"}],"outputs":[{"name":"","type":"bool","internalType":"bool"}],"stateMutability":"nonpayable"},{"type":"function","name":"name","inputs":[],"outputs":[{"name":"","type":"string","internalType":"string"}],"stateMutability":"view"},{"type":"function","name":"owner","inputs":[],"outputs":[{"name":"","type":"address","internalType":"address"}],"stateMutability":"view"},{"type":"function","name":"renounceOwnership","inputs":[],"outputs":[],"stateMutability":"nonpayable"},{"type":"function","name":"symbol","inputs":[],"outputs":[{"name":"","type":"string","internalType":"string"}],"stateMutability":"view"},{"type":"function","name":"totalSupply","inputs":[],"outputs":[{"name":"","type":"uint256","internalType":"uint256"}],"stateMutability":"view"},{"type":"function","name":"transfer","inputs":[{"name":"to","type":"address","internalType":"address"},{"name":"amount","type":"uint256","internalType":"uint256"}],"outputs":[{"name":"","type":"bool","internalType":"bool"}],"stateMutability":"nonpayable"},{"type":"function","name":"transferFrom","inputs":[{"name":"from","type":"address","internalType":"address"},{"name":"to","type":"address","internalType":"address"},{"name":"amount","type":"uint256","internalType":"uint256"}],"outputs":[{"name":"","type":"bool","internalType":"bool"}],"stateMutability":"nonpayable"},{"type":"function","name":"transferOwnership","inputs":[{"name":"newOwner","type":"address","internalType":"address"}],"outputs":[],"stateMutability":"nonpayable"},{"type":"event","name":"Approval","inputs":[{"name":"owner","type":"address","indexed":true,"internalType":"address"},{"name":"spender","type":"address","indexed":true,"internalType":"address"},{"name":"value","type":"uint256","indexed":false,"internalType":"uint256"}],"anonymous":false},{"type":"event","name":"OwnershipTransferred","inputs":[{"name":"previousOwner","type":"address","indexed":true,"internalType":"address"},{"name":"newOwner","type":"address","indexed":true,"internalType":"address"}],"anonymous":false},{"type":"event","name":"Transfer","inputs":[{"name":"from","type":"address","indexed":true,"internalType":"address"},{"name":"to","type":"address","indexed":true,"internalType":"address"},{"name":"value","type":"uint256","indexed":false,"internalType":"uint256"}],"anonymous":false}],"bytecode":{"object":"0x60806040526509184e72a0006006553480156200001b57600080fd5b506040516200224a3803806200224a83398181016040528101906200004191906200047c565b81816200006362000057620000a560201b60201c565b620000ad60201b60201c565b81600490816200007491906200074c565b5080600590816200008691906200074c565b5050506200009d336006546200017160201b60201c565b50506200094e565b600033905090565b60008060009054906101000a900473ffffffffffffffffffffffffffffffffffffffff169050816000806101000a81548173ffffffffffffffffffffffffffffffffffffffff021916908373ffffffffffffffffffffffffffffffffffffffff1602179055508173ffffffffffffffffffffffffffffffffffffffff168173ffffffffffffffffffffffffffffffffffffffff167f8be0079c531659141344cd1fd0a4f28419497f9722a3daafe3b4186f6b6457e060405160405180910390a35050565b600073ffffffffffffffffffffffffffffffffffffffff168273ffffffffffffffffffffffffffffffffffffffff1603620001e3576040517f08c379a0000000000000000000000000000000000000000000000000000000008152600401620001da9062000894565b60405180910390fd5b620001f760008383620002df60201b60201c565b80600360008282546200020b9190620008e5565b9250508190555080600160008473ffffffffffffffffffffffffffffffffffffffff1673ffffffffffffffffffffffffffffffffffffffff168152602001908152602001600020600082825401925050819055508173ffffffffffffffffffffffffffffffffffffffff16600073ffffffffffffffffffffffffffffffffffffffff167fddf252ad1be2c89b69c2b068fc378daa952ba7f163c4a11628f55a4df523b3ef83604051620002bf919062000931565b60405180910390a3620002db60008383620002e460201b60201c565b5050565b505050565b505050565b6000604051905090565b600080fd5b600080fd5b600080fd5b600080fd5b6000601f19601f8301169050919050565b7f4e487b7100000000000000000000000000000000000000000000000000000000600052604160045260246000fd5b620003528262000307565b810181811067ffffffffffffffff8211171562000374576200037362000318565b5b80604052505050565b600062000389620002e9565b905062000397828262000347565b919050565b600067ffffffffffffffff821115620003ba57620003b962000318565b5b620003c58262000307565b9050602081019050919050565b60005b83811015620003f2578082015181840152602081019050620003d5565b60008484015250505050565b6000620004156200040f846200039c565b6200037d565b90508281526020810184848401111562000434576200043362000302565b5b62000441848285620003d2565b509392505050565b600082601f830112620004615762000460620002fd565b5b815162000473848260208601620003fe565b91505092915050565b60008060408385031215620004965762000495620002f3565b5b600083015167ffffffffffffffff811115620004b757620004b6620002f8565b5b620004c58582860162000449565b925050602083015167ffffffffffffffff811115620004e957620004e8620002f8565b5b620004f78582860162000449565b9150509250929050565b600081519050919050565b7f4e487b7100000000000000000000000000000000000000000000000000000000600052602260045260246000fd5b600060028204905060018216806200055457607f821691505b6020821081036200056a57620005696200050c565b5b50919050565b60008190508160005260206000209050919050565b60006020601f8301049050919050565b600082821b905092915050565b600060088302620005d47fffffffffffffffffffffffffffffffffffffffffffffffffffffffffffffffff8262000595565b620005e0868362000595565b95508019841693508086168417925050509392505050565b6000819050919050565b6000819050919050565b60006200062d620006276200062184620005f8565b62000602565b620005f8565b9050919050565b6000819050919050565b62000649836200060c565b62000661620006588262000634565b848454620005a2565b825550505050565b600090565b6200067862000669565b620006858184846200063e565b505050565b5b81811015620006ad57620006a16000826200066e565b6001810190506200068b565b5050565b601f821115620006fc57620006c68162000570565b620006d18462000585565b81016020851015620006e1578190505b620006f9620006f08562000585565b8301826200068a565b50505b505050565b600082821c905092915050565b6000620007216000198460080262000701565b1980831691505092915050565b60006200073c83836200070e565b9150826002028217905092915050565b620007578262000501565b67ffffffffffffffff81111562000773576200077262000318565b5b6200077f82546200053b565b6200078c828285620006b1565b600060209050601f831160018114620007c45760008415620007af578287015190505b620007bb85826200072e565b8655506200082b565b601f198416620007d48662000570565b60005b82811015620007fe57848901518255600182019150602085019450602081019050620007d7565b868310156200081e57848901516200081a601f8916826200070e565b8355505b6001600288020188555050505b505050505050565b600082825260208201905092915050565b7f45524332303a206d696e7420746f20746865207a65726f206164647265737300600082015250565b60006200087c601f8362000833565b9150620008898262000844565b602082019050919050565b60006020820190508181036000830152620008af816200086d565b9050919050565b7f4e487b7100000000000000000000000000000000000000000000000000000000600052601160045260246000fd5b6000620008f282620005f8565b9150620008ff83620005f8565b92508282019050808211156200091a5762000919620008b6565b5b92915050565b6200092b81620005f8565b82525050565b600060208201905062000948600083018462000920565b92915050565b6118ec806200095e6000396000f3fe608060405234801561001057600080fd5b50600436106101005760003560e01c806370a0823111610097578063a457c2d711610066578063a457c2d71461029f578063a9059cbb146102cf578063dd62ed3e146102ff578063f2fde38b1461032f57610100565b806370a0823114610229578063715018a6146102595780638da5cb5b1461026357806395d89b411461028157610100565b8063313ce567116100d3578063313ce567146101a157806339509351146101bf57806357915897146101ef5780636544e4391461020b57610100565b806306fdde0314610105578063095ea7b31461012357806318160ddd1461015357806323b872dd14610171575b600080fd5b61010d61034b565b60405161011a9190610f9c565b60405180910390f35b61013d60048036038101906101389190611057565b6103dd565b60405161014a91906110b2565b60405180910390f35b61015b610400565b60405161016891906110dc565b60405180910390f35b61018b600480360381019061018691906110f7565b61040a565b60405161019891906110b2565b60405180910390f35b6101a9610439565b6040516101b69190611166565b60405180910390f35b6101d960048036038101906101d49190611057565b610442565b6040516101e691906110b2565b60405180910390f35b61020960048036038101906102049190611181565b610479565b005b6102136104ce565b60405161022091906110dc565b60405180910390f35b610243600480360381019061023e91906111ae565b6104d7565b60405161025091906110dc565b60405180910390f35b610261610520565b005b61026b610534565b60405161027891906111ea565b60405180910390f35b61028961055d565b6040516102969190610f9c565b60405180910390f35b6102b960048036038101906102b49190611057565b6105ef565b6040516102c691906110b2565b60405180910390f35b6102e960048036038101906102e49190611057565b610666565b6040516102f691906110b2565b60405180910390f35b61031960048036038101906103149190611205565b610689565b60405161032691906110dc565b60405180910390f35b610349600480360381019061034491906111ae565b610710565b005b60606004805461035a90611274565b80601f016020809104026020016040519081016040528092919081815260200182805461038690611274565b80156103d35780601f106103a8576101008083540402835291602001916103d3565b820191906000526020600020905b8154815290600101906020018083116103b657829003601f168201915b5050505050905090565b6000806103e8610793565b90506103f581858561079b565b600191505092915050565b6000600354905090565b600080610415610793565b9050610422858285610964565b61042d8585856109f0565b60019150509392505050565b60006006905090565b60008061044d610793565b905061046e81858561045f8589610689565b61046991906112d4565b61079b565b600191505092915050565b64012a05f2008111156104c1576040517f08c379a00000000000000000000000000000000000000000000000000000000081526004016104b890611354565b60405180910390fd5b6104cb3382610c69565b50565b64012a05f20081565b6000600160008373ffffffffffffffffffffffffffffffffffffffff1673ffffffffffffffffffffffffffffffffffffffff168152602001908152602001600020549050919050565b610528610dc0565b6105326000610e3e565b565b60008060009054906101000a900473ffffffffffffffffffffffffffffffffffffffff16905090565b60606005805461056c90611274565b80601f016020809104026020016040519081016040528092919081815260200182805461059890611274565b80156105e55780601f106105ba576101008083540402835291602001916105e5565b820191906000526020600020905b8154815290600101906020018083116105c857829003601f168201915b5050505050905090565b6000806105fa610793565b905060006106088286610689565b90508381101561064d576040517f08c379a0000000000000000000000000000000000000000000000000000000008152600401610644906113e6565b60405180910390fd5b61065a828686840361079b565b60019250505092915050565b600080610671610793565b905061067e8185856109f0565b600191505092915050565b6000600260008473ffffffffffffffffffffffffffffffffffffffff1673ffffffffffffffffffffffffffffffffffffffff16815260200190815260200160002060008373ffffffffffffffffffffffffffffffffffffffff1673ffffffffffffffffffffffffffffffffffffffff16815260200190815260200160002054905092915050565b610718610dc0565b600073ffffffffffffffffffffffffffffffffffffffff168173ffffffffffffffffffffffffffffffffffffffff1603610787576040517f08c379a000000000000000000000000000000000000000000000000000000000815260040161077e90611478565b60405180910390fd5b61079081610e3e565b50565b600033905090565b600073ffffffffffffffffffffffffffffffffffffffff168373ffffffffffffffffffffffffffffffffffffffff160361080a576040517f08c379a00000000000000000000000000000000000000000000000000000000081526004016108019061150a565b60405180910390fd5b600073ffffffffffffffffffffffffffffffffffffffff168273ffffffffffffffffffffffffffffffffffffffff1603610879576040517f08c379a00000000000000000000000000000000000000000000000000000000081526004016108709061159c565b60405180910390fd5b80600260008573ffffffffffffffffffffffffffffffffffffffff1673ffffffffffffffffffffffffffffffffffffffff16815260200190815260200160002060008473ffffffffffffffffffffffffffffffffffffffff1673ffffffffffffffffffffffffffffffffffffffff168152602001908152602001600020819055508173ffffffffffffffffffffffffffffffffffffffff168373ffffffffffffffffffffffffffffffffffffffff167f8c5be1e5ebec7d5bd14f71427d1e84f3dd0314c0f7b2291e5b200ac8c7c3b9258360405161095791906110dc565b60405180910390a3505050565b60006109708484610689565b90507fffffffffffffffffffffffffffffffffffffffffffffffffffffffffffffffff81146109ea57818110156109dc576040517f08c379a00000000000000000000000000000000000000000000000000000000081526004016109d390611608565b60405180910390fd5b6109e9848484840361079b565b5b50505050565b600073ffffffffffffffffffffffffffffffffffffffff168373ffffffffffffffffffffffffffffffffffffffff1603610a5f576040517f08c379a0000000000000000000000000000000000000000000000000000000008152600401610a569061169a565b60405180910390fd5b600073ffffffffffffffffffffffffffffffffffffffff168273ffffffffffffffffffffffffffffffffffffffff1603610ace576040517f08c379a0000000000000000000000000000000000000000000000000000000008152600401610ac59061172c565b60405180910390fd5b610ad9838383610f02565b6000600160008573ffffffffffffffffffffffffffffffffffffffff1673ffffffffffffffffffffffffffffffffffffffff16815260200190815260200160002054905081811015610b60576040517f08c379a0000000000000000000000000000000000000000000000000000000008152600401610b57906117be565b60405180910390fd5b818103600160008673ffffffffffffffffffffffffffffffffffffffff1673ffffffffffffffffffffffffffffffffffffffff1681526020019081526020016000208190555081600160008573ffffffffffffffffffffffffffffffffffffffff1673ffffffffffffffffffffffffffffffffffffffff168152602001908152602001600020600082825401925050819055508273ffffffffffffffffffffffffffffffffffffffff168473ffffffffffffffffffffffffffffffffffffffff167fddf252ad1be2c89b69c2b068fc378daa952ba7f163c4a11628f55a4df523b3ef84604051610c5091906110dc565b60405180910390a3610c63848484610f07565b50505050565b600073ffffffffffffffffffffffffffffffffffffffff168273ffffffffffffffffffffffffffffffffffffffff1603610cd8576040517f08c379a0000000000000000000000000000000000000000000000000000000008152600401610ccf9061182a565b60405180910390fd5b610ce460008383610f02565b8060036000828254610cf691906112d4565b9250508190555080600160008473ffffffffffffffffffffffffffffffffffffffff1673ffffffffffffffffffffffffffffffffffffffff168152602001908152602001600020600082825401925050819055508173ffffffffffffffffffffffffffffffffffffffff16600073ffffffffffffffffffffffffffffffffffffffff167fddf252ad1be2c89b69c2b068fc378daa952ba7f163c4a11628f55a4df523b3ef83604051610da891906110dc565b60405180910390a3610dbc60008383610f07565b5050565b610dc8610793565b73ffffffffffffffffffffffffffffffffffffffff16610de6610534565b73ffffffffffffffffffffffffffffffffffffffff1614610e3c576040517f08c379a0000000000000000000000000000000000000000000000000000000008152600401610e3390611896565b60405180910390fd5b565b60008060009054906101000a900473ffffffffffffffffffffffffffffffffffffffff169050816000806101000a81548173ffffffffffffffffffffffffffffffffffffffff021916908373ffffffffffffffffffffffffffffffffffffffff1602179055508173ffffffffffffffffffffffffffffffffffffffff168173ffffffffffffffffffffffffffffffffffffffff167f8be0079c531659141344cd1fd0a4f28419497f9722a3daafe3b4186f6b6457e060405160405180910390a35050565b505050565b505050565b600081519050919050565b600082825260208201905092915050565b60005b83811015610f46578082015181840152602081019050610f2b565b60008484015250505050565b6000601f19601f8301169050919050565b6000610f6e82610f0c565b610f788185610f17565b9350610f88818560208601610f28565b610f9181610f52565b840191505092915050565b60006020820190508181036000830152610fb68184610f63565b905092915050565b600080fd5b600073ffffffffffffffffffffffffffffffffffffffff82169050919050565b6000610fee82610fc3565b9050919050565b610ffe81610fe3565b811461100957600080fd5b50565b60008135905061101b81610ff5565b92915050565b6000819050919050565b61103481611021565b811461103f57600080fd5b50565b6000813590506110518161102b565b92915050565b6000806040838503121561106e5761106d610fbe565b5b600061107c8582860161100c565b925050602061108d85828601611042565b9150509250929050565b60008115159050919050565b6110ac81611097565b82525050565b60006020820190506110c760008301846110a3565b92915050565b6110d681611021565b82525050565b60006020820190506110f160008301846110cd565b92915050565b6000806000606084860312156111105761110f610fbe565b5b600061111e8682870161100c565b935050602061112f8682870161100c565b925050604061114086828701611042565b9150509250925092565b600060ff82169050919050565b6111608161114a565b82525050565b600060208201905061117b6000830184611157565b92915050565b60006020828403121561119757611196610fbe565b5b60006111a584828501611042565b91505092915050565b6000602082840312156111c4576111c3610fbe565b5b60006111d28482850161100c565b91505092915050565b6111e481610fe3565b82525050565b60006020820190506111ff60008301846111db565b92915050565b6000806040838503121561121c5761121b610fbe565b5b600061122a8582860161100c565b925050602061123b8582860161100c565b9150509250929050565b7f4e487b7100000000000000000000000000000000000000000000000000000000600052602260045260246000fd5b6000600282049050600182168061128c57607f821691505b60208210810361129f5761129e611245565b5b50919050565b7f4e487b7100000000000000000000000000000000000000000000000000000000600052601160045260246000fd5b60006112df82611021565b91506112ea83611021565b9250828201905080821115611302576113016112a5565b5b92915050565b7f466175636574206c696d6974206572726f720000000000000000000000000000600082015250565b600061133e601283610f17565b915061134982611308565b602082019050919050565b6000602082019050818103600083015261136d81611331565b9050919050565b7f45524332303a2064656372656173656420616c6c6f77616e63652062656c6f7760008201527f207a65726f000000000000000000000000000000000000000000000000000000602082015250565b60006113d0602583610f17565b91506113db82611374565b604082019050919050565b600060208201905081810360008301526113ff816113c3565b9050919050565b7f4f776e61626c653a206e6577206f776e657220697320746865207a65726f206160008201527f6464726573730000000000000000000000000000000000000000000000000000602082015250565b6000611462602683610f17565b915061146d82611406565b604082019050919050565b6000602082019050818103600083015261149181611455565b9050919050565b7f45524332303a20617070726f76652066726f6d20746865207a65726f2061646460008201527f7265737300000000000000000000000000000000000000000000000000000000602082015250565b60006114f4602483610f17565b91506114ff82611498565b604082019050919050565b60006020820190508181036000830152611523816114e7565b9050919050565b7f45524332303a20617070726f766520746f20746865207a65726f20616464726560008201527f7373000000000000000000000000000000000000000000000000000000000000602082015250565b6000611586602283610f17565b91506115918261152a565b604082019050919050565b600060208201905081810360008301526115b581611579565b9050919050565b7f45524332303a20696e73756666696369656e7420616c6c6f77616e6365000000600082015250565b60006115f2601d83610f17565b91506115fd826115bc565b602082019050919050565b60006020820190508181036000830152611621816115e5565b9050919050565b7f45524332303a207472616e736665722066726f6d20746865207a65726f20616460008201527f6472657373000000000000000000000000000000000000000000000000000000602082015250565b6000611684602583610f17565b915061168f82611628565b604082019050919050565b600060208201905081810360008301526116b381611677565b9050919050565b7f45524332303a207472616e7366657220746f20746865207a65726f206164647260008201527f6573730000000000000000000000000000000000000000000000000000000000602082015250565b6000611716602383610f17565b9150611721826116ba565b604082019050919050565b6000602082019050818103600083015261174581611709565b9050919050565b7f45524332303a207472616e7366657220616d6f756e742065786365656473206260008201527f616c616e63650000000000000000000000000000000000000000000000000000602082015250565b60006117a8602683610f17565b91506117b38261174c565b604082019050919050565b600060208201905081810360008301526117d78161179b565b9050919050565b7f45524332303a206d696e7420746f20746865207a65726f206164647265737300600082015250565b6000611814601f83610f17565b915061181f826117de565b602082019050919050565b6000602082019050818103600083015261184381611807565b9050919050565b7f4f776e61626c653a2063616c6c6572206973206e6f7420746865206f776e6572600082015250565b6000611880602083610f17565b915061188b8261184a565b602082019050919050565b600060208201905081810360008301526118af81611873565b905091905056fea264697066735822122070d65fc38bffa21ee5cc6e5ebd500d3e5029404fb4e4aeab7b7ed1c5c5ee6d7864736f6c63430008180033","linkReferences":{}},"methodIdentifiers":{"allowance(address,address)":"dd62ed3e","approve(address,uint256)":"095ea7b3","balanceOf(address)":"70a08231","decimals()":"313ce567","decreaseAllowance(address,uint256)":"a457c2d7","faucet(uint256)":"57915897","faucetLimit()":"6544e439","increaseAllowance(address,uint256)":"39509351","name()":"06fdde03","owner()":"8da5cb5b","renounceOwnership()":"715018a6","symbol()":"95d89b41","totalSupply()":"18160ddd","transfer(address,uint256)":"a9059cbb","transferFrom(address,address,uint256)":"23b872dd","transferOwnership(address)":"f2fde38b"},"id":29}