{"abi":[{"type":"constructor","inputs":[],"stateMutability":"nonpayable"},{"type":"function","name":"balanceOf","inputs":[{"name":"account","type":"address","internalType":"address"},{"name":"id","type":"uint256","internalType":"uint256"}],"outputs":[{"name":"","type":"uint256","internalType":"uint256"}],"stateMutability":"view"},{"type":"function","name":"balanceOfBatch","inputs":[{"name":"accounts","type":"address[]","internalType":"address[]"},{"name":"ids","type":"uint256[]","internalType":"uint256[]"}],"outputs":[{"name":"","type":"uint256[]","internalType":"uint256[]"}],"stateMutability":"view"},{"type":"function","name":"isApprovedForAll","inputs":[{"name":"account","type":"address","internalType":"address"},{"name":"operator","type":"address","internalType":"address"}],"outputs":[{"name":"","type":"bool","internalType":"bool"}],"stateMutability":"view"},{"type":"function","name":"safeBatchTransferFrom","inputs":[{"name":"from","type":"address","internalType":"address"},{"name":"to","type":"address","internalType":"address"},{"name":"ids","type":"uint256[]","internalType":"uint256[]"},{"name":"amounts","type":"uint256[]","internalType":"uint256[]"},{"name":"data","type":"bytes","internalType":"bytes"}],"outputs":[],"stateMutability":"nonpayable"},{"type":"function","name":"safeTransferFrom","inputs":[{"name":"from","type":"address","internalType":"address"},{"name":"to","type":"address","internalType":"address"},{"name":"id","type":"uint256","internalType":"uint256"},{"name":"amount","type":"uint256","internalType":"uint256"},{"name":"data","type":"bytes","internalType":"bytes"}],"outputs":[],"stateMutability":"nonpayable"},{"type":"function","name":"setApprovalForAll","inputs":[{"name":"operator","type":"address","internalType":"address"},{"name":"approved","type":"bool","internalType":"bool"}],"outputs":[],"stateMutability":"nonpayable"},{"type":"function","name":"supportsInterface","inputs":[{"name":"interfaceId","type":"bytes4","internalType":"bytes4"}],"outputs":[{"name":"","type":"bool","internalType":"bool"}],"stateMutability":"view"},{"type":"function","name":"uri","inputs":[{"name":"","type":"uint256","internalType":"uint256"}],"outputs":[{"name":"","type":"string","internalType":"string"}],"stateMutability":"view"},{"type":"event","name":"ApprovalForAll","inputs":[{"name":"account","type":"address","indexed":true,"internalType":"address"},{"name":"operator","type":"address","indexed":true,"internalType":"address"},{"name":"approved","type":"bool","indexed":false,"internalType":"bool"}],"anonymous":false},{"type":"event","name":"TransferBatch","inputs":[{"name":"operator","type":"address","indexed":true,"internalType":"address"},{"name":"from","type":"address","indexed":true,"internalType":"address"},{"name":"to","type":"address","indexed":true,"internalType":"address"},{"name":"ids","type":"uint256[]","indexed":false,"internalType":"uint256[]"},{"name":"values","type":"uint256[]","indexed":false,"internalType":"uint256[]"}],"anonymous":false},{"type":"event","name":"TransferSingle","inputs":[{"name":"operator","type":"address","indexed":true,"internalType":"address"},{"name":"from","type":"address","indexed":true,"internalType":"address"},{"name":"to","type":"address","indexed":true,"internalType":"address"},{"name":"id","type":"uint256","indexed":false,"internalType":"uint256"},{"name":"value","type":"uint256","indexed":false,"internalType":"uint256"}],"anonymous":false},{"type":"event","name":"URI","inputs":[{"name":"value","type":"string","indexed":false,"internalType":"string"},{"name":"id","type":"uint256","indexed":true,"internalType":"uint256"}],"anonymous":false}],"bytecode":{"object":"0x60806040526040518060800160405280604281526020016200349760429139600390816200002e919062000904565b503480156200003c57600080fd5b50600380546200004c90620006f3565b80601f01602080910402602001604051908101604052809291908181526020018280546200007a90620006f3565b8015620000cb5780601f106200009f57610100808354040283529160200191620000cb565b820191906000526020600020905b815481529060010190602001808311620000ad57829003601f168201915b5050505050620000e181620001de60201b60201c565b5062000134336001670de0b6b3a76400006040518060400160405280600581526020017f4b69747479000000000000000000000000000000000000000000000000000000815250620001f360201b60201c565b62000186336002670de0b6b3a76400006040518060400160405280600381526020017f446f670000000000000000000000000000000000000000000000000000000000815250620001f360201b60201c565b620001d8336003670de0b6b3a76400006040518060400160405280600781526020017f446f6c7068696e00000000000000000000000000000000000000000000000000815250620001f360201b60201c565b62000fe4565b8060029081620001ef919062000904565b5050565b600073ffffffffffffffffffffffffffffffffffffffff168473ffffffffffffffffffffffffffffffffffffffff160362000265576040517f08c379a00000000000000000000000000000000000000000000000000000000081526004016200025c9062000a72565b60405180910390fd5b600062000277620003da60201b60201c565b905060006200028c85620003e260201b60201c565b90506000620002a185620003e260201b60201c565b9050620002ba836000898585896200046360201b60201c565b8460008088815260200190815260200160002060008973ffffffffffffffffffffffffffffffffffffffff1673ffffffffffffffffffffffffffffffffffffffff16815260200190815260200160002060008282546200031b919062000ac3565b925050819055508673ffffffffffffffffffffffffffffffffffffffff16600073ffffffffffffffffffffffffffffffffffffffff168473ffffffffffffffffffffffffffffffffffffffff167fc3d58168c5ae7397731d063d5bbf3d657854427343f4c083240f7aacaa2d0f6289896040516200039b92919062000b0f565b60405180910390a4620003ba836000898585896200046b60201b60201c565b620003d1836000898989896200047360201b60201c565b50505050505050565b600033905090565b60606000600167ffffffffffffffff81111562000404576200040362000695565b5b604051908082528060200260200182016040528015620004335781602001602082028036833780820191505090505b50905082816000815181106200044e576200044d62000b3c565b5b60200260200101818152505080915050919050565b505050505050565b505050505050565b6200049a8473ffffffffffffffffffffffffffffffffffffffff166200066760201b60201c565b156200065f578373ffffffffffffffffffffffffffffffffffffffff1663f23a6e6187878686866040518663ffffffff1660e01b8152600401620004e395949392919062000c4a565b6020604051808303816000875af19250505080156200052257506040513d601f19601f820116820180604052508101906200051f919062000d1a565b60015b620005d3576200053162000d59565b806308c379a0036200059457506200054862000db4565b8062000555575062000596565b806040517f08c379a00000000000000000000000000000000000000000000000000000000081526004016200058b919062000e90565b60405180910390fd5b505b6040517f08c379a0000000000000000000000000000000000000000000000000000000008152600401620005ca9062000f2a565b60405180910390fd5b63f23a6e6160e01b7bffffffffffffffffffffffffffffffffffffffffffffffffffffffff1916817bffffffffffffffffffffffffffffffffffffffffffffffffffffffff1916146200065d576040517f08c379a0000000000000000000000000000000000000000000000000000000008152600401620006549062000fc2565b60405180910390fd5b505b505050505050565b6000808273ffffffffffffffffffffffffffffffffffffffff163b119050919050565b600081519050919050565b7f4e487b7100000000000000000000000000000000000000000000000000000000600052604160045260246000fd5b7f4e487b7100000000000000000000000000000000000000000000000000000000600052602260045260246000fd5b600060028204905060018216806200070c57607f821691505b602082108103620007225762000721620006c4565b5b50919050565b60008190508160005260206000209050919050565b60006020601f8301049050919050565b600082821b905092915050565b6000600883026200078c7fffffffffffffffffffffffffffffffffffffffffffffffffffffffffffffffff826200074d565b6200079886836200074d565b95508019841693508086168417925050509392505050565b6000819050919050565b6000819050919050565b6000620007e5620007df620007d984620007b0565b620007ba565b620007b0565b9050919050565b6000819050919050565b6200080183620007c4565b620008196200081082620007ec565b8484546200075a565b825550505050565b600090565b6200083062000821565b6200083d818484620007f6565b505050565b5b8181101562000865576200085960008262000826565b60018101905062000843565b5050565b601f821115620008b4576200087e8162000728565b62000889846200073d565b8101602085101562000899578190505b620008b1620008a8856200073d565b83018262000842565b50505b505050565b600082821c905092915050565b6000620008d960001984600802620008b9565b1980831691505092915050565b6000620008f48383620008c6565b9150826002028217905092915050565b6200090f826200068a565b67ffffffffffffffff8111156200092b576200092a62000695565b5b620009378254620006f3565b6200094482828562000869565b600060209050601f8311600181146200097c576000841562000967578287015190505b620009738582620008e6565b865550620009e3565b601f1984166200098c8662000728565b60005b82811015620009b6578489015182556001820191506020850194506020810190506200098f565b86831015620009d65784890151620009d2601f891682620008c6565b8355505b6001600288020188555050505b505050505050565b600082825260208201905092915050565b7f455243313135353a206d696e7420746f20746865207a65726f2061646472657360008201527f7300000000000000000000000000000000000000000000000000000000000000602082015250565b600062000a5a602183620009eb565b915062000a6782620009fc565b604082019050919050565b6000602082019050818103600083015262000a8d8162000a4b565b9050919050565b7f4e487b7100000000000000000000000000000000000000000000000000000000600052601160045260246000fd5b600062000ad082620007b0565b915062000add83620007b0565b925082820190508082111562000af85762000af762000a94565b5b92915050565b62000b0981620007b0565b82525050565b600060408201905062000b26600083018562000afe565b62000b35602083018462000afe565b9392505050565b7f4e487b7100000000000000000000000000000000000000000000000000000000600052603260045260246000fd5b600073ffffffffffffffffffffffffffffffffffffffff82169050919050565b600062000b988262000b6b565b9050919050565b62000baa8162000b8b565b82525050565b600081519050919050565b600082825260208201905092915050565b60005b8381101562000bec57808201518184015260208101905062000bcf565b60008484015250505050565b6000601f19601f8301169050919050565b600062000c168262000bb0565b62000c22818562000bbb565b935062000c3481856020860162000bcc565b62000c3f8162000bf8565b840191505092915050565b600060a08201905062000c61600083018862000b9f565b62000c70602083018762000b9f565b62000c7f604083018662000afe565b62000c8e606083018562000afe565b818103608083015262000ca2818462000c09565b90509695505050505050565b6000604051905090565b600080fd5b60007fffffffff0000000000000000000000000000000000000000000000000000000082169050919050565b62000cf48162000cbd565b811462000d0057600080fd5b50565b60008151905062000d148162000ce9565b92915050565b60006020828403121562000d335762000d3262000cb8565b5b600062000d438482850162000d03565b91505092915050565b60008160e01c9050919050565b600060033d111562000d7b5760046000803e62000d7860005162000d4c565b90505b90565b62000d898262000bf8565b810181811067ffffffffffffffff8211171562000dab5762000daa62000695565b5b80604052505050565b600060443d1062000e4c5762000dc962000cae565b60043d036004823e80513d602482011167ffffffffffffffff8211171562000df357505062000e4c565b808201805167ffffffffffffffff81111562000e13575050505062000e4c565b80602083010160043d03850181111562000e3257505050505062000e4c565b62000e438260200185018662000d7e565b82955050505050505b90565b600062000e5c826200068a565b62000e688185620009eb565b935062000e7a81856020860162000bcc565b62000e858162000bf8565b840191505092915050565b6000602082019050818103600083015262000eac818462000e4f565b905092915050565b7f455243313135353a207472616e7366657220746f206e6f6e2d4552433131353560008201527f526563656976657220696d706c656d656e746572000000000000000000000000602082015250565b600062000f12603483620009eb565b915062000f1f8262000eb4565b604082019050919050565b6000602082019050818103600083015262000f458162000f03565b9050919050565b7f455243313135353a204552433131353552656365697665722072656a6563746560008201527f6420746f6b656e73000000000000000000000000000000000000000000000000602082015250565b600062000faa602883620009eb565b915062000fb78262000f4c565b604082019050919050565b6000602082019050818103600083015262000fdd8162000f9b565b9050919050565b6124a38062000ff46000396000f3fe608060405234801561001057600080fd5b50600436106100875760003560e01c80634e1273f41161005b5780634e1273f414610138578063a22cb46514610168578063e985e9c514610184578063f242432a146101b457610087565b8062fdd58e1461008c57806301ffc9a7146100bc5780630e89341c146100ec5780632eb2c2d61461011c575b600080fd5b6100a660048036038101906100a191906113a4565b6101d0565b6040516100b391906113f3565b60405180910390f35b6100d660048036038101906100d19190611466565b610298565b6040516100e391906114ae565b60405180910390f35b610106600480360381019061010191906114c9565b61037a565b6040516101139190611586565b60405180910390f35b610136600480360381019061013191906117a5565b61040e565b005b610152600480360381019061014d9190611937565b6104af565b60405161015f9190611a6d565b60405180910390f35b610182600480360381019061017d9190611abb565b6105c2565b005b61019e60048036038101906101999190611afb565b6105d8565b6040516101ab91906114ae565b60405180910390f35b6101ce60048036038101906101c99190611b3b565b61066c565b005b60008073ffffffffffffffffffffffffffffffffffffffff168373ffffffffffffffffffffffffffffffffffffffff1603610240576040517f08c379a000000000000000000000000000000000000000000000000000000000815260040161023790611c44565b60405180910390fd5b60008083815260200190815260200160002060008473ffffffffffffffffffffffffffffffffffffffff1673ffffffffffffffffffffffffffffffffffffffff16815260200190815260200160002054905092915050565b60007fd9b67a26000000000000000000000000000000000000000000000000000000007bffffffffffffffffffffffffffffffffffffffffffffffffffffffff1916827bffffffffffffffffffffffffffffffffffffffffffffffffffffffff1916148061036357507f0e89341c000000000000000000000000000000000000000000000000000000007bffffffffffffffffffffffffffffffffffffffffffffffffffffffff1916827bffffffffffffffffffffffffffffffffffffffffffffffffffffffff1916145b8061037357506103728261070d565b5b9050919050565b60606002805461038990611c93565b80601f01602080910402602001604051908101604052809291908181526020018280546103b590611c93565b80156104025780601f106103d757610100808354040283529160200191610402565b820191906000526020600020905b8154815290600101906020018083116103e557829003601f168201915b50505050509050919050565b610416610777565b73ffffffffffffffffffffffffffffffffffffffff168573ffffffffffffffffffffffffffffffffffffffff16148061045c575061045b85610456610777565b6105d8565b5b61049b576040517f08c379a000000000000000000000000000000000000000000000000000000000815260040161049290611d36565b60405180910390fd5b6104a8858585858561077f565b5050505050565b606081518351146104f5576040517f08c379a00000000000000000000000000000000000000000000000000000000081526004016104ec90611dc8565b60405180910390fd5b6000835167ffffffffffffffff811115610512576105116115ad565b5b6040519080825280602002602001820160405280156105405781602001602082028036833780820191505090505b50905060005b84518110156105b75761058d85828151811061056557610564611de8565b5b60200260200101518583815181106105805761057f611de8565b5b60200260200101516101d0565b8282815181106105a05761059f611de8565b5b602002602001018181525050806001019050610546565b508091505092915050565b6105d46105cd610777565b8383610a9a565b5050565b6000600160008473ffffffffffffffffffffffffffffffffffffffff1673ffffffffffffffffffffffffffffffffffffffff16815260200190815260200160002060008373ffffffffffffffffffffffffffffffffffffffff1673ffffffffffffffffffffffffffffffffffffffff16815260200190815260200160002060009054906101000a900460ff16905092915050565b610674610777565b73ffffffffffffffffffffffffffffffffffffffff168573ffffffffffffffffffffffffffffffffffffffff1614806106ba57506106b9856106b4610777565b6105d8565b5b6106f9576040517f08c379a00000000000000000000000000000000000000000000000000000000081526004016106f090611d36565b60405180910390fd5b6107068585858585610c06565b5050505050565b60007f01ffc9a7000000000000000000000000000000000000000000000000000000007bffffffffffffffffffffffffffffffffffffffffffffffffffffffff1916827bffffffffffffffffffffffffffffffffffffffffffffffffffffffff1916149050919050565b600033905090565b81518351146107c3576040517f08c379a00000000000000000000000000000000000000000000000000000000081526004016107ba90611e89565b60405180910390fd5b600073ffffffffffffffffffffffffffffffffffffffff168473ffffffffffffffffffffffffffffffffffffffff1603610832576040517f08c379a000000000000000000000000000000000000000000000000000000000815260040161082990611f1b565b60405180910390fd5b600061083c610777565b905061084c818787878787610ea1565b60005b84518110156109f757600085828151811061086d5761086c611de8565b5b60200260200101519050600085838151811061088c5761088b611de8565b5b60200260200101519050600080600084815260200190815260200160002060008b73ffffffffffffffffffffffffffffffffffffffff1673ffffffffffffffffffffffffffffffffffffffff1681526020019081526020016000205490508181101561092d576040517f08c379a000000000000000000000000000000000000000000000000000000000815260040161092490611fad565b60405180910390fd5b81810360008085815260200190815260200160002060008c73ffffffffffffffffffffffffffffffffffffffff1673ffffffffffffffffffffffffffffffffffffffff168152602001908152602001600020819055508160008085815260200190815260200160002060008b73ffffffffffffffffffffffffffffffffffffffff1673ffffffffffffffffffffffffffffffffffffffff16815260200190815260200160002060008282546109e29190611ffc565b9250508190555050505080600101905061084f565b508473ffffffffffffffffffffffffffffffffffffffff168673ffffffffffffffffffffffffffffffffffffffff168273ffffffffffffffffffffffffffffffffffffffff167f4a39dc06d4c0dbc64b70af90fd698a233a518aa5d07e595d983b8c0526c8f7fb8787604051610a6e929190612030565b60405180910390a4610a84818787878787610ea9565b610a92818787878787610eb1565b505050505050565b8173ffffffffffffffffffffffffffffffffffffffff168373ffffffffffffffffffffffffffffffffffffffff1603610b08576040517f08c379a0000000000000000000000000000000000000000000000000000000008152600401610aff906120d9565b60405180910390fd5b80600160008573ffffffffffffffffffffffffffffffffffffffff1673ffffffffffffffffffffffffffffffffffffffff16815260200190815260200160002060008473ffffffffffffffffffffffffffffffffffffffff1673ffffffffffffffffffffffffffffffffffffffff16815260200190815260200160002060006101000a81548160ff0219169083151502179055508173ffffffffffffffffffffffffffffffffffffffff168373ffffffffffffffffffffffffffffffffffffffff167f17307eab39ab6107e8899845ad3d59bd9653f200f220920489ca2b5937696c3183604051610bf991906114ae565b60405180910390a3505050565b600073ffffffffffffffffffffffffffffffffffffffff168473ffffffffffffffffffffffffffffffffffffffff1603610c75576040517f08c379a0000000000000000000000000000000000000000000000000000000008152600401610c6c90611f1b565b60405180910390fd5b6000610c7f610777565b90506000610c8c85611088565b90506000610c9985611088565b9050610ca9838989858589610ea1565b600080600088815260200190815260200160002060008a73ffffffffffffffffffffffffffffffffffffffff1673ffffffffffffffffffffffffffffffffffffffff16815260200190815260200160002054905085811015610d40576040517f08c379a0000000000000000000000000000000000000000000000000000000008152600401610d3790611fad565b60405180910390fd5b85810360008089815260200190815260200160002060008b73ffffffffffffffffffffffffffffffffffffffff1673ffffffffffffffffffffffffffffffffffffffff168152602001908152602001600020819055508560008089815260200190815260200160002060008a73ffffffffffffffffffffffffffffffffffffffff1673ffffffffffffffffffffffffffffffffffffffff1681526020019081526020016000206000828254610df59190611ffc565b925050819055508773ffffffffffffffffffffffffffffffffffffffff168973ffffffffffffffffffffffffffffffffffffffff168573ffffffffffffffffffffffffffffffffffffffff167fc3d58168c5ae7397731d063d5bbf3d657854427343f4c083240f7aacaa2d0f628a8a604051610e729291906120f9565b60405180910390a4610e88848a8a86868a610ea9565b610e96848a8a8a8a8a611102565b505050505050505050565b505050505050565b505050505050565b610ed08473ffffffffffffffffffffffffffffffffffffffff166112d9565b15611080578373ffffffffffffffffffffffffffffffffffffffff1663bc197c8187878686866040518663ffffffff1660e01b8152600401610f16959493929190612186565b6020604051808303816000875af1925050508015610f5257506040513d601f19601f82011682018060405250810190610f4f9190612203565b60015b610ff757610f5e61223d565b806308c379a003610fba5750610f7261225f565b80610f7d5750610fbc565b806040517f08c379a0000000000000000000000000000000000000000000000000000000008152600401610fb19190611586565b60405180910390fd5b505b6040517f08c379a0000000000000000000000000000000000000000000000000000000008152600401610fee90612361565b60405180910390fd5b63bc197c8160e01b7bffffffffffffffffffffffffffffffffffffffffffffffffffffffff1916817bffffffffffffffffffffffffffffffffffffffffffffffffffffffff19161461107e576040517f08c379a0000000000000000000000000000000000000000000000000000000008152600401611075906123f3565b60405180910390fd5b505b505050505050565b60606000600167ffffffffffffffff8111156110a7576110a66115ad565b5b6040519080825280602002602001820160405280156110d55781602001602082028036833780820191505090505b50905082816000815181106110ed576110ec611de8565b5b60200260200101818152505080915050919050565b6111218473ffffffffffffffffffffffffffffffffffffffff166112d9565b156112d1578373ffffffffffffffffffffffffffffffffffffffff1663f23a6e6187878686866040518663ffffffff1660e01b8152600401611167959493929190612413565b6020604051808303816000875af19250505080156111a357506040513d601f19601f820116820180604052508101906111a09190612203565b60015b611248576111af61223d565b806308c379a00361120b57506111c361225f565b806111ce575061120d565b806040517f08c379a00000000000000000000000000000000000000000000000000000000081526004016112029190611586565b60405180910390fd5b505b6040517f08c379a000000000000000000000000000000000000000000000000000000000815260040161123f90612361565b60405180910390fd5b63f23a6e6160e01b7bffffffffffffffffffffffffffffffffffffffffffffffffffffffff1916817bffffffffffffffffffffffffffffffffffffffffffffffffffffffff1916146112cf576040517f08c379a00000000000000000000000000000000000000000000000000000000081526004016112c6906123f3565b60405180910390fd5b505b505050505050565b6000808273ffffffffffffffffffffffffffffffffffffffff163b119050919050565b6000604051905090565b600080fd5b600080fd5b600073ffffffffffffffffffffffffffffffffffffffff82169050919050565b600061133b82611310565b9050919050565b61134b81611330565b811461135657600080fd5b50565b60008135905061136881611342565b92915050565b6000819050919050565b6113818161136e565b811461138c57600080fd5b50565b60008135905061139e81611378565b92915050565b600080604083850312156113bb576113ba611306565b5b60006113c985828601611359565b92505060206113da8582860161138f565b9150509250929050565b6113ed8161136e565b82525050565b600060208201905061140860008301846113e4565b92915050565b60007fffffffff0000000000000000000000000000000000000000000000000000000082169050919050565b6114438161140e565b811461144e57600080fd5b50565b6000813590506114608161143a565b92915050565b60006020828403121561147c5761147b611306565b5b600061148a84828501611451565b91505092915050565b60008115159050919050565b6114a881611493565b82525050565b60006020820190506114c3600083018461149f565b92915050565b6000602082840312156114df576114de611306565b5b60006114ed8482850161138f565b91505092915050565b600081519050919050565b600082825260208201905092915050565b60005b83811015611530578082015181840152602081019050611515565b60008484015250505050565b6000601f19601f8301169050919050565b6000611558826114f6565b6115628185611501565b9350611572818560208601611512565b61157b8161153c565b840191505092915050565b600060208201905081810360008301526115a0818461154d565b905092915050565b600080fd5b7f4e487b7100000000000000000000000000000000000000000000000000000000600052604160045260246000fd5b6115e58261153c565b810181811067ffffffffffffffff82111715611604576116036115ad565b5b80604052505050565b60006116176112fc565b905061162382826115dc565b919050565b600067ffffffffffffffff821115611643576116426115ad565b5b602082029050602081019050919050565b600080fd5b600061166c61166784611628565b61160d565b9050808382526020820190506020840283018581111561168f5761168e611654565b5b835b818110156116b857806116a4888261138f565b845260208401935050602081019050611691565b5050509392505050565b600082601f8301126116d7576116d66115a8565b5b81356116e7848260208601611659565b91505092915050565b600080fd5b600067ffffffffffffffff8211156117105761170f6115ad565b5b6117198261153c565b9050602081019050919050565b82818337600083830152505050565b6000611748611743846116f5565b61160d565b905082815260208101848484011115611764576117636116f0565b5b61176f848285611726565b509392505050565b600082601f83011261178c5761178b6115a8565b5b813561179c848260208601611735565b91505092915050565b600080600080600060a086880312156117c1576117c0611306565b5b60006117cf88828901611359565b95505060206117e088828901611359565b945050604086013567ffffffffffffffff8111156118015761180061130b565b5b61180d888289016116c2565b935050606086013567ffffffffffffffff81111561182e5761182d61130b565b5b61183a888289016116c2565b925050608086013567ffffffffffffffff81111561185b5761185a61130b565b5b61186788828901611777565b9150509295509295909350565b600067ffffffffffffffff82111561188f5761188e6115ad565b5b602082029050602081019050919050565b60006118b36118ae84611874565b61160d565b905080838252602082019050602084028301858111156118d6576118d5611654565b5b835b818110156118ff57806118eb8882611359565b8452602084019350506020810190506118d8565b5050509392505050565b600082601f83011261191e5761191d6115a8565b5b813561192e8482602086016118a0565b91505092915050565b6000806040838503121561194e5761194d611306565b5b600083013567ffffffffffffffff81111561196c5761196b61130b565b5b61197885828601611909565b925050602083013567ffffffffffffffff8111156119995761199861130b565b5b6119a5858286016116c2565b9150509250929050565b600081519050919050565b600082825260208201905092915050565b6000819050602082019050919050565b6119e48161136e565b82525050565b60006119f683836119db565b60208301905092915050565b6000602082019050919050565b6000611a1a826119af565b611a2481856119ba565b9350611a2f836119cb565b8060005b83811015611a60578151611a4788826119ea565b9750611a5283611a02565b925050600181019050611a33565b5085935050505092915050565b60006020820190508181036000830152611a878184611a0f565b905092915050565b611a9881611493565b8114611aa357600080fd5b50565b600081359050611ab581611a8f565b92915050565b60008060408385031215611ad257611ad1611306565b5b6000611ae085828601611359565b9250506020611af185828601611aa6565b9150509250929050565b60008060408385031215611b1257611b11611306565b5b6000611b2085828601611359565b9250506020611b3185828601611359565b9150509250929050565b600080600080600060a08688031215611b5757611b56611306565b5b6000611b6588828901611359565b9550506020611b7688828901611359565b9450506040611b878882890161138f565b9350506060611b988882890161138f565b925050608086013567ffffffffffffffff811115611bb957611bb861130b565b5b611bc588828901611777565b9150509295509295909350565b7f455243313135353a2061646472657373207a65726f206973206e6f742061207660008201527f616c6964206f776e657200000000000000000000000000000000000000000000602082015250565b6000611c2e602a83611501565b9150611c3982611bd2565b604082019050919050565b60006020820190508181036000830152611c5d81611c21565b9050919050565b7f4e487b7100000000000000000000000000000000000000000000000000000000600052602260045260246000fd5b60006002820490506001821680611cab57607f821691505b602082108103611cbe57611cbd611c64565b5b50919050565b7f455243313135353a2063616c6c6572206973206e6f7420746f6b656e206f776e60008201527f6572206f7220617070726f766564000000000000000000000000000000000000602082015250565b6000611d20602e83611501565b9150611d2b82611cc4565b604082019050919050565b60006020820190508181036000830152611d4f81611d13565b9050919050565b7f455243313135353a206163636f756e747320616e6420696473206c656e67746860008201527f206d69736d617463680000000000000000000000000000000000000000000000602082015250565b6000611db2602983611501565b9150611dbd82611d56565b604082019050919050565b60006020820190508181036000830152611de181611da5565b9050919050565b7f4e487b7100000000000000000000000000000000000000000000000000000000600052603260045260246000fd5b7f455243313135353a2069647320616e6420616d6f756e7473206c656e6774682060008201527f6d69736d61746368000000000000000000000000000000000000000000000000602082015250565b6000611e73602883611501565b9150611e7e82611e17565b604082019050919050565b60006020820190508181036000830152611ea281611e66565b9050919050565b7f455243313135353a207472616e7366657220746f20746865207a65726f20616460008201527f6472657373000000000000000000000000000000000000000000000000000000602082015250565b6000611f05602583611501565b9150611f1082611ea9565b604082019050919050565b60006020820190508181036000830152611f3481611ef8565b9050919050565b7f455243313135353a20696e73756666696369656e742062616c616e636520666f60008201527f72207472616e7366657200000000000000000000000000000000000000000000602082015250565b6000611f97602a83611501565b9150611fa282611f3b565b604082019050919050565b60006020820190508181036000830152611fc681611f8a565b9050919050565b7f4e487b7100000000000000000000000000000000000000000000000000000000600052601160045260246000fd5b60006120078261136e565b91506120128361136e565b925082820190508082111561202a57612029611fcd565b5b92915050565b6000604082019050818103600083015261204a8185611a0f565b9050818103602083015261205e8184611a0f565b90509392505050565b7f455243313135353a2073657474696e6720617070726f76616c2073746174757360008201527f20666f722073656c660000000000000000000000000000000000000000000000602082015250565b60006120c3602983611501565b91506120ce82612067565b604082019050919050565b600060208201905081810360008301526120f2816120b6565b9050919050565b600060408201905061210e60008301856113e4565b61211b60208301846113e4565b9392505050565b61212b81611330565b82525050565b600081519050919050565b600082825260208201905092915050565b600061215882612131565b612162818561213c565b9350612172818560208601611512565b61217b8161153c565b840191505092915050565b600060a08201905061219b6000830188612122565b6121a86020830187612122565b81810360408301526121ba8186611a0f565b905081810360608301526121ce8185611a0f565b905081810360808301526121e2818461214d565b90509695505050505050565b6000815190506121fd8161143a565b92915050565b60006020828403121561221957612218611306565b5b6000612227848285016121ee565b91505092915050565b60008160e01c9050919050565b600060033d111561225c5760046000803e612259600051612230565b90505b90565b600060443d106122ec576122716112fc565b60043d036004823e80513d602482011167ffffffffffffffff821117156122995750506122ec565b808201805167ffffffffffffffff8111156122b757505050506122ec565b80602083010160043d0385018111156122d45750505050506122ec565b6122e3826020018501866115dc565b82955050505050505b90565b7f455243313135353a207472616e7366657220746f206e6f6e2d4552433131353560008201527f526563656976657220696d706c656d656e746572000000000000000000000000602082015250565b600061234b603483611501565b9150612356826122ef565b604082019050919050565b6000602082019050818103600083015261237a8161233e565b9050919050565b7f455243313135353a204552433131353552656365697665722072656a6563746560008201527f6420746f6b656e73000000000000000000000000000000000000000000000000602082015250565b60006123dd602883611501565b91506123e882612381565b604082019050919050565b6000602082019050818103600083015261240c816123d0565b9050919050565b600060a0820190506124286000830188612122565b6124356020830187612122565b61244260408301866113e4565b61244f60608301856113e4565b8181036080830152612461818461214d565b9050969550505050505056fea2646970667358221220b1231fa4dcb2b40237321c39703faffef2b8e9e3c0bf1eb871042bdb7fe7f6ee64736f6c6343000818003368747470733a2f2f6f70656e7365612d6372656174757265732d6170692e6865726f6b756170702e636f6d2f6170692f63726561747572652f7b69647d2e6a736f6e","linkReferences":{}},"methodIdentifiers":{"balanceOf(address,uint256)":"00fdd58e","balanceOfBatch(address[],uint256[])":"4e1273f4","isApprovedForAll(address,address)":"e985e9c5","safeBatchTransferFrom(address,address,uint256[],uint256[],bytes)":"2eb2c2d6","safeTransferFrom(address,address,uint256,uint256,bytes)":"f242432a","setApprovalForAll(address,bool)":"a22cb465","supportsInterface(bytes4)":"01ffc9a7","uri(uint256)":"0e89341c"},"id":25}