{"abi":[{"type":"constructor","inputs":[{"name":"_baseUri","type":"string","internalType":"string"},{"name":"_collectionUri","type":"string","internalType":"string"},{"name":"_name","type":"string","internalType":"string"},{"name":"_symbol","type":"string","internalType":"string"},{"name":"_factory","type":"address","internalType":"address"}],"stateMutability":"nonpayable"},{"type":"function","name":"FACTORY","inputs":[],"outputs":[{"name":"","type":"address","internalType":"address"}],"stateMutability":"view"},{"type":"function","name":"approve","inputs":[{"name":"to","type":"address","internalType":"address"},{"name":"tokenId","type":"uint256","internalType":"uint256"}],"outputs":[],"stateMutability":"nonpayable"},{"type":"function","name":"balanceOf","inputs":[{"name":"owner","type":"address","internalType":"address"}],"outputs":[{"name":"","type":"uint256","internalType":"uint256"}],"stateMutability":"view"},{"type":"function","name":"baseUri","inputs":[],"outputs":[{"name":"","type":"string","internalType":"string"}],"stateMutability":"view"},{"type":"function","name":"collectionUri","inputs":[],"outputs":[{"name":"","type":"string","internalType":"string"}],"stateMutability":"view"},{"type":"function","name":"contractURI","inputs":[],"outputs":[{"name":"","type":"string","internalType":"string"}],"stateMutability":"view"},{"type":"function","name":"getApproved","inputs":[{"name":"tokenId","type":"uint256","internalType":"uint256"}],"outputs":[{"name":"","type":"address","internalType":"address"}],"stateMutability":"view"},{"type":"function","name":"isApprovedForAll","inputs":[{"name":"owner","type":"address","internalType":"address"},{"name":"operator","type":"address","internalType":"address"}],"outputs":[{"name":"","type":"bool","internalType":"bool"}],"stateMutability":"view"},{"type":"function","name":"mintTo","inputs":[{"name":"_to","type":"address","internalType":"address"}],"outputs":[{"name":"","type":"uint256","internalType":"uint256"}],"stateMutability":"nonpayable"},{"type":"function","name":"name","inputs":[],"outputs":[{"name":"","type":"string","internalType":"string"}],"stateMutability":"view"},{"type":"function","name":"ownerOf","inputs":[{"name":"tokenId","type":"uint256","internalType":"uint256"}],"outputs":[{"name":"","type":"address","internalType":"address"}],"stateMutability":"view"},{"type":"function","name":"royaltyInfo","inputs":[{"name":"tokenId","type":"uint256","internalType":"uint256"},{"name":"salePrice","type":"uint256","internalType":"uint256"}],"outputs":[{"name":"","type":"address","internalType":"address"},{"name":"","type":"uint256","internalType":"uint256"}],"stateMutability":"view"},{"type":"function","name":"safeTransferFrom","inputs":[{"name":"from","type":"address","internalType":"address"},{"name":"to","type":"address","internalType":"address"},{"name":"tokenId","type":"uint256","internalType":"uint256"}],"outputs":[],"stateMutability":"nonpayable"},{"type":"function","name":"safeTransferFrom","inputs":[{"name":"from","type":"address","internalType":"address"},{"name":"to","type":"address","internalType":"address"},{"name":"tokenId","type":"uint256","internalType":"uint256"},{"name":"data","type":"bytes","internalType":"bytes"}],"outputs":[],"stateMutability":"nonpayable"},{"type":"function","name":"setApprovalForAll","inputs":[{"name":"operator","type":"address","internalType":"address"},{"name":"approved","type":"bool","internalType":"bool"}],"outputs":[],"stateMutability":"nonpayable"},{"type":"function","name":"supportsInterface","inputs":[{"name":"interfaceId","type":"bytes4","internalType":"bytes4"}],"outputs":[{"name":"","type":"bool","internalType":"bool"}],"stateMutability":"view"},{"type":"function","name":"symbol","inputs":[],"outputs":[{"name":"","type":"string","internalType":"string"}],"stateMutability":"view"},{"type":"function","name":"tokenByIndex","inputs":[{"name":"index","type":"uint256","internalType":"uint256"}],"outputs":[{"name":"","type":"uint256","internalType":"uint256"}],"stateMutability":"view"},{"type":"function","name":"tokenOfOwnerByIndex","inputs":[{"name":"owner","type":"address","internalType":"address"},{"name":"index","type":"uint256","internalType":"uint256"}],"outputs":[{"name":"","type":"uint256","internalType":"uint256"}],"stateMutability":"view"},{"type":"function","name":"tokenURI","inputs":[{"name":"_tokenId","type":"uint256","internalType":"uint256"}],"outputs":[{"name":"","type":"string","internalType":"string"}],"stateMutability":"view"},{"type":"function","name":"totalSupply","inputs":[],"outputs":[{"name":"","type":"uint256","internalType":"uint256"}],"stateMutability":"view"},{"type":"function","name":"transferFrom","inputs":[{"name":"from","type":"address","internalType":"address"},{"name":"to","type":"address","internalType":"address"},{"name":"tokenId","type":"uint256","internalType":"uint256"}],"outputs":[],"stateMutability":"nonpayable"},{"type":"function","name":"transferNFT","inputs":[{"name":"_tokenId","type":"uint256","internalType":"uint256"},{"name":"_to","type":"address","internalType":"address"}],"outputs":[],"stateMutability":"nonpayable"},{"type":"function","name":"userTokenIdList","inputs":[{"name":"_owner","type":"address","internalType":"address"}],"outputs":[{"name":"_tokensOfOwner","type":"uint256[]","internalType":"uint256[]"}],"stateMutability":"view"},{"type":"event","name":"Approval","inputs":[{"name":"owner","type":"address","indexed":true,"internalType":"address"},{"name":"approved","type":"address","indexed":true,"internalType":"address"},{"name":"tokenId","type":"uint256","indexed":true,"internalType":"uint256"}],"anonymous":false},{"type":"event","name":"ApprovalForAll","inputs":[{"name":"owner","type":"address","indexed":true,"internalType":"address"},{"name":"operator","type":"address","indexed":true,"internalType":"address"},{"name":"approved","type":"bool","indexed":false,"internalType":"bool"}],"anonymous":false},{"type":"event","name":"Transfer","inputs":[{"name":"from","type":"address","indexed":true,"internalType":"address"},{"name":"to","type":"address","indexed":true,"internalType":"address"},{"name":"tokenId","type":"uint256","indexed":true,"internalType":"uint256"}],"anonymous":false}],"bytecode":{"object":"0x60a060405234801561001057600080fd5b5060405161215b38038061215b83398101604081905261002f91610140565b8282600261003d838261029a565b50600361004a828261029a565b50506001600c5550600e61005e868261029a565b50600f61006b858261029a565b506001600160a01b03166080525061035992505050565b634e487b7160e01b600052604160045260246000fd5b600082601f8301126100a957600080fd5b81516001600160401b03808211156100c3576100c3610082565b604051601f8301601f19908116603f011681019082821181831017156100eb576100eb610082565b816040528381526020925086602085880101111561010857600080fd5b600091505b8382101561012a578582018301518183018401529082019061010d565b6000602085830101528094505050505092915050565b600080600080600060a0868803121561015857600080fd5b85516001600160401b038082111561016f57600080fd5b61017b89838a01610098565b9650602088015191508082111561019157600080fd5b61019d89838a01610098565b955060408801519150808211156101b357600080fd5b6101bf89838a01610098565b945060608801519150808211156101d557600080fd5b506101e288828901610098565b608088015190935090506001600160a01b038116811461020157600080fd5b809150509295509295909350565b600181811c9082168061022357607f821691505b60208210810361024357634e487b7160e01b600052602260045260246000fd5b50919050565b601f821115610295576000816000526020600020601f850160051c810160208610156102725750805b601f850160051c820191505b818110156102915782815560010161027e565b5050505b505050565b81516001600160401b038111156102b3576102b3610082565b6102c7816102c1845461020f565b84610249565b602080601f8311600181146102fc57600084156102e45750858301515b600019600386901b1c1916600185901b178555610291565b600085815260208120601f198616915b8281101561032b5788860151825594840194600190910190840161030c565b50858210156103495787850151600019600388901b60f8161c191681555b5050505050600190811b01905550565b608051611de061037b6000396000818161023a01526108a60152611de06000f3fe608060405234801561001057600080fd5b50600436106101585760003560e01c806370a08231116100c3578063a22cb4651161007c578063a22cb46514610311578063b88d4fde14610324578063c87b56dd14610337578063defcd4b31461034a578063e8a3d48514610352578063e985e9c51461035a57600080fd5b806370a08231146102a8578063755edd17146102bb57806380971103146102ce5780639036c050146102ee57806395d89b41146103015780639abc83201461030957600080fd5b80632a55205a116101155780632a55205a146102035780632dd31000146102355780632f745c591461025c57806342842e0e1461026f5780634f6ccce7146102825780636352211e1461029557600080fd5b806301ffc9a71461015d57806306fdde0314610185578063081812fc1461019a578063095ea7b3146101c557806318160ddd146101da57806323b872dd146101f0575b600080fd5b61017061016b3660046117ac565b610396565b60405190151581526020015b60405180910390f35b61018d6103a7565b60405161017c9190611820565b6101ad6101a8366004611833565b610439565b6040516001600160a01b03909116815260200161017c565b6101d86101d3366004611863565b610460565b005b6101e261057a565b60405190815260200161017c565b6101d86101fe36600461188d565b61058a565b6102166102113660046118c9565b6105bb565b604080516001600160a01b03909316835260208301919091520161017c565b6101ad7f000000000000000000000000000000000000000000000000000000000000000081565b6101e261026a366004611863565b610667565b6101d861027d36600461188d565b6106fd565b6101e2610290366004611833565b610718565b6101ad6102a3366004611833565b6107ab565b6101e26102b63660046118eb565b61080b565b6101e26102c93660046118eb565b610891565b6102e16102dc3660046118eb565b610949565b60405161017c9190611906565b6101d86102fc36600461194a565b6109e0565b61018d6109f8565b61018d610a07565b6101d861031f366004611976565b610a95565b6101d86103323660046119c8565b610aa4565b61018d610345366004611833565b610adc565b61018d610b8d565b61018d610b9a565b610170610368366004611aa4565b6001600160a01b03918216600090815260076020908152604080832093909416825291909152205460ff1690565b60006103a182610ba9565b92915050565b6060600280546103b690611ace565b80601f01602080910402602001604051908101604052809291908181526020018280546103e290611ace565b801561042f5780601f106104045761010080835404028352916020019161042f565b820191906000526020600020905b81548152906001019060200180831161041257829003601f168201915b5050505050905090565b600061044482610bce565b506000908152600660205260409020546001600160a01b031690565b600061046b826107ab565b9050806001600160a01b0316836001600160a01b0316036104dd5760405162461bcd60e51b815260206004820152602160248201527f4552433732313a20617070726f76616c20746f2063757272656e74206f776e656044820152603960f91b60648201526084015b60405180910390fd5b336001600160a01b03821614806104f957506104f98133610368565b61056b5760405162461bcd60e51b815260206004820152603d60248201527f4552433732313a20617070726f76652063616c6c6572206973206e6f7420746f60448201527f6b656e206f776e6572206f7220617070726f76656420666f7220616c6c00000060648201526084016104d4565b6105758383610c30565b505050565b6000610585600d5490565b905090565b6105943382610c9e565b6105b05760405162461bcd60e51b81526004016104d490611b02565b610575838383610d1d565b60008281526001602090815260408083208151808301909252546001600160a01b038116808352600160a01b9091046001600160601b03169282019290925282916106305750604080518082019091526000546001600160a01b0381168252600160a01b90046001600160601b031660208201525b60208101516000906127109061064f906001600160601b031687611b65565b6106599190611b7c565b915196919550909350505050565b60006106728361080b565b82106106d45760405162461bcd60e51b815260206004820152602b60248201527f455243373231456e756d657261626c653a206f776e657220696e646578206f7560448201526a74206f6620626f756e647360a81b60648201526084016104d4565b506001600160a01b03919091166000908152600860209081526040808320938352929052205490565b61057583838360405180602001604052806000815250610aa4565b6000610723600a5490565b82106107865760405162461bcd60e51b815260206004820152602c60248201527f455243373231456e756d657261626c653a20676c6f62616c20696e646578206f60448201526b7574206f6620626f756e647360a01b60648201526084016104d4565b600a828154811061079957610799611b9e565b90600052602060002001549050919050565b6000818152600460205260408120546001600160a01b0316806103a15760405162461bcd60e51b8152602060048201526018602482015277115490cdcc8c4e881a5b9d985b1a59081d1bdad95b88125160421b60448201526064016104d4565b60006001600160a01b0382166108755760405162461bcd60e51b815260206004820152602960248201527f4552433732313a2061646472657373207a65726f206973206e6f7420612076616044820152683634b21037bbb732b960b91b60648201526084016104d4565b506001600160a01b031660009081526005602052604090205490565b600061089b610e8e565b336001600160a01b037f000000000000000000000000000000000000000000000000000000000000000016146109225760405162461bcd60e51b815260206004820152602660248201527f6d696e74546f3a2063616c6c6572206973206e6f7420666163746f727920636f6044820152651b9d1c9858dd60d21b60648201526084016104d4565b600061092c610ee7565b90506109388382610efe565b90506109446001600c55565b919050565b60606109548261080b565b67ffffffffffffffff81111561096c5761096c6119b2565b604051908082528060200260200182016040528015610995578160200160208202803683370190505b50905060005b6109a48361080b565b8110156109da576109b58382610667565b8282815181106109c7576109c7611b9e565b602090810291909101015260010161099b565b50919050565b60006109eb836107ab565b905061057581838561058a565b6060600380546103b690611ace565b600e8054610a1490611ace565b80601f0160208091040260200160405190810160405280929190818152602001828054610a4090611ace565b8015610a8d5780601f10610a6257610100808354040283529160200191610a8d565b820191906000526020600020905b815481529060010190602001808311610a7057829003601f168201915b505050505081565b610aa0338383610f18565b5050565b610aae3383610c9e565b610aca5760405162461bcd60e51b81526004016104d490611b02565b610ad684848484610fe6565b50505050565b6000818152600460205260409020546060906001600160a01b0316610b5b5760405162461bcd60e51b815260206004820152602f60248201527f4552433732314d657461646174613a2055524920717565727920666f72206e6f60448201526e3732bc34b9ba32b73a103a37b5b2b760891b60648201526084016104d4565b600e610b6683611019565b604051602001610b77929190611bd0565b6040516020818303038152906040529050919050565b600f8054610a1490611ace565b6060600f80546103b690611ace565b60006001600160e01b0319821663780e9d6360e01b14806103a157506103a1826110ac565b6000818152600460205260409020546001600160a01b0316610c2d5760405162461bcd60e51b8152602060048201526018602482015277115490cdcc8c4e881a5b9d985b1a59081d1bdad95b88125160421b60448201526064016104d4565b50565b600081815260066020526040902080546001600160a01b0319166001600160a01b0384169081179091558190610c65826107ab565b6001600160a01b03167f8c5be1e5ebec7d5bd14f71427d1e84f3dd0314c0f7b2291e5b200ac8c7c3b92560405160405180910390a45050565b600080610caa836107ab565b9050806001600160a01b0316846001600160a01b03161480610cf157506001600160a01b0380821660009081526007602090815260408083209388168352929052205460ff165b80610d155750836001600160a01b0316610d0a84610439565b6001600160a01b0316145b949350505050565b826001600160a01b0316610d30826107ab565b6001600160a01b031614610d565760405162461bcd60e51b81526004016104d490611c90565b6001600160a01b038216610db85760405162461bcd60e51b8152602060048201526024808201527f4552433732313a207472616e7366657220746f20746865207a65726f206164646044820152637265737360e01b60648201526084016104d4565b610dc583838360016110ec565b826001600160a01b0316610dd8826107ab565b6001600160a01b031614610dfe5760405162461bcd60e51b81526004016104d490611c90565b600081815260066020908152604080832080546001600160a01b03199081169091556001600160a01b0387811680865260058552838620805460001901905590871680865283862080546001019055868652600490945282852080549092168417909155905184937fddf252ad1be2c89b69c2b068fc378daa952ba7f163c4a11628f55a4df523b3ef91a4505050565b6002600c5403610ee05760405162461bcd60e51b815260206004820152601f60248201527f5265656e7472616e637947756172643a207265656e7472616e742063616c6c0060448201526064016104d4565b6002600c55565b6000610ef7600d80546001019055565b50600d5490565b610aa08282604051806020016040528060008152506110f8565b816001600160a01b0316836001600160a01b031603610f795760405162461bcd60e51b815260206004820152601960248201527f4552433732313a20617070726f766520746f2063616c6c65720000000000000060448201526064016104d4565b6001600160a01b03838116600081815260076020908152604080832094871680845294825291829020805460ff191686151590811790915591519182527f17307eab39ab6107e8899845ad3d59bd9653f200f220920489ca2b5937696c31910160405180910390a3505050565b610ff1848484610d1d565b610ffd8484848461112b565b610ad65760405162461bcd60e51b81526004016104d490611cd5565b606060006110268361122c565b600101905060008167ffffffffffffffff811115611046576110466119b2565b6040519080825280601f01601f191660200182016040528015611070576020820181803683370190505b5090508181016020015b600019016f181899199a1a9b1b9c1cb0b131b232b360811b600a86061a8153600a850494508461107a57509392505050565b60006001600160e01b031982166380ac58cd60e01b14806110dd57506001600160e01b03198216635b5e139f60e01b145b806103a157506103a182611304565b610ad684848484611339565b611102838361146d565b61110f600084848461112b565b6105755760405162461bcd60e51b81526004016104d490611cd5565b60006001600160a01b0384163b1561122157604051630a85bd0160e11b81526001600160a01b0385169063150b7a029061116f903390899088908890600401611d27565b6020604051808303816000875af19250505080156111aa575060408051601f3d908101601f191682019092526111a791810190611d64565b60015b611207573d8080156111d8576040519150601f19603f3d011682016040523d82523d6000602084013e6111dd565b606091505b5080516000036111ff5760405162461bcd60e51b81526004016104d490611cd5565b805181602001fd5b6001600160e01b031916630a85bd0160e11b149050610d15565b506001949350505050565b60008072184f03e93ff9f4daa797ed6e38ed64bf6a1f0160401b831061126b5772184f03e93ff9f4daa797ed6e38ed64bf6a1f0160401b830492506040015b6d04ee2d6d415b85acef81000000008310611297576d04ee2d6d415b85acef8100000000830492506020015b662386f26fc1000083106112b557662386f26fc10000830492506010015b6305f5e10083106112cd576305f5e100830492506008015b61271083106112e157612710830492506004015b606483106112f3576064830492506002015b600a83106103a15760010192915050565b60006001600160e01b0319821663152a902d60e11b14806103a157506301ffc9a760e01b6001600160e01b03198316146103a1565b60018111156113a85760405162461bcd60e51b815260206004820152603560248201527f455243373231456e756d657261626c653a20636f6e7365637574697665207472604482015274185b9cd9995c9cc81b9bdd081cdd5c1c1bdc9d1959605a1b60648201526084016104d4565b816001600160a01b038516611404576113ff81600a80546000838152600b60205260408120829055600182018355919091527fc65a7bb8d6351c1cf70c95a316cc6a92839c986682d98bc35f958f4883f9d2a80155565b611427565b836001600160a01b0316856001600160a01b031614611427576114278582611606565b6001600160a01b0384166114435761143e816116a3565b611466565b846001600160a01b0316846001600160a01b031614611466576114668482611752565b5050505050565b6001600160a01b0382166114c35760405162461bcd60e51b815260206004820181905260248201527f4552433732313a206d696e7420746f20746865207a65726f206164647265737360448201526064016104d4565b6000818152600460205260409020546001600160a01b0316156115285760405162461bcd60e51b815260206004820152601c60248201527f4552433732313a20746f6b656e20616c7265616479206d696e7465640000000060448201526064016104d4565b6115366000838360016110ec565b6000818152600460205260409020546001600160a01b03161561159b5760405162461bcd60e51b815260206004820152601c60248201527f4552433732313a20746f6b656e20616c7265616479206d696e7465640000000060448201526064016104d4565b6001600160a01b038216600081815260056020908152604080832080546001019055848352600490915280822080546001600160a01b0319168417905551839291907fddf252ad1be2c89b69c2b068fc378daa952ba7f163c4a11628f55a4df523b3ef908290a45050565b600060016116138461080b565b61161d9190611d81565b600083815260096020526040902054909150808214611670576001600160a01b03841660009081526008602090815260408083208584528252808320548484528184208190558352600990915290208190555b5060009182526009602090815260408084208490556001600160a01b039094168352600881528383209183525290812055565b600a546000906116b590600190611d81565b6000838152600b6020526040812054600a80549394509092849081106116dd576116dd611b9e565b9060005260206000200154905080600a83815481106116fe576116fe611b9e565b6000918252602080832090910192909255828152600b9091526040808220849055858252812055600a80548061173657611736611d94565b6001900381819060005260206000200160009055905550505050565b600061175d8361080b565b6001600160a01b039093166000908152600860209081526040808320868452825280832085905593825260099052919091209190915550565b6001600160e01b031981168114610c2d57600080fd5b6000602082840312156117be57600080fd5b81356117c981611796565b9392505050565b60005b838110156117eb5781810151838201526020016117d3565b50506000910152565b6000815180845261180c8160208601602086016117d0565b601f01601f19169290920160200192915050565b6020815260006117c960208301846117f4565b60006020828403121561184557600080fd5b5035919050565b80356001600160a01b038116811461094457600080fd5b6000806040838503121561187657600080fd5b61187f8361184c565b946020939093013593505050565b6000806000606084860312156118a257600080fd5b6118ab8461184c565b92506118b96020850161184c565b9150604084013590509250925092565b600080604083850312156118dc57600080fd5b50508035926020909101359150565b6000602082840312156118fd57600080fd5b6117c98261184c565b6020808252825182820181905260009190848201906040850190845b8181101561193e57835183529284019291840191600101611922565b50909695505050505050565b6000806040838503121561195d57600080fd5b8235915061196d6020840161184c565b90509250929050565b6000806040838503121561198957600080fd5b6119928361184c565b9150602083013580151581146119a757600080fd5b809150509250929050565b634e487b7160e01b600052604160045260246000fd5b600080600080608085870312156119de57600080fd5b6119e78561184c565b93506119f56020860161184c565b925060408501359150606085013567ffffffffffffffff80821115611a1957600080fd5b818701915087601f830112611a2d57600080fd5b813581811115611a3f57611a3f6119b2565b604051601f8201601f19908116603f01168101908382118183101715611a6757611a676119b2565b816040528281528a6020848701011115611a8057600080fd5b82602086016020830137600060208483010152809550505050505092959194509250565b60008060408385031215611ab757600080fd5b611ac08361184c565b915061196d6020840161184c565b600181811c90821680611ae257607f821691505b6020821081036109da57634e487b7160e01b600052602260045260246000fd5b6020808252602d908201527f4552433732313a2063616c6c6572206973206e6f7420746f6b656e206f776e6560408201526c1c881bdc88185c1c1c9bdd9959609a1b606082015260800190565b634e487b7160e01b600052601160045260246000fd5b80820281158282048414176103a1576103a1611b4f565b600082611b9957634e487b7160e01b600052601260045260246000fd5b500490565b634e487b7160e01b600052603260045260246000fd5b60008151611bc68185602086016117d0565b9290920192915050565b60008084548160018260011c91506001831680611bee57607f831692505b60208084108203611c0d57634e487b7160e01b86526022600452602486fd5b818015611c215760018114611c3657611c63565b60ff1986168952841515850289019650611c63565b60008b81526020902060005b86811015611c5b5781548b820152908501908301611c42565b505084890196505b505050505050611c87611c768286611bb4565b64173539b7b760d91b815260050190565b95945050505050565b60208082526025908201527f4552433732313a207472616e736665722066726f6d20696e636f72726563742060408201526437bbb732b960d91b606082015260800190565b60208082526032908201527f4552433732313a207472616e7366657220746f206e6f6e20455243373231526560408201527131b2b4bb32b91034b6b83632b6b2b73a32b960711b606082015260800190565b6001600160a01b0385811682528416602082015260408101839052608060608201819052600090611d5a908301846117f4565b9695505050505050565b600060208284031215611d7657600080fd5b81516117c981611796565b818103818111156103a1576103a1611b4f565b634e487b7160e01b600052603160045260246000fdfea2646970667358221220b16c1a63c1fc6241efd2b0443c5d3c2f4bbbfa8d4e102106997e8aa91219b1ca64736f6c63430008190033","linkReferences":{}},"methodIdentifiers":{"FACTORY()":"2dd31000","approve(address,uint256)":"095ea7b3","balanceOf(address)":"70a08231","baseUri()":"9abc8320","collectionUri()":"defcd4b3","contractURI()":"e8a3d485","getApproved(uint256)":"081812fc","isApprovedForAll(address,address)":"e985e9c5","mintTo(address)":"755edd17","name()":"06fdde03","ownerOf(uint256)":"6352211e","royaltyInfo(uint256,uint256)":"2a55205a","safeTransferFrom(address,address,uint256)":"42842e0e","safeTransferFrom(address,address,uint256,bytes)":"b88d4fde","setApprovalForAll(address,bool)":"a22cb465","supportsInterface(bytes4)":"01ffc9a7","symbol()":"95d89b41","tokenByIndex(uint256)":"4f6ccce7","tokenOfOwnerByIndex(address,uint256)":"2f745c59","tokenURI(uint256)":"c87b56dd","totalSupply()":"18160ddd","transferFrom(address,address,uint256)":"23b872dd","transferNFT(uint256,address)":"9036c050","userTokenIdList(address)":"80971103"},"storageLayout":{"storage":[{"astId":72639,"contract":"contracts/dao/VabbleNFT.sol:VabbleNFT","label":"_defaultRoyaltyInfo","offset":0,"slot":"0","type":"t_struct(RoyaltyInfo)72636_storage"},{"astId":72644,"contract":"contracts/dao/VabbleNFT.sol:VabbleNFT","label":"_tokenRoyaltyInfo","offset":0,"slot":"1","type":"t_mapping(t_uint256,t_struct(RoyaltyInfo)72636_storage)"},{"astId":71175,"contract":"contracts/dao/VabbleNFT.sol:VabbleNFT","label":"_name","offset":0,"slot":"2","type":"t_string_storage"},{"astId":71177,"contract":"contracts/dao/VabbleNFT.sol:VabbleNFT","label":"_symbol","offset":0,"slot":"3","type":"t_string_storage"},{"astId":71181,"contract":"contracts/dao/VabbleNFT.sol:VabbleNFT","label":"_owners","offset":0,"slot":"4","type":"t_mapping(t_uint256,t_address)"},{"astId":71185,"contract":"contracts/dao/VabbleNFT.sol:VabbleNFT","label":"_balances","offset":0,"slot":"5","type":"t_mapping(t_address,t_uint256)"},{"astId":71189,"contract":"contracts/dao/VabbleNFT.sol:VabbleNFT","label":"_tokenApprovals","offset":0,"slot":"6","type":"t_mapping(t_uint256,t_address)"},{"astId":71195,"contract":"contracts/dao/VabbleNFT.sol:VabbleNFT","label":"_operatorApprovals","offset":0,"slot":"7","type":"t_mapping(t_address,t_mapping(t_address,t_bool))"},{"astId":72225,"contract":"contracts/dao/VabbleNFT.sol:VabbleNFT","label":"_ownedTokens","offset":0,"slot":"8","type":"t_mapping(t_address,t_mapping(t_uint256,t_uint256))"},{"astId":72229,"contract":"contracts/dao/VabbleNFT.sol:VabbleNFT","label":"_ownedTokensIndex","offset":0,"slot":"9","type":"t_mapping(t_uint256,t_uint256)"},{"astId":72232,"contract":"contracts/dao/VabbleNFT.sol:VabbleNFT","label":"_allTokens","offset":0,"slot":"10","type":"t_array(t_uint256)dyn_storage"},{"astId":72236,"contract":"contracts/dao/VabbleNFT.sol:VabbleNFT","label":"_allTokensIndex","offset":0,"slot":"11","type":"t_mapping(t_uint256,t_uint256)"},{"astId":69004,"contract":"contracts/dao/VabbleNFT.sol:VabbleNFT","label":"_status","offset":0,"slot":"12","type":"t_uint256"},{"astId":15563,"contract":"contracts/dao/VabbleNFT.sol:VabbleNFT","label":"nftCount","offset":0,"slot":"13","type":"t_struct(Counter)73186_storage"},{"astId":15565,"contract":"contracts/dao/VabbleNFT.sol:VabbleNFT","label":"baseUri","offset":0,"slot":"14","type":"t_string_storage"},{"astId":15567,"contract":"contracts/dao/VabbleNFT.sol:VabbleNFT","label":"collectionUri","offset":0,"slot":"15","type":"t_string_storage"}],"types":{"t_address":{"encoding":"inplace","label":"address","numberOfBytes":"20"},"t_array(t_uint256)dyn_storage":{"encoding":"dynamic_array","label":"uint256[]","numberOfBytes":"32","base":"t_uint256"},"t_bool":{"encoding":"inplace","label":"bool","numberOfBytes":"1"},"t_mapping(t_address,t_bool)":{"encoding":"mapping","key":"t_address","label":"mapping(address => bool)","numberOfBytes":"32","value":"t_bool"},"t_mapping(t_address,t_mapping(t_address,t_bool))":{"encoding":"mapping","key":"t_address","label":"mapping(address => mapping(address => bool))","numberOfBytes":"32","value":"t_mapping(t_address,t_bool)"},"t_mapping(t_address,t_mapping(t_uint256,t_uint256))":{"encoding":"mapping","key":"t_address","label":"mapping(address => mapping(uint256 => uint256))","numberOfBytes":"32","value":"t_mapping(t_uint256,t_uint256)"},"t_mapping(t_address,t_uint256)":{"encoding":"mapping","key":"t_address","label":"mapping(address => uint256)","numberOfBytes":"32","value":"t_uint256"},"t_mapping(t_uint256,t_address)":{"encoding":"mapping","key":"t_uint256","label":"mapping(uint256 => address)","numberOfBytes":"32","value":"t_address"},"t_mapping(t_uint256,t_struct(RoyaltyInfo)72636_storage)":{"encoding":"mapping","key":"t_uint256","label":"mapping(uint256 => struct ERC2981.RoyaltyInfo)","numberOfBytes":"32","value":"t_struct(RoyaltyInfo)72636_storage"},"t_mapping(t_uint256,t_uint256)":{"encoding":"mapping","key":"t_uint256","label":"mapping(uint256 => uint256)","numberOfBytes":"32","value":"t_uint256"},"t_string_storage":{"encoding":"bytes","label":"string","numberOfBytes":"32"},"t_struct(Counter)73186_storage":{"encoding":"inplace","label":"struct Counters.Counter","numberOfBytes":"32","members":[{"astId":73185,"contract":"contracts/dao/VabbleNFT.sol:VabbleNFT","label":"_value","offset":0,"slot":"0","type":"t_uint256"}]},"t_struct(RoyaltyInfo)72636_storage":{"encoding":"inplace","label":"struct ERC2981.RoyaltyInfo","numberOfBytes":"32","members":[{"astId":72633,"contract":"contracts/dao/VabbleNFT.sol:VabbleNFT","label":"receiver","offset":0,"slot":"0","type":"t_address"},{"astId":72635,"contract":"contracts/dao/VabbleNFT.sol:VabbleNFT","label":"royaltyFraction","offset":20,"slot":"0","type":"t_uint96"}]},"t_uint256":{"encoding":"inplace","label":"uint256","numberOfBytes":"32"},"t_uint96":{"encoding":"inplace","label":"uint96","numberOfBytes":"12"}}},"id":11}