{"abi":[{"type":"constructor","inputs":[{"name":"_ownable","type":"address","internalType":"address"},{"name":"_uniHelper","type":"address","internalType":"address"},{"name":"_staking","type":"address","internalType":"address"},{"name":"_property","type":"address","internalType":"address"},{"name":"_filmNftFactory","type":"address","internalType":"address"}],"stateMutability":"nonpayable"},{"type":"receive","stateMutability":"payable"},{"type":"function","name":"VABBLE_DAO","inputs":[],"outputs":[{"name":"","type":"address","internalType":"address"}],"stateMutability":"view"},{"type":"function","name":"__getExpectedTokenAmount","inputs":[{"name":"_token","type":"address","internalType":"address"},{"name":"_usdcAmount","type":"uint256","internalType":"uint256"}],"outputs":[{"name":"amount_","type":"uint256","internalType":"uint256"}],"stateMutability":"view"},{"type":"function","name":"__getExpectedUsdcAmount","inputs":[{"name":"_token","type":"address","internalType":"address"},{"name":"_tokenAmount","type":"uint256","internalType":"uint256"}],"outputs":[{"name":"amount_","type":"uint256","internalType":"uint256"}],"stateMutability":"view"},{"type":"function","name":"assetInfo","inputs":[{"name":"","type":"uint256","internalType":"uint256"},{"name":"","type":"address","internalType":"address"},{"name":"","type":"uint256","internalType":"uint256"}],"outputs":[{"name":"token","type":"address","internalType":"address"},{"name":"amount","type":"uint256","internalType":"uint256"}],"stateMutability":"view"},{"type":"function","name":"assetPerFilm","inputs":[{"name":"","type":"uint256","internalType":"uint256"},{"name":"","type":"uint256","internalType":"uint256"}],"outputs":[{"name":"token","type":"address","internalType":"address"},{"name":"amount","type":"uint256","internalType":"uint256"}],"stateMutability":"view"},{"type":"function","name":"depositToFilm","inputs":[{"name":"_filmId","type":"uint256","internalType":"uint256"},{"name":"_amount","type":"uint256","internalType":"uint256"},{"name":"_flag","type":"uint256","internalType":"uint256"},{"name":"_token","type":"address","internalType":"address"}],"outputs":[],"stateMutability":"payable"},{"type":"function","name":"fundProcess","inputs":[{"name":"_filmId","type":"uint256","internalType":"uint256"}],"outputs":[],"stateMutability":"nonpayable"},{"type":"function","name":"getAllowUserNftCount","inputs":[{"name":"_filmId","type":"uint256","internalType":"uint256"},{"name":"_user","type":"address","internalType":"address"}],"outputs":[{"name":"","type":"uint256","internalType":"uint256"}],"stateMutability":"view"},{"type":"function","name":"getFilmInvestorList","inputs":[{"name":"_filmId","type":"uint256","internalType":"uint256"}],"outputs":[{"name":"","type":"address[]","internalType":"address[]"}],"stateMutability":"view"},{"type":"function","name":"getFundProcessedFilmIdList","inputs":[],"outputs":[{"name":"","type":"uint256[]","internalType":"uint256[]"}],"stateMutability":"view"},{"type":"function","name":"getTotalFundAmountPerFilm","inputs":[{"name":"_filmId","type":"uint256","internalType":"uint256"}],"outputs":[{"name":"amount_","type":"uint256","internalType":"uint256"}],"stateMutability":"view"},{"type":"function","name":"getUserFundAmountPerFilm","inputs":[{"name":"_customer","type":"address","internalType":"address"},{"name":"_filmId","type":"uint256","internalType":"uint256"}],"outputs":[{"name":"amount_","type":"uint256","internalType":"uint256"}],"stateMutability":"view"},{"type":"function","name":"initialize","inputs":[{"name":"_vabbleDAO","type":"address","internalType":"address"}],"outputs":[],"stateMutability":"nonpayable"},{"type":"function","name":"isFundProcessed","inputs":[{"name":"","type":"uint256","internalType":"uint256"}],"outputs":[{"name":"","type":"bool","internalType":"bool"}],"stateMutability":"view"},{"type":"function","name":"isRaisedFullAmount","inputs":[{"name":"_filmId","type":"uint256","internalType":"uint256"}],"outputs":[{"name":"","type":"bool","internalType":"bool"}],"stateMutability":"view"},{"type":"function","name":"withdrawFunding","inputs":[{"name":"_filmId","type":"uint256","internalType":"uint256"}],"outputs":[],"stateMutability":"nonpayable"},{"type":"event","name":"DepositedToFilm","inputs":[{"name":"customer","type":"address","indexed":true,"internalType":"address"},{"name":"filmId","type":"uint256","indexed":true,"internalType":"uint256"},{"name":"token","type":"address","indexed":false,"internalType":"address"},{"name":"amount","type":"uint256","indexed":false,"internalType":"uint256"},{"name":"flag","type":"uint256","indexed":false,"internalType":"uint256"}],"anonymous":false},{"type":"event","name":"FundFilmProcessed","inputs":[{"name":"filmId","type":"uint256","indexed":true,"internalType":"uint256"},{"name":"studio","type":"address","indexed":true,"internalType":"address"}],"anonymous":false},{"type":"event","name":"FundWithdrawed","inputs":[{"name":"filmId","type":"uint256","indexed":true,"internalType":"uint256"},{"name":"customer","type":"address","indexed":true,"internalType":"address"}],"anonymous":false}],"bytecode":{"object":"0x6101206040523480156200001257600080fd5b506040516200481b3803806200481b83398101604081905262000035916200024f565b60016000556001600160a01b038516620000965760405162461bcd60e51b815260206004820152601d60248201527f6f776e61626c65436f6e74726163743a205a65726f206164647265737300000060448201526064015b60405180910390fd5b6001600160a01b038086166080528416620000f45760405162461bcd60e51b815260206004820152601f60248201527f756e6948656c706572436f6e74726163743a205a65726f20616464726573730060448201526064016200008d565b6001600160a01b0380851660c0528316620001525760405162461bcd60e51b815260206004820152601d60248201527f7374616b696e67436f6e74726163743a205a65726f206164647265737300000060448201526064016200008d565b6001600160a01b0380841660a0528216620001b05760405162461bcd60e51b815260206004820152601960248201527f64616f50726f70657274793a205a65726f20616464726573730000000000000060448201526064016200008d565b6001600160a01b0380831660e05281166200021a5760405162461bcd60e51b815260206004820152602360248201527f73657475703a207a65726f20666163746f7279436f6e7472616374206164647260448201526265737360e81b60648201526084016200008d565b6001600160a01b03166101005250620002bf92505050565b80516001600160a01b03811681146200024a57600080fd5b919050565b600080600080600060a086880312156200026857600080fd5b620002738662000232565b9450620002836020870162000232565b9350620002936040870162000232565b9250620002a36060870162000232565b9150620002b36080870162000232565b90509295509295909350565b60805160a05160c05160e051610100516144a06200037b6000396000818161331d01526133c3015260008181611f9b01528181613e580152613ef8015260008181610490015281816106c8015281816121130152818161219e0152818161223c01526123b20152600081816124da0152818161255a01526125f30152600081816103cf015281816104ce015281816106070152818161070501528181610ef70152818161101e01528181611df5015261270e01526144a06000f3fe6080604052600436106100f75760003560e01c8063986c1b591161008a578063c4d66de811610059578063c4d66de81461032b578063d0bae3f91461034b578063e4ed62ff1461037b578063e948159c1461039b57600080fd5b8063986c1b59146102395780639b6034a91461028b5780639d6af27f146102bb578063a2bfda8f1461030b57600080fd5b80637682e4f1116100c65780637682e4f11461019a578063903859f4146101ad57806390cc5ea0146101f957806393b1138b1461021957600080fd5b806301733baf146101035780630a913893146101365780632c368afe146101565780633697f0551461017857600080fd5b366100fe57005b600080fd5b34801561010f57600080fd5b5061012361011e366004613fb5565b6103c8565b6040519081526020015b60405180910390f35b34801561014257600080fd5b50610123610151366004613fb5565b610600565b34801561016257600080fd5b5061016b6107f2565b60405161012d9190613fe1565b34801561018457600080fd5b50610198610193366004614025565b61084a565b005b6101986101a836600461403e565b610eed565b3480156101b957600080fd5b506101cd6101c836600461407f565b611670565b6040805173ffffffffffffffffffffffffffffffffffffffff909316835260208301919091520161012d565b34801561020557600080fd5b506101cd6102143660046140a1565b6116c3565b34801561022557600080fd5b50610123610234366004614025565b611724565b34801561024557600080fd5b506001546102669073ffffffffffffffffffffffffffffffffffffffff1681565b60405173ffffffffffffffffffffffffffffffffffffffff909116815260200161012d565b34801561029757600080fd5b506102ab6102a6366004614025565b61183e565b604051901515815260200161012d565b3480156102c757600080fd5b506101236102d63660046140d9565b600091825260076020908152604080842073ffffffffffffffffffffffffffffffffffffffff93909316845291905290205490565b34801561031757600080fd5b50610198610326366004614025565b611912565b34801561033757600080fd5b50610198610346366004614109565b61270c565b34801561035757600080fd5b506102ab610366366004614025565b60066020526000908152604090205460ff1681565b34801561038757600080fd5b50610123610396366004613fb5565b612973565b3480156103a757600080fd5b506103bb6103b6366004614025565b612a7d565b60405161012d919061412d565b60008190507f000000000000000000000000000000000000000000000000000000000000000073ffffffffffffffffffffffffffffffffffffffff1663fa5692746040518163ffffffff1660e01b8152600401602060405180830381865afa158015610438573d6000803e3d6000fd5b505050506040513d601f19601f8201168201806040525081019061045c919061417b565b73ffffffffffffffffffffffffffffffffffffffff168373ffffffffffffffffffffffffffffffffffffffff16146105fa577f000000000000000000000000000000000000000000000000000000000000000073ffffffffffffffffffffffffffffffffffffffff1663eeee26ce83857f000000000000000000000000000000000000000000000000000000000000000073ffffffffffffffffffffffffffffffffffffffff1663fa5692746040518163ffffffff1660e01b8152600401602060405180830381865afa158015610537573d6000803e3d6000fd5b505050506040513d601f19601f8201168201806040525081019061055b919061417b565b6040517fffffffff0000000000000000000000000000000000000000000000000000000060e086901b168152600481019390935273ffffffffffffffffffffffffffffffffffffffff91821660248401521660448201526064015b602060405180830381865afa1580156105d3573d6000803e3d6000fd5b505050506040513d601f19601f820116820180604052508101906105f79190614198565b90505b92915050565b60008190507f000000000000000000000000000000000000000000000000000000000000000073ffffffffffffffffffffffffffffffffffffffff1663fa5692746040518163ffffffff1660e01b8152600401602060405180830381865afa158015610670573d6000803e3d6000fd5b505050506040513d601f19601f82011682018060405250810190610694919061417b565b73ffffffffffffffffffffffffffffffffffffffff168373ffffffffffffffffffffffffffffffffffffffff16146105fa577f000000000000000000000000000000000000000000000000000000000000000073ffffffffffffffffffffffffffffffffffffffff1663eeee26ce837f000000000000000000000000000000000000000000000000000000000000000073ffffffffffffffffffffffffffffffffffffffff1663fa5692746040518163ffffffff1660e01b8152600401602060405180830381865afa15801561076e573d6000803e3d6000fd5b505050506040513d601f19601f82011682018060405250810190610792919061417b565b6040517fffffffff0000000000000000000000000000000000000000000000000000000060e085901b168152600481019290925273ffffffffffffffffffffffffffffffffffffffff9081166024830152861660448201526064016105b6565b6060600280548060200260200160405190810160405280929190818152602001828054801561084057602002820191906000526020600020905b81548152602001906001019080831161082c575b5050505050905090565b610852612af6565b6001546040517fd5443afd0000000000000000000000000000000000000000000000000000000081526004810183905260009173ffffffffffffffffffffffffffffffffffffffff169063d5443afd90602401602060405180830381865afa1580156108c2573d6000803e3d6000fd5b505050506040513d601f19601f820116820180604052508101906108e691906141b1565b905060038160058111156108fc576108fc6141d2565b1461098e576040517f08c379a000000000000000000000000000000000000000000000000000000000815260206004820152603060248201527f776974686472617746756e64696e673a2066696c6d4964206e6f74206170707260448201527f6f76656420666f722066756e64696e670000000000000000000000000000000060648201526084015b60405180910390fd5b6001546040517f2c6cab340000000000000000000000000000000000000000000000000000000081526004810184905260009173ffffffffffffffffffffffffffffffffffffffff1690632c6cab3490602401608060405180830381865afa1580156109fe573d6000803e3d6000fd5b505050506040513d601f19601f82011682018060405250810190610a229190614201565b50506001546040517f7bcd52b0000000000000000000000000000000000000000000000000000000008152600481018790529193506000925073ffffffffffffffffffffffffffffffffffffffff1690637bcd52b0906024016040805180830381865afa158015610a97573d6000803e3d6000fd5b505050506040513d601f19601f82011682018060405250810190610abb9190614237565b9150610ac99050814261428a565b8210610b31576040517f08c379a000000000000000000000000000000000000000000000000000000000815260206004820152601f60248201527f776974686472617746756e64696e673a2066756e64696e6720706572696f64006044820152606401610985565b610b3a8461183e565b15610ba1576040517f08c379a000000000000000000000000000000000000000000000000000000000815260206004820152601c60248201527f776974686472617746756e64696e673a2066756c6c20726169736564000000006044820152606401610985565b6000848152600460209081526040808320338452909152902080546103e88110610c27576040517f08c379a000000000000000000000000000000000000000000000000000000000815260206004820152601b60248201527f776974686472617746756e64696e673a20626164206c656e67746800000000006044820152606401610985565b60005b81811015610e8c57600073ffffffffffffffffffffffffffffffffffffffff16838281548110610c5c57610c5c61429d565b600091825260209091206002909102015473ffffffffffffffffffffffffffffffffffffffff1603610d0e57828181548110610c9a57610c9a61429d565b9060005260206000209060020201600101544710610d0957610cdf33848381548110610cc857610cc861429d565b906000526020600020906002020160010154612b69565b6000838281548110610cf357610cf361429d565b9060005260206000209060020201600101819055505b610e84565b828181548110610d2057610d2061429d565b906000526020600020906002020160010154838281548110610d4457610d4461429d565b60009182526020909120600290910201546040517f70a0823100000000000000000000000000000000000000000000000000000000815230600482015273ffffffffffffffffffffffffffffffffffffffff909116906370a0823190602401602060405180830381865afa158015610dc0573d6000803e3d6000fd5b505050506040513d601f19601f82011682018060405250810190610de49190614198565b10610e8457610e5a838281548110610dfe57610dfe61429d565b906000526020600020906002020160000160009054906101000a900473ffffffffffffffffffffffffffffffffffffffff1633858481548110610e4357610e4361429d565b906000526020600020906002020160010154612c78565b6000838281548110610e6e57610e6e61429d565b9060005260206000209060020201600101819055505b600101610c2a565b506000610e993388612973565b905080600003610ead57610ead8733612e8c565b604051339088907fe1bb05a60c40b6e0d1fc580fe70956547bf7239d83ef5344939a77c0a904fac490600090a3505050505050610eea6001600055565b50565b610ef5612af6565b7f000000000000000000000000000000000000000000000000000000000000000073ffffffffffffffffffffffffffffffffffffffff1663e2f6f5116040518163ffffffff1660e01b8152600401602060405180830381865afa158015610f60573d6000803e3d6000fd5b505050506040513d601f19601f82011682018060405250810190610f84919061417b565b73ffffffffffffffffffffffffffffffffffffffff168173ffffffffffffffffffffffffffffffffffffffff1614158015610fd4575073ffffffffffffffffffffffffffffffffffffffff811615155b156110ef576040517fbdbef07d00000000000000000000000000000000000000000000000000000000815273ffffffffffffffffffffffffffffffffffffffff82811660048301527f0000000000000000000000000000000000000000000000000000000000000000169063bdbef07d90602401602060405180830381865afa158015611065573d6000803e3d6000fd5b505050506040513d601f19601f8201168201806040525081019061108991906142cc565b6110ef576040517f08c379a000000000000000000000000000000000000000000000000000000000815260206004820181905260248201527f6465706f736974546f46696c6d3a206e6f7420616c6c6f7765642061737365746044820152606401610985565b81600114806110fe5750816002145b611164576040517f08c379a000000000000000000000000000000000000000000000000000000000815260206004820152601b60248201527f6465706f736974546f46696c6d3a20696e76616c696420666c616700000000006044820152606401610985565b826000036111ce576040517f08c379a000000000000000000000000000000000000000000000000000000000815260206004820152601960248201527f6465706f736974546f46696c6d3a207a65726f2076616c7565000000000000006044820152606401610985565b6001546040517f2c6cab3400000000000000000000000000000000000000000000000000000000815260048101869052600091829173ffffffffffffffffffffffffffffffffffffffff90911690632c6cab3490602401608060405180830381865afa158015611242573d6000803e3d6000fd5b505050506040513d601f19601f820116820180604052508101906112669190614201565b506001546040517f7bcd52b0000000000000000000000000000000000000000000000000000000008152600481018b90529295509093506000925073ffffffffffffffffffffffffffffffffffffffff1690637bcd52b0906024016040805180830381865afa1580156112dd573d6000803e3d6000fd5b505050506040513d601f19601f820116820180604052508101906113019190614237565b6001546040517fd5443afd000000000000000000000000000000000000000000000000000000008152600481018b90529193506000925073ffffffffffffffffffffffffffffffffffffffff169063d5443afd90602401602060405180830381865afa158015611375573d6000803e3d6000fd5b505050506040513d601f19601f8201168201806040525081019061139991906141b1565b905060038160058111156113af576113af6141d2565b1461143c576040517f08c379a000000000000000000000000000000000000000000000000000000000815260206004820152602e60248201527f6465706f736974546f46696c6d3a2066696c6d4964206e6f7420617070726f7660448201527f656420666f722066756e64696e670000000000000000000000000000000000006064820152608401610985565b611446824261428a565b8410156114d4576040517f08c379a0000000000000000000000000000000000000000000000000000000008152602060048201526024808201527f6465706f736974546f46696c6d3a207061737365642066756e64696e6720706560448201527f72696f64000000000000000000000000000000000000000000000000000000006064820152608401610985565b60006114e0338a612973565b905060006114f28a8a8a88868c6130c8565b9050816000036115435760008a81526005602090815260408220805460018101825590835291200180547fffffffffffffffffffffffff000000000000000000000000000000000000000016331790555b73ffffffffffffffffffffffffffffffffffffffff87166115e857803410156115c8576040517f08c379a000000000000000000000000000000000000000000000000000000000815260206004820181905260248201527f6465706f736974546f46696c6d3a20496e73756666696369656e7420706169646044820152606401610985565b803411156115e3576115e3336115de833461428a565b612b69565b6115f4565b6115f4873330846136bd565b6115ff8a88836138da565b6040805173ffffffffffffffffffffffffffffffffffffffff89168152602081018390529081018990528a9033907f30e3a946533ff77a88d61ba930e48f87faa9cdfec15edeb2775c40b91d4c07229060600160405180910390a350505050505061166a6001600055565b50505050565b6003602052816000526040600020818154811061168c57600080fd5b60009182526020909120600290910201805460019091015473ffffffffffffffffffffffffffffffffffffffff9091169250905082565b600460205282600052604060002060205281600052604060002081815481106116eb57600080fd5b60009182526020909120600290910201805460019091015473ffffffffffffffffffffffffffffffffffffffff90911693509150839050565b600081815260036020908152604080832080548251818502810185019093528083528493849084015b828210156117a25760008481526020908190206040805180820190915260028502909101805473ffffffffffffffffffffffffffffffffffffffff16825260019081015482840152908352909201910161174d565b5050825192935060009150505b81811015611836578281815181106117c9576117c961429d565b6020026020010151602001516000031561182e576118218382815181106117f2576117f261429d565b6020026020010151600001518483815181106118105761181061429d565b6020026020010151602001516103c8565b61182b90856142ee565b93505b6001016117af565b505050919050565b60008061184a83611724565b6001546040517f2c6cab340000000000000000000000000000000000000000000000000000000081526004810186905291925060009173ffffffffffffffffffffffffffffffffffffffff90911690632c6cab3490602401608060405180830381865afa1580156118bf573d6000803e3d6000fd5b505050506040513d601f19601f820116820180604052508101906118e39190614201565b5050509050816000141580156118f95750808210155b15611908575060019392505050565b5060009392505050565b61191a612af6565b6001546040517fcb3a60630000000000000000000000000000000000000000000000000000000081526004810183905260009173ffffffffffffffffffffffffffffffffffffffff169063cb3a606390602401602060405180830381865afa15801561198a573d6000803e3d6000fd5b505050506040513d601f19601f820116820180604052508101906119ae919061417b565b905073ffffffffffffffffffffffffffffffffffffffff81163314611a2f576040517f08c379a000000000000000000000000000000000000000000000000000000000815260206004820152601b60248201527f66756e6450726f636573733a206e6f742066696c6d206f776e657200000000006044820152606401610985565b60008281526006602052604090205460ff1615611aa8576040517f08c379a000000000000000000000000000000000000000000000000000000000815260206004820152601e60248201527f66756e6450726f636573733a20616c72656164792070726f63657373656400006044820152606401610985565b6001546040517fd5443afd0000000000000000000000000000000000000000000000000000000081526004810184905260009173ffffffffffffffffffffffffffffffffffffffff169063d5443afd90602401602060405180830381865afa158015611b18573d6000803e3d6000fd5b505050506040513d601f19601f82011682018060405250810190611b3c91906141b1565b90506003816005811115611b5257611b526141d2565b14611bdf576040517f08c379a000000000000000000000000000000000000000000000000000000000815260206004820152602c60248201527f66756e6450726f636573733a2066696c6d4964206e6f7420617070726f76656460448201527f20666f722066756e64696e6700000000000000000000000000000000000000006064820152608401610985565b6001546040517f2c6cab340000000000000000000000000000000000000000000000000000000081526004810185905260009173ffffffffffffffffffffffffffffffffffffffff1690632c6cab3490602401608060405180830381865afa158015611c4f573d6000803e3d6000fd5b505050506040513d601f19601f82011682018060405250810190611c739190614201565b50506001546040517f7bcd52b0000000000000000000000000000000000000000000000000000000008152600481018890529193506000925073ffffffffffffffffffffffffffffffffffffffff1690637bcd52b0906024016040805180830381865afa158015611ce8573d6000803e3d6000fd5b505050506040513d601f19601f82011682018060405250810190611d0c9190614237565b9150611d1a9050814261428a565b8210611d82576040517f08c379a000000000000000000000000000000000000000000000000000000000815260206004820152601b60248201527f66756e6450726f636573733a2066756e64696e6720706572696f6400000000006044820152606401610985565b611d8b8561183e565b611df1576040517f08c379a000000000000000000000000000000000000000000000000000000000815260206004820152601c60248201527f66756e6450726f636573733a206e6f742066756c6c20726169736564000000006044820152606401610985565b60007f000000000000000000000000000000000000000000000000000000000000000073ffffffffffffffffffffffffffffffffffffffff1663e2f6f5116040518163ffffffff1660e01b8152600401602060405180830381865afa158015611e5e573d6000803e3d6000fd5b505050506040513d601f19601f82011682018060405250810190611e82919061417b565b9050600060036000888152602001908152602001600020805480602002602001604051908101604052809291908181526020016000905b82821015611f0e5760008481526020908190206040805180820190915260028502909101805473ffffffffffffffffffffffffffffffffffffffff168252600190810154828401529083529092019101611eb9565b5050505090506000806000835190506103e88110611f88576040517f08c379a000000000000000000000000000000000000000000000000000000000815260206004820152601760248201527f66756e6450726f636573733a20626164206c656e6774680000000000000000006044820152606401610985565b60005b81811015612490576402540be4007f000000000000000000000000000000000000000000000000000000000000000073ffffffffffffffffffffffffffffffffffffffff166303b9b14c6040518163ffffffff1660e01b8152600401602060405180830381865afa158015612004573d6000803e3d6000fd5b505050506040513d601f19601f820116820180604052508101906120289190614198565b86838151811061203a5761203a61429d565b6020026020010151602001516120509190614301565b61205a9190614318565b925084818151811061206e5761206e61429d565b60200260200101516000015173ffffffffffffffffffffffffffffffffffffffff168673ffffffffffffffffffffffffffffffffffffffff16036120bd576120b683856142ee565b9350612438565b600073ffffffffffffffffffffffffffffffffffffffff168582815181106120e7576120e761429d565b60200260200101516000015173ffffffffffffffffffffffffffffffffffffffff160361213d576121387f000000000000000000000000000000000000000000000000000000000000000084612b69565b6122ec565b84818151811061214f5761214f61429d565b6020908102919091010151516040517fdd62ed3e00000000000000000000000000000000000000000000000000000000815230600482015273ffffffffffffffffffffffffffffffffffffffff7f0000000000000000000000000000000000000000000000000000000000000000811660248301529091169063dd62ed3e90604401602060405180830381865afa1580156121ee573d6000803e3d6000fd5b505050506040513d601f19601f820116820180604052508101906122129190614198565b6000036122ec576122ec85828151811061222e5761222e61429d565b6020026020010151600001517f000000000000000000000000000000000000000000000000000000000000000087848151811061226d5761226d61429d565b60200260200101516000015173ffffffffffffffffffffffffffffffffffffffff166318160ddd6040518163ffffffff1660e01b8152600401602060405180830381865afa1580156122c3573d6000803e3d6000fd5b505050506040513d601f19601f820116820180604052508101906122e79190614198565b613c17565b6000838683815181106123015761230161429d565b602002602001015160000151886040516020016123479392919092835273ffffffffffffffffffffffffffffffffffffffff918216602084015216604082015260600190565b604080517fffffffffffffffffffffffffffffffffffffffffffffffffffffffffffffffe0818403018152908290527fab4e9ba6000000000000000000000000000000000000000000000000000000008252915073ffffffffffffffffffffffffffffffffffffffff7f0000000000000000000000000000000000000000000000000000000000000000169063ab4e9ba6906123e7908490600401614377565b6020604051808303816000875af1158015612406573d6000803e3d6000fd5b505050506040513d601f19601f8201168201806040525081019061242a9190614198565b61243490866142ee565b9450505b61248885828151811061244d5761244d61429d565b602002602001015160000151338588858151811061246d5761246d61429d565b602002602001015160200151612483919061428a565b613e24565b600101611f8b565b508215612665576040517fdd62ed3e00000000000000000000000000000000000000000000000000000000815230600482015273ffffffffffffffffffffffffffffffffffffffff7f00000000000000000000000000000000000000000000000000000000000000008116602483015286169063dd62ed3e90604401602060405180830381865afa158015612529573d6000803e3d6000fd5b505050506040513d601f19601f8201168201806040525081019061254d9190614198565b6000036125c4576125c4857f00000000000000000000000000000000000000000000000000000000000000008773ffffffffffffffffffffffffffffffffffffffff166318160ddd6040518163ffffffff1660e01b8152600401602060405180830381865afa1580156122c3573d6000803e3d6000fd5b6040517f3a53ed49000000000000000000000000000000000000000000000000000000008152600481018490527f000000000000000000000000000000000000000000000000000000000000000073ffffffffffffffffffffffffffffffffffffffff1690633a53ed4990602401600060405180830381600087803b15801561264c57600080fd5b505af1158015612660573d6000803e3d6000fd5b505050505b6002805460018181019092557f405787fa12a823e0f2b7631cc41b3ba8828b3321ca811111fa75cd3aa3bb5ace018b905560008b81526006602052604080822080547fffffffffffffffffffffffffffffffffffffffffffffffffffffffffffffff0016909317909255905133918c917f088a6fa0128e80739695b2a99d03b1469fc21659a460d7bd1508c9e34e78a3ae9190a3505050505050505050610eea6001600055565b7f000000000000000000000000000000000000000000000000000000000000000073ffffffffffffffffffffffffffffffffffffffff1663d5f394886040518163ffffffff1660e01b8152600401602060405180830381865afa158015612777573d6000803e3d6000fd5b505050506040513d601f19601f8201168201806040525081019061279b919061417b565b73ffffffffffffffffffffffffffffffffffffffff163373ffffffffffffffffffffffffffffffffffffffff161461282f576040517f08c379a000000000000000000000000000000000000000000000000000000000815260206004820152601a60248201527f63616c6c6572206973206e6f7420746865206465706c6f7965720000000000006044820152606401610985565b60015473ffffffffffffffffffffffffffffffffffffffff16156128af576040517f08c379a000000000000000000000000000000000000000000000000000000000815260206004820152601f60248201527f696e697469616c697a653a20616c726561647920696e697469616c697a6564006044820152606401610985565b73ffffffffffffffffffffffffffffffffffffffff811661292c576040517f08c379a000000000000000000000000000000000000000000000000000000000815260206004820152601860248201527f696e697469616c697a653a207a65726f206164647265737300000000000000006044820152606401610985565b600180547fffffffffffffffffffffffff00000000000000000000000000000000000000001673ffffffffffffffffffffffffffffffffffffffff92909216919091179055565b600081815260046020908152604080832073ffffffffffffffffffffffffffffffffffffffff86168452825280832080548251818502810185019093528083528493849084015b82821015612a0f5760008481526020908190206040805180820190915260028502909101805473ffffffffffffffffffffffffffffffffffffffff1682526001908101548284015290835290920191016129ba565b5050825192935060009150505b81811015612a7457828181518110612a3657612a3661429d565b60200260200101516020015160000315612a6c57612a5f8382815181106117f2576117f261429d565b612a6990856142ee565b93505b600101612a1c565b50505092915050565b600081815260056020908152604091829020805483518184028101840190945280845260609392830182828015612aea57602002820191906000526020600020905b815473ffffffffffffffffffffffffffffffffffffffff168152600190910190602001808311612abf575b50505050509050919050565b600260005403612b62576040517f08c379a000000000000000000000000000000000000000000000000000000000815260206004820152601f60248201527f5265656e7472616e637947756172643a207265656e7472616e742063616c6c006044820152606401610985565b6002600055565b6040805160008082526020820190925273ffffffffffffffffffffffffffffffffffffffff8416908390604051612ba091906143c8565b60006040518083038185875af1925050503d8060008114612bdd576040519150601f19603f3d011682016040523d82523d6000602084013e612be2565b606091505b5050905080612c73576040517f08c379a000000000000000000000000000000000000000000000000000000000815260206004820152602f60248201527f566162626c6544414f3a3a736166655472616e736665724554483a204554482060448201527f7472616e73666572206661696c656400000000000000000000000000000000006064820152608401610985565b505050565b73ffffffffffffffffffffffffffffffffffffffff83163b612cf6576040517f08c379a000000000000000000000000000000000000000000000000000000000815260206004820152600160248201527f43000000000000000000000000000000000000000000000000000000000000006044820152606401610985565b6040805173ffffffffffffffffffffffffffffffffffffffff8481166024830152604480830185905283518084039091018152606490920183526020820180517bffffffffffffffffffffffffffffffffffffffffffffffffffffffff167fa9059cbb000000000000000000000000000000000000000000000000000000001790529151600092839290871691612d8d91906143c8565b6000604051808303816000865af19150503d8060008114612dca576040519150601f19603f3d011682016040523d82523d6000602084013e612dcf565b606091505b5091509150818015612df9575080511580612df9575080806020019051810190612df991906142cc565b612e85576040517f08c379a000000000000000000000000000000000000000000000000000000000815260206004820152602860248201527f566162626c6544414f3a3a736166655472616e736665723a207472616e73666560448201527f72206661696c65640000000000000000000000000000000000000000000000006064820152608401610985565b5050505050565b600082815260056020526040902054620186a08110612f2d576040517f08c379a000000000000000000000000000000000000000000000000000000000815260206004820152602260248201527f72656d6f766546696c6d496e766573746f724c6973743a20626164206c656e6760448201527f74680000000000000000000000000000000000000000000000000000000000006064820152608401610985565b60005b8181101561166a576000848152600560205260409020805482908110612f5857612f5861429d565b60009182526020909120015473ffffffffffffffffffffffffffffffffffffffff908116908416036130c05760008481526005602052604090208054612fa09060019061428a565b81548110612fb057612fb061429d565b600091825260208083209091015486835260059091526040909120805473ffffffffffffffffffffffffffffffffffffffff9092169183908110612ff657612ff661429d565b600091825260208083209190910180547fffffffffffffffffffffffff00000000000000000000000000000000000000001673ffffffffffffffffffffffffffffffffffffffff9490941693909317909255858152600590915260409020805480613063576130636143e4565b60008281526020902081017fffffffffffffffffffffffffffffffffffffffffffffffffffffffffffffffff90810180547fffffffffffffffffffffffff000000000000000000000000000000000000000016905501905561166a565b600101612f30565b6000846001036132735783600114806130e15750836003145b61316d576040517f08c379a000000000000000000000000000000000000000000000000000000000815260206004820152602560248201527f6465706f736974546f46696c6d3a206e6f742066756e6420747970652062792060448201527f746f6b656e0000000000000000000000000000000000000000000000000000006064820152608401610985565b5084600061317b83836103c8565b905061318f61318a82866142ee565b613e54565b6131f5576040517f08c379a000000000000000000000000000000000000000000000000000000000815260206004820152601e60248201527f6465706f736974546f46696c6d3a206c657373206d696e20616d6f756e7400006044820152606401610985565b61320761320282866142ee565b613ef4565b61326d576040517f08c379a000000000000000000000000000000000000000000000000000000000815260206004820152601e60248201527f6465706f736974546f46696c6d3a206f766572206d617820616d6f756e7400006044820152606401610985565b506136b3565b846002036136b357836002148061328a5750836003145b613316576040517f08c379a000000000000000000000000000000000000000000000000000000000815260206004820152602360248201527f6465706f736974546f46696c6d3a206e6f742066756e6420747970652062792060448201527f6e667400000000000000000000000000000000000000000000000000000000006064820152608401610985565b60008060007f000000000000000000000000000000000000000000000000000000000000000073ffffffffffffffffffffffffffffffffffffffff1663421895148b6040518263ffffffff1660e01b815260040161337691815260200190565b60a060405180830381865afa158015613393573d6000803e3d6000fd5b505050506040513d601f19601f820116820180604052508101906133b79190614413565b509350935093505060007f000000000000000000000000000000000000000000000000000000000000000073ffffffffffffffffffffffffffffffffffffffff166392ab723e8c6040518263ffffffff1660e01b815260040161341c91815260200190565b602060405180830381865afa158015613439573d6000803e3d6000fd5b505050506040513d601f19601f8201168201806040525081019061345d9190614198565b905073ffffffffffffffffffffffffffffffffffffffff8216613501576040517f08c379a0000000000000000000000000000000000000000000000000000000008152602060048201526024808201527f6465706f736974546f46696c6d3a206e6f74206465706c6f79656420666f722060448201527f66696c6d000000000000000000000000000000000000000000000000000000006064820152608401610985565b8360000361356b576040517f08c379a000000000000000000000000000000000000000000000000000000000815260206004820152601b60248201527f6465706f736974546f46696c6d3a206e6f206d696e7420696e666f00000000006044820152606401610985565b6135758a826142ee565b841015613604576040517f08c379a000000000000000000000000000000000000000000000000000000000815260206004820152602160248201527f6465706f736974546f46696c6d3a20657863656564206d696e7420616d6f756e60448201527f74000000000000000000000000000000000000000000000000000000000000006064820152608401610985565b6000613610848c614301565b905061361c8782610600565b955061362b613202828a6142ee565b613691576040517f08c379a000000000000000000000000000000000000000000000000000000000815260206004820152601e60248201527f6465706f736974546f46696c6d3a206f766572206d617820616d6f756e7400006044820152606401610985565b5050506000898152600760209081526040808320338452909152902088905550505b9695505050505050565b73ffffffffffffffffffffffffffffffffffffffff84163b61373b576040517f08c379a000000000000000000000000000000000000000000000000000000000815260206004820152600160248201527f43000000000000000000000000000000000000000000000000000000000000006044820152606401610985565b6040805173ffffffffffffffffffffffffffffffffffffffff85811660248301528481166044830152606480830185905283518084039091018152608490920183526020820180517bffffffffffffffffffffffffffffffffffffffffffffffffffffffff167f23b872dd0000000000000000000000000000000000000000000000000000000017905291516000928392908816916137da91906143c8565b6000604051808303816000865af19150503d8060008114613817576040519150601f19603f3d011682016040523d82523d6000602084013e61381c565b606091505b509150915081801561384657508051158061384657508080602001905181019061384691906142cc565b6138d2576040517f08c379a000000000000000000000000000000000000000000000000000000000815260206004820152602c60248201527f566162626c6544414f3a3a7472616e7366657246726f6d3a207472616e73666560448201527f7246726f6d206661696c656400000000000000000000000000000000000000006064820152608401610985565b505050505050565b60008381526004602090815260408083203384529091528120546001918291905b818110156139bf576000878152600460209081526040808320338452909152902080548290811061392e5761392e61429d565b600091825260209091206002909102015473ffffffffffffffffffffffffffffffffffffffff908116908716036139b7576000878152600460209081526040808320338452909152902080548691908390811061398d5761398d61429d565b906000526020600020906002020160010160008282546139ad91906142ee565b9091555060009450505b6001016138fb565b508215613a555760008681526004602090815260408083203384528252808320815180830190925273ffffffffffffffffffffffffffffffffffffffff8981168352828401898152825460018082018555938752949095209251600290940290920180547fffffffffffffffffffffffff0000000000000000000000000000000000000000169390921692909217815591519101555b6000868152600360205260409020546103e88110613acf576040517f08c379a000000000000000000000000000000000000000000000000000000000815260206004820152601760248201527f61737369676e546f6b656e3a20626164206c656e6774680000000000000000006044820152606401610985565b60005b81811015613b80576000888152600360205260409020805482908110613afa57613afa61429d565b600091825260209091206002909102015473ffffffffffffffffffffffffffffffffffffffff90811690881603613b78576000888152600360205260409020805487919083908110613b4e57613b4e61429d565b90600052602060002090600202016001016000828254613b6e91906142ee565b9091555060009450505b600101613ad2565b508215613c0e576000878152600360209081526040808320815180830190925273ffffffffffffffffffffffffffffffffffffffff8a811683528284018a8152825460018082018555938752949095209251600290940290920180547fffffffffffffffffffffffff0000000000000000000000000000000000000000169390921692909217815591519101555b50505050505050565b73ffffffffffffffffffffffffffffffffffffffff83163b613c95576040517f08c379a000000000000000000000000000000000000000000000000000000000815260206004820152600160248201527f43000000000000000000000000000000000000000000000000000000000000006044820152606401610985565b6040805173ffffffffffffffffffffffffffffffffffffffff8481166024830152604480830185905283518084039091018152606490920183526020820180517bffffffffffffffffffffffffffffffffffffffffffffffffffffffff167f095ea7b3000000000000000000000000000000000000000000000000000000001790529151600092839290871691613d2c91906143c8565b6000604051808303816000865af19150503d8060008114613d69576040519150601f19603f3d011682016040523d82523d6000602084013e613d6e565b606091505b5091509150818015613d98575080511580613d98575080806020019051810190613d9891906142cc565b612e85576040517f08c379a000000000000000000000000000000000000000000000000000000000815260206004820152602b60248201527f5472616e7366657248656c7065723a3a73616665417070726f76653a2061707060448201527f726f7665206661696c65640000000000000000000000000000000000000000006064820152608401610985565b73ffffffffffffffffffffffffffffffffffffffff8316613e4957612c738282612b69565b612c73838383612c78565b60007f000000000000000000000000000000000000000000000000000000000000000073ffffffffffffffffffffffffffffffffffffffff1663645006ca6040518163ffffffff1660e01b8152600401602060405180830381865afa158015613ec1573d6000803e3d6000fd5b505050506040513d601f19601f82011682018060405250810190613ee59190614198565b8210613eef575060015b919050565b60007f000000000000000000000000000000000000000000000000000000000000000073ffffffffffffffffffffffffffffffffffffffff16638ed832716040518163ffffffff1660e01b8152600401602060405180830381865afa158015613f61573d6000803e3d6000fd5b505050506040513d601f19601f82011682018060405250810190613f859190614198565b8211613eef57506001919050565b73ffffffffffffffffffffffffffffffffffffffff81168114610eea57600080fd5b60008060408385031215613fc857600080fd5b8235613fd381613f93565b946020939093013593505050565b6020808252825182820181905260009190848201906040850190845b8181101561401957835183529284019291840191600101613ffd565b50909695505050505050565b60006020828403121561403757600080fd5b5035919050565b6000806000806080858703121561405457600080fd5b843593506020850135925060408501359150606085013561407481613f93565b939692955090935050565b6000806040838503121561409257600080fd5b50508035926020909101359150565b6000806000606084860312156140b657600080fd5b8335925060208401356140c881613f93565b929592945050506040919091013590565b600080604083850312156140ec57600080fd5b8235915060208301356140fe81613f93565b809150509250929050565b60006020828403121561411b57600080fd5b813561412681613f93565b9392505050565b6020808252825182820181905260009190848201906040850190845b8181101561401957835173ffffffffffffffffffffffffffffffffffffffff1683529284019291840191600101614149565b60006020828403121561418d57600080fd5b815161412681613f93565b6000602082840312156141aa57600080fd5b5051919050565b6000602082840312156141c357600080fd5b81516006811061412657600080fd5b7f4e487b7100000000000000000000000000000000000000000000000000000000600052602160045260246000fd5b6000806000806080858703121561421757600080fd5b505082516020840151604085015160609095015191969095509092509050565b6000806040838503121561424a57600080fd5b505080516020909101519092909150565b7f4e487b7100000000000000000000000000000000000000000000000000000000600052601160045260246000fd5b818103818111156105fa576105fa61425b565b7f4e487b7100000000000000000000000000000000000000000000000000000000600052603260045260246000fd5b6000602082840312156142de57600080fd5b8151801515811461412657600080fd5b808201808211156105fa576105fa61425b565b80820281158282048414176105fa576105fa61425b565b60008261434e577f4e487b7100000000000000000000000000000000000000000000000000000000600052601260045260246000fd5b500490565b60005b8381101561436e578181015183820152602001614356565b50506000910152565b6020815260008251806020840152614396816040850160208701614353565b601f017fffffffffffffffffffffffffffffffffffffffffffffffffffffffffffffffe0169190910160400192915050565b600082516143da818460208701614353565b9190910192915050565b7f4e487b7100000000000000000000000000000000000000000000000000000000600052603160045260246000fd5b600080600080600060a0868803121561442b57600080fd5b855194506020860151935060408601519250606086015161444b81613f93565b608087015190925061445c81613f93565b80915050929550929590935056fea2646970667358221220551d38b3ca165221d2d938d8032a7498fae8d10095c9fb77d78ccc0766c1475264736f6c63430008180033","linkReferences":{}},"methodIdentifiers":{"VABBLE_DAO()":"986c1b59","__getExpectedTokenAmount(address,uint256)":"0a913893","__getExpectedUsdcAmount(address,uint256)":"01733baf","assetInfo(uint256,address,uint256)":"90cc5ea0","assetPerFilm(uint256,uint256)":"903859f4","depositToFilm(uint256,uint256,uint256,address)":"7682e4f1","fundProcess(uint256)":"a2bfda8f","getAllowUserNftCount(uint256,address)":"9d6af27f","getFilmInvestorList(uint256)":"e948159c","getFundProcessedFilmIdList()":"2c368afe","getTotalFundAmountPerFilm(uint256)":"93b1138b","getUserFundAmountPerFilm(address,uint256)":"e4ed62ff","initialize(address)":"c4d66de8","isFundProcessed(uint256)":"d0bae3f9","isRaisedFullAmount(uint256)":"9b6034a9","withdrawFunding(uint256)":"3697f055"},"id":10}