{"abi":[{"type":"constructor","inputs":[{"name":"_ownable","type":"address","internalType":"address"},{"name":"_vabbleDAO","type":"address","internalType":"address"},{"name":"_vabbleFund","type":"address","internalType":"address"}],"stateMutability":"nonpayable"},{"type":"function","name":"baseUri","inputs":[],"outputs":[{"name":"","type":"string","internalType":"string"}],"stateMutability":"view"},{"type":"function","name":"collectionUri","inputs":[],"outputs":[{"name":"","type":"string","internalType":"string"}],"stateMutability":"view"},{"type":"function","name":"deployTierNFTContract","inputs":[{"name":"_filmId","type":"uint256","internalType":"uint256"},{"name":"_tier","type":"uint256","internalType":"uint256"},{"name":"_name","type":"string","internalType":"string"},{"name":"_symbol","type":"string","internalType":"string"}],"outputs":[],"stateMutability":"nonpayable"},{"type":"function","name":"getNFTOwner","inputs":[{"name":"_filmId","type":"uint256","internalType":"uint256"},{"name":"_tokenId","type":"uint256","internalType":"uint256"},{"name":"_tier","type":"uint256","internalType":"uint256"}],"outputs":[{"name":"","type":"address","internalType":"address"}],"stateMutability":"view"},{"type":"function","name":"getTierTokenIdList","inputs":[{"name":"_filmId","type":"uint256","internalType":"uint256"},{"name":"_tier","type":"uint256","internalType":"uint256"}],"outputs":[{"name":"","type":"uint256[]","internalType":"uint256[]"}],"stateMutability":"view"},{"type":"function","name":"getTokenUri","inputs":[{"name":"_filmId","type":"uint256","internalType":"uint256"},{"name":"_tokenId","type":"uint256","internalType":"uint256"},{"name":"_tier","type":"uint256","internalType":"uint256"}],"outputs":[{"name":"","type":"string","internalType":"string"}],"stateMutability":"view"},{"type":"function","name":"getTotalSupply","inputs":[{"name":"_filmId","type":"uint256","internalType":"uint256"},{"name":"_tier","type":"uint256","internalType":"uint256"}],"outputs":[{"name":"","type":"uint256","internalType":"uint256"}],"stateMutability":"view"},{"type":"function","name":"getUserTierNFTs","inputs":[{"name":"_user","type":"address","internalType":"address"}],"outputs":[{"name":"","type":"address[]","internalType":"address[]"}],"stateMutability":"view"},{"type":"function","name":"getUserTokenIdList","inputs":[{"name":"_filmId","type":"uint256","internalType":"uint256"},{"name":"_owner","type":"address","internalType":"address"},{"name":"_tier","type":"uint256","internalType":"uint256"}],"outputs":[{"name":"","type":"uint256[]","internalType":"uint256[]"}],"stateMutability":"view"},{"type":"function","name":"mintTierNft","inputs":[{"name":"_filmId","type":"uint256","internalType":"uint256"}],"outputs":[],"stateMutability":"nonpayable"},{"type":"function","name":"nftInfo","inputs":[{"name":"","type":"address","internalType":"address"}],"outputs":[{"name":"name","type":"string","internalType":"string"},{"name":"symbol","type":"string","internalType":"string"}],"stateMutability":"view"},{"type":"function","name":"setBaseURI","inputs":[{"name":"_baseUri","type":"string","internalType":"string"},{"name":"_collectionUri","type":"string","internalType":"string"}],"outputs":[],"stateMutability":"nonpayable"},{"type":"function","name":"setTierInfo","inputs":[{"name":"_filmId","type":"uint256","internalType":"uint256"},{"name":"_minAmounts","type":"uint256[]","internalType":"uint256[]"},{"name":"_maxAmounts","type":"uint256[]","internalType":"uint256[]"}],"outputs":[],"stateMutability":"nonpayable"},{"type":"function","name":"tierCount","inputs":[{"name":"","type":"uint256","internalType":"uint256"}],"outputs":[{"name":"","type":"uint256","internalType":"uint256"}],"stateMutability":"view"},{"type":"function","name":"tierInfo","inputs":[{"name":"","type":"uint256","internalType":"uint256"},{"name":"","type":"uint256","internalType":"uint256"}],"outputs":[{"name":"maxAmount","type":"uint256","internalType":"uint256"},{"name":"minAmount","type":"uint256","internalType":"uint256"}],"stateMutability":"view"},{"type":"function","name":"tierNFTContract","inputs":[{"name":"","type":"uint256","internalType":"uint256"},{"name":"","type":"uint256","internalType":"uint256"}],"outputs":[{"name":"","type":"address","internalType":"contract VabbleNFT"}],"stateMutability":"view"},{"type":"function","name":"tierNFTTokenList","inputs":[{"name":"","type":"uint256","internalType":"uint256"},{"name":"","type":"uint256","internalType":"uint256"},{"name":"","type":"uint256","internalType":"uint256"}],"outputs":[{"name":"","type":"uint256","internalType":"uint256"}],"stateMutability":"view"},{"type":"event","name":"TierERC721Created","inputs":[{"name":"nftCreator","type":"address","indexed":false,"internalType":"address"},{"name":"nftContract","type":"address","indexed":false,"internalType":"address"},{"name":"tier","type":"uint256","indexed":true,"internalType":"uint256"}],"anonymous":false},{"type":"event","name":"TierERC721Minted","inputs":[{"name":"nftContract","type":"address","indexed":false,"internalType":"address"},{"name":"tokenId","type":"uint256","indexed":true,"internalType":"uint256"},{"name":"receiver","type":"address","indexed":false,"internalType":"address"}],"anonymous":false},{"type":"event","name":"TierInfoSetted","inputs":[{"name":"filmOwner","type":"address","indexed":false,"internalType":"address"},{"name":"filmId","type":"uint256","indexed":true,"internalType":"uint256"},{"name":"tierCount","type":"uint256","indexed":false,"internalType":"uint256"}],"anonymous":false}],"bytecode":{"object":"0x60e06040523480156200001157600080fd5b5060405162004f2738038062004f27833981016040819052620000349162000183565b60016000556001600160a01b038316620000955760405162461bcd60e51b815260206004820152601d60248201527f6f776e61626c65436f6e74726163743a207a65726f206164647265737300000060448201526064015b60405180910390fd5b6001600160a01b038084166080528216620000f35760405162461bcd60e51b815260206004820152601960248201527f64616f436f6e74726163743a207a65726f20616464726573730000000000000060448201526064016200008c565b6001600160a01b0380831660a0528116620001515760405162461bcd60e51b815260206004820152601860248201527f766162626c6546756e643a207a65726f2061646472657373000000000000000060448201526064016200008c565b6001600160a01b031660c05250620001cd9050565b80516001600160a01b03811681146200017e57600080fd5b919050565b6000806000606084860312156200019957600080fd5b620001a48462000166565b9250620001b46020850162000166565b9150620001c46040850162000166565b90509250925092565b60805160a05160c051614d07620002206000396000818161090001526114d90152600081816105fc015281816106d60152818161077f01528181610ef1015261139301526000610c200152614d076000f3fe60806040523480156200001157600080fd5b5060043610620001325760003560e01c80639abc832011620000c0578063defcd4b3116200008b578063ee584da4116200006e578063ee584da414620002f6578063f35aaffe1462000360578063f40bfed9146200037757600080fd5b8063defcd4b314620002c5578063e9545b9214620002cf57600080fd5b80639abc832014620002245780639d4d1a04146200023d578063b02823f91462000288578063bc27582914620002ae57600080fd5b806349b37674116200010157806349b3767414620001c65780636790a9de14620001df5780637dfa14be14620001f65780638bbda6e7146200020d57600080fd5b80632f315fe614620001375780634276c706146200016657806348380a10146200018c578063486eab5714620001af575b600080fd5b6200014e6200014836600462001b50565b6200038e565b6040516200015d919062001b8b565b60405180910390f35b6200017d6200017736600462001bd1565b6200044a565b6040519081526020016200015d565b6200017d6200019d36600462001bfe565b60066020526000908152604090205481565b6200014e620001c036600462001c18565b62000489565b620001dd620001d736600462001c8a565b620004f7565b005b620001dd620001f036600462001df5565b62000c1e565b6200017d6200020736600462001c18565b62000df3565b620001dd6200021e36600462001e60565b62000ea1565b6200022e620011d3565b6040516200015d919062001f32565b620002726200024e36600462001c18565b60056020908152600092835260408084209091529082529020805460019091015482565b604080519283526020830191909152016200015d565b6200029f6200029936600462001f47565b62001269565b6040516200015d919062001f67565b620001dd620002bf36600462001bfe565b620012fb565b6200022e62001819565b620002e6620002e036600462001f47565b62001828565b6040516200015d92919062001fb7565b6200033a6200030736600462001c18565b600760209081526000928352604080842090915290825290205473ffffffffffffffffffffffffffffffffffffffff1681565b60405173ffffffffffffffffffffffffffffffffffffffff90911681526020016200015d565b6200022e6200037136600462001bd1565b62001964565b6200033a6200038836600462001bd1565b62001a17565b6000838152600760209081526040808320848452909152908190205490517f8097110300000000000000000000000000000000000000000000000000000000815273ffffffffffffffffffffffffffffffffffffffff84811660048301526060921690638097110390602401600060405180830381865afa15801562000418573d6000803e3d6000fd5b505050506040513d6000823e601f3d908101601f1916820160405262000442919081019062001fe9565b949350505050565b600860205282600052604060002060205281600052604060002081815481106200047357600080fd5b9060005260206000200160009250925050505481565b6000828152600860209081526040808320848452825291829020805483518184028101840190945280845260609392830182828015620004e957602002820191906000526020600020905b815481526020019060010190808311620004d4575b505050505090505b92915050565b6200050162001ac4565b8280158015906200051357506103e881105b620005655760405162461bcd60e51b815260206004820152601d60248201527f736574546965723a20626164206d696e416d6f756e74206c656e67746800000060448201526064015b60405180910390fd5b808214620005b65760405162461bcd60e51b815260206004820152601d60248201527f736574546965723a20626164206d6178416d6f756e74206c656e67746800000060448201526064016200055c565b6040517fcb3a606300000000000000000000000000000000000000000000000000000000815260048101879052339073ffffffffffffffffffffffffffffffffffffffff7f0000000000000000000000000000000000000000000000000000000000000000169063cb3a606390602401602060405180830381865afa15801562000644573d6000803e3d6000fd5b505050506040513d601f19601f820116820180604052508101906200066a91906200209a565b73ffffffffffffffffffffffffffffffffffffffff1614620006cf5760405162461bcd60e51b815260206004820152601760248201527f736574546965723a206e6f742066696c6d206f776e657200000000000000000060448201526064016200055c565b60008060007f000000000000000000000000000000000000000000000000000000000000000073ffffffffffffffffffffffffffffffffffffffff16632c6cab348a6040518263ffffffff1660e01b81526004016200073091815260200190565b608060405180830381865afa1580156200074e573d6000803e3d6000fd5b505050506040513d601f19601f82011682018060405250810190620007749190620020ba565b5092509250925060007f000000000000000000000000000000000000000000000000000000000000000073ffffffffffffffffffffffffffffffffffffffff16637bcd52b08b6040518263ffffffff1660e01b8152600401620007d991815260200190565b6040805180830381865afa158015620007f6573d6000803e3d6000fd5b505050506040513d601f19601f820116820180604052508101906200081c9190620020f1565b91506200082c9050814262002145565b83106200087c5760405162461bcd60e51b815260206004820152601860248201527f736574546965723a2066756e6420706572696f6420796574000000000000000060448201526064016200055c565b81600003620008ce5760405162461bcd60e51b815260206004820152601660248201527f736574546965723a206e6f742066756e642066696c6d0000000000000000000060448201526064016200055c565b6040517f93b1138b000000000000000000000000000000000000000000000000000000008152600481018b90526000907f000000000000000000000000000000000000000000000000000000000000000073ffffffffffffffffffffffffffffffffffffffff16906393b1138b90602401602060405180830381865afa1580156200095d573d6000803e3d6000fd5b505050506040513d601f19601f820116820180604052508101906200098391906200215b565b90508015801590620009955750848110155b620009e35760405162461bcd60e51b815260206004820152601760248201527f736574546965723a206e6f74207261697365642079657400000000000000000060448201526064016200055c565b60005b8681101562000bb8578a8a8281811062000a045762000a0462002175565b9050602002013560000362000a5c5760405162461bcd60e51b815260206004820152601360248201527f736574546965723a207a65726f2076616c75650000000000000000000000000060448201526064016200055c565b88888281811062000a715762000a7162002175565b905060200201358b8b8381811062000a8d5762000a8d62002175565b90506020020135108062000abc575088888281811062000ab15762000ab162002175565b905060200201356000145b62000b0a5760405162461bcd60e51b815260206004820152601e60248201527f736574546965723a20696e76616c6964206d696e2f6d61782076616c7565000060448201526064016200055c565b8a8a8281811062000b1f5762000b1f62002175565b90506020020135600560008e8152602001908152602001600020600083600162000b4a9190620021a4565b815260208101919091526040016000206001015588888281811062000b735762000b7362002175565b90506020020135600560008e8152602001908152602001600020600083600162000b9e9190620021a4565b8152602081019190915260400160002055600101620009e6565b5060008b81526006602090815260409182902088905581513381529081018890528c917f8cf6a53fc5d0e5e054fe035dae5fa939f063a7427770c3e3b28dd2a8d8a6cb26910160405180910390a250505050505062000c176001600055565b5050505050565b7f000000000000000000000000000000000000000000000000000000000000000073ffffffffffffffffffffffffffffffffffffffff16633ec045a66040518163ffffffff1660e01b8152600401602060405180830381865afa15801562000c8a573d6000803e3d6000fd5b505050506040513d601f19601f8201168201806040525081019062000cb091906200209a565b73ffffffffffffffffffffffffffffffffffffffff163373ffffffffffffffffffffffffffffffffffffffff161462000d2c5760405162461bcd60e51b815260206004820152601960248201527f63616c6c6572206973206e6f74207468652061756469746f720000000000000060448201526064016200055c565b8151829060000362000d815760405162461bcd60e51b815260206004820152600d60248201527f656d70747920626173655572690000000000000000000000000000000000000060448201526064016200055c565b8151829060000362000dd65760405162461bcd60e51b815260206004820152601360248201527f656d70747920636f6c6c656374696f6e5572690000000000000000000000000060448201526064016200055c565b600162000de4858262002264565b50600262000c17848262002264565b600082815260076020908152604080832084845282528083205481517f18160ddd000000000000000000000000000000000000000000000000000000008152915173ffffffffffffffffffffffffffffffffffffffff909116926318160ddd92600480820193918290030181865afa15801562000e74573d6000803e3d6000fd5b505050506040513d601f19601f8201168201806040525081019062000e9a91906200215b565b9392505050565b62000eab62001ac4565b6040517fcb3a606300000000000000000000000000000000000000000000000000000000815260048101859052339073ffffffffffffffffffffffffffffffffffffffff7f0000000000000000000000000000000000000000000000000000000000000000169063cb3a606390602401602060405180830381865afa15801562000f39573d6000803e3d6000fd5b505050506040513d601f19601f8201168201806040525081019062000f5f91906200209a565b73ffffffffffffffffffffffffffffffffffffffff161462000fc45760405162461bcd60e51b815260206004820152601a60248201527f6465706c6f79546965723a206e6f742066696c6d206f776e657200000000000060448201526064016200055c565b82600003620010165760405162461bcd60e51b815260206004820152601560248201527f6465706c6f79546965723a207a65726f2074696572000000000000000000000060448201526064016200055c565b60008481526005602090815260408083208684529091528120600101549003620010835760405162461bcd60e51b815260206004820152601860248201527f6465706c6f79546965723a206e6f74207365742074696572000000000000000060448201526064016200055c565b6000600160028484306040516200109a9062001b1f565b620010aa95949392919062002410565b604051809103906000f080158015620010c7573d6000803e3d6000fd5b5060008681526007602090815260408083208884528252808320805473ffffffffffffffffffffffffffffffffffffffff86167fffffffffffffffffffffffff0000000000000000000000000000000000000000918216811790925533855260048452828520805460018101825590865284862001805490911682179055835260039091529020909150806200115e858262002264565b50600181016200116f848262002264565b506040805133815273ffffffffffffffffffffffffffffffffffffffff8416602082015286917ff6f691af70bf0f12df78809c3904446967256ba7a30057b3aa09cbceaa3b125b910160405180910390a25050620011cd6001600055565b50505050565b60018054620011e290620021ba565b80601f01602080910402602001604051908101604052809291908181526020018280546200121090620021ba565b8015620012615780601f10620012355761010080835404028352916020019162001261565b820191906000526020600020905b8154815290600101906020018083116200124357829003601f168201915b505050505081565b73ffffffffffffffffffffffffffffffffffffffff8116600090815260046020908152604091829020805483518184028101840190945280845260609392830182828015620012ef57602002820191906000526020600020905b815473ffffffffffffffffffffffffffffffffffffffff168152600190910190602001808311620012c3575b50505050509050919050565b6200130562001ac4565b6000818152600660205260408120549003620013645760405162461bcd60e51b815260206004820152601660248201527f6d696e74546965723a206e6f742073657420746965720000000000000000000060448201526064016200055c565b6040517fc330686c000000000000000000000000000000000000000000000000000000008152600481018290527f000000000000000000000000000000000000000000000000000000000000000073ffffffffffffffffffffffffffffffffffffffff169063c330686c90602401602060405180830381865afa158015620013f0573d6000803e3d6000fd5b505050506040513d601f19601f820116820180604052508101906200141691906200248e565b6200148a5760405162461bcd60e51b815260206004820152602560248201527f6465706c6f79546965723a206e6f7420616c6c6f7720746f206d696e7420746960448201527f65724e667400000000000000000000000000000000000000000000000000000060648201526084016200055c565b6040517fe4ed62ff00000000000000000000000000000000000000000000000000000000815233600482015260248101829052600090819073ffffffffffffffffffffffffffffffffffffffff7f0000000000000000000000000000000000000000000000000000000000000000169063e4ed62ff90604401602060405180830381865afa15801562001521573d6000803e3d6000fd5b505050506040513d601f19601f820116820180604052508101906200154791906200215b565b905060015b60008481526006602052604090205481116200161d5760008481526005602090815260408083208484529091528120549003620015b65760008481526005602090815260408083208484529091529020600101548211620015b0578092506200161d565b6200160a565b60008481526005602090815260408083208484529091529020600101548210801590620015fb5750600084815260056020908152604080832084845290915290205482105b156200160a578092506200161d565b6200161581620024b2565b90506200154c565b5081600003620016705760405162461bcd60e51b815260206004820152601660248201527f6d696e74546965723a2062616420696e766573746f720000000000000000000060448201526064016200055c565b60006200167f8433856200038e565b90508051600014620016d45760405162461bcd60e51b815260206004820152601860248201527f6d696e74546965723a20616c7265616479206d696e746564000000000000000060448201526064016200055c565b60008481526007602090815260408083208684529091528082205490517f755edd1700000000000000000000000000000000000000000000000000000000815233600482015273ffffffffffffffffffffffffffffffffffffffff9091169190829063755edd17906024016020604051808303816000875af11580156200175f573d6000803e3d6000fd5b505050506040513d601f19601f820116820180604052508101906200178591906200215b565b60008781526008602090815260408083208984528252808320805460018101825590845292829020909201839055815173ffffffffffffffffffffffffffffffffffffffff86168152339181019190915291925082917f40dcec50614e0f57bbe5c4a61c9db9ac56a25080ee9fdf71f88ff864e51712cb910160405180910390a25050505050620018166001600055565b50565b60028054620011e290620021ba565b6003602052600090815260409020805481906200184590620021ba565b80601f01602080910402602001604051908101604052809291908181526020018280546200187390620021ba565b8015620018c45780601f106200189857610100808354040283529160200191620018c4565b820191906000526020600020905b815481529060010190602001808311620018a657829003601f168201915b505050505090806001018054620018db90620021ba565b80601f01602080910402602001604051908101604052809291908181526020018280546200190990620021ba565b80156200195a5780601f106200192e576101008083540402835291602001916200195a565b820191906000526020600020905b8154815290600101906020018083116200193c57829003601f168201915b5050505050905082565b6000838152600760209081526040808320848452909152908190205490517fc87b56dd0000000000000000000000000000000000000000000000000000000081526004810184905260609173ffffffffffffffffffffffffffffffffffffffff169063c87b56dd90602401600060405180830381865afa158015620019ed573d6000803e3d6000fd5b505050506040513d6000823e601f3d908101601f19168201604052620004429190810190620024ed565b60008381526007602090815260408083208484529091528082205490517f6352211e0000000000000000000000000000000000000000000000000000000081526004810185905273ffffffffffffffffffffffffffffffffffffffff90911690636352211e90602401602060405180830381865afa15801562001a9e573d6000803e3d6000fd5b505050506040513d601f19601f820116820180604052508101906200044291906200209a565b60026000540362001b185760405162461bcd60e51b815260206004820152601f60248201527f5265656e7472616e637947756172643a207265656e7472616e742063616c6c0060448201526064016200055c565b6002600055565b61276d806200256583390190565b73ffffffffffffffffffffffffffffffffffffffff811681146200181657600080fd5b60008060006060848603121562001b6657600080fd5b83359250602084013562001b7a8162001b2d565b929592945050506040919091013590565b6020808252825182820181905260009190848201906040850190845b8181101562001bc55783518352928401929184019160010162001ba7565b50909695505050505050565b60008060006060848603121562001be757600080fd5b505081359360208301359350604090920135919050565b60006020828403121562001c1157600080fd5b5035919050565b6000806040838503121562001c2c57600080fd5b50508035926020909101359150565b60008083601f84011262001c4e57600080fd5b50813567ffffffffffffffff81111562001c6757600080fd5b6020830191508360208260051b850101111562001c8357600080fd5b9250929050565b60008060008060006060868803121562001ca357600080fd5b85359450602086013567ffffffffffffffff8082111562001cc357600080fd5b62001cd189838a0162001c3b565b9096509450604088013591508082111562001ceb57600080fd5b5062001cfa8882890162001c3b565b969995985093965092949392505050565b7f4e487b7100000000000000000000000000000000000000000000000000000000600052604160045260246000fd5b604051601f8201601f1916810167ffffffffffffffff8111828210171562001d665762001d6662001d0b565b604052919050565b600067ffffffffffffffff82111562001d8b5762001d8b62001d0b565b50601f01601f191660200190565b600082601f83011262001dab57600080fd5b813562001dc262001dbc8262001d6e565b62001d3a565b81815284602083860101111562001dd857600080fd5b816020850160208301376000918101602001919091529392505050565b6000806040838503121562001e0957600080fd5b823567ffffffffffffffff8082111562001e2257600080fd5b62001e308683870162001d99565b9350602085013591508082111562001e4757600080fd5b5062001e568582860162001d99565b9150509250929050565b6000806000806080858703121562001e7757600080fd5b8435935060208501359250604085013567ffffffffffffffff8082111562001e9e57600080fd5b62001eac8883890162001d99565b9350606087013591508082111562001ec357600080fd5b5062001ed28782880162001d99565b91505092959194509250565b60005b8381101562001efb57818101518382015260200162001ee1565b50506000910152565b6000815180845262001f1e81602086016020860162001ede565b601f01601f19169290920160200192915050565b60208152600062000e9a602083018462001f04565b60006020828403121562001f5a57600080fd5b813562000e9a8162001b2d565b6020808252825182820181905260009190848201906040850190845b8181101562001bc557835173ffffffffffffffffffffffffffffffffffffffff168352928401929184019160010162001f83565b60408152600062001fcc604083018562001f04565b828103602084015262001fe0818562001f04565b95945050505050565b6000602080838503121562001ffd57600080fd5b825167ffffffffffffffff808211156200201657600080fd5b818501915085601f8301126200202b57600080fd5b81518181111562002040576200204062001d0b565b8060051b91506200205384830162001d3a565b81815291830184019184810190888411156200206e57600080fd5b938501935b838510156200208e5784518252938501939085019062002073565b98975050505050505050565b600060208284031215620020ad57600080fd5b815162000e9a8162001b2d565b60008060008060808587031215620020d157600080fd5b505082516020840151604085015160609095015191969095509092509050565b600080604083850312156200210557600080fd5b505080516020909101519092909150565b7f4e487b7100000000000000000000000000000000000000000000000000000000600052601160045260246000fd5b81810381811115620004f157620004f162002116565b6000602082840312156200216e57600080fd5b5051919050565b7f4e487b7100000000000000000000000000000000000000000000000000000000600052603260045260246000fd5b80820180821115620004f157620004f162002116565b600181811c90821680620021cf57607f821691505b60208210810362002209577f4e487b7100000000000000000000000000000000000000000000000000000000600052602260045260246000fd5b50919050565b601f8211156200225f576000816000526020600020601f850160051c810160208610156200223a5750805b601f850160051c820191505b818110156200225b5782815560010162002246565b5050505b505050565b815167ffffffffffffffff81111562002281576200228162001d0b565b6200229981620022928454620021ba565b846200220f565b602080601f831160018114620022ef5760008415620022b85750858301515b7fffffffffffffffffffffffffffffffffffffffffffffffffffffffffffffffff600386901b1c1916600185901b1785556200225b565b600085815260208120601f198616915b828110156200232057888601518255948401946001909101908401620022ff565b50858210156200235d57878501517fffffffffffffffffffffffffffffffffffffffffffffffffffffffffffffffff600388901b60f8161c191681555b5050505050600190811b01905550565b600081546200237c81620021ba565b8085526020600183811680156200239c5760018114620023d55762002405565b7fffffffffffffffffffffffffffffffffffffffffffffffffffffffffffffff008516838901528284151560051b890101955062002405565b866000528260002060005b85811015620023fd5781548a8201860152908301908401620023e0565b890184019650505b505050505092915050565b60a0815260006200242560a08301886200236d565b82810360208401526200243981886200236d565b905082810360408401526200244f818762001f04565b9050828103606084015262002465818662001f04565b91505073ffffffffffffffffffffffffffffffffffffffff831660808301529695505050505050565b600060208284031215620024a157600080fd5b8151801515811462000e9a57600080fd5b60007fffffffffffffffffffffffffffffffffffffffffffffffffffffffffffffffff8203620024e657620024e662002116565b5060010190565b6000602082840312156200250057600080fd5b815167ffffffffffffffff8111156200251857600080fd5b8201601f810184136200252a57600080fd5b80516200253b62001dbc8262001d6e565b8181528560208385010111156200255157600080fd5b62001fe082602083016020860162001ede56fe60a06040523480156200001157600080fd5b506040516200276d3803806200276d833981016040819052620000349162000158565b82826002620000448382620002c6565b506003620000538282620002c6565b50506001600c5550600e620000698682620002c6565b50600f620000788582620002c6565b506001600160a01b0316608052506200039292505050565b634e487b7160e01b600052604160045260246000fd5b600082601f830112620000b857600080fd5b81516001600160401b0380821115620000d557620000d562000090565b604051601f8301601f19908116603f0116810190828211818310171562000100576200010062000090565b81604052838152602092508660208588010111156200011e57600080fd5b600091505b8382101562000142578582018301518183018401529082019062000123565b6000602085830101528094505050505092915050565b600080600080600060a086880312156200017157600080fd5b85516001600160401b03808211156200018957600080fd5b6200019789838a01620000a6565b96506020880151915080821115620001ae57600080fd5b620001bc89838a01620000a6565b95506040880151915080821115620001d357600080fd5b620001e189838a01620000a6565b94506060880151915080821115620001f857600080fd5b506200020788828901620000a6565b608088015190935090506001600160a01b03811681146200022757600080fd5b809150509295509295909350565b600181811c908216806200024a57607f821691505b6020821081036200026b57634e487b7160e01b600052602260045260246000fd5b50919050565b601f821115620002c1576000816000526020600020601f850160051c810160208610156200029c5750805b601f850160051c820191505b81811015620002bd57828155600101620002a8565b5050505b505050565b81516001600160401b03811115620002e257620002e262000090565b620002fa81620002f3845462000235565b8462000271565b602080601f831160018114620003325760008415620003195750858301515b600019600386901b1c1916600185901b178555620002bd565b600085815260208120601f198616915b82811015620003635788860151825594840194600190910190840162000342565b5085821015620003825787850151600019600388901b60f8161c191681555b5050505050600190811b01905550565b6080516123b8620003b56000396000818161027a01526109c501526123b86000f3fe608060405234801561001057600080fd5b50600436106101985760003560e01c806370a08231116100e3578063a22cb4651161008c578063defcd4b311610066578063defcd4b31461038a578063e8a3d48514610392578063e985e9c51461039a57600080fd5b8063a22cb46514610351578063b88d4fde14610364578063c87b56dd1461037757600080fd5b80639036c050116100bd5780639036c0501461032e57806395d89b41146103415780639abc83201461034957600080fd5b806370a08231146102e8578063755edd17146102fb578063809711031461030e57600080fd5b80632a55205a1161014557806342842e0e1161011f57806342842e0e146102af5780634f6ccce7146102c25780636352211e146102d557600080fd5b80632a55205a146102435780632dd31000146102755780632f745c591461029c57600080fd5b8063095ea7b311610176578063095ea7b31461020557806318160ddd1461021a57806323b872dd1461023057600080fd5b806301ffc9a71461019d57806306fdde03146101c5578063081812fc146101da575b600080fd5b6101b06101ab366004611d48565b6103d6565b60405190151581526020015b60405180910390f35b6101cd6103e7565b6040516101bc9190611dda565b6101ed6101e8366004611ded565b610479565b6040516001600160a01b0390911681526020016101bc565b610218610213366004611e1d565b6104a0565b005b6102226105d6565b6040519081526020016101bc565b61021861023e366004611e47565b6105e6565b610256610251366004611e83565b61066d565b604080516001600160a01b0390931683526020830191909152016101bc565b6101ed7f000000000000000000000000000000000000000000000000000000000000000081565b6102226102aa366004611e1d565b61074a565b6102186102bd366004611e47565b6107f2565b6102226102d0366004611ded565b61080d565b6101ed6102e3366004611ded565b6108b1565b6102226102f6366004611ea5565b610916565b610222610309366004611ea5565b6109b0565b61032161031c366004611ea5565b610a7f565b6040516101bc9190611ec0565b61021861033c366004611f04565b610b16565b6101cd610b2e565b6101cd610b3d565b61021861035f366004611f30565b610bcb565b610218610372366004611f9b565b610bda565b6101cd610385366004611ded565b610c68565b6101cd610d27565b6101cd610d34565b6101b06103a8366004612095565b6001600160a01b03918216600090815260076020908152604080832093909416825291909152205460ff1690565b60006103e182610d43565b92915050565b6060600280546103f6906120bf565b80601f0160208091040260200160405190810160405280929190818152602001828054610422906120bf565b801561046f5780601f106104445761010080835404028352916020019161046f565b820191906000526020600020905b81548152906001019060200180831161045257829003601f168201915b5050505050905090565b600061048482610d99565b506000908152600660205260409020546001600160a01b031690565b60006104ab826108b1565b9050806001600160a01b0316836001600160a01b0316036105395760405162461bcd60e51b815260206004820152602160248201527f4552433732313a20617070726f76616c20746f2063757272656e74206f776e6560448201527f720000000000000000000000000000000000000000000000000000000000000060648201526084015b60405180910390fd5b336001600160a01b0382161480610555575061055581336103a8565b6105c75760405162461bcd60e51b815260206004820152603d60248201527f4552433732313a20617070726f76652063616c6c6572206973206e6f7420746f60448201527f6b656e206f776e6572206f7220617070726f76656420666f7220616c6c0000006064820152608401610530565b6105d18383610e00565b505050565b60006105e1600d5490565b905090565b6105f03382610e86565b6106625760405162461bcd60e51b815260206004820152602d60248201527f4552433732313a2063616c6c6572206973206e6f7420746f6b656e206f776e6560448201527f72206f7220617070726f766564000000000000000000000000000000000000006064820152608401610530565b6105d1838383610f05565b60008281526001602090815260408083208151808301909252546001600160a01b038116808352740100000000000000000000000000000000000000009091046bffffffffffffffffffffffff1692820192909252829161070e5750604080518082019091526000546001600160a01b03811682527401000000000000000000000000000000000000000090046bffffffffffffffffffffffff1660208201525b602081015160009061271090610732906bffffffffffffffffffffffff168761213b565b61073c9190612152565b915196919550909350505050565b600061075583610916565b82106107c95760405162461bcd60e51b815260206004820152602b60248201527f455243373231456e756d657261626c653a206f776e657220696e646578206f7560448201527f74206f6620626f756e64730000000000000000000000000000000000000000006064820152608401610530565b506001600160a01b03919091166000908152600860209081526040808320938352929052205490565b6105d183838360405180602001604052806000815250610bda565b6000610818600a5490565b821061088c5760405162461bcd60e51b815260206004820152602c60248201527f455243373231456e756d657261626c653a20676c6f62616c20696e646578206f60448201527f7574206f6620626f756e647300000000000000000000000000000000000000006064820152608401610530565b600a828154811061089f5761089f61218d565b90600052602060002001549050919050565b6000818152600460205260408120546001600160a01b0316806103e15760405162461bcd60e51b815260206004820152601860248201527f4552433732313a20696e76616c696420746f6b656e20494400000000000000006044820152606401610530565b60006001600160a01b0382166109945760405162461bcd60e51b815260206004820152602960248201527f4552433732313a2061646472657373207a65726f206973206e6f74206120766160448201527f6c6964206f776e657200000000000000000000000000000000000000000000006064820152608401610530565b506001600160a01b031660009081526005602052604090205490565b60006109ba611171565b336001600160a01b037f00000000000000000000000000000000000000000000000000000000000000001614610a585760405162461bcd60e51b815260206004820152602660248201527f6d696e74546f3a2063616c6c6572206973206e6f7420666163746f727920636f60448201527f6e747261637400000000000000000000000000000000000000000000000000006064820152608401610530565b6000610a626111ca565b9050610a6e83826111e1565b9050610a7a6001600c55565b919050565b6060610a8a82610916565b67ffffffffffffffff811115610aa257610aa2611f6c565b604051908082528060200260200182016040528015610acb578160200160208202803683370190505b50905060005b610ada83610916565b811015610b1057610aeb838261074a565b828281518110610afd57610afd61218d565b6020908102919091010152600101610ad1565b50919050565b6000610b21836108b1565b90506105d18183856105e6565b6060600380546103f6906120bf565b600e8054610b4a906120bf565b80601f0160208091040260200160405190810160405280929190818152602001828054610b76906120bf565b8015610bc35780601f10610b9857610100808354040283529160200191610bc3565b820191906000526020600020905b815481529060010190602001808311610ba657829003601f168201915b505050505081565b610bd63383836111fb565b5050565b610be43383610e86565b610c565760405162461bcd60e51b815260206004820152602d60248201527f4552433732313a2063616c6c6572206973206e6f7420746f6b656e206f776e6560448201527f72206f7220617070726f766564000000000000000000000000000000000000006064820152608401610530565b610c62848484846112e7565b50505050565b6000818152600460205260409020546060906001600160a01b0316610cf55760405162461bcd60e51b815260206004820152602f60248201527f4552433732314d657461646174613a2055524920717565727920666f72206e6f60448201527f6e6578697374656e7420746f6b656e00000000000000000000000000000000006064820152608401610530565b600e610d0083611370565b604051602001610d119291906121d8565b6040516020818303038152906040529050919050565b600f8054610b4a906120bf565b6060600f80546103f6906120bf565b60007fffffffff0000000000000000000000000000000000000000000000000000000082167f780e9d630000000000000000000000000000000000000000000000000000000014806103e157506103e18261142e565b6000818152600460205260409020546001600160a01b0316610dfd5760405162461bcd60e51b815260206004820152601860248201527f4552433732313a20696e76616c696420746f6b656e20494400000000000000006044820152606401610530565b50565b600081815260066020526040902080547fffffffffffffffffffffffff0000000000000000000000000000000000000000166001600160a01b0384169081179091558190610e4d826108b1565b6001600160a01b03167f8c5be1e5ebec7d5bd14f71427d1e84f3dd0314c0f7b2291e5b200ac8c7c3b92560405160405180910390a45050565b600080610e92836108b1565b9050806001600160a01b0316846001600160a01b03161480610ed957506001600160a01b0380821660009081526007602090815260408083209388168352929052205460ff165b80610efd5750836001600160a01b0316610ef284610479565b6001600160a01b0316145b949350505050565b826001600160a01b0316610f18826108b1565b6001600160a01b031614610f945760405162461bcd60e51b815260206004820152602560248201527f4552433732313a207472616e736665722066726f6d20696e636f72726563742060448201527f6f776e65720000000000000000000000000000000000000000000000000000006064820152608401610530565b6001600160a01b03821661100f5760405162461bcd60e51b8152602060048201526024808201527f4552433732313a207472616e7366657220746f20746865207a65726f2061646460448201527f72657373000000000000000000000000000000000000000000000000000000006064820152608401610530565b61101c83838360016114d0565b826001600160a01b031661102f826108b1565b6001600160a01b0316146110ab5760405162461bcd60e51b815260206004820152602560248201527f4552433732313a207472616e736665722066726f6d20696e636f72726563742060448201527f6f776e65720000000000000000000000000000000000000000000000000000006064820152608401610530565b600081815260066020908152604080832080547fffffffffffffffffffffffff00000000000000000000000000000000000000009081169091556001600160a01b038781168086526005855283862080547fffffffffffffffffffffffffffffffffffffffffffffffffffffffffffffffff01905590871680865283862080546001019055868652600490945282852080549092168417909155905184937fddf252ad1be2c89b69c2b068fc378daa952ba7f163c4a11628f55a4df523b3ef91a4505050565b6002600c54036111c35760405162461bcd60e51b815260206004820152601f60248201527f5265656e7472616e637947756172643a207265656e7472616e742063616c6c006044820152606401610530565b6002600c55565b60006111da600d80546001019055565b50600d5490565b610bd68282604051806020016040528060008152506114dc565b816001600160a01b0316836001600160a01b03160361125c5760405162461bcd60e51b815260206004820152601960248201527f4552433732313a20617070726f766520746f2063616c6c6572000000000000006044820152606401610530565b6001600160a01b0383811660008181526007602090815260408083209487168084529482529182902080547fffffffffffffffffffffffffffffffffffffffffffffffffffffffffffffff001686151590811790915591519182527f17307eab39ab6107e8899845ad3d59bd9653f200f220920489ca2b5937696c31910160405180910390a3505050565b6112f2848484610f05565b6112fe84848484611565565b610c625760405162461bcd60e51b815260206004820152603260248201527f4552433732313a207472616e7366657220746f206e6f6e20455243373231526560448201527f63656976657220696d706c656d656e74657200000000000000000000000000006064820152608401610530565b6060600061137d83611724565b600101905060008167ffffffffffffffff81111561139d5761139d611f6c565b6040519080825280601f01601f1916602001820160405280156113c7576020820181803683370190505b5090508181016020015b7fffffffffffffffffffffffffffffffffffffffffffffffffffffffffffffffff017f3031323334353637383961626364656600000000000000000000000000000000600a86061a8153600a85049450846113d157509392505050565b60007fffffffff0000000000000000000000000000000000000000000000000000000082167f80ac58cd0000000000000000000000000000000000000000000000000000000014806114c157507fffffffff0000000000000000000000000000000000000000000000000000000082167f5b5e139f00000000000000000000000000000000000000000000000000000000145b806103e157506103e182611806565b610c628484848461189d565b6114e683836119d9565b6114f36000848484611565565b6105d15760405162461bcd60e51b815260206004820152603260248201527f4552433732313a207472616e7366657220746f206e6f6e20455243373231526560448201527f63656976657220696d706c656d656e74657200000000000000000000000000006064820152608401610530565b60006001600160a01b0384163b15611719576040517f150b7a020000000000000000000000000000000000000000000000000000000081526001600160a01b0385169063150b7a02906115c29033908990889088906004016122e7565b6020604051808303816000875af192505050801561161b575060408051601f3d9081017fffffffffffffffffffffffffffffffffffffffffffffffffffffffffffffffe016820190925261161891810190612323565b60015b6116ce573d808015611649576040519150601f19603f3d011682016040523d82523d6000602084013e61164e565b606091505b5080516000036116c65760405162461bcd60e51b815260206004820152603260248201527f4552433732313a207472616e7366657220746f206e6f6e20455243373231526560448201527f63656976657220696d706c656d656e74657200000000000000000000000000006064820152608401610530565b805181602001fd5b7fffffffff00000000000000000000000000000000000000000000000000000000167f150b7a0200000000000000000000000000000000000000000000000000000000149050610efd565b506001949350505050565b6000807a184f03e93ff9f4daa797ed6e38ed64bf6a1f010000000000000000831061176d577a184f03e93ff9f4daa797ed6e38ed64bf6a1f010000000000000000830492506040015b6d04ee2d6d415b85acef81000000008310611799576d04ee2d6d415b85acef8100000000830492506020015b662386f26fc1000083106117b757662386f26fc10000830492506010015b6305f5e10083106117cf576305f5e100830492506008015b61271083106117e357612710830492506004015b606483106117f5576064830492506002015b600a83106103e15760010192915050565b60007fffffffff0000000000000000000000000000000000000000000000000000000082167f2a55205a0000000000000000000000000000000000000000000000000000000014806103e157507f01ffc9a7000000000000000000000000000000000000000000000000000000007fffffffff000000000000000000000000000000000000000000000000000000008316146103e1565b60018111156119145760405162461bcd60e51b815260206004820152603560248201527f455243373231456e756d657261626c653a20636f6e736563757469766520747260448201527f616e7366657273206e6f7420737570706f7274656400000000000000000000006064820152608401610530565b816001600160a01b0385166119705761196b81600a80546000838152600b60205260408120829055600182018355919091527fc65a7bb8d6351c1cf70c95a316cc6a92839c986682d98bc35f958f4883f9d2a80155565b611993565b836001600160a01b0316856001600160a01b031614611993576119938582611b8a565b6001600160a01b0384166119af576119aa81611c27565b6119d2565b846001600160a01b0316846001600160a01b0316146119d2576119d28482611cd6565b5050505050565b6001600160a01b038216611a2f5760405162461bcd60e51b815260206004820181905260248201527f4552433732313a206d696e7420746f20746865207a65726f20616464726573736044820152606401610530565b6000818152600460205260409020546001600160a01b031615611a945760405162461bcd60e51b815260206004820152601c60248201527f4552433732313a20746f6b656e20616c7265616479206d696e746564000000006044820152606401610530565b611aa26000838360016114d0565b6000818152600460205260409020546001600160a01b031615611b075760405162461bcd60e51b815260206004820152601c60248201527f4552433732313a20746f6b656e20616c7265616479206d696e746564000000006044820152606401610530565b6001600160a01b038216600081815260056020908152604080832080546001019055848352600490915280822080547fffffffffffffffffffffffff0000000000000000000000000000000000000000168417905551839291907fddf252ad1be2c89b69c2b068fc378daa952ba7f163c4a11628f55a4df523b3ef908290a45050565b60006001611b9784610916565b611ba19190612340565b600083815260096020526040902054909150808214611bf4576001600160a01b03841660009081526008602090815260408083208584528252808320548484528184208190558352600990915290208190555b5060009182526009602090815260408084208490556001600160a01b039094168352600881528383209183525290812055565b600a54600090611c3990600190612340565b6000838152600b6020526040812054600a8054939450909284908110611c6157611c6161218d565b9060005260206000200154905080600a8381548110611c8257611c8261218d565b6000918252602080832090910192909255828152600b9091526040808220849055858252812055600a805480611cba57611cba612353565b6001900381819060005260206000200160009055905550505050565b6000611ce183610916565b6001600160a01b039093166000908152600860209081526040808320868452825280832085905593825260099052919091209190915550565b7fffffffff0000000000000000000000000000000000000000000000000000000081168114610dfd57600080fd5b600060208284031215611d5a57600080fd5b8135611d6581611d1a565b9392505050565b60005b83811015611d87578181015183820152602001611d6f565b50506000910152565b60008151808452611da8816020860160208601611d6c565b601f017fffffffffffffffffffffffffffffffffffffffffffffffffffffffffffffffe0169290920160200192915050565b602081526000611d656020830184611d90565b600060208284031215611dff57600080fd5b5035919050565b80356001600160a01b0381168114610a7a57600080fd5b60008060408385031215611e3057600080fd5b611e3983611e06565b946020939093013593505050565b600080600060608486031215611e5c57600080fd5b611e6584611e06565b9250611e7360208501611e06565b9150604084013590509250925092565b60008060408385031215611e9657600080fd5b50508035926020909101359150565b600060208284031215611eb757600080fd5b611d6582611e06565b6020808252825182820181905260009190848201906040850190845b81811015611ef857835183529284019291840191600101611edc565b50909695505050505050565b60008060408385031215611f1757600080fd5b82359150611f2760208401611e06565b90509250929050565b60008060408385031215611f4357600080fd5b611f4c83611e06565b915060208301358015158114611f6157600080fd5b809150509250929050565b7f4e487b7100000000000000000000000000000000000000000000000000000000600052604160045260246000fd5b60008060008060808587031215611fb157600080fd5b611fba85611e06565b9350611fc860208601611e06565b925060408501359150606085013567ffffffffffffffff80821115611fec57600080fd5b818701915087601f83011261200057600080fd5b81358181111561201257612012611f6c565b604051601f82017fffffffffffffffffffffffffffffffffffffffffffffffffffffffffffffffe0908116603f0116810190838211818310171561205857612058611f6c565b816040528281528a602084870101111561207157600080fd5b82602086016020830137600060208483010152809550505050505092959194509250565b600080604083850312156120a857600080fd5b6120b183611e06565b9150611f2760208401611e06565b600181811c908216806120d357607f821691505b602082108103610b10577f4e487b7100000000000000000000000000000000000000000000000000000000600052602260045260246000fd5b7f4e487b7100000000000000000000000000000000000000000000000000000000600052601160045260246000fd5b80820281158282048414176103e1576103e161210c565b600082612188577f4e487b7100000000000000000000000000000000000000000000000000000000600052601260045260246000fd5b500490565b7f4e487b7100000000000000000000000000000000000000000000000000000000600052603260045260246000fd5b600081516121ce818560208601611d6c565b9290920192915050565b60008084548160018260011c915060018316806121f657607f831692505b6020808410820361222e577f4e487b710000000000000000000000000000000000000000000000000000000086526022600452602486fd5b8180156122425760018114612275576122a2565b7fffffffffffffffffffffffffffffffffffffffffffffffffffffffffffffff00861689528415158502890196506122a2565b60008b81526020902060005b8681101561229a5781548b820152908501908301612281565b505084890196505b5050505050506122de6122b582866121bc565b7f2e6a736f6e000000000000000000000000000000000000000000000000000000815260050190565b95945050505050565b60006001600160a01b038087168352808616602084015250836040830152608060608301526123196080830184611d90565b9695505050505050565b60006020828403121561233557600080fd5b8151611d6581611d1a565b818103818111156103e1576103e161210c565b7f4e487b7100000000000000000000000000000000000000000000000000000000600052603160045260246000fdfea2646970667358221220235e7aa3b80a083075ba2bd70153dccafcfe6602bbd8e75b10dbd6a7a2319c1064736f6c63430008180033a2646970667358221220498fe47a3d587ee1a73c2565150158ca6006a739908f3aafd5b876c3392ea29564736f6c63430008180033","linkReferences":{}},"methodIdentifiers":{"baseUri()":"9abc8320","collectionUri()":"defcd4b3","deployTierNFTContract(uint256,uint256,string,string)":"8bbda6e7","getNFTOwner(uint256,uint256,uint256)":"f40bfed9","getTierTokenIdList(uint256,uint256)":"486eab57","getTokenUri(uint256,uint256,uint256)":"f35aaffe","getTotalSupply(uint256,uint256)":"7dfa14be","getUserTierNFTs(address)":"b02823f9","getUserTokenIdList(uint256,address,uint256)":"2f315fe6","mintTierNft(uint256)":"bc275829","nftInfo(address)":"e9545b92","setBaseURI(string,string)":"6790a9de","setTierInfo(uint256,uint256[],uint256[])":"49b37674","tierCount(uint256)":"48380a10","tierInfo(uint256,uint256)":"9d4d1a04","tierNFTContract(uint256,uint256)":"ee584da4","tierNFTTokenList(uint256,uint256,uint256)":"4276c706"},"id":2}