{"abi":[{"type":"constructor","inputs":[{"name":"_ownable","type":"address","internalType":"address"},{"name":"_uniHelper","type":"address","internalType":"address"},{"name":"_property","type":"address","internalType":"address"},{"name":"_discountPercents","type":"uint256[]","internalType":"uint256[]"}],"stateMutability":"nonpayable"},{"type":"receive","stateMutability":"payable"},{"type":"function","name":"activeSubscription","inputs":[{"name":"_token","type":"address","internalType":"address"},{"name":"_period","type":"uint256","internalType":"uint256"}],"outputs":[],"stateMutability":"payable"},{"type":"function","name":"addDiscountPercent","inputs":[{"name":"_discountPercents","type":"uint256[]","internalType":"uint256[]"}],"outputs":[],"stateMutability":"nonpayable"},{"type":"function","name":"getDiscountPercentList","inputs":[],"outputs":[{"name":"list_","type":"uint256[]","internalType":"uint256[]"}],"stateMutability":"view"},{"type":"function","name":"getExpectedSubscriptionAmount","inputs":[{"name":"_token","type":"address","internalType":"address"},{"name":"_period","type":"uint256","internalType":"uint256"}],"outputs":[{"name":"expectAmount_","type":"uint256","internalType":"uint256"}],"stateMutability":"view"},{"type":"function","name":"isActivedSubscription","inputs":[{"name":"_customer","type":"address","internalType":"address"}],"outputs":[{"name":"active_","type":"bool","internalType":"bool"}],"stateMutability":"view"},{"type":"function","name":"subscriptionInfo","inputs":[{"name":"","type":"address","internalType":"address"}],"outputs":[{"name":"activeTime","type":"uint256","internalType":"uint256"},{"name":"period","type":"uint256","internalType":"uint256"},{"name":"expireTime","type":"uint256","internalType":"uint256"}],"stateMutability":"view"},{"type":"event","name":"SubscriptionActivated","inputs":[{"name":"customer","type":"address","indexed":true,"internalType":"address"},{"name":"token","type":"address","indexed":false,"internalType":"address"},{"name":"period","type":"uint256","indexed":false,"internalType":"uint256"}],"anonymous":false}],"bytecode":{"object":"0x60e06040523480156200001157600080fd5b50604051620021c7380380620021c783398101604081905262000034916200026b565b60016000556001600160a01b038416620000955760405162461bcd60e51b815260206004820152601d60248201527f6f776e61626c65436f6e74726163743a207a65726f206164647265737300000060448201526064015b60405180910390fd5b6001600160a01b038085166080528316620000f35760405162461bcd60e51b815260206004820152601f60248201527f756e6948656c706572436f6e74726163743a207a65726f20616464726573730060448201526064016200008c565b6001600160a01b0380841660a0528216620001515760405162461bcd60e51b815260206004820152601960248201527f64616f50726f70657274793a207a65726f20616464726573730000000000000060448201526064016200008c565b6001600160a01b03821660c0528051600314620001b15760405162461bcd60e51b815260206004820152601860248201527f646973636f756e744c6973743a20626164206c656e677468000000000000000060448201526064016200008c565b8051620001c6906001906020840190620001d1565b50505050506200036d565b8280548282559060005260206000209081019282156200020f579160200282015b828111156200020f578251825591602001919060010190620001f2565b506200021d92915062000221565b5090565b5b808211156200021d576000815560010162000222565b80516001600160a01b03811681146200025057600080fd5b919050565b634e487b7160e01b600052604160045260246000fd5b600080600080608085870312156200028257600080fd5b6200028d8562000238565b935060206200029e81870162000238565b9350620002ae6040870162000238565b60608701519093506001600160401b0380821115620002cc57600080fd5b818801915088601f830112620002e157600080fd5b815181811115620002f657620002f662000255565b8060051b604051601f19603f830116810181811085821117156200031e576200031e62000255565b60405291825284820192508381018501918b8311156200033d57600080fd5b938501935b828510156200035d5784518452938501939285019262000342565b989b979a50959850505050505050565b60805160a05160c051611db36200041460003960006103120152600081816104be015281816105ff015281816109c201528181610a4201528181610c7d01528181610dbf01528181610e7601528181610fb9015261107a0152600081816102060152818161028c0152818161070b015281816107f101528181610acd01528181610b5301528181610cfd01528181610ef6015281816110fc01526112660152611db36000f3fe6080604052600436106100695760003560e01c806328e7d9601161004357806328e7d960146100fa578063bcd15f871461010f578063d83f6e561461012f57600080fd5b80630f78a5a4146100755780632317bab5146100a857806327184a8b146100d857600080fd5b3661007057005b600080fd5b34801561008157600080fd5b50610095610090366004611aaf565b610185565b6040519081526020015b60405180910390f35b3480156100b457600080fd5b506100c86100c3366004611adb565b610676565b604051901515815260200161009f565b3480156100e457600080fd5b506100ed6106a9565b60405161009f9190611aff565b61010d610108366004611aaf565b610701565b005b34801561011b57600080fd5b5061010d61012a366004611b43565b611264565b34801561013b57600080fd5b5061016a61014a366004611adb565b600260208190526000918252604090912080546001820154919092015483565b6040805193845260208401929092529082015260600161009f565b6000816000036102025760405162461bcd60e51b815260206004820152602a60248201527f6765744578706563746564537562736372697074696f6e416d6f756e743a205a60448201527f65726f20706572696f640000000000000000000000000000000000000000000060648201526084015b60405180910390fd5b60007f00000000000000000000000000000000000000000000000000000000000000006001600160a01b031663fa5692746040518163ffffffff1660e01b8152600401602060405180830381865afa158015610262573d6000803e3d6000fd5b505050506040513d601f19601f820116820180604052508101906102869190611bb8565b905060007f00000000000000000000000000000000000000000000000000000000000000006001600160a01b031663e2f6f5116040518163ffffffff1660e01b8152600401602060405180830381865afa1580156102e8573d6000803e3d6000fd5b505050506040513d601f19601f8201168201806040525081019061030c9190611bb8565b905060007f00000000000000000000000000000000000000000000000000000000000000006001600160a01b03166354f8a8c26040518163ffffffff1660e01b8152600401602060405180830381865afa15801561036e573d6000803e3d6000fd5b505050506040513d601f19601f820116820180604052508101906103929190611bd5565b61039c9086611c1d565b90506003851061049b57600385101580156103b75750600685105b15610416576402540be40060016000815481106103d6576103d6611c3a565b906000526020600020015460646103ed9190611c69565b6103f79083611c1d565b610405906305f5e100611c1d565b61040f9190611c7c565b905061049b565b600685101580156104275750600c85105b15610445576402540be400600180815481106103d6576103d6611c3a565b6402540be400600160028154811061045f5761045f611c3a565b906000526020600020015460646104769190611c69565b6104809083611c1d565b61048e906305f5e100611c1d565b6104989190611c7c565b90505b816001600160a01b0316866001600160a01b031603610597576001600160a01b037f00000000000000000000000000000000000000000000000000000000000000001663eeee26ce6402540be4006104f763ee6b280085611c1d565b6105019190611c7c565b6040517fffffffff0000000000000000000000000000000000000000000000000000000060e084901b16815260048101919091526001600160a01b03808716602483015289166044820152606401602060405180830381865afa15801561056c573d6000803e3d6000fd5b505050506040513d601f19601f820116820180604052508101906105909190611bd5565b935061066d565b826001600160a01b0316866001600160a01b0316036105b85780935061066d565b6040517feeee26ce000000000000000000000000000000000000000000000000000000008152600481018290526001600160a01b03848116602483015287811660448301527f0000000000000000000000000000000000000000000000000000000000000000169063eeee26ce90606401602060405180830381865afa158015610646573d6000803e3d6000fd5b505050506040513d601f19601f8201168201806040525081019061066a9190611bd5565b93505b50505092915050565b6001600160a01b0381166000908152600260208190526040822001544210156106a157506001919050565b506000919050565b606060018054806020026020016040519081016040528092919081815260200182805480156106f757602002820191906000526020600020905b8154815260200190600101908083116106e3575b5050505050905090565b6107096113a7565b7f00000000000000000000000000000000000000000000000000000000000000006001600160a01b031663e2f6f5116040518163ffffffff1660e01b8152600401602060405180830381865afa158015610767573d6000803e3d6000fd5b505050506040513d601f19601f8201168201806040525081019061078b9190611bb8565b6001600160a01b0316826001600160a01b0316141580156107b457506001600160a01b03821615155b156108ce576040517fbdbef07d0000000000000000000000000000000000000000000000000000000081526001600160a01b0383811660048301527f0000000000000000000000000000000000000000000000000000000000000000169063bdbef07d90602401602060405180830381865afa158015610838573d6000803e3d6000fd5b505050506040513d601f19601f8201168201806040525081019061085c9190611cb7565b6108ce5760405162461bcd60e51b815260206004820152602560248201527f616374697665537562736372697074696f6e3a206e6f7420616c6c6f7765642060448201527f617373657400000000000000000000000000000000000000000000000000000060648201526084016101f9565b60006108da8383610185565b90506001600160a01b03831661098057803410156109605760405162461bcd60e51b815260206004820152602560248201527f616374697665537562736372697074696f6e3a20496e73756666696369656e7460448201527f207061696400000000000000000000000000000000000000000000000000000060648201526084016101f9565b8034111561097b5761097b336109768334611c69565b611400565b610ac8565b61098c833330846114e3565b6040517fdd62ed3e0000000000000000000000000000000000000000000000000000000081523060048201526001600160a01b037f00000000000000000000000000000000000000000000000000000000000000008116602483015284169063dd62ed3e90604401602060405180830381865afa158015610a11573d6000803e3d6000fd5b505050506040513d601f19601f82011682018060405250810190610a359190611bd5565b600003610ac857610ac8837f0000000000000000000000000000000000000000000000000000000000000000856001600160a01b03166318160ddd6040518163ffffffff1660e01b8152600401602060405180830381865afa158015610a9f573d6000803e3d6000fd5b505050506040513d601f19601f82011682018060405250810190610ac39190611bd5565b6116b2565b6000807f00000000000000000000000000000000000000000000000000000000000000006001600160a01b031663fa5692746040518163ffffffff1660e01b8152600401602060405180830381865afa158015610b29573d6000803e3d6000fd5b505050506040513d601f19601f82011682018060405250810190610b4d9190611bb8565b905060007f00000000000000000000000000000000000000000000000000000000000000006001600160a01b031663e2f6f5116040518163ffffffff1660e01b8152600401602060405180830381865afa158015610baf573d6000803e3d6000fd5b505050506040513d601f19601f82011682018060405250810190610bd39190611bb8565b9050806001600160a01b0316866001600160a01b031603610d89576000848784604051602001610c1f939291909283526001600160a01b03918216602084015216604082015260600190565b604080517fffffffffffffffffffffffffffffffffffffffffffffffffffffffffffffffe0818403018152908290527fab4e9ba600000000000000000000000000000000000000000000000000000000825291506001600160a01b037f0000000000000000000000000000000000000000000000000000000000000000169063ab4e9ba690610cb2908490600401611cfd565b6020604051808303816000875af1158015610cd1573d6000803e3d6000fd5b505050506040513d601f19601f82011682018060405250810190610cf59190611bd5565b9350610d83837f00000000000000000000000000000000000000000000000000000000000000006001600160a01b0316637d328e5c6040518163ffffffff1660e01b8152600401602060405180830381865afa158015610d59573d6000803e3d6000fd5b505050506040513d601f19601f82011682018060405250810190610d7d9190611bb8565b86611878565b50611186565b60006402540be400610da0640165a0bc0087611c1d565b610daa9190611c7c565b90506001600160a01b038716610de457610de47f000000000000000000000000000000000000000000000000000000000000000082611400565b6000818884604051602001610e15939291909283526001600160a01b03918216602084015216604082015260600190565b604080517fffffffffffffffffffffffffffffffffffffffffffffffffffffffffffffffe0818403018152908290527fab4e9ba600000000000000000000000000000000000000000000000000000000825291506000906001600160a01b037f0000000000000000000000000000000000000000000000000000000000000000169063ab4e9ba690610eab908590600401611cfd565b6020604051808303816000875af1158015610eca573d6000803e3d6000fd5b505050506040513d601f19601f82011682018060405250810190610eee9190611bd5565b9050610f7c847f00000000000000000000000000000000000000000000000000000000000000006001600160a01b0316637d328e5c6040518163ffffffff1660e01b8152600401602060405180830381865afa158015610f52573d6000803e3d6000fd5b505050506040513d601f19601f82011682018060405250810190610f769190611bb8565b83611878565b846001600160a01b0316896001600160a01b031603610fa657610f9f8388611c69565b95506110f6565b6001600160a01b038916610fe257610fe27f0000000000000000000000000000000000000000000000000000000000000000610976858a611c69565b6000610fee8489611c69565b8a8760405160200161101c939291909283526001600160a01b03918216602084015216604082015260600190565b604080517fffffffffffffffffffffffffffffffffffffffffffffffffffffffffffffffe0818403018152908290527fab4e9ba600000000000000000000000000000000000000000000000000000000825291506001600160a01b037f0000000000000000000000000000000000000000000000000000000000000000169063ab4e9ba6906110af908490600401611cfd565b6020604051808303816000875af11580156110ce573d6000803e3d6000fd5b505050506040513d601f19601f820116820180604052508101906110f29190611bd5565b9650505b611182857f00000000000000000000000000000000000000000000000000000000000000006001600160a01b0316637d328e5c6040518163ffffffff1660e01b8152600401602060405180830381865afa158015611158573d6000803e3d6000fd5b505050506040513d601f19601f8201168201806040525081019061117c9190611bb8565b88611878565b5050505b3360008181526002602052604090209061119f90610676565b156111e65760018101546111b38782611d4e565b60018301556111c28782611d4e565b6111cf9062278d00611c1d565b82546111db9190611d4e565b60028301555061120d565b428155600181018690556111fd8662278d00611c1d565b6112079042611d4e565b60028201555b604080516001600160a01b03891681526020810188905233917f6f0a4e2ace566095490447936119974d8a508408bd19978d295c859e5be593dc910160405180910390a250505050506112606001600055565b5050565b7f00000000000000000000000000000000000000000000000000000000000000006001600160a01b0316633ec045a66040518163ffffffff1660e01b8152600401602060405180830381865afa1580156112c2573d6000803e3d6000fd5b505050506040513d601f19601f820116820180604052508101906112e69190611bb8565b6001600160a01b0316336001600160a01b0316146113465760405162461bcd60e51b815260206004820152601960248201527f63616c6c6572206973206e6f74207468652061756469746f720000000000000060448201526064016101f9565b600381146113965760405162461bcd60e51b815260206004820152601860248201527f646973636f756e744c6973743a20626164206c656e677468000000000000000060448201526064016101f9565b6113a260018383611a37565b505050565b6002600054036113f95760405162461bcd60e51b815260206004820152601f60248201527f5265656e7472616e637947756172643a207265656e7472616e742063616c6c0060448201526064016101f9565b6002600055565b604080516000808252602082019092526001600160a01b03841690839060405161142a9190611d61565b60006040518083038185875af1925050503d8060008114611467576040519150601f19603f3d011682016040523d82523d6000602084013e61146c565b606091505b50509050806113a25760405162461bcd60e51b815260206004820152602f60248201527f566162626c6544414f3a3a736166655472616e736665724554483a204554482060448201527f7472616e73666572206661696c6564000000000000000000000000000000000060648201526084016101f9565b6001600160a01b0384163b61153a5760405162461bcd60e51b815260206004820152600160248201527f430000000000000000000000000000000000000000000000000000000000000060448201526064016101f9565b604080516001600160a01b0385811660248301528481166044830152606480830185905283518084039091018152608490920183526020820180517bffffffffffffffffffffffffffffffffffffffffffffffffffffffff167f23b872dd0000000000000000000000000000000000000000000000000000000017905291516000928392908816916115cc9190611d61565b6000604051808303816000865af19150503d8060008114611609576040519150601f19603f3d011682016040523d82523d6000602084013e61160e565b606091505b50915091508180156116385750805115806116385750808060200190518101906116389190611cb7565b6116aa5760405162461bcd60e51b815260206004820152602c60248201527f566162626c6544414f3a3a7472616e7366657246726f6d3a207472616e73666560448201527f7246726f6d206661696c6564000000000000000000000000000000000000000060648201526084016101f9565b505050505050565b6001600160a01b0383163b6117095760405162461bcd60e51b815260206004820152600160248201527f430000000000000000000000000000000000000000000000000000000000000060448201526064016101f9565b604080516001600160a01b038481166024830152604480830185905283518084039091018152606490920183526020820180517bffffffffffffffffffffffffffffffffffffffffffffffffffffffff167f095ea7b30000000000000000000000000000000000000000000000000000000017905291516000928392908716916117939190611d61565b6000604051808303816000865af19150503d80600081146117d0576040519150601f19603f3d011682016040523d82523d6000602084013e6117d5565b606091505b50915091508180156117ff5750805115806117ff5750808060200190518101906117ff9190611cb7565b6118715760405162461bcd60e51b815260206004820152602b60248201527f5472616e7366657248656c7065723a3a73616665417070726f76653a2061707060448201527f726f7665206661696c656400000000000000000000000000000000000000000060648201526084016101f9565b5050505050565b6001600160a01b0383163b6118cf5760405162461bcd60e51b815260206004820152600160248201527f430000000000000000000000000000000000000000000000000000000000000060448201526064016101f9565b604080516001600160a01b038481166024830152604480830185905283518084039091018152606490920183526020820180517bffffffffffffffffffffffffffffffffffffffffffffffffffffffff167fa9059cbb0000000000000000000000000000000000000000000000000000000017905291516000928392908716916119599190611d61565b6000604051808303816000865af19150503d8060008114611996576040519150601f19603f3d011682016040523d82523d6000602084013e61199b565b606091505b50915091508180156119c55750805115806119c55750808060200190518101906119c59190611cb7565b6118715760405162461bcd60e51b815260206004820152602860248201527f566162626c6544414f3a3a736166655472616e736665723a207472616e73666560448201527f72206661696c656400000000000000000000000000000000000000000000000060648201526084016101f9565b828054828255906000526020600020908101928215611a72579160200282015b82811115611a72578235825591602001919060010190611a57565b50611a7e929150611a82565b5090565b5b80821115611a7e5760008155600101611a83565b6001600160a01b0381168114611aac57600080fd5b50565b60008060408385031215611ac257600080fd5b8235611acd81611a97565b946020939093013593505050565b600060208284031215611aed57600080fd5b8135611af881611a97565b9392505050565b6020808252825182820181905260009190848201906040850190845b81811015611b3757835183529284019291840191600101611b1b565b50909695505050505050565b60008060208385031215611b5657600080fd5b823567ffffffffffffffff80821115611b6e57600080fd5b818501915085601f830112611b8257600080fd5b813581811115611b9157600080fd5b8660208260051b8501011115611ba657600080fd5b60209290920196919550909350505050565b600060208284031215611bca57600080fd5b8151611af881611a97565b600060208284031215611be757600080fd5b5051919050565b7f4e487b7100000000000000000000000000000000000000000000000000000000600052601160045260246000fd5b8082028115828204841417611c3457611c34611bee565b92915050565b7f4e487b7100000000000000000000000000000000000000000000000000000000600052603260045260246000fd5b81810381811115611c3457611c34611bee565b600082611cb2577f4e487b7100000000000000000000000000000000000000000000000000000000600052601260045260246000fd5b500490565b600060208284031215611cc957600080fd5b81518015158114611af857600080fd5b60005b83811015611cf4578181015183820152602001611cdc565b50506000910152565b6020815260008251806020840152611d1c816040850160208701611cd9565b601f017fffffffffffffffffffffffffffffffffffffffffffffffffffffffffffffffe0169190910160400192915050565b80820180821115611c3457611c34611bee565b60008251611d73818460208701611cd9565b919091019291505056fea2646970667358221220235746eb9f88ca643c12b6bf08e661e29c53571a88a526ea975bb9c5fbf58f4064736f6c63430008180033","linkReferences":{}},"methodIdentifiers":{"activeSubscription(address,uint256)":"28e7d960","addDiscountPercent(uint256[])":"bcd15f87","getDiscountPercentList()":"27184a8b","getExpectedSubscriptionAmount(address,uint256)":"0f78a5a4","isActivedSubscription(address)":"2317bab5","subscriptionInfo(address)":"d83f6e56"},"id":6}