{"abi":[{"type":"constructor","inputs":[{"name":"_ownable","type":"address","internalType":"address"}],"stateMutability":"nonpayable"},{"type":"function","name":"__calcProposalTimeIntervals","inputs":[{"name":"_user","type":"address","internalType":"address"}],"outputs":[{"name":"times_","type":"uint256[]","internalType":"uint256[]"}],"stateMutability":"view"},{"type":"function","name":"__getProposalVoteCount","inputs":[{"name":"_user","type":"address","internalType":"address"},{"name":"minIndex","type":"uint256","internalType":"uint256"},{"name":"_start","type":"uint256","internalType":"uint256"},{"name":"_end","type":"uint256","internalType":"uint256"}],"outputs":[{"name":"","type":"uint256","internalType":"uint256"},{"name":"","type":"uint256","internalType":"uint256"},{"name":"","type":"uint256","internalType":"uint256"}],"stateMutability":"view"},{"type":"function","name":"addProposalData","inputs":[{"name":"_creator","type":"address","internalType":"address"},{"name":"_cTime","type":"uint256","internalType":"uint256"},{"name":"_period","type":"uint256","internalType":"uint256"}],"outputs":[{"name":"","type":"uint256","internalType":"uint256"}],"stateMutability":"nonpayable"},{"type":"function","name":"addRewardToPool","inputs":[{"name":"_amount","type":"uint256","internalType":"uint256"}],"outputs":[],"stateMutability":"nonpayable"},{"type":"function","name":"addVotedData","inputs":[{"name":"_user","type":"address","internalType":"address"},{"name":"_time","type":"uint256","internalType":"uint256"},{"name":"_proposalID","type":"uint256","internalType":"uint256"}],"outputs":[],"stateMutability":"nonpayable"},{"type":"function","name":"approvePendingWithdraw","inputs":[{"name":"_customers","type":"address[]","internalType":"address[]"}],"outputs":[],"stateMutability":"nonpayable"},{"type":"function","name":"calcMigrationVAB","inputs":[],"outputs":[],"stateMutability":"nonpayable"},{"type":"function","name":"calcPendingRewards","inputs":[{"name":"_user","type":"address","internalType":"address"}],"outputs":[{"name":"","type":"uint256","internalType":"uint256"}],"stateMutability":"view"},{"type":"function","name":"calcRealizedRewards","inputs":[{"name":"_user","type":"address","internalType":"address"}],"outputs":[{"name":"","type":"uint256","internalType":"uint256"}],"stateMutability":"view"},{"type":"function","name":"calcRewardAmount","inputs":[{"name":"_user","type":"address","internalType":"address"}],"outputs":[{"name":"","type":"uint256","internalType":"uint256"}],"stateMutability":"view"},{"type":"function","name":"calculateAPR","inputs":[{"name":"_period","type":"uint256","internalType":"uint256"},{"name":"_stakeAmount","type":"uint256","internalType":"uint256"},{"name":"_proposalCount","type":"uint256","internalType":"uint256"},{"name":"_voteCount","type":"uint256","internalType":"uint256"},{"name":"isBoardMember","type":"bool","internalType":"bool"}],"outputs":[{"name":"amount_","type":"uint256","internalType":"uint256"}],"stateMutability":"view"},{"type":"function","name":"checkAllocateToPool","inputs":[{"name":"_users","type":"address[]","internalType":"address[]"},{"name":"_amounts","type":"uint256[]","internalType":"uint256[]"}],"outputs":[{"name":"","type":"bool","internalType":"bool"}],"stateMutability":"view"},{"type":"function","name":"checkApprovePendingWithdraw","inputs":[{"name":"_customers","type":"address[]","internalType":"address[]"}],"outputs":[{"name":"","type":"bool","internalType":"bool"}],"stateMutability":"view"},{"type":"function","name":"checkDenyPendingWithDraw","inputs":[{"name":"_customers","type":"address[]","internalType":"address[]"}],"outputs":[{"name":"","type":"bool","internalType":"bool"}],"stateMutability":"view"},{"type":"function","name":"denyPendingWithdraw","inputs":[{"name":"_customers","type":"address[]","internalType":"address[]"}],"outputs":[],"stateMutability":"nonpayable"},{"type":"function","name":"depositVAB","inputs":[{"name":"_amount","type":"uint256","internalType":"uint256"}],"outputs":[],"stateMutability":"nonpayable"},{"type":"function","name":"getLimitCount","inputs":[],"outputs":[{"name":"count_","type":"uint256","internalType":"uint256"}],"stateMutability":"view"},{"type":"function","name":"getOwnableAddress","inputs":[],"outputs":[{"name":"","type":"address","internalType":"address"}],"stateMutability":"view"},{"type":"function","name":"getPropertyAddress","inputs":[],"outputs":[{"name":"","type":"address","internalType":"address"}],"stateMutability":"view"},{"type":"function","name":"getRentVABAmount","inputs":[{"name":"_user","type":"address","internalType":"address"}],"outputs":[{"name":"amount_","type":"uint256","internalType":"uint256"}],"stateMutability":"view"},{"type":"function","name":"getStakeAmount","inputs":[{"name":"_user","type":"address","internalType":"address"}],"outputs":[{"name":"amount_","type":"uint256","internalType":"uint256"}],"stateMutability":"view"},{"type":"function","name":"getStakerList","inputs":[],"outputs":[{"name":"","type":"address[]","internalType":"address[]"}],"stateMutability":"view"},{"type":"function","name":"getVabbleDaoAddress","inputs":[],"outputs":[{"name":"","type":"address","internalType":"address"}],"stateMutability":"view"},{"type":"function","name":"getVoteAddress","inputs":[],"outputs":[{"name":"","type":"address","internalType":"address"}],"stateMutability":"view"},{"type":"function","name":"getWithdrawableTime","inputs":[{"name":"_user","type":"address","internalType":"address"}],"outputs":[{"name":"time_","type":"uint256","internalType":"uint256"}],"stateMutability":"view"},{"type":"function","name":"initialize","inputs":[{"name":"_vabbleDAO","type":"address","internalType":"address"},{"name":"_property","type":"address","internalType":"address"},{"name":"_vote","type":"address","internalType":"address"}],"outputs":[],"stateMutability":"nonpayable"},{"type":"function","name":"lastfundProposalCreateTime","inputs":[],"outputs":[{"name":"","type":"uint256","internalType":"uint256"}],"stateMutability":"view"},{"type":"function","name":"migrationStatus","inputs":[],"outputs":[{"name":"","type":"uint256","internalType":"uint256"}],"stateMutability":"view"},{"type":"function","name":"minProposalIndex","inputs":[{"name":"","type":"address","internalType":"address"}],"outputs":[{"name":"","type":"uint256","internalType":"uint256"}],"stateMutability":"view"},{"type":"function","name":"pendingWithdraw","inputs":[{"name":"_amount","type":"uint256","internalType":"uint256"}],"outputs":[],"stateMutability":"nonpayable"},{"type":"function","name":"proposalCount","inputs":[],"outputs":[{"name":"_value","type":"uint256","internalType":"uint256"}],"stateMutability":"view"},{"type":"function","name":"receivedRewardAmount","inputs":[{"name":"","type":"address","internalType":"address"}],"outputs":[{"name":"","type":"uint256","internalType":"uint256"}],"stateMutability":"view"},{"type":"function","name":"sendVAB","inputs":[{"name":"_users","type":"address[]","internalType":"address[]"},{"name":"_to","type":"address","internalType":"address"},{"name":"_amounts","type":"uint256[]","internalType":"uint256[]"}],"outputs":[{"name":"","type":"uint256","internalType":"uint256"}],"stateMutability":"nonpayable"},{"type":"function","name":"stakeInfo","inputs":[{"name":"","type":"address","internalType":"address"}],"outputs":[{"name":"stakeAmount","type":"uint256","internalType":"uint256"},{"name":"stakeTime","type":"uint256","internalType":"uint256"},{"name":"outstandingReward","type":"uint256","internalType":"uint256"}],"stateMutability":"view"},{"type":"function","name":"stakeVAB","inputs":[{"name":"_amount","type":"uint256","internalType":"uint256"}],"outputs":[],"stateMutability":"nonpayable"},{"type":"function","name":"stakerCount","inputs":[],"outputs":[{"name":"","type":"uint256","internalType":"uint256"}],"stateMutability":"view"},{"type":"function","name":"totalMigrationVAB","inputs":[],"outputs":[{"name":"","type":"uint256","internalType":"uint256"}],"stateMutability":"view"},{"type":"function","name":"totalRewardAmount","inputs":[],"outputs":[{"name":"","type":"uint256","internalType":"uint256"}],"stateMutability":"view"},{"type":"function","name":"totalRewardIssuedAmount","inputs":[],"outputs":[{"name":"","type":"uint256","internalType":"uint256"}],"stateMutability":"view"},{"type":"function","name":"totalStakingAmount","inputs":[],"outputs":[{"name":"","type":"uint256","internalType":"uint256"}],"stateMutability":"view"},{"type":"function","name":"unstakeVAB","inputs":[{"name":"_amount","type":"uint256","internalType":"uint256"}],"outputs":[],"stateMutability":"nonpayable"},{"type":"function","name":"updateLastfundProposalCreateTime","inputs":[{"name":"_time","type":"uint256","internalType":"uint256"}],"outputs":[],"stateMutability":"nonpayable"},{"type":"function","name":"userRentInfo","inputs":[{"name":"","type":"address","internalType":"address"}],"outputs":[{"name":"vabAmount","type":"uint256","internalType":"uint256"},{"name":"withdrawAmount","type":"uint256","internalType":"uint256"},{"name":"pending","type":"bool","internalType":"bool"}],"stateMutability":"view"},{"type":"function","name":"withdrawAllFund","inputs":[],"outputs":[],"stateMutability":"nonpayable"},{"type":"function","name":"withdrawReward","inputs":[{"name":"_isCompound","type":"uint256","internalType":"uint256"}],"outputs":[],"stateMutability":"nonpayable"},{"type":"event","name":"AllFundWithdraw","inputs":[{"name":"to","type":"address","indexed":false,"internalType":"address"},{"name":"amount","type":"uint256","indexed":false,"internalType":"uint256"}],"anonymous":false},{"type":"event","name":"PendingWithdrawApproved","inputs":[{"name":"customers","type":"address[]","indexed":false,"internalType":"address[]"},{"name":"withdrawAmounts","type":"uint256[]","indexed":false,"internalType":"uint256[]"}],"anonymous":false},{"type":"event","name":"PendingWithdrawDenied","inputs":[{"name":"customers","type":"address[]","indexed":false,"internalType":"address[]"}],"anonymous":false},{"type":"event","name":"RewardAdded","inputs":[{"name":"totalRewardAmount","type":"uint256","indexed":false,"internalType":"uint256"},{"name":"rewardAmount","type":"uint256","indexed":false,"internalType":"uint256"},{"name":"contributor","type":"address","indexed":true,"internalType":"address"}],"anonymous":false},{"type":"event","name":"RewardContinued","inputs":[{"name":"staker","type":"address","indexed":true,"internalType":"address"},{"name":"isCompound","type":"uint256","indexed":false,"internalType":"uint256"},{"name":"rewardAmount","type":"uint256","indexed":false,"internalType":"uint256"}],"anonymous":false},{"type":"event","name":"RewardWithdraw","inputs":[{"name":"staker","type":"address","indexed":true,"internalType":"address"},{"name":"rewardAmount","type":"uint256","indexed":false,"internalType":"uint256"}],"anonymous":false},{"type":"event","name":"TokenStaked","inputs":[{"name":"staker","type":"address","indexed":true,"internalType":"address"},{"name":"stakeAmount","type":"uint256","indexed":false,"internalType":"uint256"}],"anonymous":false},{"type":"event","name":"TokenUnstaked","inputs":[{"name":"unstaker","type":"address","indexed":true,"internalType":"address"},{"name":"unStakeAmount","type":"uint256","indexed":false,"internalType":"uint256"}],"anonymous":false},{"type":"event","name":"VABDeposited","inputs":[{"name":"customer","type":"address","indexed":true,"internalType":"address"},{"name":"amount","type":"uint256","indexed":false,"internalType":"uint256"}],"anonymous":false},{"type":"event","name":"WithdrawPending","inputs":[{"name":"customer","type":"address","indexed":true,"internalType":"address"},{"name":"amount","type":"uint256","indexed":false,"internalType":"uint256"}],"anonymous":false}],"bytecode":{"object":"0x60a06040526000600855600060095534801561001a57600080fd5b50604051614af4380380614af483398101604081905261003991610098565b60016000556001600160a01b0381166100875760405162461bcd60e51b815260206004820152600c60248201526b7a65726f206f776e61626c6560a01b604482015260640160405180910390fd5b6001600160a01b03166080526100c8565b6000602082840312156100aa57600080fd5b81516001600160a01b03811681146100c157600080fd5b9392505050565b6080516149a16101536000396000818161045901528181610729015281816108f601528181610b8201528181610e7d015281816111b30152818161141c01528181611b3d01528181611c6d015281816122e7015281816124af0152818161261301528181612a4f01528181612b2c01528181612ecb0152818161383e0152613d0a01526149a16000f3fe608060405234801561001057600080fd5b506004361061027f5760003560e01c806374e17cf81161015c578063c0c53b8b116100ce578063dff6978711610087578063dff697871461061b578063e0e2654e14610623578063e576f3cb14610636578063f22eea7d14610656578063f2c4769a1461065f578063f6d5b2141461067057600080fd5b8063c0c53b8b146105a6578063c3070961146105b9578063cc5adbea146105cc578063cc63c7df146105f5578063d201114a14610608578063da35c6641461061157600080fd5b80638e73064f116101205780638e73064f146105465780639ebb315a1461054f578063a3691c0614610558578063a44783ef1461056d578063af35a35c14610580578063bf4667541461059357600080fd5b806374e17cf8146104ab578063755f9197146104fa57806386ff6b651461050d57806387a8435714610515578063882332561461052657600080fd5b80633a53ed49116101f5578063523a3f08116101b9578063523a3f081461043157806352aa50cd146104445780635c6aad0414610457578063625fcf8d1461047d57806371e6651a1461049057806374adb1cb1461049857600080fd5b80633a53ed49146103c05780633ab042eb146103d35780633dcc27fa146103f85780634037f8aa1461040b57806347f1a8091461041e57600080fd5b8063178e5aea11610247578063178e5aea146103565780631c5853161461035f57806328d2a818146103745780632d72ac531461038757806330e2b5811461039a578063313fdded146103ad57600080fd5b8063033e7ed91461028457806306731d33146102ac5780630c2eb403146102c35780631601e641146102ec578063173bc00c14610336575b600080fd5b6102976102923660046142fd565b610678565b60405190151581526020015b60405180910390f35b6102b560085481565b6040519081526020016102a3565b6102b56102d136600461437e565b6001600160a01b03166000908152600b602052604090205490565b61031b6102fa36600461437e565b600b6020526000908152604090208054600182015460029092015490919083565b604080519384526020840192909252908201526060016102a3565b6102b561034436600461437e565b600e6020526000908152604090205481565b6102b560075481565b61037261036d36600461439b565b610838565b005b61037261038236600461439b565b6109e5565b61037261039536600461439b565b610cb2565b6103726103a83660046143b4565b610e7b565b6103726103bb3660046143b4565b6111b1565b6103726103ce36600461439b565b6113a9565b6002546001600160a01b03165b6040516001600160a01b0390911681526020016102a3565b6102b561040636600461437e565b6114c3565b6102b56104193660046143f6565b6115d4565b6102b561042c36600461437e565b61174a565b61037261043f36600461439b565b6117c5565b61037261045236600461439b565b611acb565b7f00000000000000000000000000000000000000000000000000000000000000006103e0565b6102b561048b36600461437e565b611db9565b610372611ec5565b6102976104a63660046143b4565b612003565b6104dd6104b936600461437e565b600d6020526000908152604090208054600182015460029092015490919060ff1683565b6040805193845260208401929092521515908201526060016102a3565b6102b5610508366004614439565b6120e0565b6103726122e5565b6001546001600160a01b03166103e0565b6102b561053436600461437e565b600c6020526000908152604090205481565b6102b560055481565b6102b560095481565b61056061275d565b6040516102a39190614486565b6102b561057b36600461437e565b6127c2565b6102b561058e3660046144d3565b612856565b6103726105a136600461439b565b612ae1565b6103726105b4366004614558565b612b2a565b6103726105c73660046143f6565b612d77565b6102b56105da36600461437e565b6001600160a01b03166000908152600d602052604090205490565b6102976106033660046143b4565b612de5565b6102b560045481565b600f546102b59081565b6010546102b5565b61031b6106313660046145a3565b612fda565b61064961064436600461437e565b6131ec565b6040516102a3919061461a565b6102b560065481565b6003546001600160a01b03166103e0565b6102b5613512565b60008084815b81811015610724578585828181106106985761069861462d565b90506020020135600d60008a8a858181106106b5576106b561462d565b90506020020160208101906106ca919061437e565b6001600160a01b0316815260208101919091526040016000205410156106f65760009350505050610830565b8585828181106107085761070861462d565b905060200201358361071a9190614659565b925060010161067e565b5060007f00000000000000000000000000000000000000000000000000000000000000006001600160a01b031663e2f6f5116040518163ffffffff1660e01b8152600401602060405180830381865afa158015610785573d6000803e3d6000fd5b505050506040513d601f19601f820116820180604052508101906107a9919061466c565b6040516370a0823160e01b815230600482015290915083906001600160a01b038316906370a0823190602401602060405180830381865afa1580156107f2573d6000803e3d6000fd5b505050506040513d601f19601f820116820180604052508101906108169190614689565b10156108285760009350505050610830565b600193505050505b949350505050565b6001600854106108635760405162461bcd60e51b815260040161085a906146a2565b60405180910390fd5b61086b61366c565b336108ad5760405162461bcd60e51b8152602060048201526012602482015271645641423a207a65726f206164647265737360701b604482015260640161085a565b600081116108f15760405162461bcd60e51b8152602060048201526011602482015270191590508e881e995c9bc8185b5bdd5b9d607a1b604482015260640161085a565b61097e7f00000000000000000000000000000000000000000000000000000000000000006001600160a01b031663e2f6f5116040518163ffffffff1660e01b8152600401602060405180830381865afa158015610952573d6000803e3d6000fd5b505050506040513d601f19601f82011682018060405250810190610976919061466c565b3330846136c5565b336000908152600d60205260408120805483929061099d908490614659565b909155505060405181815233907f97ee1f0ed0a4c8ac986dc82f2c9e718966a504e47c7e0b963be8b3223eaf13f5906020015b60405180910390a26109e26001600055565b50565b6109ed61366c565b33610a2f5760405162461bcd60e51b81526020600482015260126024820152713ab9ab20a11d103d32b9379039ba30b5b2b960711b604482015260640161085a565b336000908152600b602090815260408083206003548251633fd8b02f60e01b815292519194936001600160a01b0390911692633fd8b02f92600480830193928290030181865afa158015610a87573d6000803e3d6000fd5b505050506040513d601f19601f82011682018060405250810190610aab9190614689565b8260010154610aba9190614659565b90508282600001541015610b065760405162461bcd60e51b81526020600482015260136024820152721d5cd590508e881a5b9cdd59999a58da595b9d606a1b604482015260640161085a565b60006008541180610b1657508042115b610b505760405162461bcd60e51b815260206004820152600b60248201526a75735641423a206c6f636b60a81b604482015260640161085a565b6000610b5b3361174a565b90508060055410158015610b6f5750600081115b15610b7d57610b7d81613839565b610c097f00000000000000000000000000000000000000000000000000000000000000006001600160a01b031663e2f6f5116040518163ffffffff1660e01b8152600401602060405180830381865afa158015610bde573d6000803e3d6000fd5b505050506040513d601f19601f82011682018060405250810190610c02919061466c565b3386613977565b426001840155825484908490600090610c239084906146d1565b925050819055508360046000828254610c3c91906146d1565b90915550508254600003610c7057336000818152600b602052604081208181556001810182905560020155610c7090613ade565b60405184815233907ff0dbb2abe50e936f0d3720a39c0debe7706007b2c50286a913f24298e9be36ba9060200160405180910390a25050506109e26001600055565b610cba61366c565b33610cfa5760405162461bcd60e51b815260206004820152601060248201526f70573a207a65726f206164647265737360801b604482015260640161085a565b60008111610d395760405162461bcd60e51b815260206004820152600c60248201526b382b9d103d32b937902b20a160a11b604482015260640161085a565b336000908152600d602052604090206002015460ff1615610d8a5760405162461bcd60e51b815260206004820152600b60248201526a70573a2070656e64696e6760a81b604482015260640161085a565b336000908152600d602052604090208054600190910154610dab81836146d1565b831115610df15760405162461bcd60e51b8152602060048201526014602482015273382b9d1034b739bab33334b1b4b2b73a102b20a160611b604482015260640161085a565b336000908152600d602052604081206001018054859290610e13908490614659565b9091555050336000818152600d602052604090819020600201805460ff19166001179055517f9a92c3472ba0d2d183e38c3801bae5d41d693c2803377eae8b0f94683862253e90610e679086815260200190565b60405180910390a250506109e26001600055565b7f00000000000000000000000000000000000000000000000000000000000000006001600160a01b0316633ec045a66040518163ffffffff1660e01b8152600401602060405180830381865afa158015610ed9573d6000803e3d6000fd5b505050506040513d601f19601f82011682018060405250810190610efd919061466c565b6001600160a01b0316336001600160a01b031614610f2d5760405162461bcd60e51b815260040161085a906146e4565b610f3561366c565b8015801590610f4557506103e881105b610f885760405162461bcd60e51b815260206004820152601460248201527364656e79573a2062616420637573746f6d65727360601b604482015260640161085a565b8060005b81811015611168576000600d6000868685818110610fac57610fac61462d565b9050602002016020810190610fc1919061437e565b6001600160a01b03166001600160a01b0316815260200190815260200160002060010154116110295760405162461bcd60e51b815260206004820152601460248201527364656e79573a207a65726f20776974686472617760601b604482015260640161085a565b600d600085858481811061103f5761103f61462d565b9050602002016020810190611054919061437e565b6001600160a01b0316815260208101919091526040016000206002015460ff166110b45760405162461bcd60e51b815260206004820152601160248201527064656e79573a206e6f2070656e64696e6760781b604482015260640161085a565b6000600d60008686858181106110cc576110cc61462d565b90506020020160208101906110e1919061437e565b6001600160a01b03166001600160a01b03168152602001908152602001600020600101819055506000600d60008686858181106111205761112061462d565b9050602002016020810190611135919061437e565b6001600160a01b031681526020810191909152604001600020600201805460ff1916911515919091179055600101610f8c565b507f26a74dd985c5a627f655c36fbf77f65f1183861b8431734f390aec5cc65e5122838360405161119a929190614747565b60405180910390a1506111ad6001600055565b5050565b7f00000000000000000000000000000000000000000000000000000000000000006001600160a01b0316633ec045a66040518163ffffffff1660e01b8152600401602060405180830381865afa15801561120f573d6000803e3d6000fd5b505050506040513d601f19601f82011682018060405250810190611233919061466c565b6001600160a01b0316336001600160a01b0316146112635760405162461bcd60e51b815260040161085a906146e4565b61126b61366c565b801580159061127b57506103e881105b6112ba5760405162461bcd60e51b815260206004820152601060248201526f30a82b9d1027379031bab9ba37b6b2b960811b604482015260640161085a565b60008167ffffffffffffffff8111156112d5576112d561475b565b6040519080825280602002602001820160405280156112fe578160200160208202803683370190505b5090508160005b818110156113615761133c8585838181106113225761132261462d565b9050602002016020810190611337919061437e565b613bf1565b83828151811061134e5761134e61462d565b6020908102919091010152600101611305565b507f496c3aa8c87fbbd77e2692c3c50ca5c037b81ca4ebb46b24a0ee714a5950fa1b84848460405161139593929190614771565b60405180910390a150506111ad6001600055565b6001600854106113cb5760405162461bcd60e51b815260040161085a906146a2565b6113d361366c565b600081116114175760405162461bcd60e51b8152602060048201526011602482015270185495140e881e995c9bc8185b5bdd5b9d607a1b604482015260640161085a565b6114787f00000000000000000000000000000000000000000000000000000000000000006001600160a01b031663e2f6f5116040518163ffffffff1660e01b8152600401602060405180830381865afa158015610952573d6000803e3d6000fd5b806005546114869190614659565b6005819055604080519182526020820183905233917f373ba8b12aa5d4e47cdadd1193c682ebbd51f00ecf395e4179926426c41a793891016109d0565b600080806114d0846131ec565b6001600160a01b0385166000908152600e60205260408120548251929350916114fb906001906146d1565b90506000806000805b848110156115c65786818151811061151e5761151e61462d565b60200260200101519350868160016115369190614659565b815181106115465761154661462d565b6020026020010151925060008061155f8c898888612fda565b509150915061156f8c8787613dee565b935081156115ad57600082611586836127106147a1565b61159091906147b8565b905061271061159f82876147a1565b6115a991906147b8565b9450505b6115b7848b614659565b99505050806001019050611504565b509598975050505050505050565b6002546000906001600160a01b03163314806115fa57506003546001600160a01b031633145b6116395760405162461bcd60e51b815260206004820152601060248201526f6e6f742064616f2f70726f706572747960801b604482015260640161085a565b611647600f80546001019055565b6000611652600f5490565b604080516080810182526001600160a01b03888116825260208201888152928201878152606083018581526012805460018101825560009190915293517fbb8a6a4669ba250d26cd7a459eca9d215f8307e33aebe50379bc5a3617ec3444600490950294850180546001600160a01b031916919094161790925592517fbb8a6a4669ba250d26cd7a459eca9d215f8307e33aebe50379bc5a3617ec344583015591517fbb8a6a4669ba250d26cd7a459eca9d215f8307e33aebe50379bc5a3617ec344682015590517fbb8a6a4669ba250d26cd7a459eca9d215f8307e33aebe50379bc5a3617ec3447909101559150505b9392505050565b6001600160a01b0381166000908152600b60209081526040808320815160608101835281548082526001830154948201949094526002909101549181019190915290820361179b5750600092915050565b600854156117ad576040015192915050565b6117b6836114c3565b81604001516117439190614659565b6117cd61366c565b8015806117da5750806001145b6118155760405162461bcd60e51b815260206004820152600c60248201526b1dd48e8818dbdb5c1bdd5b9960a21b604482015260640161085a565b336000908152600b60205260409020546118635760405162461bcd60e51b815260206004820152600f60248201526e1dd48e881e995c9bc8185b5bdd5b9d608a1b604482015260640161085a565b60035460408051633fd8b02f60e01b815290516000926001600160a01b031691633fd8b02f9160048083019260209291908290030181865afa1580156118ad573d6000803e3d6000fd5b505050506040513d601f19601f820116820180604052508101906118d19190614689565b336000908152600b60205260409020600101546118ee9190614659565b90506000600854118061190057508042115b6119375760405162461bcd60e51b815260206004820152600860248201526777523a206c6f636b60c01b604482015260640161085a565b600854156119855781156119855760405162461bcd60e51b81526020600482015260156024820152746d6967726174696f6e206973206f6e20676f696e6760581b604482015260640161085a565b60006119903361174a565b9050600081116119d45760405162461bcd60e51b815260206004820152600f60248201526e1dd48e881e995c9bc81c995dd85c99608a1b604482015260640161085a565b82600103611a6b57336000908152600b6020526040902080546119f8908390614659565b815542600182015560006002820181905560048054849290611a1b908490614659565b90915550611a2a905033613fdc565b604080518581526020810184905233917f25cc330e45ba90d54a192e4b82561ef108e24933d5abcdacb59cdcb55276e6c6910160405180910390a250611abf565b806005541015611ab65760405162461bcd60e51b81526020600482015260166024820152751dd48e881a5b9cdd59999a58da595b9d081d1bdd185b60521b604482015260640161085a565b611abf81613839565b50506109e26001600055565b600160085410611aed5760405162461bcd60e51b815260040161085a906146a2565b611af561366c565b60008111611b395760405162461bcd60e51b81526020600482015260116024820152701cd590508e881e995c9bc8185b5bdd5b9d607a1b604482015260640161085a565b60007f00000000000000000000000000000000000000000000000000000000000000006001600160a01b031663e2f6f5116040518163ffffffff1660e01b8152600401602060405180830381865afa158015611b99573d6000803e3d6000fd5b505050506040513d601f19601f82011682018060405250810190611bbd919061466c565b6001600160a01b031663313ce5676040518163ffffffff1660e01b8152600401602060405180830381865afa158015611bfa573d6000803e3d6000fd5b505050506040513d601f19601f82011682018060405250810190611c1e91906147da565b611c2990600a6148e1565b9050808211611c685760405162461bcd60e51b815260206004820152600b60248201526a735641423a206d696e203160a81b604482015260640161085a565b611cf57f00000000000000000000000000000000000000000000000000000000000000006001600160a01b031663e2f6f5116040518163ffffffff1660e01b8152600401602060405180830381865afa158015611cc9573d6000803e3d6000fd5b505050506040513d601f19601f82011682018060405250810190611ced919061466c565b3330856136c5565b336000908152600b602052604090208054158015611d1557506001810154155b15611d2357611d23336140a6565b611d2c336114c3565b816002016000828254611d3f9190614659565b9091555050805483908290600090611d58908490614659565b909155505042600182015560048054849190600090611d78908490614659565b90915550611d87905033613fdc565b60405183815233907f1fdab8a8457aaf782e4b6217d6ffa6f5006eda7e50922dd092b2e1524275d77490602001610e67565b60008080611dc6846131ec565b6001600160a01b0385166000908152600e6020526040812054825192935091611df1906001906146d1565b90506000806000805b848110156115c657868181518110611e1457611e1461462d565b6020026020010151935086816001611e2c9190614659565b81518110611e3c57611e3c61462d565b60200260200101519250600080611e558c898888612fda565b9250509150611e658c8787613dee565b93508115611ea757600082611e7c836127106147a1565b611e8691906147b8565b9050612710611e9582876147a1565b611e9f91906147b8565b945050611eac565b600093505b611eb6848b614659565b99505050806001019050611dfa565b600160085410611ee75760405162461bcd60e51b815260040161085a906146a2565b611eef61366c565b6003546001600160a01b03163314611f385760405162461bcd60e51b815260206004820152600c60248201526b6e6f742050726f706572747960a01b604482015260640161085a565b60008060005b601054811015611fd457611f7b60106000018281548110611f6157611f6161462d565b6000918252602090912001546001600160a01b031661174a565b925082600b600060106000018481548110611f9857611f9861462d565b60009182526020808320909101546001600160a01b03168352820192909252604001902060020155611fca8383614659565b9150600101611f3e565b508060055410611ff05780600554611fec91906146d1565b6009555b505060016008556120016001600055565b565b600081815b818110156120d357600d60008686848181106120265761202661462d565b905060200201602081019061203b919061437e565b6001600160a01b03166001600160a01b0316815260200190815260200160002060010154600003612071576000925050506120da565b600d60008686848181106120875761208761462d565b905060200201602081019061209c919061437e565b6001600160a01b0316815260208101919091526040016000206002015460ff166120cb576000925050506120da565b600101612008565b5060019150505b92915050565b60008086116121245760405162461bcd60e51b815260206004820152601060248201526f185c1c8e881e995c9bc81c195c9a5bd960821b604482015260640161085a565b600085116121675760405162461bcd60e51b815260206004820152601060248201526f30b8391d103d32b9379039ba30b5b2b960811b604482015260640161085a565b828410156121ad5760405162461bcd60e51b8152602060048201526013602482015272185c1c8e88189859081d9bdd194818dbdd5b9d606a1b604482015260640161085a565b60006121b886614135565b905060006402540be40088836005546121d191906147a1565b6121db91906147a1565b6121e591906147b8565b90508315612280576003546040805163cb9f7d2360e01b815290516402540be400926001600160a01b03169163cb9f7d239160048083019260209291908290030181865afa15801561223b573d6000803e3d6000fd5b505050506040513d601f19601f8201168201806040525081019061225f9190614689565b61226990836147a1565b61227391906147b8565b61227d9082614659565b90505b600086156122ce5785600003612298575060006122ce565b6000876122a7886127106147a1565b6122b191906147b8565b90506127106122c082856147a1565b6122ca91906147b8565b9150505b6122d88183614659565b9998505050505050505050565b7f00000000000000000000000000000000000000000000000000000000000000006001600160a01b0316633ec045a66040518163ffffffff1660e01b8152600401602060405180830381865afa158015612343573d6000803e3d6000fd5b505050506040513d601f19601f82011682018060405250810190612367919061466c565b6001600160a01b0316336001600160a01b0316146123975760405162461bcd60e51b815260040161085a906146e4565b61239f61366c565b600354604080516309eca16960e01b815290516000926001600160a01b0316916309eca1699160048083019260209291908290030181865afa1580156123e9573d6000803e3d6000fd5b505050506040513d601f19601f8201168201806040525081019061240d919061466c565b90506001600160a01b0381166124595760405162461bcd60e51b81526020600482015260116024820152707741463a207a65726f206164647265737360781b604482015260640161085a565b6008546001146124ab5760405162461bcd60e51b815260206004820152601960248201527f4d6967726174696f6e206973206e6f74206f6e20676f696e6700000000000000604482015260640161085a565b60007f00000000000000000000000000000000000000000000000000000000000000006001600160a01b031663e2f6f5116040518163ffffffff1660e01b8152600401602060405180830381865afa15801561250b573d6000803e3d6000fd5b505050506040513d601f19601f8201168201806040525081019061252f919061466c565b6009546040516370a0823160e01b81523060048201529192506000916001600160a01b038416906370a0823190602401602060405180830381865afa15801561257c573d6000803e3d6000fd5b505050506040513d601f19601f820116820180604052508101906125a09190614689565b101580156125b057506000600954115b156125f4576125c28284600954613977565b6009546125cf9082614659565b6125d99082614659565b90506009546005546125eb91906146d1565b60055560006009555b6040516341c0056f60e01b81526001600160a01b0384811660048301527f000000000000000000000000000000000000000000000000000000000000000016906341c0056f906024016020604051808303816000875af115801561265c573d6000803e3d6000fd5b505050506040513d601f19601f820116820180604052508101906126809190614689565b61268a9082614659565b6002546040516353d4ede760e11b81526001600160a01b03868116600483015292935091169063a7a9dbce906024016020604051808303816000875af11580156126d8573d6000803e3d6000fd5b505050506040513d601f19601f820116820180604052508101906126fc9190614689565b6127069082614659565b6002600855604080516001600160a01b0386168152602081018390529192507f9bfe3c8b4f2b0d09949c3af4636c3df50b577d6405999142c729fa003f3cb0b2910160405180910390a15050506120016001600055565b606060106000018054806020026020016040519081016040528092919081815260200182805480156127b857602002820191906000526020600020905b81546001600160a01b0316815260019091019060200180831161279a575b5050505050905090565b60035460408051633fd8b02f60e01b815290516000926001600160a01b031691633fd8b02f9160048083019260209291908290030181865afa15801561280c573d6000803e3d6000fd5b505050506040513d601f19601f820116820180604052508101906128309190614689565b6001600160a01b0383166000908152600b60205260409020600101546120da9190614659565b6002546000906001600160a01b0316331461289d5760405162461bcd60e51b81526020600482015260076024820152666e6f742064616f60c81b604482015260640161085a565b84821480156128ad57506103e885105b6128ee5760405162461bcd60e51b815260206004820152601260248201527173656e645641423a2062616420617272617960701b604482015260640161085a565b600085815b81811015612a495785858281811061290d5761290d61462d565b90506020020135600d60008b8b8581811061292a5761292a61462d565b905060200201602081019061293f919061437e565b6001600160a01b03168152602081019190915260400160002054101561299f5760405162461bcd60e51b81526020600482015260156024820152741cd95b991590508e881a5b9cdd59999a58da595b9d605a1b604482015260640161085a565b8585828181106129b1576129b161462d565b90506020020135600d60008b8b858181106129ce576129ce61462d565b90506020020160208101906129e3919061437e565b6001600160a01b03166001600160a01b031681526020019081526020016000206000016000828254612a1591906146d1565b909155508690508582818110612a2d57612a2d61462d565b9050602002013583612a3f9190614659565b92506001016128f3565b50612ad67f00000000000000000000000000000000000000000000000000000000000000006001600160a01b031663e2f6f5116040518163ffffffff1660e01b8152600401602060405180830381865afa158015612aab573d6000803e3d6000fd5b505050506040513d601f19601f82011682018060405250810190612acf919061466c565b8784613977565b509695505050505050565b6002546001600160a01b03163314612b255760405162461bcd60e51b81526020600482015260076024820152666e6f742064616f60c81b604482015260640161085a565b600755565b7f00000000000000000000000000000000000000000000000000000000000000006001600160a01b031663d5f394886040518163ffffffff1660e01b8152600401602060405180830381865afa158015612b88573d6000803e3d6000fd5b505050506040513d601f19601f82011682018060405250810190612bac919061466c565b6001600160a01b0316336001600160a01b031614612bfb5760405162461bcd60e51b815260206004820152600c60248201526b3737ba103232b83637bcb2b960a11b604482015260640161085a565b6002546001600160a01b031615612c485760405162461bcd60e51b81526020600482015260116024820152701a5b9a5d0e881a5b9a5d1a585b1a5e9959607a1b604482015260640161085a565b6001600160a01b038316612c8f5760405162461bcd60e51b815260206004820152600e60248201526d696e69743a207a65726f2064616f60901b604482015260640161085a565b600280546001600160a01b0319166001600160a01b03858116919091179091558216612cf35760405162461bcd60e51b8152602060048201526013602482015272696e69743a207a65726f2070726f706572747960681b604482015260640161085a565b600380546001600160a01b0319166001600160a01b03848116919091179091558116612d535760405162461bcd60e51b815260206004820152600f60248201526e696e69743a207a65726f20766f746560881b604482015260640161085a565b600180546001600160a01b0319166001600160a01b03929092169190911790555050565b6001546001600160a01b03163314612dbc5760405162461bcd60e51b81526020600482015260086024820152676e6f7420766f746560c01b604482015260640161085a565b6001600160a01b039092166000908152600a602090815260408083209483529390529190912055565b600080808084815b81811015612ec657878782818110612e0757612e0761462d565b9050602002016020810190612e1c919061437e565b6001600160a01b0381166000908152600d6020526040812060010154919650909450849003612e53576000955050505050506120da565b6001600160a01b0385166000908152600d6020526040902054841115612e81576000955050505050506120da565b6001600160a01b0385166000908152600d602052604090206002015460ff16612eb2576000955050505050506120da565b612ebc8484614659565b9250600101612ded565b5060007f00000000000000000000000000000000000000000000000000000000000000006001600160a01b031663e2f6f5116040518163ffffffff1660e01b8152600401602060405180830381865afa158015612f27573d6000803e3d6000fd5b505050506040513d601f19601f82011682018060405250810190612f4b919061466c565b6040516370a0823160e01b815230600482015290915083906001600160a01b038316906370a0823190602401602060405180830381865afa158015612f94573d6000803e3d6000fd5b505050506040513d601f19601f82011682018060405250810190612fb89190614689565b1015612fcc576000955050505050506120da565b506001979650505050505050565b6000806000806000905060008061301b604051806080016040528060006001600160a01b031681526020016000815260200160008152602001600081525090565b6012548a5b818110156131d8576012818154811061303b5761303b61462d565b600091825260209182902060408051608081018252600490930290910180546001600160a01b03168352600181015493830184905260028101549183019190915260030154606082015293508b108015906130a95750826040015183602001516130a59190614659565b8a11155b156131d057856130b8816148f0565b9650508c6001600160a01b031683600001516001600160a01b0316148061310557506001600160a01b038d166000908152600a602090815260408083206060870151845290915290205415155b156131a8576001600160a01b038d166000908152600b60205260409020600101548b1061313e57613137600186614659565b94506131d0565b8c6001600160a01b031683600001516001600160a01b0316148061319457506001600160a01b038d166000908152600b6020908152604080832060010154600a8352818420606088015185529092529091205411155b6131a357613137600186614659565b6131d0565b826040015183602001516131bc9190614659565b42116131d0576131cd600185614659565b93505b600101613020565b50939b929a50909850909650505050505050565b601254604080516080810182526000808252602080830182905282840182905260608084018390526001600160a01b0387168352600b825284832060010154600e9092529382205493949390914291805b868110156132d1576001600160a01b0389166000908152600b602052604090206001015460128054839081106132755761327561462d565b9060005260206000209060040201600201546012838154811061329a5761329a61462d565b9060005260206000209060040201600101546132b69190614659565b106132c957826132c5816148f0565b9350505b60010161323d565b506132dd8260026147a1565b6132e8906002614659565b67ffffffffffffffff8111156133005761330061475b565b604051908082528060200260200182016040528015613329578160200160208202803683370190505b50965083876000815181106133405761334061462d565b602090810291909101015260009150805b868110156134c8576012818154811061336c5761336c61462d565b600091825260209182902060408051608081018252600490930290910180546001600160a01b031683526001810154938301849052600281015491830182905260030154606083015290975086916133c49190614659565b106134c0576020860151886133da8560026147a1565b6133e5906001614659565b815181106133f5576133f561462d565b602002602001018181525050856040015186602001516134159190614659565b886134218560026147a1565b61342c906002614659565b8151811061343c5761343c61462d565b602090810291909101015283886134548560026147a1565b61345f906002614659565b8151811061346f5761346f61462d565b602002602001015111156134b257838861348a8560026147a1565b613495906002614659565b815181106134a5576134a561462d565b6020026020010181815250505b826134bc816148f0565b9350505b600101613351565b5082876134d68460026147a1565b6134e1906001614659565b815181106134f1576134f161462d565b602002602001018181525050613506876141ea565b50505050505050919050565b600080600360009054906101000a90046001600160a01b03166001600160a01b0316633346cfb66040518163ffffffff1660e01b8152600401602060405180830381865afa158015613568573d6000803e3d6000fd5b505050506040513d601f19601f8201168201806040525081019061358c9190614689565b90506000600360009054906101000a90046001600160a01b03166001600160a01b03166340be28836040518163ffffffff1660e01b8152600401602060405180830381865afa1580156135e3573d6000803e3d6000fd5b505050506040513d601f19601f820116820180604052508101906136079190614689565b905060006402540be4008361361b60105490565b61362591906147a1565b613631906127106147a1565b61363b91906147b8565b9050613649826127106147a1565b811161365757819350613666565b613663612710826147b8565b93505b50505090565b6002600054036136be5760405162461bcd60e51b815260206004820152601f60248201527f5265656e7472616e637947756172643a207265656e7472616e742063616c6c00604482015260640161085a565b6002600055565b6001600160a01b0384163b6137005760405162461bcd60e51b81526020600482015260016024820152604360f81b604482015260640161085a565b604080516001600160a01b0385811660248301528481166044830152606480830185905283518084039091018152608490920183526020820180516001600160e01b03166323b872dd60e01b17905291516000928392908816916137649190614909565b6000604051808303816000865af19150503d80600081146137a1576040519150601f19603f3d011682016040523d82523d6000602084013e6137a6565b606091505b50915091508180156137d05750805115806137d05750808060200190518101906137d09190614938565b6138315760405162461bcd60e51b815260206004820152602c60248201527f566162626c6544414f3a3a7472616e7366657246726f6d3a207472616e73666560448201526b1c919c9bdb4819985a5b195960a21b606482015260840161085a565b505050505050565b6138c57f00000000000000000000000000000000000000000000000000000000000000006001600160a01b031663e2f6f5116040518163ffffffff1660e01b8152600401602060405180830381865afa15801561389a573d6000803e3d6000fd5b505050506040513d601f19601f820116820180604052508101906138be919061466c565b3383613977565b80600560008282546138d791906146d1565b9091555050336000908152600c6020526040812080548392906138fb908490614659565b9250508190555080600660008282546139149190614659565b9091555050336000818152600b602052604080822042600182015560020191909155517f6553897c25961cd3a105492c25576d0552123ee868aca283e90f3b4224d7d177906139669084815260200190565b60405180910390a26109e233613fdc565b6001600160a01b0383163b6139b25760405162461bcd60e51b81526020600482015260016024820152604360f81b604482015260640161085a565b604080516001600160a01b038481166024830152604480830185905283518084039091018152606490920183526020820180516001600160e01b031663a9059cbb60e01b1790529151600092839290871691613a0e9190614909565b6000604051808303816000865af19150503d8060008114613a4b576040519150601f19603f3d011682016040523d82523d6000602084013e613a50565b606091505b5091509150818015613a7a575080511580613a7a575080806020019051810190613a7a9190614938565b613ad75760405162461bcd60e51b815260206004820152602860248201527f566162626c6544414f3a3a736166655472616e736665723a207472616e7366656044820152671c8819985a5b195960c21b606482015260840161085a565b5050505050565b6001600160a01b0381166000908152601160205260408120549003613b005750565b6001600160a01b03811660009081526011602052604081205460108054919291613b2c906001906146d1565b81548110613b3c57613b3c61462d565b60009182526020808320909101546001600160a01b039081168084526011909252604080842086905590861683528220919091559050806010613b806001856146d1565b81548110613b9057613b9061462d565b600091825260209091200180546001600160a01b0319166001600160a01b03929092169190911790556010805480613bca57613bca614955565b600082815260209020810160001990810180546001600160a01b0319169055019055505050565b6001600160a01b0381166000908152600d602052604081206001015480613c4e5760405162461bcd60e51b815260206004820152601160248201527061573a207a65726f20776974686472617760781b604482015260640161085a565b6001600160a01b0383166000908152600d6020526040902054811115613ca95760405162461bcd60e51b815260206004820152601060248201526f1855ce881a5b9cdd59999a58dd595b9d60821b604482015260640161085a565b6001600160a01b0383166000908152600d602052604090206002015460ff16613d055760405162461bcd60e51b815260206004820152600e60248201526d61573a206e6f2070656e64696e6760901b604482015260640161085a565b613d917f00000000000000000000000000000000000000000000000000000000000000006001600160a01b031663e2f6f5116040518163ffffffff1660e01b8152600401602060405180830381865afa158015613d66573d6000803e3d6000fd5b505050506040513d601f19601f82011682018060405250810190613d8a919061466c565b8483613977565b6001600160a01b0383166000908152600d602052604081208054839290613db99084906146d1565b90915550506001600160a01b039092166000908152600d602052604081206001810191909155600201805460ff191690555090565b6001600160a01b0383166000908152600b602090815260408083208151606081018352815480825260018301549482019490945260029091015491810191909152908203613e40576000915050611743565b83600003613e52576000915050611743565b6000613e618260000151614135565b9050600062015180613e7387876146d1565b613e7f906127106147a1565b613e8991906147b8565b90506127106402540be4008284600554613ea391906147a1565b613ead91906147a1565b613eb791906147b8565b613ec191906147b8565b600354604051630d08efab60e31b8152600260048201526001600160a01b038a811660248301529296509116906368477d5890604401602060405180830381865afa158015613f14573d6000803e3d6000fd5b505050506040513d601f19601f82011682018060405250810190613f389190614689565b600203613fd2576003546040805163cb9f7d2360e01b815290516402540be400926001600160a01b03169163cb9f7d239160048083019260209291908290030181865afa158015613f8d573d6000803e3d6000fd5b505050506040513d601f19601f82011682018060405250810190613fb19190614689565b613fbb90866147a1565b613fc591906147b8565b613fcf9085614659565b93505b5050509392505050565b6012546001600160a01b0382166000908152600e6020526040902054805b828110156140a0576001600160a01b0384166000908152600b602052604090206001015460128054839081106140325761403261462d565b906000526020600020906004020160020154601283815481106140575761405761462d565b9060005260206000209060040201600101546140739190614659565b10614098576001600160a01b0384166000908152600e602052604090208190556140a0565b600101613ffa565b50505050565b6001600160a01b038116600090815260116020526040902054156140c75750565b6010546140d5906001614659565b6001600160a01b039091166000818152601160205260408120929092556010805460018101825592527f1b6847dc741a1b0cd08d278845f9d819d87b734759afb55fe2de5cb82a9ae67290910180546001600160a01b0319169091179055565b600080600454836402540be40061414c91906147a1565b61415691906147b8565b90506402540be40081600360009054906101000a90046001600160a01b03166001600160a01b0316637b0a47ee6040518163ffffffff1660e01b8152600401602060405180830381865afa1580156141b2573d6000803e3d6000fd5b505050506040513d601f19601f820116820180604052508101906141d69190614689565b6141e091906147a1565b61174391906147b8565b60606141f8826141ff614203565b5090919050565b1190565b60606141f8602084016142158561421b565b84614233565b6000815160200261422c8360200190565b0192915050565b6040838303101561424357505050565b600061424d845190565b905083602081015b8481101561428f57614272614268825190565b848663ffffffff16565b15614287576020919091018051825182528252905b602001614255565b5084518151865281526142a3858285614233565b613ad7816020018585614233565b60008083601f8401126142c357600080fd5b50813567ffffffffffffffff8111156142db57600080fd5b6020830191508360208260051b85010111156142f657600080fd5b9250929050565b6000806000806040858703121561431357600080fd5b843567ffffffffffffffff8082111561432b57600080fd5b614337888389016142b1565b9096509450602087013591508082111561435057600080fd5b5061435d878288016142b1565b95989497509550505050565b6001600160a01b03811681146109e257600080fd5b60006020828403121561439057600080fd5b813561174381614369565b6000602082840312156143ad57600080fd5b5035919050565b600080602083850312156143c757600080fd5b823567ffffffffffffffff8111156143de57600080fd5b6143ea858286016142b1565b90969095509350505050565b60008060006060848603121561440b57600080fd5b833561441681614369565b95602085013595506040909401359392505050565b80151581146109e257600080fd5b600080600080600060a0868803121561445157600080fd5b8535945060208601359350604086013592506060860135915060808601356144788161442b565b809150509295509295909350565b6020808252825182820181905260009190848201906040850190845b818110156144c75783516001600160a01b0316835292840192918401916001016144a2565b50909695505050505050565b6000806000806000606086880312156144eb57600080fd5b853567ffffffffffffffff8082111561450357600080fd5b61450f89838a016142b1565b90975095506020880135915061452482614369565b9093506040870135908082111561453a57600080fd5b50614547888289016142b1565b969995985093965092949392505050565b60008060006060848603121561456d57600080fd5b833561457881614369565b9250602084013561458881614369565b9150604084013561459881614369565b809150509250925092565b600080600080608085870312156145b957600080fd5b84356145c481614369565b966020860135965060408601359560600135945092505050565b60008151808452602080850194506020840160005b8381101561460f578151875295820195908201906001016145f3565b509495945050505050565b60208152600061174360208301846145de565b634e487b7160e01b600052603260045260246000fd5b634e487b7160e01b600052601160045260246000fd5b808201808211156120da576120da614643565b60006020828403121561467e57600080fd5b815161174381614369565b60006020828403121561469b57600080fd5b5051919050565b6020808252601590820152744d6967726174696f6e206973206f6e20676f696e6760581b604082015260600190565b818103818111156120da576120da614643565b6020808252600b908201526a3737ba1030bab234ba37b960a91b604082015260600190565b8183526000602080850194508260005b8581101561460f57813561472c81614369565b6001600160a01b031687529582019590820190600101614719565b602081526000610830602083018486614709565b634e487b7160e01b600052604160045260246000fd5b604081526000614785604083018587614709565b828103602084015261479781856145de565b9695505050505050565b80820281158282048414176120da576120da614643565b6000826147d557634e487b7160e01b600052601260045260246000fd5b500490565b6000602082840312156147ec57600080fd5b815160ff8116811461174357600080fd5b600181815b8085111561483857816000190482111561481e5761481e614643565b8085161561482b57918102915b93841c9390800290614802565b509250929050565b60008261484f575060016120da565b8161485c575060006120da565b8160018114614872576002811461487c57614898565b60019150506120da565b60ff84111561488d5761488d614643565b50506001821b6120da565b5060208310610133831016604e8410600b84101617156148bb575081810a6120da565b6148c583836147fd565b80600019048211156148d9576148d9614643565b029392505050565b600061174360ff841683614840565b60006001820161490257614902614643565b5060010190565b6000825160005b8181101561492a5760208186018101518583015201614910565b506000920191825250919050565b60006020828403121561494a57600080fd5b81516117438161442b565b634e487b7160e01b600052603160045260246000fdfea2646970667358221220a44c1331607ed32053145c2a84be804e628bcd0cedc6428f9c257a3569b866a264736f6c63430008190033","linkReferences":{}},"methodIdentifiers":{"__calcProposalTimeIntervals(address)":"e576f3cb","__getProposalVoteCount(address,uint256,uint256,uint256)":"e0e2654e","addProposalData(address,uint256,uint256)":"4037f8aa","addRewardToPool(uint256)":"3a53ed49","addVotedData(address,uint256,uint256)":"c3070961","approvePendingWithdraw(address[])":"313fdded","calcMigrationVAB()":"71e6651a","calcPendingRewards(address)":"625fcf8d","calcRealizedRewards(address)":"3dcc27fa","calcRewardAmount(address)":"47f1a809","calculateAPR(uint256,uint256,uint256,uint256,bool)":"755f9197","checkAllocateToPool(address[],uint256[])":"033e7ed9","checkApprovePendingWithdraw(address[])":"cc63c7df","checkDenyPendingWithDraw(address[])":"74adb1cb","denyPendingWithdraw(address[])":"30e2b581","depositVAB(uint256)":"1c585316","getLimitCount()":"f6d5b214","getOwnableAddress()":"5c6aad04","getPropertyAddress()":"f2c4769a","getRentVABAmount(address)":"cc5adbea","getStakeAmount(address)":"0c2eb403","getStakerList()":"a3691c06","getVabbleDaoAddress()":"3ab042eb","getVoteAddress()":"87a84357","getWithdrawableTime(address)":"a44783ef","initialize(address,address,address)":"c0c53b8b","lastfundProposalCreateTime()":"178e5aea","migrationStatus()":"06731d33","minProposalIndex(address)":"173bc00c","pendingWithdraw(uint256)":"2d72ac53","proposalCount()":"da35c664","receivedRewardAmount(address)":"88233256","sendVAB(address[],address,uint256[])":"af35a35c","stakeInfo(address)":"1601e641","stakeVAB(uint256)":"52aa50cd","stakerCount()":"dff69787","totalMigrationVAB()":"9ebb315a","totalRewardAmount()":"8e73064f","totalRewardIssuedAmount()":"f22eea7d","totalStakingAmount()":"d201114a","unstakeVAB(uint256)":"28d2a818","updateLastfundProposalCreateTime(uint256)":"bf466754","userRentInfo(address)":"74e17cf8","withdrawAllFund()":"86ff6b65","withdrawReward(uint256)":"523a3f08"},"id":6}