{"abi":[{"type":"constructor","inputs":[{"name":"_ownable","type":"address","internalType":"address"}],"stateMutability":"nonpayable"},{"type":"function","name":"__calcProposalTimeIntervals","inputs":[{"name":"_user","type":"address","internalType":"address"}],"outputs":[{"name":"times_","type":"uint256[]","internalType":"uint256[]"}],"stateMutability":"view"},{"type":"function","name":"__getProposalVoteCount","inputs":[{"name":"_user","type":"address","internalType":"address"},{"name":"minIndex","type":"uint256","internalType":"uint256"},{"name":"_start","type":"uint256","internalType":"uint256"},{"name":"_end","type":"uint256","internalType":"uint256"}],"outputs":[{"name":"","type":"uint256","internalType":"uint256"},{"name":"","type":"uint256","internalType":"uint256"},{"name":"","type":"uint256","internalType":"uint256"}],"stateMutability":"view"},{"type":"function","name":"addProposalData","inputs":[{"name":"_creator","type":"address","internalType":"address"},{"name":"_cTime","type":"uint256","internalType":"uint256"},{"name":"_period","type":"uint256","internalType":"uint256"}],"outputs":[{"name":"","type":"uint256","internalType":"uint256"}],"stateMutability":"nonpayable"},{"type":"function","name":"addRewardToPool","inputs":[{"name":"_amount","type":"uint256","internalType":"uint256"}],"outputs":[],"stateMutability":"nonpayable"},{"type":"function","name":"addVotedData","inputs":[{"name":"_user","type":"address","internalType":"address"},{"name":"_time","type":"uint256","internalType":"uint256"},{"name":"_proposalID","type":"uint256","internalType":"uint256"}],"outputs":[],"stateMutability":"nonpayable"},{"type":"function","name":"approvePendingWithdraw","inputs":[{"name":"_customers","type":"address[]","internalType":"address[]"}],"outputs":[],"stateMutability":"nonpayable"},{"type":"function","name":"calcMigrationVAB","inputs":[],"outputs":[],"stateMutability":"nonpayable"},{"type":"function","name":"calcPendingRewards","inputs":[{"name":"_user","type":"address","internalType":"address"}],"outputs":[{"name":"","type":"uint256","internalType":"uint256"}],"stateMutability":"view"},{"type":"function","name":"calcRealizedRewards","inputs":[{"name":"_user","type":"address","internalType":"address"}],"outputs":[{"name":"","type":"uint256","internalType":"uint256"}],"stateMutability":"view"},{"type":"function","name":"calcRewardAmount","inputs":[{"name":"_user","type":"address","internalType":"address"}],"outputs":[{"name":"","type":"uint256","internalType":"uint256"}],"stateMutability":"view"},{"type":"function","name":"calculateAPR","inputs":[{"name":"_period","type":"uint256","internalType":"uint256"},{"name":"_stakeAmount","type":"uint256","internalType":"uint256"},{"name":"_proposalCount","type":"uint256","internalType":"uint256"},{"name":"_voteCount","type":"uint256","internalType":"uint256"},{"name":"isBoardMember","type":"bool","internalType":"bool"}],"outputs":[{"name":"amount_","type":"uint256","internalType":"uint256"}],"stateMutability":"view"},{"type":"function","name":"checkAllocateToPool","inputs":[{"name":"_users","type":"address[]","internalType":"address[]"},{"name":"_amounts","type":"uint256[]","internalType":"uint256[]"}],"outputs":[{"name":"","type":"bool","internalType":"bool"}],"stateMutability":"view"},{"type":"function","name":"checkApprovePendingWithdraw","inputs":[{"name":"_customers","type":"address[]","internalType":"address[]"}],"outputs":[{"name":"","type":"bool","internalType":"bool"}],"stateMutability":"view"},{"type":"function","name":"checkDenyPendingWithDraw","inputs":[{"name":"_customers","type":"address[]","internalType":"address[]"}],"outputs":[{"name":"","type":"bool","internalType":"bool"}],"stateMutability":"view"},{"type":"function","name":"denyPendingWithdraw","inputs":[{"name":"_customers","type":"address[]","internalType":"address[]"}],"outputs":[],"stateMutability":"nonpayable"},{"type":"function","name":"depositVAB","inputs":[{"name":"_amount","type":"uint256","internalType":"uint256"}],"outputs":[],"stateMutability":"nonpayable"},{"type":"function","name":"getLimitCount","inputs":[],"outputs":[{"name":"count_","type":"uint256","internalType":"uint256"}],"stateMutability":"view"},{"type":"function","name":"getOwnableAddress","inputs":[],"outputs":[{"name":"","type":"address","internalType":"address"}],"stateMutability":"view"},{"type":"function","name":"getPropertyAddress","inputs":[],"outputs":[{"name":"","type":"address","internalType":"address"}],"stateMutability":"view"},{"type":"function","name":"getRentVABAmount","inputs":[{"name":"_user","type":"address","internalType":"address"}],"outputs":[{"name":"amount_","type":"uint256","internalType":"uint256"}],"stateMutability":"view"},{"type":"function","name":"getStakeAmount","inputs":[{"name":"_user","type":"address","internalType":"address"}],"outputs":[{"name":"amount_","type":"uint256","internalType":"uint256"}],"stateMutability":"view"},{"type":"function","name":"getStakerList","inputs":[],"outputs":[{"name":"","type":"address[]","internalType":"address[]"}],"stateMutability":"view"},{"type":"function","name":"getVabbleDaoAddress","inputs":[],"outputs":[{"name":"","type":"address","internalType":"address"}],"stateMutability":"view"},{"type":"function","name":"getVoteAddress","inputs":[],"outputs":[{"name":"","type":"address","internalType":"address"}],"stateMutability":"view"},{"type":"function","name":"getWithdrawableTime","inputs":[{"name":"_user","type":"address","internalType":"address"}],"outputs":[{"name":"time_","type":"uint256","internalType":"uint256"}],"stateMutability":"view"},{"type":"function","name":"initialize","inputs":[{"name":"_vabbleDAO","type":"address","internalType":"address"},{"name":"_property","type":"address","internalType":"address"},{"name":"_vote","type":"address","internalType":"address"}],"outputs":[],"stateMutability":"nonpayable"},{"type":"function","name":"lastfundProposalCreateTime","inputs":[],"outputs":[{"name":"","type":"uint256","internalType":"uint256"}],"stateMutability":"view"},{"type":"function","name":"migrationStatus","inputs":[],"outputs":[{"name":"","type":"uint256","internalType":"uint256"}],"stateMutability":"view"},{"type":"function","name":"minProposalIndex","inputs":[{"name":"","type":"address","internalType":"address"}],"outputs":[{"name":"","type":"uint256","internalType":"uint256"}],"stateMutability":"view"},{"type":"function","name":"pendingWithdraw","inputs":[{"name":"_amount","type":"uint256","internalType":"uint256"}],"outputs":[],"stateMutability":"nonpayable"},{"type":"function","name":"proposalCount","inputs":[],"outputs":[{"name":"_value","type":"uint256","internalType":"uint256"}],"stateMutability":"view"},{"type":"function","name":"receivedRewardAmount","inputs":[{"name":"","type":"address","internalType":"address"}],"outputs":[{"name":"","type":"uint256","internalType":"uint256"}],"stateMutability":"view"},{"type":"function","name":"sendVAB","inputs":[{"name":"_users","type":"address[]","internalType":"address[]"},{"name":"_to","type":"address","internalType":"address"},{"name":"_amounts","type":"uint256[]","internalType":"uint256[]"}],"outputs":[{"name":"","type":"uint256","internalType":"uint256"}],"stateMutability":"nonpayable"},{"type":"function","name":"stakeInfo","inputs":[{"name":"","type":"address","internalType":"address"}],"outputs":[{"name":"stakeAmount","type":"uint256","internalType":"uint256"},{"name":"stakeTime","type":"uint256","internalType":"uint256"},{"name":"outstandingReward","type":"uint256","internalType":"uint256"}],"stateMutability":"view"},{"type":"function","name":"stakeVAB","inputs":[{"name":"_amount","type":"uint256","internalType":"uint256"}],"outputs":[],"stateMutability":"nonpayable"},{"type":"function","name":"stakerCount","inputs":[],"outputs":[{"name":"","type":"uint256","internalType":"uint256"}],"stateMutability":"view"},{"type":"function","name":"totalMigrationVAB","inputs":[],"outputs":[{"name":"","type":"uint256","internalType":"uint256"}],"stateMutability":"view"},{"type":"function","name":"totalRewardAmount","inputs":[],"outputs":[{"name":"","type":"uint256","internalType":"uint256"}],"stateMutability":"view"},{"type":"function","name":"totalRewardIssuedAmount","inputs":[],"outputs":[{"name":"","type":"uint256","internalType":"uint256"}],"stateMutability":"view"},{"type":"function","name":"totalStakingAmount","inputs":[],"outputs":[{"name":"","type":"uint256","internalType":"uint256"}],"stateMutability":"view"},{"type":"function","name":"unstakeVAB","inputs":[{"name":"_amount","type":"uint256","internalType":"uint256"}],"outputs":[],"stateMutability":"nonpayable"},{"type":"function","name":"updateLastfundProposalCreateTime","inputs":[{"name":"_time","type":"uint256","internalType":"uint256"}],"outputs":[],"stateMutability":"nonpayable"},{"type":"function","name":"userRentInfo","inputs":[{"name":"","type":"address","internalType":"address"}],"outputs":[{"name":"vabAmount","type":"uint256","internalType":"uint256"},{"name":"withdrawAmount","type":"uint256","internalType":"uint256"},{"name":"pending","type":"bool","internalType":"bool"}],"stateMutability":"view"},{"type":"function","name":"withdrawAllFund","inputs":[],"outputs":[],"stateMutability":"nonpayable"},{"type":"function","name":"withdrawReward","inputs":[{"name":"_isCompound","type":"uint256","internalType":"uint256"}],"outputs":[],"stateMutability":"nonpayable"},{"type":"event","name":"AllFundWithdraw","inputs":[{"name":"to","type":"address","indexed":false,"internalType":"address"},{"name":"amount","type":"uint256","indexed":false,"internalType":"uint256"}],"anonymous":false},{"type":"event","name":"PendingWithdrawApproved","inputs":[{"name":"customers","type":"address[]","indexed":false,"internalType":"address[]"},{"name":"withdrawAmounts","type":"uint256[]","indexed":false,"internalType":"uint256[]"}],"anonymous":false},{"type":"event","name":"PendingWithdrawDenied","inputs":[{"name":"customers","type":"address[]","indexed":false,"internalType":"address[]"}],"anonymous":false},{"type":"event","name":"RewardAdded","inputs":[{"name":"totalRewardAmount","type":"uint256","indexed":false,"internalType":"uint256"},{"name":"rewardAmount","type":"uint256","indexed":false,"internalType":"uint256"},{"name":"contributor","type":"address","indexed":true,"internalType":"address"}],"anonymous":false},{"type":"event","name":"RewardContinued","inputs":[{"name":"staker","type":"address","indexed":true,"internalType":"address"},{"name":"isCompound","type":"uint256","indexed":false,"internalType":"uint256"},{"name":"rewardAmount","type":"uint256","indexed":false,"internalType":"uint256"}],"anonymous":false},{"type":"event","name":"RewardWithdraw","inputs":[{"name":"staker","type":"address","indexed":true,"internalType":"address"},{"name":"rewardAmount","type":"uint256","indexed":false,"internalType":"uint256"}],"anonymous":false},{"type":"event","name":"TokenStaked","inputs":[{"name":"staker","type":"address","indexed":true,"internalType":"address"},{"name":"stakeAmount","type":"uint256","indexed":false,"internalType":"uint256"}],"anonymous":false},{"type":"event","name":"TokenUnstaked","inputs":[{"name":"unstaker","type":"address","indexed":true,"internalType":"address"},{"name":"unStakeAmount","type":"uint256","indexed":false,"internalType":"uint256"}],"anonymous":false},{"type":"event","name":"VABDeposited","inputs":[{"name":"customer","type":"address","indexed":true,"internalType":"address"},{"name":"amount","type":"uint256","indexed":false,"internalType":"uint256"}],"anonymous":false},{"type":"event","name":"WithdrawPending","inputs":[{"name":"customer","type":"address","indexed":true,"internalType":"address"},{"name":"amount","type":"uint256","indexed":false,"internalType":"uint256"}],"anonymous":false}],"bytecode":{"object":"0x60a0604052600060085560006009553480156200001b57600080fd5b506040516200833138038062008331833981810160405281019062000041919062000160565b6001600081905550600073ffffffffffffffffffffffffffffffffffffffff168173ffffffffffffffffffffffffffffffffffffffff1603620000bb576040517f08c379a0000000000000000000000000000000000000000000000000000000008152600401620000b290620001f3565b60405180910390fd5b8073ffffffffffffffffffffffffffffffffffffffff1660808173ffffffffffffffffffffffffffffffffffffffff16815250505062000215565b600080fd5b600073ffffffffffffffffffffffffffffffffffffffff82169050919050565b60006200012882620000fb565b9050919050565b6200013a816200011b565b81146200014657600080fd5b50565b6000815190506200015a816200012f565b92915050565b600060208284031215620001795762000178620000f6565b5b6000620001898482850162000149565b91505092915050565b600082825260208201905092915050565b7f7a65726f206f776e61626c650000000000000000000000000000000000000000600082015250565b6000620001db600c8362000192565b9150620001e882620001a3565b602082019050919050565b600060208201905081810360008301526200020e81620001cc565b9050919050565b608051618090620002a1600039600081816109b901528181610c8301528181610ff1015281816114c5015281816118d701528181611bcb01528181612564015281816126b40152818161287b01528181612fa3015281816131f20152818161335e0152818161395801528181613a96015281816140e601528181614d34015261549001526180906000f3fe608060405234801561001057600080fd5b506004361061027f5760003560e01c806374e17cf81161015c578063c0c53b8b116100ce578063dff6978711610087578063dff69787146107fc578063e0e2654e1461081a578063e576f3cb1461084c578063f22eea7d1461087c578063f2c4769a1461089a578063f6d5b214146108b85761027f565b8063c0c53b8b14610728578063c307096114610744578063cc5adbea14610760578063cc63c7df14610790578063d201114a146107c0578063da35c664146107de5761027f565b80638e73064f116101205780638e73064f146106525780639ebb315a14610670578063a3691c061461068e578063a44783ef146106ac578063af35a35c146106dc578063bf4667541461070c5761027f565b806374e17cf814610598578063755f9197146105ca57806386ff6b65146105fa57806387a843571461060457806388233256146106225761027f565b80633a53ed49116101f5578063523a3f08116101b9578063523a3f08146104d857806352aa50cd146104f45780635c6aad0414610510578063625fcf8d1461052e57806371e6651a1461055e57806374adb1cb146105685761027f565b80633a53ed491461040e5780633ab042eb1461042a5780633dcc27fa146104485780634037f8aa1461047857806347f1a809146104a85761027f565b8063178e5aea11610247578063178e5aea146103645780631c5853161461038257806328d2a8181461039e5780632d72ac53146103ba57806330e2b581146103d6578063313fdded146103f25761027f565b8063033e7ed91461028457806306731d33146102b45780630c2eb403146102d25780631601e64114610302578063173bc00c14610334575b600080fd5b61029e60048036038101906102999190615e4d565b6108d6565b6040516102ab9190615ee9565b60405180910390f35b6102bc610ae5565b6040516102c99190615f1d565b60405180910390f35b6102ec60048036038101906102e79190615f96565b610aeb565b6040516102f99190615f1d565b60405180910390f35b61031c60048036038101906103179190615f96565b610b37565b60405161032b93929190615fc3565b60405180910390f35b61034e60048036038101906103499190615f96565b610b61565b60405161035b9190615f1d565b60405180910390f35b61036c610b79565b6040516103799190615f1d565b60405180910390f35b61039c60048036038101906103979190616026565b610b7f565b005b6103b860048036038101906103b39190616026565b610dca565b005b6103d460048036038101906103cf9190616026565b61118e565b005b6103f060048036038101906103eb9190616053565b6114c3565b005b61040c60048036038101906104079190616053565b6118d5565b005b61042860048036038101906104239190616026565b611b36565b005b610432611cd1565b60405161043f91906160af565b60405180910390f35b610462600480360381019061045d9190615f96565b611cfb565b60405161046f9190615f1d565b60405180910390f35b610492600480360381019061048d91906160ca565b611e49565b60405161049f9190615f1d565b60405180910390f35b6104c260048036038101906104bd9190615f96565b61201f565b6040516104cf9190615f1d565b60405180910390f35b6104f260048036038101906104ed9190616026565b6120db565b005b61050e60048036038101906105099190616026565b6124d0565b005b610518612877565b60405161052591906160af565b60405180910390f35b61054860048036038101906105439190615f96565b61289f565b6040516105559190615f1d565b60405180910390f35b6105666129f6565b005b610582600480360381019061057d9190616053565b612c08565b60405161058f9190615ee9565b60405180910390f35b6105b260048036038101906105ad9190615f96565b612d36565b6040516105c19392919061611d565b60405180910390f35b6105e460048036038101906105df9190616180565b612d6d565b6040516105f19190615f1d565b60405180910390f35b610602612fa1565b005b61060c6134fe565b60405161061991906160af565b60405180910390f35b61063c60048036038101906106379190615f96565b613528565b6040516106499190615f1d565b60405180910390f35b61065a613540565b6040516106679190615f1d565b60405180910390f35b610678613546565b6040516106859190615f1d565b60405180910390f35b61069661354c565b6040516106a391906162b9565b60405180910390f35b6106c660048036038101906106c19190615f96565b6135dd565b6040516106d39190615f1d565b60405180910390f35b6106f660048036038101906106f191906162db565b6136c4565b6040516107039190615f1d565b60405180910390f35b61072660048036038101906107219190616026565b6139fa565b005b610742600480360381019061073d9190616370565b613a94565b005b61075e600480360381019061075991906160ca565b613e36565b005b61077a60048036038101906107759190615f96565b613f20565b6040516107879190615f1d565b60405180910390f35b6107aa60048036038101906107a59190616053565b613f6c565b6040516107b79190615ee9565b60405180910390f35b6107c8614214565b6040516107d59190615f1d565b60405180910390f35b6107e661421a565b6040516107f39190615f1d565b60405180910390f35b610804614226565b6040516108119190615f1d565b60405180910390f35b610834600480360381019061082f91906163c3565b614236565b60405161084393929190615fc3565b60405180910390f35b61086660048036038101906108619190615f96565b614572565b60405161087391906164e8565b60405180910390f35b610884614993565b6040516108919190615f1d565b60405180910390f35b6108a2614999565b6040516108af91906160af565b60405180910390f35b6108c06149c3565b6040516108cd9190615f1d565b60405180910390f35b600080600086869050905060005b818110156109b4578585828181106108ff576108fe61650a565b5b90506020020135600d60008a8a8581811061091d5761091c61650a565b5b90506020020160208101906109329190615f96565b73ffffffffffffffffffffffffffffffffffffffff1673ffffffffffffffffffffffffffffffffffffffff1681526020019081526020016000206000015410156109825760009350505050610add565b8585828181106109955761099461650a565b5b90506020020135836109a79190616568565b92508060010190506108e4565b5060007f000000000000000000000000000000000000000000000000000000000000000073ffffffffffffffffffffffffffffffffffffffff1663e2f6f5116040518163ffffffff1660e01b8152600401602060405180830381865afa158015610a22573d6000803e3d6000fd5b505050506040513d601f19601f82011682018060405250810190610a4691906165b1565b9050828173ffffffffffffffffffffffffffffffffffffffff166370a08231306040518263ffffffff1660e01b8152600401610a8291906160af565b602060405180830381865afa158015610a9f573d6000803e3d6000fd5b505050506040513d601f19601f82011682018060405250810190610ac391906165f3565b1015610ad55760009350505050610add565b600193505050505b949350505050565b60085481565b6000600b60008373ffffffffffffffffffffffffffffffffffffffff1673ffffffffffffffffffffffffffffffffffffffff168152602001908152602001600020600001549050919050565b600b6020528060005260406000206000915090508060000154908060010154908060020154905083565b600e6020528060005260406000206000915090505481565b60075481565b600160085410610bc4576040517f08c379a0000000000000000000000000000000000000000000000000000000008152600401610bbb9061667d565b60405180910390fd5b610bcc614b55565b600073ffffffffffffffffffffffffffffffffffffffff163373ffffffffffffffffffffffffffffffffffffffff1603610c3b576040517f08c379a0000000000000000000000000000000000000000000000000000000008152600401610c32906166e9565b60405180910390fd5b60008111610c7e576040517f08c379a0000000000000000000000000000000000000000000000000000000008152600401610c7590616755565b60405180910390fd5b610d187f000000000000000000000000000000000000000000000000000000000000000073ffffffffffffffffffffffffffffffffffffffff1663e2f6f5116040518163ffffffff1660e01b8152600401602060405180830381865afa158015610cec573d6000803e3d6000fd5b505050506040513d601f19601f82011682018060405250810190610d1091906165b1565b333084614ba4565b80600d60003373ffffffffffffffffffffffffffffffffffffffff1673ffffffffffffffffffffffffffffffffffffffff1681526020019081526020016000206000016000828254610d6a9190616568565b925050819055503373ffffffffffffffffffffffffffffffffffffffff167f97ee1f0ed0a4c8ac986dc82f2c9e718966a504e47c7e0b963be8b3223eaf13f582604051610db79190615f1d565b60405180910390a2610dc7614d25565b50565b610dd2614b55565b600073ffffffffffffffffffffffffffffffffffffffff163373ffffffffffffffffffffffffffffffffffffffff1603610e41576040517f08c379a0000000000000000000000000000000000000000000000000000000008152600401610e38906167c1565b60405180910390fd5b6000600b60003373ffffffffffffffffffffffffffffffffffffffff1673ffffffffffffffffffffffffffffffffffffffff16815260200190815260200160002090506000600360009054906101000a900473ffffffffffffffffffffffffffffffffffffffff1673ffffffffffffffffffffffffffffffffffffffff16633fd8b02f6040518163ffffffff1660e01b8152600401602060405180830381865afa158015610ef3573d6000803e3d6000fd5b505050506040513d601f19601f82011682018060405250810190610f1791906165f3565b8260010154610f269190616568565b90508282600001541015610f6f576040517f08c379a0000000000000000000000000000000000000000000000000000000008152600401610f669061682d565b60405180910390fd5b60006008541180610f7f57508042115b610fbe576040517f08c379a0000000000000000000000000000000000000000000000000000000008152600401610fb590616899565b60405180910390fd5b6000610fc93361201f565b90508060055410158015610fdd5750600081115b15610fec57610feb81614d2f565b5b6110857f000000000000000000000000000000000000000000000000000000000000000073ffffffffffffffffffffffffffffffffffffffff1663e2f6f5116040518163ffffffff1660e01b8152600401602060405180830381865afa15801561105a573d6000803e3d6000fd5b505050506040513d601f19601f8201168201806040525081019061107e91906165b1565b3386614f39565b428360010181905550838360000160008282546110a291906168b9565b9250508190555083600460008282546110bb91906168b9565b92505081905550600083600001540361113257600b60003373ffffffffffffffffffffffffffffffffffffffff1673ffffffffffffffffffffffffffffffffffffffff168152602001908152602001600020600080820160009055600182016000905560028201600090555050611131336150b7565b5b3373ffffffffffffffffffffffffffffffffffffffff167ff0dbb2abe50e936f0d3720a39c0debe7706007b2c50286a913f24298e9be36ba856040516111789190615f1d565b60405180910390a250505061118b614d25565b50565b611196614b55565b600073ffffffffffffffffffffffffffffffffffffffff163373ffffffffffffffffffffffffffffffffffffffff1603611205576040517f08c379a00000000000000000000000000000000000000000000000000000000081526004016111fc90616939565b60405180910390fd5b60008111611248576040517f08c379a000000000000000000000000000000000000000000000000000000000815260040161123f906169a5565b60405180910390fd5b600d60003373ffffffffffffffffffffffffffffffffffffffff1673ffffffffffffffffffffffffffffffffffffffff16815260200190815260200160002060020160009054906101000a900460ff16156112d8576040517f08c379a00000000000000000000000000000000000000000000000000000000081526004016112cf90616a11565b60405180910390fd5b6000600d60003373ffffffffffffffffffffffffffffffffffffffff1673ffffffffffffffffffffffffffffffffffffffff1681526020019081526020016000206000015490506000600d60003373ffffffffffffffffffffffffffffffffffffffff1673ffffffffffffffffffffffffffffffffffffffff168152602001908152602001600020600101549050808261137291906168b9565b8311156113b4576040517f08c379a00000000000000000000000000000000000000000000000000000000081526004016113ab90616a7d565b60405180910390fd5b82600d60003373ffffffffffffffffffffffffffffffffffffffff1673ffffffffffffffffffffffffffffffffffffffff16815260200190815260200160002060010160008282546114069190616568565b925050819055506001600d60003373ffffffffffffffffffffffffffffffffffffffff1673ffffffffffffffffffffffffffffffffffffffff16815260200190815260200160002060020160006101000a81548160ff0219169083151502179055503373ffffffffffffffffffffffffffffffffffffffff167f9a92c3472ba0d2d183e38c3801bae5d41d693c2803377eae8b0f94683862253e846040516114ae9190615f1d565b60405180910390a250506114c0614d25565b50565b7f000000000000000000000000000000000000000000000000000000000000000073ffffffffffffffffffffffffffffffffffffffff16633ec045a66040518163ffffffff1660e01b8152600401602060405180830381865afa15801561152e573d6000803e3d6000fd5b505050506040513d601f19601f8201168201806040525081019061155291906165b1565b73ffffffffffffffffffffffffffffffffffffffff163373ffffffffffffffffffffffffffffffffffffffff16146115bf576040517f08c379a00000000000000000000000000000000000000000000000000000000081526004016115b690616ae9565b60405180910390fd5b6115c7614b55565b6000828290501180156115de57506103e882829050105b61161d576040517f08c379a000000000000000000000000000000000000000000000000000000000815260040161161490616b55565b60405180910390fd5b600082829050905060005b8181101561188e576000600d60008686858181106116495761164861650a565b5b905060200201602081019061165e9190615f96565b73ffffffffffffffffffffffffffffffffffffffff1673ffffffffffffffffffffffffffffffffffffffff16815260200190815260200160002060010154116116dc576040517f08c379a00000000000000000000000000000000000000000000000000000000081526004016116d390616bc1565b60405180910390fd5b600d60008585848181106116f3576116f261650a565b5b90506020020160208101906117089190615f96565b73ffffffffffffffffffffffffffffffffffffffff1673ffffffffffffffffffffffffffffffffffffffff16815260200190815260200160002060020160009054906101000a900460ff16611792576040517f08c379a000000000000000000000000000000000000000000000000000000000815260040161178990616c2d565b60405180910390fd5b6000600d60008686858181106117ab576117aa61650a565b5b90506020020160208101906117c09190615f96565b73ffffffffffffffffffffffffffffffffffffffff1673ffffffffffffffffffffffffffffffffffffffff168152602001908152602001600020600101819055506000600d600086868581811061181a5761181961650a565b5b905060200201602081019061182f9190615f96565b73ffffffffffffffffffffffffffffffffffffffff1673ffffffffffffffffffffffffffffffffffffffff16815260200190815260200160002060020160006101000a81548160ff021916908315150217905550806001019050611628565b507f26a74dd985c5a627f655c36fbf77f65f1183861b8431734f390aec5cc65e512283836040516118c0929190616cd8565b60405180910390a1506118d1614d25565b5050565b7f000000000000000000000000000000000000000000000000000000000000000073ffffffffffffffffffffffffffffffffffffffff16633ec045a66040518163ffffffff1660e01b8152600401602060405180830381865afa158015611940573d6000803e3d6000fd5b505050506040513d601f19601f8201168201806040525081019061196491906165b1565b73ffffffffffffffffffffffffffffffffffffffff163373ffffffffffffffffffffffffffffffffffffffff16146119d1576040517f08c379a00000000000000000000000000000000000000000000000000000000081526004016119c890616ae9565b60405180910390fd5b6119d9614b55565b6000828290501180156119f057506103e882829050105b611a2f576040517f08c379a0000000000000000000000000000000000000000000000000000000008152600401611a2690616d48565b60405180910390fd5b60008282905067ffffffffffffffff811115611a4e57611a4d616d68565b5b604051908082528060200260200182016040528015611a7c5781602001602082028036833780820191505090505b509050600083839050905060005b81811015611aec57611ac2858583818110611aa857611aa761650a565b5b9050602002016020810190611abd9190615f96565b6152ec565b838281518110611ad557611ad461650a565b5b602002602001018181525050806001019050611a8a565b507f496c3aa8c87fbbd77e2692c3c50ca5c037b81ca4ebb46b24a0ee714a5950fa1b848484604051611b2093929190616d97565b60405180910390a15050611b32614d25565b5050565b600160085410611b7b576040517f08c379a0000000000000000000000000000000000000000000000000000000008152600401611b729061667d565b60405180910390fd5b611b83614b55565b60008111611bc6576040517f08c379a0000000000000000000000000000000000000000000000000000000008152600401611bbd90616e1c565b60405180910390fd5b611c607f000000000000000000000000000000000000000000000000000000000000000073ffffffffffffffffffffffffffffffffffffffff1663e2f6f5116040518163ffffffff1660e01b8152600401602060405180830381865afa158015611c34573d6000803e3d6000fd5b505050506040513d601f19601f82011682018060405250810190611c5891906165b1565b333084614ba4565b80600554611c6e9190616568565b6005819055503373ffffffffffffffffffffffffffffffffffffffff167f373ba8b12aa5d4e47cdadd1193c682ebbd51f00ecf395e4179926426c41a793860055483604051611cbe929190616e3c565b60405180910390a2611cce614d25565b50565b6000600260009054906101000a900473ffffffffffffffffffffffffffffffffffffffff16905090565b600080600090506000611d0d84614572565b90506000600e60008673ffffffffffffffffffffffffffffffffffffffff1673ffffffffffffffffffffffffffffffffffffffff168152602001908152602001600020549050600060018351611d6391906168b9565b90506000806000805b84811015611e3957868181518110611d8757611d8661650a565b5b6020026020010151935086600182611d9f9190616568565b81518110611db057611daf61650a565b5b60200260200101519250600080611dc98c898888614236565b5091509150611dd98c8787615629565b93506000821115611e1e5760008261271083611df59190616e65565b611dff9190616ed6565b90506127108186611e109190616e65565b611e1a9190616ed6565b9450505b838a611e2a9190616568565b99505050806001019050611d6c565b5086975050505050505050919050565b6000600260009054906101000a900473ffffffffffffffffffffffffffffffffffffffff1673ffffffffffffffffffffffffffffffffffffffff163373ffffffffffffffffffffffffffffffffffffffff161480611ef45750600360009054906101000a900473ffffffffffffffffffffffffffffffffffffffff1673ffffffffffffffffffffffffffffffffffffffff163373ffffffffffffffffffffffffffffffffffffffff16145b611f33576040517f08c379a0000000000000000000000000000000000000000000000000000000008152600401611f2a90616f53565b60405180910390fd5b611f3d600f61589d565b6000611f49600f6158b3565b9050601260405180608001604052808773ffffffffffffffffffffffffffffffffffffffff16815260200186815260200185815260200183815250908060018154018082558091505060019003906000526020600020906004020160009091909190915060008201518160000160006101000a81548173ffffffffffffffffffffffffffffffffffffffff021916908373ffffffffffffffffffffffffffffffffffffffff1602179055506020820151816001015560408201518160020155606082015181600301555050809150509392505050565b600080600b60008473ffffffffffffffffffffffffffffffffffffffff1673ffffffffffffffffffffffffffffffffffffffff1681526020019081526020016000206040518060600160405290816000820154815260200160018201548152602001600282015481525050905060008160000151036120a25760009150506120d6565b600060085411156120ba5780604001519150506120d6565b6120c383611cfb565b81604001516120d29190616568565b9150505b919050565b6120e3614b55565b60008114806120f25750600181145b612131576040517f08c379a000000000000000000000000000000000000000000000000000000000815260040161212890616fbf565b60405180910390fd5b6000600b60003373ffffffffffffffffffffffffffffffffffffffff1673ffffffffffffffffffffffffffffffffffffffff16815260200190815260200160002060000154116121b6576040517f08c379a00000000000000000000000000000000000000000000000000000000081526004016121ad9061702b565b60405180910390fd5b6000600360009054906101000a900473ffffffffffffffffffffffffffffffffffffffff1673ffffffffffffffffffffffffffffffffffffffff16633fd8b02f6040518163ffffffff1660e01b8152600401602060405180830381865afa158015612225573d6000803e3d6000fd5b505050506040513d601f19601f8201168201806040525081019061224991906165f3565b600b60003373ffffffffffffffffffffffffffffffffffffffff1673ffffffffffffffffffffffffffffffffffffffff168152602001908152602001600020600101546122969190616568565b9050600060085411806122a857508042115b6122e7576040517f08c379a00000000000000000000000000000000000000000000000000000000081526004016122de90617097565b60405180910390fd5b600060085411156123365760008214612335576040517f08c379a000000000000000000000000000000000000000000000000000000000815260040161232c90617103565b60405180910390fd5b5b60006123413361201f565b905060008111612386576040517f08c379a000000000000000000000000000000000000000000000000000000000815260040161237d9061716f565b60405180910390fd5b60018303612474576000600b60003373ffffffffffffffffffffffffffffffffffffffff1673ffffffffffffffffffffffffffffffffffffffff16815260200190815260200160002090508181600001546123e19190616568565b816000018190555042816001018190555060008160020181905550816004600082825461240e9190616568565b9250508190555061241e336158c1565b3373ffffffffffffffffffffffffffffffffffffffff167f25cc330e45ba90d54a192e4b82561ef108e24933d5abcdacb59cdcb55276e6c68584604051612466929190616e3c565b60405180910390a2506124c3565b8060055410156124b9576040517f08c379a00000000000000000000000000000000000000000000000000000000081526004016124b0906171db565b60405180910390fd5b6124c281614d2f565b5b50506124cd614d25565b50565b600160085410612515576040517f08c379a000000000000000000000000000000000000000000000000000000000815260040161250c9061667d565b60405180910390fd5b61251d614b55565b60008111612560576040517f08c379a000000000000000000000000000000000000000000000000000000000815260040161255790617247565b60405180910390fd5b60007f000000000000000000000000000000000000000000000000000000000000000073ffffffffffffffffffffffffffffffffffffffff1663e2f6f5116040518163ffffffff1660e01b8152600401602060405180830381865afa1580156125cd573d6000803e3d6000fd5b505050506040513d601f19601f820116820180604052508101906125f191906165b1565b73ffffffffffffffffffffffffffffffffffffffff1663313ce5676040518163ffffffff1660e01b8152600401602060405180830381865afa15801561263b573d6000803e3d6000fd5b505050506040513d601f19601f8201168201806040525081019061265f91906172a0565b600a61266b9190617400565b90508082116126af576040517f08c379a00000000000000000000000000000000000000000000000000000000081526004016126a690617497565b60405180910390fd5b6127497f000000000000000000000000000000000000000000000000000000000000000073ffffffffffffffffffffffffffffffffffffffff1663e2f6f5116040518163ffffffff1660e01b8152600401602060405180830381865afa15801561271d573d6000803e3d6000fd5b505050506040513d601f19601f8201168201806040525081019061274191906165b1565b333085614ba4565b6000600b60003373ffffffffffffffffffffffffffffffffffffffff1673ffffffffffffffffffffffffffffffffffffffff1681526020019081526020016000209050600081600001541480156127a4575060008160010154145b156127b3576127b233615a15565b5b6127bc33611cfb565b8160020160008282546127cf9190616568565b92505081905550828160000160008282546127ea9190616568565b92505081905550428160010181905550826004600082825461280c9190616568565b9250508190555061281c336158c1565b3373ffffffffffffffffffffffffffffffffffffffff167f1fdab8a8457aaf782e4b6217d6ffa6f5006eda7e50922dd092b2e1524275d774846040516128629190615f1d565b60405180910390a25050612874614d25565b50565b60007f0000000000000000000000000000000000000000000000000000000000000000905090565b6000806000905060006128b184614572565b90506000600e60008673ffffffffffffffffffffffffffffffffffffffff1673ffffffffffffffffffffffffffffffffffffffff16815260200190815260200160002054905060006001835161290791906168b9565b90506000806000805b848110156129e65786818151811061292b5761292a61650a565b5b60200260200101519350866001826129439190616568565b815181106129545761295361650a565b5b6020026020010151925060008061296d8c898888614236565b925050915061297d8c8787615629565b935060008211156129c657600082612710836129999190616e65565b6129a39190616ed6565b905061271081866129b49190616e65565b6129be9190616ed6565b9450506129cb565b600093505b838a6129d79190616568565b99505050806001019050612910565b5086975050505050505050919050565b600160085410612a3b576040517f08c379a0000000000000000000000000000000000000000000000000000000008152600401612a329061667d565b60405180910390fd5b612a43614b55565b600360009054906101000a900473ffffffffffffffffffffffffffffffffffffffff1673ffffffffffffffffffffffffffffffffffffffff163373ffffffffffffffffffffffffffffffffffffffff1614612ad3576040517f08c379a0000000000000000000000000000000000000000000000000000000008152600401612aca90617503565b60405180910390fd5b60008060005b612ae1614226565b811015612bd557612b3260106000018281548110612b0257612b0161650a565b5b9060005260206000200160009054906101000a900473ffffffffffffffffffffffffffffffffffffffff1661201f565b925082600b600060106000018481548110612b5057612b4f61650a565b5b9060005260206000200160009054906101000a900473ffffffffffffffffffffffffffffffffffffffff1673ffffffffffffffffffffffffffffffffffffffff1673ffffffffffffffffffffffffffffffffffffffff168152602001908152602001600020600201819055508282612bc89190616568565b9150806001019050612ad9565b508060055410612bf45780600554612bed91906168b9565b6009819055505b60016008819055505050612c06614d25565b565b60008083839050905060005b81811015612d29576000600d6000878785818110612c3557612c3461650a565b5b9050602002016020810190612c4a9190615f96565b73ffffffffffffffffffffffffffffffffffffffff1673ffffffffffffffffffffffffffffffffffffffff1681526020019081526020016000206001015403612c9857600092505050612d30565b600d6000868684818110612caf57612cae61650a565b5b9050602002016020810190612cc49190615f96565b73ffffffffffffffffffffffffffffffffffffffff1673ffffffffffffffffffffffffffffffffffffffff16815260200190815260200160002060020160009054906101000a900460ff16612d1e57600092505050612d30565b806001019050612c14565b5060019150505b92915050565b600d6020528060005260406000206000915090508060000154908060010154908060020160009054906101000a900460ff16905083565b6000808611612db1576040517f08c379a0000000000000000000000000000000000000000000000000000000008152600401612da89061756f565b60405180910390fd5b60008511612df4576040517f08c379a0000000000000000000000000000000000000000000000000000000008152600401612deb906175db565b60405180910390fd5b82841015612e37576040517f08c379a0000000000000000000000000000000000000000000000000000000008152600401612e2e90617647565b60405180910390fd5b6000612e4286615b24565b905060006402540be4008883600554612e5b9190616e65565b612e659190616e65565b612e6f9190616ed6565b90508315612f31576402540be400600360009054906101000a900473ffffffffffffffffffffffffffffffffffffffff1673ffffffffffffffffffffffffffffffffffffffff1663cb9f7d236040518163ffffffff1660e01b8152600401602060405180830381865afa158015612eea573d6000803e3d6000fd5b505050506040513d601f19601f82011682018060405250810190612f0e91906165f3565b82612f199190616e65565b612f239190616ed6565b81612f2e9190616568565b90505b600080871115612f875760008603612f4c5760009050612f86565b60008761271088612f5d9190616e65565b612f679190616ed6565b90506127108184612f789190616e65565b612f829190616ed6565b9150505b5b8082612f939190616568565b935050505095945050505050565b7f000000000000000000000000000000000000000000000000000000000000000073ffffffffffffffffffffffffffffffffffffffff16633ec045a66040518163ffffffff1660e01b8152600401602060405180830381865afa15801561300c573d6000803e3d6000fd5b505050506040513d601f19601f8201168201806040525081019061303091906165b1565b73ffffffffffffffffffffffffffffffffffffffff163373ffffffffffffffffffffffffffffffffffffffff161461309d576040517f08c379a000000000000000000000000000000000000000000000000000000000815260040161309490616ae9565b60405180910390fd5b6130a5614b55565b6000600360009054906101000a900473ffffffffffffffffffffffffffffffffffffffff1673ffffffffffffffffffffffffffffffffffffffff166309eca1696040518163ffffffff1660e01b8152600401602060405180830381865afa158015613114573d6000803e3d6000fd5b505050506040513d601f19601f8201168201806040525081019061313891906165b1565b9050600073ffffffffffffffffffffffffffffffffffffffff168173ffffffffffffffffffffffffffffffffffffffff16036131a9576040517f08c379a00000000000000000000000000000000000000000000000000000000081526004016131a0906176b3565b60405180910390fd5b6001600854146131ee576040517f08c379a00000000000000000000000000000000000000000000000000000000081526004016131e59061771f565b60405180910390fd5b60007f000000000000000000000000000000000000000000000000000000000000000073ffffffffffffffffffffffffffffffffffffffff1663e2f6f5116040518163ffffffff1660e01b8152600401602060405180830381865afa15801561325b573d6000803e3d6000fd5b505050506040513d601f19601f8201168201806040525081019061327f91906165b1565b905060006009548273ffffffffffffffffffffffffffffffffffffffff166370a08231306040518263ffffffff1660e01b81526004016132bf91906160af565b602060405180830381865afa1580156132dc573d6000803e3d6000fd5b505050506040513d601f19601f8201168201806040525081019061330091906165f3565b1015801561331057506000600954115b1561335c576133228284600954614f39565b600954816133309190616568565b8161333b9190616568565b905060095460055461334d91906168b9565b60058190555060006009819055505b7f000000000000000000000000000000000000000000000000000000000000000073ffffffffffffffffffffffffffffffffffffffff166341c0056f846040518263ffffffff1660e01b81526004016133b591906160af565b6020604051808303816000875af11580156133d4573d6000803e3d6000fd5b505050506040513d601f19601f820116820180604052508101906133f891906165f3565b816134039190616568565b9050600260009054906101000a900473ffffffffffffffffffffffffffffffffffffffff1673ffffffffffffffffffffffffffffffffffffffff1663a7a9dbce846040518263ffffffff1660e01b815260040161346091906160af565b6020604051808303816000875af115801561347f573d6000803e3d6000fd5b505050506040513d601f19601f820116820180604052508101906134a391906165f3565b816134ae9190616568565b905060026008819055507f9bfe3c8b4f2b0d09949c3af4636c3df50b577d6405999142c729fa003f3cb0b283826040516134e992919061773f565b60405180910390a15050506134fc614d25565b565b6000600160009054906101000a900473ffffffffffffffffffffffffffffffffffffffff16905090565b600c6020528060005260406000206000915090505481565b60055481565b60095481565b606060106000018054806020026020016040519081016040528092919081815260200182805480156135d357602002820191906000526020600020905b8160009054906101000a900473ffffffffffffffffffffffffffffffffffffffff1673ffffffffffffffffffffffffffffffffffffffff1681526020019060010190808311613589575b5050505050905090565b6000600360009054906101000a900473ffffffffffffffffffffffffffffffffffffffff1673ffffffffffffffffffffffffffffffffffffffff16633fd8b02f6040518163ffffffff1660e01b8152600401602060405180830381865afa15801561364c573d6000803e3d6000fd5b505050506040513d601f19601f8201168201806040525081019061367091906165f3565b600b60008473ffffffffffffffffffffffffffffffffffffffff1673ffffffffffffffffffffffffffffffffffffffff168152602001908152602001600020600101546136bd9190616568565b9050919050565b6000600260009054906101000a900473ffffffffffffffffffffffffffffffffffffffff1673ffffffffffffffffffffffffffffffffffffffff163373ffffffffffffffffffffffffffffffffffffffff1614613756576040517f08c379a000000000000000000000000000000000000000000000000000000000815260040161374d906177b4565b60405180910390fd5b828290508686905014801561376f57506103e886869050105b6137ae576040517f08c379a00000000000000000000000000000000000000000000000000000000081526004016137a590617820565b60405180910390fd5b60008087879050905060005b81811015613952578585828181106137d5576137d461650a565b5b90506020020135600d60008b8b858181106137f3576137f261650a565b5b90506020020160208101906138089190615f96565b73ffffffffffffffffffffffffffffffffffffffff1673ffffffffffffffffffffffffffffffffffffffff168152602001908152602001600020600001541015613887576040517f08c379a000000000000000000000000000000000000000000000000000000000815260040161387e9061788c565b60405180910390fd5b85858281811061389a5761389961650a565b5b90506020020135600d60008b8b858181106138b8576138b761650a565b5b90506020020160208101906138cd9190615f96565b73ffffffffffffffffffffffffffffffffffffffff1673ffffffffffffffffffffffffffffffffffffffff168152602001908152602001600020600001600082825461391991906168b9565b925050819055508585828181106139335761393261650a565b5b90506020020135836139459190616568565b92508060010190506137ba565b506139ec7f000000000000000000000000000000000000000000000000000000000000000073ffffffffffffffffffffffffffffffffffffffff1663e2f6f5116040518163ffffffff1660e01b8152600401602060405180830381865afa1580156139c1573d6000803e3d6000fd5b505050506040513d601f19601f820116820180604052508101906139e591906165b1565b8784614f39565b819250505095945050505050565b600260009054906101000a900473ffffffffffffffffffffffffffffffffffffffff1673ffffffffffffffffffffffffffffffffffffffff163373ffffffffffffffffffffffffffffffffffffffff1614613a8a576040517f08c379a0000000000000000000000000000000000000000000000000000000008152600401613a81906177b4565b60405180910390fd5b8060078190555050565b7f000000000000000000000000000000000000000000000000000000000000000073ffffffffffffffffffffffffffffffffffffffff1663d5f394886040518163ffffffff1660e01b8152600401602060405180830381865afa158015613aff573d6000803e3d6000fd5b505050506040513d601f19601f82011682018060405250810190613b2391906165b1565b73ffffffffffffffffffffffffffffffffffffffff163373ffffffffffffffffffffffffffffffffffffffff1614613b90576040517f08c379a0000000000000000000000000000000000000000000000000000000008152600401613b87906178f8565b60405180910390fd5b600073ffffffffffffffffffffffffffffffffffffffff16600260009054906101000a900473ffffffffffffffffffffffffffffffffffffffff1673ffffffffffffffffffffffffffffffffffffffff1614613c21576040517f08c379a0000000000000000000000000000000000000000000000000000000008152600401613c1890617964565b60405180910390fd5b600073ffffffffffffffffffffffffffffffffffffffff168373ffffffffffffffffffffffffffffffffffffffff1603613c90576040517f08c379a0000000000000000000000000000000000000000000000000000000008152600401613c87906179d0565b60405180910390fd5b82600260006101000a81548173ffffffffffffffffffffffffffffffffffffffff021916908373ffffffffffffffffffffffffffffffffffffffff160217905550600073ffffffffffffffffffffffffffffffffffffffff168273ffffffffffffffffffffffffffffffffffffffff1603613d40576040517f08c379a0000000000000000000000000000000000000000000000000000000008152600401613d3790617a3c565b60405180910390fd5b81600360006101000a81548173ffffffffffffffffffffffffffffffffffffffff021916908373ffffffffffffffffffffffffffffffffffffffff160217905550600073ffffffffffffffffffffffffffffffffffffffff168173ffffffffffffffffffffffffffffffffffffffff1603613df0576040517f08c379a0000000000000000000000000000000000000000000000000000000008152600401613de790617aa8565b60405180910390fd5b80600160006101000a81548173ffffffffffffffffffffffffffffffffffffffff021916908373ffffffffffffffffffffffffffffffffffffffff160217905550505050565b600160009054906101000a900473ffffffffffffffffffffffffffffffffffffffff1673ffffffffffffffffffffffffffffffffffffffff163373ffffffffffffffffffffffffffffffffffffffff1614613ec6576040517f08c379a0000000000000000000000000000000000000000000000000000000008152600401613ebd90617b14565b60405180910390fd5b81600a60008573ffffffffffffffffffffffffffffffffffffffff1673ffffffffffffffffffffffffffffffffffffffff168152602001908152602001600020600083815260200190815260200160002081905550505050565b6000600d60008373ffffffffffffffffffffffffffffffffffffffff1673ffffffffffffffffffffffffffffffffffffffff168152602001908152602001600020600001549050919050565b60008060008060009050600086869050905060005b818110156140e157878782818110613f9c57613f9b61650a565b5b9050602002016020810190613fb19190615f96565b9450600d60008673ffffffffffffffffffffffffffffffffffffffff1673ffffffffffffffffffffffffffffffffffffffff1681526020019081526020016000206001015493506000840361400e5760009550505050505061420e565b600d60008673ffffffffffffffffffffffffffffffffffffffff1673ffffffffffffffffffffffffffffffffffffffff168152602001908152602001600020600001548411156140665760009550505050505061420e565b600d60008673ffffffffffffffffffffffffffffffffffffffff1673ffffffffffffffffffffffffffffffffffffffff16815260200190815260200160002060020160009054906101000a900460ff166140c85760009550505050505061420e565b83836140d49190616568565b9250806001019050613f81565b5060007f000000000000000000000000000000000000000000000000000000000000000073ffffffffffffffffffffffffffffffffffffffff1663e2f6f5116040518163ffffffff1660e01b8152600401602060405180830381865afa15801561414f573d6000803e3d6000fd5b505050506040513d601f19601f8201168201806040525081019061417391906165b1565b9050828173ffffffffffffffffffffffffffffffffffffffff166370a08231306040518263ffffffff1660e01b81526004016141af91906160af565b602060405180830381865afa1580156141cc573d6000803e3d6000fd5b505050506040513d601f19601f820116820180604052508101906141f091906165f3565b10156142045760009550505050505061420e565b6001955050505050505b92915050565b60045481565b600f8060000154905081565b6000601060000180549050905090565b6000806000806000905060008061424b615d4a565b6000601280549050905060008b90505b8181101561455957601281815481106142775761427661650a565b5b90600052602060002090600402016040518060800160405290816000820160009054906101000a900473ffffffffffffffffffffffffffffffffffffffff1673ffffffffffffffffffffffffffffffffffffffff1673ffffffffffffffffffffffffffffffffffffffff168152602001600182015481526020016002820154815260200160038201548152505092508a83602001511115801561432d5750826040015183602001516143299190616568565b8a11155b1561454e57858061433d90617b34565b9650508c73ffffffffffffffffffffffffffffffffffffffff16836000015173ffffffffffffffffffffffffffffffffffffffff1614806143d257506000600a60008f73ffffffffffffffffffffffffffffffffffffffff1673ffffffffffffffffffffffffffffffffffffffff16815260200190815260200160002060008560600151815260200190815260200160002054115b1561452257600b60008e73ffffffffffffffffffffffffffffffffffffffff1673ffffffffffffffffffffffffffffffffffffffff168152602001908152602001600020600101548b106144345760018561442d9190616568565b945061451d565b8c73ffffffffffffffffffffffffffffffffffffffff16836000015173ffffffffffffffffffffffffffffffffffffffff1614806145085750600b60008e73ffffffffffffffffffffffffffffffffffffffff1673ffffffffffffffffffffffffffffffffffffffff16815260200190815260200160002060010154600a60008f73ffffffffffffffffffffffffffffffffffffffff1673ffffffffffffffffffffffffffffffffffffffff1681526020019081526020016000206000856060015181526020019081526020016000205411155b61451c576001856145199190616568565b94505b5b61454d565b826040015183602001516145369190616568565b421161454c576001846145499190616568565b93505b5b5b80600101905061425b565b5084848497509750975050505050509450945094915050565b606060006012805490509050614586615d4a565b6000600b60008673ffffffffffffffffffffffffffffffffffffffff1673ffffffffffffffffffffffffffffffffffffffff1681526020019081526020016000206001015490506000429050600080600e60008973ffffffffffffffffffffffffffffffffffffffff1673ffffffffffffffffffffffffffffffffffffffff16815260200190815260200160002054905060008190505b868110156146dd57600b60008a73ffffffffffffffffffffffffffffffffffffffff1673ffffffffffffffffffffffffffffffffffffffff168152602001908152602001600020600101546012828154811061467c5761467b61650a565b5b906000526020600020906004020160020154601283815481106146a2576146a161650a565b5b9060005260206000209060040201600101546146be9190616568565b106146d25782806146ce90617b34565b9350505b80600101905061461d565b5060028260026146ed9190616e65565b6146f79190616568565b67ffffffffffffffff8111156147105761470f616d68565b5b60405190808252806020026020018201604052801561473e5781602001602082028036833780820191505090505b50965083876000815181106147565761475561650a565b5b6020026020010181815250506000915060008190505b8681101561494557601281815481106147885761478761650a565b5b90600052602060002090600402016040518060800160405290816000820160009054906101000a900473ffffffffffffffffffffffffffffffffffffffff1673ffffffffffffffffffffffffffffffffffffffff1673ffffffffffffffffffffffffffffffffffffffff16815260200160018201548152602001600282015481526020016003820154815250509550848660400151876020015161482c9190616568565b1061493a5785602001518860018560026148469190616e65565b6148509190616568565b815181106148615761486061650a565b5b602002602001018181525050856040015186602001516148819190616568565b8860028560026148919190616e65565b61489b9190616568565b815181106148ac576148ab61650a565b5b602002602001018181525050838860028560026148c99190616e65565b6148d39190616568565b815181106148e4576148e361650a565b5b6020026020010151111561492b57838860028560026149039190616e65565b61490d9190616568565b8151811061491e5761491d61650a565b5b6020026020010181815250505b828061493690617b34565b9350505b80600101905061476c565b50828760018460026149579190616e65565b6149619190616568565b815181106149725761497161650a565b5b60200260200101818152505061498787615bfb565b50505050505050919050565b60065481565b6000600360009054906101000a900473ffffffffffffffffffffffffffffffffffffffff16905090565b600080600360009054906101000a900473ffffffffffffffffffffffffffffffffffffffff1673ffffffffffffffffffffffffffffffffffffffff16633346cfb66040518163ffffffff1660e01b8152600401602060405180830381865afa158015614a33573d6000803e3d6000fd5b505050506040513d601f19601f82011682018060405250810190614a5791906165f3565b90506000600360009054906101000a900473ffffffffffffffffffffffffffffffffffffffff1673ffffffffffffffffffffffffffffffffffffffff166340be28836040518163ffffffff1660e01b8152600401602060405180830381865afa158015614ac8573d6000803e3d6000fd5b505050506040513d601f19601f82011682018060405250810190614aec91906165f3565b905060006402540be40061271084614b02614226565b614b0c9190616e65565b614b169190616e65565b614b209190616ed6565b905061271082614b309190616e65565b8111614b3e57819350614b4f565b61271081614b4c9190616ed6565b93505b50505090565b600260005403614b9a576040517f08c379a0000000000000000000000000000000000000000000000000000000008152600401614b9190617bc8565b60405180910390fd5b6002600081905550565b614bad84615c1a565b614bec576040517f08c379a0000000000000000000000000000000000000000000000000000000008152600401614be390617c34565b60405180910390fd5b6000808573ffffffffffffffffffffffffffffffffffffffff166323b872dd868686604051602401614c2093929190617c54565b6040516020818303038152906040529060e01b6020820180517bffffffffffffffffffffffffffffffffffffffffffffffffffffffff8381831617835250505050604051614c6e9190617cfc565b6000604051808303816000865af19150503d8060008114614cab576040519150601f19603f3d011682016040523d82523d6000602084013e614cb0565b606091505b5091509150818015614cde5750600081511480614cdd575080806020019051810190614cdc9190617d28565b5b5b614d1d576040517f08c379a0000000000000000000000000000000000000000000000000000000008152600401614d1490617dc7565b60405180910390fd5b505050505050565b6001600081905550565b614dc87f000000000000000000000000000000000000000000000000000000000000000073ffffffffffffffffffffffffffffffffffffffff1663e2f6f5116040518163ffffffff1660e01b8152600401602060405180830381865afa158015614d9d573d6000803e3d6000fd5b505050506040513d601f19601f82011682018060405250810190614dc191906165b1565b3383614f39565b8060056000828254614dda91906168b9565b9250508190555080600c60003373ffffffffffffffffffffffffffffffffffffffff1673ffffffffffffffffffffffffffffffffffffffff1681526020019081526020016000206000828254614e309190616568565b925050819055508060066000828254614e499190616568565b9250508190555042600b60003373ffffffffffffffffffffffffffffffffffffffff1673ffffffffffffffffffffffffffffffffffffffff168152602001908152602001600020600101819055506000600b60003373ffffffffffffffffffffffffffffffffffffffff1673ffffffffffffffffffffffffffffffffffffffff168152602001908152602001600020600201819055503373ffffffffffffffffffffffffffffffffffffffff167f6553897c25961cd3a105492c25576d0552123ee868aca283e90f3b4224d7d17782604051614f259190615f1d565b60405180910390a2614f36336158c1565b50565b614f4283615c1a565b614f81576040517f08c379a0000000000000000000000000000000000000000000000000000000008152600401614f7890617c34565b60405180910390fd5b6000808473ffffffffffffffffffffffffffffffffffffffff1663a9059cbb8585604051602401614fb392919061773f565b6040516020818303038152906040529060e01b6020820180517bffffffffffffffffffffffffffffffffffffffffffffffffffffffff83818316178352505050506040516150019190617cfc565b6000604051808303816000865af19150503d806000811461503e576040519150601f19603f3d011682016040523d82523d6000602084013e615043565b606091505b5091509150818015615071575060008151148061507057508080602001905181019061506f9190617d28565b5b5b6150b0576040517f08c379a00000000000000000000000000000000000000000000000000000000081526004016150a790617e59565b60405180910390fd5b5050505050565b6000601060010160008373ffffffffffffffffffffffffffffffffffffffff1673ffffffffffffffffffffffffffffffffffffffff1681526020019081526020016000205403156152e9576000601060010160008373ffffffffffffffffffffffffffffffffffffffff1673ffffffffffffffffffffffffffffffffffffffff16815260200190815260200160002054905060006010600001600160106000018054905061516591906168b9565b815481106151765761517561650a565b5b9060005260206000200160009054906101000a900473ffffffffffffffffffffffffffffffffffffffff16905081601060010160008373ffffffffffffffffffffffffffffffffffffffff1673ffffffffffffffffffffffffffffffffffffffff16815260200190815260200160002081905550601060010160008473ffffffffffffffffffffffffffffffffffffffff1673ffffffffffffffffffffffffffffffffffffffff1681526020019081526020016000206000905580601060000160018461524391906168b9565b815481106152545761525361650a565b5b9060005260206000200160006101000a81548173ffffffffffffffffffffffffffffffffffffffff021916908373ffffffffffffffffffffffffffffffffffffffff16021790555060106000018054806152b1576152b0617e79565b5b6001900381819060005260206000200160006101000a81549073ffffffffffffffffffffffffffffffffffffffff0219169055905550505b50565b600080600d60008473ffffffffffffffffffffffffffffffffffffffff1673ffffffffffffffffffffffffffffffffffffffff16815260200190815260200160002060010154905060008111615377576040517f08c379a000000000000000000000000000000000000000000000000000000000815260040161536e90617ef4565b60405180910390fd5b600d60008473ffffffffffffffffffffffffffffffffffffffff1673ffffffffffffffffffffffffffffffffffffffff168152602001908152602001600020600001548111156153fc576040517f08c379a00000000000000000000000000000000000000000000000000000000081526004016153f390617f60565b60405180910390fd5b600d60008473ffffffffffffffffffffffffffffffffffffffff1673ffffffffffffffffffffffffffffffffffffffff16815260200190815260200160002060020160009054906101000a900460ff1661548b576040517f08c379a000000000000000000000000000000000000000000000000000000000815260040161548290617fcc565b60405180910390fd5b6155247f000000000000000000000000000000000000000000000000000000000000000073ffffffffffffffffffffffffffffffffffffffff1663e2f6f5116040518163ffffffff1660e01b8152600401602060405180830381865afa1580156154f9573d6000803e3d6000fd5b505050506040513d601f19601f8201168201806040525081019061551d91906165b1565b8483614f39565b80600d60008573ffffffffffffffffffffffffffffffffffffffff1673ffffffffffffffffffffffffffffffffffffffff168152602001908152602001600020600001600082825461557691906168b9565b925050819055506000600d60008573ffffffffffffffffffffffffffffffffffffffff1673ffffffffffffffffffffffffffffffffffffffff168152602001908152602001600020600101819055506000600d60008573ffffffffffffffffffffffffffffffffffffffff1673ffffffffffffffffffffffffffffffffffffffff16815260200190815260200160002060020160006101000a81548160ff02191690831515021790555080915050919050565b600080600b60008673ffffffffffffffffffffffffffffffffffffffff1673ffffffffffffffffffffffffffffffffffffffff1681526020019081526020016000206040518060600160405290816000820154815260200160018201548152602001600282015481525050905060008160000151036156ac576000915050615896565b600084036156be576000915050615896565b60006156cd8260000151615b24565b905060006201518061271087876156e491906168b9565b6156ee9190616e65565b6156f89190616ed6565b90506127106402540be40082846005546157129190616e65565b61571c9190616e65565b6157269190616ed6565b6157309190616ed6565b93506002600360009054906101000a900473ffffffffffffffffffffffffffffffffffffffff1673ffffffffffffffffffffffffffffffffffffffff166368477d5860028a6040518363ffffffff1660e01b8152600401615792929190618031565b602060405180830381865afa1580156157af573d6000803e3d6000fd5b505050506040513d601f19601f820116820180604052508101906157d391906165f3565b03615892576402540be400600360009054906101000a900473ffffffffffffffffffffffffffffffffffffffff1673ffffffffffffffffffffffffffffffffffffffff1663cb9f7d236040518163ffffffff1660e01b8152600401602060405180830381865afa15801561584b573d6000803e3d6000fd5b505050506040513d601f19601f8201168201806040525081019061586f91906165f3565b8561587a9190616e65565b6158849190616ed6565b8461588f9190616568565b93505b5050505b9392505050565b6001816000016000828254019250508190555050565b600081600001549050919050565b600060128054905090506000600e60008473ffffffffffffffffffffffffffffffffffffffff1673ffffffffffffffffffffffffffffffffffffffff16815260200190815260200160002054905060008190505b82811015615a0f57600b60008573ffffffffffffffffffffffffffffffffffffffff1673ffffffffffffffffffffffffffffffffffffffff16815260200190815260200160002060010154601282815481106159745761597361650a565b5b9060005260206000209060040201600201546012838154811061599a5761599961650a565b5b9060005260206000209060040201600101546159b69190616568565b10615a045780600e60008673ffffffffffffffffffffffffffffffffffffffff1673ffffffffffffffffffffffffffffffffffffffff16815260200190815260200160002081905550615a0f565b806001019050615915565b50505050565b6000601060010160008373ffffffffffffffffffffffffffffffffffffffff1673ffffffffffffffffffffffffffffffffffffffff1681526020019081526020016000205411615b21576001601060000180549050615a749190616568565b601060010160008373ffffffffffffffffffffffffffffffffffffffff1673ffffffffffffffffffffffffffffffffffffffff168152602001908152602001600020819055506010600001819080600181540180825580915050600190039060005260206000200160009091909190916101000a81548173ffffffffffffffffffffffffffffffffffffffff021916908373ffffffffffffffffffffffffffffffffffffffff1602179055505b50565b6000806004546402540be40084615b3b9190616e65565b615b459190616ed6565b90506402540be40081600360009054906101000a900473ffffffffffffffffffffffffffffffffffffffff1673ffffffffffffffffffffffffffffffffffffffff16637b0a47ee6040518163ffffffff1660e01b8152600401602060405180830381865afa158015615bbb573d6000803e3d6000fd5b505050506040513d601f19601f82011682018060405250810190615bdf91906165f3565b615be99190616e65565b615bf39190616ed6565b915050919050565b6060615c11615c0983615c3d565b615c47615c54565b50819050919050565b6000808273ffffffffffffffffffffffffffffffffffffffff163b119050919050565b6060819050919050565b6000818310905092915050565b6060615c71615c6284615c7a565b615c6b85615c87565b84615c9f565b82905092915050565b6000602082019050919050565b60006020825102615c9783615c7a565b019050919050565b604083830310615d2a576000615cb484615d2f565b9050600084905060006020860190505b84811015615d0357615ce2615cd882615d2f565b848663ffffffff16565b15615cf857602082019150615cf78282615d3a565b5b602081019050615cc4565b50615d0e8582615d3a565b615d19858285615c9f565b615d27602082018585615c9f565b50505b505050565b600081519050919050565b8151815180845281835250505050565b6040518060800160405280600073ffffffffffffffffffffffffffffffffffffffff1681526020016000815260200160008152602001600081525090565b600080fd5b600080fd5b600080fd5b600080fd5b600080fd5b60008083601f840112615db757615db6615d92565b5b8235905067ffffffffffffffff811115615dd457615dd3615d97565b5b602083019150836020820283011115615df057615def615d9c565b5b9250929050565b60008083601f840112615e0d57615e0c615d92565b5b8235905067ffffffffffffffff811115615e2a57615e29615d97565b5b602083019150836020820283011115615e4657615e45615d9c565b5b9250929050565b60008060008060408587031215615e6757615e66615d88565b5b600085013567ffffffffffffffff811115615e8557615e84615d8d565b5b615e9187828801615da1565b9450945050602085013567ffffffffffffffff811115615eb457615eb3615d8d565b5b615ec087828801615df7565b925092505092959194509250565b60008115159050919050565b615ee381615ece565b82525050565b6000602082019050615efe6000830184615eda565b92915050565b6000819050919050565b615f1781615f04565b82525050565b6000602082019050615f326000830184615f0e565b92915050565b600073ffffffffffffffffffffffffffffffffffffffff82169050919050565b6000615f6382615f38565b9050919050565b615f7381615f58565b8114615f7e57600080fd5b50565b600081359050615f9081615f6a565b92915050565b600060208284031215615fac57615fab615d88565b5b6000615fba84828501615f81565b91505092915050565b6000606082019050615fd86000830186615f0e565b615fe56020830185615f0e565b615ff26040830184615f0e565b949350505050565b61600381615f04565b811461600e57600080fd5b50565b60008135905061602081615ffa565b92915050565b60006020828403121561603c5761603b615d88565b5b600061604a84828501616011565b91505092915050565b6000806020838503121561606a57616069615d88565b5b600083013567ffffffffffffffff81111561608857616087615d8d565b5b61609485828601615da1565b92509250509250929050565b6160a981615f58565b82525050565b60006020820190506160c460008301846160a0565b92915050565b6000806000606084860312156160e3576160e2615d88565b5b60006160f186828701615f81565b935050602061610286828701616011565b925050604061611386828701616011565b9150509250925092565b60006060820190506161326000830186615f0e565b61613f6020830185615f0e565b61614c6040830184615eda565b949350505050565b61615d81615ece565b811461616857600080fd5b50565b60008135905061617a81616154565b92915050565b600080600080600060a0868803121561619c5761619b615d88565b5b60006161aa88828901616011565b95505060206161bb88828901616011565b94505060406161cc88828901616011565b93505060606161dd88828901616011565b92505060806161ee8882890161616b565b9150509295509295909350565b600081519050919050565b600082825260208201905092915050565b6000819050602082019050919050565b61623081615f58565b82525050565b60006162428383616227565b60208301905092915050565b6000602082019050919050565b6000616266826161fb565b6162708185616206565b935061627b83616217565b8060005b838110156162ac5781516162938882616236565b975061629e8361624e565b92505060018101905061627f565b5085935050505092915050565b600060208201905081810360008301526162d3818461625b565b905092915050565b6000806000806000606086880312156162f7576162f6615d88565b5b600086013567ffffffffffffffff81111561631557616314615d8d565b5b61632188828901615da1565b9550955050602061633488828901615f81565b935050604086013567ffffffffffffffff81111561635557616354615d8d565b5b61636188828901615df7565b92509250509295509295909350565b60008060006060848603121561638957616388615d88565b5b600061639786828701615f81565b93505060206163a886828701615f81565b92505060406163b986828701615f81565b9150509250925092565b600080600080608085870312156163dd576163dc615d88565b5b60006163eb87828801615f81565b94505060206163fc87828801616011565b935050604061640d87828801616011565b925050606061641e87828801616011565b91505092959194509250565b600081519050919050565b600082825260208201905092915050565b6000819050602082019050919050565b61645f81615f04565b82525050565b60006164718383616456565b60208301905092915050565b6000602082019050919050565b60006164958261642a565b61649f8185616435565b93506164aa83616446565b8060005b838110156164db5781516164c28882616465565b97506164cd8361647d565b9250506001810190506164ae565b5085935050505092915050565b60006020820190508181036000830152616502818461648a565b905092915050565b7f4e487b7100000000000000000000000000000000000000000000000000000000600052603260045260246000fd5b7f4e487b7100000000000000000000000000000000000000000000000000000000600052601160045260246000fd5b600061657382615f04565b915061657e83615f04565b925082820190508082111561659657616595616539565b5b92915050565b6000815190506165ab81615f6a565b92915050565b6000602082840312156165c7576165c6615d88565b5b60006165d58482850161659c565b91505092915050565b6000815190506165ed81615ffa565b92915050565b60006020828403121561660957616608615d88565b5b6000616617848285016165de565b91505092915050565b600082825260208201905092915050565b7f4d6967726174696f6e206973206f6e20676f696e670000000000000000000000600082015250565b6000616667601583616620565b915061667282616631565b602082019050919050565b600060208201905081810360008301526166968161665a565b9050919050565b7f645641423a207a65726f20616464726573730000000000000000000000000000600082015250565b60006166d3601283616620565b91506166de8261669d565b602082019050919050565b60006020820190508181036000830152616702816166c6565b9050919050565b7f645641423a207a65726f20616d6f756e74000000000000000000000000000000600082015250565b600061673f601183616620565b915061674a82616709565b602082019050919050565b6000602082019050818103600083015261676e81616732565b9050919050565b7f75735641423a207a65726f207374616b65720000000000000000000000000000600082015250565b60006167ab601283616620565b91506167b682616775565b602082019050919050565b600060208201905081810360008301526167da8161679e565b9050919050565b7f75735641423a20696e73756666696369656e7400000000000000000000000000600082015250565b6000616817601383616620565b9150616822826167e1565b602082019050919050565b600060208201905081810360008301526168468161680a565b9050919050565b7f75735641423a206c6f636b000000000000000000000000000000000000000000600082015250565b6000616883600b83616620565b915061688e8261684d565b602082019050919050565b600060208201905081810360008301526168b281616876565b9050919050565b60006168c482615f04565b91506168cf83615f04565b92508282039050818111156168e7576168e6616539565b5b92915050565b7f70573a207a65726f206164647265737300000000000000000000000000000000600082015250565b6000616923601083616620565b915061692e826168ed565b602082019050919050565b6000602082019050818103600083015261695281616916565b9050919050565b7f70573a207a65726f205641420000000000000000000000000000000000000000600082015250565b600061698f600c83616620565b915061699a82616959565b602082019050919050565b600060208201905081810360008301526169be81616982565b9050919050565b7f70573a2070656e64696e67000000000000000000000000000000000000000000600082015250565b60006169fb600b83616620565b9150616a06826169c5565b602082019050919050565b60006020820190508181036000830152616a2a816169ee565b9050919050565b7f70573a20696e73756666696369656e7420564142000000000000000000000000600082015250565b6000616a67601483616620565b9150616a7282616a31565b602082019050919050565b60006020820190508181036000830152616a9681616a5a565b9050919050565b7f6e6f742061756469746f72000000000000000000000000000000000000000000600082015250565b6000616ad3600b83616620565b9150616ade82616a9d565b602082019050919050565b60006020820190508181036000830152616b0281616ac6565b9050919050565b7f64656e79573a2062616420637573746f6d657273000000000000000000000000600082015250565b6000616b3f601483616620565b9150616b4a82616b09565b602082019050919050565b60006020820190508181036000830152616b6e81616b32565b9050919050565b7f64656e79573a207a65726f207769746864726177000000000000000000000000600082015250565b6000616bab601483616620565b9150616bb682616b75565b602082019050919050565b60006020820190508181036000830152616bda81616b9e565b9050919050565b7f64656e79573a206e6f2070656e64696e67000000000000000000000000000000600082015250565b6000616c17601183616620565b9150616c2282616be1565b602082019050919050565b60006020820190508181036000830152616c4681616c0a565b9050919050565b6000819050919050565b6000616c666020840184615f81565b905092915050565b6000602082019050919050565b6000616c878385616206565b9350616c9282616c4d565b8060005b85811015616ccb57616ca88284616c57565b616cb28882616236565b9750616cbd83616c6e565b925050600181019050616c96565b5085925050509392505050565b60006020820190508181036000830152616cf3818486616c7b565b90509392505050565b7f6150573a204e6f20637573746f6d657200000000000000000000000000000000600082015250565b6000616d32601083616620565b9150616d3d82616cfc565b602082019050919050565b60006020820190508181036000830152616d6181616d25565b9050919050565b7f4e487b7100000000000000000000000000000000000000000000000000000000600052604160045260246000fd5b60006040820190508181036000830152616db2818587616c7b565b90508181036020830152616dc6818461648a565b9050949350505050565b7f615254503a207a65726f20616d6f756e74000000000000000000000000000000600082015250565b6000616e06601183616620565b9150616e1182616dd0565b602082019050919050565b60006020820190508181036000830152616e3581616df9565b9050919050565b6000604082019050616e516000830185615f0e565b616e5e6020830184615f0e565b9392505050565b6000616e7082615f04565b9150616e7b83615f04565b9250828202616e8981615f04565b91508282048414831517616ea057616e9f616539565b5b5092915050565b7f4e487b7100000000000000000000000000000000000000000000000000000000600052601260045260246000fd5b6000616ee182615f04565b9150616eec83615f04565b925082616efc57616efb616ea7565b5b828204905092915050565b7f6e6f742064616f2f70726f706572747900000000000000000000000000000000600082015250565b6000616f3d601083616620565b9150616f4882616f07565b602082019050919050565b60006020820190508181036000830152616f6c81616f30565b9050919050565b7f77523a20636f6d706f756e640000000000000000000000000000000000000000600082015250565b6000616fa9600c83616620565b9150616fb482616f73565b602082019050919050565b60006020820190508181036000830152616fd881616f9c565b9050919050565b7f77523a207a65726f20616d6f756e740000000000000000000000000000000000600082015250565b6000617015600f83616620565b915061702082616fdf565b602082019050919050565b6000602082019050818103600083015261704481617008565b9050919050565b7f77523a206c6f636b000000000000000000000000000000000000000000000000600082015250565b6000617081600883616620565b915061708c8261704b565b602082019050919050565b600060208201905081810360008301526170b081617074565b9050919050565b7f6d6967726174696f6e206973206f6e20676f696e670000000000000000000000600082015250565b60006170ed601583616620565b91506170f8826170b7565b602082019050919050565b6000602082019050818103600083015261711c816170e0565b9050919050565b7f77523a207a65726f207265776172640000000000000000000000000000000000600082015250565b6000617159600f83616620565b915061716482617123565b602082019050919050565b600060208201905081810360008301526171888161714c565b9050919050565b7f77523a20696e73756666696369656e7420746f74616c00000000000000000000600082015250565b60006171c5601683616620565b91506171d08261718f565b602082019050919050565b600060208201905081810360008301526171f4816171b8565b9050919050565b7f735641423a207a65726f20616d6f756e74000000000000000000000000000000600082015250565b6000617231601183616620565b915061723c826171fb565b602082019050919050565b6000602082019050818103600083015261726081617224565b9050919050565b600060ff82169050919050565b61727d81617267565b811461728857600080fd5b50565b60008151905061729a81617274565b92915050565b6000602082840312156172b6576172b5615d88565b5b60006172c48482850161728b565b91505092915050565b60008160011c9050919050565b6000808291508390505b600185111561732457808604811115617300576172ff616539565b5b600185161561730f5780820291505b808102905061731d856172cd565b94506172e4565b94509492505050565b60008261733d57600190506173f9565b8161734b57600090506173f9565b8160018114617361576002811461736b5761739a565b60019150506173f9565b60ff84111561737d5761737c616539565b5b8360020a91508482111561739457617393616539565b5b506173f9565b5060208310610133831016604e8410600b84101617156173cf5782820a9050838111156173ca576173c9616539565b5b6173f9565b6173dc84848460016172da565b925090508184048111156173f3576173f2616539565b5b81810290505b9392505050565b600061740b82615f04565b915061741683617267565b92506174437fffffffffffffffffffffffffffffffffffffffffffffffffffffffffffffffff848461732d565b905092915050565b7f735641423a206d696e2031000000000000000000000000000000000000000000600082015250565b6000617481600b83616620565b915061748c8261744b565b602082019050919050565b600060208201905081810360008301526174b081617474565b9050919050565b7f6e6f742050726f70657274790000000000000000000000000000000000000000600082015250565b60006174ed600c83616620565b91506174f8826174b7565b602082019050919050565b6000602082019050818103600083015261751c816174e0565b9050919050565b7f6170723a207a65726f20706572696f6400000000000000000000000000000000600082015250565b6000617559601083616620565b915061756482617523565b602082019050919050565b600060208201905081810360008301526175888161754c565b9050919050565b7f6170723a207a65726f207374616b657200000000000000000000000000000000600082015250565b60006175c5601083616620565b91506175d08261758f565b602082019050919050565b600060208201905081810360008301526175f4816175b8565b9050919050565b7f6170723a2062616420766f746520636f756e7400000000000000000000000000600082015250565b6000617631601383616620565b915061763c826175fb565b602082019050919050565b6000602082019050818103600083015261766081617624565b9050919050565b7f7741463a207a65726f2061646472657373000000000000000000000000000000600082015250565b600061769d601183616620565b91506176a882617667565b602082019050919050565b600060208201905081810360008301526176cc81617690565b9050919050565b7f4d6967726174696f6e206973206e6f74206f6e20676f696e6700000000000000600082015250565b6000617709601983616620565b9150617714826176d3565b602082019050919050565b60006020820190508181036000830152617738816176fc565b9050919050565b600060408201905061775460008301856160a0565b6177616020830184615f0e565b9392505050565b7f6e6f742064616f00000000000000000000000000000000000000000000000000600082015250565b600061779e600783616620565b91506177a982617768565b602082019050919050565b600060208201905081810360008301526177cd81617791565b9050919050565b7f73656e645641423a206261642061727261790000000000000000000000000000600082015250565b600061780a601283616620565b9150617815826177d4565b602082019050919050565b60006020820190508181036000830152617839816177fd565b9050919050565b7f73656e645641423a20696e73756666696369656e740000000000000000000000600082015250565b6000617876601583616620565b915061788182617840565b602082019050919050565b600060208201905081810360008301526178a581617869565b9050919050565b7f6e6f74206465706c6f7965720000000000000000000000000000000000000000600082015250565b60006178e2600c83616620565b91506178ed826178ac565b602082019050919050565b60006020820190508181036000830152617911816178d5565b9050919050565b7f696e69743a20696e697469616c697a6564000000000000000000000000000000600082015250565b600061794e601183616620565b915061795982617918565b602082019050919050565b6000602082019050818103600083015261797d81617941565b9050919050565b7f696e69743a207a65726f2064616f000000000000000000000000000000000000600082015250565b60006179ba600e83616620565b91506179c582617984565b602082019050919050565b600060208201905081810360008301526179e9816179ad565b9050919050565b7f696e69743a207a65726f2070726f706572747900000000000000000000000000600082015250565b6000617a26601383616620565b9150617a31826179f0565b602082019050919050565b60006020820190508181036000830152617a5581617a19565b9050919050565b7f696e69743a207a65726f20766f74650000000000000000000000000000000000600082015250565b6000617a92600f83616620565b9150617a9d82617a5c565b602082019050919050565b60006020820190508181036000830152617ac181617a85565b9050919050565b7f6e6f7420766f7465000000000000000000000000000000000000000000000000600082015250565b6000617afe600883616620565b9150617b0982617ac8565b602082019050919050565b60006020820190508181036000830152617b2d81617af1565b9050919050565b6000617b3f82615f04565b91507fffffffffffffffffffffffffffffffffffffffffffffffffffffffffffffffff8203617b7157617b70616539565b5b600182019050919050565b7f5265656e7472616e637947756172643a207265656e7472616e742063616c6c00600082015250565b6000617bb2601f83616620565b9150617bbd82617b7c565b602082019050919050565b60006020820190508181036000830152617be181617ba5565b9050919050565b7f4300000000000000000000000000000000000000000000000000000000000000600082015250565b6000617c1e600183616620565b9150617c2982617be8565b602082019050919050565b60006020820190508181036000830152617c4d81617c11565b9050919050565b6000606082019050617c6960008301866160a0565b617c7660208301856160a0565b617c836040830184615f0e565b949350505050565b600081519050919050565b600081905092915050565b60005b83811015617cbf578082015181840152602081019050617ca4565b60008484015250505050565b6000617cd682617c8b565b617ce08185617c96565b9350617cf0818560208601617ca1565b80840191505092915050565b6000617d088284617ccb565b915081905092915050565b600081519050617d2281616154565b92915050565b600060208284031215617d3e57617d3d615d88565b5b6000617d4c84828501617d13565b91505092915050565b7f566162626c6544414f3a3a7472616e7366657246726f6d3a207472616e73666560008201527f7246726f6d206661696c65640000000000000000000000000000000000000000602082015250565b6000617db1602c83616620565b9150617dbc82617d55565b604082019050919050565b60006020820190508181036000830152617de081617da4565b9050919050565b7f566162626c6544414f3a3a736166655472616e736665723a207472616e73666560008201527f72206661696c6564000000000000000000000000000000000000000000000000602082015250565b6000617e43602883616620565b9150617e4e82617de7565b604082019050919050565b60006020820190508181036000830152617e7281617e36565b9050919050565b7f4e487b7100000000000000000000000000000000000000000000000000000000600052603160045260246000fd5b7f61573a207a65726f207769746864726177000000000000000000000000000000600082015250565b6000617ede601183616620565b9150617ee982617ea8565b602082019050919050565b60006020820190508181036000830152617f0d81617ed1565b9050919050565b7f61573a20696e73756666696375656e7400000000000000000000000000000000600082015250565b6000617f4a601083616620565b9150617f5582617f14565b602082019050919050565b60006020820190508181036000830152617f7981617f3d565b9050919050565b7f61573a206e6f2070656e64696e67000000000000000000000000000000000000600082015250565b6000617fb6600e83616620565b9150617fc182617f80565b602082019050919050565b60006020820190508181036000830152617fe581617fa9565b9050919050565b6000819050919050565b6000819050919050565b600061801b61801661801184617fec565b617ff6565b615f04565b9050919050565b61802b81618000565b82525050565b60006040820190506180466000830185618022565b61805360208301846160a0565b939250505056fea2646970667358221220829f264679f3beedb38786a766b73f156d7aaa0f76d39871d66b2537276f530964736f6c63430008180033","linkReferences":{}},"methodIdentifiers":{"__calcProposalTimeIntervals(address)":"e576f3cb","__getProposalVoteCount(address,uint256,uint256,uint256)":"e0e2654e","addProposalData(address,uint256,uint256)":"4037f8aa","addRewardToPool(uint256)":"3a53ed49","addVotedData(address,uint256,uint256)":"c3070961","approvePendingWithdraw(address[])":"313fdded","calcMigrationVAB()":"71e6651a","calcPendingRewards(address)":"625fcf8d","calcRealizedRewards(address)":"3dcc27fa","calcRewardAmount(address)":"47f1a809","calculateAPR(uint256,uint256,uint256,uint256,bool)":"755f9197","checkAllocateToPool(address[],uint256[])":"033e7ed9","checkApprovePendingWithdraw(address[])":"cc63c7df","checkDenyPendingWithDraw(address[])":"74adb1cb","denyPendingWithdraw(address[])":"30e2b581","depositVAB(uint256)":"1c585316","getLimitCount()":"f6d5b214","getOwnableAddress()":"5c6aad04","getPropertyAddress()":"f2c4769a","getRentVABAmount(address)":"cc5adbea","getStakeAmount(address)":"0c2eb403","getStakerList()":"a3691c06","getVabbleDaoAddress()":"3ab042eb","getVoteAddress()":"87a84357","getWithdrawableTime(address)":"a44783ef","initialize(address,address,address)":"c0c53b8b","lastfundProposalCreateTime()":"178e5aea","migrationStatus()":"06731d33","minProposalIndex(address)":"173bc00c","pendingWithdraw(uint256)":"2d72ac53","proposalCount()":"da35c664","receivedRewardAmount(address)":"88233256","sendVAB(address[],address,uint256[])":"af35a35c","stakeInfo(address)":"1601e641","stakeVAB(uint256)":"52aa50cd","stakerCount()":"dff69787","totalMigrationVAB()":"9ebb315a","totalRewardAmount()":"8e73064f","totalRewardIssuedAmount()":"f22eea7d","totalStakingAmount()":"d201114a","unstakeVAB(uint256)":"28d2a818","updateLastfundProposalCreateTime(uint256)":"bf466754","userRentInfo(address)":"74e17cf8","withdrawAllFund()":"86ff6b65","withdrawReward(uint256)":"523a3f08"},"id":6}