{"abi":[{"type":"constructor","inputs":[{"name":"uri_","type":"string","internalType":"string"}],"stateMutability":"nonpayable"},{"type":"function","name":"balanceOf","inputs":[{"name":"account","type":"address","internalType":"address"},{"name":"id","type":"uint256","internalType":"uint256"}],"outputs":[{"name":"","type":"uint256","internalType":"uint256"}],"stateMutability":"view"},{"type":"function","name":"balanceOfBatch","inputs":[{"name":"accounts","type":"address[]","internalType":"address[]"},{"name":"ids","type":"uint256[]","internalType":"uint256[]"}],"outputs":[{"name":"","type":"uint256[]","internalType":"uint256[]"}],"stateMutability":"view"},{"type":"function","name":"isApprovedForAll","inputs":[{"name":"account","type":"address","internalType":"address"},{"name":"operator","type":"address","internalType":"address"}],"outputs":[{"name":"","type":"bool","internalType":"bool"}],"stateMutability":"view"},{"type":"function","name":"safeBatchTransferFrom","inputs":[{"name":"from","type":"address","internalType":"address"},{"name":"to","type":"address","internalType":"address"},{"name":"ids","type":"uint256[]","internalType":"uint256[]"},{"name":"amounts","type":"uint256[]","internalType":"uint256[]"},{"name":"data","type":"bytes","internalType":"bytes"}],"outputs":[],"stateMutability":"nonpayable"},{"type":"function","name":"safeTransferFrom","inputs":[{"name":"from","type":"address","internalType":"address"},{"name":"to","type":"address","internalType":"address"},{"name":"id","type":"uint256","internalType":"uint256"},{"name":"amount","type":"uint256","internalType":"uint256"},{"name":"data","type":"bytes","internalType":"bytes"}],"outputs":[],"stateMutability":"nonpayable"},{"type":"function","name":"setApprovalForAll","inputs":[{"name":"operator","type":"address","internalType":"address"},{"name":"approved","type":"bool","internalType":"bool"}],"outputs":[],"stateMutability":"nonpayable"},{"type":"function","name":"supportsInterface","inputs":[{"name":"interfaceId","type":"bytes4","internalType":"bytes4"}],"outputs":[{"name":"","type":"bool","internalType":"bool"}],"stateMutability":"view"},{"type":"function","name":"uri","inputs":[{"name":"","type":"uint256","internalType":"uint256"}],"outputs":[{"name":"","type":"string","internalType":"string"}],"stateMutability":"view"},{"type":"event","name":"ApprovalForAll","inputs":[{"name":"account","type":"address","indexed":true,"internalType":"address"},{"name":"operator","type":"address","indexed":true,"internalType":"address"},{"name":"approved","type":"bool","indexed":false,"internalType":"bool"}],"anonymous":false},{"type":"event","name":"TransferBatch","inputs":[{"name":"operator","type":"address","indexed":true,"internalType":"address"},{"name":"from","type":"address","indexed":true,"internalType":"address"},{"name":"to","type":"address","indexed":true,"internalType":"address"},{"name":"ids","type":"uint256[]","indexed":false,"internalType":"uint256[]"},{"name":"values","type":"uint256[]","indexed":false,"internalType":"uint256[]"}],"anonymous":false},{"type":"event","name":"TransferSingle","inputs":[{"name":"operator","type":"address","indexed":true,"internalType":"address"},{"name":"from","type":"address","indexed":true,"internalType":"address"},{"name":"to","type":"address","indexed":true,"internalType":"address"},{"name":"id","type":"uint256","indexed":false,"internalType":"uint256"},{"name":"value","type":"uint256","indexed":false,"internalType":"uint256"}],"anonymous":false},{"type":"event","name":"URI","inputs":[{"name":"value","type":"string","indexed":false,"internalType":"string"},{"name":"id","type":"uint256","indexed":true,"internalType":"uint256"}],"anonymous":false}],"bytecode":{"object":"0x60806040523480156200001157600080fd5b5060405162002a2d38038062002a2d8339818101604052810190620000379190620001f7565b62000048816200004f60201b60201c565b506200057a565b806002908162000060919062000493565b5050565b6000604051905090565b600080fd5b600080fd5b600080fd5b600080fd5b6000601f19601f8301169050919050565b7f4e487b7100000000000000000000000000000000000000000000000000000000600052604160045260246000fd5b620000cd8262000082565b810181811067ffffffffffffffff82111715620000ef57620000ee62000093565b5b80604052505050565b60006200010462000064565b9050620001128282620000c2565b919050565b600067ffffffffffffffff82111562000135576200013462000093565b5b620001408262000082565b9050602081019050919050565b60005b838110156200016d57808201518184015260208101905062000150565b60008484015250505050565b6000620001906200018a8462000117565b620000f8565b905082815260208101848484011115620001af57620001ae6200007d565b5b620001bc8482856200014d565b509392505050565b600082601f830112620001dc57620001db62000078565b5b8151620001ee84826020860162000179565b91505092915050565b60006020828403121562000210576200020f6200006e565b5b600082015167ffffffffffffffff81111562000231576200023062000073565b5b6200023f84828501620001c4565b91505092915050565b600081519050919050565b7f4e487b7100000000000000000000000000000000000000000000000000000000600052602260045260246000fd5b600060028204905060018216806200029b57607f821691505b602082108103620002b157620002b062000253565b5b50919050565b60008190508160005260206000209050919050565b60006020601f8301049050919050565b600082821b905092915050565b6000600883026200031b7fffffffffffffffffffffffffffffffffffffffffffffffffffffffffffffffff82620002dc565b620003278683620002dc565b95508019841693508086168417925050509392505050565b6000819050919050565b6000819050919050565b6000620003746200036e62000368846200033f565b62000349565b6200033f565b9050919050565b6000819050919050565b620003908362000353565b620003a86200039f826200037b565b848454620002e9565b825550505050565b600090565b620003bf620003b0565b620003cc81848462000385565b505050565b5b81811015620003f457620003e8600082620003b5565b600181019050620003d2565b5050565b601f82111562000443576200040d81620002b7565b6200041884620002cc565b8101602085101562000428578190505b620004406200043785620002cc565b830182620003d1565b50505b505050565b600082821c905092915050565b6000620004686000198460080262000448565b1980831691505092915050565b600062000483838362000455565b9150826002028217905092915050565b6200049e8262000248565b67ffffffffffffffff811115620004ba57620004b962000093565b5b620004c6825462000282565b620004d3828285620003f8565b600060209050601f8311600181146200050b5760008415620004f6578287015190505b62000502858262000475565b86555062000572565b601f1984166200051b86620002b7565b60005b8281101562000545578489015182556001820191506020850194506020810190506200051e565b8683101562000565578489015162000561601f89168262000455565b8355505b6001600288020188555050505b505050505050565b6124a3806200058a6000396000f3fe608060405234801561001057600080fd5b50600436106100875760003560e01c80634e1273f41161005b5780634e1273f414610138578063a22cb46514610168578063e985e9c514610184578063f242432a146101b457610087565b8062fdd58e1461008c57806301ffc9a7146100bc5780630e89341c146100ec5780632eb2c2d61461011c575b600080fd5b6100a660048036038101906100a191906113a4565b6101d0565b6040516100b391906113f3565b60405180910390f35b6100d660048036038101906100d19190611466565b610298565b6040516100e391906114ae565b60405180910390f35b610106600480360381019061010191906114c9565b61037a565b6040516101139190611586565b60405180910390f35b610136600480360381019061013191906117a5565b61040e565b005b610152600480360381019061014d9190611937565b6104af565b60405161015f9190611a6d565b60405180910390f35b610182600480360381019061017d9190611abb565b6105c2565b005b61019e60048036038101906101999190611afb565b6105d8565b6040516101ab91906114ae565b60405180910390f35b6101ce60048036038101906101c99190611b3b565b61066c565b005b60008073ffffffffffffffffffffffffffffffffffffffff168373ffffffffffffffffffffffffffffffffffffffff1603610240576040517f08c379a000000000000000000000000000000000000000000000000000000000815260040161023790611c44565b60405180910390fd5b60008083815260200190815260200160002060008473ffffffffffffffffffffffffffffffffffffffff1673ffffffffffffffffffffffffffffffffffffffff16815260200190815260200160002054905092915050565b60007fd9b67a26000000000000000000000000000000000000000000000000000000007bffffffffffffffffffffffffffffffffffffffffffffffffffffffff1916827bffffffffffffffffffffffffffffffffffffffffffffffffffffffff1916148061036357507f0e89341c000000000000000000000000000000000000000000000000000000007bffffffffffffffffffffffffffffffffffffffffffffffffffffffff1916827bffffffffffffffffffffffffffffffffffffffffffffffffffffffff1916145b8061037357506103728261070d565b5b9050919050565b60606002805461038990611c93565b80601f01602080910402602001604051908101604052809291908181526020018280546103b590611c93565b80156104025780601f106103d757610100808354040283529160200191610402565b820191906000526020600020905b8154815290600101906020018083116103e557829003601f168201915b50505050509050919050565b610416610777565b73ffffffffffffffffffffffffffffffffffffffff168573ffffffffffffffffffffffffffffffffffffffff16148061045c575061045b85610456610777565b6105d8565b5b61049b576040517f08c379a000000000000000000000000000000000000000000000000000000000815260040161049290611d36565b60405180910390fd5b6104a8858585858561077f565b5050505050565b606081518351146104f5576040517f08c379a00000000000000000000000000000000000000000000000000000000081526004016104ec90611dc8565b60405180910390fd5b6000835167ffffffffffffffff811115610512576105116115ad565b5b6040519080825280602002602001820160405280156105405781602001602082028036833780820191505090505b50905060005b84518110156105b75761058d85828151811061056557610564611de8565b5b60200260200101518583815181106105805761057f611de8565b5b60200260200101516101d0565b8282815181106105a05761059f611de8565b5b602002602001018181525050806001019050610546565b508091505092915050565b6105d46105cd610777565b8383610a9a565b5050565b6000600160008473ffffffffffffffffffffffffffffffffffffffff1673ffffffffffffffffffffffffffffffffffffffff16815260200190815260200160002060008373ffffffffffffffffffffffffffffffffffffffff1673ffffffffffffffffffffffffffffffffffffffff16815260200190815260200160002060009054906101000a900460ff16905092915050565b610674610777565b73ffffffffffffffffffffffffffffffffffffffff168573ffffffffffffffffffffffffffffffffffffffff1614806106ba57506106b9856106b4610777565b6105d8565b5b6106f9576040517f08c379a00000000000000000000000000000000000000000000000000000000081526004016106f090611d36565b60405180910390fd5b6107068585858585610c06565b5050505050565b60007f01ffc9a7000000000000000000000000000000000000000000000000000000007bffffffffffffffffffffffffffffffffffffffffffffffffffffffff1916827bffffffffffffffffffffffffffffffffffffffffffffffffffffffff1916149050919050565b600033905090565b81518351146107c3576040517f08c379a00000000000000000000000000000000000000000000000000000000081526004016107ba90611e89565b60405180910390fd5b600073ffffffffffffffffffffffffffffffffffffffff168473ffffffffffffffffffffffffffffffffffffffff1603610832576040517f08c379a000000000000000000000000000000000000000000000000000000000815260040161082990611f1b565b60405180910390fd5b600061083c610777565b905061084c818787878787610ea1565b60005b84518110156109f757600085828151811061086d5761086c611de8565b5b60200260200101519050600085838151811061088c5761088b611de8565b5b60200260200101519050600080600084815260200190815260200160002060008b73ffffffffffffffffffffffffffffffffffffffff1673ffffffffffffffffffffffffffffffffffffffff1681526020019081526020016000205490508181101561092d576040517f08c379a000000000000000000000000000000000000000000000000000000000815260040161092490611fad565b60405180910390fd5b81810360008085815260200190815260200160002060008c73ffffffffffffffffffffffffffffffffffffffff1673ffffffffffffffffffffffffffffffffffffffff168152602001908152602001600020819055508160008085815260200190815260200160002060008b73ffffffffffffffffffffffffffffffffffffffff1673ffffffffffffffffffffffffffffffffffffffff16815260200190815260200160002060008282546109e29190611ffc565b9250508190555050505080600101905061084f565b508473ffffffffffffffffffffffffffffffffffffffff168673ffffffffffffffffffffffffffffffffffffffff168273ffffffffffffffffffffffffffffffffffffffff167f4a39dc06d4c0dbc64b70af90fd698a233a518aa5d07e595d983b8c0526c8f7fb8787604051610a6e929190612030565b60405180910390a4610a84818787878787610ea9565b610a92818787878787610eb1565b505050505050565b8173ffffffffffffffffffffffffffffffffffffffff168373ffffffffffffffffffffffffffffffffffffffff1603610b08576040517f08c379a0000000000000000000000000000000000000000000000000000000008152600401610aff906120d9565b60405180910390fd5b80600160008573ffffffffffffffffffffffffffffffffffffffff1673ffffffffffffffffffffffffffffffffffffffff16815260200190815260200160002060008473ffffffffffffffffffffffffffffffffffffffff1673ffffffffffffffffffffffffffffffffffffffff16815260200190815260200160002060006101000a81548160ff0219169083151502179055508173ffffffffffffffffffffffffffffffffffffffff168373ffffffffffffffffffffffffffffffffffffffff167f17307eab39ab6107e8899845ad3d59bd9653f200f220920489ca2b5937696c3183604051610bf991906114ae565b60405180910390a3505050565b600073ffffffffffffffffffffffffffffffffffffffff168473ffffffffffffffffffffffffffffffffffffffff1603610c75576040517f08c379a0000000000000000000000000000000000000000000000000000000008152600401610c6c90611f1b565b60405180910390fd5b6000610c7f610777565b90506000610c8c85611088565b90506000610c9985611088565b9050610ca9838989858589610ea1565b600080600088815260200190815260200160002060008a73ffffffffffffffffffffffffffffffffffffffff1673ffffffffffffffffffffffffffffffffffffffff16815260200190815260200160002054905085811015610d40576040517f08c379a0000000000000000000000000000000000000000000000000000000008152600401610d3790611fad565b60405180910390fd5b85810360008089815260200190815260200160002060008b73ffffffffffffffffffffffffffffffffffffffff1673ffffffffffffffffffffffffffffffffffffffff168152602001908152602001600020819055508560008089815260200190815260200160002060008a73ffffffffffffffffffffffffffffffffffffffff1673ffffffffffffffffffffffffffffffffffffffff1681526020019081526020016000206000828254610df59190611ffc565b925050819055508773ffffffffffffffffffffffffffffffffffffffff168973ffffffffffffffffffffffffffffffffffffffff168573ffffffffffffffffffffffffffffffffffffffff167fc3d58168c5ae7397731d063d5bbf3d657854427343f4c083240f7aacaa2d0f628a8a604051610e729291906120f9565b60405180910390a4610e88848a8a86868a610ea9565b610e96848a8a8a8a8a611102565b505050505050505050565b505050505050565b505050505050565b610ed08473ffffffffffffffffffffffffffffffffffffffff166112d9565b15611080578373ffffffffffffffffffffffffffffffffffffffff1663bc197c8187878686866040518663ffffffff1660e01b8152600401610f16959493929190612186565b6020604051808303816000875af1925050508015610f5257506040513d601f19601f82011682018060405250810190610f4f9190612203565b60015b610ff757610f5e61223d565b806308c379a003610fba5750610f7261225f565b80610f7d5750610fbc565b806040517f08c379a0000000000000000000000000000000000000000000000000000000008152600401610fb19190611586565b60405180910390fd5b505b6040517f08c379a0000000000000000000000000000000000000000000000000000000008152600401610fee90612361565b60405180910390fd5b63bc197c8160e01b7bffffffffffffffffffffffffffffffffffffffffffffffffffffffff1916817bffffffffffffffffffffffffffffffffffffffffffffffffffffffff19161461107e576040517f08c379a0000000000000000000000000000000000000000000000000000000008152600401611075906123f3565b60405180910390fd5b505b505050505050565b60606000600167ffffffffffffffff8111156110a7576110a66115ad565b5b6040519080825280602002602001820160405280156110d55781602001602082028036833780820191505090505b50905082816000815181106110ed576110ec611de8565b5b60200260200101818152505080915050919050565b6111218473ffffffffffffffffffffffffffffffffffffffff166112d9565b156112d1578373ffffffffffffffffffffffffffffffffffffffff1663f23a6e6187878686866040518663ffffffff1660e01b8152600401611167959493929190612413565b6020604051808303816000875af19250505080156111a357506040513d601f19601f820116820180604052508101906111a09190612203565b60015b611248576111af61223d565b806308c379a00361120b57506111c361225f565b806111ce575061120d565b806040517f08c379a00000000000000000000000000000000000000000000000000000000081526004016112029190611586565b60405180910390fd5b505b6040517f08c379a000000000000000000000000000000000000000000000000000000000815260040161123f90612361565b60405180910390fd5b63f23a6e6160e01b7bffffffffffffffffffffffffffffffffffffffffffffffffffffffff1916817bffffffffffffffffffffffffffffffffffffffffffffffffffffffff1916146112cf576040517f08c379a00000000000000000000000000000000000000000000000000000000081526004016112c6906123f3565b60405180910390fd5b505b505050505050565b6000808273ffffffffffffffffffffffffffffffffffffffff163b119050919050565b6000604051905090565b600080fd5b600080fd5b600073ffffffffffffffffffffffffffffffffffffffff82169050919050565b600061133b82611310565b9050919050565b61134b81611330565b811461135657600080fd5b50565b60008135905061136881611342565b92915050565b6000819050919050565b6113818161136e565b811461138c57600080fd5b50565b60008135905061139e81611378565b92915050565b600080604083850312156113bb576113ba611306565b5b60006113c985828601611359565b92505060206113da8582860161138f565b9150509250929050565b6113ed8161136e565b82525050565b600060208201905061140860008301846113e4565b92915050565b60007fffffffff0000000000000000000000000000000000000000000000000000000082169050919050565b6114438161140e565b811461144e57600080fd5b50565b6000813590506114608161143a565b92915050565b60006020828403121561147c5761147b611306565b5b600061148a84828501611451565b91505092915050565b60008115159050919050565b6114a881611493565b82525050565b60006020820190506114c3600083018461149f565b92915050565b6000602082840312156114df576114de611306565b5b60006114ed8482850161138f565b91505092915050565b600081519050919050565b600082825260208201905092915050565b60005b83811015611530578082015181840152602081019050611515565b60008484015250505050565b6000601f19601f8301169050919050565b6000611558826114f6565b6115628185611501565b9350611572818560208601611512565b61157b8161153c565b840191505092915050565b600060208201905081810360008301526115a0818461154d565b905092915050565b600080fd5b7f4e487b7100000000000000000000000000000000000000000000000000000000600052604160045260246000fd5b6115e58261153c565b810181811067ffffffffffffffff82111715611604576116036115ad565b5b80604052505050565b60006116176112fc565b905061162382826115dc565b919050565b600067ffffffffffffffff821115611643576116426115ad565b5b602082029050602081019050919050565b600080fd5b600061166c61166784611628565b61160d565b9050808382526020820190506020840283018581111561168f5761168e611654565b5b835b818110156116b857806116a4888261138f565b845260208401935050602081019050611691565b5050509392505050565b600082601f8301126116d7576116d66115a8565b5b81356116e7848260208601611659565b91505092915050565b600080fd5b600067ffffffffffffffff8211156117105761170f6115ad565b5b6117198261153c565b9050602081019050919050565b82818337600083830152505050565b6000611748611743846116f5565b61160d565b905082815260208101848484011115611764576117636116f0565b5b61176f848285611726565b509392505050565b600082601f83011261178c5761178b6115a8565b5b813561179c848260208601611735565b91505092915050565b600080600080600060a086880312156117c1576117c0611306565b5b60006117cf88828901611359565b95505060206117e088828901611359565b945050604086013567ffffffffffffffff8111156118015761180061130b565b5b61180d888289016116c2565b935050606086013567ffffffffffffffff81111561182e5761182d61130b565b5b61183a888289016116c2565b925050608086013567ffffffffffffffff81111561185b5761185a61130b565b5b61186788828901611777565b9150509295509295909350565b600067ffffffffffffffff82111561188f5761188e6115ad565b5b602082029050602081019050919050565b60006118b36118ae84611874565b61160d565b905080838252602082019050602084028301858111156118d6576118d5611654565b5b835b818110156118ff57806118eb8882611359565b8452602084019350506020810190506118d8565b5050509392505050565b600082601f83011261191e5761191d6115a8565b5b813561192e8482602086016118a0565b91505092915050565b6000806040838503121561194e5761194d611306565b5b600083013567ffffffffffffffff81111561196c5761196b61130b565b5b61197885828601611909565b925050602083013567ffffffffffffffff8111156119995761199861130b565b5b6119a5858286016116c2565b9150509250929050565b600081519050919050565b600082825260208201905092915050565b6000819050602082019050919050565b6119e48161136e565b82525050565b60006119f683836119db565b60208301905092915050565b6000602082019050919050565b6000611a1a826119af565b611a2481856119ba565b9350611a2f836119cb565b8060005b83811015611a60578151611a4788826119ea565b9750611a5283611a02565b925050600181019050611a33565b5085935050505092915050565b60006020820190508181036000830152611a878184611a0f565b905092915050565b611a9881611493565b8114611aa357600080fd5b50565b600081359050611ab581611a8f565b92915050565b60008060408385031215611ad257611ad1611306565b5b6000611ae085828601611359565b9250506020611af185828601611aa6565b9150509250929050565b60008060408385031215611b1257611b11611306565b5b6000611b2085828601611359565b9250506020611b3185828601611359565b9150509250929050565b600080600080600060a08688031215611b5757611b56611306565b5b6000611b6588828901611359565b9550506020611b7688828901611359565b9450506040611b878882890161138f565b9350506060611b988882890161138f565b925050608086013567ffffffffffffffff811115611bb957611bb861130b565b5b611bc588828901611777565b9150509295509295909350565b7f455243313135353a2061646472657373207a65726f206973206e6f742061207660008201527f616c6964206f776e657200000000000000000000000000000000000000000000602082015250565b6000611c2e602a83611501565b9150611c3982611bd2565b604082019050919050565b60006020820190508181036000830152611c5d81611c21565b9050919050565b7f4e487b7100000000000000000000000000000000000000000000000000000000600052602260045260246000fd5b60006002820490506001821680611cab57607f821691505b602082108103611cbe57611cbd611c64565b5b50919050565b7f455243313135353a2063616c6c6572206973206e6f7420746f6b656e206f776e60008201527f6572206f7220617070726f766564000000000000000000000000000000000000602082015250565b6000611d20602e83611501565b9150611d2b82611cc4565b604082019050919050565b60006020820190508181036000830152611d4f81611d13565b9050919050565b7f455243313135353a206163636f756e747320616e6420696473206c656e67746860008201527f206d69736d617463680000000000000000000000000000000000000000000000602082015250565b6000611db2602983611501565b9150611dbd82611d56565b604082019050919050565b60006020820190508181036000830152611de181611da5565b9050919050565b7f4e487b7100000000000000000000000000000000000000000000000000000000600052603260045260246000fd5b7f455243313135353a2069647320616e6420616d6f756e7473206c656e6774682060008201527f6d69736d61746368000000000000000000000000000000000000000000000000602082015250565b6000611e73602883611501565b9150611e7e82611e17565b604082019050919050565b60006020820190508181036000830152611ea281611e66565b9050919050565b7f455243313135353a207472616e7366657220746f20746865207a65726f20616460008201527f6472657373000000000000000000000000000000000000000000000000000000602082015250565b6000611f05602583611501565b9150611f1082611ea9565b604082019050919050565b60006020820190508181036000830152611f3481611ef8565b9050919050565b7f455243313135353a20696e73756666696369656e742062616c616e636520666f60008201527f72207472616e7366657200000000000000000000000000000000000000000000602082015250565b6000611f97602a83611501565b9150611fa282611f3b565b604082019050919050565b60006020820190508181036000830152611fc681611f8a565b9050919050565b7f4e487b7100000000000000000000000000000000000000000000000000000000600052601160045260246000fd5b60006120078261136e565b91506120128361136e565b925082820190508082111561202a57612029611fcd565b5b92915050565b6000604082019050818103600083015261204a8185611a0f565b9050818103602083015261205e8184611a0f565b90509392505050565b7f455243313135353a2073657474696e6720617070726f76616c2073746174757360008201527f20666f722073656c660000000000000000000000000000000000000000000000602082015250565b60006120c3602983611501565b91506120ce82612067565b604082019050919050565b600060208201905081810360008301526120f2816120b6565b9050919050565b600060408201905061210e60008301856113e4565b61211b60208301846113e4565b9392505050565b61212b81611330565b82525050565b600081519050919050565b600082825260208201905092915050565b600061215882612131565b612162818561213c565b9350612172818560208601611512565b61217b8161153c565b840191505092915050565b600060a08201905061219b6000830188612122565b6121a86020830187612122565b81810360408301526121ba8186611a0f565b905081810360608301526121ce8185611a0f565b905081810360808301526121e2818461214d565b90509695505050505050565b6000815190506121fd8161143a565b92915050565b60006020828403121561221957612218611306565b5b6000612227848285016121ee565b91505092915050565b60008160e01c9050919050565b600060033d111561225c5760046000803e612259600051612230565b90505b90565b600060443d106122ec576122716112fc565b60043d036004823e80513d602482011167ffffffffffffffff821117156122995750506122ec565b808201805167ffffffffffffffff8111156122b757505050506122ec565b80602083010160043d0385018111156122d45750505050506122ec565b6122e3826020018501866115dc565b82955050505050505b90565b7f455243313135353a207472616e7366657220746f206e6f6e2d4552433131353560008201527f526563656976657220696d706c656d656e746572000000000000000000000000602082015250565b600061234b603483611501565b9150612356826122ef565b604082019050919050565b6000602082019050818103600083015261237a8161233e565b9050919050565b7f455243313135353a204552433131353552656365697665722072656a6563746560008201527f6420746f6b656e73000000000000000000000000000000000000000000000000602082015250565b60006123dd602883611501565b91506123e882612381565b604082019050919050565b6000602082019050818103600083015261240c816123d0565b9050919050565b600060a0820190506124286000830188612122565b6124356020830187612122565b61244260408301866113e4565b61244f60608301856113e4565b8181036080830152612461818461214d565b9050969550505050505056fea264697066735822122073c5e2d76b21a9c1bd129bcaec590abb5d7398bec4ce518d79e298602094e7a964736f6c63430008180033","linkReferences":{}},"methodIdentifiers":{"balanceOf(address,uint256)":"00fdd58e","balanceOfBatch(address[],uint256[])":"4e1273f4","isApprovedForAll(address,address)":"e985e9c5","safeBatchTransferFrom(address,address,uint256[],uint256[],bytes)":"2eb2c2d6","safeTransferFrom(address,address,uint256,uint256,bytes)":"f242432a","setApprovalForAll(address,bool)":"a22cb465","supportsInterface(bytes4)":"01ffc9a7","uri(uint256)":"0e89341c"},"id":59}