{"abi":[{"type":"constructor","inputs":[{"name":"_ownable","type":"address","internalType":"address"},{"name":"_uniHelper","type":"address","internalType":"address"},{"name":"_property","type":"address","internalType":"address"},{"name":"_discountPercents","type":"uint256[]","internalType":"uint256[]"}],"stateMutability":"nonpayable"},{"type":"receive","stateMutability":"payable"},{"type":"function","name":"activeSubscription","inputs":[{"name":"_token","type":"address","internalType":"address"},{"name":"_period","type":"uint256","internalType":"uint256"}],"outputs":[],"stateMutability":"payable"},{"type":"function","name":"addDiscountPercent","inputs":[{"name":"_discountPercents","type":"uint256[]","internalType":"uint256[]"}],"outputs":[],"stateMutability":"nonpayable"},{"type":"function","name":"getDiscountPercentList","inputs":[],"outputs":[{"name":"list_","type":"uint256[]","internalType":"uint256[]"}],"stateMutability":"view"},{"type":"function","name":"getExpectedSubscriptionAmount","inputs":[{"name":"_token","type":"address","internalType":"address"},{"name":"_period","type":"uint256","internalType":"uint256"}],"outputs":[{"name":"expectAmount_","type":"uint256","internalType":"uint256"}],"stateMutability":"view"},{"type":"function","name":"isActivedSubscription","inputs":[{"name":"_customer","type":"address","internalType":"address"}],"outputs":[{"name":"active_","type":"bool","internalType":"bool"}],"stateMutability":"view"},{"type":"function","name":"subscriptionInfo","inputs":[{"name":"","type":"address","internalType":"address"}],"outputs":[{"name":"activeTime","type":"uint256","internalType":"uint256"},{"name":"period","type":"uint256","internalType":"uint256"},{"name":"expireTime","type":"uint256","internalType":"uint256"}],"stateMutability":"view"},{"type":"event","name":"SubscriptionActivated","inputs":[{"name":"customer","type":"address","indexed":true,"internalType":"address"},{"name":"token","type":"address","indexed":false,"internalType":"address"},{"name":"period","type":"uint256","indexed":false,"internalType":"uint256"}],"anonymous":false}],"bytecode":{"object":"0x60e06040523480156200001157600080fd5b50604051620025893803806200258983398101604081905262000034916200026b565b60016000556001600160a01b038416620000955760405162461bcd60e51b815260206004820152601d60248201527f6f776e61626c65436f6e74726163743a207a65726f206164647265737300000060448201526064015b60405180910390fd5b6001600160a01b038085166080528316620000f35760405162461bcd60e51b815260206004820152601f60248201527f756e6948656c706572436f6e74726163743a207a65726f20616464726573730060448201526064016200008c565b6001600160a01b0380841660a0528216620001515760405162461bcd60e51b815260206004820152601960248201527f64616f50726f70657274793a207a65726f20616464726573730000000000000060448201526064016200008c565b6001600160a01b03821660c0528051600314620001b15760405162461bcd60e51b815260206004820152601860248201527f646973636f756e744c6973743a20626164206c656e677468000000000000000060448201526064016200008c565b8051620001c6906001906020840190620001d1565b50505050506200036d565b8280548282559060005260206000209081019282156200020f579160200282015b828111156200020f578251825591602001919060010190620001f2565b506200021d92915062000221565b5090565b5b808211156200021d576000815560010162000222565b80516001600160a01b03811681146200025057600080fd5b919050565b634e487b7160e01b600052604160045260246000fd5b600080600080608085870312156200028257600080fd5b6200028d8562000238565b935060206200029e81870162000238565b9350620002ae6040870162000238565b60608701519093506001600160401b0380821115620002cc57600080fd5b818801915088601f830112620002e157600080fd5b815181811115620002f657620002f662000255565b8060051b604051601f19603f830116810181811085821117156200031e576200031e62000255565b60405291825284820192508381018501918b8311156200033d57600080fd5b938501935b828510156200035d5784518452938501939285019262000342565b989b979a50959850505050505050565b60805160a05160c0516121756200041460003960006103460152600081816105260152818161069b01528181610afa01528181610b7a01528181610e1001528181610f6c0152818161103d015281816111b4015261128f015260008181610220015281816102b3015281816107b4015281816108db01528181610c1201528181610ca501528181610e90015281816110bd01528181611311015261149501526121756000f3fe6080604052600436106100695760003560e01c806328e7d9601161004357806328e7d960146100fa578063bcd15f871461010f578063d83f6e561461012f57600080fd5b80630f78a5a4146100755780632317bab5146100a857806327184a8b146100d857600080fd5b3661007057005b600080fd5b34801561008157600080fd5b50610095610090366004611e71565b610185565b6040519081526020015b60405180910390f35b3480156100b457600080fd5b506100c86100c3366004611e9d565b610712565b604051901515815260200161009f565b3480156100e457600080fd5b506100ed610752565b60405161009f9190611ec1565b61010d610108366004611e71565b6107aa565b005b34801561011b57600080fd5b5061010d61012a366004611f05565b611493565b34801561013b57600080fd5b5061016a61014a366004611e9d565b600260208190526000918252604090912080546001820154919092015483565b6040805193845260208401929092529082015260600161009f565b60008160000361021c576040517f08c379a000000000000000000000000000000000000000000000000000000000815260206004820152602a60248201527f6765744578706563746564537562736372697074696f6e416d6f756e743a205a60448201527f65726f20706572696f640000000000000000000000000000000000000000000060648201526084015b60405180910390fd5b60007f000000000000000000000000000000000000000000000000000000000000000073ffffffffffffffffffffffffffffffffffffffff1663fa5692746040518163ffffffff1660e01b8152600401602060405180830381865afa158015610289573d6000803e3d6000fd5b505050506040513d601f19601f820116820180604052508101906102ad9190611f7a565b905060007f000000000000000000000000000000000000000000000000000000000000000073ffffffffffffffffffffffffffffffffffffffff1663e2f6f5116040518163ffffffff1660e01b8152600401602060405180830381865afa15801561031c573d6000803e3d6000fd5b505050506040513d601f19601f820116820180604052508101906103409190611f7a565b905060007f000000000000000000000000000000000000000000000000000000000000000073ffffffffffffffffffffffffffffffffffffffff166354f8a8c26040518163ffffffff1660e01b8152600401602060405180830381865afa1580156103af573d6000803e3d6000fd5b505050506040513d601f19601f820116820180604052508101906103d39190611f97565b6103dd9086611fdf565b9050600385106104dc57600385101580156103f85750600685105b15610457576402540be400600160008154811061041757610417611ffc565b9060005260206000200154606461042e919061202b565b6104389083611fdf565b610446906305f5e100611fdf565b610450919061203e565b90506104dc565b600685101580156104685750600c85105b15610486576402540be4006001808154811061041757610417611ffc565b6402540be40060016002815481106104a0576104a0611ffc565b906000526020600020015460646104b7919061202b565b6104c19083611fdf565b6104cf906305f5e100611fdf565b6104d9919061203e565b90505b8173ffffffffffffffffffffffffffffffffffffffff168673ffffffffffffffffffffffffffffffffffffffff160361060c5773ffffffffffffffffffffffffffffffffffffffff7f00000000000000000000000000000000000000000000000000000000000000001663eeee26ce6402540be40061055f63ee6b280085611fdf565b610569919061203e565b6040517fffffffff0000000000000000000000000000000000000000000000000000000060e084901b168152600481019190915273ffffffffffffffffffffffffffffffffffffffff808716602483015289166044820152606401602060405180830381865afa1580156105e1573d6000803e3d6000fd5b505050506040513d601f19601f820116820180604052508101906106059190611f97565b9350610709565b8273ffffffffffffffffffffffffffffffffffffffff168673ffffffffffffffffffffffffffffffffffffffff160361064757809350610709565b6040517feeee26ce0000000000000000000000000000000000000000000000000000000081526004810182905273ffffffffffffffffffffffffffffffffffffffff848116602483015287811660448301527f0000000000000000000000000000000000000000000000000000000000000000169063eeee26ce90606401602060405180830381865afa1580156106e2573d6000803e3d6000fd5b505050506040513d601f19601f820116820180604052508101906107069190611f97565b93505b50505092915050565b73ffffffffffffffffffffffffffffffffffffffff811660009081526002602081905260408220015442101561074a57506001919050565b506000919050565b606060018054806020026020016040519081016040528092919081815260200182805480156107a057602002820191906000526020600020905b81548152602001906001019080831161078c575b5050505050905090565b6107b2611631565b7f000000000000000000000000000000000000000000000000000000000000000073ffffffffffffffffffffffffffffffffffffffff1663e2f6f5116040518163ffffffff1660e01b8152600401602060405180830381865afa15801561081d573d6000803e3d6000fd5b505050506040513d601f19601f820116820180604052508101906108419190611f7a565b73ffffffffffffffffffffffffffffffffffffffff168273ffffffffffffffffffffffffffffffffffffffff1614158015610891575073ffffffffffffffffffffffffffffffffffffffff821615155b156109d2576040517fbdbef07d00000000000000000000000000000000000000000000000000000000815273ffffffffffffffffffffffffffffffffffffffff83811660048301527f0000000000000000000000000000000000000000000000000000000000000000169063bdbef07d90602401602060405180830381865afa158015610922573d6000803e3d6000fd5b505050506040513d601f19601f820116820180604052508101906109469190612079565b6109d2576040517f08c379a000000000000000000000000000000000000000000000000000000000815260206004820152602560248201527f616374697665537562736372697074696f6e3a206e6f7420616c6c6f7765642060448201527f61737365740000000000000000000000000000000000000000000000000000006064820152608401610213565b60006109de8383610185565b905073ffffffffffffffffffffffffffffffffffffffff8316610aab5780341015610a8b576040517f08c379a000000000000000000000000000000000000000000000000000000000815260206004820152602560248201527f616374697665537562736372697074696f6e3a20496e73756666696369656e7460448201527f20706169640000000000000000000000000000000000000000000000000000006064820152608401610213565b80341115610aa657610aa633610aa1833461202b565b6116a4565b610c0d565b610ab7833330846117ae565b6040517fdd62ed3e00000000000000000000000000000000000000000000000000000000815230600482015273ffffffffffffffffffffffffffffffffffffffff7f00000000000000000000000000000000000000000000000000000000000000008116602483015284169063dd62ed3e90604401602060405180830381865afa158015610b49573d6000803e3d6000fd5b505050506040513d601f19601f82011682018060405250810190610b6d9190611f97565b600003610c0d57610c0d837f00000000000000000000000000000000000000000000000000000000000000008573ffffffffffffffffffffffffffffffffffffffff166318160ddd6040518163ffffffff1660e01b8152600401602060405180830381865afa158015610be4573d6000803e3d6000fd5b505050506040513d601f19601f82011682018060405250810190610c089190611f97565b6119cb565b6000807f000000000000000000000000000000000000000000000000000000000000000073ffffffffffffffffffffffffffffffffffffffff1663fa5692746040518163ffffffff1660e01b8152600401602060405180830381865afa158015610c7b573d6000803e3d6000fd5b505050506040513d601f19601f82011682018060405250810190610c9f9190611f7a565b905060007f000000000000000000000000000000000000000000000000000000000000000073ffffffffffffffffffffffffffffffffffffffff1663e2f6f5116040518163ffffffff1660e01b8152600401602060405180830381865afa158015610d0e573d6000803e3d6000fd5b505050506040513d601f19601f82011682018060405250810190610d329190611f7a565b90508073ffffffffffffffffffffffffffffffffffffffff168673ffffffffffffffffffffffffffffffffffffffff1603610f29576000848784604051602001610da59392919092835273ffffffffffffffffffffffffffffffffffffffff918216602084015216604082015260600190565b604080517fffffffffffffffffffffffffffffffffffffffffffffffffffffffffffffffe0818403018152908290527fab4e9ba6000000000000000000000000000000000000000000000000000000008252915073ffffffffffffffffffffffffffffffffffffffff7f0000000000000000000000000000000000000000000000000000000000000000169063ab4e9ba690610e459084906004016120bf565b6020604051808303816000875af1158015610e64573d6000803e3d6000fd5b505050506040513d601f19601f82011682018060405250810190610e889190611f97565b9350610f23837f000000000000000000000000000000000000000000000000000000000000000073ffffffffffffffffffffffffffffffffffffffff16637d328e5c6040518163ffffffff1660e01b8152600401602060405180830381865afa158015610ef9573d6000803e3d6000fd5b505050506040513d601f19601f82011682018060405250810190610f1d9190611f7a565b86611bdf565b506113a8565b60006402540be400610f40640165a0bc0087611fdf565b610f4a919061203e565b905073ffffffffffffffffffffffffffffffffffffffff8716610f9157610f917f0000000000000000000000000000000000000000000000000000000000000000826116a4565b6000818884604051602001610fcf9392919092835273ffffffffffffffffffffffffffffffffffffffff918216602084015216604082015260600190565b604080517fffffffffffffffffffffffffffffffffffffffffffffffffffffffffffffffe0818403018152908290527fab4e9ba6000000000000000000000000000000000000000000000000000000008252915060009073ffffffffffffffffffffffffffffffffffffffff7f0000000000000000000000000000000000000000000000000000000000000000169063ab4e9ba6906110729085906004016120bf565b6020604051808303816000875af1158015611091573d6000803e3d6000fd5b505050506040513d601f19601f820116820180604052508101906110b59190611f97565b9050611150847f000000000000000000000000000000000000000000000000000000000000000073ffffffffffffffffffffffffffffffffffffffff16637d328e5c6040518163ffffffff1660e01b8152600401602060405180830381865afa158015611126573d6000803e3d6000fd5b505050506040513d601f19601f8201168201806040525081019061114a9190611f7a565b83611bdf565b8473ffffffffffffffffffffffffffffffffffffffff168973ffffffffffffffffffffffffffffffffffffffff16036111945761118d838861202b565b955061130b565b73ffffffffffffffffffffffffffffffffffffffff89166111dd576111dd7f0000000000000000000000000000000000000000000000000000000000000000610aa1858a61202b565b60006111e9848961202b565b8a876040516020016112249392919092835273ffffffffffffffffffffffffffffffffffffffff918216602084015216604082015260600190565b604080517fffffffffffffffffffffffffffffffffffffffffffffffffffffffffffffffe0818403018152908290527fab4e9ba6000000000000000000000000000000000000000000000000000000008252915073ffffffffffffffffffffffffffffffffffffffff7f0000000000000000000000000000000000000000000000000000000000000000169063ab4e9ba6906112c49084906004016120bf565b6020604051808303816000875af11580156112e3573d6000803e3d6000fd5b505050506040513d601f19601f820116820180604052508101906113079190611f97565b9650505b6113a4857f000000000000000000000000000000000000000000000000000000000000000073ffffffffffffffffffffffffffffffffffffffff16637d328e5c6040518163ffffffff1660e01b8152600401602060405180830381865afa15801561137a573d6000803e3d6000fd5b505050506040513d601f19601f8201168201806040525081019061139e9190611f7a565b88611bdf565b5050505b336000818152600260205260409020906113c190610712565b156114085760018101546113d58782612110565b60018301556113e48782612110565b6113f19062278d00611fdf565b82546113fd9190612110565b60028301555061142f565b4281556001810186905561141f8662278d00611fdf565b6114299042612110565b60028201555b6040805173ffffffffffffffffffffffffffffffffffffffff891681526020810188905233917f6f0a4e2ace566095490447936119974d8a508408bd19978d295c859e5be593dc910160405180910390a2505050505061148f6001600055565b5050565b7f000000000000000000000000000000000000000000000000000000000000000073ffffffffffffffffffffffffffffffffffffffff16633ec045a66040518163ffffffff1660e01b8152600401602060405180830381865afa1580156114fe573d6000803e3d6000fd5b505050506040513d601f19601f820116820180604052508101906115229190611f7a565b73ffffffffffffffffffffffffffffffffffffffff163373ffffffffffffffffffffffffffffffffffffffff16146115b6576040517f08c379a000000000000000000000000000000000000000000000000000000000815260206004820152601960248201527f63616c6c6572206973206e6f74207468652061756469746f72000000000000006044820152606401610213565b60038114611620576040517f08c379a000000000000000000000000000000000000000000000000000000000815260206004820152601860248201527f646973636f756e744c6973743a20626164206c656e67746800000000000000006044820152606401610213565b61162c60018383611dec565b505050565b60026000540361169d576040517f08c379a000000000000000000000000000000000000000000000000000000000815260206004820152601f60248201527f5265656e7472616e637947756172643a207265656e7472616e742063616c6c006044820152606401610213565b6002600055565b6040805160008082526020820190925273ffffffffffffffffffffffffffffffffffffffff84169083906040516116db9190612123565b60006040518083038185875af1925050503d8060008114611718576040519150601f19603f3d011682016040523d82523d6000602084013e61171d565b606091505b505090508061162c576040517f08c379a000000000000000000000000000000000000000000000000000000000815260206004820152602f60248201527f566162626c6544414f3a3a736166655472616e736665724554483a204554482060448201527f7472616e73666572206661696c656400000000000000000000000000000000006064820152608401610213565b73ffffffffffffffffffffffffffffffffffffffff84163b61182c576040517f08c379a000000000000000000000000000000000000000000000000000000000815260206004820152600160248201527f43000000000000000000000000000000000000000000000000000000000000006044820152606401610213565b6040805173ffffffffffffffffffffffffffffffffffffffff85811660248301528481166044830152606480830185905283518084039091018152608490920183526020820180517bffffffffffffffffffffffffffffffffffffffffffffffffffffffff167f23b872dd0000000000000000000000000000000000000000000000000000000017905291516000928392908816916118cb9190612123565b6000604051808303816000865af19150503d8060008114611908576040519150601f19603f3d011682016040523d82523d6000602084013e61190d565b606091505b50915091508180156119375750805115806119375750808060200190518101906119379190612079565b6119c3576040517f08c379a000000000000000000000000000000000000000000000000000000000815260206004820152602c60248201527f566162626c6544414f3a3a7472616e7366657246726f6d3a207472616e73666560448201527f7246726f6d206661696c656400000000000000000000000000000000000000006064820152608401610213565b505050505050565b73ffffffffffffffffffffffffffffffffffffffff83163b611a49576040517f08c379a000000000000000000000000000000000000000000000000000000000815260206004820152600160248201527f43000000000000000000000000000000000000000000000000000000000000006044820152606401610213565b6040805173ffffffffffffffffffffffffffffffffffffffff8481166024830152604480830185905283518084039091018152606490920183526020820180517bffffffffffffffffffffffffffffffffffffffffffffffffffffffff167f095ea7b3000000000000000000000000000000000000000000000000000000001790529151600092839290871691611ae09190612123565b6000604051808303816000865af19150503d8060008114611b1d576040519150601f19603f3d011682016040523d82523d6000602084013e611b22565b606091505b5091509150818015611b4c575080511580611b4c575080806020019051810190611b4c9190612079565b611bd8576040517f08c379a000000000000000000000000000000000000000000000000000000000815260206004820152602b60248201527f5472616e7366657248656c7065723a3a73616665417070726f76653a2061707060448201527f726f7665206661696c65640000000000000000000000000000000000000000006064820152608401610213565b5050505050565b73ffffffffffffffffffffffffffffffffffffffff83163b611c5d576040517f08c379a000000000000000000000000000000000000000000000000000000000815260206004820152600160248201527f43000000000000000000000000000000000000000000000000000000000000006044820152606401610213565b6040805173ffffffffffffffffffffffffffffffffffffffff8481166024830152604480830185905283518084039091018152606490920183526020820180517bffffffffffffffffffffffffffffffffffffffffffffffffffffffff167fa9059cbb000000000000000000000000000000000000000000000000000000001790529151600092839290871691611cf49190612123565b6000604051808303816000865af19150503d8060008114611d31576040519150601f19603f3d011682016040523d82523d6000602084013e611d36565b606091505b5091509150818015611d60575080511580611d60575080806020019051810190611d609190612079565b611bd8576040517f08c379a000000000000000000000000000000000000000000000000000000000815260206004820152602860248201527f566162626c6544414f3a3a736166655472616e736665723a207472616e73666560448201527f72206661696c65640000000000000000000000000000000000000000000000006064820152608401610213565b828054828255906000526020600020908101928215611e27579160200282015b82811115611e27578235825591602001919060010190611e0c565b50611e33929150611e37565b5090565b5b80821115611e335760008155600101611e38565b73ffffffffffffffffffffffffffffffffffffffff81168114611e6e57600080fd5b50565b60008060408385031215611e8457600080fd5b8235611e8f81611e4c565b946020939093013593505050565b600060208284031215611eaf57600080fd5b8135611eba81611e4c565b9392505050565b6020808252825182820181905260009190848201906040850190845b81811015611ef957835183529284019291840191600101611edd565b50909695505050505050565b60008060208385031215611f1857600080fd5b823567ffffffffffffffff80821115611f3057600080fd5b818501915085601f830112611f4457600080fd5b813581811115611f5357600080fd5b8660208260051b8501011115611f6857600080fd5b60209290920196919550909350505050565b600060208284031215611f8c57600080fd5b8151611eba81611e4c565b600060208284031215611fa957600080fd5b5051919050565b7f4e487b7100000000000000000000000000000000000000000000000000000000600052601160045260246000fd5b8082028115828204841417611ff657611ff6611fb0565b92915050565b7f4e487b7100000000000000000000000000000000000000000000000000000000600052603260045260246000fd5b81810381811115611ff657611ff6611fb0565b600082612074577f4e487b7100000000000000000000000000000000000000000000000000000000600052601260045260246000fd5b500490565b60006020828403121561208b57600080fd5b81518015158114611eba57600080fd5b60005b838110156120b657818101518382015260200161209e565b50506000910152565b60208152600082518060208401526120de81604085016020870161209b565b601f017fffffffffffffffffffffffffffffffffffffffffffffffffffffffffffffffe0169190910160400192915050565b80820180821115611ff657611ff6611fb0565b6000825161213581846020870161209b565b919091019291505056fea26469706673582212206cafe7fc2733381011a14ff99126f8644b20a339a9a078532dd4c425e675191c64736f6c63430008180033","linkReferences":{}},"methodIdentifiers":{"activeSubscription(address,uint256)":"28e7d960","addDiscountPercent(uint256[])":"bcd15f87","getDiscountPercentList()":"27184a8b","getExpectedSubscriptionAmount(address,uint256)":"0f78a5a4","isActivedSubscription(address)":"2317bab5","subscriptionInfo(address)":"d83f6e56"},"id":7}