{"abi":[{"type":"constructor","inputs":[{"name":"_ownable","type":"address","internalType":"address"}],"stateMutability":"nonpayable"},{"type":"function","name":"addFilmBoard","inputs":[{"name":"_index","type":"uint256","internalType":"uint256"}],"outputs":[],"stateMutability":"nonpayable"},{"type":"function","name":"agentVoting","inputs":[{"name":"","type":"uint256","internalType":"uint256"}],"outputs":[{"name":"stakeAmount_1","type":"uint256","internalType":"uint256"},{"name":"stakeAmount_2","type":"uint256","internalType":"uint256"},{"name":"voteCount_1","type":"uint256","internalType":"uint256"},{"name":"voteCount_2","type":"uint256","internalType":"uint256"}],"stateMutability":"view"},{"type":"function","name":"approveFilms","inputs":[{"name":"_filmIds","type":"uint256[]","internalType":"uint256[]"}],"outputs":[],"stateMutability":"nonpayable"},{"type":"function","name":"disputeToAgent","inputs":[{"name":"_index","type":"uint256","internalType":"uint256"},{"name":"_pay","type":"bool","internalType":"bool"}],"outputs":[],"stateMutability":"nonpayable"},{"type":"function","name":"filmBoardVoting","inputs":[{"name":"","type":"uint256","internalType":"uint256"}],"outputs":[{"name":"stakeAmount_1","type":"uint256","internalType":"uint256"},{"name":"stakeAmount_2","type":"uint256","internalType":"uint256"},{"name":"voteCount_1","type":"uint256","internalType":"uint256"},{"name":"voteCount_2","type":"uint256","internalType":"uint256"}],"stateMutability":"view"},{"type":"function","name":"filmVoting","inputs":[{"name":"","type":"uint256","internalType":"uint256"}],"outputs":[{"name":"stakeAmount_1","type":"uint256","internalType":"uint256"},{"name":"stakeAmount_2","type":"uint256","internalType":"uint256"},{"name":"voteCount_1","type":"uint256","internalType":"uint256"},{"name":"voteCount_2","type":"uint256","internalType":"uint256"}],"stateMutability":"view"},{"type":"function","name":"getLastVoteTime","inputs":[{"name":"_member","type":"address","internalType":"address"}],"outputs":[{"name":"time_","type":"uint256","internalType":"uint256"}],"stateMutability":"view"},{"type":"function","name":"govPassedVoteCount","inputs":[{"name":"","type":"uint256","internalType":"uint256"}],"outputs":[{"name":"","type":"uint256","internalType":"uint256"}],"stateMutability":"view"},{"type":"function","name":"initialize","inputs":[{"name":"_vabbleDAO","type":"address","internalType":"address"},{"name":"_stakingPool","type":"address","internalType":"address"},{"name":"_property","type":"address","internalType":"address"},{"name":"_uniHelper","type":"address","internalType":"address"}],"outputs":[],"stateMutability":"nonpayable"},{"type":"function","name":"isAttendToAgentVote","inputs":[{"name":"","type":"address","internalType":"address"},{"name":"","type":"uint256","internalType":"uint256"}],"outputs":[{"name":"","type":"bool","internalType":"bool"}],"stateMutability":"view"},{"type":"function","name":"isAttendToBoardVote","inputs":[{"name":"","type":"address","internalType":"address"},{"name":"","type":"uint256","internalType":"uint256"}],"outputs":[{"name":"","type":"bool","internalType":"bool"}],"stateMutability":"view"},{"type":"function","name":"isAttendToFilmVote","inputs":[{"name":"","type":"address","internalType":"address"},{"name":"","type":"uint256","internalType":"uint256"}],"outputs":[{"name":"","type":"bool","internalType":"bool"}],"stateMutability":"view"},{"type":"function","name":"isAttendToPropertyVote","inputs":[{"name":"","type":"uint256","internalType":"uint256"},{"name":"","type":"address","internalType":"address"},{"name":"","type":"uint256","internalType":"uint256"}],"outputs":[{"name":"","type":"bool","internalType":"bool"}],"stateMutability":"view"},{"type":"function","name":"isAttendToRewardAddressVote","inputs":[{"name":"","type":"address","internalType":"address"},{"name":"","type":"uint256","internalType":"uint256"}],"outputs":[{"name":"","type":"bool","internalType":"bool"}],"stateMutability":"view"},{"type":"function","name":"isDoubleStaked","inputs":[{"name":"_index","type":"uint256","internalType":"uint256"},{"name":"_user","type":"address","internalType":"address"}],"outputs":[{"name":"","type":"bool","internalType":"bool"}],"stateMutability":"view"},{"type":"function","name":"propertyVoting","inputs":[{"name":"","type":"uint256","internalType":"uint256"},{"name":"","type":"uint256","internalType":"uint256"}],"outputs":[{"name":"stakeAmount_1","type":"uint256","internalType":"uint256"},{"name":"stakeAmount_2","type":"uint256","internalType":"uint256"},{"name":"voteCount_1","type":"uint256","internalType":"uint256"},{"name":"voteCount_2","type":"uint256","internalType":"uint256"}],"stateMutability":"view"},{"type":"function","name":"replaceAuditor","inputs":[{"name":"_index","type":"uint256","internalType":"uint256"}],"outputs":[],"stateMutability":"nonpayable"},{"type":"function","name":"rewardAddressVoting","inputs":[{"name":"","type":"uint256","internalType":"uint256"}],"outputs":[{"name":"stakeAmount_1","type":"uint256","internalType":"uint256"},{"name":"stakeAmount_2","type":"uint256","internalType":"uint256"},{"name":"voteCount_1","type":"uint256","internalType":"uint256"},{"name":"voteCount_2","type":"uint256","internalType":"uint256"}],"stateMutability":"view"},{"type":"function","name":"saveProposalWithFilm","inputs":[{"name":"_filmId","type":"uint256","internalType":"uint256"},{"name":"_proposalID","type":"uint256","internalType":"uint256"}],"outputs":[],"stateMutability":"nonpayable"},{"type":"function","name":"setDAORewardAddress","inputs":[{"name":"_index","type":"uint256","internalType":"uint256"}],"outputs":[],"stateMutability":"nonpayable"},{"type":"function","name":"updateAgentStats","inputs":[{"name":"_index","type":"uint256","internalType":"uint256"}],"outputs":[],"stateMutability":"nonpayable"},{"type":"function","name":"updateProperty","inputs":[{"name":"_index","type":"uint256","internalType":"uint256"},{"name":"_flag","type":"uint256","internalType":"uint256"}],"outputs":[],"stateMutability":"nonpayable"},{"type":"function","name":"userFilmVoteCount","inputs":[{"name":"","type":"address","internalType":"address"}],"outputs":[{"name":"","type":"uint256","internalType":"uint256"}],"stateMutability":"view"},{"type":"function","name":"userGovernVoteCount","inputs":[{"name":"","type":"address","internalType":"address"}],"outputs":[{"name":"","type":"uint256","internalType":"uint256"}],"stateMutability":"view"},{"type":"function","name":"voteToAgent","inputs":[{"name":"_voteInfo","type":"uint256","internalType":"uint256"},{"name":"_index","type":"uint256","internalType":"uint256"}],"outputs":[],"stateMutability":"nonpayable"},{"type":"function","name":"voteToFilmBoard","inputs":[{"name":"_index","type":"uint256","internalType":"uint256"},{"name":"_voteInfo","type":"uint256","internalType":"uint256"}],"outputs":[],"stateMutability":"nonpayable"},{"type":"function","name":"voteToFilms","inputs":[{"name":"_filmIds","type":"uint256[]","internalType":"uint256[]"},{"name":"_voteInfos","type":"uint256[]","internalType":"uint256[]"}],"outputs":[],"stateMutability":"nonpayable"},{"type":"function","name":"voteToProperty","inputs":[{"name":"_voteInfo","type":"uint256","internalType":"uint256"},{"name":"_index","type":"uint256","internalType":"uint256"},{"name":"_flag","type":"uint256","internalType":"uint256"}],"outputs":[],"stateMutability":"nonpayable"},{"type":"function","name":"voteToRewardAddress","inputs":[{"name":"_index","type":"uint256","internalType":"uint256"},{"name":"_voteInfo","type":"uint256","internalType":"uint256"}],"outputs":[],"stateMutability":"nonpayable"},{"type":"event","name":"AuditorReplaced","inputs":[{"name":"agent","type":"address","indexed":true,"internalType":"address"},{"name":"caller","type":"address","indexed":false,"internalType":"address"}],"anonymous":false},{"type":"event","name":"DisputedToAgent","inputs":[{"name":"caller","type":"address","indexed":true,"internalType":"address"},{"name":"agent","type":"address","indexed":true,"internalType":"address"},{"name":"index","type":"uint256","indexed":false,"internalType":"uint256"}],"anonymous":false},{"type":"event","name":"FilmApproved","inputs":[{"name":"filmId","type":"uint256","indexed":true,"internalType":"uint256"},{"name":"fundType","type":"uint256","indexed":false,"internalType":"uint256"},{"name":"reason","type":"uint256","indexed":false,"internalType":"uint256"}],"anonymous":false},{"type":"event","name":"FilmBoardAdded","inputs":[{"name":"boardMember","type":"address","indexed":true,"internalType":"address"},{"name":"caller","type":"address","indexed":false,"internalType":"address"},{"name":"reason","type":"uint256","indexed":false,"internalType":"uint256"},{"name":"index","type":"uint256","indexed":false,"internalType":"uint256"}],"anonymous":false},{"type":"event","name":"PoolAddressAdded","inputs":[{"name":"pool","type":"address","indexed":true,"internalType":"address"},{"name":"caller","type":"address","indexed":false,"internalType":"address"},{"name":"reason","type":"uint256","indexed":false,"internalType":"uint256"},{"name":"index","type":"uint256","indexed":false,"internalType":"uint256"}],"anonymous":false},{"type":"event","name":"PropertyUpdated","inputs":[{"name":"whichProperty","type":"uint256","indexed":true,"internalType":"uint256"},{"name":"propertyValue","type":"uint256","indexed":false,"internalType":"uint256"},{"name":"caller","type":"address","indexed":false,"internalType":"address"},{"name":"reason","type":"uint256","indexed":false,"internalType":"uint256"},{"name":"index","type":"uint256","indexed":false,"internalType":"uint256"}],"anonymous":false},{"type":"event","name":"UpdatedAgentStats","inputs":[{"name":"agent","type":"address","indexed":true,"internalType":"address"},{"name":"caller","type":"address","indexed":false,"internalType":"address"},{"name":"reason","type":"uint256","indexed":false,"internalType":"uint256"},{"name":"index","type":"uint256","indexed":false,"internalType":"uint256"}],"anonymous":false},{"type":"event","name":"VotedToAgent","inputs":[{"name":"voter","type":"address","indexed":true,"internalType":"address"},{"name":"agent","type":"address","indexed":true,"internalType":"address"},{"name":"voteInfo","type":"uint256","indexed":false,"internalType":"uint256"},{"name":"index","type":"uint256","indexed":false,"internalType":"uint256"}],"anonymous":false},{"type":"event","name":"VotedToFilm","inputs":[{"name":"voter","type":"address","indexed":true,"internalType":"address"},{"name":"filmId","type":"uint256","indexed":true,"internalType":"uint256"},{"name":"voteInfo","type":"uint256","indexed":false,"internalType":"uint256"}],"anonymous":false},{"type":"event","name":"VotedToFilmBoard","inputs":[{"name":"voter","type":"address","indexed":true,"internalType":"address"},{"name":"candidate","type":"address","indexed":false,"internalType":"address"},{"name":"voteInfo","type":"uint256","indexed":false,"internalType":"uint256"},{"name":"index","type":"uint256","indexed":false,"internalType":"uint256"}],"anonymous":false},{"type":"event","name":"VotedToPoolAddress","inputs":[{"name":"voter","type":"address","indexed":true,"internalType":"address"},{"name":"rewardAddress","type":"address","indexed":false,"internalType":"address"},{"name":"voteInfo","type":"uint256","indexed":false,"internalType":"uint256"},{"name":"index","type":"uint256","indexed":false,"internalType":"uint256"}],"anonymous":false},{"type":"event","name":"VotedToProperty","inputs":[{"name":"voter","type":"address","indexed":true,"internalType":"address"},{"name":"flag","type":"uint256","indexed":false,"internalType":"uint256"},{"name":"propertyVal","type":"uint256","indexed":false,"internalType":"uint256"},{"name":"voteInfo","type":"uint256","indexed":false,"internalType":"uint256"},{"name":"index","type":"uint256","indexed":false,"internalType":"uint256"}],"anonymous":false}],"bytecode":{"object":"0x60a06040523480156200001157600080fd5b5060405162009af838038062009af8833981810160405281019062000037919062000156565b6001600081905550600073ffffffffffffffffffffffffffffffffffffffff168173ffffffffffffffffffffffffffffffffffffffff1603620000b1576040517f08c379a0000000000000000000000000000000000000000000000000000000008152600401620000a890620001e9565b60405180910390fd5b8073ffffffffffffffffffffffffffffffffffffffff1660808173ffffffffffffffffffffffffffffffffffffffff1681525050506200020b565b600080fd5b600073ffffffffffffffffffffffffffffffffffffffff82169050919050565b60006200011e82620000f1565b9050919050565b620001308162000111565b81146200013c57600080fd5b50565b600081519050620001508162000125565b92915050565b6000602082840312156200016f576200016e620000ec565b5b60006200017f848285016200013f565b91505092915050565b600082825260208201905092915050565b7f6f776e61626c65653a207a65726f206164647265737300000000000000000000600082015250565b6000620001d160168362000188565b9150620001de8262000199565b602082019050919050565b600060208201905081810360008301526200020481620001c2565b9050919050565b6080516198bc6200023c60003960008181611e4d015281816151730152818161575901526157ec01526198bc6000f3fe608060405234801561001057600080fd5b50600436106101cf5760003560e01c80638128b65a11610104578063c97005bc116100a2578063e9175c8711610071578063e9175c87146105b7578063eea14a15146105e7578063f3ca60a114610603578063f8c8765e1461061f576101cf565b8063c97005bc1461050b578063d0d8f5881461053b578063da081df014610557578063e6a2566c14610587576101cf565b8063b7a650f7116100de578063b7a650f714610473578063b8ae13a9146104a3578063c0ade66d146104bf578063c41daa3c146104ef576101cf565b80638128b65a14610408578063846ab18e14610424578063a1be761614610440576101cf565b80634935de33116101715780635cdf86eb1161014b5780635cdf86eb146103565780636ae582b5146103895780636c908b70146103bc5780637db6938a146103d8576101cf565b80634935de33146102d45780634e4274fd14610307578063561991fe1461033a576101cf565b80632f087c7b116101ad5780632f087c7b1461025057806337b1dd281461028057806344c51b851461029c57806344e034cc146102b8576101cf565b80630313ccaa146101d45780630e6e6272146102045780632e0f1f5514610220575b600080fd5b6101ee60048036038101906101e99190616e6e565b61063b565b6040516101fb9190616ec9565b60405180910390f35b61021e60048036038101906102199190616ee4565b61066a565b005b61023a60048036038101906102359190616f24565b610686565b6040516102479190616f60565b60405180910390f35b61026a60048036038101906102659190616e6e565b61069e565b6040516102779190616ec9565b60405180910390f35b61029a60048036038101906102959190616fa7565b6106cd565b005b6102b660048036038101906102b19190616ee4565b610b43565b005b6102d260048036038101906102cd9190616ee4565b611357565b005b6102ee60048036038101906102e99190616ee4565b61198b565b6040516102fe9493929190616fe7565b60405180910390f35b610321600480360381019061031c919061702c565b6119c8565b6040516103319493929190616fe7565b60405180910390f35b610354600480360381019061034f919061702c565b6119f8565b005b610370600480360381019061036b919061702c565b611fc7565b6040516103809493929190616fe7565b60405180910390f35b6103a3600480360381019061039e919061702c565b611ff7565b6040516103b39493929190616fe7565b60405180910390f35b6103d660048036038101906103d1919061702c565b612027565b005b6103f260048036038101906103ed919061702c565b61265f565b6040516103ff9190616f60565b60405180910390f35b610422600480360381019061041d919061702c565b612677565b005b61043e60048036038101906104399190616ee4565b612d91565b005b61045a6004803603810190610455919061702c565b6135a5565b60405161046a9493929190616fe7565b60405180910390f35b61048d60048036038101906104889190616e6e565b6135d5565b60405161049a9190616ec9565b60405180910390f35b6104bd60048036038101906104b891906170be565b613604565b005b6104d960048036038101906104d4919061713f565b6137ea565b6040516104e69190616ec9565b60405180910390f35b6105096004803603810190610504919061717f565b613956565b005b61052560048036038101906105209190616f24565b6140be565b6040516105329190616f60565b60405180910390f35b610555600480360381019061055091906171d2565b6140d6565b005b610571600480360381019061056c9190616f24565b61425b565b60405161057e9190616f60565b60405180910390f35b6105a1600480360381019061059c9190616e6e565b6142a4565b6040516105ae9190616ec9565b60405180910390f35b6105d160048036038101906105cc919061721f565b6142d3565b6040516105de9190616ec9565b60405180910390f35b61060160048036038101906105fc9190616ee4565b61430f565b005b61061d6004803603810190610618919061702c565b614a57565b005b61063960048036038101906106349190617272565b615171565b005b60086020528160005260406000206020528060005260406000206000915091509054906101000a900460ff1681565b8060136000848152602001908152602001600020819055505050565b600f6020528060005260406000206000915090505481565b600a6020528160005260406000206020528060005260406000206000915091509054906101000a900460ff1681565b6000600260009054906101000a900473ffffffffffffffffffffffffffffffffffffffff1673ffffffffffffffffffffffffffffffffffffffff16630c2eb403336040518263ffffffff1660e01b815260040161072a91906172e8565b602060405180830381865afa158015610747573d6000803e3d6000fd5b505050506040513d601f19601f8201168201806040525081019061076b9190617318565b036107ab576040517f08c379a00000000000000000000000000000000000000000000000000000000081526004016107a2906173a2565b60405180910390fd5b6107b36155fa565b6000806000600360009054906101000a900473ffffffffffffffffffffffffffffffffffffffff1673ffffffffffffffffffffffffffffffffffffffff1663a3b135618660016040518363ffffffff1660e01b8152600401610816929190617407565b60c060405180830381865afa158015610833573d6000803e3d6000fd5b505050506040513d601f19601f82011682018060405250810190610857919061746a565b95505094505093505060016005811115610874576108736174f7565b5b816005811115610887576108866174f7565b5b146108c7576040517f08c379a00000000000000000000000000000000000000000000000000000000081526004016108be90617572565b60405180910390fd5b610961600360009054906101000a900473ffffffffffffffffffffffffffffffffffffffff1673ffffffffffffffffffffffffffffffffffffffff16630b63a6e16040518163ffffffff1660e01b8152600401602060405180830381865afa158015610937573d6000803e3d6000fd5b505050506040513d601f19601f8201168201806040525081019061095b9190617318565b84615649565b6109a0576040517f08c379a0000000000000000000000000000000000000000000000000000000008152600401610997906175de565b60405180910390fd5b83156109f2576109ae6156b3565b6109ed576040517f08c379a00000000000000000000000000000000000000000000000000000000081526004016109e49061764a565b60405180910390fd5b610a3c565b6109fc85336137ea565b610a3b576040517f08c379a0000000000000000000000000000000000000000000000000000000008152600401610a32906176b6565b60405180910390fd5b5b600360009054906101000a900473ffffffffffffffffffffffffffffffffffffffff1673ffffffffffffffffffffffffffffffffffffffff1663f8a149cc86600160006040518463ffffffff1660e01b8152600401610a9d93929190617711565b600060405180830381600087803b158015610ab757600080fd5b505af1158015610acb573d6000803e3d6000fd5b505050508173ffffffffffffffffffffffffffffffffffffffff163373ffffffffffffffffffffffffffffffffffffffff167f0a429b39c4274e902010ad53a1edd207c243380229c67583c5383c62f2a449b787604051610b2c9190616f60565b60405180910390a3505050610b3f615b93565b5050565b6000600260009054906101000a900473ffffffffffffffffffffffffffffffffffffffff1673ffffffffffffffffffffffffffffffffffffffff16630c2eb403336040518263ffffffff1660e01b8152600401610ba091906172e8565b602060405180830381865afa158015610bbd573d6000803e3d6000fd5b505050506040513d601f19601f82011682018060405250810190610be19190617318565b03610c21576040517f08c379a0000000000000000000000000000000000000000000000000000000008152600401610c18906173a2565b60405180910390fd5b610c296155fa565b600080600080600360009054906101000a900473ffffffffffffffffffffffffffffffffffffffff1673ffffffffffffffffffffffffffffffffffffffff1663a3b135618760026040518363ffffffff1660e01b8152600401610c8d929190617783565b60c060405180830381865afa158015610caa573d6000803e3d6000fd5b505050506040513d601f19601f82011682018060405250810190610cce919061746a565b509450945094505093506001600360009054906101000a900473ffffffffffffffffffffffffffffffffffffffff1673ffffffffffffffffffffffffffffffffffffffff166368477d586002856040518363ffffffff1660e01b8152600401610d389291906177ac565b602060405180830381865afa158015610d55573d6000803e3d6000fd5b505050506040513d601f19601f82011682018060405250810190610d799190617318565b14610db9576040517f08c379a0000000000000000000000000000000000000000000000000000000008152600401610db090617821565b60405180910390fd5b600860003373ffffffffffffffffffffffffffffffffffffffff1673ffffffffffffffffffffffffffffffffffffffff168152602001908152602001600020600087815260200190815260200160002060009054906101000a900460ff1615610e57576040517f08c379a0000000000000000000000000000000000000000000000000000000008152600401610e4e9061788d565b60405180910390fd5b6001851480610e665750600285145b610ea5576040517f08c379a0000000000000000000000000000000000000000000000000000000008152600401610e9c906178f9565b60405180910390fd5b8073ffffffffffffffffffffffffffffffffffffffff163373ffffffffffffffffffffffffffffffffffffffff1603610f13576040517f08c379a0000000000000000000000000000000000000000000000000000000008152600401610f0a90617965565b60405180910390fd5b60008403610f56576040517f08c379a0000000000000000000000000000000000000000000000000000000008152600401610f4d906179d1565b60405180910390fd5b610ff0600360009054906101000a900473ffffffffffffffffffffffffffffffffffffffff1673ffffffffffffffffffffffffffffffffffffffff1663da18716f6040518163ffffffff1660e01b8152600401602060405180830381865afa158015610fc6573d6000803e3d6000fd5b505050506040513d601f19601f82011682018060405250810190610fea9190617318565b85615649565b61102f576040517f08c379a000000000000000000000000000000000000000000000000000000000815260040161102690617a3d565b60405180910390fd5b6000600260009054906101000a900473ffffffffffffffffffffffffffffffffffffffff1673ffffffffffffffffffffffffffffffffffffffff16630c2eb403336040518263ffffffff1660e01b815260040161108c91906172e8565b602060405180830381865afa1580156110a9573d6000803e3d6000fd5b505050506040513d601f19601f820116820180604052508101906110cd9190617318565b905060006007600089815260200190815260200160002090506001870361112857818160000160008282546111029190617a8c565b9250508190555080600201600081548092919061111e90617ac0565b919050555061115e565b8181600101600082825461113c9190617a8c565b9250508190555080600301600081548092919061115890617ac0565b91905055505b6001601060003373ffffffffffffffffffffffffffffffffffffffff1673ffffffffffffffffffffffffffffffffffffffff16815260200190815260200160002060008282546111ae9190617a8c565b925050819055506001600860003373ffffffffffffffffffffffffffffffffffffffff1673ffffffffffffffffffffffffffffffffffffffff16815260200190815260200160002060008a815260200190815260200160002060006101000a81548160ff02191690831515021790555042601260003373ffffffffffffffffffffffffffffffffffffffff1673ffffffffffffffffffffffffffffffffffffffff16815260200190815260200160002081905550600260009054906101000a900473ffffffffffffffffffffffffffffffffffffffff1673ffffffffffffffffffffffffffffffffffffffff1663c30709613342886040518463ffffffff1660e01b81526004016112c193929190617b08565b600060405180830381600087803b1580156112db57600080fd5b505af11580156112ef573d6000803e3d6000fd5b505050503373ffffffffffffffffffffffffffffffffffffffff167f61b66831f9f34605400d74fba4f3717b5086de08b4dc9d55342286ccc8f5b82785898b60405161133d93929190617b08565b60405180910390a2505050505050611353615b93565b5050565b6000600260009054906101000a900473ffffffffffffffffffffffffffffffffffffffff1673ffffffffffffffffffffffffffffffffffffffff16630c2eb403336040518263ffffffff1660e01b81526004016113b491906172e8565b602060405180830381865afa1580156113d1573d6000803e3d6000fd5b505050506040513d601f19601f820116820180604052508101906113f59190617318565b03611435576040517f08c379a000000000000000000000000000000000000000000000000000000000815260040161142c906173a2565b60405180910390fd5b61143d6155fa565b6000806000600360009054906101000a900473ffffffffffffffffffffffffffffffffffffffff1673ffffffffffffffffffffffffffffffffffffffff1663a6be63be86866040518363ffffffff1660e01b815260040161149f929190617b3f565b60c060405180830381865afa1580156114bc573d6000803e3d6000fd5b505050506040513d601f19601f820116820180604052508101906114e09190617b68565b505093505092509250611583600360009054906101000a900473ffffffffffffffffffffffffffffffffffffffff1673ffffffffffffffffffffffffffffffffffffffff1663999a4fc46040518163ffffffff1660e01b8152600401602060405180830381865afa158015611559573d6000803e3d6000fd5b505050506040513d601f19601f8201168201806040525081019061157d9190617318565b84615649565b156115c3576040517f08c379a00000000000000000000000000000000000000000000000000000000081526004016115ba90617c41565b60405180910390fd5b60008214611606576040517f08c379a00000000000000000000000000000000000000000000000000000000081526004016115fd90617cad565b60405180910390fd5b600080600d6000878152602001908152602001600020600088815260200190815260200160002060405180608001604052908160008201548152602001600182015481526020016002820154815260200160038201548152505090506000816060015182604001516116789190617a8c565b9050600260009054906101000a900473ffffffffffffffffffffffffffffffffffffffff1673ffffffffffffffffffffffffffffffffffffffff1663f6d5b2146040518163ffffffff1660e01b8152600401602060405180830381865afa1580156116e7573d6000803e3d6000fd5b505050506040513d601f19601f8201168201806040525081019061170b9190617318565b8110158015611721575081602001518260000151115b156117e957600360009054906101000a900473ffffffffffffffffffffffffffffffffffffffff1673ffffffffffffffffffffffffffffffffffffffff16631d00c7fa898960016040518463ffffffff1660e01b815260040161178693929190617ccd565b600060405180830381600087803b1580156117a057600080fd5b505af11580156117b4573d6000803e3d6000fd5b505050506001601160006005815260200190815260200160002060008282546117dd9190617a8c565b9250508190555061193b565b600360009054906101000a900473ffffffffffffffffffffffffffffffffffffffff1673ffffffffffffffffffffffffffffffffffffffff16631d00c7fa898960006040518463ffffffff1660e01b815260040161184993929190617d04565b600060405180830381600087803b15801561186357600080fd5b505af1158015611877573d6000803e3d6000fd5b50505050600260009054906101000a900473ffffffffffffffffffffffffffffffffffffffff1673ffffffffffffffffffffffffffffffffffffffff1663f6d5b2146040518163ffffffff1660e01b8152600401602060405180830381865afa1580156118e8573d6000803e3d6000fd5b505050506040513d601f19601f8201168201806040525081019061190c9190617318565b81101561191c576001925061193a565b81602001518260000151116119345760029250611939565b600a92505b5b5b867ff1d46a2f873208d941b57481de76afd8ea911db5066b374b401bd77c8cf9ff9b8533868c6040516119719493929190617d3b565b60405180910390a2505050505050611987615b93565b5050565b600d602052816000526040600020602052806000526040600020600091509150508060000154908060010154908060020154908060030154905084565b600b6020528060005260406000206000915090508060000154908060010154908060020154908060030154905084565b6000600260009054906101000a900473ffffffffffffffffffffffffffffffffffffffff1673ffffffffffffffffffffffffffffffffffffffff16630c2eb403336040518263ffffffff1660e01b8152600401611a5591906172e8565b602060405180830381865afa158015611a72573d6000803e3d6000fd5b505050506040513d601f19601f82011682018060405250810190611a969190617318565b03611ad6576040517f08c379a0000000000000000000000000000000000000000000000000000000008152600401611acd906173a2565b60405180910390fd5b611ade6155fa565b6000806000600360009054906101000a900473ffffffffffffffffffffffffffffffffffffffff1673ffffffffffffffffffffffffffffffffffffffff1663a3b135618560016040518363ffffffff1660e01b8152600401611b41929190617407565b60c060405180830381865afa158015611b5e573d6000803e3d6000fd5b505050506040513d601f19601f82011682018060405250810190611b82919061746a565b95505094505093505060016005811115611b9f57611b9e6174f7565b5b816005811115611bb257611bb16174f7565b5b14611bf2576040517f08c379a0000000000000000000000000000000000000000000000000000000008152600401611be990617dcc565b60405180910390fd5b611c8c600360009054906101000a900473ffffffffffffffffffffffffffffffffffffffff1673ffffffffffffffffffffffffffffffffffffffff16630b63a6e16040518163ffffffff1660e01b8152600401602060405180830381865afa158015611c62573d6000803e3d6000fd5b505050506040513d601f19601f82011682018060405250810190611c869190617318565b84615649565b15611ccc576040517f08c379a0000000000000000000000000000000000000000000000000000000008152600401611cc390617e38565b60405180910390fd5b6000600b60008681526020019081526020016000206040518060800160405290816000820154815260200160018201548152602001600282015481526020016003820154815250509050600081606001518260400151611d2c9190617a8c565b9050600260009054906101000a900473ffffffffffffffffffffffffffffffffffffffff1673ffffffffffffffffffffffffffffffffffffffff1663f6d5b2146040518163ffffffff1660e01b8152600401602060405180830381865afa158015611d9b573d6000803e3d6000fd5b505050506040513d601f19601f82011682018060405250810190611dbf9190617318565b811015611e01576040517f08c379a0000000000000000000000000000000000000000000000000000000008152600401611df890617ea4565b60405180910390fd5b8160200151826000015111611e4b576040517f08c379a0000000000000000000000000000000000000000000000000000000008152600401611e4290617f10565b60405180910390fd5b7f000000000000000000000000000000000000000000000000000000000000000073ffffffffffffffffffffffffffffffffffffffff16632c237954856040518263ffffffff1660e01b8152600401611ea491906172e8565b600060405180830381600087803b158015611ebe57600080fd5b505af1158015611ed2573d6000803e3d6000fd5b50505050600360009054906101000a900473ffffffffffffffffffffffffffffffffffffffff1673ffffffffffffffffffffffffffffffffffffffff1663f8a149cc87600160056040518463ffffffff1660e01b8152600401611f3793929190617f6b565b600060405180830381600087803b158015611f5157600080fd5b505af1158015611f65573d6000803e3d6000fd5b505050508373ffffffffffffffffffffffffffffffffffffffff167f5b3f2b832f17ea2c0876d7218598e568adb83a8534430b480f0af09d93f7133533604051611faf91906172e8565b60405180910390a25050505050611fc4615b93565b50565b60096020528060005260406000206000915090508060000154908060010154908060020154908060030154905084565b60056020528060005260406000206000915090508060000154908060010154908060020154908060030154905084565b6000600260009054906101000a900473ffffffffffffffffffffffffffffffffffffffff1673ffffffffffffffffffffffffffffffffffffffff16630c2eb403336040518263ffffffff1660e01b815260040161208491906172e8565b602060405180830381865afa1580156120a1573d6000803e3d6000fd5b505050506040513d601f19601f820116820180604052508101906120c59190617318565b03612105576040517f08c379a00000000000000000000000000000000000000000000000000000000081526004016120fc906173a2565b60405180910390fd5b61210d6155fa565b6000806000600360009054906101000a900473ffffffffffffffffffffffffffffffffffffffff1673ffffffffffffffffffffffffffffffffffffffff1663a3b135618560016040518363ffffffff1660e01b8152600401612170929190617407565b60c060405180830381865afa15801561218d573d6000803e3d6000fd5b505050506040513d601f19601f820116820180604052508101906121b1919061746a565b505093505092509250612254600360009054906101000a900473ffffffffffffffffffffffffffffffffffffffff1673ffffffffffffffffffffffffffffffffffffffff1663d56b58746040518163ffffffff1660e01b8152600401602060405180830381865afa15801561222a573d6000803e3d6000fd5b505050506040513d601f19601f8201168201806040525081019061224e9190617318565b84615649565b15612294576040517f08c379a000000000000000000000000000000000000000000000000000000000815260040161228b90617fee565b60405180910390fd5b600082146122d7576040517f08c379a00000000000000000000000000000000000000000000000000000000081526004016122ce9061805a565b60405180910390fd5b6000600b60008681526020019081526020016000206040518060800160405290816000820154815260200160018201548152602001600282015481526020016003820154815250509050600080826060015183604001516123389190617a8c565b9050600260009054906101000a900473ffffffffffffffffffffffffffffffffffffffff1673ffffffffffffffffffffffffffffffffffffffff1663f6d5b2146040518163ffffffff1660e01b8152600401602060405180830381865afa1580156123a7573d6000803e3d6000fd5b505050506040513d601f19601f820116820180604052508101906123cb9190617318565b81101580156123e1575082602001518360000151115b156124a957600360009054906101000a900473ffffffffffffffffffffffffffffffffffffffff1673ffffffffffffffffffffffffffffffffffffffff1663f8a149cc886001806040518463ffffffff1660e01b81526004016124469392919061807a565b600060405180830381600087803b15801561246057600080fd5b505af1158015612474573d6000803e3d6000fd5b5050505060016011600060018152602001908152602001600020600082825461249d9190617a8c565b925050819055506125fc565b600360009054906101000a900473ffffffffffffffffffffffffffffffffffffffff1673ffffffffffffffffffffffffffffffffffffffff1663f8a149cc88600160006040518463ffffffff1660e01b815260040161250a93929190617711565b600060405180830381600087803b15801561252457600080fd5b505af1158015612538573d6000803e3d6000fd5b50505050600260009054906101000a900473ffffffffffffffffffffffffffffffffffffffff1673ffffffffffffffffffffffffffffffffffffffff1663f6d5b2146040518163ffffffff1660e01b8152600401602060405180830381865afa1580156125a9573d6000803e3d6000fd5b505050506040513d601f19601f820116820180604052508101906125cd9190617318565b8110156125dd57600191506125fb565b82602001518360000151116125f557600291506125fa565b600a91505b5b5b8373ffffffffffffffffffffffffffffffffffffffff167fa78180eebda63b0ecd24688fe441195492dd66f217cca9656f6f11f401d90d6d33848a60405161264693929190617b08565b60405180910390a250505050505061265c615b93565b50565b60116020528060005260406000206000915090505481565b6000600260009054906101000a900473ffffffffffffffffffffffffffffffffffffffff1673ffffffffffffffffffffffffffffffffffffffff16630c2eb403336040518263ffffffff1660e01b81526004016126d491906172e8565b602060405180830381865afa1580156126f1573d6000803e3d6000fd5b505050506040513d601f19601f820116820180604052508101906127159190617318565b03612755576040517f08c379a000000000000000000000000000000000000000000000000000000000815260040161274c906173a2565b60405180910390fd5b61275d6155fa565b6000806000600360009054906101000a900473ffffffffffffffffffffffffffffffffffffffff1673ffffffffffffffffffffffffffffffffffffffff1663a3b135618560026040518363ffffffff1660e01b81526004016127c0929190617783565b60c060405180830381865afa1580156127dd573d6000803e3d6000fd5b505050506040513d601f19601f82011682018060405250810190612801919061746a565b5050935050925092506001600360009054906101000a900473ffffffffffffffffffffffffffffffffffffffff1673ffffffffffffffffffffffffffffffffffffffff166368477d586002846040518363ffffffff1660e01b815260040161286a9291906177ac565b602060405180830381865afa158015612887573d6000803e3d6000fd5b505050506040513d601f19601f820116820180604052508101906128ab9190617318565b146128eb576040517f08c379a00000000000000000000000000000000000000000000000000000000081526004016128e2906180fd565b60405180910390fd5b612985600360009054906101000a900473ffffffffffffffffffffffffffffffffffffffff1673ffffffffffffffffffffffffffffffffffffffff1663da18716f6040518163ffffffff1660e01b8152600401602060405180830381865afa15801561295b573d6000803e3d6000fd5b505050506040513d601f19601f8201168201806040525081019061297f9190617318565b84615649565b156129c5576040517f08c379a00000000000000000000000000000000000000000000000000000000081526004016129bc90618169565b60405180910390fd5b60008214612a08576040517f08c379a00000000000000000000000000000000000000000000000000000000081526004016129ff906181d5565b60405180910390fd5b600080600760008781526020019081526020016000206040518060800160405290816000820154815260200160018201548152602001600282015481526020016003820154815250509050600081606001518260400151612a699190617a8c565b9050600260009054906101000a900473ffffffffffffffffffffffffffffffffffffffff1673ffffffffffffffffffffffffffffffffffffffff1663f6d5b2146040518163ffffffff1660e01b8152600401602060405180830381865afa158015612ad8573d6000803e3d6000fd5b505050506040513d601f19601f82011682018060405250810190612afc9190617318565b8110158015612b12575081602001518260000151115b15612bdb57600360009054906101000a900473ffffffffffffffffffffffffffffffffffffffff1673ffffffffffffffffffffffffffffffffffffffff1663f8a149cc88600260016040518463ffffffff1660e01b8152600401612b78939291906181f5565b600060405180830381600087803b158015612b9257600080fd5b505af1158015612ba6573d6000803e3d6000fd5b50505050600160116000600381526020019081526020016000206000828254612bcf9190617a8c565b92505081905550612d2e565b600360009054906101000a900473ffffffffffffffffffffffffffffffffffffffff1673ffffffffffffffffffffffffffffffffffffffff1663f8a149cc88600260006040518463ffffffff1660e01b8152600401612c3c9392919061822c565b600060405180830381600087803b158015612c5657600080fd5b505af1158015612c6a573d6000803e3d6000fd5b50505050600260009054906101000a900473ffffffffffffffffffffffffffffffffffffffff1673ffffffffffffffffffffffffffffffffffffffff1663f6d5b2146040518163ffffffff1660e01b8152600401602060405180830381865afa158015612cdb573d6000803e3d6000fd5b505050506040513d601f19601f82011682018060405250810190612cff9190617318565b811015612d0f5760019250612d2d565b8160200151826000015111612d275760029250612d2c565b600a92505b5b5b8373ffffffffffffffffffffffffffffffffffffffff167f73f0029a3254b75e84e344e18171e857cdc5687ce4d0b36ffa5e33804c65969333858a604051612d7893929190617b08565b60405180910390a2505050505050612d8e615b93565b50565b6000600260009054906101000a900473ffffffffffffffffffffffffffffffffffffffff1673ffffffffffffffffffffffffffffffffffffffff16630c2eb403336040518263ffffffff1660e01b8152600401612dee91906172e8565b602060405180830381865afa158015612e0b573d6000803e3d6000fd5b505050506040513d601f19601f82011682018060405250810190612e2f9190617318565b03612e6f576040517f08c379a0000000000000000000000000000000000000000000000000000000008152600401612e66906173a2565b60405180910390fd5b612e776155fa565b600080600080600360009054906101000a900473ffffffffffffffffffffffffffffffffffffffff1673ffffffffffffffffffffffffffffffffffffffff1663a3b135618760036040518363ffffffff1660e01b8152600401612edb92919061829e565b60c060405180830381865afa158015612ef8573d6000803e3d6000fd5b505050506040513d601f19601f82011682018060405250810190612f1c919061746a565b509450945094505093506001600360009054906101000a900473ffffffffffffffffffffffffffffffffffffffff1673ffffffffffffffffffffffffffffffffffffffff166368477d586003856040518363ffffffff1660e01b8152600401612f869291906182c7565b602060405180830381865afa158015612fa3573d6000803e3d6000fd5b505050506040513d601f19601f82011682018060405250810190612fc79190617318565b14613007576040517f08c379a0000000000000000000000000000000000000000000000000000000008152600401612ffe9061833c565b60405180910390fd5b600a60003373ffffffffffffffffffffffffffffffffffffffff1673ffffffffffffffffffffffffffffffffffffffff168152602001908152602001600020600087815260200190815260200160002060009054906101000a900460ff16156130a5576040517f08c379a000000000000000000000000000000000000000000000000000000000815260040161309c906183a8565b60405180910390fd5b60018514806130b45750600285145b6130f3576040517f08c379a00000000000000000000000000000000000000000000000000000000081526004016130ea90618414565b60405180910390fd5b8073ffffffffffffffffffffffffffffffffffffffff163373ffffffffffffffffffffffffffffffffffffffff1603613161576040517f08c379a000000000000000000000000000000000000000000000000000000000815260040161315890618480565b60405180910390fd5b600084036131a4576040517f08c379a000000000000000000000000000000000000000000000000000000000815260040161319b906184ec565b60405180910390fd5b61323e600360009054906101000a900473ffffffffffffffffffffffffffffffffffffffff1673ffffffffffffffffffffffffffffffffffffffff1663f2a3b3436040518163ffffffff1660e01b8152600401602060405180830381865afa158015613214573d6000803e3d6000fd5b505050506040513d601f19601f820116820180604052508101906132389190617318565b85615649565b61327d576040517f08c379a000000000000000000000000000000000000000000000000000000000815260040161327490618558565b60405180910390fd5b6000600260009054906101000a900473ffffffffffffffffffffffffffffffffffffffff1673ffffffffffffffffffffffffffffffffffffffff16630c2eb403336040518263ffffffff1660e01b81526004016132da91906172e8565b602060405180830381865afa1580156132f7573d6000803e3d6000fd5b505050506040513d601f19601f8201168201806040525081019061331b9190617318565b905060006009600089815260200190815260200160002090506001870361337657818160000160008282546133509190617a8c565b9250508190555080600201600081548092919061336c90617ac0565b91905055506133ac565b8181600101600082825461338a9190617a8c565b925050819055508060030160008154809291906133a690617ac0565b91905055505b6001601060003373ffffffffffffffffffffffffffffffffffffffff1673ffffffffffffffffffffffffffffffffffffffff16815260200190815260200160002060008282546133fc9190617a8c565b925050819055506001600a60003373ffffffffffffffffffffffffffffffffffffffff1673ffffffffffffffffffffffffffffffffffffffff16815260200190815260200160002060008a815260200190815260200160002060006101000a81548160ff02191690831515021790555042601260003373ffffffffffffffffffffffffffffffffffffffff1673ffffffffffffffffffffffffffffffffffffffff16815260200190815260200160002081905550600260009054906101000a900473ffffffffffffffffffffffffffffffffffffffff1673ffffffffffffffffffffffffffffffffffffffff1663c30709613342886040518463ffffffff1660e01b815260040161350f93929190617b08565b600060405180830381600087803b15801561352957600080fd5b505af115801561353d573d6000803e3d6000fd5b505050503373ffffffffffffffffffffffffffffffffffffffff167fd82a8fed45cd83aa0fe837e2810cd2f8bb0d4ff2b88c4d2c01f09a6afcb7fb3285898b60405161358b93929190617b08565b60405180910390a25050505050506135a1615b93565b5050565b60076020528060005260406000206000915090508060000154908060010154908060020154908060030154905084565b60066020528160005260406000206020528060005260406000206000915091509054906101000a900460ff1681565b6000600260009054906101000a900473ffffffffffffffffffffffffffffffffffffffff1673ffffffffffffffffffffffffffffffffffffffff16630c2eb403336040518263ffffffff1660e01b815260040161366191906172e8565b602060405180830381865afa15801561367e573d6000803e3d6000fd5b505050506040513d601f19601f820116820180604052508101906136a29190617318565b036136e2576040517f08c379a00000000000000000000000000000000000000000000000000000000081526004016136d9906173a2565b60405180910390fd5b6136ea6155fa565b60008484905090506000811415801561370457506103e881105b613743576040517f08c379a000000000000000000000000000000000000000000000000000000000815260040161373a906185c4565b60405180910390fd5b828290508114613788576040517f08c379a000000000000000000000000000000000000000000000000000000000815260040161377f90618630565b60405180910390fd5b60005b818110156137da576137cf8686838181106137a9576137a8618650565b5b905060200201358585848181106137c3576137c2618650565b5b90506020020135615b9d565b80600101905061378b565b50506137e4615b93565b50505050565b600080600260009054906101000a900473ffffffffffffffffffffffffffffffffffffffff1673ffffffffffffffffffffffffffffffffffffffff16630c2eb403846040518263ffffffff1660e01b815260040161384891906172e8565b602060405180830381865afa158015613865573d6000803e3d6000fd5b505050506040513d601f19601f820116820180604052508101906138899190617318565b90506000600360009054906101000a900473ffffffffffffffffffffffffffffffffffffffff1673ffffffffffffffffffffffffffffffffffffffff1663a0658cef866040518263ffffffff1660e01b81526004016138e89190616f60565b602060405180830381865afa158015613905573d6000803e3d6000fd5b505050506040513d601f19601f820116820180604052508101906139299190617318565b9050806002613938919061867f565b821061394957600192505050613950565b6000925050505b92915050565b6000600260009054906101000a900473ffffffffffffffffffffffffffffffffffffffff1673ffffffffffffffffffffffffffffffffffffffff16630c2eb403336040518263ffffffff1660e01b81526004016139b391906172e8565b602060405180830381865afa1580156139d0573d6000803e3d6000fd5b505050506040513d601f19601f820116820180604052508101906139f49190617318565b03613a34576040517f08c379a0000000000000000000000000000000000000000000000000000000008152600401613a2b906173a2565b60405180910390fd5b613a3c6155fa565b600080600080600360009054906101000a900473ffffffffffffffffffffffffffffffffffffffff1673ffffffffffffffffffffffffffffffffffffffff1663a6be63be87876040518363ffffffff1660e01b8152600401613a9f929190617b3f565b60c060405180830381865afa158015613abc573d6000803e3d6000fd5b505050506040513d601f19601f82011682018060405250810190613ae09190617b68565b50945094509450509350600e600086815260200190815260200160002060003373ffffffffffffffffffffffffffffffffffffffff1673ffffffffffffffffffffffffffffffffffffffff168152602001908152602001600020600087815260200190815260200160002060009054906101000a900460ff1615613b99576040517f08c379a0000000000000000000000000000000000000000000000000000000008152600401613b909061870d565b60405180910390fd5b8073ffffffffffffffffffffffffffffffffffffffff163373ffffffffffffffffffffffffffffffffffffffff1603613c07576040517f08c379a0000000000000000000000000000000000000000000000000000000008152600401613bfe90618779565b60405180910390fd5b6001871480613c165750600287145b613c55576040517f08c379a0000000000000000000000000000000000000000000000000000000008152600401613c4c906187e5565b60405180910390fd5b60008403613c98576040517f08c379a0000000000000000000000000000000000000000000000000000000008152600401613c8f90618851565b60405180910390fd5b613d32600360009054906101000a900473ffffffffffffffffffffffffffffffffffffffff1673ffffffffffffffffffffffffffffffffffffffff1663999a4fc46040518163ffffffff1660e01b8152600401602060405180830381865afa158015613d08573d6000803e3d6000fd5b505050506040513d601f19601f82011682018060405250810190613d2c9190617318565b85615649565b613d71576040517f08c379a0000000000000000000000000000000000000000000000000000000008152600401613d68906188bd565b60405180910390fd5b6000600260009054906101000a900473ffffffffffffffffffffffffffffffffffffffff1673ffffffffffffffffffffffffffffffffffffffff16630c2eb403336040518263ffffffff1660e01b8152600401613dce91906172e8565b602060405180830381865afa158015613deb573d6000803e3d6000fd5b505050506040513d601f19601f82011682018060405250810190613e0f9190617318565b90506000600d60008881526020019081526020016000206000898152602001908152602001600020905060018903613e7b5781816000016000828254613e559190617a8c565b92505081905550806002016000815480929190613e7190617ac0565b9190505550613eb1565b81816001016000828254613e8f9190617a8c565b92505081905550806003016000815480929190613eab90617ac0565b91905055505b6001601060003373ffffffffffffffffffffffffffffffffffffffff1673ffffffffffffffffffffffffffffffffffffffff1681526020019081526020016000206000828254613f019190617a8c565b925050819055506001600e600089815260200190815260200160002060003373ffffffffffffffffffffffffffffffffffffffff1673ffffffffffffffffffffffffffffffffffffffff16815260200190815260200160002060008a815260200190815260200160002060006101000a81548160ff02191690831515021790555042601260003373ffffffffffffffffffffffffffffffffffffffff1673ffffffffffffffffffffffffffffffffffffffff16815260200190815260200160002081905550600260009054906101000a900473ffffffffffffffffffffffffffffffffffffffff1673ffffffffffffffffffffffffffffffffffffffff1663c30709613342886040518463ffffffff1660e01b815260040161402593929190617b08565b600060405180830381600087803b15801561403f57600080fd5b505af1158015614053573d6000803e3d6000fd5b505050503373ffffffffffffffffffffffffffffffffffffffff167f23a8e5475a06bf6010414551c4b157193e8768412d9c54702225918692e1eccf88868c8c6040516140a39493929190616fe7565b60405180910390a25050505050506140b9615b93565b505050565b60106020528060005260406000206000915090505481565b6000600260009054906101000a900473ffffffffffffffffffffffffffffffffffffffff1673ffffffffffffffffffffffffffffffffffffffff16630c2eb403336040518263ffffffff1660e01b815260040161413391906172e8565b602060405180830381865afa158015614150573d6000803e3d6000fd5b505050506040513d601f19601f820116820180604052508101906141749190617318565b036141b4576040517f08c379a00000000000000000000000000000000000000000000000000000000081526004016141ab906173a2565b60405180910390fd5b6141bc6155fa565b6000828290509050600081141580156141d657506103e881105b614215576040517f08c379a000000000000000000000000000000000000000000000000000000000815260040161420c90618929565b60405180910390fd5b60005b8181101561424d5761424284848381811061423657614235618650565b5b90506020020135616590565b806001019050614218565b5050614257615b93565b5050565b6000601260008373ffffffffffffffffffffffffffffffffffffffff1673ffffffffffffffffffffffffffffffffffffffff168152602001908152602001600020549050919050565b600c6020528160005260406000206020528060005260406000206000915091509054906101000a900460ff1681565b600e602052826000526040600020602052816000526040600020602052806000526040600020600092509250509054906101000a900460ff1681565b6000600260009054906101000a900473ffffffffffffffffffffffffffffffffffffffff1673ffffffffffffffffffffffffffffffffffffffff16630c2eb403336040518263ffffffff1660e01b815260040161436c91906172e8565b602060405180830381865afa158015614389573d6000803e3d6000fd5b505050506040513d601f19601f820116820180604052508101906143ad9190617318565b036143ed576040517f08c379a00000000000000000000000000000000000000000000000000000000081526004016143e4906173a2565b60405180910390fd5b6143f56155fa565b600080600080600360009054906101000a900473ffffffffffffffffffffffffffffffffffffffff1673ffffffffffffffffffffffffffffffffffffffff1663a3b135618660016040518363ffffffff1660e01b8152600401614459929190617407565b60c060405180830381865afa158015614476573d6000803e3d6000fd5b505050506040513d601f19601f8201168201806040525081019061449a919061746a565b5094509450945050935060018614806144b35750600286145b6144f2576040517f08c379a00000000000000000000000000000000000000000000000000000000081526004016144e990618995565b60405180910390fd5b60008403614535576040517f08c379a000000000000000000000000000000000000000000000000000000000815260040161452c90618a01565b60405180910390fd5b6000600b600087815260200190815260200160002090506000600260009054906101000a900473ffffffffffffffffffffffffffffffffffffffff1673ffffffffffffffffffffffffffffffffffffffff16630c2eb403336040518263ffffffff1660e01b81526004016145a991906172e8565b602060405180830381865afa1580156145c6573d6000803e3d6000fd5b505050506040513d601f19601f820116820180604052508101906145ea9190617318565b9050600c60003373ffffffffffffffffffffffffffffffffffffffff1673ffffffffffffffffffffffffffffffffffffffff168152602001908152602001600020600088815260200190815260200160002060009054906101000a900460ff161561468a576040517f08c379a000000000000000000000000000000000000000000000000000000000815260040161468190618a6d565b60405180910390fd5b8273ffffffffffffffffffffffffffffffffffffffff163373ffffffffffffffffffffffffffffffffffffffff16036146f8576040517f08c379a00000000000000000000000000000000000000000000000000000000081526004016146ef90618ad9565b60405180910390fd5b614792600360009054906101000a900473ffffffffffffffffffffffffffffffffffffffff1673ffffffffffffffffffffffffffffffffffffffff1663d56b58746040518163ffffffff1660e01b8152600401602060405180830381865afa158015614768573d6000803e3d6000fd5b505050506040513d601f19601f8201168201806040525081019061478c9190617318565b87615649565b6147d1576040517f08c379a00000000000000000000000000000000000000000000000000000000081526004016147c890618b45565b60405180910390fd5b6001880361481357808260000160008282546147ed9190617a8c565b9250508190555081600201600081548092919061480990617ac0565b9190505550614849565b808260010160008282546148279190617a8c565b9250508190555081600301600081548092919061484390617ac0565b91905055505b6001600c60003373ffffffffffffffffffffffffffffffffffffffff1673ffffffffffffffffffffffffffffffffffffffff168152602001908152602001600020600089815260200190815260200160002060006101000a81548160ff0219169083151502179055506001601060003373ffffffffffffffffffffffffffffffffffffffff1673ffffffffffffffffffffffffffffffffffffffff16815260200190815260200160002060008282546149029190617a8c565b9250508190555042601260003373ffffffffffffffffffffffffffffffffffffffff1673ffffffffffffffffffffffffffffffffffffffff16815260200190815260200160002081905550600260009054906101000a900473ffffffffffffffffffffffffffffffffffffffff1673ffffffffffffffffffffffffffffffffffffffff1663c30709613342886040518463ffffffff1660e01b81526004016149ac93929190617b08565b600060405180830381600087803b1580156149c657600080fd5b505af11580156149da573d6000803e3d6000fd5b505050508373ffffffffffffffffffffffffffffffffffffffff163373ffffffffffffffffffffffffffffffffffffffff167ffdd3c7f97277c74c4b6edbc92d8cc9990e5292c35691ab6d711934ce79d885d88a8a604051614a3d929190617b3f565b60405180910390a3505050505050614a53615b93565b5050565b6000600260009054906101000a900473ffffffffffffffffffffffffffffffffffffffff1673ffffffffffffffffffffffffffffffffffffffff16630c2eb403336040518263ffffffff1660e01b8152600401614ab491906172e8565b602060405180830381865afa158015614ad1573d6000803e3d6000fd5b505050506040513d601f19601f82011682018060405250810190614af59190617318565b03614b35576040517f08c379a0000000000000000000000000000000000000000000000000000000008152600401614b2c906173a2565b60405180910390fd5b614b3d6155fa565b6000806000600360009054906101000a900473ffffffffffffffffffffffffffffffffffffffff1673ffffffffffffffffffffffffffffffffffffffff1663a3b135618560036040518363ffffffff1660e01b8152600401614ba092919061829e565b60c060405180830381865afa158015614bbd573d6000803e3d6000fd5b505050506040513d601f19601f82011682018060405250810190614be1919061746a565b5050935050925092506001600360009054906101000a900473ffffffffffffffffffffffffffffffffffffffff1673ffffffffffffffffffffffffffffffffffffffff166368477d586003846040518363ffffffff1660e01b8152600401614c4a9291906182c7565b602060405180830381865afa158015614c67573d6000803e3d6000fd5b505050506040513d601f19601f82011682018060405250810190614c8b9190617318565b14614ccb576040517f08c379a0000000000000000000000000000000000000000000000000000000008152600401614cc290618bb1565b60405180910390fd5b614d65600360009054906101000a900473ffffffffffffffffffffffffffffffffffffffff1673ffffffffffffffffffffffffffffffffffffffff1663f2a3b3436040518163ffffffff1660e01b8152600401602060405180830381865afa158015614d3b573d6000803e3d6000fd5b505050506040513d601f19601f82011682018060405250810190614d5f9190617318565b84615649565b15614da5576040517f08c379a0000000000000000000000000000000000000000000000000000000008152600401614d9c90618c1d565b60405180910390fd5b60008214614de8576040517f08c379a0000000000000000000000000000000000000000000000000000000008152600401614ddf90618c89565b60405180910390fd5b600080600960008781526020019081526020016000206040518060800160405290816000820154815260200160018201548152602001600282015481526020016003820154815250509050600081606001518260400151614e499190617a8c565b9050600260009054906101000a900473ffffffffffffffffffffffffffffffffffffffff1673ffffffffffffffffffffffffffffffffffffffff1663f6d5b2146040518163ffffffff1660e01b8152600401602060405180830381865afa158015614eb8573d6000803e3d6000fd5b505050506040513d601f19601f82011682018060405250810190614edc9190617318565b8110158015614ef2575081602001518260000151115b15614fbb57600360009054906101000a900473ffffffffffffffffffffffffffffffffffffffff1673ffffffffffffffffffffffffffffffffffffffff1663f8a149cc88600360016040518463ffffffff1660e01b8152600401614f5893929190618ca9565b600060405180830381600087803b158015614f7257600080fd5b505af1158015614f86573d6000803e3d6000fd5b50505050600160116000600481526020019081526020016000206000828254614faf9190617a8c565b9250508190555061510e565b600360009054906101000a900473ffffffffffffffffffffffffffffffffffffffff1673ffffffffffffffffffffffffffffffffffffffff1663f8a149cc88600360006040518463ffffffff1660e01b815260040161501c93929190618ce0565b600060405180830381600087803b15801561503657600080fd5b505af115801561504a573d6000803e3d6000fd5b50505050600260009054906101000a900473ffffffffffffffffffffffffffffffffffffffff1673ffffffffffffffffffffffffffffffffffffffff1663f6d5b2146040518163ffffffff1660e01b8152600401602060405180830381865afa1580156150bb573d6000803e3d6000fd5b505050506040513d601f19601f820116820180604052508101906150df9190617318565b8110156150ef576001925061510d565b8160200151826000015111615107576002925061510c565b600a92505b5b5b8373ffffffffffffffffffffffffffffffffffffffff167f5e239e27aac57e5e17f8c8e47e011579df94f3e0b7d80522e5f2780687a93ba333858a60405161515893929190617b08565b60405180910390a250505050505061516e615b93565b50565b7f000000000000000000000000000000000000000000000000000000000000000073ffffffffffffffffffffffffffffffffffffffff1663d5f394886040518163ffffffff1660e01b8152600401602060405180830381865afa1580156151dc573d6000803e3d6000fd5b505050506040513d601f19601f820116820180604052508101906152009190618d17565b73ffffffffffffffffffffffffffffffffffffffff163373ffffffffffffffffffffffffffffffffffffffff161461526d576040517f08c379a000000000000000000000000000000000000000000000000000000000815260040161526490618d90565b60405180910390fd5b600073ffffffffffffffffffffffffffffffffffffffff16600160009054906101000a900473ffffffffffffffffffffffffffffffffffffffff1673ffffffffffffffffffffffffffffffffffffffff16146152fe576040517f08c379a00000000000000000000000000000000000000000000000000000000081526004016152f590618dfc565b60405180910390fd5b600073ffffffffffffffffffffffffffffffffffffffff168473ffffffffffffffffffffffffffffffffffffffff1614158015615340575061533f84616a9c565b5b61537f576040517f08c379a000000000000000000000000000000000000000000000000000000000815260040161537690618e68565b60405180910390fd5b83600160006101000a81548173ffffffffffffffffffffffffffffffffffffffff021916908373ffffffffffffffffffffffffffffffffffffffff160217905550600073ffffffffffffffffffffffffffffffffffffffff168373ffffffffffffffffffffffffffffffffffffffff1614158015615402575061540183616a9c565b5b615441576040517f08c379a000000000000000000000000000000000000000000000000000000000815260040161543890618ed4565b60405180910390fd5b82600260006101000a81548173ffffffffffffffffffffffffffffffffffffffff021916908373ffffffffffffffffffffffffffffffffffffffff160217905550600073ffffffffffffffffffffffffffffffffffffffff168273ffffffffffffffffffffffffffffffffffffffff16141580156154c457506154c382616a9c565b5b615503576040517f08c379a00000000000000000000000000000000000000000000000000000000081526004016154fa90618f40565b60405180910390fd5b81600360006101000a81548173ffffffffffffffffffffffffffffffffffffffff021916908373ffffffffffffffffffffffffffffffffffffffff160217905550600073ffffffffffffffffffffffffffffffffffffffff168173ffffffffffffffffffffffffffffffffffffffff16036155b3576040517f08c379a00000000000000000000000000000000000000000000000000000000081526004016155aa90618fac565b60405180910390fd5b80600460006101000a81548173ffffffffffffffffffffffffffffffffffffffff021916908373ffffffffffffffffffffffffffffffffffffffff16021790555050505050565b60026000540361563f576040517f08c379a000000000000000000000000000000000000000000000000000000000815260040161563690619018565b60405180910390fd5b6002600081905550565b600080820361568d576040517f08c379a000000000000000000000000000000000000000000000000000000000815260040161568490619084565b60405180910390fd5b814261569991906190a4565b83106156a857600190506156ad565b600090505b92915050565b600080600360009054906101000a900473ffffffffffffffffffffffffffffffffffffffff1673ffffffffffffffffffffffffffffffffffffffff166306b25c7b6040518163ffffffff1660e01b8152600401602060405180830381865afa158015615723573d6000803e3d6000fd5b505050506040513d601f19601f820116820180604052508101906157479190617318565b6002615753919061867f565b905060007f000000000000000000000000000000000000000000000000000000000000000073ffffffffffffffffffffffffffffffffffffffff1663fa5692746040518163ffffffff1660e01b8152600401602060405180830381865afa1580156157c2573d6000803e3d6000fd5b505050506040513d601f19601f820116820180604052508101906157e69190618d17565b905060007f000000000000000000000000000000000000000000000000000000000000000073ffffffffffffffffffffffffffffffffffffffff1663e2f6f5116040518163ffffffff1660e01b8152600401602060405180830381865afa158015615855573d6000803e3d6000fd5b505050506040513d601f19601f820116820180604052508101906158799190618d17565b90506000600460009054906101000a900473ffffffffffffffffffffffffffffffffffffffff1673ffffffffffffffffffffffffffffffffffffffff1663eeee26ce8585856040518463ffffffff1660e01b81526004016158dc939291906190d8565b602060405180830381865afa1580156158f9573d6000803e3d6000fd5b505050506040513d601f19601f8201168201806040525081019061591d9190617318565b90506000811180156159a85750808273ffffffffffffffffffffffffffffffffffffffff166370a08231336040518263ffffffff1660e01b815260040161596491906172e8565b602060405180830381865afa158015615981573d6000803e3d6000fd5b505050506040513d601f19601f820116820180604052508101906159a59190617318565b10155b15615b8c576159b982333084616aae565b60008273ffffffffffffffffffffffffffffffffffffffff1663dd62ed3e30600260009054906101000a900473ffffffffffffffffffffffffffffffffffffffff166040518363ffffffff1660e01b8152600401615a1892919061910f565b602060405180830381865afa158015615a35573d6000803e3d6000fd5b505050506040513d601f19601f82011682018060405250810190615a599190617318565b03615afa57615af982600260009054906101000a900473ffffffffffffffffffffffffffffffffffffffff168473ffffffffffffffffffffffffffffffffffffffff166318160ddd6040518163ffffffff1660e01b8152600401602060405180830381865afa158015615ad0573d6000803e3d6000fd5b505050506040513d601f19601f82011682018060405250810190615af49190617318565b616c2f565b5b600260009054906101000a900473ffffffffffffffffffffffffffffffffffffffff1673ffffffffffffffffffffffffffffffffffffffff16633a53ed49826040518263ffffffff1660e01b8152600401615b559190616f60565b600060405180830381600087803b158015615b6f57600080fd5b505af1158015615b83573d6000803e3d6000fd5b50505050600194505b5050505090565b6001600081905550565b600160009054906101000a900473ffffffffffffffffffffffffffffffffffffffff1673ffffffffffffffffffffffffffffffffffffffff1663cb3a6063836040518263ffffffff1660e01b8152600401615bf89190616f60565b602060405180830381865afa158015615c15573d6000803e3d6000fd5b505050506040513d601f19601f82011682018060405250810190615c399190618d17565b73ffffffffffffffffffffffffffffffffffffffff163373ffffffffffffffffffffffffffffffffffffffff1603615ca6576040517f08c379a0000000000000000000000000000000000000000000000000000000008152600401615c9d90619184565b60405180910390fd5b600660003373ffffffffffffffffffffffffffffffffffffffff1673ffffffffffffffffffffffffffffffffffffffff168152602001908152602001600020600083815260200190815260200160002060009054906101000a900460ff1615615d44576040517f08c379a0000000000000000000000000000000000000000000000000000000008152600401615d3b906191f0565b60405180910390fd5b6001811480615d535750600281145b615d92576040517f08c379a0000000000000000000000000000000000000000000000000000000008152600401615d899061925c565b60405180910390fd5b6000600160009054906101000a900473ffffffffffffffffffffffffffffffffffffffff1673ffffffffffffffffffffffffffffffffffffffff1663d5443afd846040518263ffffffff1660e01b8152600401615def9190616f60565b602060405180830381865afa158015615e0c573d6000803e3d6000fd5b505050506040513d601f19601f82011682018060405250810190615e30919061927c565b905060016005811115615e4657615e456174f7565b5b816005811115615e5957615e586174f7565b5b14615e99576040517f08c379a0000000000000000000000000000000000000000000000000000000008152600401615e90906192f5565b60405180910390fd5b6000600160009054906101000a900473ffffffffffffffffffffffffffffffffffffffff1673ffffffffffffffffffffffffffffffffffffffff16637bcd52b0856040518263ffffffff1660e01b8152600401615ef69190616f60565b6040805180830381865afa158015615f12573d6000803e3d6000fd5b505050506040513d601f19601f82011682018060405250810190615f369190619315565b50905060008103615f7c576040517f08c379a0000000000000000000000000000000000000000000000000000000008152600401615f73906193a1565b60405180910390fd5b616016600360009054906101000a900473ffffffffffffffffffffffffffffffffffffffff1673ffffffffffffffffffffffffffffffffffffffff166341d4e3516040518163ffffffff1660e01b8152600401602060405180830381865afa158015615fec573d6000803e3d6000fd5b505050506040513d601f19601f820116820180604052508101906160109190617318565b82615649565b616055576040517f08c379a000000000000000000000000000000000000000000000000000000000815260040161604c9061940d565b60405180910390fd5b6000600260009054906101000a900473ffffffffffffffffffffffffffffffffffffffff1673ffffffffffffffffffffffffffffffffffffffff16630c2eb403336040518263ffffffff1660e01b81526004016160b291906172e8565b602060405180830381865afa1580156160cf573d6000803e3d6000fd5b505050506040513d601f19601f820116820180604052508101906160f39190617318565b90506000600160009054906101000a900473ffffffffffffffffffffffffffffffffffffffff1673ffffffffffffffffffffffffffffffffffffffff16632c6cab34876040518263ffffffff1660e01b81526004016161529190616f60565b608060405180830381865afa15801561616f573d6000803e3d6000fd5b505050506040513d601f19601f82011682018060405250810190616193919061942d565b509250505060008103616301576002600360009054906101000a900473ffffffffffffffffffffffffffffffffffffffff1673ffffffffffffffffffffffffffffffffffffffff166368477d586002336040518363ffffffff1660e01b81526004016162009291906177ac565b602060405180830381865afa15801561621d573d6000803e3d6000fd5b505050506040513d601f19601f820116820180604052508101906162419190617318565b03616300576402540be400600360009054906101000a900473ffffffffffffffffffffffffffffffffffffffff1673ffffffffffffffffffffffffffffffffffffffff1663c4ad4fbd6040518163ffffffff1660e01b8152600401602060405180830381865afa1580156162b9573d6000803e3d6000fd5b505050506040513d601f19601f820116820180604052508101906162dd9190617318565b836162e8919061867f565b6162f291906194c3565b826162fd9190617a8c565b91505b5b60006005600088815260200190815260200160002090506001860361635a57828160000160008282546163349190617a8c565b9250508190555080600201600081548092919061635090617ac0565b9190505550616390565b8281600101600082825461636e9190617a8c565b9250508190555080600301600081548092919061638a90617ac0565b91905055505b6001600f60003373ffffffffffffffffffffffffffffffffffffffff1673ffffffffffffffffffffffffffffffffffffffff16815260200190815260200160002060008282546163e09190617a8c565b925050819055506001600660003373ffffffffffffffffffffffffffffffffffffffff1673ffffffffffffffffffffffffffffffffffffffff168152602001908152602001600020600089815260200190815260200160002060006101000a81548160ff02191690831515021790555042601260003373ffffffffffffffffffffffffffffffffffffffff1673ffffffffffffffffffffffffffffffffffffffff16815260200190815260200160002081905550600260009054906101000a900473ffffffffffffffffffffffffffffffffffffffff1673ffffffffffffffffffffffffffffffffffffffff1663c30709613342601360008c8152602001908152602001600020546040518463ffffffff1660e01b815260040161650693929190617b08565b600060405180830381600087803b15801561652057600080fd5b505af1158015616534573d6000803e3d6000fd5b50505050863373ffffffffffffffffffffffffffffffffffffffff167fdbf10449ce071df06094e2cbfa4bfd3fd0c25bc88d073adc57898fd019a5de198860405161657f9190616f60565b60405180910390a350505050505050565b6000600560008381526020019081526020016000206040518060800160405290816000820154815260200160018201548152602001600282015481526020016003820154815250509050600080600160009054906101000a900473ffffffffffffffffffffffffffffffffffffffff1673ffffffffffffffffffffffffffffffffffffffff16637bcd52b0856040518263ffffffff1660e01b81526004016166389190616f60565b6040805180830381865afa158015616654573d6000803e3d6000fd5b505050506040513d601f19601f820116820180604052508101906166789190619315565b91509150616716600360009054906101000a900473ffffffffffffffffffffffffffffffffffffffff1673ffffffffffffffffffffffffffffffffffffffff166341d4e3516040518163ffffffff1660e01b8152600401602060405180830381865afa1580156166ec573d6000803e3d6000fd5b505050506040513d601f19601f820116820180604052508101906167109190617318565b83615649565b15616756576040517f08c379a000000000000000000000000000000000000000000000000000000000815260040161674d90619540565b60405180910390fd5b60008114616799576040517f08c379a0000000000000000000000000000000000000000000000000000000008152600401616790906195ac565b60405180910390fd5b6000600160009054906101000a900473ffffffffffffffffffffffffffffffffffffffff1673ffffffffffffffffffffffffffffffffffffffff16632c6cab34866040518263ffffffff1660e01b81526004016167f69190616f60565b608060405180830381865afa158015616813573d6000803e3d6000fd5b505050506040513d601f19601f82011682018060405250810190616837919061942d565b5092505050600080856060015186604001516168539190617a8c565b9050600260009054906101000a900473ffffffffffffffffffffffffffffffffffffffff1673ffffffffffffffffffffffffffffffffffffffff1663f6d5b2146040518163ffffffff1660e01b8152600401602060405180830381865afa1580156168c2573d6000803e3d6000fd5b505050506040513d601f19601f820116820180604052508101906168e69190617318565b81101580156168fc575085602001518660000151115b1561690a57600091506169ca565b600260009054906101000a900473ffffffffffffffffffffffffffffffffffffffff1673ffffffffffffffffffffffffffffffffffffffff1663f6d5b2146040518163ffffffff1660e01b8152600401602060405180830381865afa158015616977573d6000803e3d6000fd5b505050506040513d601f19601f8201168201806040525081019061699b9190617318565b8110156169ab57600191506169c9565b85602001518660000151116169c357600291506169c8565b600a91505b5b5b600160009054906101000a900473ffffffffffffffffffffffffffffffffffffffff1673ffffffffffffffffffffffffffffffffffffffff16633f06691788846040518363ffffffff1660e01b8152600401616a27929190617b3f565b600060405180830381600087803b158015616a4157600080fd5b505af1158015616a55573d6000803e3d6000fd5b50505050867f8bf0593638b00824727662ea8e6c8e8ff543604486a12d9523014e37aff31a418484604051616a8b929190617b3f565b60405180910390a250505050505050565b6000616aa782616dad565b9050919050565b616ab784616dad565b616af6576040517f08c379a0000000000000000000000000000000000000000000000000000000008152600401616aed90619618565b60405180910390fd5b6000808573ffffffffffffffffffffffffffffffffffffffff166323b872dd868686604051602401616b2a93929190619638565b6040516020818303038152906040529060e01b6020820180517bffffffffffffffffffffffffffffffffffffffffffffffffffffffff8381831617835250505050604051616b7891906196e0565b6000604051808303816000865af19150503d8060008114616bb5576040519150601f19603f3d011682016040523d82523d6000602084013e616bba565b606091505b5091509150818015616be85750600081511480616be7575080806020019051810190616be6919061970c565b5b5b616c27576040517f08c379a0000000000000000000000000000000000000000000000000000000008152600401616c1e906197ab565b60405180910390fd5b505050505050565b616c3883616dad565b616c77576040517f08c379a0000000000000000000000000000000000000000000000000000000008152600401616c6e90619618565b60405180910390fd5b6000808473ffffffffffffffffffffffffffffffffffffffff1663095ea7b38585604051602401616ca99291906197cb565b6040516020818303038152906040529060e01b6020820180517bffffffffffffffffffffffffffffffffffffffffffffffffffffffff8381831617835250505050604051616cf791906196e0565b6000604051808303816000865af19150503d8060008114616d34576040519150601f19603f3d011682016040523d82523d6000602084013e616d39565b606091505b5091509150818015616d675750600081511480616d66575080806020019051810190616d65919061970c565b5b5b616da6576040517f08c379a0000000000000000000000000000000000000000000000000000000008152600401616d9d90619866565b60405180910390fd5b5050505050565b6000808273ffffffffffffffffffffffffffffffffffffffff163b119050919050565b600080fd5b600080fd5b600073ffffffffffffffffffffffffffffffffffffffff82169050919050565b6000616e0582616dda565b9050919050565b616e1581616dfa565b8114616e2057600080fd5b50565b600081359050616e3281616e0c565b92915050565b6000819050919050565b616e4b81616e38565b8114616e5657600080fd5b50565b600081359050616e6881616e42565b92915050565b60008060408385031215616e8557616e84616dd0565b5b6000616e9385828601616e23565b9250506020616ea485828601616e59565b9150509250929050565b60008115159050919050565b616ec381616eae565b82525050565b6000602082019050616ede6000830184616eba565b92915050565b60008060408385031215616efb57616efa616dd0565b5b6000616f0985828601616e59565b9250506020616f1a85828601616e59565b9150509250929050565b600060208284031215616f3a57616f39616dd0565b5b6000616f4884828501616e23565b91505092915050565b616f5a81616e38565b82525050565b6000602082019050616f756000830184616f51565b92915050565b616f8481616eae565b8114616f8f57600080fd5b50565b600081359050616fa181616f7b565b92915050565b60008060408385031215616fbe57616fbd616dd0565b5b6000616fcc85828601616e59565b9250506020616fdd85828601616f92565b9150509250929050565b6000608082019050616ffc6000830187616f51565b6170096020830186616f51565b6170166040830185616f51565b6170236060830184616f51565b95945050505050565b60006020828403121561704257617041616dd0565b5b600061705084828501616e59565b91505092915050565b600080fd5b600080fd5b600080fd5b60008083601f84011261707e5761707d617059565b5b8235905067ffffffffffffffff81111561709b5761709a61705e565b5b6020830191508360208202830111156170b7576170b6617063565b5b9250929050565b600080600080604085870312156170d8576170d7616dd0565b5b600085013567ffffffffffffffff8111156170f6576170f5616dd5565b5b61710287828801617068565b9450945050602085013567ffffffffffffffff81111561712557617124616dd5565b5b61713187828801617068565b925092505092959194509250565b6000806040838503121561715657617155616dd0565b5b600061716485828601616e59565b925050602061717585828601616e23565b9150509250929050565b60008060006060848603121561719857617197616dd0565b5b60006171a686828701616e59565b93505060206171b786828701616e59565b92505060406171c886828701616e59565b9150509250925092565b600080602083850312156171e9576171e8616dd0565b5b600083013567ffffffffffffffff81111561720757617206616dd5565b5b61721385828601617068565b92509250509250929050565b60008060006060848603121561723857617237616dd0565b5b600061724686828701616e59565b935050602061725786828701616e23565b925050604061726886828701616e59565b9150509250925092565b6000806000806080858703121561728c5761728b616dd0565b5b600061729a87828801616e23565b94505060206172ab87828801616e23565b93505060406172bc87828801616e23565b92505060606172cd87828801616e23565b91505092959194509250565b6172e281616dfa565b82525050565b60006020820190506172fd60008301846172d9565b92915050565b60008151905061731281616e42565b92915050565b60006020828403121561732e5761732d616dd0565b5b600061733c84828501617303565b91505092915050565b600082825260208201905092915050565b7f4e6f74207374616b657200000000000000000000000000000000000000000000600082015250565b600061738c600a83617345565b915061739782617356565b602082019050919050565b600060208201905081810360008301526173bb8161737f565b9050919050565b6000819050919050565b6000819050919050565b60006173f16173ec6173e7846173c2565b6173cc565b616e38565b9050919050565b617401816173d6565b82525050565b600060408201905061741c6000830185616f51565b61742960208301846173f8565b9392505050565b60008151905061743f81616e0c565b92915050565b6006811061745257600080fd5b50565b60008151905061746481617445565b92915050565b60008060008060008060c0878903121561748757617486616dd0565b5b600061749589828a01617303565b96505060206174a689828a01617303565b95505060406174b789828a01617303565b94505060606174c889828a01617430565b93505060806174d989828a01617430565b92505060a06174ea89828a01617455565b9150509295509295509295565b7f4e487b7100000000000000000000000000000000000000000000000000000000600052602160045260246000fd5b7f6454413a2072656a656374206f72206e6f74207061737320766f746500000000600082015250565b600061755c601c83617345565b915061756782617526565b602082019050919050565b6000602082019050818103600083015261758b8161754f565b9050919050565b7f6454413a20656c6170736564206469737075746520706572696f640000000000600082015250565b60006175c8601b83617345565b91506175d382617592565b602082019050919050565b600060208201905081810360008301526175f7816175bb565b9050919050565b7f6454413a2070617920646f75626c650000000000000000000000000000000000600082015250565b6000617634600f83617345565b915061763f826175fe565b602082019050919050565b6000602082019050818103600083015261766381617627565b9050919050565b7f6454413a207374616b65206d6f72650000000000000000000000000000000000600082015250565b60006176a0600f83617345565b91506176ab8261766a565b602082019050919050565b600060208201905081810360008301526176cf81617693565b9050919050565b6000819050919050565b60006176fb6176f66176f1846176d6565b6173cc565b616e38565b9050919050565b61770b816176e0565b82525050565b60006060820190506177266000830186616f51565b61773360208301856173f8565b6177406040830184617702565b949350505050565b6000819050919050565b600061776d61776861776384617748565b6173cc565b616e38565b9050919050565b61777d81617752565b82525050565b60006040820190506177986000830185616f51565b6177a56020830184617774565b9392505050565b60006040820190506177c16000830185617774565b6177ce60208301846172d9565b9392505050565b7f7646423a206e6f742063616e6469646174650000000000000000000000000000600082015250565b600061780b601283617345565b9150617816826177d5565b602082019050919050565b6000602082019050818103600083015261783a816177fe565b9050919050565b7f7646423a20616c726561647920766f7465640000000000000000000000000000600082015250565b6000617877601283617345565b915061788282617841565b602082019050919050565b600060208201905081810360008301526178a68161786a565b9050919050565b7f7646423a2062616420766f746520696e666f0000000000000000000000000000600082015250565b60006178e3601283617345565b91506178ee826178ad565b602082019050919050565b60006020820190508181036000830152617912816178d6565b9050919050565b7f7646423a2073656c6620766f7465640000000000000000000000000000000000600082015250565b600061794f600f83617345565b915061795a82617919565b602082019050919050565b6000602082019050818103600083015261797e81617942565b9050919050565b7f7646423a206e6f2070726f706f73616c00000000000000000000000000000000600082015250565b60006179bb601083617345565b91506179c682617985565b602082019050919050565b600060208201905081810360008301526179ea816179ae565b9050919050565b7f7646423a20656c617073656420706572696f6400000000000000000000000000600082015250565b6000617a27601383617345565b9150617a32826179f1565b602082019050919050565b60006020820190508181036000830152617a5681617a1a565b9050919050565b7f4e487b7100000000000000000000000000000000000000000000000000000000600052601160045260246000fd5b6000617a9782616e38565b9150617aa283616e38565b9250828201905080821115617aba57617ab9617a5d565b5b92915050565b6000617acb82616e38565b91507fffffffffffffffffffffffffffffffffffffffffffffffffffffffffffffffff8203617afd57617afc617a5d565b5b600182019050919050565b6000606082019050617b1d60008301866172d9565b617b2a6020830185616f51565b617b376040830184616f51565b949350505050565b6000604082019050617b546000830185616f51565b617b616020830184616f51565b9392505050565b60008060008060008060c08789031215617b8557617b84616dd0565b5b6000617b9389828a01617303565b9650506020617ba489828a01617303565b9550506040617bb589828a01617303565b9450506060617bc689828a01617303565b9350506080617bd789828a01617430565b92505060a0617be889828a01617455565b9150509295509295509295565b7f70563a20766f746520706572696f642079657400000000000000000000000000600082015250565b6000617c2b601383617345565b9150617c3682617bf5565b602082019050919050565b60006020820190508181036000830152617c5a81617c1e565b9050919050565b7f70563a20616c726561647920617070726f766564000000000000000000000000600082015250565b6000617c97601483617345565b9150617ca282617c61565b602082019050919050565b60006020820190508181036000830152617cc681617c8a565b9050919050565b6000606082019050617ce26000830186616f51565b617cef6020830185616f51565b617cfc60408301846173f8565b949350505050565b6000606082019050617d196000830186616f51565b617d266020830185616f51565b617d336040830184617702565b949350505050565b6000608082019050617d506000830187616f51565b617d5d60208301866172d9565b617d6a6040830185616f51565b617d776060830184616f51565b95945050505050565b7f72413a2072656a656374206f72206e6f74207061737320766f74650000000000600082015250565b6000617db6601b83617345565b9150617dc182617d80565b602082019050919050565b60006020820190508181036000830152617de581617da9565b9050919050565b7f72413a20677261636520706572696f6420796574000000000000000000000000600082015250565b6000617e22601483617345565b9150617e2d82617dec565b602082019050919050565b60006020820190508181036000830152617e5181617e15565b9050919050565b7f72413a2065310000000000000000000000000000000000000000000000000000600082015250565b6000617e8e600683617345565b9150617e9982617e58565b602082019050919050565b60006020820190508181036000830152617ebd81617e81565b9050919050565b7f72413a2065320000000000000000000000000000000000000000000000000000600082015250565b6000617efa600683617345565b9150617f0582617ec4565b602082019050919050565b60006020820190508181036000830152617f2981617eed565b9050919050565b6000819050919050565b6000617f55617f50617f4b84617f30565b6173cc565b616e38565b9050919050565b617f6581617f3a565b82525050565b6000606082019050617f806000830186616f51565b617f8d60208301856173f8565b617f9a6040830184617f5c565b949350505050565b7f7541533a20766f746520706572696f6420796574000000000000000000000000600082015250565b6000617fd8601483617345565b9150617fe382617fa2565b602082019050919050565b6000602082019050818103600083015261800781617fcb565b9050919050565b7f7541533a20616c72656164792075706461746564000000000000000000000000600082015250565b6000618044601483617345565b915061804f8261800e565b602082019050919050565b6000602082019050818103600083015261807381618037565b9050919050565b600060608201905061808f6000830186616f51565b61809c60208301856173f8565b6180a960408301846173f8565b949350505050565b7f6146423a206e6f742063616e6469646174650000000000000000000000000000600082015250565b60006180e7601283617345565b91506180f2826180b1565b602082019050919050565b60006020820190508181036000830152618116816180da565b9050919050565b7f6146423a20766f746520706572696f6420796574000000000000000000000000600082015250565b6000618153601483617345565b915061815e8261811d565b602082019050919050565b6000602082019050818103600083015261818281618146565b9050919050565b7f6146423a20616c726561647920617070726f7665640000000000000000000000600082015250565b60006181bf601583617345565b91506181ca82618189565b602082019050919050565b600060208201905081810360008301526181ee816181b2565b9050919050565b600060608201905061820a6000830186616f51565b6182176020830185617774565b61822460408301846173f8565b949350505050565b60006060820190506182416000830186616f51565b61824e6020830185617774565b61825b6040830184617702565b949350505050565b6000819050919050565b600061828861828361827e84618263565b6173cc565b616e38565b9050919050565b6182988161826d565b82525050565b60006040820190506182b36000830185616f51565b6182c0602083018461828f565b9392505050565b60006040820190506182dc600083018561828f565b6182e960208301846172d9565b9392505050565b7f7652413a206e6f742063616e6469646174650000000000000000000000000000600082015250565b6000618326601283617345565b9150618331826182f0565b602082019050919050565b6000602082019050818103600083015261835581618319565b9050919050565b7f7652413a20616c726561647920766f7465640000000000000000000000000000600082015250565b6000618392601283617345565b915061839d8261835c565b602082019050919050565b600060208201905081810360008301526183c181618385565b9050919050565b7f7652413a2062616420766f746520696e666f0000000000000000000000000000600082015250565b60006183fe601283617345565b9150618409826183c8565b602082019050919050565b6000602082019050818103600083015261842d816183f1565b9050919050565b7f7652413a2073656c6620766f7465640000000000000000000000000000000000600082015250565b600061846a600f83617345565b915061847582618434565b602082019050919050565b600060208201905081810360008301526184998161845d565b9050919050565b7f7652413a206e6f2070726f706f73616c00000000000000000000000000000000600082015250565b60006184d6601083617345565b91506184e1826184a0565b602082019050919050565b60006020820190508181036000830152618505816184c9565b9050919050565b7f76524120656c617073656420706572696f640000000000000000000000000000600082015250565b6000618542601283617345565b915061854d8261850c565b602082019050919050565b6000602082019050818103600083015261857181618535565b9050919050565b7f76463a207a65726f206c656e6774680000000000000000000000000000000000600082015250565b60006185ae600f83617345565b91506185b982618578565b602082019050919050565b600060208201905081810360008301526185dd816185a1565b9050919050565b7f76463a20426164206974656d206c656e67746800000000000000000000000000600082015250565b600061861a601383617345565b9150618625826185e4565b602082019050919050565b600060208201905081810360008301526186498161860d565b9050919050565b7f4e487b7100000000000000000000000000000000000000000000000000000000600052603260045260246000fd5b600061868a82616e38565b915061869583616e38565b92508282026186a381616e38565b915082820484148315176186ba576186b9617a5d565b5b5092915050565b7f76503a20616c726561647920766f746564000000000000000000000000000000600082015250565b60006186f7601183617345565b9150618702826186c1565b602082019050919050565b60006020820190508181036000830152618726816186ea565b9050919050565b7f76503a2073656c6620766f746564000000000000000000000000000000000000600082015250565b6000618763600e83617345565b915061876e8261872d565b602082019050919050565b6000602082019050818103600083015261879281618756565b9050919050565b7f76503a2062616420766f746520696e666f000000000000000000000000000000600082015250565b60006187cf601183617345565b91506187da82618799565b602082019050919050565b600060208201905081810360008301526187fe816187c2565b9050919050565b7f76503a206e6f2070726f706f73616c0000000000000000000000000000000000600082015250565b600061883b600f83617345565b915061884682618805565b602082019050919050565b6000602082019050818103600083015261886a8161882e565b9050919050565b7f76503a20656c617073656420706572696f640000000000000000000000000000600082015250565b60006188a7601283617345565b91506188b282618871565b602082019050919050565b600060208201905081810360008301526188d68161889a565b9050919050565b7f61463a20696e76616c6964206974656d73000000000000000000000000000000600082015250565b6000618913601183617345565b915061891e826188dd565b602082019050919050565b6000602082019050818103600083015261894281618906565b9050919050565b7f76413a2062616420766f746520696e666f000000000000000000000000000000600082015250565b600061897f601183617345565b915061898a82618949565b602082019050919050565b600060208201905081810360008301526189ae81618972565b9050919050565b7f76413a206e6f2070726f706f73616c0000000000000000000000000000000000600082015250565b60006189eb600f83617345565b91506189f6826189b5565b602082019050919050565b60006020820190508181036000830152618a1a816189de565b9050919050565b7f76413a20616c726561647920766f746564000000000000000000000000000000600082015250565b6000618a57601183617345565b9150618a6282618a21565b602082019050919050565b60006020820190508181036000830152618a8681618a4a565b9050919050565b7f76413a2073656c6620766f746564000000000000000000000000000000000000600082015250565b6000618ac3600e83617345565b9150618ace82618a8d565b602082019050919050565b60006020820190508181036000830152618af281618ab6565b9050919050565b7f76413a20656c617073656420706572696f640000000000000000000000000000600082015250565b6000618b2f601283617345565b9150618b3a82618af9565b602082019050919050565b60006020820190508181036000830152618b5e81618b22565b9050919050565b7f7352413a206e6f742063616e6469646174650000000000000000000000000000600082015250565b6000618b9b601283617345565b9150618ba682618b65565b602082019050919050565b60006020820190508181036000830152618bca81618b8e565b9050919050565b7f7352413a20766f746520706572696f6420796574000000000000000000000000600082015250565b6000618c07601483617345565b9150618c1282618bd1565b602082019050919050565b60006020820190508181036000830152618c3681618bfa565b9050919050565b7f7352413a20616c726561647920617070726f7665640000000000000000000000600082015250565b6000618c73601583617345565b9150618c7e82618c3d565b602082019050919050565b60006020820190508181036000830152618ca281618c66565b9050919050565b6000606082019050618cbe6000830186616f51565b618ccb602083018561828f565b618cd860408301846173f8565b949350505050565b6000606082019050618cf56000830186616f51565b618d02602083018561828f565b618d0f6040830184617702565b949350505050565b600060208284031215618d2d57618d2c616dd0565b5b6000618d3b84828501617430565b91505092915050565b7f63616c6c6572206973206e6f7420746865206465706c6f796572000000000000600082015250565b6000618d7a601a83617345565b9150618d8582618d44565b602082019050919050565b60006020820190508181036000830152618da981618d6d565b9050919050565b7f696e69743a20616c726561647920696e697469616c697a656400000000000000600082015250565b6000618de6601983617345565b9150618df182618db0565b602082019050919050565b60006020820190508181036000830152618e1581618dd9565b9050919050565b7f696e69743a207a65726f20766162626c6544414f000000000000000000000000600082015250565b6000618e52601483617345565b9150618e5d82618e1c565b602082019050919050565b60006020820190508181036000830152618e8181618e45565b9050919050565b7f696e69743a207a65726f207374616b696e67506f6f6c00000000000000000000600082015250565b6000618ebe601683617345565b9150618ec982618e88565b602082019050919050565b60006020820190508181036000830152618eed81618eb1565b9050919050565b7f696e69743a207a65726f2070726f706572747900000000000000000000000000600082015250565b6000618f2a601383617345565b9150618f3582618ef4565b602082019050919050565b60006020820190508181036000830152618f5981618f1d565b9050919050565b7f696e69743a207a65726f20756e6948656c706572000000000000000000000000600082015250565b6000618f96601483617345565b9150618fa182618f60565b602082019050919050565b60006020820190508181036000830152618fc581618f89565b9050919050565b7f5265656e7472616e637947756172643a207265656e7472616e742063616c6c00600082015250565b6000619002601f83617345565b915061900d82618fcc565b602082019050919050565b6000602082019050818103600083015261903181618ff5565b9050919050565b7f7a65726f2073746172742074696d650000000000000000000000000000000000600082015250565b600061906e600f83617345565b915061907982619038565b602082019050919050565b6000602082019050818103600083015261909d81619061565b9050919050565b60006190af82616e38565b91506190ba83616e38565b92508282039050818111156190d2576190d1617a5d565b5b92915050565b60006060820190506190ed6000830186616f51565b6190fa60208301856172d9565b61910760408301846172d9565b949350505050565b600060408201905061912460008301856172d9565b61913160208301846172d9565b9392505050565b7f76463a2066696c6d206f776e6572000000000000000000000000000000000000600082015250565b600061916e600e83617345565b915061917982619138565b602082019050919050565b6000602082019050818103600083015261919d81619161565b9050919050565b7f76463a20616c726561647920766f746564000000000000000000000000000000600082015250565b60006191da601183617345565b91506191e5826191a4565b602082019050919050565b60006020820190508181036000830152619209816191cd565b9050919050565b7f76463a2062616420766f746520696e666f000000000000000000000000000000600082015250565b6000619246601183617345565b915061925182619210565b602082019050919050565b6000602082019050818103600083015261927581619239565b9050919050565b60006020828403121561929257619291616dd0565b5b60006192a084828501617455565b91505092915050565b7f76463a206e6f7420757064617465643100000000000000000000000000000000600082015250565b60006192df601083617345565b91506192ea826192a9565b602082019050919050565b6000602082019050818103600083015261930e816192d2565b9050919050565b6000806040838503121561932c5761932b616dd0565b5b600061933a85828601617303565b925050602061934b85828601617303565b9150509250929050565b7f76463a206e6f7420757064617465643200000000000000000000000000000000600082015250565b600061938b601083617345565b915061939682619355565b602082019050919050565b600060208201905081810360008301526193ba8161937e565b9050919050565b7f76463a20656c617073656420706572696f640000000000000000000000000000600082015250565b60006193f7601283617345565b9150619402826193c1565b602082019050919050565b60006020820190508181036000830152619426816193ea565b9050919050565b6000806000806080858703121561944757619446616dd0565b5b600061945587828801617303565b945050602061946687828801617303565b935050604061947787828801617303565b925050606061948887828801617303565b91505092959194509250565b7f4e487b7100000000000000000000000000000000000000000000000000000000600052601260045260246000fd5b60006194ce82616e38565b91506194d983616e38565b9250826194e9576194e8619494565b5b828204905092915050565b7f61463a20766f746520706572696f642079657400000000000000000000000000600082015250565b600061952a601383617345565b9150619535826194f4565b602082019050919050565b600060208201905081810360008301526195598161951d565b9050919050565b7f61463a20616c726561647920617070726f766564000000000000000000000000600082015250565b6000619596601483617345565b91506195a182619560565b602082019050919050565b600060208201905081810360008301526195c581619589565b9050919050565b7f4300000000000000000000000000000000000000000000000000000000000000600082015250565b6000619602600183617345565b915061960d826195cc565b602082019050919050565b60006020820190508181036000830152619631816195f5565b9050919050565b600060608201905061964d60008301866172d9565b61965a60208301856172d9565b6196676040830184616f51565b949350505050565b600081519050919050565b600081905092915050565b60005b838110156196a3578082015181840152602081019050619688565b60008484015250505050565b60006196ba8261966f565b6196c4818561967a565b93506196d4818560208601619685565b80840191505092915050565b60006196ec82846196af565b915081905092915050565b60008151905061970681616f7b565b92915050565b60006020828403121561972257619721616dd0565b5b6000619730848285016196f7565b91505092915050565b7f566162626c6544414f3a3a7472616e7366657246726f6d3a207472616e73666560008201527f7246726f6d206661696c65640000000000000000000000000000000000000000602082015250565b6000619795602c83617345565b91506197a082619739565b604082019050919050565b600060208201905081810360008301526197c481619788565b9050919050565b60006040820190506197e060008301856172d9565b6197ed6020830184616f51565b9392505050565b7f5472616e7366657248656c7065723a3a73616665417070726f76653a2061707060008201527f726f7665206661696c6564000000000000000000000000000000000000000000602082015250565b6000619850602b83617345565b915061985b826197f4565b604082019050919050565b6000602082019050818103600083015261987f81619843565b905091905056fea2646970667358221220d22d5a86c447676946bb39b348202b33d7850cd627476c51793d43e8a6380d6364736f6c63430008180033","linkReferences":{}},"methodIdentifiers":{"addFilmBoard(uint256)":"8128b65a","agentVoting(uint256)":"4e4274fd","approveFilms(uint256[])":"d0d8f588","disputeToAgent(uint256,bool)":"37b1dd28","filmBoardVoting(uint256)":"a1be7616","filmVoting(uint256)":"6ae582b5","getLastVoteTime(address)":"da081df0","govPassedVoteCount(uint256)":"7db6938a","initialize(address,address,address,address)":"f8c8765e","isAttendToAgentVote(address,uint256)":"e6a2566c","isAttendToBoardVote(address,uint256)":"0313ccaa","isAttendToFilmVote(address,uint256)":"b7a650f7","isAttendToPropertyVote(uint256,address,uint256)":"e9175c87","isAttendToRewardAddressVote(address,uint256)":"2f087c7b","isDoubleStaked(uint256,address)":"c0ade66d","propertyVoting(uint256,uint256)":"4935de33","replaceAuditor(uint256)":"561991fe","rewardAddressVoting(uint256)":"5cdf86eb","saveProposalWithFilm(uint256,uint256)":"0e6e6272","setDAORewardAddress(uint256)":"f3ca60a1","updateAgentStats(uint256)":"6c908b70","updateProperty(uint256,uint256)":"44e034cc","userFilmVoteCount(address)":"2e0f1f55","userGovernVoteCount(address)":"c97005bc","voteToAgent(uint256,uint256)":"eea14a15","voteToFilmBoard(uint256,uint256)":"44c51b85","voteToFilms(uint256[],uint256[])":"b8ae13a9","voteToProperty(uint256,uint256,uint256)":"c41daa3c","voteToRewardAddress(uint256,uint256)":"846ab18e"},"id":12}