{"abi":[{"type":"constructor","inputs":[{"name":"_ownable","type":"address","internalType":"address"}],"stateMutability":"nonpayable"},{"type":"function","name":"addFilmBoard","inputs":[{"name":"_index","type":"uint256","internalType":"uint256"}],"outputs":[],"stateMutability":"nonpayable"},{"type":"function","name":"agentVoting","inputs":[{"name":"","type":"uint256","internalType":"uint256"}],"outputs":[{"name":"stakeAmount_1","type":"uint256","internalType":"uint256"},{"name":"stakeAmount_2","type":"uint256","internalType":"uint256"},{"name":"voteCount_1","type":"uint256","internalType":"uint256"},{"name":"voteCount_2","type":"uint256","internalType":"uint256"}],"stateMutability":"view"},{"type":"function","name":"approveFilms","inputs":[{"name":"_filmIds","type":"uint256[]","internalType":"uint256[]"}],"outputs":[],"stateMutability":"nonpayable"},{"type":"function","name":"disputeToAgent","inputs":[{"name":"_index","type":"uint256","internalType":"uint256"},{"name":"_pay","type":"bool","internalType":"bool"}],"outputs":[],"stateMutability":"nonpayable"},{"type":"function","name":"filmBoardVoting","inputs":[{"name":"","type":"uint256","internalType":"uint256"}],"outputs":[{"name":"stakeAmount_1","type":"uint256","internalType":"uint256"},{"name":"stakeAmount_2","type":"uint256","internalType":"uint256"},{"name":"voteCount_1","type":"uint256","internalType":"uint256"},{"name":"voteCount_2","type":"uint256","internalType":"uint256"}],"stateMutability":"view"},{"type":"function","name":"filmVoting","inputs":[{"name":"","type":"uint256","internalType":"uint256"}],"outputs":[{"name":"stakeAmount_1","type":"uint256","internalType":"uint256"},{"name":"stakeAmount_2","type":"uint256","internalType":"uint256"},{"name":"voteCount_1","type":"uint256","internalType":"uint256"},{"name":"voteCount_2","type":"uint256","internalType":"uint256"}],"stateMutability":"view"},{"type":"function","name":"getLastVoteTime","inputs":[{"name":"_member","type":"address","internalType":"address"}],"outputs":[{"name":"time_","type":"uint256","internalType":"uint256"}],"stateMutability":"view"},{"type":"function","name":"govPassedVoteCount","inputs":[{"name":"","type":"uint256","internalType":"uint256"}],"outputs":[{"name":"","type":"uint256","internalType":"uint256"}],"stateMutability":"view"},{"type":"function","name":"initialize","inputs":[{"name":"_vabbleDAO","type":"address","internalType":"address"},{"name":"_stakingPool","type":"address","internalType":"address"},{"name":"_property","type":"address","internalType":"address"},{"name":"_uniHelper","type":"address","internalType":"address"}],"outputs":[],"stateMutability":"nonpayable"},{"type":"function","name":"isAttendToAgentVote","inputs":[{"name":"","type":"address","internalType":"address"},{"name":"","type":"uint256","internalType":"uint256"}],"outputs":[{"name":"","type":"bool","internalType":"bool"}],"stateMutability":"view"},{"type":"function","name":"isAttendToBoardVote","inputs":[{"name":"","type":"address","internalType":"address"},{"name":"","type":"uint256","internalType":"uint256"}],"outputs":[{"name":"","type":"bool","internalType":"bool"}],"stateMutability":"view"},{"type":"function","name":"isAttendToFilmVote","inputs":[{"name":"","type":"address","internalType":"address"},{"name":"","type":"uint256","internalType":"uint256"}],"outputs":[{"name":"","type":"bool","internalType":"bool"}],"stateMutability":"view"},{"type":"function","name":"isAttendToPropertyVote","inputs":[{"name":"","type":"uint256","internalType":"uint256"},{"name":"","type":"address","internalType":"address"},{"name":"","type":"uint256","internalType":"uint256"}],"outputs":[{"name":"","type":"bool","internalType":"bool"}],"stateMutability":"view"},{"type":"function","name":"isAttendToRewardAddressVote","inputs":[{"name":"","type":"address","internalType":"address"},{"name":"","type":"uint256","internalType":"uint256"}],"outputs":[{"name":"","type":"bool","internalType":"bool"}],"stateMutability":"view"},{"type":"function","name":"isDoubleStaked","inputs":[{"name":"_index","type":"uint256","internalType":"uint256"},{"name":"_user","type":"address","internalType":"address"}],"outputs":[{"name":"","type":"bool","internalType":"bool"}],"stateMutability":"view"},{"type":"function","name":"propertyVoting","inputs":[{"name":"","type":"uint256","internalType":"uint256"},{"name":"","type":"uint256","internalType":"uint256"}],"outputs":[{"name":"stakeAmount_1","type":"uint256","internalType":"uint256"},{"name":"stakeAmount_2","type":"uint256","internalType":"uint256"},{"name":"voteCount_1","type":"uint256","internalType":"uint256"},{"name":"voteCount_2","type":"uint256","internalType":"uint256"}],"stateMutability":"view"},{"type":"function","name":"replaceAuditor","inputs":[{"name":"_index","type":"uint256","internalType":"uint256"}],"outputs":[],"stateMutability":"nonpayable"},{"type":"function","name":"rewardAddressVoting","inputs":[{"name":"","type":"uint256","internalType":"uint256"}],"outputs":[{"name":"stakeAmount_1","type":"uint256","internalType":"uint256"},{"name":"stakeAmount_2","type":"uint256","internalType":"uint256"},{"name":"voteCount_1","type":"uint256","internalType":"uint256"},{"name":"voteCount_2","type":"uint256","internalType":"uint256"}],"stateMutability":"view"},{"type":"function","name":"saveProposalWithFilm","inputs":[{"name":"_filmId","type":"uint256","internalType":"uint256"},{"name":"_proposalID","type":"uint256","internalType":"uint256"}],"outputs":[],"stateMutability":"nonpayable"},{"type":"function","name":"setDAORewardAddress","inputs":[{"name":"_index","type":"uint256","internalType":"uint256"}],"outputs":[],"stateMutability":"nonpayable"},{"type":"function","name":"updateAgentStats","inputs":[{"name":"_index","type":"uint256","internalType":"uint256"}],"outputs":[],"stateMutability":"nonpayable"},{"type":"function","name":"updateProperty","inputs":[{"name":"_index","type":"uint256","internalType":"uint256"},{"name":"_flag","type":"uint256","internalType":"uint256"}],"outputs":[],"stateMutability":"nonpayable"},{"type":"function","name":"userFilmVoteCount","inputs":[{"name":"","type":"address","internalType":"address"}],"outputs":[{"name":"","type":"uint256","internalType":"uint256"}],"stateMutability":"view"},{"type":"function","name":"userGovernVoteCount","inputs":[{"name":"","type":"address","internalType":"address"}],"outputs":[{"name":"","type":"uint256","internalType":"uint256"}],"stateMutability":"view"},{"type":"function","name":"voteToAgent","inputs":[{"name":"_voteInfo","type":"uint256","internalType":"uint256"},{"name":"_index","type":"uint256","internalType":"uint256"}],"outputs":[],"stateMutability":"nonpayable"},{"type":"function","name":"voteToFilmBoard","inputs":[{"name":"_index","type":"uint256","internalType":"uint256"},{"name":"_voteInfo","type":"uint256","internalType":"uint256"}],"outputs":[],"stateMutability":"nonpayable"},{"type":"function","name":"voteToFilms","inputs":[{"name":"_filmIds","type":"uint256[]","internalType":"uint256[]"},{"name":"_voteInfos","type":"uint256[]","internalType":"uint256[]"}],"outputs":[],"stateMutability":"nonpayable"},{"type":"function","name":"voteToProperty","inputs":[{"name":"_voteInfo","type":"uint256","internalType":"uint256"},{"name":"_index","type":"uint256","internalType":"uint256"},{"name":"_flag","type":"uint256","internalType":"uint256"}],"outputs":[],"stateMutability":"nonpayable"},{"type":"function","name":"voteToRewardAddress","inputs":[{"name":"_index","type":"uint256","internalType":"uint256"},{"name":"_voteInfo","type":"uint256","internalType":"uint256"}],"outputs":[],"stateMutability":"nonpayable"},{"type":"event","name":"AuditorReplaced","inputs":[{"name":"agent","type":"address","indexed":true,"internalType":"address"},{"name":"caller","type":"address","indexed":false,"internalType":"address"}],"anonymous":false},{"type":"event","name":"DisputedToAgent","inputs":[{"name":"caller","type":"address","indexed":true,"internalType":"address"},{"name":"agent","type":"address","indexed":true,"internalType":"address"},{"name":"index","type":"uint256","indexed":false,"internalType":"uint256"}],"anonymous":false},{"type":"event","name":"FilmApproved","inputs":[{"name":"filmId","type":"uint256","indexed":true,"internalType":"uint256"},{"name":"fundType","type":"uint256","indexed":false,"internalType":"uint256"},{"name":"reason","type":"uint256","indexed":false,"internalType":"uint256"}],"anonymous":false},{"type":"event","name":"FilmBoardAdded","inputs":[{"name":"boardMember","type":"address","indexed":true,"internalType":"address"},{"name":"caller","type":"address","indexed":false,"internalType":"address"},{"name":"reason","type":"uint256","indexed":false,"internalType":"uint256"},{"name":"index","type":"uint256","indexed":false,"internalType":"uint256"}],"anonymous":false},{"type":"event","name":"PoolAddressAdded","inputs":[{"name":"pool","type":"address","indexed":true,"internalType":"address"},{"name":"caller","type":"address","indexed":false,"internalType":"address"},{"name":"reason","type":"uint256","indexed":false,"internalType":"uint256"},{"name":"index","type":"uint256","indexed":false,"internalType":"uint256"}],"anonymous":false},{"type":"event","name":"PropertyUpdated","inputs":[{"name":"whichProperty","type":"uint256","indexed":true,"internalType":"uint256"},{"name":"propertyValue","type":"uint256","indexed":false,"internalType":"uint256"},{"name":"caller","type":"address","indexed":false,"internalType":"address"},{"name":"reason","type":"uint256","indexed":false,"internalType":"uint256"},{"name":"index","type":"uint256","indexed":false,"internalType":"uint256"}],"anonymous":false},{"type":"event","name":"UpdatedAgentStats","inputs":[{"name":"agent","type":"address","indexed":true,"internalType":"address"},{"name":"caller","type":"address","indexed":false,"internalType":"address"},{"name":"reason","type":"uint256","indexed":false,"internalType":"uint256"},{"name":"index","type":"uint256","indexed":false,"internalType":"uint256"}],"anonymous":false},{"type":"event","name":"VotedToAgent","inputs":[{"name":"voter","type":"address","indexed":true,"internalType":"address"},{"name":"agent","type":"address","indexed":true,"internalType":"address"},{"name":"voteInfo","type":"uint256","indexed":false,"internalType":"uint256"},{"name":"index","type":"uint256","indexed":false,"internalType":"uint256"}],"anonymous":false},{"type":"event","name":"VotedToFilm","inputs":[{"name":"voter","type":"address","indexed":true,"internalType":"address"},{"name":"filmId","type":"uint256","indexed":true,"internalType":"uint256"},{"name":"voteInfo","type":"uint256","indexed":false,"internalType":"uint256"}],"anonymous":false},{"type":"event","name":"VotedToFilmBoard","inputs":[{"name":"voter","type":"address","indexed":true,"internalType":"address"},{"name":"candidate","type":"address","indexed":false,"internalType":"address"},{"name":"voteInfo","type":"uint256","indexed":false,"internalType":"uint256"},{"name":"index","type":"uint256","indexed":false,"internalType":"uint256"}],"anonymous":false},{"type":"event","name":"VotedToPoolAddress","inputs":[{"name":"voter","type":"address","indexed":true,"internalType":"address"},{"name":"rewardAddress","type":"address","indexed":false,"internalType":"address"},{"name":"voteInfo","type":"uint256","indexed":false,"internalType":"uint256"},{"name":"index","type":"uint256","indexed":false,"internalType":"uint256"}],"anonymous":false},{"type":"event","name":"VotedToProperty","inputs":[{"name":"voter","type":"address","indexed":true,"internalType":"address"},{"name":"flag","type":"uint256","indexed":false,"internalType":"uint256"},{"name":"propertyVal","type":"uint256","indexed":false,"internalType":"uint256"},{"name":"voteInfo","type":"uint256","indexed":false,"internalType":"uint256"},{"name":"index","type":"uint256","indexed":false,"internalType":"uint256"}],"anonymous":false}],"bytecode":{"object":"0x60a060405234801561001057600080fd5b5060405161588d38038061588d83398101604081905261002f9161009f565b60016000556001600160a01b03811661008e5760405162461bcd60e51b815260206004820152601660248201527f6f776e61626c65653a207a65726f206164647265737300000000000000000000604482015260640160405180910390fd5b6001600160a01b03166080526100cf565b6000602082840312156100b157600080fd5b81516001600160a01b03811681146100c857600080fd5b9392505050565b60805161578e6100ff6000396000818161178c01528181613bf40152818161404d01526140d3015261578e6000f3fe608060405234801561001057600080fd5b50600436106101cf5760003560e01c80638128b65a11610104578063c97005bc116100a2578063e9175c8711610071578063e9175c871461055f578063eea14a1514610593578063f3ca60a1146105a6578063f8c8765e146105b957600080fd5b8063c97005bc146104d5578063d0d8f588146104f5578063da081df014610508578063e6a2566c1461053157600080fd5b8063b7a650f7116100de578063b7a650f71461046e578063b8ae13a91461049c578063c0ade66d146104af578063c41daa3c146104c257600080fd5b80638128b65a14610413578063846ab18e14610426578063a1be76161461043957600080fd5b80634935de33116101715780635cdf86eb1161014b5780635cdf86eb146103765780636ae582b5146103ab5780636c908b70146103e05780637db6938a146103f357600080fd5b80634935de33146102ce5780634e4274fd1461032e578063561991fe1461036357600080fd5b80632f087c7b116101ad5780632f087c7b1461026757806337b1dd281461029557806344c51b85146102a857806344e034cc146102bb57600080fd5b80630313ccaa146101d45780630e6e6272146102175780632e0f1f5514610239575b600080fd5b6102026101e2366004615202565b600860209081526000928352604080842090915290825290205460ff1681565b60405190151581526020015b60405180910390f35b61023761022536600461522e565b60009182526013602052604090912055565b005b610259610247366004615250565b600f6020526000908152604090205481565b60405190815260200161020e565b610202610275366004615202565b600a60209081526000928352604080842090915290825290205460ff1681565b6102376102a3366004615282565b6105cc565b6102376102b636600461522e565b610973565b6102376102c936600461522e565b610f3e565b61030e6102dc36600461522e565b600d60209081526000928352604080842090915290825290208054600182015460028301546003909301549192909184565b60408051948552602085019390935291830152606082015260800161020e565b61030e61033c3660046152b2565b600b6020526000908152604090208054600182015460028301546003909301549192909184565b6102376103713660046152b2565b61141e565b61030e6103843660046152b2565b60096020526000908152604090208054600182015460028301546003909301549192909184565b61030e6103b93660046152b2565b60056020526000908152604090208054600182015460028301546003909301549192909184565b6102376103ee3660046152b2565b6118a4565b6102596104013660046152b2565b60116020526000908152604090205481565b6102376104213660046152b2565b611d8e565b61023761043436600461522e565b612311565b61030e6104473660046152b2565b60076020526000908152604090208054600182015460028301546003909301549192909184565b61020261047c366004615202565b600660209081526000928352604080842090915290825290205460ff1681565b6102376104aa366004615317565b612899565b6102026104bd366004615383565b612a1f565b6102376104d03660046153a8565b612b2f565b6102596104e3366004615250565b60106020526000908152604090205481565b6102376105033660046153d4565b613036565b610259610516366004615250565b6001600160a01b031660009081526012602052604090205490565b61020261053f366004615202565b600c60209081526000928352604080842090915290825290205460ff1681565b61020261056d366004615416565b600e60209081526000938452604080852082529284528284209052825290205460ff1681565b6102376105a136600461522e565b61315a565b6102376105b43660046152b2565b613664565b6102376105c736600461544e565b613bf2565b600254604051630c2eb40360e01b81523360048201526001600160a01b0390911690630c2eb40390602401602060405180830381865afa158015610614573d6000803e3d6000fd5b505050506040513d601f19601f8201168201806040525081019061063891906154aa565b6000036106605760405162461bcd60e51b8152600401610657906154c3565b60405180910390fd5b610668613f05565b60035460405163a3b1356160e01b81526004810184905260016024820152600091829182916001600160a01b03169063a3b135619060440160c060405180830381865afa1580156106bd573d6000803e3d6000fd5b505050506040513d601f19601f820116820180604052508101906106e191906154fb565b955050945050935050600160058111156106fd576106fd61555f565b81600581111561070f5761070f61555f565b1461075c5760405162461bcd60e51b815260206004820152601c60248201527f6454413a2072656a656374206f72206e6f74207061737320766f7465000000006044820152606401610657565b60035460408051630b63a6e160e01b815290516107d1926001600160a01b031691630b63a6e19160048083019260209291908290030181865afa1580156107a7573d6000803e3d6000fd5b505050506040513d601f19601f820116820180604052508101906107cb91906154aa565b84613f5e565b61081d5760405162461bcd60e51b815260206004820152601b60248201527f6454413a20656c6170736564206469737075746520706572696f6400000000006044820152606401610657565b831561086e5761082b613fc2565b6108695760405162461bcd60e51b815260206004820152600f60248201526e6454413a2070617920646f75626c6560881b6044820152606401610657565b6108b6565b6108788533612a1f565b6108b65760405162461bcd60e51b815260206004820152600f60248201526e6454413a207374616b65206d6f726560881b6044820152606401610657565b600354604051633e28527360e21b81526004810187905260016024820152600060448201526001600160a01b039091169063f8a149cc90606401600060405180830381600087803b15801561090a57600080fd5b505af115801561091e573d6000803e3d6000fd5b50506040518781526001600160a01b03851692503391507f0a429b39c4274e902010ad53a1edd207c243380229c67583c5383c62f2a449b79060200160405180910390a350505061096f6001600055565b5050565b600254604051630c2eb40360e01b81523360048201526001600160a01b0390911690630c2eb40390602401602060405180830381865afa1580156109bb573d6000803e3d6000fd5b505050506040513d601f19601f820116820180604052508101906109df91906154aa565b6000036109fe5760405162461bcd60e51b8152600401610657906154c3565b610a06613f05565b60035460405163a3b1356160e01b815260048101849052600260248201526000918291829182916001600160a01b039091169063a3b135619060440160c060405180830381865afa158015610a5f573d6000803e3d6000fd5b505050506040513d601f19601f82011682018060405250810190610a8391906154fb565b50600354604051630d08efab60e31b8152600260048201526001600160a01b038085166024830152969a50939850919650945092909216916368477d589150604401602060405180830381865afa158015610ae2573d6000803e3d6000fd5b505050506040513d601f19601f82011682018060405250810190610b0691906154aa565b600114610b4a5760405162461bcd60e51b81526020600482015260126024820152717646423a206e6f742063616e64696461746560701b6044820152606401610657565b33600090815260086020908152604080832089845290915290205460ff1615610baa5760405162461bcd60e51b81526020600482015260126024820152711d91908e88185b1c9958591e481d9bdd195960721b6044820152606401610657565b8460011480610bb95750846002145b610bfa5760405162461bcd60e51b81526020600482015260126024820152717646423a2062616420766f746520696e666f60701b6044820152606401610657565b6001600160a01b0381163303610c445760405162461bcd60e51b815260206004820152600f60248201526e1d91908e881cd95b19881d9bdd1959608a1b6044820152606401610657565b83600003610c875760405162461bcd60e51b815260206004820152601060248201526f1d91908e881b9bc81c1c9bdc1bdcd85b60821b6044820152606401610657565b6003546040805163da18716f60e01b81529051610cfc926001600160a01b03169163da18716f9160048083019260209291908290030181865afa158015610cd2573d6000803e3d6000fd5b505050506040513d601f19601f82011682018060405250810190610cf691906154aa565b85613f5e565b610d3e5760405162461bcd60e51b81526020600482015260136024820152721d91908e88195b185c1cd959081c195c9a5bd9606a1b6044820152606401610657565b600254604051630c2eb40360e01b81523360048201526000916001600160a01b031690630c2eb40390602401602060405180830381865afa158015610d87573d6000803e3d6000fd5b505050506040513d601f19601f82011682018060405250810190610dab91906154aa565b60008881526007602052604090209091506001879003610dfa5781816000016000828254610dd9919061558b565b9091555050600281018054906000610df08361559e565b9190505550610e2b565b81816001016000828254610e0e919061558b565b9091555050600381018054906000610e258361559e565b91905055505b336000908152601060205260408120805460019290610e4b90849061558b565b90915550503360008181526008602090815260408083208c84528252808320805460ff191660011790558383526012909152908190204290819055600254915163c307096160e01b81526001600160a01b03929092169263c307096192610eb792908a906004016155b7565b600060405180830381600087803b158015610ed157600080fd5b505af1158015610ee5573d6000803e3d6000fd5b50505050336001600160a01b03167f61b66831f9f34605400d74fba4f3717b5086de08b4dc9d55342286ccc8f5b82785898b604051610f26939291906155b7565b60405180910390a250505050505061096f6001600055565b600254604051630c2eb40360e01b81523360048201526001600160a01b0390911690630c2eb40390602401602060405180830381865afa158015610f86573d6000803e3d6000fd5b505050506040513d601f19601f82011682018060405250810190610faa91906154aa565b600003610fc95760405162461bcd60e51b8152600401610657906154c3565b610fd1613f05565b60035460405163535f31df60e11b81526004810184905260248101839052600091829182916001600160a01b03169063a6be63be9060440160c060405180830381865afa158015611026573d6000803e3d6000fd5b505050506040513d601f19601f8201168201806040525081019061104a91906155d8565b5050935050925092506110a9600360009054906101000a90046001600160a01b03166001600160a01b031663999a4fc46040518163ffffffff1660e01b8152600401602060405180830381865afa1580156107a7573d6000803e3d6000fd5b156110ec5760405162461bcd60e51b81526020600482015260136024820152721c158e881d9bdd19481c195c9a5bd9081e595d606a1b6044820152606401610657565b81156111315760405162461bcd60e51b81526020600482015260146024820152731c158e88185b1c9958591e48185c1c1c9bdd995960621b6044820152606401610657565b6000848152600d602090815260408083208884528252808320815160808101835281548152600182015493810193909352600281015491830182905260030154606083018190528391611184919061558b565b9050600260009054906101000a90046001600160a01b03166001600160a01b031663f6d5b2146040518163ffffffff1660e01b8152600401602060405180830381865afa1580156111d9573d6000803e3d6000fd5b505050506040513d601f19601f820116820180604052508101906111fd91906154aa565b8110158015611210575060208201518251115b156112cb57600354604051630e8063fd60e11b8152600481018a905260248101899052600160448201526001600160a01b0390911690631d00c7fa90606401600060405180830381600087803b15801561126957600080fd5b505af115801561127d573d6000803e3d6000fd5b50506005600090815260116020527fc550213cee30afd5e67ccba7be3d381bbc169034ae08eb3ec9168caca9fe55e78054600194509092506112c090849061558b565b909155506113d89050565b600354604051630e8063fd60e11b8152600481018a905260248101899052600060448201526001600160a01b0390911690631d00c7fa90606401600060405180830381600087803b15801561131f57600080fd5b505af1158015611333573d6000803e3d6000fd5b50505050600260009054906101000a90046001600160a01b03166001600160a01b031663f6d5b2146040518163ffffffff1660e01b8152600401602060405180830381865afa15801561138a573d6000803e3d6000fd5b505050506040513d601f19601f820116820180604052508101906113ae91906154aa565b8110156113be57600192506113d8565b60208201518251116113d357600292506113d8565b600a92505b604080518581523360208201529081018490526060810189905287907ff1d46a2f873208d941b57481de76afd8ea911db5066b374b401bd77c8cf9ff9b90608001610f26565b600254604051630c2eb40360e01b81523360048201526001600160a01b0390911690630c2eb40390602401602060405180830381865afa158015611466573d6000803e3d6000fd5b505050506040513d601f19601f8201168201806040525081019061148a91906154aa565b6000036114a95760405162461bcd60e51b8152600401610657906154c3565b6114b1613f05565b60035460405163a3b1356160e01b81526004810183905260016024820152600091829182916001600160a01b03169063a3b135619060440160c060405180830381865afa158015611506573d6000803e3d6000fd5b505050506040513d601f19601f8201168201806040525081019061152a91906154fb565b955050945050935050600160058111156115465761154661555f565b8160058111156115585761155861555f565b146115a55760405162461bcd60e51b815260206004820152601b60248201527f72413a2072656a656374206f72206e6f74207061737320766f746500000000006044820152606401610657565b60035460408051630b63a6e160e01b815290516115f0926001600160a01b031691630b63a6e19160048083019260209291908290030181865afa1580156107a7573d6000803e3d6000fd5b156116345760405162461bcd60e51b81526020600482015260146024820152731c904e8819dc9858d9481c195c9a5bd9081e595d60621b6044820152606401610657565b6000848152600b602090815260408083208151608081018352815481526001820154938101939093526002810154918301829052600301546060830181905291929161167f9161558b565b9050600260009054906101000a90046001600160a01b03166001600160a01b031663f6d5b2146040518163ffffffff1660e01b8152600401602060405180830381865afa1580156116d4573d6000803e3d6000fd5b505050506040513d601f19601f820116820180604052508101906116f891906154aa565b8110156117305760405162461bcd60e51b815260206004820152600660248201526572413a20653160d01b6044820152606401610657565b602082015182511161176d5760405162461bcd60e51b815260206004820152600660248201526539209d10329960d11b6044820152606401610657565b604051630b08de5560e21b81526001600160a01b0385811660048301527f00000000000000000000000000000000000000000000000000000000000000001690632c23795490602401600060405180830381600087803b1580156117d057600080fd5b505af11580156117e4573d6000803e3d6000fd5b5050600354604051633e28527360e21b8152600481018a905260016024820152600560448201526001600160a01b03909116925063f8a149cc9150606401600060405180830381600087803b15801561183c57600080fd5b505af1158015611850573d6000803e3d6000fd5b50506040513381526001600160a01b03871692507f5b3f2b832f17ea2c0876d7218598e568adb83a8534430b480f0af09d93f71335915060200160405180910390a250505050506118a16001600055565b50565b600254604051630c2eb40360e01b81523360048201526001600160a01b0390911690630c2eb40390602401602060405180830381865afa1580156118ec573d6000803e3d6000fd5b505050506040513d601f19601f8201168201806040525081019061191091906154aa565b60000361192f5760405162461bcd60e51b8152600401610657906154c3565b611937613f05565b60035460405163a3b1356160e01b81526004810183905260016024820152600091829182916001600160a01b03169063a3b135619060440160c060405180830381865afa15801561198c573d6000803e3d6000fd5b505050506040513d601f19601f820116820180604052508101906119b091906154fb565b505093505092509250611a0f600360009054906101000a90046001600160a01b03166001600160a01b031663d56b58746040518163ffffffff1660e01b8152600401602060405180830381865afa1580156107a7573d6000803e3d6000fd5b15611a535760405162461bcd60e51b81526020600482015260146024820152731d5054ce881d9bdd19481c195c9a5bd9081e595d60621b6044820152606401610657565b8115611a985760405162461bcd60e51b81526020600482015260146024820152731d5054ce88185b1c9958591e481d5c19185d195960621b6044820152606401610657565b6000848152600b60209081526040808320815160808101835281548152600182015493810193909352600281015491830182905260030154606083018190529192918291611ae6919061558b565b9050600260009054906101000a90046001600160a01b03166001600160a01b031663f6d5b2146040518163ffffffff1660e01b8152600401602060405180830381865afa158015611b3b573d6000803e3d6000fd5b505050506040513d601f19601f82011682018060405250810190611b5f91906154aa565b8110158015611b72575060208301518351115b15611c2c57600354604051633e28527360e21b81526004810189905260016024820181905260448201526001600160a01b039091169063f8a149cc90606401600060405180830381600087803b158015611bcb57600080fd5b505af1158015611bdf573d6000803e3d6000fd5b50506001600081815260116020527f17bc176d2408558f6e4111feebc3cab4e16b63e967be91cde721f4c8a488b5528054929450925090611c2190849061558b565b90915550611d399050565b600354604051633e28527360e21b81526004810189905260016024820152600060448201526001600160a01b039091169063f8a149cc90606401600060405180830381600087803b158015611c8057600080fd5b505af1158015611c94573d6000803e3d6000fd5b50505050600260009054906101000a90046001600160a01b03166001600160a01b031663f6d5b2146040518163ffffffff1660e01b8152600401602060405180830381865afa158015611ceb573d6000803e3d6000fd5b505050506040513d601f19601f82011682018060405250810190611d0f91906154aa565b811015611d1f5760019150611d39565b6020830151835111611d345760029150611d39565b600a91505b836001600160a01b03167fa78180eebda63b0ecd24688fe441195492dd66f217cca9656f6f11f401d90d6d33848a604051611d76939291906155b7565b60405180910390a25050505050506118a16001600055565b600254604051630c2eb40360e01b81523360048201526001600160a01b0390911690630c2eb40390602401602060405180830381865afa158015611dd6573d6000803e3d6000fd5b505050506040513d601f19601f82011682018060405250810190611dfa91906154aa565b600003611e195760405162461bcd60e51b8152600401610657906154c3565b611e21613f05565b60035460405163a3b1356160e01b81526004810183905260026024820152600091829182916001600160a01b03169063a3b135619060440160c060405180830381865afa158015611e76573d6000803e3d6000fd5b505050506040513d601f19601f82011682018060405250810190611e9a91906154fb565b5050600354604051630d08efab60e31b8152600260048201526001600160a01b0380841660248301529598509396509094509290921691506368477d5890604401602060405180830381865afa158015611ef8573d6000803e3d6000fd5b505050506040513d601f19601f82011682018060405250810190611f1c91906154aa565b600114611f605760405162461bcd60e51b81526020600482015260126024820152716146423a206e6f742063616e64696461746560701b6044820152606401610657565b6003546040805163da18716f60e01b81529051611fab926001600160a01b03169163da18716f9160048083019260209291908290030181865afa1580156107a7573d6000803e3d6000fd5b15611fef5760405162461bcd60e51b81526020600482015260146024820152731851908e881d9bdd19481c195c9a5bd9081e595d60621b6044820152606401610657565b81156120355760405162461bcd60e51b81526020600482015260156024820152741851908e88185b1c9958591e48185c1c1c9bdd9959605a1b6044820152606401610657565b6000848152600760209081526040808320815160808101835281548152600182015493810193909352600281015491830182905260030154606083018190528391612080919061558b565b9050600260009054906101000a90046001600160a01b03166001600160a01b031663f6d5b2146040518163ffffffff1660e01b8152600401602060405180830381865afa1580156120d5573d6000803e3d6000fd5b505050506040513d601f19601f820116820180604052508101906120f991906154aa565b811015801561210c575060208201518251115b156121c757600354604051633e28527360e21b81526004810189905260026024820152600160448201526001600160a01b039091169063f8a149cc90606401600060405180830381600087803b15801561216557600080fd5b505af1158015612179573d6000803e3d6000fd5b50506003600090815260116020527f9bfbaa59f8e10e7868f8b402de9d605a390c45ddaebd8c9de3c6f31e733c87ff8054600194509092506121bc90849061558b565b909155506122d49050565b600354604051633e28527360e21b81526004810189905260026024820152600060448201526001600160a01b039091169063f8a149cc90606401600060405180830381600087803b15801561221b57600080fd5b505af115801561222f573d6000803e3d6000fd5b50505050600260009054906101000a90046001600160a01b03166001600160a01b031663f6d5b2146040518163ffffffff1660e01b8152600401602060405180830381865afa158015612286573d6000803e3d6000fd5b505050506040513d601f19601f820116820180604052508101906122aa91906154aa565b8110156122ba57600192506122d4565b60208201518251116122cf57600292506122d4565b600a92505b836001600160a01b03167f73f0029a3254b75e84e344e18171e857cdc5687ce4d0b36ffa5e33804c65969333858a604051611d76939291906155b7565b600254604051630c2eb40360e01b81523360048201526001600160a01b0390911690630c2eb40390602401602060405180830381865afa158015612359573d6000803e3d6000fd5b505050506040513d601f19601f8201168201806040525081019061237d91906154aa565b60000361239c5760405162461bcd60e51b8152600401610657906154c3565b6123a4613f05565b6003805460405163a3b1356160e01b81526004810185905260248101929092526000918291829182916001600160a01b03169063a3b135619060440160c060405180830381865afa1580156123fd573d6000803e3d6000fd5b505050506040513d601f19601f8201168201806040525081019061242191906154fb565b5060038054604051630d08efab60e31b815260048101929092526001600160a01b038085166024840152969a5093985091965094509216916368477d589150604401602060405180830381865afa158015612480573d6000803e3d6000fd5b505050506040513d601f19601f820116820180604052508101906124a491906154aa565b6001146124e85760405162461bcd60e51b81526020600482015260126024820152717652413a206e6f742063616e64696461746560701b6044820152606401610657565b336000908152600a6020908152604080832089845290915290205460ff16156125485760405162461bcd60e51b81526020600482015260126024820152711d94904e88185b1c9958591e481d9bdd195960721b6044820152606401610657565b84600114806125575750846002145b6125985760405162461bcd60e51b81526020600482015260126024820152717652413a2062616420766f746520696e666f60701b6044820152606401610657565b6001600160a01b03811633036125e25760405162461bcd60e51b815260206004820152600f60248201526e1d94904e881cd95b19881d9bdd1959608a1b6044820152606401610657565b836000036126255760405162461bcd60e51b815260206004820152601060248201526f1d94904e881b9bc81c1c9bdc1bdcd85b60821b6044820152606401610657565b6003546040805163f2a3b34360e01b81529051612670926001600160a01b03169163f2a3b3439160048083019260209291908290030181865afa158015610cd2573d6000803e3d6000fd5b6126b15760405162461bcd60e51b81526020600482015260126024820152711d949048195b185c1cd959081c195c9a5bd960721b6044820152606401610657565b600254604051630c2eb40360e01b81523360048201526000916001600160a01b031690630c2eb40390602401602060405180830381865afa1580156126fa573d6000803e3d6000fd5b505050506040513d601f19601f8201168201806040525081019061271e91906154aa565b6000888152600960205260409020909150600187900361276d578181600001600082825461274c919061558b565b90915550506002810180549060006127638361559e565b919050555061279e565b81816001016000828254612781919061558b565b90915550506003810180549060006127988361559e565b91905055505b3360009081526010602052604081208054600192906127be90849061558b565b9091555050336000818152600a602090815260408083208c84528252808320805460ff191660011790558383526012909152908190204290819055600254915163c307096160e01b81526001600160a01b03929092169263c30709619261282a92908a906004016155b7565b600060405180830381600087803b15801561284457600080fd5b505af1158015612858573d6000803e3d6000fd5b50505050336001600160a01b03167fd82a8fed45cd83aa0fe837e2810cd2f8bb0d4ff2b88c4d2c01f09a6afcb7fb3285898b604051610f26939291906155b7565b600254604051630c2eb40360e01b81523360048201526001600160a01b0390911690630c2eb40390602401602060405180830381865afa1580156128e1573d6000803e3d6000fd5b505050506040513d601f19601f8201168201806040525081019061290591906154aa565b6000036129245760405162461bcd60e51b8152600401610657906154c3565b61292c613f05565b82801580159061293d57506103e881105b61297b5760405162461bcd60e51b815260206004820152600f60248201526e0ec8c7440f4cae4de40d8cadccee8d608b1b6044820152606401610657565b8082146129c05760405162461bcd60e51b81526020600482015260136024820152720ec8c744084c2c840d2e8cada40d8cadccee8d606b1b6044820152606401610657565b60005b81811015612a0d57612a058686838181106129e0576129e0615618565b905060200201358585848181106129f9576129f9615618565b905060200201356143c5565b6001016129c3565b5050612a196001600055565b50505050565b600254604051630c2eb40360e01b81526001600160a01b0383811660048301526000928392911690630c2eb40390602401602060405180830381865afa158015612a6d573d6000803e3d6000fd5b505050506040513d601f19601f82011682018060405250810190612a9191906154aa565b60035460405163a0658cef60e01b8152600481018790529192506000916001600160a01b039091169063a0658cef90602401602060405180830381865afa158015612ae0573d6000803e3d6000fd5b505050506040513d601f19601f82011682018060405250810190612b0491906154aa565b9050612b1181600261562e565b8210612b2257600192505050612b29565b6000925050505b92915050565b600254604051630c2eb40360e01b81523360048201526001600160a01b0390911690630c2eb40390602401602060405180830381865afa158015612b77573d6000803e3d6000fd5b505050506040513d601f19601f82011682018060405250810190612b9b91906154aa565b600003612bba5760405162461bcd60e51b8152600401610657906154c3565b612bc2613f05565b60035460405163535f31df60e11b815260048101849052602481018390526000918291829182916001600160a01b039091169063a6be63be9060440160c060405180830381865afa158015612c1b573d6000803e3d6000fd5b505050506040513d601f19601f82011682018060405250810190612c3f91906155d8565b5060008a8152600e6020908152604080832033845282528083208e8452909152902054949850919650945092505060ff1615612cb15760405162461bcd60e51b81526020600482015260116024820152701d940e88185b1c9958591e481d9bdd1959607a1b6044820152606401610657565b6001600160a01b0381163303612cfa5760405162461bcd60e51b815260206004820152600e60248201526d1d940e881cd95b19881d9bdd195960921b6044820152606401610657565b8660011480612d095750866002145b612d495760405162461bcd60e51b815260206004820152601160248201527076503a2062616420766f746520696e666f60781b6044820152606401610657565b83600003612d8b5760405162461bcd60e51b815260206004820152600f60248201526e1d940e881b9bc81c1c9bdc1bdcd85b608a1b6044820152606401610657565b6003546040805163266693f160e21b81529051612dd6926001600160a01b03169163999a4fc49160048083019260209291908290030181865afa158015610cd2573d6000803e3d6000fd5b612e175760405162461bcd60e51b81526020600482015260126024820152711d940e88195b185c1cd959081c195c9a5bd960721b6044820152606401610657565b600254604051630c2eb40360e01b81523360048201526000916001600160a01b031690630c2eb40390602401602060405180830381865afa158015612e60573d6000803e3d6000fd5b505050506040513d601f19601f82011682018060405250810190612e8491906154aa565b6000878152600d602090815260408083208b845290915290209091506001899003612ede5781816000016000828254612ebd919061558b565b9091555050600281018054906000612ed48361559e565b9190505550612f0f565b81816001016000828254612ef2919061558b565b9091555050600381018054906000612f098361559e565b91905055505b336000908152601060205260408120805460019290612f2f90849061558b565b90915550506000878152600e60209081526040808320338085529083528184208c85528352818420805460ff191660011790558084526012909252918290204290819055600254925163c307096160e01b81526001600160a01b03939093169263c307096192612fa59290918a906004016155b7565b600060405180830381600087803b158015612fbf57600080fd5b505af1158015612fd3573d6000803e3d6000fd5b5050604080518a8152602081018890529081018c9052606081018b90523392507f23a8e5475a06bf6010414551c4b157193e8768412d9c54702225918692e1eccf915060800160405180910390a25050505050506130316001600055565b505050565b600254604051630c2eb40360e01b81523360048201526001600160a01b0390911690630c2eb40390602401602060405180830381865afa15801561307e573d6000803e3d6000fd5b505050506040513d601f19601f820116820180604052508101906130a291906154aa565b6000036130c15760405162461bcd60e51b8152600401610657906154c3565b6130c9613f05565b8080158015906130da57506103e881105b61311a5760405162461bcd60e51b815260206004820152601160248201527061463a20696e76616c6964206974656d7360781b6044820152606401610657565b60005b8181101561314e5761314684848381811061313a5761313a615618565b90506020020135614ad6565b60010161311d565b505061096f6001600055565b600254604051630c2eb40360e01b81523360048201526001600160a01b0390911690630c2eb40390602401602060405180830381865afa1580156131a2573d6000803e3d6000fd5b505050506040513d601f19601f820116820180604052508101906131c691906154aa565b6000036131e55760405162461bcd60e51b8152600401610657906154c3565b6131ed613f05565b60035460405163a3b1356160e01b815260048101839052600160248201526000918291829182916001600160a01b039091169063a3b135619060440160c060405180830381865afa158015613246573d6000803e3d6000fd5b505050506040513d601f19601f8201168201806040525081019061326a91906154fb565b5094509450945050935085600114806132835750856002145b6132c35760405162461bcd60e51b815260206004820152601160248201527076413a2062616420766f746520696e666f60781b6044820152606401610657565b836000036133055760405162461bcd60e51b815260206004820152600f60248201526e1d904e881b9bc81c1c9bdc1bdcd85b608a1b6044820152606401610657565b6000858152600b60205260408082206002549151630c2eb40360e01b81523360048201529092916001600160a01b031690630c2eb40390602401602060405180830381865afa15801561335c573d6000803e3d6000fd5b505050506040513d601f19601f8201168201806040525081019061338091906154aa565b336000908152600c602090815260408083208b845290915290205490915060ff16156133e25760405162461bcd60e51b81526020600482015260116024820152701d904e88185b1c9958591e481d9bdd1959607a1b6044820152606401610657565b6001600160a01b038316330361342b5760405162461bcd60e51b815260206004820152600e60248201526d1d904e881cd95b19881d9bdd195960921b6044820152606401610657565b6003546040805163355ad61d60e21b815290516134a0926001600160a01b03169163d56b58749160048083019260209291908290030181865afa158015613476573d6000803e3d6000fd5b505050506040513d601f19601f8201168201806040525081019061349a91906154aa565b87613f5e565b6134e15760405162461bcd60e51b81526020600482015260126024820152711d904e88195b185c1cd959081c195c9a5bd960721b6044820152606401610657565b8760010361351e57808260000160008282546134fd919061558b565b90915550506002820180549060006135148361559e565b919050555061354f565b80826001016000828254613532919061558b565b90915550506003820180549060006135498361559e565b91905055505b336000818152600c602090815260408083208b84528252808320805460ff1916600190811790915593835260109091528120805490919061359190849061558b565b909155505033600081815260126020526040908190204290819055600254915163c307096160e01b81526001600160a01b039092169263c3070961926135dc92908a906004016155b7565b600060405180830381600087803b1580156135f657600080fd5b505af115801561360a573d6000803e3d6000fd5b5050604080518b8152602081018b90526001600160a01b03881693503392507ffdd3c7f97277c74c4b6edbc92d8cc9990e5292c35691ab6d711934ce79d885d8910160405180910390a350505050505061096f6001600055565b600254604051630c2eb40360e01b81523360048201526001600160a01b0390911690630c2eb40390602401602060405180830381865afa1580156136ac573d6000803e3d6000fd5b505050506040513d601f19601f820116820180604052508101906136d091906154aa565b6000036136ef5760405162461bcd60e51b8152600401610657906154c3565b6136f7613f05565b6003805460405163a3b1356160e01b8152600092839283926001600160a01b039091169163a3b1356191613738918891600401918252602082015260400190565b60c060405180830381865afa158015613755573d6000803e3d6000fd5b505050506040513d601f19601f8201168201806040525081019061377991906154fb565b505060038054604051630d08efab60e31b815260048101929092526001600160a01b03808416602484015295985093965090945092909116916368477d589150604401602060405180830381865afa1580156137d9573d6000803e3d6000fd5b505050506040513d601f19601f820116820180604052508101906137fd91906154aa565b6001146138415760405162461bcd60e51b81526020600482015260126024820152717352413a206e6f742063616e64696461746560701b6044820152606401610657565b6003546040805163f2a3b34360e01b8152905161388c926001600160a01b03169163f2a3b3439160048083019260209291908290030181865afa1580156107a7573d6000803e3d6000fd5b156138d05760405162461bcd60e51b81526020600482015260146024820152731cd4904e881d9bdd19481c195c9a5bd9081e595d60621b6044820152606401610657565b81156139165760405162461bcd60e51b81526020600482015260156024820152741cd4904e88185b1c9958591e48185c1c1c9bdd9959605a1b6044820152606401610657565b6000848152600960209081526040808320815160808101835281548152600182015493810193909352600281015491830182905260030154606083018190528391613961919061558b565b9050600260009054906101000a90046001600160a01b03166001600160a01b031663f6d5b2146040518163ffffffff1660e01b8152600401602060405180830381865afa1580156139b6573d6000803e3d6000fd5b505050506040513d601f19601f820116820180604052508101906139da91906154aa565b81101580156139ed575060208201518251115b15613aa85760038054604051633e28527360e21b8152600481018a90526024810192909252600160448301526001600160a01b03169063f8a149cc90606401600060405180830381600087803b158015613a4657600080fd5b505af1158015613a5a573d6000803e3d6000fd5b50506004600090815260116020527f251164fe1d8864fe5e86082eae9c288bc2b58695a4d28538dfe86e9e4f175585805460019450909250613a9d90849061558b565b90915550613bb59050565b60038054604051633e28527360e21b8152600481018a90526024810192909252600060448301526001600160a01b03169063f8a149cc90606401600060405180830381600087803b158015613afc57600080fd5b505af1158015613b10573d6000803e3d6000fd5b50505050600260009054906101000a90046001600160a01b03166001600160a01b031663f6d5b2146040518163ffffffff1660e01b8152600401602060405180830381865afa158015613b67573d6000803e3d6000fd5b505050506040513d601f19601f82011682018060405250810190613b8b91906154aa565b811015613b9b5760019250613bb5565b6020820151825111613bb05760029250613bb5565b600a92505b836001600160a01b03167f5e239e27aac57e5e17f8c8e47e011579df94f3e0b7d80522e5f2780687a93ba333858a604051611d76939291906155b7565b7f00000000000000000000000000000000000000000000000000000000000000006001600160a01b031663d5f394886040518163ffffffff1660e01b8152600401602060405180830381865afa158015613c50573d6000803e3d6000fd5b505050506040513d601f19601f82011682018060405250810190613c749190615645565b6001600160a01b0316336001600160a01b031614613cd45760405162461bcd60e51b815260206004820152601a60248201527f63616c6c6572206973206e6f7420746865206465706c6f7965720000000000006044820152606401610657565b6001546001600160a01b031615613d2d5760405162461bcd60e51b815260206004820152601960248201527f696e69743a20616c726561647920696e697469616c697a6564000000000000006044820152606401610657565b6001600160a01b03841615801590613d495750613d4984614efb565b613d8c5760405162461bcd60e51b8152602060048201526014602482015273696e69743a207a65726f20766162626c6544414f60601b6044820152606401610657565b600180546001600160a01b0319166001600160a01b0386811691909117909155831615801590613dc05750613dc083614efb565b613e055760405162461bcd60e51b81526020600482015260166024820152751a5b9a5d0e881e995c9bc81cdd185ada5b99d41bdbdb60521b6044820152606401610657565b600280546001600160a01b0319166001600160a01b0385811691909117909155821615801590613e395750613e3982614efb565b613e7b5760405162461bcd60e51b8152602060048201526013602482015272696e69743a207a65726f2070726f706572747960681b6044820152606401610657565b600380546001600160a01b0319166001600160a01b03848116919091179091558116613ee05760405162461bcd60e51b815260206004820152601460248201527334b734ba1d103d32b937903ab734a432b63832b960611b6044820152606401610657565b600480546001600160a01b0319166001600160a01b0392909216919091179055505050565b600260005403613f575760405162461bcd60e51b815260206004820152601f60248201527f5265656e7472616e637947756172643a207265656e7472616e742063616c6c006044820152606401610657565b6002600055565b600081600003613fa25760405162461bcd60e51b815260206004820152600f60248201526e7a65726f2073746172742074696d6560881b6044820152606401610657565b613fac8242615662565b8310613fba57506001612b29565b506000612b29565b600080600360009054906101000a90046001600160a01b03166001600160a01b03166306b25c7b6040518163ffffffff1660e01b8152600401602060405180830381865afa158015614018573d6000803e3d6000fd5b505050506040513d601f19601f8201168201806040525081019061403c91906154aa565b61404790600261562e565b905060007f00000000000000000000000000000000000000000000000000000000000000006001600160a01b031663fa5692746040518163ffffffff1660e01b8152600401602060405180830381865afa1580156140a9573d6000803e3d6000fd5b505050506040513d601f19601f820116820180604052508101906140cd9190615645565b905060007f00000000000000000000000000000000000000000000000000000000000000006001600160a01b031663e2f6f5116040518163ffffffff1660e01b8152600401602060405180830381865afa15801561412f573d6000803e3d6000fd5b505050506040513d601f19601f820116820180604052508101906141539190615645565b60048054604051637777136760e11b81529182018690526001600160a01b0385811660248401528084166044840152929350600092169063eeee26ce90606401602060405180830381865afa1580156141b0573d6000803e3d6000fd5b505050506040513d601f19601f820116820180604052508101906141d491906154aa565b905060008111801561424e57506040516370a0823160e01b815233600482015281906001600160a01b038416906370a0823190602401602060405180830381865afa158015614227573d6000803e3d6000fd5b505050506040513d601f19601f8201168201806040525081019061424b91906154aa565b10155b156143be5761425f82333084614f0f565b600254604051636eb1769f60e11b81523060048201526001600160a01b0391821660248201529083169063dd62ed3e90604401602060405180830381865afa1580156142af573d6000803e3d6000fd5b505050506040513d601f19601f820116820180604052508101906142d391906154aa565b60000361435b5761435b82600260009054906101000a90046001600160a01b0316846001600160a01b03166318160ddd6040518163ffffffff1660e01b8152600401602060405180830381865afa158015614332573d6000803e3d6000fd5b505050506040513d601f19601f8201168201806040525081019061435691906154aa565b615083565b600254604051633a53ed4960e01b8152600481018390526001600160a01b0390911690633a53ed4990602401600060405180830381600087803b1580156143a157600080fd5b505af11580156143b5573d6000803e3d6000fd5b50505050600194505b5050505090565b60015460405163cb3a606360e01b8152600481018490526001600160a01b039091169063cb3a606390602401602060405180830381865afa15801561440e573d6000803e3d6000fd5b505050506040513d601f19601f820116820180604052508101906144329190615645565b6001600160a01b0316330361447a5760405162461bcd60e51b815260206004820152600e60248201526d3b231d103334b6369037bbb732b960911b6044820152606401610657565b33600090815260066020908152604080832085845290915290205460ff16156144d95760405162461bcd60e51b81526020600482015260116024820152701d918e88185b1c9958591e481d9bdd1959607a1b6044820152606401610657565b80600114806144e85750806002145b6145285760405162461bcd60e51b815260206004820152601160248201527076463a2062616420766f746520696e666f60781b6044820152606401610657565b60015460405163d5443afd60e01b8152600481018490526000916001600160a01b03169063d5443afd90602401602060405180830381865afa158015614572573d6000803e3d6000fd5b505050506040513d601f19601f820116820180604052508101906145969190615675565b905060018160058111156145ac576145ac61555f565b146145ec5760405162461bcd60e51b815260206004820152601060248201526f76463a206e6f7420757064617465643160801b6044820152606401610657565b6001546040516307bcd52b60e41b8152600481018590526000916001600160a01b031690637bcd52b0906024016040805180830381865afa158015614635573d6000803e3d6000fd5b505050506040513d601f19601f820116820180604052508101906146599190615690565b5090508060000361469f5760405162461bcd60e51b815260206004820152601060248201526f3b231d103737ba103ab83230ba32b21960811b6044820152606401610657565b600354604080516341d4e35160e01b81529051614714926001600160a01b0316916341d4e3519160048083019260209291908290030181865afa1580156146ea573d6000803e3d6000fd5b505050506040513d601f19601f8201168201806040525081019061470e91906154aa565b82613f5e565b6147555760405162461bcd60e51b81526020600482015260126024820152711d918e88195b185c1cd959081c195c9a5bd960721b6044820152606401610657565b600254604051630c2eb40360e01b81523360048201526000916001600160a01b031690630c2eb40390602401602060405180830381865afa15801561479e573d6000803e3d6000fd5b505050506040513d601f19601f820116820180604052508101906147c291906154aa565b600154604051630b1b2acd60e21b8152600481018890529192506000916001600160a01b0390911690632c6cab3490602401608060405180830381865afa158015614811573d6000803e3d6000fd5b505050506040513d601f19601f8201168201806040525081019061483591906156b4565b50925050508060000361494f57600354604051630d08efab60e31b8152600260048201523360248201526001600160a01b03909116906368477d5890604401602060405180830381865afa158015614891573d6000803e3d6000fd5b505050506040513d601f19601f820116820180604052508101906148b591906154aa565b60020361494f576003546040805163c4ad4fbd60e01b815290516402540be400926001600160a01b03169163c4ad4fbd9160048083019260209291908290030181865afa15801561490a573d6000803e3d6000fd5b505050506040513d601f19601f8201168201806040525081019061492e91906154aa565b614938908461562e565b61494291906156ea565b61494c908361558b565b91505b6000868152600560205260409020600186900361499b578281600001600082825461497a919061558b565b90915550506002810180549060006149918361559e565b91905055506149cc565b828160010160008282546149af919061558b565b90915550506003810180549060006149c68361559e565b91905055505b336000908152600f602052604081208054600192906149ec90849061558b565b90915550503360008181526006602090815260408083208b84528252808320805460ff191660011790558383526012825280832042908190556002548c855260139093529281902054905163c307096160e01b81526001600160a01b03929092169363c307096193614a6493919290916004016155b7565b600060405180830381600087803b158015614a7e57600080fd5b505af1158015614a92573d6000803e3d6000fd5b50506040518881528992503391507fdbf10449ce071df06094e2cbfa4bfd3fd0c25bc88d073adc57898fd019a5de199060200160405180910390a350505050505050565b6000818152600560209081526040808320815160808101835281548152600180830154948201949094526002820154818401526003909101546060820152915490516307bcd52b60e41b81526004810185905291929182916001600160a01b031690637bcd52b0906024016040805180830381865afa158015614b5d573d6000803e3d6000fd5b505050506040513d601f19601f82011682018060405250810190614b819190615690565b91509150614c05600360009054906101000a90046001600160a01b03166001600160a01b03166341d4e3516040518163ffffffff1660e01b8152600401602060405180830381865afa158015614bdb573d6000803e3d6000fd5b505050506040513d601f19601f82011682018060405250810190614bff91906154aa565b83613f5e565b15614c485760405162461bcd60e51b815260206004820152601360248201527218518e881d9bdd19481c195c9a5bd9081e595d606a1b6044820152606401610657565b8015614c8d5760405162461bcd60e51b815260206004820152601460248201527318518e88185b1c9958591e48185c1c1c9bdd995960621b6044820152606401610657565b600154604051630b1b2acd60e21b8152600481018690526000916001600160a01b031690632c6cab3490602401608060405180830381865afa158015614cd7573d6000803e3d6000fd5b505050506040513d601f19601f82011682018060405250810190614cfb91906156b4565b509250505060008085606001518660400151614d17919061558b565b9050600260009054906101000a90046001600160a01b03166001600160a01b031663f6d5b2146040518163ffffffff1660e01b8152600401602060405180830381865afa158015614d6c573d6000803e3d6000fd5b505050506040513d601f19601f82011682018060405250810190614d9091906154aa565b8110158015614da3575060208601518651115b15614db15760009150614e52565b600260009054906101000a90046001600160a01b03166001600160a01b031663f6d5b2146040518163ffffffff1660e01b8152600401602060405180830381865afa158015614e04573d6000803e3d6000fd5b505050506040513d601f19601f82011682018060405250810190614e2891906154aa565b811015614e385760019150614e52565b6020860151865111614e4d5760029150614e52565b600a91505b600154604051633f06691760e01b815260048101899052602481018490526001600160a01b0390911690633f06691790604401600060405180830381600087803b158015614e9f57600080fd5b505af1158015614eb3573d6000803e3d6000fd5b505060408051868152602081018690528a93507f8bf0593638b00824727662ea8e6c8e8ff543604486a12d9523014e37aff31a4192500160405180910390a250505050505050565b60006001600160a01b0382163b1515612b29565b6001600160a01b0384163b614f4a5760405162461bcd60e51b81526020600482015260016024820152604360f81b6044820152606401610657565b604080516001600160a01b0385811660248301528481166044830152606480830185905283518084039091018152608490920183526020820180516001600160e01b03166323b872dd60e01b1790529151600092839290881691614fae919061570c565b6000604051808303816000865af19150503d8060008114614feb576040519150601f19603f3d011682016040523d82523d6000602084013e614ff0565b606091505b509150915081801561501a57508051158061501a57508080602001905181019061501a919061573b565b61507b5760405162461bcd60e51b815260206004820152602c60248201527f566162626c6544414f3a3a7472616e7366657246726f6d3a207472616e73666560448201526b1c919c9bdb4819985a5b195960a21b6064820152608401610657565b505050505050565b6001600160a01b0383163b6150be5760405162461bcd60e51b81526020600482015260016024820152604360f81b6044820152606401610657565b604080516001600160a01b038481166024830152604480830185905283518084039091018152606490920183526020820180516001600160e01b031663095ea7b360e01b179052915160009283929087169161511a919061570c565b6000604051808303816000865af19150503d8060008114615157576040519150601f19603f3d011682016040523d82523d6000602084013e61515c565b606091505b5091509150818015615186575080511580615186575080806020019051810190615186919061573b565b6151e65760405162461bcd60e51b815260206004820152602b60248201527f5472616e7366657248656c7065723a3a73616665417070726f76653a2061707060448201526a1c9bdd994819985a5b195960aa1b6064820152608401610657565b5050505050565b6001600160a01b03811681146118a157600080fd5b6000806040838503121561521557600080fd5b8235615220816151ed565b946020939093013593505050565b6000806040838503121561524157600080fd5b50508035926020909101359150565b60006020828403121561526257600080fd5b813561526d816151ed565b9392505050565b80151581146118a157600080fd5b6000806040838503121561529557600080fd5b8235915060208301356152a781615274565b809150509250929050565b6000602082840312156152c457600080fd5b5035919050565b60008083601f8401126152dd57600080fd5b50813567ffffffffffffffff8111156152f557600080fd5b6020830191508360208260051b850101111561531057600080fd5b9250929050565b6000806000806040858703121561532d57600080fd5b843567ffffffffffffffff8082111561534557600080fd5b615351888389016152cb565b9096509450602087013591508082111561536a57600080fd5b50615377878288016152cb565b95989497509550505050565b6000806040838503121561539657600080fd5b8235915060208301356152a7816151ed565b6000806000606084860312156153bd57600080fd5b505081359360208301359350604090920135919050565b600080602083850312156153e757600080fd5b823567ffffffffffffffff8111156153fe57600080fd5b61540a858286016152cb565b90969095509350505050565b60008060006060848603121561542b57600080fd5b83359250602084013561543d816151ed565b929592945050506040919091013590565b6000806000806080858703121561546457600080fd5b843561546f816151ed565b9350602085013561547f816151ed565b9250604085013561548f816151ed565b9150606085013561549f816151ed565b939692955090935050565b6000602082840312156154bc57600080fd5b5051919050565b6020808252600a90820152692737ba1039ba30b5b2b960b11b604082015260600190565b8051600681106154f657600080fd5b919050565b60008060008060008060c0878903121561551457600080fd5b8651955060208701519450604087015193506060870151615534816151ed565b6080880151909350615545816151ed565b915061555360a088016154e7565b90509295509295509295565b634e487b7160e01b600052602160045260246000fd5b634e487b7160e01b600052601160045260246000fd5b80820180821115612b2957612b29615575565b6000600182016155b0576155b0615575565b5060010190565b6001600160a01b039390931683526020830191909152604082015260600190565b60008060008060008060c087890312156155f157600080fd5b865195506020870151945060408701519350606087015192506080870151615545816151ed565b634e487b7160e01b600052603260045260246000fd5b8082028115828204841417612b2957612b29615575565b60006020828403121561565757600080fd5b815161526d816151ed565b81810381811115612b2957612b29615575565b60006020828403121561568757600080fd5b61526d826154e7565b600080604083850312156156a357600080fd5b505080516020909101519092909150565b600080600080608085870312156156ca57600080fd5b505082516020840151604085015160609095015191969095509092509050565b60008261570757634e487b7160e01b600052601260045260246000fd5b500490565b6000825160005b8181101561572d5760208186018101518583015201615713565b506000920191825250919050565b60006020828403121561574d57600080fd5b815161526d8161527456fea264697066735822122065efce70eb174ae288ad9ceb1570a6a9626fdc6c5f5e3da00d2747c23f72e8d364736f6c63430008190033","linkReferences":{}},"methodIdentifiers":{"addFilmBoard(uint256)":"8128b65a","agentVoting(uint256)":"4e4274fd","approveFilms(uint256[])":"d0d8f588","disputeToAgent(uint256,bool)":"37b1dd28","filmBoardVoting(uint256)":"a1be7616","filmVoting(uint256)":"6ae582b5","getLastVoteTime(address)":"da081df0","govPassedVoteCount(uint256)":"7db6938a","initialize(address,address,address,address)":"f8c8765e","isAttendToAgentVote(address,uint256)":"e6a2566c","isAttendToBoardVote(address,uint256)":"0313ccaa","isAttendToFilmVote(address,uint256)":"b7a650f7","isAttendToPropertyVote(uint256,address,uint256)":"e9175c87","isAttendToRewardAddressVote(address,uint256)":"2f087c7b","isDoubleStaked(uint256,address)":"c0ade66d","propertyVoting(uint256,uint256)":"4935de33","replaceAuditor(uint256)":"561991fe","rewardAddressVoting(uint256)":"5cdf86eb","saveProposalWithFilm(uint256,uint256)":"0e6e6272","setDAORewardAddress(uint256)":"f3ca60a1","updateAgentStats(uint256)":"6c908b70","updateProperty(uint256,uint256)":"44e034cc","userFilmVoteCount(address)":"2e0f1f55","userGovernVoteCount(address)":"c97005bc","voteToAgent(uint256,uint256)":"eea14a15","voteToFilmBoard(uint256,uint256)":"44c51b85","voteToFilms(uint256[],uint256[])":"b8ae13a9","voteToProperty(uint256,uint256,uint256)":"c41daa3c","voteToRewardAddress(uint256,uint256)":"846ab18e"},"id":12}