{"abi":[{"type":"constructor","inputs":[{"name":"_ownable","type":"address","internalType":"address"},{"name":"_vabbleDAO","type":"address","internalType":"address"},{"name":"_vabbleFund","type":"address","internalType":"address"}],"stateMutability":"nonpayable"},{"type":"function","name":"baseUri","inputs":[],"outputs":[{"name":"","type":"string","internalType":"string"}],"stateMutability":"view"},{"type":"function","name":"collectionUri","inputs":[],"outputs":[{"name":"","type":"string","internalType":"string"}],"stateMutability":"view"},{"type":"function","name":"deployTierNFTContract","inputs":[{"name":"_filmId","type":"uint256","internalType":"uint256"},{"name":"_tier","type":"uint256","internalType":"uint256"},{"name":"_name","type":"string","internalType":"string"},{"name":"_symbol","type":"string","internalType":"string"}],"outputs":[],"stateMutability":"nonpayable"},{"type":"function","name":"getNFTOwner","inputs":[{"name":"_filmId","type":"uint256","internalType":"uint256"},{"name":"_tokenId","type":"uint256","internalType":"uint256"},{"name":"_tier","type":"uint256","internalType":"uint256"}],"outputs":[{"name":"","type":"address","internalType":"address"}],"stateMutability":"view"},{"type":"function","name":"getTierTokenIdList","inputs":[{"name":"_filmId","type":"uint256","internalType":"uint256"},{"name":"_tier","type":"uint256","internalType":"uint256"}],"outputs":[{"name":"","type":"uint256[]","internalType":"uint256[]"}],"stateMutability":"view"},{"type":"function","name":"getTokenUri","inputs":[{"name":"_filmId","type":"uint256","internalType":"uint256"},{"name":"_tokenId","type":"uint256","internalType":"uint256"},{"name":"_tier","type":"uint256","internalType":"uint256"}],"outputs":[{"name":"","type":"string","internalType":"string"}],"stateMutability":"view"},{"type":"function","name":"getTotalSupply","inputs":[{"name":"_filmId","type":"uint256","internalType":"uint256"},{"name":"_tier","type":"uint256","internalType":"uint256"}],"outputs":[{"name":"","type":"uint256","internalType":"uint256"}],"stateMutability":"view"},{"type":"function","name":"getUserTierNFTs","inputs":[{"name":"_user","type":"address","internalType":"address"}],"outputs":[{"name":"","type":"address[]","internalType":"address[]"}],"stateMutability":"view"},{"type":"function","name":"getUserTokenIdList","inputs":[{"name":"_filmId","type":"uint256","internalType":"uint256"},{"name":"_owner","type":"address","internalType":"address"},{"name":"_tier","type":"uint256","internalType":"uint256"}],"outputs":[{"name":"","type":"uint256[]","internalType":"uint256[]"}],"stateMutability":"view"},{"type":"function","name":"mintTierNft","inputs":[{"name":"_filmId","type":"uint256","internalType":"uint256"}],"outputs":[],"stateMutability":"nonpayable"},{"type":"function","name":"nftInfo","inputs":[{"name":"","type":"address","internalType":"address"}],"outputs":[{"name":"name","type":"string","internalType":"string"},{"name":"symbol","type":"string","internalType":"string"}],"stateMutability":"view"},{"type":"function","name":"setBaseURI","inputs":[{"name":"_baseUri","type":"string","internalType":"string"},{"name":"_collectionUri","type":"string","internalType":"string"}],"outputs":[],"stateMutability":"nonpayable"},{"type":"function","name":"setTierInfo","inputs":[{"name":"_filmId","type":"uint256","internalType":"uint256"},{"name":"_minAmounts","type":"uint256[]","internalType":"uint256[]"},{"name":"_maxAmounts","type":"uint256[]","internalType":"uint256[]"}],"outputs":[],"stateMutability":"nonpayable"},{"type":"function","name":"tierCount","inputs":[{"name":"","type":"uint256","internalType":"uint256"}],"outputs":[{"name":"","type":"uint256","internalType":"uint256"}],"stateMutability":"view"},{"type":"function","name":"tierInfo","inputs":[{"name":"","type":"uint256","internalType":"uint256"},{"name":"","type":"uint256","internalType":"uint256"}],"outputs":[{"name":"maxAmount","type":"uint256","internalType":"uint256"},{"name":"minAmount","type":"uint256","internalType":"uint256"}],"stateMutability":"view"},{"type":"function","name":"tierNFTContract","inputs":[{"name":"","type":"uint256","internalType":"uint256"},{"name":"","type":"uint256","internalType":"uint256"}],"outputs":[{"name":"","type":"address","internalType":"contract VabbleNFT"}],"stateMutability":"view"},{"type":"function","name":"tierNFTTokenList","inputs":[{"name":"","type":"uint256","internalType":"uint256"},{"name":"","type":"uint256","internalType":"uint256"},{"name":"","type":"uint256","internalType":"uint256"}],"outputs":[{"name":"","type":"uint256","internalType":"uint256"}],"stateMutability":"view"},{"type":"event","name":"TierERC721Created","inputs":[{"name":"nftCreator","type":"address","indexed":false,"internalType":"address"},{"name":"nftContract","type":"address","indexed":false,"internalType":"address"},{"name":"tier","type":"uint256","indexed":true,"internalType":"uint256"}],"anonymous":false},{"type":"event","name":"TierERC721Minted","inputs":[{"name":"nftContract","type":"address","indexed":false,"internalType":"address"},{"name":"tokenId","type":"uint256","indexed":true,"internalType":"uint256"},{"name":"receiver","type":"address","indexed":false,"internalType":"address"}],"anonymous":false},{"type":"event","name":"TierInfoSetted","inputs":[{"name":"filmOwner","type":"address","indexed":false,"internalType":"address"},{"name":"filmId","type":"uint256","indexed":true,"internalType":"uint256"},{"name":"tierCount","type":"uint256","indexed":false,"internalType":"uint256"}],"anonymous":false}],"bytecode":{"object":"0x60e06040523480156200001157600080fd5b5060405162007f9c38038062007f9c8339818101604052810190620000379190620002a4565b6001600081905550600073ffffffffffffffffffffffffffffffffffffffff168373ffffffffffffffffffffffffffffffffffffffff1603620000b1576040517f08c379a0000000000000000000000000000000000000000000000000000000008152600401620000a89062000361565b60405180910390fd5b8273ffffffffffffffffffffffffffffffffffffffff1660808173ffffffffffffffffffffffffffffffffffffffff1681525050600073ffffffffffffffffffffffffffffffffffffffff168273ffffffffffffffffffffffffffffffffffffffff160362000157576040517f08c379a00000000000000000000000000000000000000000000000000000000081526004016200014e90620003d3565b60405180910390fd5b8173ffffffffffffffffffffffffffffffffffffffff1660a08173ffffffffffffffffffffffffffffffffffffffff1681525050600073ffffffffffffffffffffffffffffffffffffffff168173ffffffffffffffffffffffffffffffffffffffff1603620001fd576040517f08c379a0000000000000000000000000000000000000000000000000000000008152600401620001f49062000445565b60405180910390fd5b8073ffffffffffffffffffffffffffffffffffffffff1660c08173ffffffffffffffffffffffffffffffffffffffff168152505050505062000467565b600080fd5b600073ffffffffffffffffffffffffffffffffffffffff82169050919050565b60006200026c826200023f565b9050919050565b6200027e816200025f565b81146200028a57600080fd5b50565b6000815190506200029e8162000273565b92915050565b600080600060608486031215620002c057620002bf6200023a565b5b6000620002d0868287016200028d565b9350506020620002e3868287016200028d565b9250506040620002f6868287016200028d565b9150509250925092565b600082825260208201905092915050565b7f6f776e61626c65436f6e74726163743a207a65726f2061646472657373000000600082015250565b600062000349601d8362000300565b9150620003568262000311565b602082019050919050565b600060208201905081810360008301526200037c816200033a565b9050919050565b7f64616f436f6e74726163743a207a65726f206164647265737300000000000000600082015250565b6000620003bb60198362000300565b9150620003c88262000383565b602082019050919050565b60006020820190508181036000830152620003ee81620003ac565b9050919050565b7f766162626c6546756e643a207a65726f20616464726573730000000000000000600082015250565b60006200042d60188362000300565b91506200043a82620003f5565b602082019050919050565b6000602082019050818103600083015262000460816200041e565b9050919050565b60805160a05160c051617ae2620004ba6000396000818161099201526116010152600081816106b2015281816107af0152818161085701528181610f76015261151d01526000610cd10152617ae26000f3fe60806040523480156200001157600080fd5b5060043610620001245760003560e01c80639abc832011620000b1578063defcd4b3116200007b578063defcd4b31462000346578063e9545b921462000368578063ee584da4146200039f578063f35aaffe14620003d5578063f40bfed9146200040b5762000124565b80639abc832014620002975780639d4d1a0414620002b9578063b02823f914620002f0578063bc27582914620003265762000124565b806349b3767411620000f357806349b3767414620002015780636790a9de14620002215780637dfa14be14620002415780638bbda6e714620002775762000124565b80632f315fe614620001295780634276c706146200015f57806348380a101462000195578063486eab5714620001cb575b600080fd5b62000147600480360381019062000141919062001e95565b62000441565b60405162000156919062001fbf565b60405180910390f35b6200017d600480360381019062000177919062001fe3565b62000514565b6040516200018c919062002050565b60405180910390f35b620001b36004803603810190620001ad91906200206d565b62000553565b604051620001c2919062002050565b60405180910390f35b620001e96004803603810190620001e391906200209f565b6200056b565b604051620001f8919062001fbf565b60405180910390f35b6200021f600480360381019062000219919062002154565b620005ea565b005b6200023f600480360381019062000239919062002355565b62000ccf565b005b6200025f60048036038101906200025991906200209f565b62000e93565b6040516200026e919062002050565b60405180910390f35b6200029560048036038101906200028f9190620023da565b62000f53565b005b620002a162001322565b604051620002b0919062002513565b60405180910390f35b620002d76004803603810190620002d191906200209f565b620013b8565b604051620002e792919062002537565b60405180910390f35b6200030e600480360381019062000308919062002564565b620013e9565b6040516200031d919062002664565b60405180910390f35b6200034460048036038101906200033e91906200206d565b620014b8565b005b62000350620019ba565b6040516200035f919062002513565b60405180910390f35b62000386600480360381019062000380919062002564565b62001a50565b6040516200039692919062002688565b60405180910390f35b620003bd6004803603810190620003b791906200209f565b62001b94565b604051620003cc91906200272e565b60405180910390f35b620003f36004803603810190620003ed919062001fe3565b62001bd6565b60405162000402919062002513565b60405180910390f35b62000429600480360381019062000423919062001fe3565b62001ca9565b6040516200043891906200275c565b60405180910390f35b606060076000858152602001908152602001600020600083815260200190815260200160002060009054906101000a900473ffffffffffffffffffffffffffffffffffffffff1673ffffffffffffffffffffffffffffffffffffffff166380971103846040518263ffffffff1660e01b8152600401620004c291906200275c565b600060405180830381865afa158015620004e0573d6000803e3d6000fd5b505050506040513d6000823e3d601f19601f820116820180604052508101906200050b919062002866565b90509392505050565b600860205282600052604060002060205281600052604060002081815481106200053d57600080fd5b9060005260206000200160009250925050505481565b60066020528060005260406000206000915090505481565b6060600860008481526020019081526020016000206000838152602001908152602001600020805480602002602001604051908101604052809291908181526020018280548015620005dd57602002820191906000526020600020905b815481526020019060010190808311620005c8575b5050505050905092915050565b620005f462001d77565b6000848490509050600081141580156200060f57506103e881105b62000651576040517f08c379a0000000000000000000000000000000000000000000000000000000008152600401620006489062002907565b60405180910390fd5b82829050811462000699576040517f08c379a0000000000000000000000000000000000000000000000000000000008152600401620006909062002979565b60405180910390fd5b3373ffffffffffffffffffffffffffffffffffffffff167f000000000000000000000000000000000000000000000000000000000000000073ffffffffffffffffffffffffffffffffffffffff1663cb3a6063886040518263ffffffff1660e01b81526004016200070b919062002050565b602060405180830381865afa15801562000729573d6000803e3d6000fd5b505050506040513d601f19601f820116820180604052508101906200074f9190620029b2565b73ffffffffffffffffffffffffffffffffffffffff1614620007a8576040517f08c379a00000000000000000000000000000000000000000000000000000000081526004016200079f9062002a34565b60405180910390fd5b60008060007f000000000000000000000000000000000000000000000000000000000000000073ffffffffffffffffffffffffffffffffffffffff16632c6cab348a6040518263ffffffff1660e01b815260040162000808919062002050565b608060405180830381865afa15801562000826573d6000803e3d6000fd5b505050506040513d601f19601f820116820180604052508101906200084c919062002a56565b5092509250925060007f000000000000000000000000000000000000000000000000000000000000000073ffffffffffffffffffffffffffffffffffffffff16637bcd52b08b6040518263ffffffff1660e01b8152600401620008b0919062002050565b6040805180830381865afa158015620008cd573d6000803e3d6000fd5b505050506040513d601f19601f82011682018060405250810190620008f3919062002ac8565b915050804262000904919062002b3e565b831062000948576040517f08c379a00000000000000000000000000000000000000000000000000000000081526004016200093f9062002bc9565b60405180910390fd5b600082036200098e576040517f08c379a0000000000000000000000000000000000000000000000000000000008152600401620009859062002c3b565b60405180910390fd5b60007f000000000000000000000000000000000000000000000000000000000000000073ffffffffffffffffffffffffffffffffffffffff166393b1138b8c6040518263ffffffff1660e01b8152600401620009eb919062002050565b602060405180830381865afa15801562000a09573d6000803e3d6000fd5b505050506040513d601f19601f8201168201806040525081019062000a2f919062002c5d565b90506000811415801562000a435750848110155b62000a85576040517f08c379a000000000000000000000000000000000000000000000000000000000815260040162000a7c9062002cdf565b60405180910390fd5b60005b8681101562000c505760008b8b8381811062000aa95762000aa862002d01565b5b905060200201350362000af3576040517f08c379a000000000000000000000000000000000000000000000000000000000815260040162000aea9062002d80565b60405180910390fd5b88888281811062000b095762000b0862002d01565b5b905060200201358b8b8381811062000b265762000b2562002d01565b5b90506020020135108062000b565750600089898381811062000b4d5762000b4c62002d01565b5b90506020020135145b62000b98576040517f08c379a000000000000000000000000000000000000000000000000000000000815260040162000b8f9062002df2565b60405180910390fd5b8a8a8281811062000bae5762000bad62002d01565b5b90506020020135600560008e8152602001908152602001600020600060018462000bd9919062002e14565b81526020019081526020016000206001018190555088888281811062000c045762000c0362002d01565b5b90506020020135600560008e8152602001908152602001600020600060018462000c2f919062002e14565b81526020019081526020016000206000018190555080600101905062000a88565b5085600660008d8152602001908152602001600020819055508a7f8cf6a53fc5d0e5e054fe035dae5fa939f063a7427770c3e3b28dd2a8d8a6cb2633600660008f81526020019081526020016000205460405162000cb092919062002e4f565b60405180910390a250505050505062000cc862001dc9565b5050505050565b7f000000000000000000000000000000000000000000000000000000000000000073ffffffffffffffffffffffffffffffffffffffff16633ec045a66040518163ffffffff1660e01b8152600401602060405180830381865afa15801562000d3b573d6000803e3d6000fd5b505050506040513d601f19601f8201168201806040525081019062000d619190620029b2565b73ffffffffffffffffffffffffffffffffffffffff163373ffffffffffffffffffffffffffffffffffffffff161462000dd1576040517f08c379a000000000000000000000000000000000000000000000000000000000815260040162000dc89062002ecc565b60405180910390fd5b6000829050600081510362000e1d576040517f08c379a000000000000000000000000000000000000000000000000000000000815260040162000e149062002f3e565b60405180910390fd5b6000829050600081510362000e69576040517f08c379a000000000000000000000000000000000000000000000000000000000815260040162000e609062002fb0565b60405180910390fd5b836001908162000e7a9190620031fe565b50826002908162000e8c9190620031fe565b5050505050565b600060076000848152602001908152602001600020600083815260200190815260200160002060009054906101000a900473ffffffffffffffffffffffffffffffffffffffff1673ffffffffffffffffffffffffffffffffffffffff166318160ddd6040518163ffffffff1660e01b8152600401602060405180830381865afa15801562000f25573d6000803e3d6000fd5b505050506040513d601f19601f8201168201806040525081019062000f4b919062002c5d565b905092915050565b62000f5d62001d77565b3373ffffffffffffffffffffffffffffffffffffffff167f000000000000000000000000000000000000000000000000000000000000000073ffffffffffffffffffffffffffffffffffffffff1663cb3a6063866040518263ffffffff1660e01b815260040162000fcf919062002050565b602060405180830381865afa15801562000fed573d6000803e3d6000fd5b505050506040513d601f19601f82011682018060405250810190620010139190620029b2565b73ffffffffffffffffffffffffffffffffffffffff16146200106c576040517f08c379a0000000000000000000000000000000000000000000000000000000008152600401620010639062003335565b60405180910390fd5b60008303620010b2576040517f08c379a0000000000000000000000000000000000000000000000000000000008152600401620010a990620033a7565b60405180910390fd5b600060056000868152602001908152602001600020600085815260200190815260200160002060010154036200111f576040517f08c379a0000000000000000000000000000000000000000000000000000000008152600401620011169062003419565b60405180910390fd5b600060016002848430604051620011369062001dd3565b62001146959493929190620034cb565b604051809103906000f08015801562001163573d6000803e3d6000fd5b5090508060076000878152602001908152602001600020600086815260200190815260200160002060006101000a81548173ffffffffffffffffffffffffffffffffffffffff021916908373ffffffffffffffffffffffffffffffffffffffff160217905550600460003373ffffffffffffffffffffffffffffffffffffffff1673ffffffffffffffffffffffffffffffffffffffff168152602001908152602001600020819080600181540180825580915050600190039060005260206000200160009091909190916101000a81548173ffffffffffffffffffffffffffffffffffffffff021916908373ffffffffffffffffffffffffffffffffffffffff1602179055506000600360008373ffffffffffffffffffffffffffffffffffffffff1673ffffffffffffffffffffffffffffffffffffffff168152602001908152602001600020905083816000019081620012bf9190620031fe565b5082816001019081620012d39190620031fe565b50847ff6f691af70bf0f12df78809c3904446967256ba7a30057b3aa09cbceaa3b125b33846040516200130892919062003544565b60405180910390a250506200131c62001dc9565b50505050565b60018054620013319062003001565b80601f01602080910402602001604051908101604052809291908181526020018280546200135f9062003001565b8015620013b05780601f106200138457610100808354040283529160200191620013b0565b820191906000526020600020905b8154815290600101906020018083116200139257829003601f168201915b505050505081565b6005602052816000526040600020602052806000526040600020600091509150508060000154908060010154905082565b6060600460008373ffffffffffffffffffffffffffffffffffffffff1673ffffffffffffffffffffffffffffffffffffffff168152602001908152602001600020805480602002602001604051908101604052809291908181526020018280548015620014ac57602002820191906000526020600020905b8160009054906101000a900473ffffffffffffffffffffffffffffffffffffffff1673ffffffffffffffffffffffffffffffffffffffff168152602001906001019080831162001461575b50505050509050919050565b620014c262001d77565b60006006600083815260200190815260200160002054036200151b576040517f08c379a00000000000000000000000000000000000000000000000000000000081526004016200151290620035c1565b60405180910390fd5b7f000000000000000000000000000000000000000000000000000000000000000073ffffffffffffffffffffffffffffffffffffffff1663c330686c826040518263ffffffff1660e01b815260040162001576919062002050565b602060405180830381865afa15801562001594573d6000803e3d6000fd5b505050506040513d601f19601f82011682018060405250810190620015ba919062003620565b620015fc576040517f08c379a0000000000000000000000000000000000000000000000000000000008152600401620015f390620036c8565b60405180910390fd5b6000807f000000000000000000000000000000000000000000000000000000000000000073ffffffffffffffffffffffffffffffffffffffff1663e4ed62ff33856040518363ffffffff1660e01b81526004016200165c92919062002e4f565b602060405180830381865afa1580156200167a573d6000803e3d6000fd5b505050506040513d601f19601f82011682018060405250810190620016a0919062002c5d565b90506000600190505b60066000858152602001908152602001600020548111620017b4576000600560008681526020019081526020016000206000838152602001908152602001600020600001540362001732578160056000868152602001908152602001600020600083815260200190815260200160002060010154106200172c57809250620017b4565b620017a0565b6005600085815260200190815260200160002060008281526020019081526020016000206001015482101580156200179057506005600085815260200190815260200160002060008281526020019081526020016000206000015482105b156200179f57809250620017b4565b5b80620017ac90620036ea565b9050620016a9565b5060008203620017fb576040517f08c379a0000000000000000000000000000000000000000000000000000000008152600401620017f29062003787565b60405180910390fd5b60006200180a84338562000441565b9050600081511462001853576040517f08c379a00000000000000000000000000000000000000000000000000000000081526004016200184a90620037f9565b60405180910390fd5b600060076000868152602001908152602001600020600085815260200190815260200160002060009054906101000a900473ffffffffffffffffffffffffffffffffffffffff16905060008173ffffffffffffffffffffffffffffffffffffffff1663755edd17336040518263ffffffff1660e01b8152600401620018d991906200275c565b6020604051808303816000875af1158015620018f9573d6000803e3d6000fd5b505050506040513d601f19601f820116820180604052508101906200191f919062002c5d565b9050600860008781526020019081526020016000206000868152602001908152602001600020819080600181540180825580915050600190039060005260206000200160009091909190915055807f40dcec50614e0f57bbe5c4a61c9db9ac56a25080ee9fdf71f88ff864e51712cb8333604051620019a092919062003544565b60405180910390a25050505050620019b762001dc9565b50565b60028054620019c99062003001565b80601f0160208091040260200160405190810160405280929190818152602001828054620019f79062003001565b801562001a485780601f1062001a1c5761010080835404028352916020019162001a48565b820191906000526020600020905b81548152906001019060200180831162001a2a57829003601f168201915b505050505081565b600360205280600052604060002060009150905080600001805462001a759062003001565b80601f016020809104026020016040519081016040528092919081815260200182805462001aa39062003001565b801562001af45780601f1062001ac85761010080835404028352916020019162001af4565b820191906000526020600020905b81548152906001019060200180831162001ad657829003601f168201915b50505050509080600101805462001b0b9062003001565b80601f016020809104026020016040519081016040528092919081815260200182805462001b399062003001565b801562001b8a5780601f1062001b5e5761010080835404028352916020019162001b8a565b820191906000526020600020905b81548152906001019060200180831162001b6c57829003601f168201915b5050505050905082565b60076020528160005260406000206020528060005260406000206000915091509054906101000a900473ffffffffffffffffffffffffffffffffffffffff1681565b606060076000858152602001908152602001600020600083815260200190815260200160002060009054906101000a900473ffffffffffffffffffffffffffffffffffffffff1673ffffffffffffffffffffffffffffffffffffffff1663c87b56dd846040518263ffffffff1660e01b815260040162001c57919062002050565b600060405180830381865afa15801562001c75573d6000803e3d6000fd5b505050506040513d6000823e3d601f19601f8201168201806040525081019062001ca0919062003899565b90509392505050565b600060076000858152602001908152602001600020600083815260200190815260200160002060009054906101000a900473ffffffffffffffffffffffffffffffffffffffff1673ffffffffffffffffffffffffffffffffffffffff16636352211e846040518263ffffffff1660e01b815260040162001d2a919062002050565b602060405180830381865afa15801562001d48573d6000803e3d6000fd5b505050506040513d601f19601f8201168201806040525081019062001d6e9190620029b2565b90509392505050565b60026000540362001dbf576040517f08c379a000000000000000000000000000000000000000000000000000000000815260040162001db6906200393a565b60405180910390fd5b6002600081905550565b6001600081905550565b614150806200395d83390190565b6000604051905090565b600080fd5b600080fd5b6000819050919050565b62001e0a8162001df5565b811462001e1657600080fd5b50565b60008135905062001e2a8162001dff565b92915050565b600073ffffffffffffffffffffffffffffffffffffffff82169050919050565b600062001e5d8262001e30565b9050919050565b62001e6f8162001e50565b811462001e7b57600080fd5b50565b60008135905062001e8f8162001e64565b92915050565b60008060006060848603121562001eb15762001eb062001deb565b5b600062001ec18682870162001e19565b935050602062001ed48682870162001e7e565b925050604062001ee78682870162001e19565b9150509250925092565b600081519050919050565b600082825260208201905092915050565b6000819050602082019050919050565b62001f288162001df5565b82525050565b600062001f3c838362001f1d565b60208301905092915050565b6000602082019050919050565b600062001f628262001ef1565b62001f6e818562001efc565b935062001f7b8362001f0d565b8060005b8381101562001fb257815162001f96888262001f2e565b975062001fa38362001f48565b92505060018101905062001f7f565b5085935050505092915050565b6000602082019050818103600083015262001fdb818462001f55565b905092915050565b60008060006060848603121562001fff5762001ffe62001deb565b5b60006200200f8682870162001e19565b9350506020620020228682870162001e19565b9250506040620020358682870162001e19565b9150509250925092565b6200204a8162001df5565b82525050565b60006020820190506200206760008301846200203f565b92915050565b60006020828403121562002086576200208562001deb565b5b6000620020968482850162001e19565b91505092915050565b60008060408385031215620020b957620020b862001deb565b5b6000620020c98582860162001e19565b9250506020620020dc8582860162001e19565b9150509250929050565b600080fd5b600080fd5b600080fd5b60008083601f8401126200210e576200210d620020e6565b5b8235905067ffffffffffffffff8111156200212e576200212d620020eb565b5b6020830191508360208202830111156200214d576200214c620020f0565b5b9250929050565b60008060008060006060868803121562002173576200217262001deb565b5b6000620021838882890162001e19565b955050602086013567ffffffffffffffff811115620021a757620021a662001df0565b5b620021b588828901620020f5565b9450945050604086013567ffffffffffffffff811115620021db57620021da62001df0565b5b620021e988828901620020f5565b92509250509295509295909350565b600080fd5b6000601f19601f8301169050919050565b7f4e487b7100000000000000000000000000000000000000000000000000000000600052604160045260246000fd5b6200224882620021fd565b810181811067ffffffffffffffff821117156200226a57620022696200220e565b5b80604052505050565b60006200227f62001de1565b90506200228d82826200223d565b919050565b600067ffffffffffffffff821115620022b057620022af6200220e565b5b620022bb82620021fd565b9050602081019050919050565b82818337600083830152505050565b6000620022ee620022e88462002292565b62002273565b9050828152602081018484840111156200230d576200230c620021f8565b5b6200231a848285620022c8565b509392505050565b600082601f8301126200233a5762002339620020e6565b5b81356200234c848260208601620022d7565b91505092915050565b600080604083850312156200236f576200236e62001deb565b5b600083013567ffffffffffffffff81111562002390576200238f62001df0565b5b6200239e8582860162002322565b925050602083013567ffffffffffffffff811115620023c257620023c162001df0565b5b620023d08582860162002322565b9150509250929050565b60008060008060808587031215620023f757620023f662001deb565b5b6000620024078782880162001e19565b94505060206200241a8782880162001e19565b935050604085013567ffffffffffffffff8111156200243e576200243d62001df0565b5b6200244c8782880162002322565b925050606085013567ffffffffffffffff81111562002470576200246f62001df0565b5b6200247e8782880162002322565b91505092959194509250565b600081519050919050565b600082825260208201905092915050565b60005b83811015620024c6578082015181840152602081019050620024a9565b60008484015250505050565b6000620024df826200248a565b620024eb818562002495565b9350620024fd818560208601620024a6565b6200250881620021fd565b840191505092915050565b600060208201905081810360008301526200252f8184620024d2565b905092915050565b60006040820190506200254e60008301856200203f565b6200255d60208301846200203f565b9392505050565b6000602082840312156200257d576200257c62001deb565b5b60006200258d8482850162001e7e565b91505092915050565b600081519050919050565b600082825260208201905092915050565b6000819050602082019050919050565b620025cd8162001e50565b82525050565b6000620025e18383620025c2565b60208301905092915050565b6000602082019050919050565b6000620026078262002596565b620026138185620025a1565b93506200262083620025b2565b8060005b83811015620026575781516200263b8882620025d3565b97506200264883620025ed565b92505060018101905062002624565b5085935050505092915050565b60006020820190508181036000830152620026808184620025fa565b905092915050565b60006040820190508181036000830152620026a48185620024d2565b90508181036020830152620026ba8184620024d2565b90509392505050565b6000819050919050565b6000620026ee620026e8620026e28462001e30565b620026c3565b62001e30565b9050919050565b60006200270282620026cd565b9050919050565b60006200271682620026f5565b9050919050565b620027288162002709565b82525050565b60006020820190506200274560008301846200271d565b92915050565b620027568162001e50565b82525050565b60006020820190506200277360008301846200274b565b92915050565b600067ffffffffffffffff8211156200279757620027966200220e565b5b602082029050602081019050919050565b600081519050620027b98162001dff565b92915050565b6000620027d6620027d08462002779565b62002273565b90508083825260208201905060208402830185811115620027fc57620027fb620020f0565b5b835b81811015620028295780620028148882620027a8565b845260208401935050602081019050620027fe565b5050509392505050565b600082601f8301126200284b576200284a620020e6565b5b81516200285d848260208601620027bf565b91505092915050565b6000602082840312156200287f576200287e62001deb565b5b600082015167ffffffffffffffff811115620028a0576200289f62001df0565b5b620028ae8482850162002833565b91505092915050565b7f736574546965723a20626164206d696e416d6f756e74206c656e677468000000600082015250565b6000620028ef601d8362002495565b9150620028fc82620028b7565b602082019050919050565b600060208201905081810360008301526200292281620028e0565b9050919050565b7f736574546965723a20626164206d6178416d6f756e74206c656e677468000000600082015250565b600062002961601d8362002495565b91506200296e8262002929565b602082019050919050565b60006020820190508181036000830152620029948162002952565b9050919050565b600081519050620029ac8162001e64565b92915050565b600060208284031215620029cb57620029ca62001deb565b5b6000620029db848285016200299b565b91505092915050565b7f736574546965723a206e6f742066696c6d206f776e6572000000000000000000600082015250565b600062002a1c60178362002495565b915062002a2982620029e4565b602082019050919050565b6000602082019050818103600083015262002a4f8162002a0d565b9050919050565b6000806000806080858703121562002a735762002a7262001deb565b5b600062002a8387828801620027a8565b945050602062002a9687828801620027a8565b935050604062002aa987828801620027a8565b925050606062002abc87828801620027a8565b91505092959194509250565b6000806040838503121562002ae25762002ae162001deb565b5b600062002af285828601620027a8565b925050602062002b0585828601620027a8565b9150509250929050565b7f4e487b7100000000000000000000000000000000000000000000000000000000600052601160045260246000fd5b600062002b4b8262001df5565b915062002b588362001df5565b925082820390508181111562002b735762002b7262002b0f565b5b92915050565b7f736574546965723a2066756e6420706572696f64207965740000000000000000600082015250565b600062002bb160188362002495565b915062002bbe8262002b79565b602082019050919050565b6000602082019050818103600083015262002be48162002ba2565b9050919050565b7f736574546965723a206e6f742066756e642066696c6d00000000000000000000600082015250565b600062002c2360168362002495565b915062002c308262002beb565b602082019050919050565b6000602082019050818103600083015262002c568162002c14565b9050919050565b60006020828403121562002c765762002c7562001deb565b5b600062002c8684828501620027a8565b91505092915050565b7f736574546965723a206e6f742072616973656420796574000000000000000000600082015250565b600062002cc760178362002495565b915062002cd48262002c8f565b602082019050919050565b6000602082019050818103600083015262002cfa8162002cb8565b9050919050565b7f4e487b7100000000000000000000000000000000000000000000000000000000600052603260045260246000fd5b7f736574546965723a207a65726f2076616c756500000000000000000000000000600082015250565b600062002d6860138362002495565b915062002d758262002d30565b602082019050919050565b6000602082019050818103600083015262002d9b8162002d59565b9050919050565b7f736574546965723a20696e76616c6964206d696e2f6d61782076616c75650000600082015250565b600062002dda601e8362002495565b915062002de78262002da2565b602082019050919050565b6000602082019050818103600083015262002e0d8162002dcb565b9050919050565b600062002e218262001df5565b915062002e2e8362001df5565b925082820190508082111562002e495762002e4862002b0f565b5b92915050565b600060408201905062002e6660008301856200274b565b62002e7560208301846200203f565b9392505050565b7f63616c6c6572206973206e6f74207468652061756469746f7200000000000000600082015250565b600062002eb460198362002495565b915062002ec18262002e7c565b602082019050919050565b6000602082019050818103600083015262002ee78162002ea5565b9050919050565b7f656d707479206261736555726900000000000000000000000000000000000000600082015250565b600062002f26600d8362002495565b915062002f338262002eee565b602082019050919050565b6000602082019050818103600083015262002f598162002f17565b9050919050565b7f656d70747920636f6c6c656374696f6e55726900000000000000000000000000600082015250565b600062002f9860138362002495565b915062002fa58262002f60565b602082019050919050565b6000602082019050818103600083015262002fcb8162002f89565b9050919050565b7f4e487b7100000000000000000000000000000000000000000000000000000000600052602260045260246000fd5b600060028204905060018216806200301a57607f821691505b60208210810362003030576200302f62002fd2565b5b50919050565b60008190508160005260206000209050919050565b60006020601f8301049050919050565b600082821b905092915050565b6000600883026200309a7fffffffffffffffffffffffffffffffffffffffffffffffffffffffffffffffff826200305b565b620030a686836200305b565b95508019841693508086168417925050509392505050565b6000620030df620030d9620030d38462001df5565b620026c3565b62001df5565b9050919050565b6000819050919050565b620030fb83620030be565b620031136200310a82620030e6565b84845462003068565b825550505050565b600090565b6200312a6200311b565b62003137818484620030f0565b505050565b5b818110156200315f576200315360008262003120565b6001810190506200313d565b5050565b601f821115620031ae57620031788162003036565b62003183846200304b565b8101602085101562003193578190505b620031ab620031a2856200304b565b8301826200313c565b50505b505050565b600082821c905092915050565b6000620031d360001984600802620031b3565b1980831691505092915050565b6000620031ee8383620031c0565b9150826002028217905092915050565b62003209826200248a565b67ffffffffffffffff8111156200322557620032246200220e565b5b62003231825462003001565b6200323e82828562003163565b600060209050601f83116001811462003276576000841562003261578287015190505b6200326d8582620031e0565b865550620032dd565b601f198416620032868662003036565b60005b82811015620032b05784890151825560018201915060208501945060208101905062003289565b86831015620032d05784890151620032cc601f891682620031c0565b8355505b6001600288020188555050505b505050505050565b7f6465706c6f79546965723a206e6f742066696c6d206f776e6572000000000000600082015250565b60006200331d601a8362002495565b91506200332a82620032e5565b602082019050919050565b6000602082019050818103600083015262003350816200330e565b9050919050565b7f6465706c6f79546965723a207a65726f20746965720000000000000000000000600082015250565b60006200338f60158362002495565b91506200339c8262003357565b602082019050919050565b60006020820190508181036000830152620033c28162003380565b9050919050565b7f6465706c6f79546965723a206e6f742073657420746965720000000000000000600082015250565b60006200340160188362002495565b91506200340e82620033c9565b602082019050919050565b600060208201905081810360008301526200343481620033f2565b9050919050565b600081546200344a8162003001565b62003456818662002495565b945060018216600081146200347457600181146200348b57620034c2565b60ff198316865281151560200286019350620034c2565b620034968562003036565b60005b83811015620034ba5781548189015260018201915060208101905062003499565b808801955050505b50505092915050565b600060a0820190508181036000830152620034e781886200343b565b90508181036020830152620034fd81876200343b565b90508181036040830152620035138186620024d2565b90508181036060830152620035298185620024d2565b90506200353a60808301846200274b565b9695505050505050565b60006040820190506200355b60008301856200274b565b6200356a60208301846200274b565b9392505050565b7f6d696e74546965723a206e6f7420736574207469657200000000000000000000600082015250565b6000620035a960168362002495565b9150620035b68262003571565b602082019050919050565b60006020820190508181036000830152620035dc816200359a565b9050919050565b60008115159050919050565b620035fa81620035e3565b81146200360657600080fd5b50565b6000815190506200361a81620035ef565b92915050565b60006020828403121562003639576200363862001deb565b5b6000620036498482850162003609565b91505092915050565b7f6465706c6f79546965723a206e6f7420616c6c6f7720746f206d696e7420746960008201527f65724e6674000000000000000000000000000000000000000000000000000000602082015250565b6000620036b060258362002495565b9150620036bd8262003652565b604082019050919050565b60006020820190508181036000830152620036e381620036a1565b9050919050565b6000620036f78262001df5565b91507fffffffffffffffffffffffffffffffffffffffffffffffffffffffffffffffff82036200372c576200372b62002b0f565b5b600182019050919050565b7f6d696e74546965723a2062616420696e766573746f7200000000000000000000600082015250565b60006200376f60168362002495565b91506200377c8262003737565b602082019050919050565b60006020820190508181036000830152620037a28162003760565b9050919050565b7f6d696e74546965723a20616c7265616479206d696e7465640000000000000000600082015250565b6000620037e160188362002495565b9150620037ee82620037a9565b602082019050919050565b600060208201905081810360008301526200381481620037d2565b9050919050565b6000620038326200382c8462002292565b62002273565b905082815260208101848484011115620038515762003850620021f8565b5b6200385e848285620024a6565b509392505050565b600082601f8301126200387e576200387d620020e6565b5b8151620038908482602086016200381b565b91505092915050565b600060208284031215620038b257620038b162001deb565b5b600082015167ffffffffffffffff811115620038d357620038d262001df0565b5b620038e18482850162003866565b91505092915050565b7f5265656e7472616e637947756172643a207265656e7472616e742063616c6c00600082015250565b600062003922601f8362002495565b91506200392f82620038ea565b602082019050919050565b60006020820190508181036000830152620039558162003913565b905091905056fe60a06040523480156200001157600080fd5b5060405162004150380380620041508339818101604052810190620000379190620002c2565b828281600290816200004a919062000611565b5080600390816200005c919062000611565b5050506001600c8190555084600e908162000078919062000611565b5083600f90816200008a919062000611565b508073ffffffffffffffffffffffffffffffffffffffff1660808173ffffffffffffffffffffffffffffffffffffffff16815250505050505050620006f8565b6000604051905090565b600080fd5b600080fd5b600080fd5b600080fd5b6000601f19601f8301169050919050565b7f4e487b7100000000000000000000000000000000000000000000000000000000600052604160045260246000fd5b6200013382620000e8565b810181811067ffffffffffffffff82111715620001555762000154620000f9565b5b80604052505050565b60006200016a620000ca565b905062000178828262000128565b919050565b600067ffffffffffffffff8211156200019b576200019a620000f9565b5b620001a682620000e8565b9050602081019050919050565b60005b83811015620001d3578082015181840152602081019050620001b6565b60008484015250505050565b6000620001f6620001f0846200017d565b6200015e565b905082815260208101848484011115620002155762000214620000e3565b5b62000222848285620001b3565b509392505050565b600082601f830112620002425762000241620000de565b5b815162000254848260208601620001df565b91505092915050565b600073ffffffffffffffffffffffffffffffffffffffff82169050919050565b60006200028a826200025d565b9050919050565b6200029c816200027d565b8114620002a857600080fd5b50565b600081519050620002bc8162000291565b92915050565b600080600080600060a08688031215620002e157620002e0620000d4565b5b600086015167ffffffffffffffff811115620003025762000301620000d9565b5b62000310888289016200022a565b955050602086015167ffffffffffffffff811115620003345762000333620000d9565b5b62000342888289016200022a565b945050604086015167ffffffffffffffff811115620003665762000365620000d9565b5b62000374888289016200022a565b935050606086015167ffffffffffffffff811115620003985762000397620000d9565b5b620003a6888289016200022a565b9250506080620003b988828901620002ab565b9150509295509295909350565b600081519050919050565b7f4e487b7100000000000000000000000000000000000000000000000000000000600052602260045260246000fd5b600060028204905060018216806200041957607f821691505b6020821081036200042f576200042e620003d1565b5b50919050565b60008190508160005260206000209050919050565b60006020601f8301049050919050565b600082821b905092915050565b600060088302620004997fffffffffffffffffffffffffffffffffffffffffffffffffffffffffffffffff826200045a565b620004a586836200045a565b95508019841693508086168417925050509392505050565b6000819050919050565b6000819050919050565b6000620004f2620004ec620004e684620004bd565b620004c7565b620004bd565b9050919050565b6000819050919050565b6200050e83620004d1565b620005266200051d82620004f9565b84845462000467565b825550505050565b600090565b6200053d6200052e565b6200054a81848462000503565b505050565b5b8181101562000572576200056660008262000533565b60018101905062000550565b5050565b601f821115620005c1576200058b8162000435565b62000596846200044a565b81016020851015620005a6578190505b620005be620005b5856200044a565b8301826200054f565b50505b505050565b600082821c905092915050565b6000620005e660001984600802620005c6565b1980831691505092915050565b6000620006018383620005d3565b9150826002028217905092915050565b6200061c82620003c6565b67ffffffffffffffff811115620006385762000637620000f9565b5b62000644825462000400565b6200065182828562000576565b600060209050601f83116001811462000689576000841562000674578287015190505b620006808582620005f3565b865550620006f0565b601f198416620006998662000435565b60005b82811015620006c3578489015182556001820191506020850194506020810190506200069c565b86831015620006e35784890151620006df601f891682620005d3565b8355505b6001600288020188555050505b505050505050565b608051613a356200071b600039600081816109460152610be70152613a356000f3fe608060405234801561001057600080fd5b50600436106101585760003560e01c806370a08231116100c3578063a22cb4651161007c578063a22cb46514610414578063b88d4fde14610430578063c87b56dd1461044c578063defcd4b31461047c578063e8a3d4851461049a578063e985e9c5146104b857610158565b806370a082311461032c578063755edd171461035c578063809711031461038c5780639036c050146103bc57806395d89b41146103d85780639abc8320146103f657610158565b80632a55205a116101155780632a55205a146102315780632dd31000146102625780632f745c591461028057806342842e0e146102b05780634f6ccce7146102cc5780636352211e146102fc57610158565b806301ffc9a71461015d57806306fdde031461018d578063081812fc146101ab578063095ea7b3146101db57806318160ddd146101f757806323b872dd14610215575b600080fd5b6101776004803603810190610172919061263f565b6104e8565b6040516101849190612687565b60405180910390f35b6101956104fa565b6040516101a29190612732565b60405180910390f35b6101c560048036038101906101c0919061278a565b61058c565b6040516101d291906127f8565b60405180910390f35b6101f560048036038101906101f0919061283f565b6105d2565b005b6101ff6106e9565b60405161020c919061288e565b60405180910390f35b61022f600480360381019061022a91906128a9565b6106fa565b005b61024b600480360381019061024691906128fc565b61075a565b60405161025992919061293c565b60405180910390f35b61026a610944565b60405161027791906127f8565b60405180910390f35b61029a6004803603810190610295919061283f565b610968565b6040516102a7919061288e565b60405180910390f35b6102ca60048036038101906102c591906128a9565b610a0d565b005b6102e660048036038101906102e1919061278a565b610a2d565b6040516102f3919061288e565b60405180910390f35b6103166004803603810190610311919061278a565b610a9e565b60405161032391906127f8565b60405180910390f35b61034660048036038101906103419190612965565b610b24565b604051610353919061288e565b60405180910390f35b61037660048036038101906103719190612965565b610bdb565b604051610383919061288e565b60405180910390f35b6103a660048036038101906103a19190612965565b610c9a565b6040516103b39190612a50565b60405180910390f35b6103d660048036038101906103d19190612a72565b610d3c565b005b6103e0610d59565b6040516103ed9190612732565b60405180910390f35b6103fe610deb565b60405161040b9190612732565b60405180910390f35b61042e60048036038101906104299190612ade565b610e79565b005b61044a60048036038101906104459190612c53565b610e8f565b005b6104666004803603810190610461919061278a565b610ef1565b6040516104739190612732565b60405180910390f35b610484610f6d565b6040516104919190612732565b60405180910390f35b6104a2610ffb565b6040516104af9190612732565b60405180910390f35b6104d260048036038101906104cd9190612cd6565b61108d565b6040516104df9190612687565b60405180910390f35b60006104f382611121565b9050919050565b60606002805461050990612d45565b80601f016020809104026020016040519081016040528092919081815260200182805461053590612d45565b80156105825780601f1061055757610100808354040283529160200191610582565b820191906000526020600020905b81548152906001019060200180831161056557829003601f168201915b5050505050905090565b60006105978261119b565b6006600083815260200190815260200160002060009054906101000a900473ffffffffffffffffffffffffffffffffffffffff169050919050565b60006105dd82610a9e565b90508073ffffffffffffffffffffffffffffffffffffffff168373ffffffffffffffffffffffffffffffffffffffff160361064d576040517f08c379a000000000000000000000000000000000000000000000000000000000815260040161064490612de8565b60405180910390fd5b8073ffffffffffffffffffffffffffffffffffffffff1661066c6111e6565b73ffffffffffffffffffffffffffffffffffffffff16148061069b575061069a816106956111e6565b61108d565b5b6106da576040517f08c379a00000000000000000000000000000000000000000000000000000000081526004016106d190612e7a565b60405180910390fd5b6106e483836111ee565b505050565b60006106f5600d6112a7565b905090565b61070b6107056111e6565b826112b5565b61074a576040517f08c379a000000000000000000000000000000000000000000000000000000000815260040161074190612f0c565b60405180910390fd5b61075583838361134a565b505050565b6000806000600160008681526020019081526020016000206040518060400160405290816000820160009054906101000a900473ffffffffffffffffffffffffffffffffffffffff1673ffffffffffffffffffffffffffffffffffffffff1673ffffffffffffffffffffffffffffffffffffffff1681526020016000820160149054906101000a90046bffffffffffffffffffffffff166bffffffffffffffffffffffff166bffffffffffffffffffffffff16815250509050600073ffffffffffffffffffffffffffffffffffffffff16816000015173ffffffffffffffffffffffffffffffffffffffff16036108ef5760006040518060400160405290816000820160009054906101000a900473ffffffffffffffffffffffffffffffffffffffff1673ffffffffffffffffffffffffffffffffffffffff1673ffffffffffffffffffffffffffffffffffffffff1681526020016000820160149054906101000a90046bffffffffffffffffffffffff166bffffffffffffffffffffffff166bffffffffffffffffffffffff168152505090505b60006108f9611643565b6bffffffffffffffffffffffff1682602001516bffffffffffffffffffffffff16866109259190612f5b565b61092f9190612fcc565b90508160000151819350935050509250929050565b7f000000000000000000000000000000000000000000000000000000000000000081565b600061097383610b24565b82106109b4576040517f08c379a00000000000000000000000000000000000000000000000000000000081526004016109ab9061306f565b60405180910390fd5b600860008473ffffffffffffffffffffffffffffffffffffffff1673ffffffffffffffffffffffffffffffffffffffff168152602001908152602001600020600083815260200190815260200160002054905092915050565b610a2883838360405180602001604052806000815250610e8f565b505050565b6000610a3761164d565b8210610a78576040517f08c379a0000000000000000000000000000000000000000000000000000000008152600401610a6f90613101565b60405180910390fd5b600a8281548110610a8c57610a8b613121565b5b90600052602060002001549050919050565b600080610aaa8361165a565b9050600073ffffffffffffffffffffffffffffffffffffffff168173ffffffffffffffffffffffffffffffffffffffff1603610b1b576040517f08c379a0000000000000000000000000000000000000000000000000000000008152600401610b129061319c565b60405180910390fd5b80915050919050565b60008073ffffffffffffffffffffffffffffffffffffffff168273ffffffffffffffffffffffffffffffffffffffff1603610b94576040517f08c379a0000000000000000000000000000000000000000000000000000000008152600401610b8b9061322e565b60405180910390fd5b600560008373ffffffffffffffffffffffffffffffffffffffff1673ffffffffffffffffffffffffffffffffffffffff168152602001908152602001600020549050919050565b6000610be5611697565b7f000000000000000000000000000000000000000000000000000000000000000073ffffffffffffffffffffffffffffffffffffffff163373ffffffffffffffffffffffffffffffffffffffff1614610c73576040517f08c379a0000000000000000000000000000000000000000000000000000000008152600401610c6a906132c0565b60405180910390fd5b6000610c7d6116e6565b9050610c898382611701565b80915050610c9561171f565b919050565b6060610ca582610b24565b67ffffffffffffffff811115610cbe57610cbd612b28565b5b604051908082528060200260200182016040528015610cec5781602001602082028036833780820191505090505b50905060005b610cfb83610b24565b811015610d3657610d0c8382610968565b828281518110610d1f57610d1e613121565b5b602002602001018181525050806001019050610cf2565b50919050565b6000610d4783610a9e565b9050610d548183856106fa565b505050565b606060038054610d6890612d45565b80601f0160208091040260200160405190810160405280929190818152602001828054610d9490612d45565b8015610de15780601f10610db657610100808354040283529160200191610de1565b820191906000526020600020905b815481529060010190602001808311610dc457829003601f168201915b5050505050905090565b600e8054610df890612d45565b80601f0160208091040260200160405190810160405280929190818152602001828054610e2490612d45565b8015610e715780601f10610e4657610100808354040283529160200191610e71565b820191906000526020600020905b815481529060010190602001808311610e5457829003601f168201915b505050505081565b610e8b610e846111e6565b8383611729565b5050565b610ea0610e9a6111e6565b836112b5565b610edf576040517f08c379a0000000000000000000000000000000000000000000000000000000008152600401610ed690612f0c565b60405180910390fd5b610eeb84848484611895565b50505050565b6060610efc826118f1565b610f3b576040517f08c379a0000000000000000000000000000000000000000000000000000000008152600401610f3290613352565b60405180910390fd5b600e610f4683611932565b604051602001610f57929190613492565b6040516020818303038152906040529050919050565b600f8054610f7a90612d45565b80601f0160208091040260200160405190810160405280929190818152602001828054610fa690612d45565b8015610ff35780601f10610fc857610100808354040283529160200191610ff3565b820191906000526020600020905b815481529060010190602001808311610fd657829003601f168201915b505050505081565b6060600f805461100a90612d45565b80601f016020809104026020016040519081016040528092919081815260200182805461103690612d45565b80156110835780601f1061105857610100808354040283529160200191611083565b820191906000526020600020905b81548152906001019060200180831161106657829003601f168201915b5050505050905090565b6000600760008473ffffffffffffffffffffffffffffffffffffffff1673ffffffffffffffffffffffffffffffffffffffff16815260200190815260200160002060008373ffffffffffffffffffffffffffffffffffffffff1673ffffffffffffffffffffffffffffffffffffffff16815260200190815260200160002060009054906101000a900460ff16905092915050565b60007f780e9d63000000000000000000000000000000000000000000000000000000007bffffffffffffffffffffffffffffffffffffffffffffffffffffffff1916827bffffffffffffffffffffffffffffffffffffffffffffffffffffffff19161480611194575061119382611a00565b5b9050919050565b6111a4816118f1565b6111e3576040517f08c379a00000000000000000000000000000000000000000000000000000000081526004016111da9061319c565b60405180910390fd5b50565b600033905090565b816006600083815260200190815260200160002060006101000a81548173ffffffffffffffffffffffffffffffffffffffff021916908373ffffffffffffffffffffffffffffffffffffffff160217905550808273ffffffffffffffffffffffffffffffffffffffff1661126183610a9e565b73ffffffffffffffffffffffffffffffffffffffff167f8c5be1e5ebec7d5bd14f71427d1e84f3dd0314c0f7b2291e5b200ac8c7c3b92560405160405180910390a45050565b600081600001549050919050565b6000806112c183610a9e565b90508073ffffffffffffffffffffffffffffffffffffffff168473ffffffffffffffffffffffffffffffffffffffff1614806113035750611302818561108d565b5b8061134157508373ffffffffffffffffffffffffffffffffffffffff166113298461058c565b73ffffffffffffffffffffffffffffffffffffffff16145b91505092915050565b8273ffffffffffffffffffffffffffffffffffffffff1661136a82610a9e565b73ffffffffffffffffffffffffffffffffffffffff16146113c0576040517f08c379a00000000000000000000000000000000000000000000000000000000081526004016113b790613533565b60405180910390fd5b600073ffffffffffffffffffffffffffffffffffffffff168273ffffffffffffffffffffffffffffffffffffffff160361142f576040517f08c379a0000000000000000000000000000000000000000000000000000000008152600401611426906135c5565b60405180910390fd5b61143c8383836001611ae2565b8273ffffffffffffffffffffffffffffffffffffffff1661145c82610a9e565b73ffffffffffffffffffffffffffffffffffffffff16146114b2576040517f08c379a00000000000000000000000000000000000000000000000000000000081526004016114a990613533565b60405180910390fd5b6006600082815260200190815260200160002060006101000a81549073ffffffffffffffffffffffffffffffffffffffff02191690556001600560008573ffffffffffffffffffffffffffffffffffffffff1673ffffffffffffffffffffffffffffffffffffffff168152602001908152602001600020600082825403925050819055506001600560008473ffffffffffffffffffffffffffffffffffffffff1673ffffffffffffffffffffffffffffffffffffffff16815260200190815260200160002060008282540192505081905550816004600083815260200190815260200160002060006101000a81548173ffffffffffffffffffffffffffffffffffffffff021916908373ffffffffffffffffffffffffffffffffffffffff160217905550808273ffffffffffffffffffffffffffffffffffffffff168473ffffffffffffffffffffffffffffffffffffffff167fddf252ad1be2c89b69c2b068fc378daa952ba7f163c4a11628f55a4df523b3ef60405160405180910390a461163e8383836001611af4565b505050565b6000612710905090565b6000600a80549050905090565b60006004600083815260200190815260200160002060009054906101000a900473ffffffffffffffffffffffffffffffffffffffff169050919050565b6002600c54036116dc576040517f08c379a00000000000000000000000000000000000000000000000000000000081526004016116d390613631565b60405180910390fd5b6002600c81905550565b60006116f2600d611afa565b6116fc600d6112a7565b905090565b61171b828260405180602001604052806000815250611b10565b5050565b6001600c81905550565b8173ffffffffffffffffffffffffffffffffffffffff168373ffffffffffffffffffffffffffffffffffffffff1603611797576040517f08c379a000000000000000000000000000000000000000000000000000000000815260040161178e9061369d565b60405180910390fd5b80600760008573ffffffffffffffffffffffffffffffffffffffff1673ffffffffffffffffffffffffffffffffffffffff16815260200190815260200160002060008473ffffffffffffffffffffffffffffffffffffffff1673ffffffffffffffffffffffffffffffffffffffff16815260200190815260200160002060006101000a81548160ff0219169083151502179055508173ffffffffffffffffffffffffffffffffffffffff168373ffffffffffffffffffffffffffffffffffffffff167f17307eab39ab6107e8899845ad3d59bd9653f200f220920489ca2b5937696c31836040516118889190612687565b60405180910390a3505050565b6118a084848461134a565b6118ac84848484611b6b565b6118eb576040517f08c379a00000000000000000000000000000000000000000000000000000000081526004016118e29061372f565b60405180910390fd5b50505050565b60008073ffffffffffffffffffffffffffffffffffffffff166119138361165a565b73ffffffffffffffffffffffffffffffffffffffff1614159050919050565b60606000600161194184611cf2565b01905060008167ffffffffffffffff8111156119605761195f612b28565b5b6040519080825280601f01601f1916602001820160405280156119925781602001600182028036833780820191505090505b509050600082602001820190505b6001156119f5578080600190039150507f3031323334353637383961626364656600000000000000000000000000000000600a86061a8153600a85816119e9576119e8612f9d565b5b049450600085036119a0575b819350505050919050565b60007f80ac58cd000000000000000000000000000000000000000000000000000000007bffffffffffffffffffffffffffffffffffffffffffffffffffffffff1916827bffffffffffffffffffffffffffffffffffffffffffffffffffffffff19161480611acb57507f5b5e139f000000000000000000000000000000000000000000000000000000007bffffffffffffffffffffffffffffffffffffffffffffffffffffffff1916827bffffffffffffffffffffffffffffffffffffffffffffffffffffffff1916145b80611adb5750611ada82611e45565b5b9050919050565b611aee84848484611ebf565b50505050565b50505050565b6001816000016000828254019250508190555050565b611b1a838361201d565b611b276000848484611b6b565b611b66576040517f08c379a0000000000000000000000000000000000000000000000000000000008152600401611b5d9061372f565b60405180910390fd5b505050565b6000611b8c8473ffffffffffffffffffffffffffffffffffffffff1661223a565b15611ce5578373ffffffffffffffffffffffffffffffffffffffff1663150b7a02611bb56111e6565b8786866040518563ffffffff1660e01b8152600401611bd794939291906137a4565b6020604051808303816000875af1925050508015611c1357506040513d601f19601f82011682018060405250810190611c109190613805565b60015b611c95573d8060008114611c43576040519150601f19603f3d011682016040523d82523d6000602084013e611c48565b606091505b506000815103611c8d576040517f08c379a0000000000000000000000000000000000000000000000000000000008152600401611c849061372f565b60405180910390fd5b805181602001fd5b63150b7a0260e01b7bffffffffffffffffffffffffffffffffffffffffffffffffffffffff1916817bffffffffffffffffffffffffffffffffffffffffffffffffffffffff191614915050611cea565b600190505b949350505050565b600080600090507a184f03e93ff9f4daa797ed6e38ed64bf6a1f0100000000000000008310611d50577a184f03e93ff9f4daa797ed6e38ed64bf6a1f0100000000000000008381611d4657611d45612f9d565b5b0492506040810190505b6d04ee2d6d415b85acef81000000008310611d8d576d04ee2d6d415b85acef81000000008381611d8357611d82612f9d565b5b0492506020810190505b662386f26fc100008310611dbc57662386f26fc100008381611db257611db1612f9d565b5b0492506010810190505b6305f5e1008310611de5576305f5e1008381611ddb57611dda612f9d565b5b0492506008810190505b6127108310611e0a576127108381611e0057611dff612f9d565b5b0492506004810190505b60648310611e2d5760648381611e2357611e22612f9d565b5b0492506002810190505b600a8310611e3c576001810190505b80915050919050565b60007f2a55205a000000000000000000000000000000000000000000000000000000007bffffffffffffffffffffffffffffffffffffffffffffffffffffffff1916827bffffffffffffffffffffffffffffffffffffffffffffffffffffffff19161480611eb85750611eb78261225d565b5b9050919050565b611ecb848484846122c7565b6001811115611f0f576040517f08c379a0000000000000000000000000000000000000000000000000000000008152600401611f06906138a4565b60405180910390fd5b6000829050600073ffffffffffffffffffffffffffffffffffffffff168573ffffffffffffffffffffffffffffffffffffffff1603611f5657611f51816122cd565b611f95565b8373ffffffffffffffffffffffffffffffffffffffff168573ffffffffffffffffffffffffffffffffffffffff1614611f9457611f938582612316565b5b5b600073ffffffffffffffffffffffffffffffffffffffff168473ffffffffffffffffffffffffffffffffffffffff1603611fd757611fd281612483565b612016565b8473ffffffffffffffffffffffffffffffffffffffff168473ffffffffffffffffffffffffffffffffffffffff1614612015576120148482612554565b5b5b5050505050565b600073ffffffffffffffffffffffffffffffffffffffff168273ffffffffffffffffffffffffffffffffffffffff160361208c576040517f08c379a000000000000000000000000000000000000000000000000000000000815260040161208390613910565b60405180910390fd5b612095816118f1565b156120d5576040517f08c379a00000000000000000000000000000000000000000000000000000000081526004016120cc9061397c565b60405180910390fd5b6120e3600083836001611ae2565b6120ec816118f1565b1561212c576040517f08c379a00000000000000000000000000000000000000000000000000000000081526004016121239061397c565b60405180910390fd5b6001600560008473ffffffffffffffffffffffffffffffffffffffff1673ffffffffffffffffffffffffffffffffffffffff16815260200190815260200160002060008282540192505081905550816004600083815260200190815260200160002060006101000a81548173ffffffffffffffffffffffffffffffffffffffff021916908373ffffffffffffffffffffffffffffffffffffffff160217905550808273ffffffffffffffffffffffffffffffffffffffff16600073ffffffffffffffffffffffffffffffffffffffff167fddf252ad1be2c89b69c2b068fc378daa952ba7f163c4a11628f55a4df523b3ef60405160405180910390a4612236600083836001611af4565b5050565b6000808273ffffffffffffffffffffffffffffffffffffffff163b119050919050565b60007f01ffc9a7000000000000000000000000000000000000000000000000000000007bffffffffffffffffffffffffffffffffffffffffffffffffffffffff1916827bffffffffffffffffffffffffffffffffffffffffffffffffffffffff1916149050919050565b50505050565b600a80549050600b600083815260200190815260200160002081905550600a81908060018154018082558091505060019003906000526020600020016000909190919091505550565b6000600161232384610b24565b61232d919061399c565b9050600060096000848152602001908152602001600020549050818114612412576000600860008673ffffffffffffffffffffffffffffffffffffffff1673ffffffffffffffffffffffffffffffffffffffff168152602001908152602001600020600084815260200190815260200160002054905080600860008773ffffffffffffffffffffffffffffffffffffffff1673ffffffffffffffffffffffffffffffffffffffff168152602001908152602001600020600084815260200190815260200160002081905550816009600083815260200190815260200160002081905550505b6009600084815260200190815260200160002060009055600860008573ffffffffffffffffffffffffffffffffffffffff1673ffffffffffffffffffffffffffffffffffffffff16815260200190815260200160002060008381526020019081526020016000206000905550505050565b60006001600a80549050612497919061399c565b90506000600b60008481526020019081526020016000205490506000600a83815481106124c7576124c6613121565b5b9060005260206000200154905080600a83815481106124e9576124e8613121565b5b906000526020600020018190555081600b600083815260200190815260200160002081905550600b600085815260200190815260200160002060009055600a805480612538576125376139d0565b5b6001900381819060005260206000200160009055905550505050565b600061255f83610b24565b905081600860008573ffffffffffffffffffffffffffffffffffffffff1673ffffffffffffffffffffffffffffffffffffffff168152602001908152602001600020600083815260200190815260200160002081905550806009600084815260200190815260200160002081905550505050565b6000604051905090565b600080fd5b600080fd5b60007fffffffff0000000000000000000000000000000000000000000000000000000082169050919050565b61261c816125e7565b811461262757600080fd5b50565b60008135905061263981612613565b92915050565b600060208284031215612655576126546125dd565b5b60006126638482850161262a565b91505092915050565b60008115159050919050565b6126818161266c565b82525050565b600060208201905061269c6000830184612678565b92915050565b600081519050919050565b600082825260208201905092915050565b60005b838110156126dc5780820151818401526020810190506126c1565b60008484015250505050565b6000601f19601f8301169050919050565b6000612704826126a2565b61270e81856126ad565b935061271e8185602086016126be565b612727816126e8565b840191505092915050565b6000602082019050818103600083015261274c81846126f9565b905092915050565b6000819050919050565b61276781612754565b811461277257600080fd5b50565b6000813590506127848161275e565b92915050565b6000602082840312156127a05761279f6125dd565b5b60006127ae84828501612775565b91505092915050565b600073ffffffffffffffffffffffffffffffffffffffff82169050919050565b60006127e2826127b7565b9050919050565b6127f2816127d7565b82525050565b600060208201905061280d60008301846127e9565b92915050565b61281c816127d7565b811461282757600080fd5b50565b60008135905061283981612813565b92915050565b60008060408385031215612856576128556125dd565b5b60006128648582860161282a565b925050602061287585828601612775565b9150509250929050565b61288881612754565b82525050565b60006020820190506128a3600083018461287f565b92915050565b6000806000606084860312156128c2576128c16125dd565b5b60006128d08682870161282a565b93505060206128e18682870161282a565b92505060406128f286828701612775565b9150509250925092565b60008060408385031215612913576129126125dd565b5b600061292185828601612775565b925050602061293285828601612775565b9150509250929050565b600060408201905061295160008301856127e9565b61295e602083018461287f565b9392505050565b60006020828403121561297b5761297a6125dd565b5b60006129898482850161282a565b91505092915050565b600081519050919050565b600082825260208201905092915050565b6000819050602082019050919050565b6129c781612754565b82525050565b60006129d983836129be565b60208301905092915050565b6000602082019050919050565b60006129fd82612992565b612a07818561299d565b9350612a12836129ae565b8060005b83811015612a43578151612a2a88826129cd565b9750612a35836129e5565b925050600181019050612a16565b5085935050505092915050565b60006020820190508181036000830152612a6a81846129f2565b905092915050565b60008060408385031215612a8957612a886125dd565b5b6000612a9785828601612775565b9250506020612aa88582860161282a565b9150509250929050565b612abb8161266c565b8114612ac657600080fd5b50565b600081359050612ad881612ab2565b92915050565b60008060408385031215612af557612af46125dd565b5b6000612b038582860161282a565b9250506020612b1485828601612ac9565b9150509250929050565b600080fd5b600080fd5b7f4e487b7100000000000000000000000000000000000000000000000000000000600052604160045260246000fd5b612b60826126e8565b810181811067ffffffffffffffff82111715612b7f57612b7e612b28565b5b80604052505050565b6000612b926125d3565b9050612b9e8282612b57565b919050565b600067ffffffffffffffff821115612bbe57612bbd612b28565b5b612bc7826126e8565b9050602081019050919050565b82818337600083830152505050565b6000612bf6612bf184612ba3565b612b88565b905082815260208101848484011115612c1257612c11612b23565b5b612c1d848285612bd4565b509392505050565b600082601f830112612c3a57612c39612b1e565b5b8135612c4a848260208601612be3565b91505092915050565b60008060008060808587031215612c6d57612c6c6125dd565b5b6000612c7b8782880161282a565b9450506020612c8c8782880161282a565b9350506040612c9d87828801612775565b925050606085013567ffffffffffffffff811115612cbe57612cbd6125e2565b5b612cca87828801612c25565b91505092959194509250565b60008060408385031215612ced57612cec6125dd565b5b6000612cfb8582860161282a565b9250506020612d0c8582860161282a565b9150509250929050565b7f4e487b7100000000000000000000000000000000000000000000000000000000600052602260045260246000fd5b60006002820490506001821680612d5d57607f821691505b602082108103612d7057612d6f612d16565b5b50919050565b7f4552433732313a20617070726f76616c20746f2063757272656e74206f776e6560008201527f7200000000000000000000000000000000000000000000000000000000000000602082015250565b6000612dd26021836126ad565b9150612ddd82612d76565b604082019050919050565b60006020820190508181036000830152612e0181612dc5565b9050919050565b7f4552433732313a20617070726f76652063616c6c6572206973206e6f7420746f60008201527f6b656e206f776e6572206f7220617070726f76656420666f7220616c6c000000602082015250565b6000612e64603d836126ad565b9150612e6f82612e08565b604082019050919050565b60006020820190508181036000830152612e9381612e57565b9050919050565b7f4552433732313a2063616c6c6572206973206e6f7420746f6b656e206f776e6560008201527f72206f7220617070726f76656400000000000000000000000000000000000000602082015250565b6000612ef6602d836126ad565b9150612f0182612e9a565b604082019050919050565b60006020820190508181036000830152612f2581612ee9565b9050919050565b7f4e487b7100000000000000000000000000000000000000000000000000000000600052601160045260246000fd5b6000612f6682612754565b9150612f7183612754565b9250828202612f7f81612754565b91508282048414831517612f9657612f95612f2c565b5b5092915050565b7f4e487b7100000000000000000000000000000000000000000000000000000000600052601260045260246000fd5b6000612fd782612754565b9150612fe283612754565b925082612ff257612ff1612f9d565b5b828204905092915050565b7f455243373231456e756d657261626c653a206f776e657220696e646578206f7560008201527f74206f6620626f756e6473000000000000000000000000000000000000000000602082015250565b6000613059602b836126ad565b915061306482612ffd565b604082019050919050565b600060208201905081810360008301526130888161304c565b9050919050565b7f455243373231456e756d657261626c653a20676c6f62616c20696e646578206f60008201527f7574206f6620626f756e64730000000000000000000000000000000000000000602082015250565b60006130eb602c836126ad565b91506130f68261308f565b604082019050919050565b6000602082019050818103600083015261311a816130de565b9050919050565b7f4e487b7100000000000000000000000000000000000000000000000000000000600052603260045260246000fd5b7f4552433732313a20696e76616c696420746f6b656e2049440000000000000000600082015250565b60006131866018836126ad565b915061319182613150565b602082019050919050565b600060208201905081810360008301526131b581613179565b9050919050565b7f4552433732313a2061646472657373207a65726f206973206e6f74206120766160008201527f6c6964206f776e65720000000000000000000000000000000000000000000000602082015250565b60006132186029836126ad565b9150613223826131bc565b604082019050919050565b600060208201905081810360008301526132478161320b565b9050919050565b7f6d696e74546f3a2063616c6c6572206973206e6f7420666163746f727920636f60008201527f6e74726163740000000000000000000000000000000000000000000000000000602082015250565b60006132aa6026836126ad565b91506132b58261324e565b604082019050919050565b600060208201905081810360008301526132d98161329d565b9050919050565b7f4552433732314d657461646174613a2055524920717565727920666f72206e6f60008201527f6e6578697374656e7420746f6b656e0000000000000000000000000000000000602082015250565b600061333c602f836126ad565b9150613347826132e0565b604082019050919050565b6000602082019050818103600083015261336b8161332f565b9050919050565b600081905092915050565b60008190508160005260206000209050919050565b6000815461339f81612d45565b6133a98186613372565b945060018216600081146133c457600181146133d95761340c565b60ff198316865281151582028601935061340c565b6133e28561337d565b60005b83811015613404578154818901526001820191506020810190506133e5565b838801955050505b50505092915050565b6000613420826126a2565b61342a8185613372565b935061343a8185602086016126be565b80840191505092915050565b7f2e6a736f6e000000000000000000000000000000000000000000000000000000600082015250565b600061347c600583613372565b915061348782613446565b600582019050919050565b600061349e8285613392565b91506134aa8284613415565b91506134b58261346f565b91508190509392505050565b7f4552433732313a207472616e736665722066726f6d20696e636f72726563742060008201527f6f776e6572000000000000000000000000000000000000000000000000000000602082015250565b600061351d6025836126ad565b9150613528826134c1565b604082019050919050565b6000602082019050818103600083015261354c81613510565b9050919050565b7f4552433732313a207472616e7366657220746f20746865207a65726f2061646460008201527f7265737300000000000000000000000000000000000000000000000000000000602082015250565b60006135af6024836126ad565b91506135ba82613553565b604082019050919050565b600060208201905081810360008301526135de816135a2565b9050919050565b7f5265656e7472616e637947756172643a207265656e7472616e742063616c6c00600082015250565b600061361b601f836126ad565b9150613626826135e5565b602082019050919050565b6000602082019050818103600083015261364a8161360e565b9050919050565b7f4552433732313a20617070726f766520746f2063616c6c657200000000000000600082015250565b60006136876019836126ad565b915061369282613651565b602082019050919050565b600060208201905081810360008301526136b68161367a565b9050919050565b7f4552433732313a207472616e7366657220746f206e6f6e20455243373231526560008201527f63656976657220696d706c656d656e7465720000000000000000000000000000602082015250565b60006137196032836126ad565b9150613724826136bd565b604082019050919050565b600060208201905081810360008301526137488161370c565b9050919050565b600081519050919050565b600082825260208201905092915050565b60006137768261374f565b613780818561375a565b93506137908185602086016126be565b613799816126e8565b840191505092915050565b60006080820190506137b960008301876127e9565b6137c660208301866127e9565b6137d3604083018561287f565b81810360608301526137e5818461376b565b905095945050505050565b6000815190506137ff81612613565b92915050565b60006020828403121561381b5761381a6125dd565b5b6000613829848285016137f0565b91505092915050565b7f455243373231456e756d657261626c653a20636f6e736563757469766520747260008201527f616e7366657273206e6f7420737570706f727465640000000000000000000000602082015250565b600061388e6035836126ad565b915061389982613832565b604082019050919050565b600060208201905081810360008301526138bd81613881565b9050919050565b7f4552433732313a206d696e7420746f20746865207a65726f2061646472657373600082015250565b60006138fa6020836126ad565b9150613905826138c4565b602082019050919050565b60006020820190508181036000830152613929816138ed565b9050919050565b7f4552433732313a20746f6b656e20616c7265616479206d696e74656400000000600082015250565b6000613966601c836126ad565b915061397182613930565b602082019050919050565b6000602082019050818103600083015261399581613959565b9050919050565b60006139a782612754565b91506139b283612754565b92508282039050818111156139ca576139c9612f2c565b5b92915050565b7f4e487b7100000000000000000000000000000000000000000000000000000000600052603160045260246000fdfea2646970667358221220fe40afbae873f0488998df4efda1ae71cc1078a511ff5a646538a79f6d69a88c64736f6c63430008180033a2646970667358221220246160e5f20dca61d1db0294ea9246813564aae2553bf19887845fca1c337ff464736f6c63430008180033","linkReferences":{}},"methodIdentifiers":{"baseUri()":"9abc8320","collectionUri()":"defcd4b3","deployTierNFTContract(uint256,uint256,string,string)":"8bbda6e7","getNFTOwner(uint256,uint256,uint256)":"f40bfed9","getTierTokenIdList(uint256,uint256)":"486eab57","getTokenUri(uint256,uint256,uint256)":"f35aaffe","getTotalSupply(uint256,uint256)":"7dfa14be","getUserTierNFTs(address)":"b02823f9","getUserTokenIdList(uint256,address,uint256)":"2f315fe6","mintTierNft(uint256)":"bc275829","nftInfo(address)":"e9545b92","setBaseURI(string,string)":"6790a9de","setTierInfo(uint256,uint256[],uint256[])":"49b37674","tierCount(uint256)":"48380a10","tierInfo(uint256,uint256)":"9d4d1a04","tierNFTContract(uint256,uint256)":"ee584da4","tierNFTTokenList(uint256,uint256,uint256)":"4276c706"},"id":2}