{"abi":[{"type":"constructor","inputs":[{"name":"_ownable","type":"address","internalType":"address"},{"name":"_uniHelper","type":"address","internalType":"address"},{"name":"_staking","type":"address","internalType":"address"},{"name":"_property","type":"address","internalType":"address"},{"name":"_filmNftFactory","type":"address","internalType":"address"}],"stateMutability":"nonpayable"},{"type":"receive","stateMutability":"payable"},{"type":"function","name":"VABBLE_DAO","inputs":[],"outputs":[{"name":"","type":"address","internalType":"address"}],"stateMutability":"view"},{"type":"function","name":"__getExpectedTokenAmount","inputs":[{"name":"_token","type":"address","internalType":"address"},{"name":"_usdcAmount","type":"uint256","internalType":"uint256"}],"outputs":[{"name":"amount_","type":"uint256","internalType":"uint256"}],"stateMutability":"view"},{"type":"function","name":"__getExpectedUsdcAmount","inputs":[{"name":"_token","type":"address","internalType":"address"},{"name":"_tokenAmount","type":"uint256","internalType":"uint256"}],"outputs":[{"name":"amount_","type":"uint256","internalType":"uint256"}],"stateMutability":"view"},{"type":"function","name":"assetInfo","inputs":[{"name":"","type":"uint256","internalType":"uint256"},{"name":"","type":"address","internalType":"address"},{"name":"","type":"uint256","internalType":"uint256"}],"outputs":[{"name":"token","type":"address","internalType":"address"},{"name":"amount","type":"uint256","internalType":"uint256"}],"stateMutability":"view"},{"type":"function","name":"assetPerFilm","inputs":[{"name":"","type":"uint256","internalType":"uint256"},{"name":"","type":"uint256","internalType":"uint256"}],"outputs":[{"name":"token","type":"address","internalType":"address"},{"name":"amount","type":"uint256","internalType":"uint256"}],"stateMutability":"view"},{"type":"function","name":"depositToFilm","inputs":[{"name":"_filmId","type":"uint256","internalType":"uint256"},{"name":"_amount","type":"uint256","internalType":"uint256"},{"name":"_flag","type":"uint256","internalType":"uint256"},{"name":"_token","type":"address","internalType":"address"}],"outputs":[],"stateMutability":"payable"},{"type":"function","name":"fundProcess","inputs":[{"name":"_filmId","type":"uint256","internalType":"uint256"}],"outputs":[],"stateMutability":"nonpayable"},{"type":"function","name":"getAllowUserNftCount","inputs":[{"name":"_filmId","type":"uint256","internalType":"uint256"},{"name":"_user","type":"address","internalType":"address"}],"outputs":[{"name":"","type":"uint256","internalType":"uint256"}],"stateMutability":"view"},{"type":"function","name":"getFilmInvestorList","inputs":[{"name":"_filmId","type":"uint256","internalType":"uint256"}],"outputs":[{"name":"","type":"address[]","internalType":"address[]"}],"stateMutability":"view"},{"type":"function","name":"getFundProcessedFilmIdList","inputs":[],"outputs":[{"name":"","type":"uint256[]","internalType":"uint256[]"}],"stateMutability":"view"},{"type":"function","name":"getTotalFundAmountPerFilm","inputs":[{"name":"_filmId","type":"uint256","internalType":"uint256"}],"outputs":[{"name":"amount_","type":"uint256","internalType":"uint256"}],"stateMutability":"view"},{"type":"function","name":"getUserFundAmountPerFilm","inputs":[{"name":"_customer","type":"address","internalType":"address"},{"name":"_filmId","type":"uint256","internalType":"uint256"}],"outputs":[{"name":"amount_","type":"uint256","internalType":"uint256"}],"stateMutability":"view"},{"type":"function","name":"initialize","inputs":[{"name":"_vabbleDAO","type":"address","internalType":"address"}],"outputs":[],"stateMutability":"nonpayable"},{"type":"function","name":"isFundProcessed","inputs":[{"name":"","type":"uint256","internalType":"uint256"}],"outputs":[{"name":"","type":"bool","internalType":"bool"}],"stateMutability":"view"},{"type":"function","name":"isRaisedFullAmount","inputs":[{"name":"_filmId","type":"uint256","internalType":"uint256"}],"outputs":[{"name":"","type":"bool","internalType":"bool"}],"stateMutability":"view"},{"type":"function","name":"withdrawFunding","inputs":[{"name":"_filmId","type":"uint256","internalType":"uint256"}],"outputs":[],"stateMutability":"nonpayable"},{"type":"event","name":"DepositedToFilm","inputs":[{"name":"customer","type":"address","indexed":true,"internalType":"address"},{"name":"filmId","type":"uint256","indexed":true,"internalType":"uint256"},{"name":"token","type":"address","indexed":false,"internalType":"address"},{"name":"amount","type":"uint256","indexed":false,"internalType":"uint256"},{"name":"flag","type":"uint256","indexed":false,"internalType":"uint256"}],"anonymous":false},{"type":"event","name":"FundFilmProcessed","inputs":[{"name":"filmId","type":"uint256","indexed":true,"internalType":"uint256"},{"name":"studio","type":"address","indexed":true,"internalType":"address"}],"anonymous":false},{"type":"event","name":"FundWithdrawed","inputs":[{"name":"filmId","type":"uint256","indexed":true,"internalType":"uint256"},{"name":"customer","type":"address","indexed":true,"internalType":"address"}],"anonymous":false}],"bytecode":{"object":"0x6101206040523480156200001257600080fd5b5060405162003fee38038062003fee83398101604081905262000035916200024f565b60016000556001600160a01b038516620000965760405162461bcd60e51b815260206004820152601d60248201527f6f776e61626c65436f6e74726163743a205a65726f206164647265737300000060448201526064015b60405180910390fd5b6001600160a01b038086166080528416620000f45760405162461bcd60e51b815260206004820152601f60248201527f756e6948656c706572436f6e74726163743a205a65726f20616464726573730060448201526064016200008d565b6001600160a01b0380851660c0528316620001525760405162461bcd60e51b815260206004820152601d60248201527f7374616b696e67436f6e74726163743a205a65726f206164647265737300000060448201526064016200008d565b6001600160a01b0380841660a0528216620001b05760405162461bcd60e51b815260206004820152601960248201527f64616f50726f70657274793a205a65726f20616464726573730000000000000060448201526064016200008d565b6001600160a01b0380831660e05281166200021a5760405162461bcd60e51b815260206004820152602360248201527f73657475703a207a65726f20666163746f7279436f6e7472616374206164647260448201526265737360e81b60648201526084016200008d565b6001600160a01b03166101005250620002bf92505050565b80516001600160a01b03811681146200024a57600080fd5b919050565b600080600080600060a086880312156200026857600080fd5b620002738662000232565b9450620002836020870162000232565b9350620002936040870162000232565b9250620002a36060870162000232565b9150620002b36080870162000232565b90509295509295909350565b60805160a05160c05160e05161010051613c736200037b60003960008181612caa0152612d43015260008181611bbf0152818161365f01526136f20152600081816104350152818161061f01528181611cf601528181611d7401528181611e120152611f6101526000818161207c015281816120fc015261218801526000818161039b01528181610466015281816105850152818161064f01528181610d6401528181610e4a01528181611a4d01526122960152613c736000f3fe6080604052600436106100f75760003560e01c8063986c1b591161008a578063c4d66de811610059578063c4d66de8146102f7578063d0bae3f914610317578063e4ed62ff14610347578063e948159c1461036757600080fd5b8063986c1b591461022c5780639b6034a9146102645780639d6af27f14610294578063a2bfda8f146102d757600080fd5b80637682e4f1116100c65780637682e4f11461019a578063903859f4146101ad57806390cc5ea0146101ec57806393b1138b1461020c57600080fd5b806301733baf146101035780630a913893146101365780632c368afe146101565780633697f0551461017857600080fd5b366100fe57005b600080fd5b34801561010f57600080fd5b5061012361011e366004613795565b610394565b6040519081526020015b60405180910390f35b34801561014257600080fd5b50610123610151366004613795565b61057e565b34801561016257600080fd5b5061016b610722565b60405161012d91906137c1565b34801561018457600080fd5b50610198610193366004613805565b61077a565b005b6101986101a836600461381e565b610d5a565b3480156101b957600080fd5b506101cd6101c836600461385f565b6113bf565b604080516001600160a01b03909316835260208301919091520161012d565b3480156101f857600080fd5b506101cd610207366004613881565b611405565b34801561021857600080fd5b50610123610227366004613805565b611459565b34801561023857600080fd5b5060015461024c906001600160a01b031681565b6040516001600160a01b03909116815260200161012d565b34801561027057600080fd5b5061028461027f366004613805565b611566565b604051901515815260200161012d565b3480156102a057600080fd5b506101236102af3660046138b9565b60009182526007602090815260408084206001600160a01b0393909316845291905290205490565b3480156102e357600080fd5b506101986102f2366004613805565b61162d565b34801561030357600080fd5b506101986103123660046138e9565b612294565b34801561032357600080fd5b50610284610332366004613805565b60066020526000908152604090205460ff1681565b34801561035357600080fd5b50610123610362366004613795565b61245f565b34801561037357600080fd5b50610387610382366004613805565b61254f565b60405161012d919061390d565b60008190507f00000000000000000000000000000000000000000000000000000000000000006001600160a01b031663fa5692746040518163ffffffff1660e01b8152600401602060405180830381865afa1580156103f7573d6000803e3d6000fd5b505050506040513d601f19601f8201168201806040525081019061041b919061394e565b6001600160a01b0316836001600160a01b031614610578577f00000000000000000000000000000000000000000000000000000000000000006001600160a01b031663eeee26ce83857f00000000000000000000000000000000000000000000000000000000000000006001600160a01b031663fa5692746040518163ffffffff1660e01b8152600401602060405180830381865afa1580156104c2573d6000803e3d6000fd5b505050506040513d601f19601f820116820180604052508101906104e6919061394e565b6040517fffffffff0000000000000000000000000000000000000000000000000000000060e086901b16815260048101939093526001600160a01b0391821660248401521660448201526064015b602060405180830381865afa158015610551573d6000803e3d6000fd5b505050506040513d601f19601f82011682018060405250810190610575919061396b565b90505b92915050565b60008190507f00000000000000000000000000000000000000000000000000000000000000006001600160a01b031663fa5692746040518163ffffffff1660e01b8152600401602060405180830381865afa1580156105e1573d6000803e3d6000fd5b505050506040513d601f19601f82011682018060405250810190610605919061394e565b6001600160a01b0316836001600160a01b031614610578577f00000000000000000000000000000000000000000000000000000000000000006001600160a01b031663eeee26ce837f00000000000000000000000000000000000000000000000000000000000000006001600160a01b031663fa5692746040518163ffffffff1660e01b8152600401602060405180830381865afa1580156106ab573d6000803e3d6000fd5b505050506040513d601f19601f820116820180604052508101906106cf919061394e565b6040517fffffffff0000000000000000000000000000000000000000000000000000000060e085901b16815260048101929092526001600160a01b03908116602483015286166044820152606401610534565b6060600280548060200260200160405190810160405280929190818152602001828054801561077057602002820191906000526020600020905b81548152602001906001019080831161075c575b5050505050905090565b6107826125bb565b6001546040517fd5443afd000000000000000000000000000000000000000000000000000000008152600481018390526000916001600160a01b03169063d5443afd90602401602060405180830381865afa1580156107e5573d6000803e3d6000fd5b505050506040513d601f19601f820116820180604052508101906108099190613984565b9050600381600581111561081f5761081f6139a5565b146108975760405162461bcd60e51b815260206004820152603060248201527f776974686472617746756e64696e673a2066696c6d4964206e6f74206170707260448201527f6f76656420666f722066756e64696e670000000000000000000000000000000060648201526084015b60405180910390fd5b6001546040517f2c6cab34000000000000000000000000000000000000000000000000000000008152600481018490526000916001600160a01b031690632c6cab3490602401608060405180830381865afa1580156108fa573d6000803e3d6000fd5b505050506040513d601f19601f8201168201806040525081019061091e91906139d4565b50506001546040517f7bcd52b000000000000000000000000000000000000000000000000000000000815260048101879052919350600092506001600160a01b031690637bcd52b0906024016040805180830381865afa158015610986573d6000803e3d6000fd5b505050506040513d601f19601f820116820180604052508101906109aa9190613a0a565b91506109b890508142613a5d565b8210610a065760405162461bcd60e51b815260206004820152601f60248201527f776974686472617746756e64696e673a2066756e64696e6720706572696f6400604482015260640161088e565b610a0f84611566565b15610a5c5760405162461bcd60e51b815260206004820152601c60248201527f776974686472617746756e64696e673a2066756c6c2072616973656400000000604482015260640161088e565b6000848152600460209081526040808320338452909152902080546103e88110610ac85760405162461bcd60e51b815260206004820152601b60248201527f776974686472617746756e64696e673a20626164206c656e6774680000000000604482015260640161088e565b60005b81811015610cf95760006001600160a01b0316838281548110610af057610af0613a70565b60009182526020909120600290910201546001600160a01b031603610b9557828181548110610b2157610b21613a70565b9060005260206000209060020201600101544710610b9057610b6633848381548110610b4f57610b4f613a70565b906000526020600020906002020160010154612614565b6000838281548110610b7a57610b7a613a70565b9060005260206000209060020201600101819055505b610cf1565b828181548110610ba757610ba7613a70565b906000526020600020906002020160010154838281548110610bcb57610bcb613a70565b60009182526020909120600290910201546040517f70a082310000000000000000000000000000000000000000000000000000000081523060048201526001600160a01b03909116906370a0823190602401602060405180830381865afa158015610c3a573d6000803e3d6000fd5b505050506040513d601f19601f82011682018060405250810190610c5e919061396b565b10610cf157610cc7838281548110610c7857610c78613a70565b906000526020600020906002020160000160009054906101000a90046001600160a01b031633858481548110610cb057610cb0613a70565b9060005260206000209060020201600101546126fc565b6000838281548110610cdb57610cdb613a70565b9060005260206000209060020201600101819055505b600101610acb565b506000610d06338861245f565b905080600003610d1a57610d1a87336128c2565b604051339088907fe1bb05a60c40b6e0d1fc580fe70956547bf7239d83ef5344939a77c0a904fac490600090a3505050505050610d576001600055565b50565b610d626125bb565b7f00000000000000000000000000000000000000000000000000000000000000006001600160a01b031663e2f6f5116040518163ffffffff1660e01b8152600401602060405180830381865afa158015610dc0573d6000803e3d6000fd5b505050506040513d601f19601f82011682018060405250810190610de4919061394e565b6001600160a01b0316816001600160a01b031614158015610e0d57506001600160a01b03811615155b15610f01576040517fbdbef07d0000000000000000000000000000000000000000000000000000000081526001600160a01b0382811660048301527f0000000000000000000000000000000000000000000000000000000000000000169063bdbef07d90602401602060405180830381865afa158015610e91573d6000803e3d6000fd5b505050506040513d601f19601f82011682018060405250810190610eb59190613a9f565b610f015760405162461bcd60e51b815260206004820181905260248201527f6465706f736974546f46696c6d3a206e6f7420616c6c6f776564206173736574604482015260640161088e565b8160011480610f105750816002145b610f5c5760405162461bcd60e51b815260206004820152601b60248201527f6465706f736974546f46696c6d3a20696e76616c696420666c61670000000000604482015260640161088e565b82600003610fac5760405162461bcd60e51b815260206004820152601960248201527f6465706f736974546f46696c6d3a207a65726f2076616c756500000000000000604482015260640161088e565b6001546040517f2c6cab340000000000000000000000000000000000000000000000000000000081526004810186905260009182916001600160a01b0390911690632c6cab3490602401608060405180830381865afa158015611013573d6000803e3d6000fd5b505050506040513d601f19601f8201168201806040525081019061103791906139d4565b506001546040517f7bcd52b0000000000000000000000000000000000000000000000000000000008152600481018b9052929550909350600092506001600160a01b031690637bcd52b0906024016040805180830381865afa1580156110a1573d6000803e3d6000fd5b505050506040513d601f19601f820116820180604052508101906110c59190613a0a565b6001546040517fd5443afd000000000000000000000000000000000000000000000000000000008152600481018b9052919350600092506001600160a01b03169063d5443afd90602401602060405180830381865afa15801561112c573d6000803e3d6000fd5b505050506040513d601f19601f820116820180604052508101906111509190613984565b90506003816005811115611166576111666139a5565b146111d95760405162461bcd60e51b815260206004820152602e60248201527f6465706f736974546f46696c6d3a2066696c6d4964206e6f7420617070726f7660448201527f656420666f722066756e64696e67000000000000000000000000000000000000606482015260840161088e565b6111e38242613a5d565b8410156112575760405162461bcd60e51b8152602060048201526024808201527f6465706f736974546f46696c6d3a207061737365642066756e64696e6720706560448201527f72696f6400000000000000000000000000000000000000000000000000000000606482015260840161088e565b6000611263338a61245f565b905060006112758a8a8a88868c612abd565b9050816000036112c65760008a81526005602090815260408220805460018101825590835291200180547fffffffffffffffffffffffff000000000000000000000000000000000000000016331790555b6001600160a01b03871661134457803410156113245760405162461bcd60e51b815260206004820181905260248201527f6465706f736974546f46696c6d3a20496e73756666696369656e742070616964604482015260640161088e565b8034111561133f5761133f3361133a8334613a5d565b612614565b611350565b61135087333084612fbb565b61135b8a888361318a565b604080516001600160a01b0389168152602081018390529081018990528a9033907f30e3a946533ff77a88d61ba930e48f87faa9cdfec15edeb2775c40b91d4c07229060600160405180910390a35050505050506113b96001600055565b50505050565b600360205281600052604060002081815481106113db57600080fd5b6000918252602090912060029091020180546001909101546001600160a01b039091169250905082565b6004602052826000526040600020602052816000526040600020818154811061142d57600080fd5b6000918252602090912060029091020180546001909101546001600160a01b0390911693509150839050565b600081815260036020908152604080832080548251818502810185019093528083528493849084015b828210156114ca576000848152602090819020604080518082019091526002850290910180546001600160a01b03168252600190810154828401529083529092019101611482565b5050825192935060009150505b8181101561155e578281815181106114f1576114f1613a70565b602002602001015160200151600003156115565761154983828151811061151a5761151a613a70565b60200260200101516000015184838151811061153857611538613a70565b602002602001015160200151610394565b6115539085613ac1565b93505b6001016114d7565b505050919050565b60008061157283611459565b6001546040517f2c6cab34000000000000000000000000000000000000000000000000000000008152600481018690529192506000916001600160a01b0390911690632c6cab3490602401608060405180830381865afa1580156115da573d6000803e3d6000fd5b505050506040513d601f19601f820116820180604052508101906115fe91906139d4565b5050509050816000141580156116145750808210155b15611623575060019392505050565b5060009392505050565b6116356125bb565b6001546040517fcb3a6063000000000000000000000000000000000000000000000000000000008152600481018390526000916001600160a01b03169063cb3a606390602401602060405180830381865afa158015611698573d6000803e3d6000fd5b505050506040513d601f19601f820116820180604052508101906116bc919061394e565b90506001600160a01b03811633146117165760405162461bcd60e51b815260206004820152601b60248201527f66756e6450726f636573733a206e6f742066696c6d206f776e65720000000000604482015260640161088e565b60008281526006602052604090205460ff16156117755760405162461bcd60e51b815260206004820152601e60248201527f66756e6450726f636573733a20616c72656164792070726f6365737365640000604482015260640161088e565b6001546040517fd5443afd000000000000000000000000000000000000000000000000000000008152600481018490526000916001600160a01b03169063d5443afd90602401602060405180830381865afa1580156117d8573d6000803e3d6000fd5b505050506040513d601f19601f820116820180604052508101906117fc9190613984565b90506003816005811115611812576118126139a5565b146118855760405162461bcd60e51b815260206004820152602c60248201527f66756e6450726f636573733a2066696c6d4964206e6f7420617070726f76656460448201527f20666f722066756e64696e670000000000000000000000000000000000000000606482015260840161088e565b6001546040517f2c6cab34000000000000000000000000000000000000000000000000000000008152600481018590526000916001600160a01b031690632c6cab3490602401608060405180830381865afa1580156118e8573d6000803e3d6000fd5b505050506040513d601f19601f8201168201806040525081019061190c91906139d4565b50506001546040517f7bcd52b000000000000000000000000000000000000000000000000000000000815260048101889052919350600092506001600160a01b031690637bcd52b0906024016040805180830381865afa158015611974573d6000803e3d6000fd5b505050506040513d601f19601f820116820180604052508101906119989190613a0a565b91506119a690508142613a5d565b82106119f45760405162461bcd60e51b815260206004820152601b60248201527f66756e6450726f636573733a2066756e64696e6720706572696f640000000000604482015260640161088e565b6119fd85611566565b611a495760405162461bcd60e51b815260206004820152601c60248201527f66756e6450726f636573733a206e6f742066756c6c2072616973656400000000604482015260640161088e565b60007f00000000000000000000000000000000000000000000000000000000000000006001600160a01b031663e2f6f5116040518163ffffffff1660e01b8152600401602060405180830381865afa158015611aa9573d6000803e3d6000fd5b505050506040513d601f19601f82011682018060405250810190611acd919061394e565b9050600060036000888152602001908152602001600020805480602002602001604051908101604052809291908181526020016000905b82821015611b4c576000848152602090819020604080518082019091526002850290910180546001600160a01b03168252600190810154828401529083529092019101611b04565b5050505090506000806000835190506103e88110611bac5760405162461bcd60e51b815260206004820152601760248201527f66756e6450726f636573733a20626164206c656e677468000000000000000000604482015260640161088e565b60005b8181101561203f576402540be4007f00000000000000000000000000000000000000000000000000000000000000006001600160a01b03166303b9b14c6040518163ffffffff1660e01b8152600401602060405180830381865afa158015611c1b573d6000803e3d6000fd5b505050506040513d601f19601f82011682018060405250810190611c3f919061396b565b868381518110611c5157611c51613a70565b602002602001015160200151611c679190613ad4565b611c719190613aeb565b9250848181518110611c8557611c85613a70565b6020026020010151600001516001600160a01b0316866001600160a01b031603611cba57611cb38385613ac1565b9350611fe7565b60006001600160a01b0316858281518110611cd757611cd7613a70565b6020026020010151600001516001600160a01b031603611d2057611d1b7f000000000000000000000000000000000000000000000000000000000000000084612614565b611eb5565b848181518110611d3257611d32613a70565b6020908102919091010151516040517fdd62ed3e0000000000000000000000000000000000000000000000000000000081523060048201526001600160a01b037f0000000000000000000000000000000000000000000000000000000000000000811660248301529091169063dd62ed3e90604401602060405180830381865afa158015611dc4573d6000803e3d6000fd5b505050506040513d601f19601f82011682018060405250810190611de8919061396b565b600003611eb557611eb5858281518110611e0457611e04613a70565b6020026020010151600001517f0000000000000000000000000000000000000000000000000000000000000000878481518110611e4357611e43613a70565b6020026020010151600001516001600160a01b03166318160ddd6040518163ffffffff1660e01b8152600401602060405180830381865afa158015611e8c573d6000803e3d6000fd5b505050506040513d601f19601f82011682018060405250810190611eb0919061396b565b613479565b600083868381518110611eca57611eca613a70565b60200260200101516000015188604051602001611f03939291909283526001600160a01b03918216602084015216604082015260600190565b604080517fffffffffffffffffffffffffffffffffffffffffffffffffffffffffffffffe0818403018152908290527fab4e9ba600000000000000000000000000000000000000000000000000000000825291506001600160a01b037f0000000000000000000000000000000000000000000000000000000000000000169063ab4e9ba690611f96908490600401613b4a565b6020604051808303816000875af1158015611fb5573d6000803e3d6000fd5b505050506040513d601f19601f82011682018060405250810190611fd9919061396b565b611fe39086613ac1565b9450505b612037858281518110611ffc57611ffc613a70565b602002602001015160000151338588858151811061201c5761201c613a70565b6020026020010151602001516120329190613a5d565b613638565b600101611baf565b5082156121ed576040517fdd62ed3e0000000000000000000000000000000000000000000000000000000081523060048201526001600160a01b037f00000000000000000000000000000000000000000000000000000000000000008116602483015286169063dd62ed3e90604401602060405180830381865afa1580156120cb573d6000803e3d6000fd5b505050506040513d601f19601f820116820180604052508101906120ef919061396b565b60000361215957612159857f0000000000000000000000000000000000000000000000000000000000000000876001600160a01b03166318160ddd6040518163ffffffff1660e01b8152600401602060405180830381865afa158015611e8c573d6000803e3d6000fd5b6040517f3a53ed49000000000000000000000000000000000000000000000000000000008152600481018490527f00000000000000000000000000000000000000000000000000000000000000006001600160a01b031690633a53ed4990602401600060405180830381600087803b1580156121d457600080fd5b505af11580156121e8573d6000803e3d6000fd5b505050505b6002805460018181019092557f405787fa12a823e0f2b7631cc41b3ba8828b3321ca811111fa75cd3aa3bb5ace018b905560008b81526006602052604080822080547fffffffffffffffffffffffffffffffffffffffffffffffffffffffffffffff0016909317909255905133918c917f088a6fa0128e80739695b2a99d03b1469fc21659a460d7bd1508c9e34e78a3ae9190a3505050505050505050610d576001600055565b7f00000000000000000000000000000000000000000000000000000000000000006001600160a01b031663d5f394886040518163ffffffff1660e01b8152600401602060405180830381865afa1580156122f2573d6000803e3d6000fd5b505050506040513d601f19601f82011682018060405250810190612316919061394e565b6001600160a01b0316336001600160a01b0316146123765760405162461bcd60e51b815260206004820152601a60248201527f63616c6c6572206973206e6f7420746865206465706c6f796572000000000000604482015260640161088e565b6001546001600160a01b0316156123cf5760405162461bcd60e51b815260206004820152601f60248201527f696e697469616c697a653a20616c726561647920696e697469616c697a656400604482015260640161088e565b6001600160a01b0381166124255760405162461bcd60e51b815260206004820152601860248201527f696e697469616c697a653a207a65726f20616464726573730000000000000000604482015260640161088e565b600180547fffffffffffffffffffffffff0000000000000000000000000000000000000000166001600160a01b0392909216919091179055565b60008181526004602090815260408083206001600160a01b0386168452825280832080548251818502810185019093528083528493849084015b828210156124e1576000848152602090819020604080518082019091526002850290910180546001600160a01b03168252600190810154828401529083529092019101612499565b5050825192935060009150505b818110156125465782818151811061250857612508613a70565b6020026020010151602001516000031561253e5761253183828151811061151a5761151a613a70565b61253b9085613ac1565b93505b6001016124ee565b50505092915050565b6000818152600560209081526040918290208054835181840281018401909452808452606093928301828280156125af57602002820191906000526020600020905b81546001600160a01b03168152600190910190602001808311612591575b50505050509050919050565b60026000540361260d5760405162461bcd60e51b815260206004820152601f60248201527f5265656e7472616e637947756172643a207265656e7472616e742063616c6c00604482015260640161088e565b6002600055565b604080516000808252602082019092526001600160a01b03841690839060405161263e9190613b9b565b60006040518083038185875af1925050503d806000811461267b576040519150601f19603f3d011682016040523d82523d6000602084013e612680565b606091505b50509050806126f75760405162461bcd60e51b815260206004820152602f60248201527f566162626c6544414f3a3a736166655472616e736665724554483a204554482060448201527f7472616e73666572206661696c65640000000000000000000000000000000000606482015260840161088e565b505050565b6001600160a01b0383163b6127535760405162461bcd60e51b815260206004820152600160248201527f4300000000000000000000000000000000000000000000000000000000000000604482015260640161088e565b604080516001600160a01b038481166024830152604480830185905283518084039091018152606490920183526020820180517bffffffffffffffffffffffffffffffffffffffffffffffffffffffff167fa9059cbb0000000000000000000000000000000000000000000000000000000017905291516000928392908716916127dd9190613b9b565b6000604051808303816000865af19150503d806000811461281a576040519150601f19603f3d011682016040523d82523d6000602084013e61281f565b606091505b50915091508180156128495750805115806128495750808060200190518101906128499190613a9f565b6128bb5760405162461bcd60e51b815260206004820152602860248201527f566162626c6544414f3a3a736166655472616e736665723a207472616e73666560448201527f72206661696c6564000000000000000000000000000000000000000000000000606482015260840161088e565b5050505050565b600082815260056020526040902054620186a081106129495760405162461bcd60e51b815260206004820152602260248201527f72656d6f766546696c6d496e766573746f724c6973743a20626164206c656e6760448201527f7468000000000000000000000000000000000000000000000000000000000000606482015260840161088e565b60005b818110156113b957600084815260056020526040902080548290811061297457612974613a70565b6000918252602090912001546001600160a01b0390811690841603612ab557600084815260056020526040902080546129af90600190613a5d565b815481106129bf576129bf613a70565b60009182526020808320909101548683526005909152604090912080546001600160a01b0390921691839081106129f8576129f8613a70565b600091825260208083209190910180547fffffffffffffffffffffffff0000000000000000000000000000000000000000166001600160a01b039490941693909317909255858152600590915260409020805480612a5857612a58613bb7565b60008281526020902081017fffffffffffffffffffffffffffffffffffffffffffffffffffffffffffffffff90810180547fffffffffffffffffffffffff00000000000000000000000000000000000000001690550190556113b9565b60010161294c565b600084600103612c1a578360011480612ad65750836003145b612b485760405162461bcd60e51b815260206004820152602560248201527f6465706f736974546f46696c6d3a206e6f742066756e6420747970652062792060448201527f746f6b656e000000000000000000000000000000000000000000000000000000606482015260840161088e565b50846000612b568383610394565b9050612b6a612b658286613ac1565b61365b565b612bb65760405162461bcd60e51b815260206004820152601e60248201527f6465706f736974546f46696c6d3a206c657373206d696e20616d6f756e740000604482015260640161088e565b612bc8612bc38286613ac1565b6136ee565b612c145760405162461bcd60e51b815260206004820152601e60248201527f6465706f736974546f46696c6d3a206f766572206d617820616d6f756e740000604482015260640161088e565b50612fb1565b84600203612fb1578360021480612c315750836003145b612ca35760405162461bcd60e51b815260206004820152602360248201527f6465706f736974546f46696c6d3a206e6f742066756e6420747970652062792060448201527f6e66740000000000000000000000000000000000000000000000000000000000606482015260840161088e565b60008060007f00000000000000000000000000000000000000000000000000000000000000006001600160a01b031663421895148b6040518263ffffffff1660e01b8152600401612cf691815260200190565b60a060405180830381865afa158015612d13573d6000803e3d6000fd5b505050506040513d601f19601f82011682018060405250810190612d379190613be6565b509350935093505060007f00000000000000000000000000000000000000000000000000000000000000006001600160a01b03166392ab723e8c6040518263ffffffff1660e01b8152600401612d8f91815260200190565b602060405180830381865afa158015612dac573d6000803e3d6000fd5b505050506040513d601f19601f82011682018060405250810190612dd0919061396b565b90506001600160a01b038216612e4d5760405162461bcd60e51b8152602060048201526024808201527f6465706f736974546f46696c6d3a206e6f74206465706c6f79656420666f722060448201527f66696c6d00000000000000000000000000000000000000000000000000000000606482015260840161088e565b83600003612e9d5760405162461bcd60e51b815260206004820152601b60248201527f6465706f736974546f46696c6d3a206e6f206d696e7420696e666f0000000000604482015260640161088e565b612ea78a82613ac1565b841015612f1c5760405162461bcd60e51b815260206004820152602160248201527f6465706f736974546f46696c6d3a20657863656564206d696e7420616d6f756e60448201527f7400000000000000000000000000000000000000000000000000000000000000606482015260840161088e565b6000612f28848c613ad4565b9050612f34878261057e565b9550612f43612bc3828a613ac1565b612f8f5760405162461bcd60e51b815260206004820152601e60248201527f6465706f736974546f46696c6d3a206f766572206d617820616d6f756e740000604482015260640161088e565b5050506000898152600760209081526040808320338452909152902088905550505b9695505050505050565b6001600160a01b0384163b6130125760405162461bcd60e51b815260206004820152600160248201527f4300000000000000000000000000000000000000000000000000000000000000604482015260640161088e565b604080516001600160a01b0385811660248301528481166044830152606480830185905283518084039091018152608490920183526020820180517bffffffffffffffffffffffffffffffffffffffffffffffffffffffff167f23b872dd0000000000000000000000000000000000000000000000000000000017905291516000928392908816916130a49190613b9b565b6000604051808303816000865af19150503d80600081146130e1576040519150601f19603f3d011682016040523d82523d6000602084013e6130e6565b606091505b50915091508180156131105750805115806131105750808060200190518101906131109190613a9f565b6131825760405162461bcd60e51b815260206004820152602c60248201527f566162626c6544414f3a3a7472616e7366657246726f6d3a207472616e73666560448201527f7246726f6d206661696c65640000000000000000000000000000000000000000606482015260840161088e565b505050505050565b60008381526004602090815260408083203384529091528120546001918291905b8181101561326257600087815260046020908152604080832033845290915290208054829081106131de576131de613a70565b60009182526020909120600290910201546001600160a01b039081169087160361325a576000878152600460209081526040808320338452909152902080548691908390811061323057613230613a70565b906000526020600020906002020160010160008282546132509190613ac1565b9091555060009450505b6001016131ab565b5082156132eb576000868152600460209081526040808320338452825280832081518083019092526001600160a01b038981168352828401898152825460018082018555938752949095209251600290940290920180547fffffffffffffffffffffffff0000000000000000000000000000000000000000169390921692909217815591519101555b6000868152600360205260409020546103e8811061334b5760405162461bcd60e51b815260206004820152601760248201527f61737369676e546f6b656e3a20626164206c656e677468000000000000000000604482015260640161088e565b60005b818110156133ef57600088815260036020526040902080548290811061337657613376613a70565b60009182526020909120600290910201546001600160a01b03908116908816036133e75760008881526003602052604090208054879190839081106133bd576133bd613a70565b906000526020600020906002020160010160008282546133dd9190613ac1565b9091555060009450505b60010161334e565b50821561347057600087815260036020908152604080832081518083019092526001600160a01b038a811683528284018a8152825460018082018555938752949095209251600290940290920180547fffffffffffffffffffffffff0000000000000000000000000000000000000000169390921692909217815591519101555b50505050505050565b6001600160a01b0383163b6134d05760405162461bcd60e51b815260206004820152600160248201527f4300000000000000000000000000000000000000000000000000000000000000604482015260640161088e565b604080516001600160a01b038481166024830152604480830185905283518084039091018152606490920183526020820180517bffffffffffffffffffffffffffffffffffffffffffffffffffffffff167f095ea7b300000000000000000000000000000000000000000000000000000000179052915160009283929087169161355a9190613b9b565b6000604051808303816000865af19150503d8060008114613597576040519150601f19603f3d011682016040523d82523d6000602084013e61359c565b606091505b50915091508180156135c65750805115806135c65750808060200190518101906135c69190613a9f565b6128bb5760405162461bcd60e51b815260206004820152602b60248201527f5472616e7366657248656c7065723a3a73616665417070726f76653a2061707060448201527f726f7665206661696c6564000000000000000000000000000000000000000000606482015260840161088e565b6001600160a01b038316613650576126f78282612614565b6126f78383836126fc565b60007f00000000000000000000000000000000000000000000000000000000000000006001600160a01b031663645006ca6040518163ffffffff1660e01b8152600401602060405180830381865afa1580156136bb573d6000803e3d6000fd5b505050506040513d601f19601f820116820180604052508101906136df919061396b565b82106136e9575060015b919050565b60007f00000000000000000000000000000000000000000000000000000000000000006001600160a01b0316638ed832716040518163ffffffff1660e01b8152600401602060405180830381865afa15801561374e573d6000803e3d6000fd5b505050506040513d601f19601f82011682018060405250810190613772919061396b565b82116136e957506001919050565b6001600160a01b0381168114610d5757600080fd5b600080604083850312156137a857600080fd5b82356137b381613780565b946020939093013593505050565b6020808252825182820181905260009190848201906040850190845b818110156137f9578351835292840192918401916001016137dd565b50909695505050505050565b60006020828403121561381757600080fd5b5035919050565b6000806000806080858703121561383457600080fd5b843593506020850135925060408501359150606085013561385481613780565b939692955090935050565b6000806040838503121561387257600080fd5b50508035926020909101359150565b60008060006060848603121561389657600080fd5b8335925060208401356138a881613780565b929592945050506040919091013590565b600080604083850312156138cc57600080fd5b8235915060208301356138de81613780565b809150509250929050565b6000602082840312156138fb57600080fd5b813561390681613780565b9392505050565b6020808252825182820181905260009190848201906040850190845b818110156137f95783516001600160a01b031683529284019291840191600101613929565b60006020828403121561396057600080fd5b815161390681613780565b60006020828403121561397d57600080fd5b5051919050565b60006020828403121561399657600080fd5b81516006811061390657600080fd5b7f4e487b7100000000000000000000000000000000000000000000000000000000600052602160045260246000fd5b600080600080608085870312156139ea57600080fd5b505082516020840151604085015160609095015191969095509092509050565b60008060408385031215613a1d57600080fd5b505080516020909101519092909150565b7f4e487b7100000000000000000000000000000000000000000000000000000000600052601160045260246000fd5b8181038181111561057857610578613a2e565b7f4e487b7100000000000000000000000000000000000000000000000000000000600052603260045260246000fd5b600060208284031215613ab157600080fd5b8151801515811461390657600080fd5b8082018082111561057857610578613a2e565b808202811582820484141761057857610578613a2e565b600082613b21577f4e487b7100000000000000000000000000000000000000000000000000000000600052601260045260246000fd5b500490565b60005b83811015613b41578181015183820152602001613b29565b50506000910152565b6020815260008251806020840152613b69816040850160208701613b26565b601f017fffffffffffffffffffffffffffffffffffffffffffffffffffffffffffffffe0169190910160400192915050565b60008251613bad818460208701613b26565b9190910192915050565b7f4e487b7100000000000000000000000000000000000000000000000000000000600052603160045260246000fd5b600080600080600060a08688031215613bfe57600080fd5b8551945060208601519350604086015192506060860151613c1e81613780565b6080870151909250613c2f81613780565b80915050929550929590935056fea26469706673582212205134079d6ea50ff046d8ba88ddd92ae3d5b7ff633fad986f4d46cfc243309d5564736f6c63430008180033","linkReferences":{}},"methodIdentifiers":{"VABBLE_DAO()":"986c1b59","__getExpectedTokenAmount(address,uint256)":"0a913893","__getExpectedUsdcAmount(address,uint256)":"01733baf","assetInfo(uint256,address,uint256)":"90cc5ea0","assetPerFilm(uint256,uint256)":"903859f4","depositToFilm(uint256,uint256,uint256,address)":"7682e4f1","fundProcess(uint256)":"a2bfda8f","getAllowUserNftCount(uint256,address)":"9d6af27f","getFilmInvestorList(uint256)":"e948159c","getFundProcessedFilmIdList()":"2c368afe","getTotalFundAmountPerFilm(uint256)":"93b1138b","getUserFundAmountPerFilm(address,uint256)":"e4ed62ff","initialize(address)":"c4d66de8","isFundProcessed(uint256)":"d0bae3f9","isRaisedFullAmount(uint256)":"9b6034a9","withdrawFunding(uint256)":"3697f055"},"id":9}