{"abi":[{"type":"constructor","inputs":[{"name":"_uniswap2Factory","type":"address","internalType":"address"},{"name":"_uniswap2Router","type":"address","internalType":"address"},{"name":"_sushiswapFactory","type":"address","internalType":"address"},{"name":"_sushiswapRouter","type":"address","internalType":"address"},{"name":"_ownable","type":"address","internalType":"address"}],"stateMutability":"nonpayable"},{"type":"receive","stateMutability":"payable"},{"type":"function","name":"expectedAmount","inputs":[{"name":"_depositAmount","type":"uint256","internalType":"uint256"},{"name":"_depositAsset","type":"address","internalType":"address"},{"name":"_incomingAsset","type":"address","internalType":"address"}],"outputs":[{"name":"amount_","type":"uint256","internalType":"uint256"}],"stateMutability":"view"},{"type":"function","name":"expectedAmountForTest","inputs":[{"name":"_depositAmount","type":"uint256","internalType":"uint256"},{"name":"_depositAsset","type":"address","internalType":"address"},{"name":"_incomingAsset","type":"address","internalType":"address"}],"outputs":[{"name":"amount_","type":"uint256","internalType":"uint256"}],"stateMutability":"view"},{"type":"function","name":"getSushiFactory","inputs":[],"outputs":[{"name":"factory_","type":"address","internalType":"address"}],"stateMutability":"view"},{"type":"function","name":"getSushiRouter","inputs":[],"outputs":[{"name":"router_","type":"address","internalType":"address"}],"stateMutability":"view"},{"type":"function","name":"getUniswapFactory","inputs":[],"outputs":[{"name":"factory_","type":"address","internalType":"address"}],"stateMutability":"view"},{"type":"function","name":"getUniswapRouter","inputs":[],"outputs":[{"name":"router_","type":"address","internalType":"address"}],"stateMutability":"view"},{"type":"function","name":"isInitialized","inputs":[],"outputs":[{"name":"","type":"bool","internalType":"bool"}],"stateMutability":"view"},{"type":"function","name":"isVabbleContract","inputs":[{"name":"","type":"address","internalType":"address"}],"outputs":[{"name":"","type":"bool","internalType":"bool"}],"stateMutability":"view"},{"type":"function","name":"setWhiteList","inputs":[{"name":"_vabbleDAO","type":"address","internalType":"address"},{"name":"_vabbleFund","type":"address","internalType":"address"},{"name":"_subscription","type":"address","internalType":"address"},{"name":"_factoryFilm","type":"address","internalType":"address"},{"name":"_factorySub","type":"address","internalType":"address"}],"outputs":[],"stateMutability":"nonpayable"},{"type":"function","name":"swapAsset","inputs":[{"name":"_swapArgs","type":"bytes","internalType":"bytes"}],"outputs":[{"name":"amount_","type":"uint256","internalType":"uint256"}],"stateMutability":"nonpayable"}],"bytecode":{"object":"0x61012060405234801561001157600080fd5b50604051612464380380612464833981016040819052610030916102e0565b60016000556001600160a01b0385166100b65760405162461bcd60e51b815260206004820152603460248201527f556e6948656c7065723a205f756e697377617032466163746f7279206d75737460448201527f206e6f74206265207a65726f206164647265737300000000000000000000000060648201526084015b60405180910390fd5b6001600160a01b0380861660a05284166101385760405162461bcd60e51b815260206004820152603360248201527f556e6948656c7065723a205f756e697377617032526f75746572206d7573742060448201527f6e6f74206265207a65726f20616464726573730000000000000000000000000060648201526084016100ad565b6001600160a01b0380851660805283166101ba5760405162461bcd60e51b815260206004820152603560248201527f556e6948656c7065723a205f737573686973776170466163746f7279206d757360448201527f74206e6f74206265207a65726f2061646472657373000000000000000000000060648201526084016100ad565b6001600160a01b0380841660c052821661023c5760405162461bcd60e51b815260206004820152603460248201527f556e6948656c7065723a205f737573686973776170526f75746572206d75737460448201527f206e6f74206265207a65726f206164647265737300000000000000000000000060648201526084016100ad565b6001600160a01b0380831660e05281166102ad5760405162461bcd60e51b815260206004820152602c60248201527f556e6948656c7065723a205f6f776e61626c65206d757374206e6f742062652060448201526b7a65726f206164647265737360a01b60648201526084016100ad565b6001600160a01b0316610100525061034592505050565b80516001600160a01b03811681146102db57600080fd5b919050565b600080600080600060a086880312156102f857600080fd5b610301866102c4565b945061030f602087016102c4565b935061031d604087016102c4565b925061032b606087016102c4565b9150610339608087016102c4565b90509295509295909350565b60805160a05160c05160e051610100516120ab6103b960003960006106ec0152600081816101bc01528181610f8e01526114ea01526000818160f501526113ec015260008181610156015261131001526000818161018901528181610f080152818161153f015261159501526120ab6000f3fe6080604052600436106100955760003560e01c806372667cdb1161005957806372667cdb146101ad578063ab4e9ba6146101e0578063b376e8511461020e578063cdb76ecc1461022e578063eeee26ce1461025057600080fd5b806308edee2e146100a15780631b66bce2146100e6578063392e53cd1461012d5780633e6dfa3614610147578063524900b51461017a57600080fd5b3661009c57005b600080fd5b3480156100ad57600080fd5b506100d16100bc366004611ca8565b60016020526000908152604090205460ff1681565b60405190151581526020015b60405180910390f35b3480156100f257600080fd5b507f00000000000000000000000000000000000000000000000000000000000000005b6040516001600160a01b0390911681526020016100dd565b34801561013957600080fd5b506002546100d19060ff1681565b34801561015357600080fd5b507f0000000000000000000000000000000000000000000000000000000000000000610115565b34801561018657600080fd5b507f0000000000000000000000000000000000000000000000000000000000000000610115565b3480156101b957600080fd5b507f0000000000000000000000000000000000000000000000000000000000000000610115565b3480156101ec57600080fd5b506102006101fb366004611ccc565b610270565b6040519081526020016100dd565b34801561021a57600080fd5b50610200610229366004611d3e565b610594565b34801561023a57600080fd5b5061024e610249366004611d80565b6106ea565b005b34801561025c57600080fd5b5061020061026b366004611d3e565b610b2f565b600061027a610d47565b6000808061028a85870187611d3e565b33600090815260016020526040902054929550909350915060ff166103045760405162461bcd60e51b815260206004820152602560248201527f63616c6c6572206973206e6f74206f6e65206f6620766162626c6520636f6e74604482015264726163747360d81b60648201526084015b60405180910390fd5b826001600160a01b0383161561043d5761032083333087610da0565b60008061032e856000610f00565b90925090506001600160a01b03821661037f5760405162461bcd60e51b81526020600482015260136024820152720e6827440dcde40e0deded840c8825eeecae8d606b1b60448201526064016102fb565b60405163d06ca61f60e01b81526000906001600160a01b0384169063d06ca61f906103b0908a908690600401611e36565b600060405180830381865afa1580156103cd573d6000803e3d6000fd5b505050506040513d6000823e601f3d908101601f191682016040526103f59190810190611e6d565b60018151811061040757610407611f2b565b6020026020010151905061041d87828585611607565b60018151811061042f5761042f611f2b565b602002602001015193505050505b9350836001600160a01b0382161561056c5760008061045d600085610f00565b90925090506001600160a01b0382166104ae5760405162461bcd60e51b815260206004820152601360248201527273413a206e6f20706f6f6c20776574682f694160681b60448201526064016102fb565b60405163d06ca61f60e01b81526000906001600160a01b0384169063d06ca61f906104df9087908690600401611e36565b600060405180830381865afa1580156104fc573d6000803e3d6000fd5b505050506040513d6000823e601f3d908101601f191682016040526105249190810190611e6d565b60018151811061053657610536611f2b565b6020026020010151905061054c848285856116bc565b60018151811061055e5761055e611f2b565b602002602001015197505050505b610576338461179e565b610580338361179e565b5050505061058e6001600055565b92915050565b600061059e611840565b6105ea5760405162461bcd60e51b815260206004820152601860248201527f6f6e6c79206176616961626c65206f6e20746573746e6574000000000000000060448201526064016102fb565b6000806105f78585610f00565b90925090506001600160a01b0382166106525760405162461bcd60e51b815260206004820152601760248201527f6578706563746564416d6f756e743a204e6f20506f6f6c00000000000000000060448201526064016102fb565b60405163d06ca61f60e01b81526001600160a01b0383169063d06ca61f906106809089908590600401611e36565b600060405180830381865afa15801561069d573d6000803e3d6000fd5b505050506040513d6000823e601f3d908101601f191682016040526106c59190810190611e6d565b6001815181106106d7576106d7611f2b565b6020026020010151925050509392505050565b7f00000000000000000000000000000000000000000000000000000000000000006001600160a01b031663d5f394886040518163ffffffff1660e01b8152600401602060405180830381865afa158015610748573d6000803e3d6000fd5b505050506040513d601f19601f8201168201806040525081019061076c9190611f41565b6001600160a01b0316336001600160a01b0316146107cc5760405162461bcd60e51b815260206004820152601a60248201527f63616c6c6572206973206e6f7420746865206465706c6f79657200000000000060448201526064016102fb565b60025460ff16156108295760405162461bcd60e51b815260206004820152602160248201527f73657457686974654c6973743a20616c726561647920696e697469616c697a656044820152601960fa1b60648201526084016102fb565b6001600160a01b03851615801590610845575061084585611881565b61089d5760405162461bcd60e51b8152602060048201526024808201527f73657457686974654c6973743a207a65726f20766162626c6544414f206164646044820152637265737360e01b60648201526084016102fb565b6001600160a01b038086166000908152600160208190526040909120805460ff191690911790558416158015906108d857506108d884611881565b6109325760405162461bcd60e51b815260206004820152602560248201527f73657457686974654c6973743a207a65726f20766162626c6546756e64206164604482015264647265737360d81b60648201526084016102fb565b6001600160a01b038085166000908152600160208190526040909120805460ff1916909117905583161580159061096d575061096d83611881565b6109c95760405162461bcd60e51b815260206004820152602760248201527f73657457686974654c6973743a207a65726f20737562736372697074696f6e206044820152666164647265737360c81b60648201526084016102fb565b6001600160a01b038084166000908152600160208190526040909120805460ff19169091179055821615801590610a045750610a0482611881565b610a605760405162461bcd60e51b815260206004820152602760248201527f73657457686974654c6973743a207a65726f20666163746f72792066696c6d206044820152666164647265737360c81b60648201526084016102fb565b6001600160a01b038083166000908152600160208190526040909120805460ff19169091179055811615801590610a9b5750610a9b81611881565b610af65760405162461bcd60e51b815260206004820152602660248201527f73657457686974654c6973743a207a65726f20666163746f727920737562206160448201526564647265737360d01b60648201526084016102fb565b6001600160a01b03166000908152600160208190526040909120805460ff19908116831790915560028054909116909117905550505050565b6000806001600160a01b038416610b47575083610c38565b600080610b55866000610f00565b90925090506001600160a01b038216610ba65760405162461bcd60e51b81526020600482015260136024820152720ca827440dcde40e0deded840c8825eeecae8d606b1b60448201526064016102fb565b60405163d06ca61f60e01b81526001600160a01b0383169063d06ca61f90610bd4908a908590600401611e36565b600060405180830381865afa158015610bf1573d6000803e3d6000fd5b505050506040513d6000823e601f3d908101601f19168201604052610c199190810190611e6d565b600181518110610c2b57610c2b611f2b565b6020026020010151925050505b6001600160a01b038316610c4e57809150610d3f565b600080610c5c600086610f00565b90925090506001600160a01b038216610cad5760405162461bcd60e51b815260206004820152601360248201527265413a206e6f20706f6f6c20776574682f694160681b60448201526064016102fb565b60405163d06ca61f60e01b81526001600160a01b0383169063d06ca61f90610cdb9086908590600401611e36565b600060405180830381865afa158015610cf8573d6000803e3d6000fd5b505050506040513d6000823e601f3d908101601f19168201604052610d209190810190611e6d565b600181518110610d3257610d32611f2b565b6020026020010151935050505b509392505050565b600260005403610d995760405162461bcd60e51b815260206004820152601f60248201527f5265656e7472616e637947756172643a207265656e7472616e742063616c6c0060448201526064016102fb565b6002600055565b6001600160a01b0384163b610dc75760405162461bcd60e51b81526004016102fb90611f5e565b604080516001600160a01b0385811660248301528481166044830152606480830185905283518084039091018152608490920183526020820180516001600160e01b03166323b872dd60e01b1790529151600092839290881691610e2b9190611f79565b6000604051808303816000865af19150503d8060008114610e68576040519150601f19603f3d011682016040523d82523d6000602084013e610e6d565b606091505b5091509150818015610e97575080511580610e97575080806020019051810190610e979190611fa8565b610ef85760405162461bcd60e51b815260206004820152602c60248201527f566162626c6544414f3a3a7472616e7366657246726f6d3a207472616e73666560448201526b1c919c9bdb4819985a5b195960a21b60648201526084016102fb565b505050505050565b6000606060007f00000000000000000000000000000000000000000000000000000000000000006001600160a01b031663ad5c46486040518163ffffffff1660e01b8152600401602060405180830381865afa158015610f64573d6000803e3d6000fd5b505050506040513d601f19601f82011682018060405250810190610f889190611f41565b905060007f00000000000000000000000000000000000000000000000000000000000000006001600160a01b031663ad5c46486040518163ffffffff1660e01b8152600401602060405180830381865afa158015610fea573d6000803e3d6000fd5b505050506040513d601f19601f8201168201806040525081019061100e9190611f41565b60408051600280825260608201835292935060009290916020830190803683375050604080516002808252606082018352939450600093909250906020830190803683370190505090506001600160a01b03881661113757838260008151811061107a5761107a611f2b565b60200260200101906001600160a01b031690816001600160a01b03168152505086826001815181106110ae576110ae611f2b565b60200260200101906001600160a01b031690816001600160a01b03168152505082816000815181106110e2576110e2611f2b565b60200260200101906001600160a01b031690816001600160a01b031681525050868160018151811061111657611116611f2b565b60200260200101906001600160a01b031690816001600160a01b0316815250505b6001600160a01b03871661121657878260008151811061115957611159611f2b565b60200260200101906001600160a01b031690816001600160a01b031681525050838260018151811061118d5761118d611f2b565b60200260200101906001600160a01b031690816001600160a01b03168152505087816000815181106111c1576111c1611f2b565b60200260200101906001600160a01b031690816001600160a01b03168152505082816001815181106111f5576111f5611f2b565b60200260200101906001600160a01b031690816001600160a01b0316815250505b6001600160a01b0388161580159061123657506001600160a01b03871615155b1561130c57878260008151811061124f5761124f611f2b565b60200260200101906001600160a01b031690816001600160a01b031681525050868260018151811061128357611283611f2b565b60200260200101906001600160a01b031690816001600160a01b03168152505087816000815181106112b7576112b7611f2b565b60200260200101906001600160a01b031690816001600160a01b03168152505086816001815181106112eb576112eb611f2b565b60200260200101906001600160a01b031690816001600160a01b0316815250505b60007f00000000000000000000000000000000000000000000000000000000000000006001600160a01b031663e6a439058460008151811061135057611350611f2b565b60200260200101518560018151811061136b5761136b611f2b565b60200260200101516040518363ffffffff1660e01b81526004016113a59291906001600160a01b0392831681529116602082015260400190565b602060405180830381865afa1580156113c2573d6000803e3d6000fd5b505050506040513d601f19601f820116820180604052508101906113e69190611f41565b905060007f00000000000000000000000000000000000000000000000000000000000000006001600160a01b031663e6a439058460008151811061142c5761142c611f2b565b60200260200101518560018151811061144757611447611f2b565b60200260200101516040518363ffffffff1660e01b81526004016114819291906001600160a01b0392831681529116602082015260400190565b602060405180830381865afa15801561149e573d6000803e3d6000fd5b505050506040513d601f19601f820116820180604052508101906114c29190611f41565b90506001600160a01b0382161580156114e357506001600160a01b03811615155b15611519577f00000000000000000000000000000000000000000000000000000000000000008397509750505050505050611600565b6001600160a01b0382161580159061153857506001600160a01b038116155b1561156e577f00000000000000000000000000000000000000000000000000000000000000008497509750505050505050611600565b6001600160a01b0382161580159061158e57506001600160a01b03811615155b156115c4577f00000000000000000000000000000000000000000000000000000000000000008497509750505050505050611600565b6001600160a01b0382161580156115e257506001600160a01b038116155b156115f95760008497509750505050505050611600565b5050505050505b9250929050565b606061162e8260008151811061161f5761161f611f2b565b60200260200101518487611895565b6001600160a01b0383166318cbafe58686853061164c426001611fca565b6040518663ffffffff1660e01b815260040161166c959493929190611feb565b6000604051808303816000875af115801561168b573d6000803e3d6000fd5b505050506040513d6000823e601f3d908101601f191682016040526116b39190810190611e6d565b95945050505050565b6060844710156117045760405162461bcd60e51b81526020600482015260136024820152721cd1551bd50e881a5b9cdd59999a58da595b9d606a1b60448201526064016102fb565b61171a8260008151811061161f5761161f611f2b565b6001600160a01b038316637ff36ab547868530611738426001611fca565b6040518663ffffffff1660e01b81526004016117579493929190612027565b60006040518083038185885af1158015611775573d6000803e3d6000fd5b50505050506040513d6000823e601f3d908101601f191682016040526116b39190810190611e6d565b60006001600160a01b0382166117c557504780156117c0576117c08382611919565b505050565b6040516370a0823160e01b81523060048201526001600160a01b038316906370a0823190602401602060405180830381865afa158015611809573d6000803e3d6000fd5b505050506040513d601f19601f8201168201806040525081019061182d919061205c565b905080156117c0576117c08284836119ee565b60004661053981148061185557508062013881145b8061186257508062013882145b8061186e575080617a69145b8061187b57508062014a34145b91505090565b60006001600160a01b0382163b151561058e565b604051636eb1769f60e11b81523060048201526001600160a01b03838116602483015282919085169063dd62ed3e90604401602060405180830381865afa1580156118e4573d6000803e3d6000fd5b505050506040513d601f19601f82011682018060405250810190611908919061205c565b10156117c0576117c0838383611b41565b604080516000808252602082019092526001600160a01b0384169083906040516119439190611f79565b60006040518083038185875af1925050503d8060008114611980576040519150601f19603f3d011682016040523d82523d6000602084013e611985565b606091505b50509050806117c05760405162461bcd60e51b815260206004820152602f60248201527f566162626c6544414f3a3a736166655472616e736665724554483a204554482060448201526e1d1c985b9cd9995c8819985a5b1959608a1b60648201526084016102fb565b6001600160a01b0383163b611a155760405162461bcd60e51b81526004016102fb90611f5e565b604080516001600160a01b038481166024830152604480830185905283518084039091018152606490920183526020820180516001600160e01b031663a9059cbb60e01b1790529151600092839290871691611a719190611f79565b6000604051808303816000865af19150503d8060008114611aae576040519150601f19603f3d011682016040523d82523d6000602084013e611ab3565b606091505b5091509150818015611add575080511580611add575080806020019051810190611add9190611fa8565b611b3a5760405162461bcd60e51b815260206004820152602860248201527f566162626c6544414f3a3a736166655472616e736665723a207472616e7366656044820152671c8819985a5b195960c21b60648201526084016102fb565b5050505050565b6001600160a01b0383163b611b685760405162461bcd60e51b81526004016102fb90611f5e565b604080516001600160a01b038481166024830152604480830185905283518084039091018152606490920183526020820180516001600160e01b031663095ea7b360e01b1790529151600092839290871691611bc49190611f79565b6000604051808303816000865af19150503d8060008114611c01576040519150601f19603f3d011682016040523d82523d6000602084013e611c06565b606091505b5091509150818015611c30575080511580611c30575080806020019051810190611c309190611fa8565b611b3a5760405162461bcd60e51b815260206004820152602b60248201527f5472616e7366657248656c7065723a3a73616665417070726f76653a2061707060448201526a1c9bdd994819985a5b195960aa1b60648201526084016102fb565b6001600160a01b0381168114611ca557600080fd5b50565b600060208284031215611cba57600080fd5b8135611cc581611c90565b9392505050565b60008060208385031215611cdf57600080fd5b823567ffffffffffffffff80821115611cf757600080fd5b818501915085601f830112611d0b57600080fd5b813581811115611d1a57600080fd5b866020828501011115611d2c57600080fd5b60209290920196919550909350505050565b600080600060608486031215611d5357600080fd5b833592506020840135611d6581611c90565b91506040840135611d7581611c90565b809150509250925092565b600080600080600060a08688031215611d9857600080fd5b8535611da381611c90565b94506020860135611db381611c90565b93506040860135611dc381611c90565b92506060860135611dd381611c90565b91506080860135611de381611c90565b809150509295509295909350565b60008151808452602080850194506020840160005b83811015611e2b5781516001600160a01b031687529582019590820190600101611e06565b509495945050505050565b828152604060208201526000611e4f6040830184611df1565b949350505050565b634e487b7160e01b600052604160045260246000fd5b60006020808385031215611e8057600080fd5b825167ffffffffffffffff80821115611e9857600080fd5b818501915085601f830112611eac57600080fd5b815181811115611ebe57611ebe611e57565b8060051b604051601f19603f83011681018181108582111715611ee357611ee3611e57565b604052918252848201925083810185019188831115611f0157600080fd5b938501935b82851015611f1f57845184529385019392850192611f06565b98975050505050505050565b634e487b7160e01b600052603260045260246000fd5b600060208284031215611f5357600080fd5b8151611cc581611c90565b6020808252600190820152604360f81b604082015260600190565b6000825160005b81811015611f9a5760208186018101518583015201611f80565b506000920191825250919050565b600060208284031215611fba57600080fd5b81518015158114611cc557600080fd5b8082018082111561058e57634e487b7160e01b600052601160045260246000fd5b85815284602082015260a06040820152600061200a60a0830186611df1565b6001600160a01b0394909416606083015250608001529392505050565b8481526080602082015260006120406080830186611df1565b6001600160a01b03949094166040830152506060015292915050565b60006020828403121561206e57600080fd5b505191905056fea26469706673582212205a6ecd95398a2423b47eacbcd855a2f1dd07f785d9aa5e3f086a2ad243c2001164736f6c63430008190033","linkReferences":{}},"methodIdentifiers":{"expectedAmount(uint256,address,address)":"eeee26ce","expectedAmountForTest(uint256,address,address)":"b376e851","getSushiFactory()":"1b66bce2","getSushiRouter()":"72667cdb","getUniswapFactory()":"3e6dfa36","getUniswapRouter()":"524900b5","isInitialized()":"392e53cd","isVabbleContract(address)":"08edee2e","setWhiteList(address,address,address,address,address)":"cdb76ecc","swapAsset(bytes)":"ab4e9ba6"},"id":8}