{"abi":[{"type":"constructor","inputs":[{"name":"_uniswap2Factory","type":"address","internalType":"address"},{"name":"_uniswap2Router","type":"address","internalType":"address"},{"name":"_sushiswapFactory","type":"address","internalType":"address"},{"name":"_sushiswapRouter","type":"address","internalType":"address"},{"name":"_ownable","type":"address","internalType":"address"}],"stateMutability":"nonpayable"},{"type":"receive","stateMutability":"payable"},{"type":"function","name":"expectedAmount","inputs":[{"name":"_depositAmount","type":"uint256","internalType":"uint256"},{"name":"_depositAsset","type":"address","internalType":"address"},{"name":"_incomingAsset","type":"address","internalType":"address"}],"outputs":[{"name":"amount_","type":"uint256","internalType":"uint256"}],"stateMutability":"view"},{"type":"function","name":"expectedAmountForTest","inputs":[{"name":"_depositAmount","type":"uint256","internalType":"uint256"},{"name":"_depositAsset","type":"address","internalType":"address"},{"name":"_incomingAsset","type":"address","internalType":"address"}],"outputs":[{"name":"amount_","type":"uint256","internalType":"uint256"}],"stateMutability":"view"},{"type":"function","name":"getSushiFactory","inputs":[],"outputs":[{"name":"factory_","type":"address","internalType":"address"}],"stateMutability":"view"},{"type":"function","name":"getSushiRouter","inputs":[],"outputs":[{"name":"router_","type":"address","internalType":"address"}],"stateMutability":"view"},{"type":"function","name":"getUniswapFactory","inputs":[],"outputs":[{"name":"factory_","type":"address","internalType":"address"}],"stateMutability":"view"},{"type":"function","name":"getUniswapRouter","inputs":[],"outputs":[{"name":"router_","type":"address","internalType":"address"}],"stateMutability":"view"},{"type":"function","name":"isInitialized","inputs":[],"outputs":[{"name":"","type":"bool","internalType":"bool"}],"stateMutability":"view"},{"type":"function","name":"isVabbleContract","inputs":[{"name":"","type":"address","internalType":"address"}],"outputs":[{"name":"","type":"bool","internalType":"bool"}],"stateMutability":"view"},{"type":"function","name":"setWhiteList","inputs":[{"name":"_vabbleDAO","type":"address","internalType":"address"},{"name":"_vabbleFund","type":"address","internalType":"address"},{"name":"_subscription","type":"address","internalType":"address"},{"name":"_factoryFilm","type":"address","internalType":"address"},{"name":"_factorySub","type":"address","internalType":"address"}],"outputs":[],"stateMutability":"nonpayable"},{"type":"function","name":"swapAsset","inputs":[{"name":"_swapArgs","type":"bytes","internalType":"bytes"}],"outputs":[{"name":"amount_","type":"uint256","internalType":"uint256"}],"stateMutability":"nonpayable"}],"bytecode":{"object":"0x6101206040523480156200001257600080fd5b5060405162004113380380620041138339818101604052810190620000389190620003f4565b6001600081905550600073ffffffffffffffffffffffffffffffffffffffff168573ffffffffffffffffffffffffffffffffffffffff1603620000b2576040517f08c379a0000000000000000000000000000000000000000000000000000000008152600401620000a99062000503565b60405180910390fd5b8473ffffffffffffffffffffffffffffffffffffffff1660a08173ffffffffffffffffffffffffffffffffffffffff1681525050600073ffffffffffffffffffffffffffffffffffffffff168473ffffffffffffffffffffffffffffffffffffffff160362000158576040517f08c379a00000000000000000000000000000000000000000000000000000000081526004016200014f906200059b565b60405180910390fd5b8373ffffffffffffffffffffffffffffffffffffffff1660808173ffffffffffffffffffffffffffffffffffffffff1681525050600073ffffffffffffffffffffffffffffffffffffffff168373ffffffffffffffffffffffffffffffffffffffff1603620001fe576040517f08c379a0000000000000000000000000000000000000000000000000000000008152600401620001f59062000633565b60405180910390fd5b8273ffffffffffffffffffffffffffffffffffffffff1660c08173ffffffffffffffffffffffffffffffffffffffff1681525050600073ffffffffffffffffffffffffffffffffffffffff168273ffffffffffffffffffffffffffffffffffffffff1603620002a4576040517f08c379a00000000000000000000000000000000000000000000000000000000081526004016200029b90620006cb565b60405180910390fd5b8173ffffffffffffffffffffffffffffffffffffffff1660e08173ffffffffffffffffffffffffffffffffffffffff1681525050600073ffffffffffffffffffffffffffffffffffffffff168173ffffffffffffffffffffffffffffffffffffffff16036200034a576040517f08c379a0000000000000000000000000000000000000000000000000000000008152600401620003419062000763565b60405180910390fd5b8073ffffffffffffffffffffffffffffffffffffffff166101008173ffffffffffffffffffffffffffffffffffffffff1681525050505050505062000785565b600080fd5b600073ffffffffffffffffffffffffffffffffffffffff82169050919050565b6000620003bc826200038f565b9050919050565b620003ce81620003af565b8114620003da57600080fd5b50565b600081519050620003ee81620003c3565b92915050565b600080600080600060a086880312156200041357620004126200038a565b5b60006200042388828901620003dd565b95505060206200043688828901620003dd565b94505060406200044988828901620003dd565b93505060606200045c88828901620003dd565b92505060806200046f88828901620003dd565b9150509295509295909350565b600082825260208201905092915050565b7f556e6948656c7065723a205f756e697377617032466163746f7279206d75737460008201527f206e6f74206265207a65726f2061646472657373000000000000000000000000602082015250565b6000620004eb6034836200047c565b9150620004f8826200048d565b604082019050919050565b600060208201905081810360008301526200051e81620004dc565b9050919050565b7f556e6948656c7065723a205f756e697377617032526f75746572206d7573742060008201527f6e6f74206265207a65726f206164647265737300000000000000000000000000602082015250565b6000620005836033836200047c565b9150620005908262000525565b604082019050919050565b60006020820190508181036000830152620005b68162000574565b9050919050565b7f556e6948656c7065723a205f737573686973776170466163746f7279206d757360008201527f74206e6f74206265207a65726f20616464726573730000000000000000000000602082015250565b60006200061b6035836200047c565b91506200062882620005bd565b604082019050919050565b600060208201905081810360008301526200064e816200060c565b9050919050565b7f556e6948656c7065723a205f737573686973776170526f75746572206d75737460008201527f206e6f74206265207a65726f2061646472657373000000000000000000000000602082015250565b6000620006b36034836200047c565b9150620006c08262000655565b604082019050919050565b60006020820190508181036000830152620006e681620006a4565b9050919050565b7f556e6948656c7065723a205f6f776e61626c65206d757374206e6f742062652060008201527f7a65726f20616464726573730000000000000000000000000000000000000000602082015250565b60006200074b602c836200047c565b91506200075882620006ed565b604082019050919050565b600060208201905081810360008301526200077e816200073c565b9050919050565b60805160a05160c05160e05161010051613918620007fb60003960006108c80152600081816103440152818161139e0152611b730152600081816102b90152611a310152600081816102f4015261195b01526000818161031c0152818161130b01528181611c120152611cb201526139186000f3fe6080604052600436106100955760003560e01c806372667cdb1161005957806372667cdb1461018a578063ab4e9ba6146101b5578063b376e851146101f2578063cdb76ecc1461022f578063eeee26ce146102585761009c565b806308edee2e146100a15780631b66bce2146100de578063392e53cd146101095780633e6dfa3614610134578063524900b51461015f5761009c565b3661009c57005b600080fd5b3480156100ad57600080fd5b506100c860048036038101906100c391906125a9565b610295565b6040516100d591906125f1565b60405180910390f35b3480156100ea57600080fd5b506100f36102b5565b604051610100919061261b565b60405180910390f35b34801561011557600080fd5b5061011e6102dd565b60405161012b91906125f1565b60405180910390f35b34801561014057600080fd5b506101496102f0565b604051610156919061261b565b60405180910390f35b34801561016b57600080fd5b50610174610318565b604051610181919061261b565b60405180910390f35b34801561019657600080fd5b5061019f610340565b6040516101ac919061261b565b60405180910390f35b3480156101c157600080fd5b506101dc60048036038101906101d7919061269b565b610368565b6040516101e99190612701565b60405180910390f35b3480156101fe57600080fd5b5061021960048036038101906102149190612748565b610756565b6040516102269190612701565b60405180910390f35b34801561023b57600080fd5b506102566004803603810190610251919061279b565b6108c6565b005b34801561026457600080fd5b5061027f600480360381019061027a9190612748565b610e6c565b60405161028c9190612701565b60405180910390f35b60016020528060005260406000206000915054906101000a900460ff1681565b60007f0000000000000000000000000000000000000000000000000000000000000000905090565b600260009054906101000a900460ff1681565b60007f0000000000000000000000000000000000000000000000000000000000000000905090565b60007f0000000000000000000000000000000000000000000000000000000000000000905090565b60007f0000000000000000000000000000000000000000000000000000000000000000905090565b6000610372611133565b600080600085858101906103869190612854565b925092509250600160003373ffffffffffffffffffffffffffffffffffffffff1673ffffffffffffffffffffffffffffffffffffffff16815260200190815260200160002060009054906101000a900460ff16610418576040517f08c379a000000000000000000000000000000000000000000000000000000000815260040161040f9061292a565b60405180910390fd5b6000839050600073ffffffffffffffffffffffffffffffffffffffff168373ffffffffffffffffffffffffffffffffffffffff16146105ab5761045d83333087611182565b60008061046b856000611303565b91509150600073ffffffffffffffffffffffffffffffffffffffff168273ffffffffffffffffffffffffffffffffffffffff16036104de576040517f08c379a00000000000000000000000000000000000000000000000000000000081526004016104d590612996565b60405180910390fd5b60008273ffffffffffffffffffffffffffffffffffffffff1663d06ca61f88846040518363ffffffff1660e01b815260040161051b929190612a74565b600060405180830381865afa158015610538573d6000803e3d6000fd5b505050506040513d6000823e3d601f19601f820116820180604052508101906105619190612c08565b60018151811061057457610573612c51565b5b6020026020010151905061058a87828585611d6e565b60018151811061059d5761059c612c51565b5b602002602001015193505050505b809450600073ffffffffffffffffffffffffffffffffffffffff168273ffffffffffffffffffffffffffffffffffffffff1614610730576000806105f0600085611303565b91509150600073ffffffffffffffffffffffffffffffffffffffff168273ffffffffffffffffffffffffffffffffffffffff1603610663576040517f08c379a000000000000000000000000000000000000000000000000000000000815260040161065a90612ccc565b60405180910390fd5b60008273ffffffffffffffffffffffffffffffffffffffff1663d06ca61f85846040518363ffffffff1660e01b81526004016106a0929190612a74565b600060405180830381865afa1580156106bd573d6000803e3d6000fd5b505050506040513d6000823e3d601f19601f820116820180604052508101906106e69190612c08565b6001815181106106f9576106f8612c51565b5b6020026020010151905061070f84828585611e35565b60018151811061072257610721612c51565b5b602002602001015197505050505b61073a3384611f3e565b6107443383611f3e565b50505050610750612024565b92915050565b600061076061202e565b61079f576040517f08c379a000000000000000000000000000000000000000000000000000000000815260040161079690612d38565b60405180910390fd5b6000806107ac8585611303565b91509150600073ffffffffffffffffffffffffffffffffffffffff168273ffffffffffffffffffffffffffffffffffffffff160361081f576040517f08c379a000000000000000000000000000000000000000000000000000000000815260040161081690612da4565b60405180910390fd5b8173ffffffffffffffffffffffffffffffffffffffff1663d06ca61f87836040518363ffffffff1660e01b815260040161085a929190612a74565b600060405180830381865afa158015610877573d6000803e3d6000fd5b505050506040513d6000823e3d601f19601f820116820180604052508101906108a09190612c08565b6001815181106108b3576108b2612c51565b5b6020026020010151925050509392505050565b7f000000000000000000000000000000000000000000000000000000000000000073ffffffffffffffffffffffffffffffffffffffff1663d5f394886040518163ffffffff1660e01b8152600401602060405180830381865afa158015610931573d6000803e3d6000fd5b505050506040513d601f19601f820116820180604052508101906109559190612dd9565b73ffffffffffffffffffffffffffffffffffffffff163373ffffffffffffffffffffffffffffffffffffffff16146109c2576040517f08c379a00000000000000000000000000000000000000000000000000000000081526004016109b990612e52565b60405180910390fd5b600260009054906101000a900460ff1615610a12576040517f08c379a0000000000000000000000000000000000000000000000000000000008152600401610a0990612ee4565b60405180910390fd5b600073ffffffffffffffffffffffffffffffffffffffff168573ffffffffffffffffffffffffffffffffffffffff1614158015610a545750610a5385612072565b5b610a93576040517f08c379a0000000000000000000000000000000000000000000000000000000008152600401610a8a90612f76565b60405180910390fd5b60018060008773ffffffffffffffffffffffffffffffffffffffff1673ffffffffffffffffffffffffffffffffffffffff16815260200190815260200160002060006101000a81548160ff021916908315150217905550600073ffffffffffffffffffffffffffffffffffffffff168473ffffffffffffffffffffffffffffffffffffffff1614158015610b2c5750610b2b84612072565b5b610b6b576040517f08c379a0000000000000000000000000000000000000000000000000000000008152600401610b6290613008565b60405180910390fd5b60018060008673ffffffffffffffffffffffffffffffffffffffff1673ffffffffffffffffffffffffffffffffffffffff16815260200190815260200160002060006101000a81548160ff021916908315150217905550600073ffffffffffffffffffffffffffffffffffffffff168373ffffffffffffffffffffffffffffffffffffffff1614158015610c045750610c0383612072565b5b610c43576040517f08c379a0000000000000000000000000000000000000000000000000000000008152600401610c3a9061309a565b60405180910390fd5b60018060008573ffffffffffffffffffffffffffffffffffffffff1673ffffffffffffffffffffffffffffffffffffffff16815260200190815260200160002060006101000a81548160ff021916908315150217905550600073ffffffffffffffffffffffffffffffffffffffff168273ffffffffffffffffffffffffffffffffffffffff1614158015610cdc5750610cdb82612072565b5b610d1b576040517f08c379a0000000000000000000000000000000000000000000000000000000008152600401610d129061312c565b60405180910390fd5b60018060008473ffffffffffffffffffffffffffffffffffffffff1673ffffffffffffffffffffffffffffffffffffffff16815260200190815260200160002060006101000a81548160ff021916908315150217905550600073ffffffffffffffffffffffffffffffffffffffff168173ffffffffffffffffffffffffffffffffffffffff1614158015610db45750610db381612072565b5b610df3576040517f08c379a0000000000000000000000000000000000000000000000000000000008152600401610dea906131be565b60405180910390fd5b60018060008373ffffffffffffffffffffffffffffffffffffffff1673ffffffffffffffffffffffffffffffffffffffff16815260200190815260200160002060006101000a81548160ff0219169083151502179055506001600260006101000a81548160ff0219169083151502179055505050505050565b600080600073ffffffffffffffffffffffffffffffffffffffff168473ffffffffffffffffffffffffffffffffffffffff1603610eab57849050610fcd565b600080610eb9866000611303565b91509150600073ffffffffffffffffffffffffffffffffffffffff168273ffffffffffffffffffffffffffffffffffffffff1603610f2c576040517f08c379a0000000000000000000000000000000000000000000000000000000008152600401610f239061322a565b60405180910390fd5b8173ffffffffffffffffffffffffffffffffffffffff1663d06ca61f88836040518363ffffffff1660e01b8152600401610f67929190612a74565b600060405180830381865afa158015610f84573d6000803e3d6000fd5b505050506040513d6000823e3d601f19601f82011682018060405250810190610fad9190612c08565b600181518110610fc057610fbf612c51565b5b6020026020010151925050505b600073ffffffffffffffffffffffffffffffffffffffff168373ffffffffffffffffffffffffffffffffffffffff16036110095780915061112b565b600080611017600086611303565b91509150600073ffffffffffffffffffffffffffffffffffffffff168273ffffffffffffffffffffffffffffffffffffffff160361108a576040517f08c379a000000000000000000000000000000000000000000000000000000000815260040161108190613296565b60405180910390fd5b8173ffffffffffffffffffffffffffffffffffffffff1663d06ca61f84836040518363ffffffff1660e01b81526004016110c5929190612a74565b600060405180830381865afa1580156110e2573d6000803e3d6000fd5b505050506040513d6000823e3d601f19601f8201168201806040525081019061110b9190612c08565b60018151811061111e5761111d612c51565b5b6020026020010151935050505b509392505050565b600260005403611178576040517f08c379a000000000000000000000000000000000000000000000000000000000815260040161116f90613302565b60405180910390fd5b6002600081905550565b61118b84612084565b6111ca576040517f08c379a00000000000000000000000000000000000000000000000000000000081526004016111c19061336e565b60405180910390fd5b6000808573ffffffffffffffffffffffffffffffffffffffff166323b872dd8686866040516024016111fe9392919061338e565b6040516020818303038152906040529060e01b6020820180517bffffffffffffffffffffffffffffffffffffffffffffffffffffffff838183161783525050505060405161124c9190613436565b6000604051808303816000865af19150503d8060008114611289576040519150601f19603f3d011682016040523d82523d6000602084013e61128e565b606091505b50915091508180156112bc57506000815114806112bb5750808060200190518101906112ba9190613479565b5b5b6112fb576040517f08c379a00000000000000000000000000000000000000000000000000000000081526004016112f290613518565b60405180910390fd5b505050505050565b6000606060007f000000000000000000000000000000000000000000000000000000000000000073ffffffffffffffffffffffffffffffffffffffff1663ad5c46486040518163ffffffff1660e01b8152600401602060405180830381865afa158015611374573d6000803e3d6000fd5b505050506040513d601f19601f820116820180604052508101906113989190612dd9565b905060007f000000000000000000000000000000000000000000000000000000000000000073ffffffffffffffffffffffffffffffffffffffff1663ad5c46486040518163ffffffff1660e01b8152600401602060405180830381865afa158015611407573d6000803e3d6000fd5b505050506040513d601f19601f8201168201806040525081019061142b9190612dd9565b90506000600267ffffffffffffffff81111561144a57611449612ab5565b5b6040519080825280602002602001820160405280156114785781602001602082028036833780820191505090505b5090506000600267ffffffffffffffff81111561149857611497612ab5565b5b6040519080825280602002602001820160405280156114c65781602001602082028036833780820191505090505b509050600073ffffffffffffffffffffffffffffffffffffffff168873ffffffffffffffffffffffffffffffffffffffff160361163a57838260008151811061151257611511612c51565b5b602002602001019073ffffffffffffffffffffffffffffffffffffffff16908173ffffffffffffffffffffffffffffffffffffffff1681525050868260018151811061156157611560612c51565b5b602002602001019073ffffffffffffffffffffffffffffffffffffffff16908173ffffffffffffffffffffffffffffffffffffffff168152505082816000815181106115b0576115af612c51565b5b602002602001019073ffffffffffffffffffffffffffffffffffffffff16908173ffffffffffffffffffffffffffffffffffffffff168152505086816001815181106115ff576115fe612c51565b5b602002602001019073ffffffffffffffffffffffffffffffffffffffff16908173ffffffffffffffffffffffffffffffffffffffff16815250505b600073ffffffffffffffffffffffffffffffffffffffff168773ffffffffffffffffffffffffffffffffffffffff16036117ab57878260008151811061168357611682612c51565b5b602002602001019073ffffffffffffffffffffffffffffffffffffffff16908173ffffffffffffffffffffffffffffffffffffffff168152505083826001815181106116d2576116d1612c51565b5b602002602001019073ffffffffffffffffffffffffffffffffffffffff16908173ffffffffffffffffffffffffffffffffffffffff1681525050878160008151811061172157611720612c51565b5b602002602001019073ffffffffffffffffffffffffffffffffffffffff16908173ffffffffffffffffffffffffffffffffffffffff168152505082816001815181106117705761176f612c51565b5b602002602001019073ffffffffffffffffffffffffffffffffffffffff16908173ffffffffffffffffffffffffffffffffffffffff16815250505b600073ffffffffffffffffffffffffffffffffffffffff168873ffffffffffffffffffffffffffffffffffffffff16141580156118155750600073ffffffffffffffffffffffffffffffffffffffff168773ffffffffffffffffffffffffffffffffffffffff1614155b1561195757878260008151811061182f5761182e612c51565b5b602002602001019073ffffffffffffffffffffffffffffffffffffffff16908173ffffffffffffffffffffffffffffffffffffffff1681525050868260018151811061187e5761187d612c51565b5b602002602001019073ffffffffffffffffffffffffffffffffffffffff16908173ffffffffffffffffffffffffffffffffffffffff168152505087816000815181106118cd576118cc612c51565b5b602002602001019073ffffffffffffffffffffffffffffffffffffffff16908173ffffffffffffffffffffffffffffffffffffffff1681525050868160018151811061191c5761191b612c51565b5b602002602001019073ffffffffffffffffffffffffffffffffffffffff16908173ffffffffffffffffffffffffffffffffffffffff16815250505b60007f000000000000000000000000000000000000000000000000000000000000000073ffffffffffffffffffffffffffffffffffffffff1663e6a43905846000815181106119a9576119a8612c51565b5b6020026020010151856001815181106119c5576119c4612c51565b5b60200260200101516040518363ffffffff1660e01b81526004016119ea929190613538565b602060405180830381865afa158015611a07573d6000803e3d6000fd5b505050506040513d601f19601f82011682018060405250810190611a2b9190612dd9565b905060007f000000000000000000000000000000000000000000000000000000000000000073ffffffffffffffffffffffffffffffffffffffff1663e6a4390584600081518110611a7f57611a7e612c51565b5b602002602001015185600181518110611a9b57611a9a612c51565b5b60200260200101516040518363ffffffff1660e01b8152600401611ac0929190613538565b602060405180830381865afa158015611add573d6000803e3d6000fd5b505050506040513d601f19601f82011682018060405250810190611b019190612dd9565b9050600073ffffffffffffffffffffffffffffffffffffffff168273ffffffffffffffffffffffffffffffffffffffff16148015611b6c5750600073ffffffffffffffffffffffffffffffffffffffff168173ffffffffffffffffffffffffffffffffffffffff1614155b15611ba2577f00000000000000000000000000000000000000000000000000000000000000008397509750505050505050611d67565b600073ffffffffffffffffffffffffffffffffffffffff168273ffffffffffffffffffffffffffffffffffffffff1614158015611c0b5750600073ffffffffffffffffffffffffffffffffffffffff168173ffffffffffffffffffffffffffffffffffffffff16145b15611c41577f00000000000000000000000000000000000000000000000000000000000000008497509750505050505050611d67565b600073ffffffffffffffffffffffffffffffffffffffff168273ffffffffffffffffffffffffffffffffffffffff1614158015611cab5750600073ffffffffffffffffffffffffffffffffffffffff168173ffffffffffffffffffffffffffffffffffffffff1614155b15611ce1577f00000000000000000000000000000000000000000000000000000000000000008497509750505050505050611d67565b600073ffffffffffffffffffffffffffffffffffffffff168273ffffffffffffffffffffffffffffffffffffffff16148015611d495750600073ffffffffffffffffffffffffffffffffffffffff168173ffffffffffffffffffffffffffffffffffffffff16145b15611d605760008497509750505050505050611d67565b5050505050505b9250929050565b6060611d9682600081518110611d8757611d86612c51565b5b602002602001015184876120a7565b8273ffffffffffffffffffffffffffffffffffffffff166318cbafe586868530600142611dc39190613590565b6040518663ffffffff1660e01b8152600401611de39594939291906135c4565b6000604051808303816000875af1158015611e02573d6000803e3d6000fd5b505050506040513d6000823e3d601f19601f82011682018060405250810190611e2b9190612c08565b9050949350505050565b606084471015611e7a576040517f08c379a0000000000000000000000000000000000000000000000000000000008152600401611e719061366a565b60405180910390fd5b611ea082600081518110611e9157611e90612c51565b5b602002602001015184876120a7565b8273ffffffffffffffffffffffffffffffffffffffff16637ff36ab547868530600142611ecd9190613590565b6040518663ffffffff1660e01b8152600401611eec949392919061368a565b60006040518083038185885af1158015611f0a573d6000803e3d6000fd5b50505050506040513d6000823e3d601f19601f82011682018060405250810190611f349190612c08565b9050949350505050565b60008073ffffffffffffffffffffffffffffffffffffffff168273ffffffffffffffffffffffffffffffffffffffff1603611f8e5747905060008114611f8957611f88838261213b565b5b61201f565b8173ffffffffffffffffffffffffffffffffffffffff166370a08231306040518263ffffffff1660e01b8152600401611fc7919061261b565b602060405180830381865afa158015611fe4573d6000803e3d6000fd5b505050506040513d601f19601f8201168201806040525081019061200891906136d6565b90506000811461201e5761201d82848361223b565b5b5b505050565b6001600081905550565b60008046905061053981148061204657506201388181145b8061205357506201388281145b8061205f5750617a6981145b8061206c575062014a3481145b91505090565b600061207d82612084565b9050919050565b6000808273ffffffffffffffffffffffffffffffffffffffff163b119050919050565b808373ffffffffffffffffffffffffffffffffffffffff1663dd62ed3e30856040518363ffffffff1660e01b81526004016120e3929190613538565b602060405180830381865afa158015612100573d6000803e3d6000fd5b505050506040513d601f19601f8201168201806040525081019061212491906136d6565b1015612136576121358383836123b9565b5b505050565b60008273ffffffffffffffffffffffffffffffffffffffff1682600067ffffffffffffffff8111156121705761216f612ab5565b5b6040519080825280601f01601f1916602001820160405280156121a25781602001600182028036833780820191505090505b506040516121b09190613436565b60006040518083038185875af1925050503d80600081146121ed576040519150601f19603f3d011682016040523d82523d6000602084013e6121f2565b606091505b5050905080612236576040517f08c379a000000000000000000000000000000000000000000000000000000000815260040161222d90613775565b60405180910390fd5b505050565b61224483612084565b612283576040517f08c379a000000000000000000000000000000000000000000000000000000000815260040161227a9061336e565b60405180910390fd5b6000808473ffffffffffffffffffffffffffffffffffffffff1663a9059cbb85856040516024016122b5929190613795565b6040516020818303038152906040529060e01b6020820180517bffffffffffffffffffffffffffffffffffffffffffffffffffffffff83818316178352505050506040516123039190613436565b6000604051808303816000865af19150503d8060008114612340576040519150601f19603f3d011682016040523d82523d6000602084013e612345565b606091505b509150915081801561237357506000815114806123725750808060200190518101906123719190613479565b5b5b6123b2576040517f08c379a00000000000000000000000000000000000000000000000000000000081526004016123a990613830565b60405180910390fd5b5050505050565b6123c283612084565b612401576040517f08c379a00000000000000000000000000000000000000000000000000000000081526004016123f89061336e565b60405180910390fd5b6000808473ffffffffffffffffffffffffffffffffffffffff1663095ea7b38585604051602401612433929190613795565b6040516020818303038152906040529060e01b6020820180517bffffffffffffffffffffffffffffffffffffffffffffffffffffffff83818316178352505050506040516124819190613436565b6000604051808303816000865af19150503d80600081146124be576040519150601f19603f3d011682016040523d82523d6000602084013e6124c3565b606091505b50915091508180156124f157506000815114806124f05750808060200190518101906124ef9190613479565b5b5b612530576040517f08c379a0000000000000000000000000000000000000000000000000000000008152600401612527906138c2565b60405180910390fd5b5050505050565b6000604051905090565b600080fd5b600080fd5b600073ffffffffffffffffffffffffffffffffffffffff82169050919050565b60006125768261254b565b9050919050565b6125868161256b565b811461259157600080fd5b50565b6000813590506125a38161257d565b92915050565b6000602082840312156125bf576125be612541565b5b60006125cd84828501612594565b91505092915050565b60008115159050919050565b6125eb816125d6565b82525050565b600060208201905061260660008301846125e2565b92915050565b6126158161256b565b82525050565b6000602082019050612630600083018461260c565b92915050565b600080fd5b600080fd5b600080fd5b60008083601f84011261265b5761265a612636565b5b8235905067ffffffffffffffff8111156126785761267761263b565b5b60208301915083600182028301111561269457612693612640565b5b9250929050565b600080602083850312156126b2576126b1612541565b5b600083013567ffffffffffffffff8111156126d0576126cf612546565b5b6126dc85828601612645565b92509250509250929050565b6000819050919050565b6126fb816126e8565b82525050565b600060208201905061271660008301846126f2565b92915050565b612725816126e8565b811461273057600080fd5b50565b6000813590506127428161271c565b92915050565b60008060006060848603121561276157612760612541565b5b600061276f86828701612733565b935050602061278086828701612594565b925050604061279186828701612594565b9150509250925092565b600080600080600060a086880312156127b7576127b6612541565b5b60006127c588828901612594565b95505060206127d688828901612594565b94505060406127e788828901612594565b93505060606127f888828901612594565b925050608061280988828901612594565b9150509295509295909350565b60006128218261254b565b9050919050565b61283181612816565b811461283c57600080fd5b50565b60008135905061284e81612828565b92915050565b60008060006060848603121561286d5761286c612541565b5b600061287b86828701612733565b935050602061288c8682870161283f565b925050604061289d8682870161283f565b9150509250925092565b600082825260208201905092915050565b7f63616c6c6572206973206e6f74206f6e65206f6620766162626c6520636f6e7460008201527f7261637473000000000000000000000000000000000000000000000000000000602082015250565b60006129146025836128a7565b915061291f826128b8565b604082019050919050565b6000602082019050818103600083015261294381612907565b9050919050565b7f73413a206e6f20706f6f6c2064412f7765746800000000000000000000000000600082015250565b60006129806013836128a7565b915061298b8261294a565b602082019050919050565b600060208201905081810360008301526129af81612973565b9050919050565b600081519050919050565b600082825260208201905092915050565b6000819050602082019050919050565b6129eb8161256b565b82525050565b60006129fd83836129e2565b60208301905092915050565b6000602082019050919050565b6000612a21826129b6565b612a2b81856129c1565b9350612a36836129d2565b8060005b83811015612a67578151612a4e88826129f1565b9750612a5983612a09565b925050600181019050612a3a565b5085935050505092915050565b6000604082019050612a8960008301856126f2565b8181036020830152612a9b8184612a16565b90509392505050565b6000601f19601f8301169050919050565b7f4e487b7100000000000000000000000000000000000000000000000000000000600052604160045260246000fd5b612aed82612aa4565b810181811067ffffffffffffffff82111715612b0c57612b0b612ab5565b5b80604052505050565b6000612b1f612537565b9050612b2b8282612ae4565b919050565b600067ffffffffffffffff821115612b4b57612b4a612ab5565b5b602082029050602081019050919050565b600081519050612b6b8161271c565b92915050565b6000612b84612b7f84612b30565b612b15565b90508083825260208201905060208402830185811115612ba757612ba6612640565b5b835b81811015612bd05780612bbc8882612b5c565b845260208401935050602081019050612ba9565b5050509392505050565b600082601f830112612bef57612bee612636565b5b8151612bff848260208601612b71565b91505092915050565b600060208284031215612c1e57612c1d612541565b5b600082015167ffffffffffffffff811115612c3c57612c3b612546565b5b612c4884828501612bda565b91505092915050565b7f4e487b7100000000000000000000000000000000000000000000000000000000600052603260045260246000fd5b7f73413a206e6f20706f6f6c20776574682f694100000000000000000000000000600082015250565b6000612cb66013836128a7565b9150612cc182612c80565b602082019050919050565b60006020820190508181036000830152612ce581612ca9565b9050919050565b7f6f6e6c79206176616961626c65206f6e20746573746e65740000000000000000600082015250565b6000612d226018836128a7565b9150612d2d82612cec565b602082019050919050565b60006020820190508181036000830152612d5181612d15565b9050919050565b7f6578706563746564416d6f756e743a204e6f20506f6f6c000000000000000000600082015250565b6000612d8e6017836128a7565b9150612d9982612d58565b602082019050919050565b60006020820190508181036000830152612dbd81612d81565b9050919050565b600081519050612dd38161257d565b92915050565b600060208284031215612def57612dee612541565b5b6000612dfd84828501612dc4565b91505092915050565b7f63616c6c6572206973206e6f7420746865206465706c6f796572000000000000600082015250565b6000612e3c601a836128a7565b9150612e4782612e06565b602082019050919050565b60006020820190508181036000830152612e6b81612e2f565b9050919050565b7f73657457686974654c6973743a20616c726561647920696e697469616c697a6560008201527f6400000000000000000000000000000000000000000000000000000000000000602082015250565b6000612ece6021836128a7565b9150612ed982612e72565b604082019050919050565b60006020820190508181036000830152612efd81612ec1565b9050919050565b7f73657457686974654c6973743a207a65726f20766162626c6544414f2061646460008201527f7265737300000000000000000000000000000000000000000000000000000000602082015250565b6000612f606024836128a7565b9150612f6b82612f04565b604082019050919050565b60006020820190508181036000830152612f8f81612f53565b9050919050565b7f73657457686974654c6973743a207a65726f20766162626c6546756e6420616460008201527f6472657373000000000000000000000000000000000000000000000000000000602082015250565b6000612ff26025836128a7565b9150612ffd82612f96565b604082019050919050565b6000602082019050818103600083015261302181612fe5565b9050919050565b7f73657457686974654c6973743a207a65726f20737562736372697074696f6e2060008201527f6164647265737300000000000000000000000000000000000000000000000000602082015250565b60006130846027836128a7565b915061308f82613028565b604082019050919050565b600060208201905081810360008301526130b381613077565b9050919050565b7f73657457686974654c6973743a207a65726f20666163746f72792066696c6d2060008201527f6164647265737300000000000000000000000000000000000000000000000000602082015250565b60006131166027836128a7565b9150613121826130ba565b604082019050919050565b6000602082019050818103600083015261314581613109565b9050919050565b7f73657457686974654c6973743a207a65726f20666163746f727920737562206160008201527f6464726573730000000000000000000000000000000000000000000000000000602082015250565b60006131a86026836128a7565b91506131b38261314c565b604082019050919050565b600060208201905081810360008301526131d78161319b565b9050919050565b7f65413a206e6f20706f6f6c2064412f7765746800000000000000000000000000600082015250565b60006132146013836128a7565b915061321f826131de565b602082019050919050565b6000602082019050818103600083015261324381613207565b9050919050565b7f65413a206e6f20706f6f6c20776574682f694100000000000000000000000000600082015250565b60006132806013836128a7565b915061328b8261324a565b602082019050919050565b600060208201905081810360008301526132af81613273565b9050919050565b7f5265656e7472616e637947756172643a207265656e7472616e742063616c6c00600082015250565b60006132ec601f836128a7565b91506132f7826132b6565b602082019050919050565b6000602082019050818103600083015261331b816132df565b9050919050565b7f4300000000000000000000000000000000000000000000000000000000000000600082015250565b60006133586001836128a7565b915061336382613322565b602082019050919050565b600060208201905081810360008301526133878161334b565b9050919050565b60006060820190506133a3600083018661260c565b6133b0602083018561260c565b6133bd60408301846126f2565b949350505050565b600081519050919050565b600081905092915050565b60005b838110156133f95780820151818401526020810190506133de565b60008484015250505050565b6000613410826133c5565b61341a81856133d0565b935061342a8185602086016133db565b80840191505092915050565b60006134428284613405565b915081905092915050565b613456816125d6565b811461346157600080fd5b50565b6000815190506134738161344d565b92915050565b60006020828403121561348f5761348e612541565b5b600061349d84828501613464565b91505092915050565b7f566162626c6544414f3a3a7472616e7366657246726f6d3a207472616e73666560008201527f7246726f6d206661696c65640000000000000000000000000000000000000000602082015250565b6000613502602c836128a7565b915061350d826134a6565b604082019050919050565b60006020820190508181036000830152613531816134f5565b9050919050565b600060408201905061354d600083018561260c565b61355a602083018461260c565b9392505050565b7f4e487b7100000000000000000000000000000000000000000000000000000000600052601160045260246000fd5b600061359b826126e8565b91506135a6836126e8565b92508282019050808211156135be576135bd613561565b5b92915050565b600060a0820190506135d960008301886126f2565b6135e660208301876126f2565b81810360408301526135f88186612a16565b9050613607606083018561260c565b61361460808301846126f2565b9695505050505050565b7f7345546f543a20696e73756666696369656e7400000000000000000000000000600082015250565b60006136546013836128a7565b915061365f8261361e565b602082019050919050565b6000602082019050818103600083015261368381613647565b9050919050565b600060808201905061369f60008301876126f2565b81810360208301526136b18186612a16565b90506136c0604083018561260c565b6136cd60608301846126f2565b95945050505050565b6000602082840312156136ec576136eb612541565b5b60006136fa84828501612b5c565b91505092915050565b7f566162626c6544414f3a3a736166655472616e736665724554483a204554482060008201527f7472616e73666572206661696c65640000000000000000000000000000000000602082015250565b600061375f602f836128a7565b915061376a82613703565b604082019050919050565b6000602082019050818103600083015261378e81613752565b9050919050565b60006040820190506137aa600083018561260c565b6137b760208301846126f2565b9392505050565b7f566162626c6544414f3a3a736166655472616e736665723a207472616e73666560008201527f72206661696c6564000000000000000000000000000000000000000000000000602082015250565b600061381a6028836128a7565b9150613825826137be565b604082019050919050565b600060208201905081810360008301526138498161380d565b9050919050565b7f5472616e7366657248656c7065723a3a73616665417070726f76653a2061707060008201527f726f7665206661696c6564000000000000000000000000000000000000000000602082015250565b60006138ac602b836128a7565b91506138b782613850565b604082019050919050565b600060208201905081810360008301526138db8161389f565b905091905056fea264697066735822122083ce2701baaf4fcbec674e54d117f43de6fc942b7c87f7f4ff120f7856cfade764736f6c63430008180033","linkReferences":{}},"methodIdentifiers":{"expectedAmount(uint256,address,address)":"eeee26ce","expectedAmountForTest(uint256,address,address)":"b376e851","getSushiFactory()":"1b66bce2","getSushiRouter()":"72667cdb","getUniswapFactory()":"3e6dfa36","getUniswapRouter()":"524900b5","isInitialized()":"392e53cd","isVabbleContract(address)":"08edee2e","setWhiteList(address,address,address,address,address)":"cdb76ecc","swapAsset(bytes)":"ab4e9ba6"},"id":8}