{"abi":[{"type":"constructor","inputs":[{"name":"_ownable","type":"address","internalType":"address"}],"stateMutability":"nonpayable"},{"type":"function","name":"baseUri","inputs":[],"outputs":[{"name":"","type":"string","internalType":"string"}],"stateMutability":"view"},{"type":"function","name":"changeOwner","inputs":[{"name":"_filmId","type":"uint256","internalType":"uint256"},{"name":"newOwner","type":"address","internalType":"address"}],"outputs":[{"name":"","type":"bool","internalType":"bool"}],"stateMutability":"nonpayable"},{"type":"function","name":"claimNft","inputs":[{"name":"_filmId","type":"uint256","internalType":"uint256"}],"outputs":[],"stateMutability":"nonpayable"},{"type":"function","name":"collectionUri","inputs":[],"outputs":[{"name":"","type":"string","internalType":"string"}],"stateMutability":"view"},{"type":"function","name":"deployFilmNFTContract","inputs":[{"name":"_filmId","type":"uint256","internalType":"uint256"},{"name":"_name","type":"string","internalType":"string"},{"name":"_symbol","type":"string","internalType":"string"}],"outputs":[],"stateMutability":"nonpayable"},{"type":"function","name":"filmNFTContract","inputs":[{"name":"","type":"uint256","internalType":"uint256"}],"outputs":[{"name":"","type":"address","internalType":"contract VabbleNFT"}],"stateMutability":"view"},{"type":"function","name":"getFilmNFTTokenList","inputs":[{"name":"_filmId","type":"uint256","internalType":"uint256"}],"outputs":[{"name":"","type":"uint256[]","internalType":"uint256[]"}],"stateMutability":"view"},{"type":"function","name":"getMintInfo","inputs":[{"name":"_filmId","type":"uint256","internalType":"uint256"}],"outputs":[{"name":"tier_","type":"uint256","internalType":"uint256"},{"name":"maxMintAmount_","type":"uint256","internalType":"uint256"},{"name":"mintPrice_","type":"uint256","internalType":"uint256"},{"name":"nft_","type":"address","internalType":"address"},{"name":"studio_","type":"address","internalType":"address"}],"stateMutability":"view"},{"type":"function","name":"getNFTOwner","inputs":[{"name":"_filmId","type":"uint256","internalType":"uint256"},{"name":"_tokenId","type":"uint256","internalType":"uint256"}],"outputs":[{"name":"","type":"address","internalType":"address"}],"stateMutability":"view"},{"type":"function","name":"getTokenUri","inputs":[{"name":"_filmId","type":"uint256","internalType":"uint256"},{"name":"_tokenId","type":"uint256","internalType":"uint256"}],"outputs":[{"name":"","type":"string","internalType":"string"}],"stateMutability":"view"},{"type":"function","name":"getTotalSupply","inputs":[{"name":"_filmId","type":"uint256","internalType":"uint256"}],"outputs":[{"name":"","type":"uint256","internalType":"uint256"}],"stateMutability":"view"},{"type":"function","name":"getUserTokenIdList","inputs":[{"name":"_filmId","type":"uint256","internalType":"uint256"},{"name":"_owner","type":"address","internalType":"address"}],"outputs":[{"name":"","type":"uint256[]","internalType":"uint256[]"}],"stateMutability":"view"},{"type":"function","name":"getVabbleDAO","inputs":[],"outputs":[{"name":"dao_","type":"address","internalType":"address"}],"stateMutability":"view"},{"type":"function","name":"initialize","inputs":[{"name":"_vabbleDAO","type":"address","internalType":"address"},{"name":"_vabbleFund","type":"address","internalType":"address"}],"outputs":[],"stateMutability":"nonpayable"},{"type":"function","name":"nftInfo","inputs":[{"name":"","type":"address","internalType":"address"}],"outputs":[{"name":"name","type":"string","internalType":"string"},{"name":"symbol","type":"string","internalType":"string"}],"stateMutability":"view"},{"type":"function","name":"setBaseURI","inputs":[{"name":"_baseUri","type":"string","internalType":"string"},{"name":"_collectionUri","type":"string","internalType":"string"}],"outputs":[],"stateMutability":"nonpayable"},{"type":"function","name":"setMintInfo","inputs":[{"name":"_filmId","type":"uint256","internalType":"uint256"},{"name":"_tier","type":"uint256","internalType":"uint256"},{"name":"_amount","type":"uint256","internalType":"uint256"},{"name":"_price","type":"uint256","internalType":"uint256"}],"outputs":[],"stateMutability":"nonpayable"},{"type":"function","name":"studioNFTAddressList","inputs":[{"name":"","type":"address","internalType":"address"},{"name":"","type":"uint256","internalType":"uint256"}],"outputs":[{"name":"","type":"address","internalType":"address"}],"stateMutability":"view"},{"type":"event","name":"ChangeERC721FilmOwner","inputs":[{"name":"filmId","type":"uint256","indexed":true,"internalType":"uint256"},{"name":"oldOwner","type":"address","indexed":true,"internalType":"address"},{"name":"newOwner","type":"address","indexed":true,"internalType":"address"}],"anonymous":false},{"type":"event","name":"FilmERC721Created","inputs":[{"name":"nftCreator","type":"address","indexed":false,"internalType":"address"},{"name":"nftContract","type":"address","indexed":false,"internalType":"address"},{"name":"filmId","type":"uint256","indexed":true,"internalType":"uint256"}],"anonymous":false},{"type":"event","name":"FilmERC721Minted","inputs":[{"name":"nftContract","type":"address","indexed":false,"internalType":"address"},{"name":"filmId","type":"uint256","indexed":true,"internalType":"uint256"},{"name":"tokenId","type":"uint256","indexed":true,"internalType":"uint256"},{"name":"receiver","type":"address","indexed":false,"internalType":"address"}],"anonymous":false},{"type":"event","name":"MintInfoSetted","inputs":[{"name":"filmOwner","type":"address","indexed":false,"internalType":"address"},{"name":"filmId","type":"uint256","indexed":true,"internalType":"uint256"},{"name":"tier","type":"uint256","indexed":false,"internalType":"uint256"},{"name":"mintAmount","type":"uint256","indexed":false,"internalType":"uint256"},{"name":"mintPrice","type":"uint256","indexed":false,"internalType":"uint256"}],"anonymous":false}],"bytecode":{"object":"0x60a06040523480156200001157600080fd5b506040516200539a3803806200539a8339810160408190526200003491620000a6565b60016000556001600160a01b038116620000945760405162461bcd60e51b815260206004820152601d60248201527f6f776e61626c65436f6e74726163743a205a65726f2061646472657373000000604482015260640160405180910390fd5b6001600160a01b0316608052620000d8565b600060208284031215620000b957600080fd5b81516001600160a01b0381168114620000d157600080fd5b9392505050565b60805161529f620000fb60003960008181610cda0152610ffa015261529f6000f3fe60806040523480156200001157600080fd5b50600436106200014f5760003560e01c8063784796f711620000c05780639b32045e116200008b578063defcd4b3116200006e578063defcd4b314620003db578063e9545b9214620003e5578063f697327f146200040c57600080fd5b80639b32045e146200039e578063c2935d1314620003c457600080fd5b8063784796f7146200032f5780637e2d3bc4146200035757806392ab723e146200036e5780639abc8320146200039457600080fd5b80633b3e4715116200011e578063485cc9551162000101578063485cc95514620002db5780636790a9de14620002f257806378402f85146200030957600080fd5b80633b3e4715146200020157806342189514146200021857600080fd5b806308b0534d1462000154578063297ae84d146200016d5780632ec09d3914620001b15780633a14e1b514620001c8575b600080fd5b6200016b6200016536600462001dfc565b62000423565b005b60085473ffffffffffffffffffffffffffffffffffffffff165b60405173ffffffffffffffffffffffffffffffffffffffff90911681526020015b60405180910390f35b6200016b620001c236600462001e70565b620009be565b62000187620001d936600462001e70565b60076020526000908152604090205473ffffffffffffffffffffffffffffffffffffffff1681565b620001876200021236600462001ead565b62000c92565b620002996200022936600462001e70565b600090815260036020818152604092839020835160a0810185528154808252600183015493820184905260028301549582018690529382015473ffffffffffffffffffffffffffffffffffffffff9081166060830181905260049093015416608090910181905292949193929091565b6040805195865260208601949094529284019190915273ffffffffffffffffffffffffffffffffffffffff908116606084015216608082015260a001620001a8565b6200016b620002ec36600462001edc565b62000cd8565b6200016b6200030336600462001f1a565b62000ff8565b620003206200031a36600462001f85565b62001222565b604051620001a891906200201a565b62000346620003403660046200202f565b620012f1565b6040519015158152602001620001a8565b620001876200036836600462001f85565b62001412565b620003856200037f36600462001e70565b620014b4565b604051908152602001620001a8565b6200032062001553565b620003b5620003af36600462001e70565b620015e9565b604051620001a8919062002057565b6200016b620003d53660046200209d565b6200164d565b620003206200191b565b620003fc620003f6366004620020d0565b6200192a565b604051620001a8929190620020f7565b620003b56200041d3660046200202f565b62001a66565b6200042d62001b2d565b6008546040517fcb3a606300000000000000000000000000000000000000000000000000000000815260048101859052339173ffffffffffffffffffffffffffffffffffffffff169063cb3a606390602401602060405180830381865afa1580156200049d573d6000803e3d6000fd5b505050506040513d601f19601f82011682018060405250810190620004c3919062002129565b73ffffffffffffffffffffffffffffffffffffffff161462000546576040517f08c379a000000000000000000000000000000000000000000000000000000000815260206004820152601960248201527f6465706c6f794e46543a206e6f742066696c6d206f776e65720000000000000060448201526064015b60405180910390fd5b6008546040517f2c6cab340000000000000000000000000000000000000000000000000000000081526004810185905260009173ffffffffffffffffffffffffffffffffffffffff1690632c6cab3490602401608060405180830381865afa158015620005b7573d6000803e3d6000fd5b505050506040513d601f19601f82011682018060405250810190620005dd919062002149565b50925050508060021480620005f25750806003145b6200065a576040517f08c379a000000000000000000000000000000000000000000000000000000000815260206004820152601f60248201527f6465706c6f794e46543a206e6f742066756e642074797065206279204e46540060448201526064016200053d565b6008546040517fd5443afd0000000000000000000000000000000000000000000000000000000081526004810186905260009173ffffffffffffffffffffffffffffffffffffffff169063d5443afd90602401602060405180830381865afa158015620006cb573d6000803e3d6000fd5b505050506040513d601f19601f82011682018060405250810190620006f1919062002180565b905060038160058111156200070a576200070a620021a3565b1462000799576040517f08c379a000000000000000000000000000000000000000000000000000000000815260206004820152602a60248201527f6465706c6f794e46543a2066696c6d4964206e6f7420617070726f766564206660448201527f6f722066756e64696e670000000000000000000000000000000000000000000060648201526084016200053d565b6000858152600360208190526040909120015473ffffffffffffffffffffffffffffffffffffffff161562000850576040517f08c379a0000000000000000000000000000000000000000000000000000000008152602060048201526024808201527f6465706c6f794e46543a20616c7265616479206465706c6f79656420666f722060448201527f66696c6d0000000000000000000000000000000000000000000000000000000060648201526084016200053d565b600060016002868630604051620008679062001cc8565b62000877959493929190620022ca565b604051809103906000f08015801562000894573d6000803e3d6000fd5b506000878152600760209081526040808320805473ffffffffffffffffffffffffffffffffffffffff86167fffffffffffffffffffffffff0000000000000000000000000000000000000000918216811790925560038085528386209081018054831684179055600480820180548416339081179091558752600686528487208054600181018255908852868820018054909316841790925591855290925290912091925090806200094788826200239c565b50600181016200095887826200239c565b506040805133815273ffffffffffffffffffffffffffffffffffffffff8516602082015289917f6b0920e8c480c6e03bb3cbfae94e8def5688206b085411f6adf520969a213e83910160405180910390a25050505050620009b96001600055565b505050565b620009c862001b2d565b6000818152600360208190526040909120015473ffffffffffffffffffffffffffffffffffffffff1662000a59576040517f08c379a000000000000000000000000000000000000000000000000000000000815260206004820152601f60248201527f636c61696d4e66743a206e6f74206465706c6f79656420666f722066696c6d0060448201526064016200053d565b6009546040517f9d6af27f0000000000000000000000000000000000000000000000000000000081526004810183905233602482015260009173ffffffffffffffffffffffffffffffffffffffff1690639d6af27f90604401602060405180830381865afa15801562000ad0573d6000803e3d6000fd5b505050506040513d601f19601f8201168201806040525081019062000af69190620024c3565b90508060000362000b64576040517f08c379a000000000000000000000000000000000000000000000000000000000815260206004820152601460248201527f636c61696d4e66743a207a65726f20636f756e7400000000000000000000000060448201526064016200053d565b6009546040517f9b6034a90000000000000000000000000000000000000000000000000000000081526004810184905273ffffffffffffffffffffffffffffffffffffffff90911690639b6034a990602401602060405180830381865afa15801562000bd4573d6000803e3d6000fd5b505050506040513d601f19601f8201168201806040525081019062000bfa9190620024dd565b62000c62576040517f08c379a000000000000000000000000000000000000000000000000000000000815260206004820152601960248201527f636c61696d4e66743a206e6f742066756c6c207261697365640000000000000060448201526064016200053d565b60005b8181101562000c825762000c798362001ba2565b60010162000c65565b505062000c8f6001600055565b50565b6006602052816000526040600020818154811062000caf57600080fd5b60009182526020909120015473ffffffffffffffffffffffffffffffffffffffff169150829050565b7f000000000000000000000000000000000000000000000000000000000000000073ffffffffffffffffffffffffffffffffffffffff1663d5f394886040518163ffffffff1660e01b8152600401602060405180830381865afa15801562000d44573d6000803e3d6000fd5b505050506040513d601f19601f8201168201806040525081019062000d6a919062002129565b73ffffffffffffffffffffffffffffffffffffffff163373ffffffffffffffffffffffffffffffffffffffff161462000e00576040517f08c379a000000000000000000000000000000000000000000000000000000000815260206004820152601a60248201527f63616c6c6572206973206e6f7420746865206465706c6f79657200000000000060448201526064016200053d565b60085473ffffffffffffffffffffffffffffffffffffffff161562000e82576040517f08c379a000000000000000000000000000000000000000000000000000000000815260206004820152601f60248201527f696e697469616c697a653a20616c726561647920696e697469616c697a65640060448201526064016200053d565b73ffffffffffffffffffffffffffffffffffffffff821662000f01576040517f08c379a000000000000000000000000000000000000000000000000000000000815260206004820152601960248201527f64616f436f6e74726163743a205a65726f20616464726573730000000000000060448201526064016200053d565b600880547fffffffffffffffffffffffff00000000000000000000000000000000000000001673ffffffffffffffffffffffffffffffffffffffff84811691909117909155811662000fb0576040517f08c379a000000000000000000000000000000000000000000000000000000000815260206004820152601a60248201527f66756e64436f6e74726163743a205a65726f206164647265737300000000000060448201526064016200053d565b600980547fffffffffffffffffffffffff00000000000000000000000000000000000000001673ffffffffffffffffffffffffffffffffffffffff9290921691909117905550565b7f000000000000000000000000000000000000000000000000000000000000000073ffffffffffffffffffffffffffffffffffffffff16633ec045a66040518163ffffffff1660e01b8152600401602060405180830381865afa15801562001064573d6000803e3d6000fd5b505050506040513d601f19601f820116820180604052508101906200108a919062002129565b73ffffffffffffffffffffffffffffffffffffffff163373ffffffffffffffffffffffffffffffffffffffff161462001120576040517f08c379a000000000000000000000000000000000000000000000000000000000815260206004820152601960248201527f63616c6c6572206973206e6f74207468652061756469746f720000000000000060448201526064016200053d565b815182906000036200118f576040517f08c379a000000000000000000000000000000000000000000000000000000000815260206004820152600d60248201527f656d70747920626173655572690000000000000000000000000000000000000060448201526064016200053d565b81518290600003620011fe576040517f08c379a000000000000000000000000000000000000000000000000000000000815260206004820152601360248201527f656d70747920636f6c6c656374696f6e5572690000000000000000000000000060448201526064016200053d565b60016200120c85826200239c565b5060026200121b84826200239c565b5050505050565b600082815260076020526040908190205490517fc87b56dd0000000000000000000000000000000000000000000000000000000081526004810183905260609173ffffffffffffffffffffffffffffffffffffffff169063c87b56dd90602401600060405180830381865afa158015620012a0573d6000803e3d6000fd5b505050506040513d6000823e601f3d9081017fffffffffffffffffffffffffffffffffffffffffffffffffffffffffffffffe0168201604052620012e8919081019062002501565b90505b92915050565b6000620012fd62001b2d565b6000838152600360205260409020600481015473ffffffffffffffffffffffffffffffffffffffff16331462001390576040517f08c379a000000000000000000000000000000000000000000000000000000000815260206004820152601b60248201527f6368616e67654f776e65723a206e6f742066696c6d206f776e6572000000000060448201526064016200053d565b6004810180547fffffffffffffffffffffffff00000000000000000000000000000000000000001673ffffffffffffffffffffffffffffffffffffffff8516908117909155604051339086907f6eb761d3fd58dbb3bb61991bded614305c9b9af8e3aa93f68a85c9fbe5529ee690600090a46001915050620012eb6001600055565b6000828152600760205260408082205490517f6352211e0000000000000000000000000000000000000000000000000000000081526004810184905273ffffffffffffffffffffffffffffffffffffffff90911690636352211e90602401602060405180830381865afa1580156200148e573d6000803e3d6000fd5b505050506040513d601f19601f82011682018060405250810190620012e8919062002129565b60008181526007602090815260408083205481517f18160ddd000000000000000000000000000000000000000000000000000000008152915173ffffffffffffffffffffffffffffffffffffffff909116926318160ddd92600480820193918290030181865afa1580156200152d573d6000803e3d6000fd5b505050506040513d601f19601f82011682018060405250810190620012eb9190620024c3565b600180546200156290620021d2565b80601f01602080910402602001604051908101604052809291908181526020018280546200159090620021d2565b8015620015e15780601f10620015b557610100808354040283529160200191620015e1565b820191906000526020600020905b815481529060010190602001808311620015c357829003601f168201915b505050505081565b6000818152600560209081526040918290208054835181840281018401909452808452606093928301828280156200164157602002820191906000526020600020905b8154815260200190600101908083116200162c575b50505050509050919050565b6200165762001b2d565b81158015906200166657508015155b80156200167257508215155b620016da576040517f08c379a000000000000000000000000000000000000000000000000000000000815260206004820152601360248201527f7365744d696e743a205a65726f2076616c75650000000000000000000000000060448201526064016200053d565b6008546040517fcb3a60630000000000000000000000000000000000000000000000000000000081526004810186905260009173ffffffffffffffffffffffffffffffffffffffff169063cb3a606390602401602060405180830381865afa1580156200174b573d6000803e3d6000fd5b505050506040513d601f19601f8201168201806040525081019062001771919062002129565b905073ffffffffffffffffffffffffffffffffffffffff81163314620017f4576040517f08c379a000000000000000000000000000000000000000000000000000000000815260206004820152601760248201527f7365744d696e743a206e6f742066696c6d206f776e657200000000000000000060448201526064016200053d565b600085815260036020526040902060020154156200186f576040517f08c379a000000000000000000000000000000000000000000000000000000000815260206004820152601f60248201527f7365744d696e743a20616c726561647920736574757020666f722066696c6d0060448201526064016200053d565b60008581526003602090815260409182902086815560018101869055600281018590556004810180547fffffffffffffffffffffffff0000000000000000000000000000000000000000163390811790915583519081529182018790529181018590526060810184905286907f108063d5c1eb848b41b503ef2b4b5cf02dcd83c8474ae8e451dfedd047414fcc9060800160405180910390a25050620019156001600055565b50505050565b600280546200156290620021d2565b6004602052600090815260409020805481906200194790620021d2565b80601f01602080910402602001604051908101604052809291908181526020018280546200197590620021d2565b8015620019c65780601f106200199a57610100808354040283529160200191620019c6565b820191906000526020600020905b815481529060010190602001808311620019a857829003601f168201915b505050505090806001018054620019dd90620021d2565b80601f016020809104026020016040519081016040528092919081815260200182805462001a0b90620021d2565b801562001a5c5780601f1062001a305761010080835404028352916020019162001a5c565b820191906000526020600020905b81548152906001019060200180831162001a3e57829003601f168201915b5050505050905082565b600082815260076020526040908190205490517f8097110300000000000000000000000000000000000000000000000000000000815273ffffffffffffffffffffffffffffffffffffffff83811660048301526060921690638097110390602401600060405180830381865afa15801562001ae5573d6000803e3d6000fd5b505050506040513d6000823e601f3d9081017fffffffffffffffffffffffffffffffffffffffffffffffffffffffffffffffe0168201604052620012e8919081019062002578565b60026000540362001b9b576040517f08c379a000000000000000000000000000000000000000000000000000000000815260206004820152601f60248201527f5265656e7472616e637947756172643a207265656e7472616e742063616c6c0060448201526064016200053d565b6002600055565b6000818152600760205260408082205490517f755edd1700000000000000000000000000000000000000000000000000000000815233600482015273ffffffffffffffffffffffffffffffffffffffff9091169190829063755edd17906024016020604051808303816000875af115801562001c22573d6000803e3d6000fd5b505050506040513d601f19601f8201168201806040525081019062001c489190620024c3565b6000848152600560209081526040808320805460018101825590845292829020909201839055815173ffffffffffffffffffffffffffffffffffffffff861681523391810191909152919250829185917f8e87b7c0d05b512fa60642293a92ebfd0b2120ab1af56e49018797a058fe14a7910160405180910390a3505050565b612c40806200262a83390190565b7f4e487b7100000000000000000000000000000000000000000000000000000000600052604160045260246000fd5b604051601f82017fffffffffffffffffffffffffffffffffffffffffffffffffffffffffffffffe016810167ffffffffffffffff8111828210171562001d4f5762001d4f62001cd6565b604052919050565b600067ffffffffffffffff82111562001d745762001d7462001cd6565b50601f017fffffffffffffffffffffffffffffffffffffffffffffffffffffffffffffffe01660200190565b600082601f83011262001db257600080fd5b813562001dc962001dc38262001d57565b62001d05565b81815284602083860101111562001ddf57600080fd5b816020850160208301376000918101602001919091529392505050565b60008060006060848603121562001e1257600080fd5b83359250602084013567ffffffffffffffff8082111562001e3257600080fd5b62001e408783880162001da0565b9350604086013591508082111562001e5757600080fd5b5062001e668682870162001da0565b9150509250925092565b60006020828403121562001e8357600080fd5b5035919050565b73ffffffffffffffffffffffffffffffffffffffff8116811462000c8f57600080fd5b6000806040838503121562001ec157600080fd5b823562001ece8162001e8a565b946020939093013593505050565b6000806040838503121562001ef057600080fd5b823562001efd8162001e8a565b9150602083013562001f0f8162001e8a565b809150509250929050565b6000806040838503121562001f2e57600080fd5b823567ffffffffffffffff8082111562001f4757600080fd5b62001f558683870162001da0565b9350602085013591508082111562001f6c57600080fd5b5062001f7b8582860162001da0565b9150509250929050565b6000806040838503121562001f9957600080fd5b50508035926020909101359150565b60005b8381101562001fc557818101518382015260200162001fab565b50506000910152565b6000815180845262001fe881602086016020860162001fa8565b601f017fffffffffffffffffffffffffffffffffffffffffffffffffffffffffffffffe0169290920160200192915050565b602081526000620012e8602083018462001fce565b600080604083850312156200204357600080fd5b82359150602083013562001f0f8162001e8a565b6020808252825182820181905260009190848201906040850190845b81811015620020915783518352928401929184019160010162002073565b50909695505050505050565b60008060008060808587031215620020b457600080fd5b5050823594602084013594506040840135936060013592509050565b600060208284031215620020e357600080fd5b8135620020f08162001e8a565b9392505050565b6040815260006200210c604083018562001fce565b828103602084015262002120818562001fce565b95945050505050565b6000602082840312156200213c57600080fd5b8151620020f08162001e8a565b600080600080608085870312156200216057600080fd5b505082516020840151604085015160609095015191969095509092509050565b6000602082840312156200219357600080fd5b815160068110620020f057600080fd5b7f4e487b7100000000000000000000000000000000000000000000000000000000600052602160045260246000fd5b600181811c90821680620021e757607f821691505b60208210810362002221577f4e487b7100000000000000000000000000000000000000000000000000000000600052602260045260246000fd5b50919050565b600081546200223681620021d2565b8085526020600183811680156200225657600181146200228f57620022bf565b7fffffffffffffffffffffffffffffffffffffffffffffffffffffffffffffff008516838901528284151560051b8901019550620022bf565b866000528260002060005b85811015620022b75781548a82018601529083019084016200229a565b890184019650505b505050505092915050565b60a081526000620022df60a083018862002227565b8281036020840152620022f3818862002227565b9050828103604084015262002309818762001fce565b905082810360608401526200231f818662001fce565b91505073ffffffffffffffffffffffffffffffffffffffff831660808301529695505050505050565b601f821115620009b9576000816000526020600020601f850160051c81016020861015620023735750805b601f850160051c820191505b8181101562002394578281556001016200237f565b505050505050565b815167ffffffffffffffff811115620023b957620023b962001cd6565b620023d181620023ca8454620021d2565b8462002348565b602080601f831160018114620024275760008415620023f05750858301515b7fffffffffffffffffffffffffffffffffffffffffffffffffffffffffffffffff600386901b1c1916600185901b17855562002394565b6000858152602081207fffffffffffffffffffffffffffffffffffffffffffffffffffffffffffffffe08616915b82811015620024765788860151825594840194600190910190840162002455565b5085821015620024b357878501517fffffffffffffffffffffffffffffffffffffffffffffffffffffffffffffffff600388901b60f8161c191681555b5050505050600190811b01905550565b600060208284031215620024d657600080fd5b5051919050565b600060208284031215620024f057600080fd5b81518015158114620020f057600080fd5b6000602082840312156200251457600080fd5b815167ffffffffffffffff8111156200252c57600080fd5b8201601f810184136200253e57600080fd5b80516200254f62001dc38262001d57565b8181528560208385010111156200256557600080fd5b6200212082602083016020860162001fa8565b600060208083850312156200258c57600080fd5b825167ffffffffffffffff80821115620025a557600080fd5b818501915085601f830112620025ba57600080fd5b815181811115620025cf57620025cf62001cd6565b8060051b9150620025e284830162001d05565b8181529183018401918481019088841115620025fd57600080fd5b938501935b838510156200261d5784518252938501939085019062002602565b9897505050505050505056fe60a06040523480156200001157600080fd5b5060405162002c4038038062002c40833981016040819052620000349162000158565b82826002620000448382620002c6565b506003620000538282620002c6565b50506001600c5550600e620000698682620002c6565b50600f620000788582620002c6565b506001600160a01b0316608052506200039292505050565b634e487b7160e01b600052604160045260246000fd5b600082601f830112620000b857600080fd5b81516001600160401b0380821115620000d557620000d562000090565b604051601f8301601f19908116603f0116810190828211818310171562000100576200010062000090565b81604052838152602092508660208588010111156200011e57600080fd5b600091505b8382101562000142578582018301518183018401529082019062000123565b6000602085830101528094505050505092915050565b600080600080600060a086880312156200017157600080fd5b85516001600160401b03808211156200018957600080fd5b6200019789838a01620000a6565b96506020880151915080821115620001ae57600080fd5b620001bc89838a01620000a6565b95506040880151915080821115620001d357600080fd5b620001e189838a01620000a6565b94506060880151915080821115620001f857600080fd5b506200020788828901620000a6565b608088015190935090506001600160a01b03811681146200022757600080fd5b809150509295509295909350565b600181811c908216806200024a57607f821691505b6020821081036200026b57634e487b7160e01b600052602260045260246000fd5b50919050565b601f821115620002c1576000816000526020600020601f850160051c810160208610156200029c5750805b601f850160051c820191505b81811015620002bd57828155600101620002a8565b5050505b505050565b81516001600160401b03811115620002e257620002e262000090565b620002fa81620002f3845462000235565b8462000271565b602080601f831160018114620003325760008415620003195750858301515b600019600386901b1c1916600185901b178555620002bd565b600085815260208120601f198616915b82811015620003635788860151825594840194600190910190840162000342565b5085821015620003825787850151600019600388901b60f8161c191681555b5050505050600190811b01905550565b60805161288b620003b5600039600081816102940152610b31015261288b6000f3fe608060405234801561001057600080fd5b50600436106101985760003560e01c806370a08231116100e3578063a22cb4651161008c578063defcd4b311610066578063defcd4b3146103a4578063e8a3d485146103ac578063e985e9c5146103b457600080fd5b8063a22cb4651461036b578063b88d4fde1461037e578063c87b56dd1461039157600080fd5b80639036c050116100bd5780639036c0501461034857806395d89b411461035b5780639abc83201461036357600080fd5b806370a0823114610302578063755edd1714610315578063809711031461032857600080fd5b80632a55205a1161014557806342842e0e1161011f57806342842e0e146102c95780634f6ccce7146102dc5780636352211e146102ef57600080fd5b80632a55205a146102505780632dd310001461028f5780632f745c59146102b657600080fd5b8063095ea7b311610176578063095ea7b31461021257806318160ddd1461022757806323b872dd1461023d57600080fd5b806301ffc9a71461019d57806306fdde03146101c5578063081812fc146101da575b600080fd5b6101b06101ab366004612201565b6103fd565b60405190151581526020015b60405180910390f35b6101cd61040e565b6040516101bc9190612293565b6101ed6101e83660046122a6565b6104a0565b60405173ffffffffffffffffffffffffffffffffffffffff90911681526020016101bc565b6102256102203660046122e3565b6104d4565b005b61022f610665565b6040519081526020016101bc565b61022561024b36600461230d565b610675565b61026361025e366004612349565b610716565b6040805173ffffffffffffffffffffffffffffffffffffffff90931683526020830191909152016101bc565b6101ed7f000000000000000000000000000000000000000000000000000000000000000081565b61022f6102c43660046122e3565b61080d565b6102256102d736600461230d565b6108dc565b61022f6102ea3660046122a6565b6108f7565b6101ed6102fd3660046122a6565b6109b5565b61022f61031036600461236b565b610a41565b61022f61032336600461236b565b610b0f565b61033b61033636600461236b565b610c05565b6040516101bc9190612386565b6102256103563660046123ca565b610c9c565b6101cd610cb4565b6101cd610cc3565b6102256103793660046123f6565b610d51565b61022561038c366004612461565b610d60565b6101cd61039f3660046122a6565b610e08565b6101cd610eee565b6101cd610efb565b6101b06103c236600461255b565b73ffffffffffffffffffffffffffffffffffffffff918216600090815260076020908152604080832093909416825291909152205460ff1690565b600061040882610f0a565b92915050565b60606002805461041d90612585565b80601f016020809104026020016040519081016040528092919081815260200182805461044990612585565b80156104965780601f1061046b57610100808354040283529160200191610496565b820191906000526020600020905b81548152906001019060200180831161047957829003601f168201915b5050505050905090565b60006104ab82610f60565b5060009081526006602052604090205473ffffffffffffffffffffffffffffffffffffffff1690565b60006104df826109b5565b90508073ffffffffffffffffffffffffffffffffffffffff168373ffffffffffffffffffffffffffffffffffffffff16036105a1576040517f08c379a000000000000000000000000000000000000000000000000000000000815260206004820152602160248201527f4552433732313a20617070726f76616c20746f2063757272656e74206f776e6560448201527f720000000000000000000000000000000000000000000000000000000000000060648201526084015b60405180910390fd5b3373ffffffffffffffffffffffffffffffffffffffff821614806105ca57506105ca81336103c2565b610656576040517f08c379a000000000000000000000000000000000000000000000000000000000815260206004820152603d60248201527f4552433732313a20617070726f76652063616c6c6572206973206e6f7420746f60448201527f6b656e206f776e6572206f7220617070726f76656420666f7220616c6c0000006064820152608401610598565b6106608383610fee565b505050565b6000610670600d5490565b905090565b61067f338261108e565b61070b576040517f08c379a000000000000000000000000000000000000000000000000000000000815260206004820152602d60248201527f4552433732313a2063616c6c6572206973206e6f7420746f6b656e206f776e6560448201527f72206f7220617070726f766564000000000000000000000000000000000000006064820152608401610598565b61066083838361114e565b600082815260016020908152604080832081518083019092525473ffffffffffffffffffffffffffffffffffffffff8116808352740100000000000000000000000000000000000000009091046bffffffffffffffffffffffff169282019290925282916107d157506040805180820190915260005473ffffffffffffffffffffffffffffffffffffffff811682527401000000000000000000000000000000000000000090046bffffffffffffffffffffffff1660208201525b6020810151600090612710906107f5906bffffffffffffffffffffffff1687612601565b6107ff9190612618565b915196919550909350505050565b600061081883610a41565b82106108a6576040517f08c379a000000000000000000000000000000000000000000000000000000000815260206004820152602b60248201527f455243373231456e756d657261626c653a206f776e657220696e646578206f7560448201527f74206f6620626f756e64730000000000000000000000000000000000000000006064820152608401610598565b5073ffffffffffffffffffffffffffffffffffffffff919091166000908152600860209081526040808320938352929052205490565b61066083838360405180602001604052806000815250610d60565b6000610902600a5490565b8210610990576040517f08c379a000000000000000000000000000000000000000000000000000000000815260206004820152602c60248201527f455243373231456e756d657261626c653a20676c6f62616c20696e646578206f60448201527f7574206f6620626f756e647300000000000000000000000000000000000000006064820152608401610598565b600a82815481106109a3576109a3612653565b90600052602060002001549050919050565b60008181526004602052604081205473ffffffffffffffffffffffffffffffffffffffff1680610408576040517f08c379a000000000000000000000000000000000000000000000000000000000815260206004820152601860248201527f4552433732313a20696e76616c696420746f6b656e20494400000000000000006044820152606401610598565b600073ffffffffffffffffffffffffffffffffffffffff8216610ae6576040517f08c379a000000000000000000000000000000000000000000000000000000000815260206004820152602960248201527f4552433732313a2061646472657373207a65726f206973206e6f74206120766160448201527f6c6964206f776e657200000000000000000000000000000000000000000000006064820152608401610598565b5073ffffffffffffffffffffffffffffffffffffffff1660009081526005602052604090205490565b6000610b19611456565b3373ffffffffffffffffffffffffffffffffffffffff7f00000000000000000000000000000000000000000000000000000000000000001614610bde576040517f08c379a000000000000000000000000000000000000000000000000000000000815260206004820152602660248201527f6d696e74546f3a2063616c6c6572206973206e6f7420666163746f727920636f60448201527f6e747261637400000000000000000000000000000000000000000000000000006064820152608401610598565b6000610be86114c9565b9050610bf483826114e0565b9050610c006001600c55565b919050565b6060610c1082610a41565b67ffffffffffffffff811115610c2857610c28612432565b604051908082528060200260200182016040528015610c51578160200160208202803683370190505b50905060005b610c6083610a41565b811015610c9657610c71838261080d565b828281518110610c8357610c83612653565b6020908102919091010152600101610c57565b50919050565b6000610ca7836109b5565b9050610660818385610675565b60606003805461041d90612585565b600e8054610cd090612585565b80601f0160208091040260200160405190810160405280929190818152602001828054610cfc90612585565b8015610d495780601f10610d1e57610100808354040283529160200191610d49565b820191906000526020600020905b815481529060010190602001808311610d2c57829003601f168201915b505050505081565b610d5c3383836114fa565b5050565b610d6a338361108e565b610df6576040517f08c379a000000000000000000000000000000000000000000000000000000000815260206004820152602d60248201527f4552433732313a2063616c6c6572206973206e6f7420746f6b656e206f776e6560448201527f72206f7220617070726f766564000000000000000000000000000000000000006064820152608401610598565b610e0284848484611627565b50505050565b60008181526004602052604090205460609073ffffffffffffffffffffffffffffffffffffffff16610ebc576040517f08c379a000000000000000000000000000000000000000000000000000000000815260206004820152602f60248201527f4552433732314d657461646174613a2055524920717565727920666f72206e6f60448201527f6e6578697374656e7420746f6b656e00000000000000000000000000000000006064820152608401610598565b600e610ec7836116ca565b604051602001610ed892919061269e565b6040516020818303038152906040529050919050565b600f8054610cd090612585565b6060600f805461041d90612585565b60007fffffffff0000000000000000000000000000000000000000000000000000000082167f780e9d63000000000000000000000000000000000000000000000000000000001480610408575061040882611788565b60008181526004602052604090205473ffffffffffffffffffffffffffffffffffffffff16610feb576040517f08c379a000000000000000000000000000000000000000000000000000000000815260206004820152601860248201527f4552433732313a20696e76616c696420746f6b656e20494400000000000000006044820152606401610598565b50565b600081815260066020526040902080547fffffffffffffffffffffffff00000000000000000000000000000000000000001673ffffffffffffffffffffffffffffffffffffffff84169081179091558190611048826109b5565b73ffffffffffffffffffffffffffffffffffffffff167f8c5be1e5ebec7d5bd14f71427d1e84f3dd0314c0f7b2291e5b200ac8c7c3b92560405160405180910390a45050565b60008061109a836109b5565b90508073ffffffffffffffffffffffffffffffffffffffff168473ffffffffffffffffffffffffffffffffffffffff161480611108575073ffffffffffffffffffffffffffffffffffffffff80821660009081526007602090815260408083209388168352929052205460ff165b8061114657508373ffffffffffffffffffffffffffffffffffffffff1661112e846104a0565b73ffffffffffffffffffffffffffffffffffffffff16145b949350505050565b8273ffffffffffffffffffffffffffffffffffffffff1661116e826109b5565b73ffffffffffffffffffffffffffffffffffffffff1614611211576040517f08c379a000000000000000000000000000000000000000000000000000000000815260206004820152602560248201527f4552433732313a207472616e736665722066726f6d20696e636f72726563742060448201527f6f776e65720000000000000000000000000000000000000000000000000000006064820152608401610598565b73ffffffffffffffffffffffffffffffffffffffff82166112b3576040517f08c379a0000000000000000000000000000000000000000000000000000000008152602060048201526024808201527f4552433732313a207472616e7366657220746f20746865207a65726f2061646460448201527f72657373000000000000000000000000000000000000000000000000000000006064820152608401610598565b6112c0838383600161182a565b8273ffffffffffffffffffffffffffffffffffffffff166112e0826109b5565b73ffffffffffffffffffffffffffffffffffffffff1614611383576040517f08c379a000000000000000000000000000000000000000000000000000000000815260206004820152602560248201527f4552433732313a207472616e736665722066726f6d20696e636f72726563742060448201527f6f776e65720000000000000000000000000000000000000000000000000000006064820152608401610598565b600081815260066020908152604080832080547fffffffffffffffffffffffff000000000000000000000000000000000000000090811690915573ffffffffffffffffffffffffffffffffffffffff8781168086526005855283862080547fffffffffffffffffffffffffffffffffffffffffffffffffffffffffffffffff01905590871680865283862080546001019055868652600490945282852080549092168417909155905184937fddf252ad1be2c89b69c2b068fc378daa952ba7f163c4a11628f55a4df523b3ef91a4505050565b6002600c54036114c2576040517f08c379a000000000000000000000000000000000000000000000000000000000815260206004820152601f60248201527f5265656e7472616e637947756172643a207265656e7472616e742063616c6c006044820152606401610598565b6002600c55565b60006114d9600d80546001019055565b50600d5490565b610d5c828260405180602001604052806000815250611836565b8173ffffffffffffffffffffffffffffffffffffffff168373ffffffffffffffffffffffffffffffffffffffff160361158f576040517f08c379a000000000000000000000000000000000000000000000000000000000815260206004820152601960248201527f4552433732313a20617070726f766520746f2063616c6c6572000000000000006044820152606401610598565b73ffffffffffffffffffffffffffffffffffffffff83811660008181526007602090815260408083209487168084529482529182902080547fffffffffffffffffffffffffffffffffffffffffffffffffffffffffffffff001686151590811790915591519182527f17307eab39ab6107e8899845ad3d59bd9653f200f220920489ca2b5937696c31910160405180910390a3505050565b61163284848461114e565b61163e848484846118d9565b610e02576040517f08c379a000000000000000000000000000000000000000000000000000000000815260206004820152603260248201527f4552433732313a207472616e7366657220746f206e6f6e20455243373231526560448201527f63656976657220696d706c656d656e74657200000000000000000000000000006064820152608401610598565b606060006116d783611acc565b600101905060008167ffffffffffffffff8111156116f7576116f7612432565b6040519080825280601f01601f191660200182016040528015611721576020820181803683370190505b5090508181016020015b7fffffffffffffffffffffffffffffffffffffffffffffffffffffffffffffffff017f3031323334353637383961626364656600000000000000000000000000000000600a86061a8153600a850494508461172b57509392505050565b60007fffffffff0000000000000000000000000000000000000000000000000000000082167f80ac58cd00000000000000000000000000000000000000000000000000000000148061181b57507fffffffff0000000000000000000000000000000000000000000000000000000082167f5b5e139f00000000000000000000000000000000000000000000000000000000145b80610408575061040882611bae565b610e0284848484611c45565b6118408383611de9565b61184d60008484846118d9565b610660576040517f08c379a000000000000000000000000000000000000000000000000000000000815260206004820152603260248201527f4552433732313a207472616e7366657220746f206e6f6e20455243373231526560448201527f63656976657220696d706c656d656e74657200000000000000000000000000006064820152608401610598565b600073ffffffffffffffffffffffffffffffffffffffff84163b15611ac1576040517f150b7a0200000000000000000000000000000000000000000000000000000000815273ffffffffffffffffffffffffffffffffffffffff85169063150b7a02906119509033908990889088906004016127ad565b6020604051808303816000875af19250505080156119a9575060408051601f3d9081017fffffffffffffffffffffffffffffffffffffffffffffffffffffffffffffffe01682019092526119a6918101906127f6565b60015b611a76573d8080156119d7576040519150601f19603f3d011682016040523d82523d6000602084013e6119dc565b606091505b508051600003611a6e576040517f08c379a000000000000000000000000000000000000000000000000000000000815260206004820152603260248201527f4552433732313a207472616e7366657220746f206e6f6e20455243373231526560448201527f63656976657220696d706c656d656e74657200000000000000000000000000006064820152608401610598565b805181602001fd5b7fffffffff00000000000000000000000000000000000000000000000000000000167f150b7a0200000000000000000000000000000000000000000000000000000000149050611146565b506001949350505050565b6000807a184f03e93ff9f4daa797ed6e38ed64bf6a1f0100000000000000008310611b15577a184f03e93ff9f4daa797ed6e38ed64bf6a1f010000000000000000830492506040015b6d04ee2d6d415b85acef81000000008310611b41576d04ee2d6d415b85acef8100000000830492506020015b662386f26fc100008310611b5f57662386f26fc10000830492506010015b6305f5e1008310611b77576305f5e100830492506008015b6127108310611b8b57612710830492506004015b60648310611b9d576064830492506002015b600a83106104085760010192915050565b60007fffffffff0000000000000000000000000000000000000000000000000000000082167f2a55205a00000000000000000000000000000000000000000000000000000000148061040857507f01ffc9a7000000000000000000000000000000000000000000000000000000007fffffffff00000000000000000000000000000000000000000000000000000000831614610408565b6001811115611cd6576040517f08c379a000000000000000000000000000000000000000000000000000000000815260206004820152603560248201527f455243373231456e756d657261626c653a20636f6e736563757469766520747260448201527f616e7366657273206e6f7420737570706f7274656400000000000000000000006064820152608401610598565b8173ffffffffffffffffffffffffffffffffffffffff8516611d3f57611d3a81600a80546000838152600b60205260408120829055600182018355919091527fc65a7bb8d6351c1cf70c95a316cc6a92839c986682d98bc35f958f4883f9d2a80155565b611d7c565b8373ffffffffffffffffffffffffffffffffffffffff168573ffffffffffffffffffffffffffffffffffffffff1614611d7c57611d7c858261201c565b73ffffffffffffffffffffffffffffffffffffffff8416611da557611da0816120d3565b611de2565b8473ffffffffffffffffffffffffffffffffffffffff168473ffffffffffffffffffffffffffffffffffffffff1614611de257611de28482612182565b5050505050565b73ffffffffffffffffffffffffffffffffffffffff8216611e66576040517f08c379a000000000000000000000000000000000000000000000000000000000815260206004820181905260248201527f4552433732313a206d696e7420746f20746865207a65726f20616464726573736044820152606401610598565b60008181526004602052604090205473ffffffffffffffffffffffffffffffffffffffff1615611ef2576040517f08c379a000000000000000000000000000000000000000000000000000000000815260206004820152601c60248201527f4552433732313a20746f6b656e20616c7265616479206d696e746564000000006044820152606401610598565b611f0060008383600161182a565b60008181526004602052604090205473ffffffffffffffffffffffffffffffffffffffff1615611f8c576040517f08c379a000000000000000000000000000000000000000000000000000000000815260206004820152601c60248201527f4552433732313a20746f6b656e20616c7265616479206d696e746564000000006044820152606401610598565b73ffffffffffffffffffffffffffffffffffffffff8216600081815260056020908152604080832080546001019055848352600490915280822080547fffffffffffffffffffffffff0000000000000000000000000000000000000000168417905551839291907fddf252ad1be2c89b69c2b068fc378daa952ba7f163c4a11628f55a4df523b3ef908290a45050565b6000600161202984610a41565b6120339190612813565b6000838152600960205260409020549091508082146120935773ffffffffffffffffffffffffffffffffffffffff841660009081526008602090815260408083208584528252808320548484528184208190558352600990915290208190555b50600091825260096020908152604080842084905573ffffffffffffffffffffffffffffffffffffffff9094168352600881528383209183525290812055565b600a546000906120e590600190612813565b6000838152600b6020526040812054600a805493945090928490811061210d5761210d612653565b9060005260206000200154905080600a838154811061212e5761212e612653565b6000918252602080832090910192909255828152600b9091526040808220849055858252812055600a80548061216657612166612826565b6001900381819060005260206000200160009055905550505050565b600061218d83610a41565b73ffffffffffffffffffffffffffffffffffffffff9093166000908152600860209081526040808320868452825280832085905593825260099052919091209190915550565b7fffffffff0000000000000000000000000000000000000000000000000000000081168114610feb57600080fd5b60006020828403121561221357600080fd5b813561221e816121d3565b9392505050565b60005b83811015612240578181015183820152602001612228565b50506000910152565b60008151808452612261816020860160208601612225565b601f017fffffffffffffffffffffffffffffffffffffffffffffffffffffffffffffffe0169290920160200192915050565b60208152600061221e6020830184612249565b6000602082840312156122b857600080fd5b5035919050565b803573ffffffffffffffffffffffffffffffffffffffff81168114610c0057600080fd5b600080604083850312156122f657600080fd5b6122ff836122bf565b946020939093013593505050565b60008060006060848603121561232257600080fd5b61232b846122bf565b9250612339602085016122bf565b9150604084013590509250925092565b6000806040838503121561235c57600080fd5b50508035926020909101359150565b60006020828403121561237d57600080fd5b61221e826122bf565b6020808252825182820181905260009190848201906040850190845b818110156123be578351835292840192918401916001016123a2565b50909695505050505050565b600080604083850312156123dd57600080fd5b823591506123ed602084016122bf565b90509250929050565b6000806040838503121561240957600080fd5b612412836122bf565b91506020830135801515811461242757600080fd5b809150509250929050565b7f4e487b7100000000000000000000000000000000000000000000000000000000600052604160045260246000fd5b6000806000806080858703121561247757600080fd5b612480856122bf565b935061248e602086016122bf565b925060408501359150606085013567ffffffffffffffff808211156124b257600080fd5b818701915087601f8301126124c657600080fd5b8135818111156124d8576124d8612432565b604051601f82017fffffffffffffffffffffffffffffffffffffffffffffffffffffffffffffffe0908116603f0116810190838211818310171561251e5761251e612432565b816040528281528a602084870101111561253757600080fd5b82602086016020830137600060208483010152809550505050505092959194509250565b6000806040838503121561256e57600080fd5b612577836122bf565b91506123ed602084016122bf565b600181811c9082168061259957607f821691505b602082108103610c96577f4e487b7100000000000000000000000000000000000000000000000000000000600052602260045260246000fd5b7f4e487b7100000000000000000000000000000000000000000000000000000000600052601160045260246000fd5b8082028115828204841417610408576104086125d2565b60008261264e577f4e487b7100000000000000000000000000000000000000000000000000000000600052601260045260246000fd5b500490565b7f4e487b7100000000000000000000000000000000000000000000000000000000600052603260045260246000fd5b60008151612694818560208601612225565b9290920192915050565b60008084548160018260011c915060018316806126bc57607f831692505b602080841082036126f4577f4e487b710000000000000000000000000000000000000000000000000000000086526022600452602486fd5b818015612708576001811461273b57612768565b7fffffffffffffffffffffffffffffffffffffffffffffffffffffffffffffff0086168952841515850289019650612768565b60008b81526020902060005b868110156127605781548b820152908501908301612747565b505084890196505b5050505050506127a461277b8286612682565b7f2e6a736f6e000000000000000000000000000000000000000000000000000000815260050190565b95945050505050565b600073ffffffffffffffffffffffffffffffffffffffff8087168352808616602084015250836040830152608060608301526127ec6080830184612249565b9695505050505050565b60006020828403121561280857600080fd5b815161221e816121d3565b81810381811115610408576104086125d2565b7f4e487b7100000000000000000000000000000000000000000000000000000000600052603160045260246000fdfea264697066735822122068cf5c620dcf8e2f5baba18d74940eade01878ff06be7574d06a5b0525b7fabb64736f6c63430008180033a264697066735822122001047220b7ba86decd1af8a8efcc781213c007fd83c37a6873bfcf67dae89a6264736f6c63430008180033","linkReferences":{}},"methodIdentifiers":{"baseUri()":"9abc8320","changeOwner(uint256,address)":"784796f7","claimNft(uint256)":"2ec09d39","collectionUri()":"defcd4b3","deployFilmNFTContract(uint256,string,string)":"08b0534d","filmNFTContract(uint256)":"3a14e1b5","getFilmNFTTokenList(uint256)":"9b32045e","getMintInfo(uint256)":"42189514","getNFTOwner(uint256,uint256)":"7e2d3bc4","getTokenUri(uint256,uint256)":"78402f85","getTotalSupply(uint256)":"92ab723e","getUserTokenIdList(uint256,address)":"f697327f","getVabbleDAO()":"297ae84d","initialize(address,address)":"485cc955","nftInfo(address)":"e9545b92","setBaseURI(string,string)":"6790a9de","setMintInfo(uint256,uint256,uint256,uint256)":"c2935d13","studioNFTAddressList(address,uint256)":"3b3e4715"},"id":0}