{"abi":[{"type":"constructor","inputs":[{"name":"_ownable","type":"address","internalType":"address"},{"name":"_uniHelper","type":"address","internalType":"address"},{"name":"_vote","type":"address","internalType":"address"},{"name":"_staking","type":"address","internalType":"address"},{"name":"_property","type":"address","internalType":"address"},{"name":"_vabbleFund","type":"address","internalType":"address"}],"stateMutability":"nonpayable"},{"type":"receive","stateMutability":"payable"},{"type":"function","name":"DAO_PROPERTY","inputs":[],"outputs":[{"name":"","type":"address","internalType":"address"}],"stateMutability":"view"},{"type":"function","name":"OWNABLE","inputs":[],"outputs":[{"name":"","type":"address","internalType":"address"}],"stateMutability":"view"},{"type":"function","name":"STAKING_POOL","inputs":[],"outputs":[{"name":"","type":"address","internalType":"address"}],"stateMutability":"view"},{"type":"function","name":"StudioPool","inputs":[],"outputs":[{"name":"","type":"uint256","internalType":"uint256"}],"stateMutability":"view"},{"type":"function","name":"UNI_HELPER","inputs":[],"outputs":[{"name":"","type":"address","internalType":"address"}],"stateMutability":"view"},{"type":"function","name":"VABBLE_FUND","inputs":[],"outputs":[{"name":"","type":"address","internalType":"address"}],"stateMutability":"view"},{"type":"function","name":"VOTE","inputs":[],"outputs":[{"name":"","type":"address","internalType":"address"}],"stateMutability":"view"},{"type":"function","name":"allocateFromEdgePool","inputs":[{"name":"_amount","type":"uint256","internalType":"uint256"}],"outputs":[],"stateMutability":"nonpayable"},{"type":"function","name":"allocateToPool","inputs":[{"name":"_users","type":"address[]","internalType":"address[]"},{"name":"_amounts","type":"uint256[]","internalType":"uint256[]"},{"name":"_which","type":"uint256","internalType":"uint256"}],"outputs":[],"stateMutability":"nonpayable"},{"type":"function","name":"approveFilmByVote","inputs":[{"name":"_filmId","type":"uint256","internalType":"uint256"},{"name":"_flag","type":"uint256","internalType":"uint256"}],"outputs":[],"stateMutability":"nonpayable"},{"type":"function","name":"changeOwner","inputs":[{"name":"_filmId","type":"uint256","internalType":"uint256"},{"name":"newOwner","type":"address","internalType":"address"}],"outputs":[{"name":"","type":"bool","internalType":"bool"}],"stateMutability":"nonpayable"},{"type":"function","name":"checkSetFinalFilms","inputs":[{"name":"_filmIds","type":"uint256[]","internalType":"uint256[]"}],"outputs":[{"name":"_valids","type":"bool[]","internalType":"bool[]"}],"stateMutability":"view"},{"type":"function","name":"claimAllReward","inputs":[],"outputs":[],"stateMutability":"nonpayable"},{"type":"function","name":"claimReward","inputs":[{"name":"_filmIds","type":"uint256[]","internalType":"uint256[]"}],"outputs":[],"stateMutability":"nonpayable"},{"type":"function","name":"filmCount","inputs":[],"outputs":[{"name":"_value","type":"uint256","internalType":"uint256"}],"stateMutability":"view"},{"type":"function","name":"filmInfo","inputs":[{"name":"","type":"uint256","internalType":"uint256"}],"outputs":[{"name":"title","type":"string","internalType":"string"},{"name":"description","type":"string","internalType":"string"},{"name":"raiseAmount","type":"uint256","internalType":"uint256"},{"name":"fundPeriod","type":"uint256","internalType":"uint256"},{"name":"fundType","type":"uint256","internalType":"uint256"},{"name":"rewardPercent","type":"uint256","internalType":"uint256"},{"name":"noVote","type":"uint256","internalType":"uint256"},{"name":"enableClaimer","type":"uint256","internalType":"uint256"},{"name":"pCreateTime","type":"uint256","internalType":"uint256"},{"name":"pApproveTime","type":"uint256","internalType":"uint256"},{"name":"studio","type":"address","internalType":"address"},{"name":"status","type":"uint8","internalType":"enum Helper.Status"}],"stateMutability":"view"},{"type":"function","name":"finalFilmCalledTime","inputs":[{"name":"","type":"uint256","internalType":"uint256"}],"outputs":[{"name":"","type":"uint256","internalType":"uint256"}],"stateMutability":"view"},{"type":"function","name":"finalizedAmount","inputs":[{"name":"","type":"uint256","internalType":"uint256"},{"name":"","type":"uint256","internalType":"uint256"},{"name":"","type":"address","internalType":"address"}],"outputs":[{"name":"","type":"uint256","internalType":"uint256"}],"stateMutability":"view"},{"type":"function","name":"getAllAvailableRewards","inputs":[{"name":"_curMonth","type":"uint256","internalType":"uint256"},{"name":"_user","type":"address","internalType":"address"}],"outputs":[{"name":"","type":"uint256","internalType":"uint256"}],"stateMutability":"view"},{"type":"function","name":"getFilmFund","inputs":[{"name":"_filmId","type":"uint256","internalType":"uint256"}],"outputs":[{"name":"raiseAmount_","type":"uint256","internalType":"uint256"},{"name":"fundPeriod_","type":"uint256","internalType":"uint256"},{"name":"fundType_","type":"uint256","internalType":"uint256"},{"name":"rewardPercent_","type":"uint256","internalType":"uint256"}],"stateMutability":"view"},{"type":"function","name":"getFilmIds","inputs":[{"name":"_flag","type":"uint256","internalType":"uint256"}],"outputs":[{"name":"list_","type":"uint256[]","internalType":"uint256[]"}],"stateMutability":"view"},{"type":"function","name":"getFilmOwner","inputs":[{"name":"_filmId","type":"uint256","internalType":"uint256"}],"outputs":[{"name":"owner_","type":"address","internalType":"address"}],"stateMutability":"view"},{"type":"function","name":"getFilmProposalTime","inputs":[{"name":"_filmId","type":"uint256","internalType":"uint256"}],"outputs":[{"name":"cTime_","type":"uint256","internalType":"uint256"},{"name":"aTime_","type":"uint256","internalType":"uint256"}],"stateMutability":"view"},{"type":"function","name":"getFilmShare","inputs":[{"name":"_filmId","type":"uint256","internalType":"uint256"}],"outputs":[{"name":"sharePercents_","type":"uint256[]","internalType":"uint256[]"},{"name":"studioPayees_","type":"address[]","internalType":"address[]"}],"stateMutability":"view"},{"type":"function","name":"getFilmStatus","inputs":[{"name":"_filmId","type":"uint256","internalType":"uint256"}],"outputs":[{"name":"status_","type":"uint8","internalType":"enum Helper.Status"}],"stateMutability":"view"},{"type":"function","name":"getFinalizedFilmIds","inputs":[{"name":"_monthId","type":"uint256","internalType":"uint256"}],"outputs":[{"name":"","type":"uint256[]","internalType":"uint256[]"}],"stateMutability":"view"},{"type":"function","name":"getPoolUsers","inputs":[{"name":"_flag","type":"uint256","internalType":"uint256"}],"outputs":[{"name":"list_","type":"address[]","internalType":"address[]"}],"stateMutability":"view"},{"type":"function","name":"getUserFilmIds","inputs":[{"name":"_user","type":"address","internalType":"address"},{"name":"_flag","type":"uint256","internalType":"uint256"}],"outputs":[{"name":"","type":"uint256[]","internalType":"uint256[]"}],"stateMutability":"view"},{"type":"function","name":"getUserRewardAmountBetweenMonths","inputs":[{"name":"_filmId","type":"uint256","internalType":"uint256"},{"name":"_preMonth","type":"uint256","internalType":"uint256"},{"name":"_curMonth","type":"uint256","internalType":"uint256"},{"name":"_user","type":"address","internalType":"address"}],"outputs":[{"name":"amount_","type":"uint256","internalType":"uint256"}],"stateMutability":"view"},{"type":"function","name":"getUserRewardAmountForUser","inputs":[{"name":"_filmId","type":"uint256","internalType":"uint256"},{"name":"_curMonth","type":"uint256","internalType":"uint256"},{"name":"_user","type":"address","internalType":"address"}],"outputs":[{"name":"","type":"uint256","internalType":"uint256"}],"stateMutability":"view"},{"type":"function","name":"isEnabledClaimer","inputs":[{"name":"_filmId","type":"uint256","internalType":"uint256"}],"outputs":[{"name":"enable_","type":"bool","internalType":"bool"}],"stateMutability":"view"},{"type":"function","name":"latestClaimMonthId","inputs":[{"name":"","type":"uint256","internalType":"uint256"},{"name":"","type":"address","internalType":"address"}],"outputs":[{"name":"","type":"uint256","internalType":"uint256"}],"stateMutability":"view"},{"type":"function","name":"monthId","inputs":[],"outputs":[{"name":"_value","type":"uint256","internalType":"uint256"}],"stateMutability":"view"},{"type":"function","name":"proposalFilmCreate","inputs":[{"name":"_fundType","type":"uint256","internalType":"uint256"},{"name":"_noVote","type":"uint256","internalType":"uint256"},{"name":"_feeToken","type":"address","internalType":"address"}],"outputs":[],"stateMutability":"payable"},{"type":"function","name":"proposalFilmUpdate","inputs":[{"name":"_filmId","type":"uint256","internalType":"uint256"},{"name":"_title","type":"string","internalType":"string"},{"name":"_description","type":"string","internalType":"string"},{"name":"_sharePercents","type":"uint256[]","internalType":"uint256[]"},{"name":"_studioPayees","type":"address[]","internalType":"address[]"},{"name":"_raiseAmount","type":"uint256","internalType":"uint256"},{"name":"_fundPeriod","type":"uint256","internalType":"uint256"},{"name":"_rewardPercent","type":"uint256","internalType":"uint256"},{"name":"_enableClaimer","type":"uint256","internalType":"uint256"}],"outputs":[],"stateMutability":"nonpayable"},{"type":"function","name":"setFinalFilms","inputs":[{"name":"_filmIds","type":"uint256[]","internalType":"uint256[]"},{"name":"_payouts","type":"uint256[]","internalType":"uint256[]"}],"outputs":[],"stateMutability":"nonpayable"},{"type":"function","name":"startNewMonth","inputs":[],"outputs":[],"stateMutability":"nonpayable"},{"type":"function","name":"updateEnabledClaimer","inputs":[{"name":"_filmId","type":"uint256","internalType":"uint256"},{"name":"_enable","type":"uint256","internalType":"uint256"}],"outputs":[],"stateMutability":"nonpayable"},{"type":"function","name":"updateFilmFundPeriod","inputs":[{"name":"_filmId","type":"uint256","internalType":"uint256"},{"name":"_fundPeriod","type":"uint256","internalType":"uint256"}],"outputs":[],"stateMutability":"nonpayable"},{"type":"function","name":"updatedFilmCount","inputs":[],"outputs":[{"name":"_value","type":"uint256","internalType":"uint256"}],"stateMutability":"view"},{"type":"function","name":"withdrawVABFromStudioPool","inputs":[{"name":"_to","type":"address","internalType":"address"}],"outputs":[{"name":"","type":"uint256","internalType":"uint256"}],"stateMutability":"nonpayable"},{"type":"event","name":"AllocatedToPool","inputs":[{"name":"users","type":"address[]","indexed":false,"internalType":"address[]"},{"name":"amounts","type":"uint256[]","indexed":false,"internalType":"uint256[]"},{"name":"which","type":"uint256","indexed":false,"internalType":"uint256"}],"anonymous":false},{"type":"event","name":"ChangeFilmOwner","inputs":[{"name":"filmId","type":"uint256","indexed":true,"internalType":"uint256"},{"name":"oldOwner","type":"address","indexed":true,"internalType":"address"},{"name":"newOwner","type":"address","indexed":true,"internalType":"address"}],"anonymous":false},{"type":"event","name":"FilmFundPeriodUpdated","inputs":[{"name":"filmId","type":"uint256","indexed":true,"internalType":"uint256"},{"name":"studio","type":"address","indexed":false,"internalType":"address"},{"name":"fundPeriod","type":"uint256","indexed":false,"internalType":"uint256"}],"anonymous":false},{"type":"event","name":"FilmProposalCreated","inputs":[{"name":"filmId","type":"uint256","indexed":true,"internalType":"uint256"},{"name":"noVote","type":"uint256","indexed":false,"internalType":"uint256"},{"name":"fundType","type":"uint256","indexed":false,"internalType":"uint256"},{"name":"studio","type":"address","indexed":false,"internalType":"address"}],"anonymous":false},{"type":"event","name":"FilmProposalUpdated","inputs":[{"name":"filmId","type":"uint256","indexed":true,"internalType":"uint256"},{"name":"fundType","type":"uint256","indexed":false,"internalType":"uint256"},{"name":"studio","type":"address","indexed":false,"internalType":"address"}],"anonymous":false},{"type":"event","name":"FinalFilmSetted","inputs":[{"name":"users","type":"address[]","indexed":false,"internalType":"address[]"},{"name":"filmIds","type":"uint256[]","indexed":false,"internalType":"uint256[]"},{"name":"watchedPercents","type":"uint256[]","indexed":false,"internalType":"uint256[]"},{"name":"rentPrices","type":"uint256[]","indexed":false,"internalType":"uint256[]"},{"name":"setTime","type":"uint256","indexed":false,"internalType":"uint256"}],"anonymous":false},{"type":"event","name":"RewardAllClaimed","inputs":[{"name":"user","type":"address","indexed":true,"internalType":"address"},{"name":"monthId","type":"uint256","indexed":true,"internalType":"uint256"},{"name":"filmIds","type":"uint256[]","indexed":false,"internalType":"uint256[]"},{"name":"claimAmount","type":"uint256","indexed":false,"internalType":"uint256"}],"anonymous":false},{"type":"event","name":"SetFinalFilms","inputs":[{"name":"user","type":"address","indexed":true,"internalType":"address"},{"name":"filmIds","type":"uint256[]","indexed":false,"internalType":"uint256[]"},{"name":"payouts","type":"uint256[]","indexed":false,"internalType":"uint256[]"}],"anonymous":false}],"bytecode":{"object":"0x61014060405234801561001157600080fd5b50604051615de1380380615de183398101604081905261003091610080565b60016000556001600160a01b0395861660805293851660e05291841660a052831660c05282166101005216610120526100f4565b80516001600160a01b038116811461007b57600080fd5b919050565b60008060008060008060c0878903121561009957600080fd5b6100a287610064565b95506100b060208801610064565b94506100be60408801610064565b93506100cc60608801610064565b92506100da60808801610064565b91506100e860a08801610064565b90509295509295509295565b60805160a05160c05160e0516101005161012051615b9461024d6000396000818161050c015281816135c40152818161480001528181614894015261491d015260008181610268015281816109a7015281816123c40152818161278a01528181613cd80152613d6401526000818161078901528181613e930152818161403b0152818161408e0152818161410e01526142750152600081816102b901528181611e05015281816127590152818161292d01528181612c8401528181612d410152818161430a0152818161438e01526144010152600081816106eb0152818161110f015261288501526000818161034a01528181610b4601528181610fbd0152818161132e015281816114440152818161158601528181611e7101528181611f9c015281816120a001528181612b2101528181612cb5015281816138ab01528181613df901528181613ec301526141980152615b946000f3fe60806040526004361061024a5760003560e01c80637bcd52b011610139578063c330686c116100b6578063d50363b21161007a578063d50363b21461083c578063d5443afd1461085c578063d8a598e0146108a3578063edce84b1146108c3578063fbe4debb146108f1578063ff4049531461090857600080fd5b8063c330686c14610757578063c631106a14610777578063c6885081146107ab578063c94c7ff4146107e3578063cb3a60631461080357600080fd5b8063a7a9dbce116100fd578063a7a9dbce146106b9578063aa449396146106d9578063b78034311461070d578063bab5296914610724578063c194a6051461073757600080fd5b80637bcd52b0146105df57806387589a031461062c57806387953527146106645780638a623d8614610684578063a3a73a141461069957600080fd5b80632acfdee5116101c75780634ed9e0dd1161018b5780634ed9e0dd146104fa5780635237f7311461052e57806358f3b2521461055b57806363c7b9a414610599578063784796f7146105af57600080fd5b80632acfdee5146104105780632c6cab34146104255780632e5dc17e1461048d5780633f066917146104ba5780634122caec146104da57600080fd5b80631e123e201161020e5780631e123e201461036c57806320f8bd3714610399578063224b5612146103b95780632489b5d3146103d05780632596ca82146103f057600080fd5b80630305c0071461025657806314ae36ae146102a757806317193542146102db5780631b6527fd146102fd5780631c017d551461033857600080fd5b3661025157005b600080fd5b34801561026257600080fd5b5061028a7f000000000000000000000000000000000000000000000000000000000000000081565b6040516001600160a01b0390911681526020015b60405180910390f35b3480156102b357600080fd5b5061028a7f000000000000000000000000000000000000000000000000000000000000000081565b3480156102e757600080fd5b506102fb6102f6366004614f99565b610928565b005b34801561030957600080fd5b5061032a610318366004614fbb565b600d6020526000908152604090205481565b60405190815260200161029e565b34801561034457600080fd5b5061028a7f000000000000000000000000000000000000000000000000000000000000000081565b34801561037857600080fd5b5061038c610387366004615020565b6109a1565b60405161029e9190615062565b3480156103a557600080fd5b506102fb6103b43660046150a8565b610b44565b3480156103c557600080fd5b50600e5461032a9081565b3480156103dc57600080fd5b506102fb6103eb366004614f99565b610da0565b3480156103fc57600080fd5b5061032a61040b366004615129565b610ea1565b34801561041c57600080fd5b506102fb610fbb565b34801561043157600080fd5b5061046d610440366004614fbb565b60009081526004602081905260409091209081015460058201546006830154600790930154919390929190565b60408051948552602085019390935291830152606082015260800161029e565b34801561049957600080fd5b506104ad6104a8366004615159565b61108f565b60405161029e91906151c1565b3480156104c657600080fd5b506102fb6104d5366004614f99565b611104565b3480156104e657600080fd5b506102fb6104f5366004614fbb565b61132c565b34801561050657600080fd5b5061028a7f000000000000000000000000000000000000000000000000000000000000000081565b34801561053a57600080fd5b5061054e610549366004614fbb565b611582565b60405161029e9190615215565b34801561056757600080fd5b5061032a610576366004615228565b600760209081526000938452604080852082529284528284209052825290205481565b3480156105a557600080fd5b5061032a600c5481565b3480156105bb57600080fd5b506105cf6105ca366004615129565b611709565b604051901515815260200161029e565b3480156105eb57600080fd5b506106176105fa366004614fbb565b6000908152600460205260409020600a810154600b909101549091565b6040805192835260208301919091520161029e565b34801561063857600080fd5b5061064c610647366004614fbb565b611ad1565b60405161029e9c9b9a999897969594939291906152e9565b34801561067057600080fd5b506104ad61067f366004614fbb565b611c4e565b34801561069057600080fd5b506102fb611caf565b3480156106a557600080fd5b5061032a6106b4366004615373565b611d86565b3480156106c557600080fd5b5061032a6106d43660046153b4565b611df8565b3480156106e557600080fd5b5061028a7f000000000000000000000000000000000000000000000000000000000000000081565b34801561071957600080fd5b5060105461032a9081565b6102fb610732366004615228565b611f92565b34801561074357600080fd5b506102fb610752366004615488565b6122bd565b34801561076357600080fd5b506105cf610772366004614fbb565b612a8b565b34801561078357600080fd5b5061028a7f000000000000000000000000000000000000000000000000000000000000000081565b3480156107b757600080fd5b5061032a6107c6366004615129565b600860209081526000928352604080842090915290825290205481565b3480156107ef57600080fd5b506102fb6107fe366004615599565b612ab4565b34801561080f57600080fd5b5061028a61081e366004614fbb565b6000908152600460205260409020600c01546001600160a01b031690565b34801561084857600080fd5b506102fb61085736600461562f565b612b1f565b34801561086857600080fd5b50610896610877366004614fbb565b6000908152600460205260409020600c0154600160a01b900460ff1690565b60405161029e91906156a3565b3480156108af57600080fd5b506104ad6108be366004614fbb565b613043565b3480156108cf57600080fd5b506108e36108de366004614fbb565b6130a3565b60405161029e9291906156b1565b3480156108fd57600080fd5b50600f5461032a9081565b34801561091457600080fd5b5061032a610923366004615228565b613183565b6000828152600460205260409020600c01546001600160a01b0316331461098c5760405162461bcd60e51b81526020600482015260136024820152723aa2a19d103737ba103334b6369037bbb732b960691b60448201526064015b60405180910390fd5b60009182526004602052604090912060090155565b606060007f00000000000000000000000000000000000000000000000000000000000000006001600160a01b0316634be520e26040518163ffffffff1660e01b8152600401602060405180830381865afa158015610a03573d6000803e3d6000fd5b505050506040513d601f19601f82011682018060405250810190610a2791906156d6565b90508267ffffffffffffffff811115610a4257610a426153d1565b604051908082528060200260200182016040528015610a6b578160200160208202803683370190505b5091508260005b81811015610b3b57600d6000878784818110610a9057610a906156ef565b90506020020135815260200190815260200160002054600014610b0e5782600d6000888885818110610ac457610ac46156ef565b9050602002013581526020019081526020016000205442610ae5919061571b565b1015848281518110610af957610af96156ef565b91151560209283029190910190910152610b33565b6001848281518110610b2257610b226156ef565b911515602092830291909101909101525b600101610a72565b50505092915050565b7f00000000000000000000000000000000000000000000000000000000000000006001600160a01b0316633ec045a66040518163ffffffff1660e01b8152600401602060405180830381865afa158015610ba2573d6000803e3d6000fd5b505050506040513d601f19601f82011682018060405250810190610bc6919061572e565b6001600160a01b0316336001600160a01b031614610bf65760405162461bcd60e51b81526004016109839061574b565b610bfe6131bb565b828015801590610c0f57506103e881105b8015610c1a57508082145b610c585760405162461bcd60e51b815260206004820152600f60248201526e0e68c8c7440c4c2c840d8cadccee8d608b1b6044820152606401610983565b6000610c6486866109a1565b905060005b82811015610d4657868682818110610c8357610c836156ef565b9050602002013560001480610cb05750848482818110610ca557610ca56156ef565b905060200201356000145b610d3e57818181518110610cc657610cc66156ef565b602002602001015115610d3e57610d0d878783818110610ce857610ce86156ef565b90506020020135868684818110610d0157610d016156ef565b90506020020135613214565b42600d6000898985818110610d2457610d246156ef565b905060200201358152602001908152602001600020819055505b600101610c69565b50336001600160a01b03167f097df5cd9836e57c41b554c45d5eb58e69593f730df31f1c714e1dd1a4355d2787878787604051610d8694939291906157a3565b60405180910390a25050610d9a6001600055565b50505050565b610da86131bb565b6000828152600460205260409020600c01546001600160a01b03163314610dfa5760405162461bcd60e51b81526020600482015260066024820152657546503a203160d01b6044820152606401610983565b6000828152600460205260408120600601549003610e435760405162461bcd60e51b81526020600482015260066024820152653aa3281d101960d11b6044820152606401610983565b600082815260046020908152604091829020600501839055815133815290810183905283917f5ed4adb38130b68ff4cf14fd72418e61e72cec6295cde101e5f76b805900e31c910160405180910390a2610e9d6001600055565b5050565b6001600160a01b038116600090815260056020908152604080832060048452825280832080548251818502810185019093528083528493830182828015610f0757602002820191906000526020600020905b815481526020019060010190808311610ef3575b5050505050905060008060008351905060005b81811015610fad5760086000868381518110610f3857610f386156ef565b602002602001015181526020019081526020016000206000886001600160a01b03166001600160a01b03168152602001908152602001600020549250610f99858281518110610f8957610f896156ef565b6020026020010151848a8a611d86565b610fa390856157ca565b9350600101610f1a565b509193505050505b92915050565b7f00000000000000000000000000000000000000000000000000000000000000006001600160a01b0316633ec045a66040518163ffffffff1660e01b8152600401602060405180830381865afa158015611019573d6000803e3d6000fd5b505050506040513d601f19601f8201168201806040525081019061103d919061572e565b6001600160a01b0316336001600160a01b03161461106d5760405162461bcd60e51b81526004016109839061574b565b6110756131bb565b611083601080546001019055565b61108d6001600055565b565b6001600160a01b03821660009081526005602090815260408083208484528252918290208054835181840281018401909452808452606093928301828280156110f757602002820191906000526020600020905b8154815260200190600101908083116110e3575b5050505050905092915050565b336001600160a01b037f000000000000000000000000000000000000000000000000000000000000000016146111685760405162461bcd60e51b81526020600482015260096024820152686f6e6c7920766f746560b81b6044820152606401610983565b816000036111a25760405162461bcd60e51b81526020600482015260076024820152666146563a20653160c81b6044820152606401610983565b600082815260046020526040812042600b82015560060154908290036113045780156112475760008381526004602090815260408220600c01805460ff60a01b1916600360a01b1790556001908190527f7dfe757ecd65cbd7922a9c0161e935dd7fdbcc0e999689c7d31633896b1fc60b805491820181559091527f73661f06600408586227726a59a462d4c7b87e9a7813effa8f25d467d8ff051c018390556112c2565b60008381526004602090815260408220600c01805460ff60a01b1916600160a11b1790556001908190527fd9d16d34ffb15ba3a3d852f0d403e2ce1d691fb54de27ac87cd2f993f3ec330f805491820181559091527f9feccf6caa602894c8105bdda7f81b2a7bb7de7dba1f18af92d8d057b708cb41018390555b50506000818152600460209081526040808320600c01546001600160a01b03168352600582528083206003845282528220805460018101825590835291200155565b6000838152600460205260409020600c01805460ff60a01b1916600160a21b1790555b505050565b7f00000000000000000000000000000000000000000000000000000000000000006001600160a01b0316633ec045a66040518163ffffffff1660e01b8152600401602060405180830381865afa15801561138a573d6000803e3d6000fd5b505050506040513d601f19601f820116820180604052508101906113ae919061572e565b6001600160a01b0316336001600160a01b0316146113de5760405162461bcd60e51b81526004016109839061574b565b6113e66131bb565b600354620186a0811061142e5760405162461bcd60e51b815260206004820152601060248201526f0c28c8aa07440c4c2c840d8cadccee8d60831b6044820152606401610983565b6040516347a4300b60e11b8152600481018390527f00000000000000000000000000000000000000000000000000000000000000006001600160a01b031690638f48601690602401600060405180830381600087803b15801561149057600080fd5b505af11580156114a4573d6000803e3d6000fd5b5050505081600c60008282546114ba91906157ca565b90915550600090505b8181101561156757600a6000600383815481106114e2576114e26156ef565b60009182526020808320909101546001600160a01b0316835282019290925260400190205460ff1661155f57600260038281548110611523576115236156ef565b60009182526020808320909101548354600181018555938352912090910180546001600160a01b0319166001600160a01b039092169190911790555b6001016114c3565b5061157460036000614ec8565b5061157f6001600055565b50565b60607f00000000000000000000000000000000000000000000000000000000000000006001600160a01b0316633ec045a66040518163ffffffff1660e01b8152600401602060405180830381865afa1580156115e2573d6000803e3d6000fd5b505050506040513d601f19601f82011682018060405250810190611606919061572e565b6001600160a01b0316336001600160a01b0316146116365760405162461bcd60e51b81526004016109839061574b565b816001036116a057600280548060200260200160405190810160405280929190818152602001828054801561169457602002820191906000526020600020905b81546001600160a01b03168152600190910190602001808311611676575b50505050509050919050565b81600203611704576003805480602002602001604051908101604052809291908181526020018280548015611694576020028201919060005260206000209081546001600160a01b0316815260019091019060200180831161167657505050505090505b919050565b60006117136131bb565b6000838152600460205260409020600c8101546001600160a01b031633146117665760405162461bcd60e51b8152602060048201526006602482015265634f2c20453160d01b6044820152606401610983565b60038101546103e881106117a55760405162461bcd60e51b815260206004820152600660248201526531a79610229960d11b6044820152606401610983565b60005b8181101561183657336001600160a01b03168360030182815481106117cf576117cf6156ef565b6000918252602090912001546001600160a01b03160361182e57848360030182815481106117ff576117ff6156ef565b9060005260206000200160006101000a8154816001600160a01b0302191690836001600160a01b031602179055505b6001016117a8565b50600c820180546001600160a01b0319166001600160a01b0386161790556000600c830154600160a01b900460ff166005811115611876576118766152b1565b036118be5733600090815260056020818152604080842060018086529083528185206001600160a01b038a1686529383528185209085529091529091206118be91908761368d565b6001600c830154600160a01b900460ff1660058111156118e0576118e06152b1565b036119285733600090815260056020818152604080842060028086529083528185206001600160a01b038a16865293835281852090855290915290912061192891908761368d565b6003600c830154600160a01b900460ff16600581111561194a5761194a6152b1565b148061197557506002600c830154600160a01b900460ff166005811115611973576119736152b1565b145b15611a895733600090815260056020818152604080842060038086529083528185206001600160a01b038a1686529383528185209085529091529091206119bd91908761368d565b33600090815260056020818152604080842060048086529083528185206001600160a01b038a168652938352818520908552909152909120611a0091908761368d565b33600090815260096020908152604080832088845290915290205460ff1615611a6e573360009081526009602081815260408084208985528252808420805460ff199081169091556001600160a01b0389168552928252808420898552909152909120805490911660011790555b6000611a7960105490565b9050611a87868233886137af565b505b6040516001600160a01b03851690339087907f88c78aa1cc72f300d9b51753db7d646d17d215fe9c5a6eff81cadddd12cca8f490600090a4600192505050610fb56001600055565b600460205260009081526040902080548190611aec906157dd565b80601f0160208091040260200160405190810160405280929190818152602001828054611b18906157dd565b8015611b655780601f10611b3a57610100808354040283529160200191611b65565b820191906000526020600020905b815481529060010190602001808311611b4857829003601f168201915b505050505090806001018054611b7a906157dd565b80601f0160208091040260200160405190810160405280929190818152602001828054611ba6906157dd565b8015611bf35780601f10611bc857610100808354040283529160200191611bf3565b820191906000526020600020905b815481529060010190602001808311611bd657829003601f168201915b505050600484015460058501546006860154600787015460088801546009890154600a8a0154600b8b0154600c909b0154999a9699959850939650919490939192916001600160a01b0381169060ff600160a01b909104168c565b60008181526006602090815260409182902080548351818402810184019094528084526060939283018282801561169457602002820191906000526020600020905b815481526020019060010190808311611c905750505050509050919050565b611cb76131bb565b33600090815260056020908152604080832060048452825280832080548251818502810185019093528083529192909190830182828015611d1757602002820191906000526020600020905b815481526020019060010190808311611d03575b505050505090508051600014158015611d3257506103e88151105b611d725760405162461bcd60e51b81526020600482015260116024820152706341523a207a65726f2066696c6d49647360781b6044820152606401610983565b611d7b81613855565b5061108d6001600055565b600082841015611df0576000611d9d8560016157ca565b90505b838111611dee57600081815260076020908152604080832089845282528083206001600160a01b0387168452909152902054611ddc90836157ca565b9150611de781615817565b9050611da0565b505b949350505050565b6000336001600160a01b037f00000000000000000000000000000000000000000000000000000000000000001614611e655760405162461bcd60e51b815260206004820152601060248201526f1bdb9b1e481cdd185ada5b99d41bdbdb60821b6044820152606401610983565b611e6d6131bb565b60007f00000000000000000000000000000000000000000000000000000000000000006001600160a01b031663e2f6f5116040518163ffffffff1660e01b8152600401602060405180830381865afa158015611ecd573d6000803e3d6000fd5b505050506040513d601f19601f82011682018060405250810190611ef1919061572e565b6040516370a0823160e01b81523060048201529091506000906001600160a01b038316906370a0823190602401602060405180830381865afa158015611f3b573d6000803e3d6000fd5b505050506040513d601f19601f82011682018060405250810190611f5f91906156d6565b90508015611f8557611f72828583613b88565b6000600c819055611f8590600290614ec8565b9150506117046001600055565b611f9a6131bb565b7f00000000000000000000000000000000000000000000000000000000000000006001600160a01b031663e2f6f5116040518163ffffffff1660e01b8152600401602060405180830381865afa158015611ff8573d6000803e3d6000fd5b505050506040513d601f19601f8201168201806040525081019061201c919061572e565b6001600160a01b0316816001600160a01b0316036120725760405162461bcd60e51b815260206004820152601360248201527238231d103737ba1030b63637bbb2b2102b20a160691b6044820152606401610983565b6001600160a01b0381161561214f5760405163bdbef07d60e01b81526001600160a01b0382811660048301527f0000000000000000000000000000000000000000000000000000000000000000169063bdbef07d90602401602060405180830381865afa1580156120e7573d6000803e3d6000fd5b505050506040513d601f19601f8201168201806040525081019061210b9190615830565b61214f5760405162461bcd60e51b81526020600482015260156024820152741c118e881b9bdd08185b1b1bddd95908185cdcd95d605a1b6044820152606401610983565b826000036121955781156121955760405162461bcd60e51b815260206004820152600d60248201526c70463a207061737320766f746560981b6044820152606401610983565b61219f8183613cd4565b6121ad600e80546001019055565b60006121b8600e5490565b60008181526004602090815260408083206006810189905560088101889055600c810180546001600160a81b0319163360ff60a01b198116919091179091557fcc69885fda6bcc1a4ace058b4a62bf5e179ea78fd58a1ccd71c22cc9b688792f805460018181019092557f66b32740ad8041bcc3b909c72d7e1afe60094ec55e3cde329b4b3a28501d826c018790558186526005855283862081875285528386208054918201815586529484902090940185905581518881529283018990528282019390935251929350909183917f5f3445f8fa7c6860acf0186bfc4aff4c47cf46055dac20b4726be5dcc3ad0db4919081900360600190a250506113276001600055565b6122c56131bb565b60008590036122ff5760405162461bcd60e51b815260206004820152600660248201526570553a20653160d01b6044820152606401610983565b8487146123375760405162461bcd60e51b8152602060048201526006602482015265382a9d10329960d11b6044820152606401610983565b89516000036123715760405162461bcd60e51b815260206004820152600660248201526570553a20653360d01b6044820152606401610983565b60008b81526004602052604090206006810154156124be57836000036123c25760405162461bcd60e51b81526020600482015260066024820152651c154e88194d60d21b6044820152606401610983565b7f00000000000000000000000000000000000000000000000000000000000000006001600160a01b031663645006ca6040518163ffffffff1660e01b8152600401602060405180830381865afa158015612420573d6000803e3d6000fd5b505050506040513d601f19601f8201168201806040525081019061244491906156d6565b851161247b5760405162461bcd60e51b815260206004820152600660248201526570553a20653560d01b6044820152606401610983565b6402540be4008311156124b95760405162461bcd60e51b8152602060048201526006602482015265382a9d10329b60d11b6044820152606401610983565b6124f5565b82156124f55760405162461bcd60e51b815260206004820152600660248201526570553a20653760d01b6044820152606401610983565b600060018790036125215789896000818110612513576125136156ef565b90506020020135905061255c565b60005b8781101561255a578a8a8281811061253e5761253e6156ef565b905060200201358261255091906157ca565b9150600101612524565b505b806402540be400146125995760405162461bcd60e51b81526020600482015260066024820152650e0aa7440ca760d31b6044820152606401610983565b6000600c830154600160a01b900460ff1660058111156125bb576125bb6152b1565b146125f15760405162461bcd60e51b81526020600482015260066024820152651c154e88139360d21b6044820152606401610983565b600c8201546001600160a01b031633146126375760405162461bcd60e51b815260206004820152600760248201526670553a204e464f60c81b6044820152606401610983565b816126428d8261589a565b50600182016126518c8261589a565b50612660600283018b8b614ee6565b5061266f600383018989614f31565b506004820186905560058201859055600782018490556009820183905542600a830155600c820180546001600160a81b0319163360ff60a01b191617600160a01b179055600f8054600101905560016000600481526020019081526020016000208d908060018154018082558091505060019003906000526020600020016000909190919091505560056000336001600160a01b03166001600160a01b031681526020019081526020016000206000600281526020019081526020016000208d908060018154018082558091505060019003906000526020600020016000909190919091505560007f00000000000000000000000000000000000000000000000000000000000000006001600160a01b0316634037f8aa33427f00000000000000000000000000000000000000000000000000000000000000006001600160a01b03166341d4e3516040518163ffffffff1660e01b8152600401602060405180830381865afa1580156127e6573d6000803e3d6000fd5b505050506040513d601f19601f8201168201806040525081019061280a91906156d6565b6040516001600160e01b031960e086901b1681526001600160a01b039093166004840152602483019190915260448201526064016020604051808303816000875af115801561285d573d6000803e3d6000fd5b505050506040513d601f19601f8201168201806040525081019061288191906156d6565b90507f00000000000000000000000000000000000000000000000000000000000000006001600160a01b0316630e6e62728f836040518363ffffffff1660e01b81526004016128da929190918252602082015260400190565b600060405180830381600087803b1580156128f457600080fd5b505af1158015612908573d6000803e3d6000fd5b505050508260060154600014612a3257604051632fd199d560e21b81524260048201527f00000000000000000000000000000000000000000000000000000000000000006001600160a01b03169063bf46675490602401600060405180830381600087803b15801561297957600080fd5b505af115801561298d573d6000803e3d6000fd5b505050508260080154600103612a3257600c8301805460ff60a01b1916600360a01b17905542600b8401557f7dfe757ecd65cbd7922a9c0161e935dd7fdbcc0e999689c7d31633896b1fc60b805460018181019092557f73661f06600408586227726a59a462d4c7b87e9a7813effa8f25d467d8ff051c018f905533600090815260056020908152604080832060038452825282208054938401815582529020018e90555b6006830154604080519182523360208301528f917f267902c60ee3b0597c9360a09d016e07d4ca5a8e62c02f95d0f842a55e4bcea7910160405180910390a2505050612a7e6001600055565b5050505050505050505050565b600081815260046020526040812060090154600103612aac57506001919050565b506000919050565b612abc6131bb565b805115801590612ace57506103e88151105b612b0c5760405162461bcd60e51b815260206004820152600f60248201526e63523a206261642066696c6d49647360881b6044820152606401610983565b612b1581613855565b61157f6001600055565b7f00000000000000000000000000000000000000000000000000000000000000006001600160a01b0316633ec045a66040518163ffffffff1660e01b8152600401602060405180830381865afa158015612b7d573d6000803e3d6000fd5b505050506040513d601f19601f82011682018060405250810190612ba1919061572e565b6001600160a01b0316336001600160a01b031614612bd15760405162461bcd60e51b81526004016109839061574b565b612bd96131bb565b838281148015612bea57506103e881105b612c205760405162461bcd60e51b81526020600482015260076024820152666154503a20653160c81b6044820152606401610983565b8160011480612c2f5750816002145b612c655760405162461bcd60e51b815260206004820152600760248201526630aa281d10329960c91b6044820152606401610983565b81600103612d2a57604051632bcd68d760e21b81526001600160a01b037f0000000000000000000000000000000000000000000000000000000000000000169063af35a35c90612ce190899089907f0000000000000000000000000000000000000000000000000000000000000000908a908a90600401615998565b6020604051808303816000875af1158015612d00573d6000803e3d6000fd5b505050506040513d601f19601f82011682018060405250810190612d2491906156d6565b50612dd8565b604051632bcd68d760e21b81526001600160a01b037f0000000000000000000000000000000000000000000000000000000000000000169063af35a35c90612d7e908990899030908a908a90600401615998565b6020604051808303816000875af1158015612d9d573d6000803e3d6000fd5b505050506040513d601f19601f82011682018060405250810190612dc191906156d6565b600c6000828254612dd291906157ca565b90915550505b60005b81811015612ff15782600103612eec57600b6000888884818110612e0157612e016156ef565b9050602002016020810190612e1691906153b4565b6001600160a01b0316815260208101919091526040016000205460ff16612fe9576001600b6000898985818110612e4f57612e4f6156ef565b9050602002016020810190612e6491906153b4565b6001600160a01b031681526020810191909152604001600020805460ff19169115159190911790556003878783818110612ea057612ea06156ef565b9050602002016020810190612eb591906153b4565b81546001810183556000928352602090922090910180546001600160a01b0319166001600160a01b03909216919091179055612fe9565b600a6000888884818110612f0257612f026156ef565b9050602002016020810190612f1791906153b4565b6001600160a01b0316815260208101919091526040016000205460ff16612fe9576001600a6000898985818110612f5057612f506156ef565b9050602002016020810190612f6591906153b4565b6001600160a01b031681526020810191909152604001600020805460ff19169115159190911790556002878783818110612fa157612fa16156ef565b9050602002016020810190612fb691906153b4565b81546001810183556000928352602090922090910180546001600160a01b0319166001600160a01b039092169190911790555b600101612ddb565b507fed3b4143a6442bb3426701d06163c5809464172075dc3a5c53413ffdae49dee486868686866040516130299594939291906159da565b60405180910390a15061303c6001600055565b5050505050565b6000818152600160209081526040918290208054835181840281018401909452808452606093928301828280156116945760200282019190600052602060002090815481526020019060010190808311611c905750505050509050919050565b6060806004600084815260200190815260200160002060020180548060200260200160405190810160405280929190818152602001828054801561310657602002820191906000526020600020905b8154815260200190600101908083116130f2575b505050505091506004600084815260200190815260200160002060030180548060200260200160405190810160405280929190818152602001828054801561317757602002820191906000526020600020905b81546001600160a01b03168152600190910190602001808311613159575b50505050509050915091565b60008381526008602090815260408083206001600160a01b03851684529091528120546131b285828686611d86565b95945050505050565b60026000540361320d5760405162461bcd60e51b815260206004820152601f60248201527f5265656e7472616e637947756172643a207265656e7472616e742063616c6c006044820152606401610983565b6002600055565b60008281526004602052604080822081516101c0810190925280548290829061323c906157dd565b80601f0160208091040260200160405190810160405280929190818152602001828054613268906157dd565b80156132b55780601f1061328a576101008083540402835291602001916132b5565b820191906000526020600020905b81548152906001019060200180831161329857829003601f168201915b505050505081526020016001820180546132ce906157dd565b80601f01602080910402602001604051908101604052809291908181526020018280546132fa906157dd565b80156133475780601f1061331c57610100808354040283529160200191613347565b820191906000526020600020905b81548152906001019060200180831161332a57829003601f168201915b505050505081526020016002820180548060200260200160405190810160405280929190818152602001828054801561339f57602002820191906000526020600020905b81548152602001906001019080831161338b575b505050505081526020016003820180548060200260200160405190810160405280929190818152602001828054801561340157602002820191906000526020600020905b81546001600160a01b031681526001909101906020018083116133e3575b50505091835250506004820154602082015260058083015460408301526006830154606083015260078301546080830152600883015460a0830152600983015460c0830152600a83015460e0830152600b830154610100830152600c8301546001600160a01b03811661012084015261014090920191600160a01b900460ff1690811115613491576134916152b1565b60058111156134a2576134a26152b1565b90525090506002816101a0015160058111156134c0576134c06152b1565b14806134e257506003816101a0015160058111156134e0576134e06152b1565b145b6135225760405162461bcd60e51b81526020600482015260116024820152701cd1918e88139bdd08185c1c1c9bdd9959607a1b6044820152606401610983565b600061352d60105490565b90506002826101a001516005811115613548576135486152b1565b0361355d57613558848483614461565b613667565b6003826101a001516005811115613576576135766152b1565b036136675760006402540be4008360e00151856135939190615a14565b61359d9190615a2b565b905060006135ab828661571b565b604051639b6034a960e01b8152600481018890529091507f00000000000000000000000000000000000000000000000000000000000000006001600160a01b031690639b6034a990602401602060405180830381865afa158015613613573d6000803e3d6000fd5b505050506040513d601f19601f820116820180604052508101906136379190615830565b613642575060009050835b8115613653576136538683856147e7565b801561366457613664868285614461565b50505b600090815260066020908152604082208054600181018255908352912001929092555050565b8254620f424081106136d95760405162461bcd60e51b81526020600482015260156024820152740daa882827440e8dede40dac2dcf240d8cadccee8d605b1b6044820152606401610983565b8060005b8281101561371457838682815481106136f8576136f86156ef565b90600052602060002001540361370c578091505b6001016136dd565b50818110613723575050505050565b8354600181810186556000868152602090209091018490558590613747908461571b565b81548110613757576137576156ef565b9060005260206000200154858281548110613774576137746156ef565b90600052602060002001819055508480548061379257613792615a4d565b600190038181906000526020600020016000905590555050505050565b60008481526008602090815260408083206001600160a01b03868116855292528083205491841683529091208190558381101561303c5760006137f38260016157ca565b90505b84811161384d57600081815260076020908152604080832089845282528083206001600160a01b038881168086529190935281842080549388168552918420929092559082525561384681615817565b90506137f6565b505050505050565b8051620186a0811061389a5760405162461bcd60e51b815260206004820152600e60248201526d6341523a2062616420617272617960901b6044820152606401610983565b60006138a560105490565b905060007f00000000000000000000000000000000000000000000000000000000000000006001600160a01b031663e2f6f5116040518163ffffffff1660e01b8152600401602060405180830381865afa158015613907573d6000803e3d6000fd5b505050506040513d601f19601f8201168201806040525081019061392b919061572e565b90506000805b848110156139e657600d600087838151811061394f5761394f6156ef565b6020026020010151815260200190815260200160002054600003156139de57613992868281518110613983576139836156ef565b60200260200101518533613183565b61399c90836157ca565b915083600860008884815181106139b5576139b56156ef565b602090810291909101810151825281810192909252604090810160009081203382529092529020555b600101613931565b5080600003613a2a5760405162461bcd60e51b815260206004820152601060248201526f18d0548e881e995c9bc8185b5bdd5b9d60821b6044820152606401610983565b80600c541015613a725760405162461bcd60e51b81526020600482015260136024820152726341523a20696e73756666696369656e74203160681b6044820152606401610983565b600c546040516370a0823160e01b81523060048201526001600160a01b038416906370a0823190602401602060405180830381865afa158015613ab9573d6000803e3d6000fd5b505050506040513d601f19601f82011682018060405250810190613add91906156d6565b1015613b215760405162461bcd60e51b815260206004820152601360248201527231a0a91d1034b739bab33334b1b4b2b73a101960691b6044820152606401610983565b613b2c823383613b88565b80600c6000828254613b3e919061571b565b9091555050604051839033907fa1fcc46b51afb5cc2a7388ab55c9f4fc13a99aabd3664a8e4f1b13ac0b52bd5290613b799089908690615a63565b60405180910390a35050505050565b6001600160a01b0383163b613baf5760405162461bcd60e51b815260040161098390615a85565b604080516001600160a01b038481166024830152604480830185905283518084039091018152606490920183526020820180516001600160e01b031663a9059cbb60e01b1790529151600092839290871691613c0b9190615aa0565b6000604051808303816000865af19150503d8060008114613c48576040519150601f19603f3d011682016040523d82523d6000602084013e613c4d565b606091505b5091509150818015613c77575080511580613c77575080806020019051810190613c779190615830565b61303c5760405162461bcd60e51b815260206004820152602860248201527f566162626c6544414f3a3a736166655472616e736665723a207472616e7366656044820152671c8819985a5b195960c21b6064820152608401610983565b60007f00000000000000000000000000000000000000000000000000000000000000006001600160a01b03166306b25c7b6040518163ffffffff1660e01b8152600401602060405180830381865afa158015613d34573d6000803e3d6000fd5b505050506040513d601f19601f82011682018060405250810190613d5891906156d6565b905081600103613df2577f00000000000000000000000000000000000000000000000000000000000000006001600160a01b03166306b25c7b6040518163ffffffff1660e01b8152600401602060405180830381865afa158015613dc0573d6000803e3d6000fd5b505050506040513d601f19601f82011682018060405250810190613de491906156d6565b613def906002615a14565b90505b60008190507f00000000000000000000000000000000000000000000000000000000000000006001600160a01b031663fa5692746040518163ffffffff1660e01b8152600401602060405180830381865afa158015613e55573d6000803e3d6000fd5b505050506040513d601f19601f82011682018060405250810190613e79919061572e565b6001600160a01b0316846001600160a01b031614613fbd577f00000000000000000000000000000000000000000000000000000000000000006001600160a01b031663eeee26ce837f00000000000000000000000000000000000000000000000000000000000000006001600160a01b031663fa5692746040518163ffffffff1660e01b8152600401602060405180830381865afa158015613f1f573d6000803e3d6000fd5b505050506040513d601f19601f82011682018060405250810190613f43919061572e565b6040516001600160e01b031960e085901b16815260048101929092526001600160a01b03908116602483015287166044820152606401602060405180830381865afa158015613f96573d6000803e3d6000fd5b505050506040513d601f19601f82011682018060405250810190613fba91906156d6565b90505b6001600160a01b038416614065578034101561401b5760405162461bcd60e51b815260206004820152601a60248201527f706169644665653a20496e73756666696369656e7420706169640000000000006044820152606401610983565b803411156140365761403633614031833461571b565b614ac9565b6140607f000000000000000000000000000000000000000000000000000000000000000082614ac9565b614194565b61407184333084614b9e565b604051636eb1769f60e11b81523060048201526001600160a01b037f00000000000000000000000000000000000000000000000000000000000000008116602483015285169063dd62ed3e90604401602060405180830381865afa1580156140dd573d6000803e3d6000fd5b505050506040513d601f19601f8201168201806040525081019061410191906156d6565b60000361419457614194847f0000000000000000000000000000000000000000000000000000000000000000866001600160a01b03166318160ddd6040518163ffffffff1660e01b8152600401602060405180830381865afa15801561416b573d6000803e3d6000fd5b505050506040513d601f19601f8201168201806040525081019061418f91906156d6565b614cf6565b60007f00000000000000000000000000000000000000000000000000000000000000006001600160a01b031663e2f6f5116040518163ffffffff1660e01b8152600401602060405180830381865afa1580156141f4573d6000803e3d6000fd5b505050506040513d601f19601f82011682018060405250810190614218919061572e565b9050600082868360405160200161424b939291909283526001600160a01b03918216602084015216604082015260600190565b60408051601f19818403018152908290526355a74dd360e11b825291506000906001600160a01b037f0000000000000000000000000000000000000000000000000000000000000000169063ab4e9ba6906142aa908590600401615abc565b6020604051808303816000875af11580156142c9573d6000803e3d6000fd5b505050506040513d601f19601f820116820180604052508101906142ed91906156d6565b604051636eb1769f60e11b81523060048201526001600160a01b037f0000000000000000000000000000000000000000000000000000000000000000811660248301529192509084169063dd62ed3e90604401602060405180830381865afa15801561435d573d6000803e3d6000fd5b505050506040513d601f19601f8201168201806040525081019061438191906156d6565b6000036143eb576143eb837f0000000000000000000000000000000000000000000000000000000000000000856001600160a01b03166318160ddd6040518163ffffffff1660e01b8152600401602060405180830381865afa15801561416b573d6000803e3d6000fd5b604051633a53ed4960e01b8152600481018290527f00000000000000000000000000000000000000000000000000000000000000006001600160a01b031690633a53ed4990602401600060405180830381600087803b15801561444d57600080fd5b505af1158015612a7e573d6000803e3d6000fd5b60008381526004602052604080822081516101c08101909252805482908290614489906157dd565b80601f01602080910402602001604051908101604052809291908181526020018280546144b5906157dd565b80156145025780601f106144d757610100808354040283529160200191614502565b820191906000526020600020905b8154815290600101906020018083116144e557829003601f168201915b5050505050815260200160018201805461451b906157dd565b80601f0160208091040260200160405190810160405280929190818152602001828054614547906157dd565b80156145945780601f1061456957610100808354040283529160200191614594565b820191906000526020600020905b81548152906001019060200180831161457757829003601f168201915b50505050508152602001600282018054806020026020016040519081016040528092919081815260200182805480156145ec57602002820191906000526020600020905b8154815260200190600101908083116145d8575b505050505081526020016003820180548060200260200160405190810160405280929190818152602001828054801561464e57602002820191906000526020600020905b81546001600160a01b03168152600190910190602001808311614630575b50505091835250506004820154602082015260058083015460408301526006830154606083015260078301546080830152600883015460a0830152600983015460c0830152600a83015460e0830152600b830154610100830152600c8301546001600160a01b03811661012084015261014090920191600160a01b900460ff16908111156146de576146de6152b1565b60058111156146ef576146ef6152b1565b90525060608101515190915060005b8181101561384d5760006402540be40084604001518381518110614724576147246156ef565b6020026020010151876147379190615a14565b6147419190615a2b565b60008681526007602090815260408083208b8452909152812060608701518051939450849391929186908110614779576147796156ef565b60200260200101516001600160a01b03166001600160a01b0316815260200190815260200160002060008282546147b091906157ca565b925050819055506147de846060015183815181106147d0576147d06156ef565b602002602001015188614e45565b506001016146fe565b6040516393b1138b60e01b8152600481018490526000907f00000000000000000000000000000000000000000000000000000000000000006001600160a01b0316906393b1138b90602401602060405180830381865afa15801561484f573d6000803e3d6000fd5b505050506040513d601f19601f8201168201806040525081019061487391906156d6565b90508015610d9a57604051633a52056760e21b8152600481018590526000907f00000000000000000000000000000000000000000000000000000000000000006001600160a01b03169063e948159c90602401600060405180830381865afa1580156148e3573d6000803e3d6000fd5b505050506040513d6000823e601f3d908101601f1916820160405261490b9190810190615acf565b905060005b815181101561384d5760007f00000000000000000000000000000000000000000000000000000000000000006001600160a01b031663e4ed62ff84848151811061495c5761495c6156ef565b6020026020010151896040518363ffffffff1660e01b81526004016149969291906001600160a01b03929092168252602082015260400190565b602060405180830381865afa1580156149b3573d6000803e3d6000fd5b505050506040513d601f19601f820116820180604052508101906149d791906156d6565b9050806000036149e75750614ac1565b6000846149f9836402540be400615a14565b614a039190615a2b565b905060006402540be400614a17838a615a14565b614a219190615a2b565b9050806007600089815260200190815260200160002060008b81526020019081526020016000206000878781518110614a5c57614a5c6156ef565b60200260200101516001600160a01b03166001600160a01b031681526020019081526020016000206000828254614a9391906157ca565b92505081905550614abd858581518110614aaf57614aaf6156ef565b60200260200101518a614e45565b5050505b600101614910565b604080516000808252602082019092526001600160a01b038416908390604051614af39190615aa0565b60006040518083038185875af1925050503d8060008114614b30576040519150601f19603f3d011682016040523d82523d6000602084013e614b35565b606091505b50509050806113275760405162461bcd60e51b815260206004820152602f60248201527f566162626c6544414f3a3a736166655472616e736665724554483a204554482060448201526e1d1c985b9cd9995c8819985a5b1959608a1b6064820152608401610983565b6001600160a01b0384163b614bc55760405162461bcd60e51b815260040161098390615a85565b604080516001600160a01b0385811660248301528481166044830152606480830185905283518084039091018152608490920183526020820180516001600160e01b03166323b872dd60e01b1790529151600092839290881691614c299190615aa0565b6000604051808303816000865af19150503d8060008114614c66576040519150601f19603f3d011682016040523d82523d6000602084013e614c6b565b606091505b5091509150818015614c95575080511580614c95575080806020019051810190614c959190615830565b61384d5760405162461bcd60e51b815260206004820152602c60248201527f566162626c6544414f3a3a7472616e7366657246726f6d3a207472616e73666560448201526b1c919c9bdb4819985a5b195960a21b6064820152608401610983565b6001600160a01b0383163b614d1d5760405162461bcd60e51b815260040161098390615a85565b604080516001600160a01b038481166024830152604480830185905283518084039091018152606490920183526020820180516001600160e01b031663095ea7b360e01b1790529151600092839290871691614d799190615aa0565b6000604051808303816000865af19150503d8060008114614db6576040519150601f19603f3d011682016040523d82523d6000602084013e614dbb565b606091505b5091509150818015614de5575080511580614de5575080806020019051810190614de59190615830565b61303c5760405162461bcd60e51b815260206004820152602b60248201527f5472616e7366657248656c7065723a3a73616665417070726f76653a2061707060448201526a1c9bdd994819985a5b195960aa1b6064820152608401610983565b6001600160a01b038216600090815260096020908152604080832084845290915290205460ff16610e9d576001600160a01b038216600081815260056020908152604080832060048452825280832080546001818101835591855283852001869055938352600982528083208584529091529020805460ff191690911790555050565b508054600082559060005260206000209081019061157f9190614f84565b828054828255906000526020600020908101928215614f21579160200282015b82811115614f21578235825591602001919060010190614f06565b50614f2d929150614f84565b5090565b828054828255906000526020600020908101928215614f21579160200282015b82811115614f215781546001600160a01b0319166001600160a01b03843516178255602090920191600190910190614f51565b5b80821115614f2d5760008155600101614f85565b60008060408385031215614fac57600080fd5b50508035926020909101359150565b600060208284031215614fcd57600080fd5b5035919050565b60008083601f840112614fe657600080fd5b50813567ffffffffffffffff811115614ffe57600080fd5b6020830191508360208260051b850101111561501957600080fd5b9250929050565b6000806020838503121561503357600080fd5b823567ffffffffffffffff81111561504a57600080fd5b61505685828601614fd4565b90969095509350505050565b6020808252825182820181905260009190848201906040850190845b8181101561509c57835115158352928401929184019160010161507e565b50909695505050505050565b600080600080604085870312156150be57600080fd5b843567ffffffffffffffff808211156150d657600080fd5b6150e288838901614fd4565b909650945060208701359150808211156150fb57600080fd5b5061510887828801614fd4565b95989497509550505050565b6001600160a01b038116811461157f57600080fd5b6000806040838503121561513c57600080fd5b82359150602083013561514e81615114565b809150509250929050565b6000806040838503121561516c57600080fd5b823561517781615114565b946020939093013593505050565b60008151808452602080850194506020840160005b838110156151b65781518752958201959082019060010161519a565b509495945050505050565b6020815260006151d46020830184615185565b9392505050565b60008151808452602080850194506020840160005b838110156151b65781516001600160a01b0316875295820195908201906001016151f0565b6020815260006151d460208301846151db565b60008060006060848603121561523d57600080fd5b8335925060208401359150604084013561525681615114565b809150509250925092565b60005b8381101561527c578181015183820152602001615264565b50506000910152565b6000815180845261529d816020860160208601615261565b601f01601f19169290920160200192915050565b634e487b7160e01b600052602160045260246000fd5b600681106152e557634e487b7160e01b600052602160045260246000fd5b9052565b610180815260006152fe61018083018f615285565b8281036020840152615310818f615285565b9150508b60408301528a60608301528960808301528860a08301528760c08301528660e0830152856101008301528461012083015260018060a01b0384166101408301526153626101608301846152c7565b9d9c50505050505050505050505050565b6000806000806080858703121561538957600080fd5b84359350602085013592506040850135915060608501356153a981615114565b939692955090935050565b6000602082840312156153c657600080fd5b81356151d481615114565b634e487b7160e01b600052604160045260246000fd5b604051601f8201601f1916810167ffffffffffffffff81118282101715615410576154106153d1565b604052919050565b600082601f83011261542957600080fd5b813567ffffffffffffffff811115615443576154436153d1565b615456601f8201601f19166020016153e7565b81815284602083860101111561546b57600080fd5b816020850160208301376000918101602001919091529392505050565b60008060008060008060008060008060006101208c8e0312156154aa57600080fd5b8b359a5067ffffffffffffffff8060208e013511156154c857600080fd5b6154d88e60208f01358f01615418565b9a508060408e013511156154eb57600080fd5b6154fb8e60408f01358f01615418565b99508060608e0135111561550e57600080fd5b61551e8e60608f01358f01614fd4565b909950975060808d013581101561553457600080fd5b506155458d60808e01358e01614fd4565b9b9e9a9d50989b979a9699969760a08101359760c0820135975060e0820135965061010090910135945092505050565b600067ffffffffffffffff82111561558f5761558f6153d1565b5060051b60200190565b600060208083850312156155ac57600080fd5b823567ffffffffffffffff8111156155c357600080fd5b8301601f810185136155d457600080fd5b80356155e76155e282615575565b6153e7565b81815260059190911b8201830190838101908783111561560657600080fd5b928401925b828410156156245783358252928401929084019061560b565b979650505050505050565b60008060008060006060868803121561564757600080fd5b853567ffffffffffffffff8082111561565f57600080fd5b61566b89838a01614fd4565b9097509550602088013591508082111561568457600080fd5b5061569188828901614fd4565b96999598509660400135949350505050565b60208101610fb582846152c7565b6040815260006156c46040830185615185565b82810360208401526131b281856151db565b6000602082840312156156e857600080fd5b5051919050565b634e487b7160e01b600052603260045260246000fd5b634e487b7160e01b600052601160045260246000fd5b81810381811115610fb557610fb5615705565b60006020828403121561574057600080fd5b81516151d481615114565b6020808252600c908201526b37b7363c9030bab234ba37b960a11b604082015260600190565b81835260006001600160fb1b0383111561578a57600080fd5b8260051b80836020870137939093016020019392505050565b6040815260006157b7604083018688615771565b8281036020840152615624818587615771565b80820180821115610fb557610fb5615705565b600181811c908216806157f157607f821691505b60208210810361581157634e487b7160e01b600052602260045260246000fd5b50919050565b60006001820161582957615829615705565b5060010190565b60006020828403121561584257600080fd5b815180151581146151d457600080fd5b601f821115611327576000816000526020600020601f850160051c8101602086101561587b5750805b601f850160051c820191505b8181101561384d57828155600101615887565b815167ffffffffffffffff8111156158b4576158b46153d1565b6158c8816158c284546157dd565b84615852565b602080601f8311600181146158fd57600084156158e55750858301515b600019600386901b1c1916600185901b17855561384d565b600085815260208120601f198616915b8281101561592c5788860151825594840194600190910190840161590d565b508582101561594a5787850151600019600388901b60f8161c191681555b5050505050600190811b01905550565b8183526000602080850194508260005b858110156151b657813561597d81615114565b6001600160a01b03168752958201959082019060010161596a565b6060815260006159ac60608301878961595a565b6001600160a01b038616602084015282810360408401526159ce818587615771565b98975050505050505050565b6060815260006159ee60608301878961595a565b8281036020840152615a01818688615771565b9150508260408301529695505050505050565b8082028115828204841417610fb557610fb5615705565b600082615a4857634e487b7160e01b600052601260045260246000fd5b500490565b634e487b7160e01b600052603160045260246000fd5b604081526000615a766040830185615185565b90508260208301529392505050565b6020808252600190820152604360f81b604082015260600190565b60008251615ab2818460208701615261565b9190910192915050565b6020815260006151d46020830184615285565b60006020808385031215615ae257600080fd5b825167ffffffffffffffff811115615af957600080fd5b8301601f81018513615b0a57600080fd5b8051615b186155e282615575565b81815260059190911b82018301908381019087831115615b3757600080fd5b928401925b82841015615624578351615b4f81615114565b82529284019290840190615b3c56fea2646970667358221220f4701ee0303c0df3ab44b0e18cb11a6f5cc3cf6b31d3e7d0f1053a72a8758ee264736f6c63430008190033","linkReferences":{}},"methodIdentifiers":{"DAO_PROPERTY()":"0305c007","OWNABLE()":"1c017d55","STAKING_POOL()":"14ae36ae","StudioPool()":"63c7b9a4","UNI_HELPER()":"c631106a","VABBLE_FUND()":"4ed9e0dd","VOTE()":"aa449396","allocateFromEdgePool(uint256)":"4122caec","allocateToPool(address[],uint256[],uint256)":"d50363b2","approveFilmByVote(uint256,uint256)":"3f066917","changeOwner(uint256,address)":"784796f7","checkSetFinalFilms(uint256[])":"1e123e20","claimAllReward()":"8a623d86","claimReward(uint256[])":"c94c7ff4","filmCount()":"224b5612","filmInfo(uint256)":"87589a03","finalFilmCalledTime(uint256)":"1b6527fd","finalizedAmount(uint256,uint256,address)":"58f3b252","getAllAvailableRewards(uint256,address)":"2596ca82","getFilmFund(uint256)":"2c6cab34","getFilmIds(uint256)":"d8a598e0","getFilmOwner(uint256)":"cb3a6063","getFilmProposalTime(uint256)":"7bcd52b0","getFilmShare(uint256)":"edce84b1","getFilmStatus(uint256)":"d5443afd","getFinalizedFilmIds(uint256)":"87953527","getPoolUsers(uint256)":"5237f731","getUserFilmIds(address,uint256)":"2e5dc17e","getUserRewardAmountBetweenMonths(uint256,uint256,uint256,address)":"a3a73a14","getUserRewardAmountForUser(uint256,uint256,address)":"ff404953","isEnabledClaimer(uint256)":"c330686c","latestClaimMonthId(uint256,address)":"c6885081","monthId()":"b7803431","proposalFilmCreate(uint256,uint256,address)":"bab52969","proposalFilmUpdate(uint256,string,string,uint256[],address[],uint256,uint256,uint256,uint256)":"c194a605","setFinalFilms(uint256[],uint256[])":"20f8bd37","startNewMonth()":"2acfdee5","updateEnabledClaimer(uint256,uint256)":"17193542","updateFilmFundPeriod(uint256,uint256)":"2489b5d3","updatedFilmCount()":"fbe4debb","withdrawVABFromStudioPool(address)":"a7a9dbce"},"id":9}