{"abi":[{"type":"constructor","inputs":[{"name":"_ownable","type":"address","internalType":"address"},{"name":"_uniHelper","type":"address","internalType":"address"},{"name":"_vote","type":"address","internalType":"address"},{"name":"_staking","type":"address","internalType":"address"},{"name":"_property","type":"address","internalType":"address"},{"name":"_vabbleFund","type":"address","internalType":"address"}],"stateMutability":"nonpayable"},{"type":"receive","stateMutability":"payable"},{"type":"function","name":"DAO_PROPERTY","inputs":[],"outputs":[{"name":"","type":"address","internalType":"address"}],"stateMutability":"view"},{"type":"function","name":"OWNABLE","inputs":[],"outputs":[{"name":"","type":"address","internalType":"address"}],"stateMutability":"view"},{"type":"function","name":"STAKING_POOL","inputs":[],"outputs":[{"name":"","type":"address","internalType":"address"}],"stateMutability":"view"},{"type":"function","name":"StudioPool","inputs":[],"outputs":[{"name":"","type":"uint256","internalType":"uint256"}],"stateMutability":"view"},{"type":"function","name":"UNI_HELPER","inputs":[],"outputs":[{"name":"","type":"address","internalType":"address"}],"stateMutability":"view"},{"type":"function","name":"VABBLE_FUND","inputs":[],"outputs":[{"name":"","type":"address","internalType":"address"}],"stateMutability":"view"},{"type":"function","name":"VOTE","inputs":[],"outputs":[{"name":"","type":"address","internalType":"address"}],"stateMutability":"view"},{"type":"function","name":"allocateFromEdgePool","inputs":[{"name":"_amount","type":"uint256","internalType":"uint256"}],"outputs":[],"stateMutability":"nonpayable"},{"type":"function","name":"allocateToPool","inputs":[{"name":"_users","type":"address[]","internalType":"address[]"},{"name":"_amounts","type":"uint256[]","internalType":"uint256[]"},{"name":"_which","type":"uint256","internalType":"uint256"}],"outputs":[],"stateMutability":"nonpayable"},{"type":"function","name":"approveFilmByVote","inputs":[{"name":"_filmId","type":"uint256","internalType":"uint256"},{"name":"_flag","type":"uint256","internalType":"uint256"}],"outputs":[],"stateMutability":"nonpayable"},{"type":"function","name":"changeOwner","inputs":[{"name":"_filmId","type":"uint256","internalType":"uint256"},{"name":"newOwner","type":"address","internalType":"address"}],"outputs":[{"name":"","type":"bool","internalType":"bool"}],"stateMutability":"nonpayable"},{"type":"function","name":"checkSetFinalFilms","inputs":[{"name":"_filmIds","type":"uint256[]","internalType":"uint256[]"}],"outputs":[{"name":"_valids","type":"bool[]","internalType":"bool[]"}],"stateMutability":"view"},{"type":"function","name":"claimAllReward","inputs":[],"outputs":[],"stateMutability":"nonpayable"},{"type":"function","name":"claimReward","inputs":[{"name":"_filmIds","type":"uint256[]","internalType":"uint256[]"}],"outputs":[],"stateMutability":"nonpayable"},{"type":"function","name":"filmCount","inputs":[],"outputs":[{"name":"_value","type":"uint256","internalType":"uint256"}],"stateMutability":"view"},{"type":"function","name":"filmInfo","inputs":[{"name":"","type":"uint256","internalType":"uint256"}],"outputs":[{"name":"title","type":"string","internalType":"string"},{"name":"description","type":"string","internalType":"string"},{"name":"raiseAmount","type":"uint256","internalType":"uint256"},{"name":"fundPeriod","type":"uint256","internalType":"uint256"},{"name":"fundType","type":"uint256","internalType":"uint256"},{"name":"rewardPercent","type":"uint256","internalType":"uint256"},{"name":"noVote","type":"uint256","internalType":"uint256"},{"name":"enableClaimer","type":"uint256","internalType":"uint256"},{"name":"pCreateTime","type":"uint256","internalType":"uint256"},{"name":"pApproveTime","type":"uint256","internalType":"uint256"},{"name":"studio","type":"address","internalType":"address"},{"name":"status","type":"uint8","internalType":"enum Helper.Status"}],"stateMutability":"view"},{"type":"function","name":"finalFilmCalledTime","inputs":[{"name":"","type":"uint256","internalType":"uint256"}],"outputs":[{"name":"","type":"uint256","internalType":"uint256"}],"stateMutability":"view"},{"type":"function","name":"finalizedAmount","inputs":[{"name":"","type":"uint256","internalType":"uint256"},{"name":"","type":"uint256","internalType":"uint256"},{"name":"","type":"address","internalType":"address"}],"outputs":[{"name":"","type":"uint256","internalType":"uint256"}],"stateMutability":"view"},{"type":"function","name":"getAllAvailableRewards","inputs":[{"name":"_curMonth","type":"uint256","internalType":"uint256"},{"name":"_user","type":"address","internalType":"address"}],"outputs":[{"name":"","type":"uint256","internalType":"uint256"}],"stateMutability":"view"},{"type":"function","name":"getFilmFund","inputs":[{"name":"_filmId","type":"uint256","internalType":"uint256"}],"outputs":[{"name":"raiseAmount_","type":"uint256","internalType":"uint256"},{"name":"fundPeriod_","type":"uint256","internalType":"uint256"},{"name":"fundType_","type":"uint256","internalType":"uint256"},{"name":"rewardPercent_","type":"uint256","internalType":"uint256"}],"stateMutability":"view"},{"type":"function","name":"getFilmIds","inputs":[{"name":"_flag","type":"uint256","internalType":"uint256"}],"outputs":[{"name":"list_","type":"uint256[]","internalType":"uint256[]"}],"stateMutability":"view"},{"type":"function","name":"getFilmOwner","inputs":[{"name":"_filmId","type":"uint256","internalType":"uint256"}],"outputs":[{"name":"owner_","type":"address","internalType":"address"}],"stateMutability":"view"},{"type":"function","name":"getFilmProposalTime","inputs":[{"name":"_filmId","type":"uint256","internalType":"uint256"}],"outputs":[{"name":"cTime_","type":"uint256","internalType":"uint256"},{"name":"aTime_","type":"uint256","internalType":"uint256"}],"stateMutability":"view"},{"type":"function","name":"getFilmShare","inputs":[{"name":"_filmId","type":"uint256","internalType":"uint256"}],"outputs":[{"name":"sharePercents_","type":"uint256[]","internalType":"uint256[]"},{"name":"studioPayees_","type":"address[]","internalType":"address[]"}],"stateMutability":"view"},{"type":"function","name":"getFilmStatus","inputs":[{"name":"_filmId","type":"uint256","internalType":"uint256"}],"outputs":[{"name":"status_","type":"uint8","internalType":"enum Helper.Status"}],"stateMutability":"view"},{"type":"function","name":"getFinalizedFilmIds","inputs":[{"name":"_monthId","type":"uint256","internalType":"uint256"}],"outputs":[{"name":"","type":"uint256[]","internalType":"uint256[]"}],"stateMutability":"view"},{"type":"function","name":"getPoolUsers","inputs":[{"name":"_flag","type":"uint256","internalType":"uint256"}],"outputs":[{"name":"list_","type":"address[]","internalType":"address[]"}],"stateMutability":"view"},{"type":"function","name":"getUserFilmIds","inputs":[{"name":"_user","type":"address","internalType":"address"},{"name":"_flag","type":"uint256","internalType":"uint256"}],"outputs":[{"name":"","type":"uint256[]","internalType":"uint256[]"}],"stateMutability":"view"},{"type":"function","name":"getUserRewardAmountBetweenMonths","inputs":[{"name":"_filmId","type":"uint256","internalType":"uint256"},{"name":"_preMonth","type":"uint256","internalType":"uint256"},{"name":"_curMonth","type":"uint256","internalType":"uint256"},{"name":"_user","type":"address","internalType":"address"}],"outputs":[{"name":"amount_","type":"uint256","internalType":"uint256"}],"stateMutability":"view"},{"type":"function","name":"getUserRewardAmountForUser","inputs":[{"name":"_filmId","type":"uint256","internalType":"uint256"},{"name":"_curMonth","type":"uint256","internalType":"uint256"},{"name":"_user","type":"address","internalType":"address"}],"outputs":[{"name":"","type":"uint256","internalType":"uint256"}],"stateMutability":"view"},{"type":"function","name":"isEnabledClaimer","inputs":[{"name":"_filmId","type":"uint256","internalType":"uint256"}],"outputs":[{"name":"enable_","type":"bool","internalType":"bool"}],"stateMutability":"view"},{"type":"function","name":"latestClaimMonthId","inputs":[{"name":"","type":"uint256","internalType":"uint256"},{"name":"","type":"address","internalType":"address"}],"outputs":[{"name":"","type":"uint256","internalType":"uint256"}],"stateMutability":"view"},{"type":"function","name":"monthId","inputs":[],"outputs":[{"name":"_value","type":"uint256","internalType":"uint256"}],"stateMutability":"view"},{"type":"function","name":"proposalFilmCreate","inputs":[{"name":"_fundType","type":"uint256","internalType":"uint256"},{"name":"_noVote","type":"uint256","internalType":"uint256"},{"name":"_feeToken","type":"address","internalType":"address"}],"outputs":[],"stateMutability":"payable"},{"type":"function","name":"proposalFilmUpdate","inputs":[{"name":"_filmId","type":"uint256","internalType":"uint256"},{"name":"_title","type":"string","internalType":"string"},{"name":"_description","type":"string","internalType":"string"},{"name":"_sharePercents","type":"uint256[]","internalType":"uint256[]"},{"name":"_studioPayees","type":"address[]","internalType":"address[]"},{"name":"_raiseAmount","type":"uint256","internalType":"uint256"},{"name":"_fundPeriod","type":"uint256","internalType":"uint256"},{"name":"_rewardPercent","type":"uint256","internalType":"uint256"},{"name":"_enableClaimer","type":"uint256","internalType":"uint256"}],"outputs":[],"stateMutability":"nonpayable"},{"type":"function","name":"setFinalFilms","inputs":[{"name":"_filmIds","type":"uint256[]","internalType":"uint256[]"},{"name":"_payouts","type":"uint256[]","internalType":"uint256[]"}],"outputs":[],"stateMutability":"nonpayable"},{"type":"function","name":"startNewMonth","inputs":[],"outputs":[],"stateMutability":"nonpayable"},{"type":"function","name":"updateEnabledClaimer","inputs":[{"name":"_filmId","type":"uint256","internalType":"uint256"},{"name":"_enable","type":"uint256","internalType":"uint256"}],"outputs":[],"stateMutability":"nonpayable"},{"type":"function","name":"updateFilmFundPeriod","inputs":[{"name":"_filmId","type":"uint256","internalType":"uint256"},{"name":"_fundPeriod","type":"uint256","internalType":"uint256"}],"outputs":[],"stateMutability":"nonpayable"},{"type":"function","name":"updatedFilmCount","inputs":[],"outputs":[{"name":"_value","type":"uint256","internalType":"uint256"}],"stateMutability":"view"},{"type":"function","name":"withdrawVABFromStudioPool","inputs":[{"name":"_to","type":"address","internalType":"address"}],"outputs":[{"name":"","type":"uint256","internalType":"uint256"}],"stateMutability":"nonpayable"},{"type":"event","name":"AllocatedToPool","inputs":[{"name":"users","type":"address[]","indexed":false,"internalType":"address[]"},{"name":"amounts","type":"uint256[]","indexed":false,"internalType":"uint256[]"},{"name":"which","type":"uint256","indexed":false,"internalType":"uint256"}],"anonymous":false},{"type":"event","name":"ChangeFilmOwner","inputs":[{"name":"filmId","type":"uint256","indexed":true,"internalType":"uint256"},{"name":"oldOwner","type":"address","indexed":true,"internalType":"address"},{"name":"newOwner","type":"address","indexed":true,"internalType":"address"}],"anonymous":false},{"type":"event","name":"FilmFundPeriodUpdated","inputs":[{"name":"filmId","type":"uint256","indexed":true,"internalType":"uint256"},{"name":"studio","type":"address","indexed":false,"internalType":"address"},{"name":"fundPeriod","type":"uint256","indexed":false,"internalType":"uint256"}],"anonymous":false},{"type":"event","name":"FilmProposalCreated","inputs":[{"name":"filmId","type":"uint256","indexed":true,"internalType":"uint256"},{"name":"noVote","type":"uint256","indexed":false,"internalType":"uint256"},{"name":"fundType","type":"uint256","indexed":false,"internalType":"uint256"},{"name":"studio","type":"address","indexed":false,"internalType":"address"}],"anonymous":false},{"type":"event","name":"FilmProposalUpdated","inputs":[{"name":"filmId","type":"uint256","indexed":true,"internalType":"uint256"},{"name":"fundType","type":"uint256","indexed":false,"internalType":"uint256"},{"name":"studio","type":"address","indexed":false,"internalType":"address"}],"anonymous":false},{"type":"event","name":"FinalFilmSetted","inputs":[{"name":"users","type":"address[]","indexed":false,"internalType":"address[]"},{"name":"filmIds","type":"uint256[]","indexed":false,"internalType":"uint256[]"},{"name":"watchedPercents","type":"uint256[]","indexed":false,"internalType":"uint256[]"},{"name":"rentPrices","type":"uint256[]","indexed":false,"internalType":"uint256[]"},{"name":"setTime","type":"uint256","indexed":false,"internalType":"uint256"}],"anonymous":false},{"type":"event","name":"RewardAllClaimed","inputs":[{"name":"user","type":"address","indexed":true,"internalType":"address"},{"name":"monthId","type":"uint256","indexed":true,"internalType":"uint256"},{"name":"filmIds","type":"uint256[]","indexed":false,"internalType":"uint256[]"},{"name":"claimAmount","type":"uint256","indexed":false,"internalType":"uint256"}],"anonymous":false},{"type":"event","name":"SetFinalFilms","inputs":[{"name":"user","type":"address","indexed":true,"internalType":"address"},{"name":"filmIds","type":"uint256[]","indexed":false,"internalType":"uint256[]"},{"name":"payouts","type":"uint256[]","indexed":false,"internalType":"uint256[]"}],"anonymous":false}],"bytecode":{"object":"0x6101406040523480156200001257600080fd5b50604051620073f5380380620073f5833981016040819052620000359162000087565b60016000556001600160a01b0395861660805293851660e05291841660a052831660c052821661010052166101205262000108565b80516001600160a01b03811681146200008257600080fd5b919050565b60008060008060008060c08789031215620000a157600080fd5b620000ac876200006a565b9550620000bc602088016200006a565b9450620000cc604088016200006a565b9350620000dc606088016200006a565b9250620000ec608088016200006a565b9150620000fc60a088016200006a565b90509295509295509295565b60805160a05160c05160e05161010051610120516171936200026260003960008181610599015281816143b8015281816159b801528181615a720152615b260152600081816102e801528181610a8301528181612ccf0152818161325001528181614ca10152614d3a01526000818161081601528181614e9d015281816150ab01528181615124015281816151a40152615376015260008181610346015281816124f5015281816132120152818161344b015281816138fa015281816139dd01528181615431015281816154b5015261554e015260008181610778015281816113bf015261337d0152600081816103d701528181610c2f015281816111e2015281816116cd0152818161189401528181611a1501528181612588015281816126e601528181612868015281816136a00152818161392b0152818161471101528181614ddc01528181614eda015261523b01526171936000f3fe6080604052600436106102ca5760003560e01c80637bcd52b011610179578063c330686c116100d6578063d50363b21161008a578063edce84b111610064578063edce84b11461096e578063fbe4debb1461099c578063ff404953146109b357600080fd5b8063d50363b2146108d6578063d5443afd146108f6578063d8a598e01461094e57600080fd5b8063c6885081116100bb578063c688508114610838578063c94c7ff414610870578063cb3a60631461089057600080fd5b8063c330686c146107e4578063c631106a1461080457600080fd5b8063a7a9dbce1161012d578063b780343111610112578063b78034311461079a578063bab52969146107b1578063c194a605146107c457600080fd5b8063a7a9dbce14610746578063aa4493961461076657600080fd5b8063879535271161015e57806387953527146106f15780638a623d8614610711578063a3a73a141461072657600080fd5b80637bcd52b01461066c57806387589a03146106b957600080fd5b80632acfdee5116102275780634ed9e0dd116101db57806358f3b252116101c057806358f3b252146105e857806363c7b9a414610626578063784796f71461063c57600080fd5b80634ed9e0dd146105875780635237f731146105bb57600080fd5b80632e5dc17e1161020c5780632e5dc17e1461051a5780633f066917146105475780634122caec1461056757600080fd5b80632acfdee51461049d5780632c6cab34146104b257600080fd5b80631e123e201161027e578063224b561211610263578063224b5612146104465780632489b5d31461045d5780632596ca821461047d57600080fd5b80631e123e20146103f957806320f8bd371461042657600080fd5b806317193542116102af57806317193542146103685780631b6527fd1461038a5780631c017d55146103c557600080fd5b80630305c007146102d657806314ae36ae1461033457600080fd5b366102d157005b600080fd5b3480156102e257600080fd5b5061030a7f000000000000000000000000000000000000000000000000000000000000000081565b60405173ffffffffffffffffffffffffffffffffffffffff90911681526020015b60405180910390f35b34801561034057600080fd5b5061030a7f000000000000000000000000000000000000000000000000000000000000000081565b34801561037457600080fd5b506103886103833660046163e3565b6109d3565b005b34801561039657600080fd5b506103b76103a5366004616405565b600d6020526000908152604090205481565b60405190815260200161032b565b3480156103d157600080fd5b5061030a7f000000000000000000000000000000000000000000000000000000000000000081565b34801561040557600080fd5b5061041961041436600461646a565b610a7d565b60405161032b91906164ac565b34801561043257600080fd5b506103886104413660046164f2565b610c2d565b34801561045257600080fd5b50600e546103b79081565b34801561046957600080fd5b506103886104783660046163e3565b610f2f565b34801561048957600080fd5b506103b7610498366004616580565b61109f565b3480156104a957600080fd5b506103886111e0565b3480156104be57600080fd5b506104fa6104cd366004616405565b60009081526004602081905260409091209081015460058201546006830154600790930154919390929190565b60408051948552602085019390935291830152606082015260800161032b565b34801561052657600080fd5b5061053a6105353660046165b0565b611325565b60405161032b9190616618565b34801561055357600080fd5b506103886105623660046163e3565b6113a7565b34801561057357600080fd5b50610388610582366004616405565b6116cb565b34801561059357600080fd5b5061030a7f000000000000000000000000000000000000000000000000000000000000000081565b3480156105c757600080fd5b506105db6105d6366004616405565b611a11565b60405161032b9190616679565b3480156105f457600080fd5b506103b761060336600461668c565b600760209081526000938452604080852082529284528284209052825290205481565b34801561063257600080fd5b506103b7600c5481565b34801561064857600080fd5b5061065c610657366004616580565b611c23565b604051901515815260200161032b565b34801561067857600080fd5b506106a4610687366004616405565b6000908152600460205260409020600a810154600b909101549091565b6040805192835260208301919091520161032b565b3480156106c557600080fd5b506106d96106d4366004616405565b612163565b60405161032b9c9b9a9998979695949392919061679d565b3480156106fd57600080fd5b5061053a61070c366004616405565b6122fe565b34801561071d57600080fd5b5061038861235f565b34801561073257600080fd5b506103b7610741366004616835565b61245c565b34801561075257600080fd5b506103b7610761366004616876565b6124db565b34801561077257600080fd5b5061030a7f000000000000000000000000000000000000000000000000000000000000000081565b3480156107a657600080fd5b506010546103b79081565b6103886107bf36600461668c565b6126dc565b3480156107d057600080fd5b506103886107df36600461699f565b612b04565b3480156107f057600080fd5b5061065c6107ff366004616405565b6135e2565b34801561081057600080fd5b5061030a7f000000000000000000000000000000000000000000000000000000000000000081565b34801561084457600080fd5b506103b7610853366004616580565b600860209081526000928352604080842090915290825290205481565b34801561087c57600080fd5b5061038861088b366004616ab0565b61360b565b34801561089c57600080fd5b5061030a6108ab366004616405565b6000908152600460205260409020600c015473ffffffffffffffffffffffffffffffffffffffff1690565b3480156108e257600080fd5b506103886108f1366004616b46565b61369e565b34801561090257600080fd5b50610941610911366004616405565b6000908152600460205260409020600c015474010000000000000000000000000000000000000000900460ff1690565b60405161032b9190616bba565b34801561095a57600080fd5b5061053a610969366004616405565b613d99565b34801561097a57600080fd5b5061098e610989366004616405565b613df9565b60405161032b929190616bc8565b3480156109a857600080fd5b50600f546103b79081565b3480156109bf57600080fd5b506103b76109ce36600461668c565b613ee6565b6000828152600460205260409020600c015473ffffffffffffffffffffffffffffffffffffffff163314610a68576040517f08c379a000000000000000000000000000000000000000000000000000000000815260206004820152601360248201527f7545433a206e6f742066696c6d206f776e65720000000000000000000000000060448201526064015b60405180910390fd5b60009182526004602052604090912060090155565b606060007f000000000000000000000000000000000000000000000000000000000000000073ffffffffffffffffffffffffffffffffffffffff16634be520e26040518163ffffffff1660e01b8152600401602060405180830381865afa158015610aec573d6000803e3d6000fd5b505050506040513d601f19601f82011682018060405250810190610b109190616bed565b90508267ffffffffffffffff811115610b2b57610b2b616893565b604051908082528060200260200182016040528015610b54578160200160208202803683370190505b5091508260005b81811015610c2457600d6000878784818110610b7957610b79616c06565b90506020020135815260200190815260200160002054600014610bf75782600d6000888885818110610bad57610bad616c06565b9050602002013581526020019081526020016000205442610bce9190616c64565b1015848281518110610be257610be2616c06565b91151560209283029190910190910152610c1c565b6001848281518110610c0b57610c0b616c06565b911515602092830291909101909101525b600101610b5b565b50505092915050565b7f000000000000000000000000000000000000000000000000000000000000000073ffffffffffffffffffffffffffffffffffffffff16633ec045a66040518163ffffffff1660e01b8152600401602060405180830381865afa158015610c98573d6000803e3d6000fd5b505050506040513d601f19601f82011682018060405250810190610cbc9190616c77565b73ffffffffffffffffffffffffffffffffffffffff163373ffffffffffffffffffffffffffffffffffffffff1614610d50576040517f08c379a000000000000000000000000000000000000000000000000000000000815260206004820152600c60248201527f6f6e6c792061756469746f7200000000000000000000000000000000000000006044820152606401610a5f565b610d58613f2b565b828015801590610d6957506103e881105b8015610d7457508082145b610dda576040517f08c379a000000000000000000000000000000000000000000000000000000000815260206004820152600f60248201527f7346463a20626164206c656e67746800000000000000000000000000000000006044820152606401610a5f565b6000610de68686610a7d565b905060005b82811015610ec857868682818110610e0557610e05616c06565b9050602002013560001480610e325750848482818110610e2757610e27616c06565b905060200201356000145b610ec057818181518110610e4857610e48616c06565b602002602001015115610ec057610e8f878783818110610e6a57610e6a616c06565b90506020020135868684818110610e8357610e83616c06565b90506020020135613f9e565b42600d6000898985818110610ea657610ea6616c06565b905060200201358152602001908152602001600020819055505b600101610deb565b503373ffffffffffffffffffffffffffffffffffffffff167f097df5cd9836e57c41b554c45d5eb58e69593f730df31f1c714e1dd1a4355d2787878787604051610f159493929190616cdf565b60405180910390a25050610f296001600055565b50505050565b610f37613f2b565b6000828152600460205260409020600c015473ffffffffffffffffffffffffffffffffffffffff163314610fc7576040517f08c379a000000000000000000000000000000000000000000000000000000000815260206004820152600660248201527f7546503a203100000000000000000000000000000000000000000000000000006044820152606401610a5f565b6000828152600460205260408120600601549003611041576040517f08c379a000000000000000000000000000000000000000000000000000000000815260206004820152600660248201527f7546503a203200000000000000000000000000000000000000000000000000006044820152606401610a5f565b600082815260046020908152604091829020600501839055815133815290810183905283917f5ed4adb38130b68ff4cf14fd72418e61e72cec6295cde101e5f76b805900e31c910160405180910390a261109b6001600055565b5050565b73ffffffffffffffffffffffffffffffffffffffff811660009081526005602090815260408083206004845282528083208054825181850281018501909352808352849383018282801561111257602002820191906000526020600020905b8154815260200190600101908083116110fe575b5050505050905060008060008351905060005b818110156111d2576008600086838151811061114357611143616c06565b6020026020010151815260200190815260200160002060008873ffffffffffffffffffffffffffffffffffffffff1673ffffffffffffffffffffffffffffffffffffffff1681526020019081526020016000205492506111be8582815181106111ae576111ae616c06565b6020026020010151848a8a61245c565b6111c89085616d06565b9350600101611125565b509193505050505b92915050565b7f000000000000000000000000000000000000000000000000000000000000000073ffffffffffffffffffffffffffffffffffffffff16633ec045a66040518163ffffffff1660e01b8152600401602060405180830381865afa15801561124b573d6000803e3d6000fd5b505050506040513d601f19601f8201168201806040525081019061126f9190616c77565b73ffffffffffffffffffffffffffffffffffffffff163373ffffffffffffffffffffffffffffffffffffffff1614611303576040517f08c379a000000000000000000000000000000000000000000000000000000000815260206004820152600c60248201527f6f6e6c792061756469746f7200000000000000000000000000000000000000006044820152606401610a5f565b61130b613f2b565b611319601080546001019055565b6113236001600055565b565b73ffffffffffffffffffffffffffffffffffffffff8216600090815260056020908152604080832084845282529182902080548351818402810184019094528084526060939283018282801561139a57602002820191906000526020600020905b815481526020019060010190808311611386575b5050505050905092915050565b3373ffffffffffffffffffffffffffffffffffffffff7f00000000000000000000000000000000000000000000000000000000000000001614611446576040517f08c379a000000000000000000000000000000000000000000000000000000000815260206004820152600960248201527f6f6e6c7920766f746500000000000000000000000000000000000000000000006044820152606401610a5f565b816000036114b0576040517f08c379a000000000000000000000000000000000000000000000000000000000815260206004820152600760248201527f6146563a206531000000000000000000000000000000000000000000000000006044820152606401610a5f565b600082815260046020526040812042600b82015560060154908290036116775780156115815760008381526004602090815260408220600c0180547fffffffffffffffffffffff00ffffffffffffffffffffffffffffffffffffffff16740300000000000000000000000000000000000000001790556001908190527f7dfe757ecd65cbd7922a9c0161e935dd7fdbcc0e999689c7d31633896b1fc60b805491820181559091527f73661f06600408586227726a59a462d4c7b87e9a7813effa8f25d467d8ff051c01839055611628565b60008381526004602090815260408220600c0180547fffffffffffffffffffffff00ffffffffffffffffffffffffffffffffffffffff16740200000000000000000000000000000000000000001790556001908190527fd9d16d34ffb15ba3a3d852f0d403e2ce1d691fb54de27ac87cd2f993f3ec330f805491820181559091527f9feccf6caa602894c8105bdda7f81b2a7bb7de7dba1f18af92d8d057b708cb41018390555b50506000818152600460209081526040808320600c015473ffffffffffffffffffffffffffffffffffffffff168352600582528083206003845282528220805460018101825590835291200155565b6000838152600460205260409020600c0180547fffffffffffffffffffffff00ffffffffffffffffffffffffffffffffffffffff16740400000000000000000000000000000000000000001790555b505050565b7f000000000000000000000000000000000000000000000000000000000000000073ffffffffffffffffffffffffffffffffffffffff16633ec045a66040518163ffffffff1660e01b8152600401602060405180830381865afa158015611736573d6000803e3d6000fd5b505050506040513d601f19601f8201168201806040525081019061175a9190616c77565b73ffffffffffffffffffffffffffffffffffffffff163373ffffffffffffffffffffffffffffffffffffffff16146117ee576040517f08c379a000000000000000000000000000000000000000000000000000000000815260206004820152600c60248201527f6f6e6c792061756469746f7200000000000000000000000000000000000000006044820152606401610a5f565b6117f6613f2b565b600354620186a08110611865576040517f08c379a000000000000000000000000000000000000000000000000000000000815260206004820152601060248201527f614645503a20626164206c656e677468000000000000000000000000000000006044820152606401610a5f565b6040517f8f486016000000000000000000000000000000000000000000000000000000008152600481018390527f000000000000000000000000000000000000000000000000000000000000000073ffffffffffffffffffffffffffffffffffffffff1690638f48601690602401600060405180830381600087803b1580156118ed57600080fd5b505af1158015611901573d6000803e3d6000fd5b5050505081600c60008282546119179190616d06565b90915550600090505b818110156119f657600a60006003838154811061193f5761193f616c06565b600091825260208083209091015473ffffffffffffffffffffffffffffffffffffffff16835282019290925260400190205460ff166119ee5760026003828154811061198d5761198d616c06565b60009182526020808320909101548354600181018555938352912090910180547fffffffffffffffffffffffff00000000000000000000000000000000000000001673ffffffffffffffffffffffffffffffffffffffff9092169190911790555b600101611920565b50611a03600360006162ed565b50611a0e6001600055565b50565b60607f000000000000000000000000000000000000000000000000000000000000000073ffffffffffffffffffffffffffffffffffffffff16633ec045a66040518163ffffffff1660e01b8152600401602060405180830381865afa158015611a7e573d6000803e3d6000fd5b505050506040513d601f19601f82011682018060405250810190611aa29190616c77565b73ffffffffffffffffffffffffffffffffffffffff163373ffffffffffffffffffffffffffffffffffffffff1614611b36576040517f08c379a000000000000000000000000000000000000000000000000000000000815260206004820152600c60248201527f6f6e6c792061756469746f7200000000000000000000000000000000000000006044820152606401610a5f565b81600103611bad576002805480602002602001604051908101604052809291908181526020018280548015611ba157602002820191906000526020600020905b815473ffffffffffffffffffffffffffffffffffffffff168152600190910190602001808311611b76575b50505050509050919050565b81600203611c1e576003805480602002602001604051908101604052809291908181526020018280548015611ba15760200282019190600052602060002090815473ffffffffffffffffffffffffffffffffffffffff168152600190910190602001808311611b7657505050505090505b919050565b6000611c2d613f2b565b6000838152600460205260409020600c81015473ffffffffffffffffffffffffffffffffffffffff163314611cbe576040517f08c379a000000000000000000000000000000000000000000000000000000000815260206004820152600660248201527f634f2c20453100000000000000000000000000000000000000000000000000006044820152606401610a5f565b60038101546103e88110611d2e576040517f08c379a000000000000000000000000000000000000000000000000000000000815260206004820152600660248201527f634f2c20453200000000000000000000000000000000000000000000000000006044820152606401610a5f565b60005b81811015611df3573373ffffffffffffffffffffffffffffffffffffffff16836003018281548110611d6557611d65616c06565b60009182526020909120015473ffffffffffffffffffffffffffffffffffffffff1603611deb5784836003018281548110611da257611da2616c06565b9060005260206000200160006101000a81548173ffffffffffffffffffffffffffffffffffffffff021916908373ffffffffffffffffffffffffffffffffffffffff1602179055505b600101611d31565b50600c820180547fffffffffffffffffffffffff00000000000000000000000000000000000000001673ffffffffffffffffffffffffffffffffffffffff86161790556000600c83015474010000000000000000000000000000000000000000900460ff166005811115611e6957611e69616733565b03611ebe57336000908152600560208181526040808420600180865290835281852073ffffffffffffffffffffffffffffffffffffffff8a168652938352818520908552909152909120611ebe91908761448e565b6001600c83015474010000000000000000000000000000000000000000900460ff166005811115611ef157611ef1616733565b03611f4657336000908152600560208181526040808420600280865290835281852073ffffffffffffffffffffffffffffffffffffffff8a168652938352818520908552909152909120611f4691908761448e565b6003600c83015474010000000000000000000000000000000000000000900460ff166005811115611f7957611f79616733565b1480611fb557506002600c83015474010000000000000000000000000000000000000000900460ff166005811115611fb357611fb3616733565b145b1561210e57336000908152600560208181526040808420600380865290835281852073ffffffffffffffffffffffffffffffffffffffff8a16865293835281852090855290915290912061200a91908761448e565b336000908152600560208181526040808420600480865290835281852073ffffffffffffffffffffffffffffffffffffffff8a16865293835281852090855290915290912061205a91908761448e565b33600090815260096020908152604080832088845290915290205460ff16156120f357336000908152600960208181526040808420898552825280842080547fffffffffffffffffffffffffffffffffffffffffffffffffffffffffffffff0090811690915573ffffffffffffffffffffffffffffffffffffffff89168552928252808420898552909152909120805490911660011790555b60006120fe60105490565b905061210c868233886145d2565b505b60405173ffffffffffffffffffffffffffffffffffffffff851690339087907f88c78aa1cc72f300d9b51753db7d646d17d215fe9c5a6eff81cadddd12cca8f490600090a46001925050506111da6001600055565b60046020526000908152604090208054819061217e90616d19565b80601f01602080910402602001604051908101604052809291908181526020018280546121aa90616d19565b80156121f75780601f106121cc576101008083540402835291602001916121f7565b820191906000526020600020905b8154815290600101906020018083116121da57829003601f168201915b50505050509080600101805461220c90616d19565b80601f016020809104026020016040519081016040528092919081815260200182805461223890616d19565b80156122855780601f1061225a57610100808354040283529160200191612285565b820191906000526020600020905b81548152906001019060200180831161226857829003601f168201915b505050600484015460058501546006860154600787015460088801546009890154600a8a0154600b8b0154600c909b0154999a96999598509396509194909391929173ffffffffffffffffffffffffffffffffffffffff81169060ff74010000000000000000000000000000000000000000909104168c565b600081815260066020908152604091829020805483518184028101840190945280845260609392830182828015611ba157602002820191906000526020600020905b8154815260200190600101908083116123405750505050509050919050565b612367613f2b565b336000908152600560209081526040808320600484528252808320805482518185028101850190935280835291929091908301828280156123c757602002820191906000526020600020905b8154815260200190600101908083116123b3575b5050505050905080516000141580156123e257506103e88151105b612448576040517f08c379a000000000000000000000000000000000000000000000000000000000815260206004820152601160248201527f6341523a207a65726f2066696c6d4964730000000000000000000000000000006044820152606401610a5f565b61245181614692565b506113236001600055565b6000828410156124d3576000612473856001616d06565b90505b8381116124d1576000818152600760209081526040808320898452825280832073ffffffffffffffffffffffffffffffffffffffff871684529091529020546124bf9083616d06565b91506124ca81616d6c565b9050612476565b505b949350505050565b60003373ffffffffffffffffffffffffffffffffffffffff7f0000000000000000000000000000000000000000000000000000000000000000161461257c576040517f08c379a000000000000000000000000000000000000000000000000000000000815260206004820152601060248201527f6f6e6c79207374616b696e67506f6f6c000000000000000000000000000000006044820152606401610a5f565b612584613f2b565b60007f000000000000000000000000000000000000000000000000000000000000000073ffffffffffffffffffffffffffffffffffffffff1663e2f6f5116040518163ffffffff1660e01b8152600401602060405180830381865afa1580156125f1573d6000803e3d6000fd5b505050506040513d601f19601f820116820180604052508101906126159190616c77565b6040517f70a0823100000000000000000000000000000000000000000000000000000000815230600482015290915060009073ffffffffffffffffffffffffffffffffffffffff8316906370a0823190602401602060405180830381865afa158015612685573d6000803e3d6000fd5b505050506040513d601f19601f820116820180604052508101906126a99190616bed565b905080156126cf576126bc828583614a90565b6000600c8190556126cf906002906162ed565b915050611c1e6001600055565b6126e4613f2b565b7f000000000000000000000000000000000000000000000000000000000000000073ffffffffffffffffffffffffffffffffffffffff1663e2f6f5116040518163ffffffff1660e01b8152600401602060405180830381865afa15801561274f573d6000803e3d6000fd5b505050506040513d601f19601f820116820180604052508101906127739190616c77565b73ffffffffffffffffffffffffffffffffffffffff168173ffffffffffffffffffffffffffffffffffffffff1603612807576040517f08c379a000000000000000000000000000000000000000000000000000000000815260206004820152601360248201527f70463a206e6f7420616c6c6f77656420564142000000000000000000000000006044820152606401610a5f565b73ffffffffffffffffffffffffffffffffffffffff811615612939576040517fbdbef07d00000000000000000000000000000000000000000000000000000000815273ffffffffffffffffffffffffffffffffffffffff82811660048301527f0000000000000000000000000000000000000000000000000000000000000000169063bdbef07d90602401602060405180830381865afa1580156128af573d6000803e3d6000fd5b505050506040513d601f19601f820116820180604052508101906128d39190616da4565b612939576040517f08c379a000000000000000000000000000000000000000000000000000000000815260206004820152601560248201527f70463a206e6f7420616c6c6f77656420617373657400000000000000000000006044820152606401610a5f565b826000036129a95781156129a9576040517f08c379a000000000000000000000000000000000000000000000000000000000815260206004820152600d60248201527f70463a207061737320766f7465000000000000000000000000000000000000006044820152606401610a5f565b6129b38183614c9d565b6129c1600e80546001019055565b60006129cc600e5490565b60008181526004602090815260408083206006810189905560088101889055600c810180547fffffffffffffffffffffff00000000000000000000000000000000000000000016337fffffffffffffffffffffff00ffffffffffffffffffffffffffffffffffffffff8116919091179091557fcc69885fda6bcc1a4ace058b4a62bf5e179ea78fd58a1ccd71c22cc9b688792f805460018181019092557f66b32740ad8041bcc3b909c72d7e1afe60094ec55e3cde329b4b3a28501d826c018790558186526005855283862081875285528386208054918201815586529484902090940185905581518881529283018990528282019390935251929350909183917f5f3445f8fa7c6860acf0186bfc4aff4c47cf46055dac20b4726be5dcc3ad0db4919081900360600190a250506116c66001600055565b612b0c613f2b565b6000859003612b77576040517f08c379a000000000000000000000000000000000000000000000000000000000815260206004820152600660248201527f70553a20653100000000000000000000000000000000000000000000000000006044820152606401610a5f565b848714612be0576040517f08c379a000000000000000000000000000000000000000000000000000000000815260206004820152600660248201527f70553a20653200000000000000000000000000000000000000000000000000006044820152606401610a5f565b8951600003612c4b576040517f08c379a000000000000000000000000000000000000000000000000000000000815260206004820152600660248201527f70553a20653300000000000000000000000000000000000000000000000000006044820152606401610a5f565b60008b8152600460205260409020600681015415612e385783600003612ccd576040517f08c379a000000000000000000000000000000000000000000000000000000000815260206004820152600660248201527f70553a20653400000000000000000000000000000000000000000000000000006044820152606401610a5f565b7f000000000000000000000000000000000000000000000000000000000000000073ffffffffffffffffffffffffffffffffffffffff1663645006ca6040518163ffffffff1660e01b8152600401602060405180830381865afa158015612d38573d6000803e3d6000fd5b505050506040513d601f19601f82011682018060405250810190612d5c9190616bed565b8511612dc4576040517f08c379a000000000000000000000000000000000000000000000000000000000815260206004820152600660248201527f70553a20653500000000000000000000000000000000000000000000000000006044820152606401610a5f565b6402540be400831115612e33576040517f08c379a000000000000000000000000000000000000000000000000000000000815260206004820152600660248201527f70553a20653600000000000000000000000000000000000000000000000000006044820152606401610a5f565b612ea0565b8215612ea0576040517f08c379a000000000000000000000000000000000000000000000000000000000815260206004820152600660248201527f70553a20653700000000000000000000000000000000000000000000000000006044820152606401610a5f565b60006001879003612ecc5789896000818110612ebe57612ebe616c06565b905060200201359050612f07565b60005b87811015612f05578a8a82818110612ee957612ee9616c06565b9050602002013582612efb9190616d06565b9150600101612ecf565b505b806402540be40014612f75576040517f08c379a000000000000000000000000000000000000000000000000000000000815260206004820152600660248201527f70553a20653800000000000000000000000000000000000000000000000000006044820152606401610a5f565b6000600c83015474010000000000000000000000000000000000000000900460ff166005811115612fa857612fa8616733565b1461300f576040517f08c379a000000000000000000000000000000000000000000000000000000000815260206004820152600660248201527f70553a204e4c00000000000000000000000000000000000000000000000000006044820152606401610a5f565b600c82015473ffffffffffffffffffffffffffffffffffffffff163314613092576040517f08c379a000000000000000000000000000000000000000000000000000000000815260206004820152600760248201527f70553a204e464f000000000000000000000000000000000000000000000000006044820152606401610a5f565b8161309d8d82616e0e565b50600182016130ac8c82616e0e565b506130bb600283018b8b61630b565b506130ca600383018989616356565b506004820186905560058201859055600782018490556009820183905542600a830155600c820180547fffffffffffffffffffffff00000000000000000000000000000000000000000016337fffffffffffffffffffffff00ffffffffffffffffffffffffffffffffffffffff161774010000000000000000000000000000000000000000179055600f8054600101905560016000600481526020019081526020016000208d9080600181540180825580915050600190039060005260206000200160009091909190915055600560003373ffffffffffffffffffffffffffffffffffffffff1673ffffffffffffffffffffffffffffffffffffffff1681526020019081526020016000206000600281526020019081526020016000208d908060018154018082558091505060019003906000526020600020016000909190919091505560007f000000000000000000000000000000000000000000000000000000000000000073ffffffffffffffffffffffffffffffffffffffff16634037f8aa33427f000000000000000000000000000000000000000000000000000000000000000073ffffffffffffffffffffffffffffffffffffffff166341d4e3516040518163ffffffff1660e01b8152600401602060405180830381865afa1580156132b9573d6000803e3d6000fd5b505050506040513d601f19601f820116820180604052508101906132dd9190616bed565b6040517fffffffff0000000000000000000000000000000000000000000000000000000060e086901b16815273ffffffffffffffffffffffffffffffffffffffff9093166004840152602483019190915260448201526064016020604051808303816000875af1158015613355573d6000803e3d6000fd5b505050506040513d601f19601f820116820180604052508101906133799190616bed565b90507f000000000000000000000000000000000000000000000000000000000000000073ffffffffffffffffffffffffffffffffffffffff16630e6e62728f836040518363ffffffff1660e01b81526004016133df929190918252602082015260400190565b600060405180830381600087803b1580156133f957600080fd5b505af115801561340d573d6000803e3d6000fd5b505050508260060154600014613589576040517fbf4667540000000000000000000000000000000000000000000000000000000081524260048201527f000000000000000000000000000000000000000000000000000000000000000073ffffffffffffffffffffffffffffffffffffffff169063bf46675490602401600060405180830381600087803b1580156134a457600080fd5b505af11580156134b8573d6000803e3d6000fd5b50505050826008015460010361358957600c830180547fffffffffffffffffffffff00ffffffffffffffffffffffffffffffffffffffff167403000000000000000000000000000000000000000017905542600b8401557f7dfe757ecd65cbd7922a9c0161e935dd7fdbcc0e999689c7d31633896b1fc60b805460018181019092557f73661f06600408586227726a59a462d4c7b87e9a7813effa8f25d467d8ff051c018f905533600090815260056020908152604080832060038452825282208054938401815582529020018e90555b6006830154604080519182523360208301528f917f267902c60ee3b0597c9360a09d016e07d4ca5a8e62c02f95d0f842a55e4bcea7910160405180910390a25050506135d56001600055565b5050505050505050505050565b60008181526004602052604081206009015460010361360357506001919050565b506000919050565b613613613f2b565b80511580159061362557506103e88151105b61368b576040517f08c379a000000000000000000000000000000000000000000000000000000000815260206004820152600f60248201527f63523a206261642066696c6d49647300000000000000000000000000000000006044820152606401610a5f565b61369481614692565b611a0e6001600055565b7f000000000000000000000000000000000000000000000000000000000000000073ffffffffffffffffffffffffffffffffffffffff16633ec045a66040518163ffffffff1660e01b8152600401602060405180830381865afa158015613709573d6000803e3d6000fd5b505050506040513d601f19601f8201168201806040525081019061372d9190616c77565b73ffffffffffffffffffffffffffffffffffffffff163373ffffffffffffffffffffffffffffffffffffffff16146137c1576040517f08c379a000000000000000000000000000000000000000000000000000000000815260206004820152600c60248201527f6f6e6c792061756469746f7200000000000000000000000000000000000000006044820152606401610a5f565b6137c9613f2b565b8382811480156137da57506103e881105b613840576040517f08c379a000000000000000000000000000000000000000000000000000000000815260206004820152600760248201527f6154503a206531000000000000000000000000000000000000000000000000006044820152606401610a5f565b816001148061384f5750816002145b6138b5576040517f08c379a000000000000000000000000000000000000000000000000000000000815260206004820152600760248201527f6154503a206532000000000000000000000000000000000000000000000000006044820152606401610a5f565b816001036139a0576040517faf35a35c00000000000000000000000000000000000000000000000000000000815273ffffffffffffffffffffffffffffffffffffffff7f0000000000000000000000000000000000000000000000000000000000000000169063af35a35c9061395790899089907f0000000000000000000000000000000000000000000000000000000000000000908a908a90600401616f73565b6020604051808303816000875af1158015613976573d6000803e3d6000fd5b505050506040513d601f19601f8201168201806040525081019061399a9190616bed565b50613a74565b6040517faf35a35c00000000000000000000000000000000000000000000000000000000815273ffffffffffffffffffffffffffffffffffffffff7f0000000000000000000000000000000000000000000000000000000000000000169063af35a35c90613a1a908990899030908a908a90600401616f73565b6020604051808303816000875af1158015613a39573d6000803e3d6000fd5b505050506040513d601f19601f82011682018060405250810190613a5d9190616bed565b600c6000828254613a6e9190616d06565b90915550505b60005b81811015613d475782600103613be557600b6000888884818110613a9d57613a9d616c06565b9050602002016020810190613ab29190616876565b73ffffffffffffffffffffffffffffffffffffffff16815260208101919091526040016000205460ff16613d3f576001600b6000898985818110613af857613af8616c06565b9050602002016020810190613b0d9190616876565b73ffffffffffffffffffffffffffffffffffffffff168152602081019190915260400160002080547fffffffffffffffffffffffffffffffffffffffffffffffffffffffffffffff00169115159190911790556003878783818110613b7457613b74616c06565b9050602002016020810190613b899190616876565b81546001810183556000928352602090922090910180547fffffffffffffffffffffffff00000000000000000000000000000000000000001673ffffffffffffffffffffffffffffffffffffffff909216919091179055613d3f565b600a6000888884818110613bfb57613bfb616c06565b9050602002016020810190613c109190616876565b73ffffffffffffffffffffffffffffffffffffffff16815260208101919091526040016000205460ff16613d3f576001600a6000898985818110613c5657613c56616c06565b9050602002016020810190613c6b9190616876565b73ffffffffffffffffffffffffffffffffffffffff168152602081019190915260400160002080547fffffffffffffffffffffffffffffffffffffffffffffffffffffffffffffff00169115159190911790556002878783818110613cd257613cd2616c06565b9050602002016020810190613ce79190616876565b81546001810183556000928352602090922090910180547fffffffffffffffffffffffff00000000000000000000000000000000000000001673ffffffffffffffffffffffffffffffffffffffff9092169190911790555b600101613a77565b507fed3b4143a6442bb3426701d06163c5809464172075dc3a5c53413ffdae49dee48686868686604051613d7f959493929190616fc2565b60405180910390a150613d926001600055565b5050505050565b600081815260016020908152604091829020805483518184028101840190945280845260609392830182828015611ba157602002820191906000526020600020908154815260200190600101908083116123405750505050509050919050565b60608060046000848152602001908152602001600020600201805480602002602001604051908101604052809291908181526020018280548015613e5c57602002820191906000526020600020905b815481526020019060010190808311613e48575b5050505050915060046000848152602001908152602001600020600301805480602002602001604051908101604052809291908181526020018280548015613eda57602002820191906000526020600020905b815473ffffffffffffffffffffffffffffffffffffffff168152600190910190602001808311613eaf575b50505050509050915091565b600083815260086020908152604080832073ffffffffffffffffffffffffffffffffffffffff85168452909152812054613f228582868661245c565b95945050505050565b600260005403613f97576040517f08c379a000000000000000000000000000000000000000000000000000000000815260206004820152601f60248201527f5265656e7472616e637947756172643a207265656e7472616e742063616c6c006044820152606401610a5f565b6002600055565b60008281526004602052604080822081516101c08101909252805482908290613fc690616d19565b80601f0160208091040260200160405190810160405280929190818152602001828054613ff290616d19565b801561403f5780601f106140145761010080835404028352916020019161403f565b820191906000526020600020905b81548152906001019060200180831161402257829003601f168201915b5050505050815260200160018201805461405890616d19565b80601f016020809104026020016040519081016040528092919081815260200182805461408490616d19565b80156140d15780601f106140a6576101008083540402835291602001916140d1565b820191906000526020600020905b8154815290600101906020018083116140b457829003601f168201915b505050505081526020016002820180548060200260200160405190810160405280929190818152602001828054801561412957602002820191906000526020600020905b815481526020019060010190808311614115575b505050505081526020016003820180548060200260200160405190810160405280929190818152602001828054801561419857602002820191906000526020600020905b815473ffffffffffffffffffffffffffffffffffffffff16815260019091019060200180831161416d575b50505091835250506004820154602082015260058083015460408301526006830154606083015260078301546080830152600883015460a0830152600983015460c0830152600a83015460e0830152600b830154610100830152600c83015473ffffffffffffffffffffffffffffffffffffffff81166101208401526101409092019174010000000000000000000000000000000000000000900460ff169081111561424657614246616733565b600581111561425757614257616733565b90525090506002816101a00151600581111561427557614275616733565b148061429757506003816101a00151600581111561429557614295616733565b145b6142fd576040517f08c379a000000000000000000000000000000000000000000000000000000000815260206004820152601160248201527f7346463a204e6f7420617070726f7665640000000000000000000000000000006044820152606401610a5f565b600061430860105490565b90506002826101a00151600581111561432357614323616733565b03614338576143338484836155bb565b614468565b6003826101a00151600581111561435157614351616733565b036144685760006402540be4008360e001518561436e9190616ffc565b6143789190617013565b905060006143868286616c64565b6040517f9b6034a9000000000000000000000000000000000000000000000000000000008152600481018890529091507f000000000000000000000000000000000000000000000000000000000000000073ffffffffffffffffffffffffffffffffffffffff1690639b6034a990602401602060405180830381865afa158015614414573d6000803e3d6000fd5b505050506040513d601f19601f820116820180604052508101906144389190616da4565b614443575060009050835b811561445457614454868385615986565b8015614465576144658682856155bb565b50505b600090815260066020908152604082208054600181018255908352912001929092555050565b8254620f424081106144fc576040517f08c379a000000000000000000000000000000000000000000000000000000000815260206004820152601560248201527f6d5441413a20746f6f206d616e79206c656e67746800000000000000000000006044820152606401610a5f565b8060005b82811015614537578386828154811061451b5761451b616c06565b90600052602060002001540361452f578091505b600101614500565b50818110614546575050505050565b835460018181018655600086815260209020909101849055859061456a9084616c64565b8154811061457a5761457a616c06565b906000526020600020015485828154811061459757614597616c06565b9060005260206000200181905550848054806145b5576145b561704e565b600190038181906000526020600020016000905590555050505050565b600084815260086020908152604080832073ffffffffffffffffffffffffffffffffffffffff8681168552925280832054918416835290912081905583811015613d92576000614623826001616d06565b90505b84811161468a576000818152600760209081526040808320898452825280832073ffffffffffffffffffffffffffffffffffffffff8881168086529190935281842080549388168552918420929092559082525561468381616d6c565b9050614626565b505050505050565b8051620186a08110614700576040517f08c379a000000000000000000000000000000000000000000000000000000000815260206004820152600e60248201527f6341523a206261642061727261790000000000000000000000000000000000006044820152606401610a5f565b600061470b60105490565b905060007f000000000000000000000000000000000000000000000000000000000000000073ffffffffffffffffffffffffffffffffffffffff1663e2f6f5116040518163ffffffff1660e01b8152600401602060405180830381865afa15801561477a573d6000803e3d6000fd5b505050506040513d601f19601f8201168201806040525081019061479e9190616c77565b90506000805b8481101561485957600d60008783815181106147c2576147c2616c06565b602002602001015181526020019081526020016000205460000315614851576148058682815181106147f6576147f6616c06565b60200260200101518533613ee6565b61480f9083616d06565b9150836008600088848151811061482857614828616c06565b602090810291909101810151825281810192909252604090810160009081203382529092529020555b6001016147a4565b50806000036148c4576040517f08c379a000000000000000000000000000000000000000000000000000000000815260206004820152601060248201527f6341523a207a65726f20616d6f756e74000000000000000000000000000000006044820152606401610a5f565b80600c541015614930576040517f08c379a000000000000000000000000000000000000000000000000000000000815260206004820152601360248201527f6341523a20696e73756666696369656e742031000000000000000000000000006044820152606401610a5f565b600c546040517f70a0823100000000000000000000000000000000000000000000000000000000815230600482015273ffffffffffffffffffffffffffffffffffffffff8416906370a0823190602401602060405180830381865afa15801561499d573d6000803e3d6000fd5b505050506040513d601f19601f820116820180604052508101906149c19190616bed565b1015614a29576040517f08c379a000000000000000000000000000000000000000000000000000000000815260206004820152601360248201527f6341523a20696e73756666696369656e742032000000000000000000000000006044820152606401610a5f565b614a34823383614a90565b80600c6000828254614a469190616c64565b9091555050604051839033907fa1fcc46b51afb5cc2a7388ab55c9f4fc13a99aabd3664a8e4f1b13ac0b52bd5290614a81908990869061707d565b60405180910390a35050505050565b73ffffffffffffffffffffffffffffffffffffffff83163b614b0e576040517f08c379a000000000000000000000000000000000000000000000000000000000815260206004820152600160248201527f43000000000000000000000000000000000000000000000000000000000000006044820152606401610a5f565b6040805173ffffffffffffffffffffffffffffffffffffffff8481166024830152604480830185905283518084039091018152606490920183526020820180517bffffffffffffffffffffffffffffffffffffffffffffffffffffffff167fa9059cbb000000000000000000000000000000000000000000000000000000001790529151600092839290871691614ba5919061709f565b6000604051808303816000865af19150503d8060008114614be2576040519150601f19603f3d011682016040523d82523d6000602084013e614be7565b606091505b5091509150818015614c11575080511580614c11575080806020019051810190614c119190616da4565b613d92576040517f08c379a000000000000000000000000000000000000000000000000000000000815260206004820152602860248201527f566162626c6544414f3a3a736166655472616e736665723a207472616e73666560448201527f72206661696c65640000000000000000000000000000000000000000000000006064820152608401610a5f565b60007f000000000000000000000000000000000000000000000000000000000000000073ffffffffffffffffffffffffffffffffffffffff166306b25c7b6040518163ffffffff1660e01b8152600401602060405180830381865afa158015614d0a573d6000803e3d6000fd5b505050506040513d601f19601f82011682018060405250810190614d2e9190616bed565b905081600103614dd5577f000000000000000000000000000000000000000000000000000000000000000073ffffffffffffffffffffffffffffffffffffffff166306b25c7b6040518163ffffffff1660e01b8152600401602060405180830381865afa158015614da3573d6000803e3d6000fd5b505050506040513d601f19601f82011682018060405250810190614dc79190616bed565b614dd2906002616ffc565b90505b60008190507f000000000000000000000000000000000000000000000000000000000000000073ffffffffffffffffffffffffffffffffffffffff1663fa5692746040518163ffffffff1660e01b8152600401602060405180830381865afa158015614e45573d6000803e3d6000fd5b505050506040513d601f19601f82011682018060405250810190614e699190616c77565b73ffffffffffffffffffffffffffffffffffffffff168473ffffffffffffffffffffffffffffffffffffffff1614615006577f000000000000000000000000000000000000000000000000000000000000000073ffffffffffffffffffffffffffffffffffffffff1663eeee26ce837f000000000000000000000000000000000000000000000000000000000000000073ffffffffffffffffffffffffffffffffffffffff1663fa5692746040518163ffffffff1660e01b8152600401602060405180830381865afa158015614f43573d6000803e3d6000fd5b505050506040513d601f19601f82011682018060405250810190614f679190616c77565b6040517fffffffff0000000000000000000000000000000000000000000000000000000060e085901b168152600481019290925273ffffffffffffffffffffffffffffffffffffffff908116602483015287166044820152606401602060405180830381865afa158015614fdf573d6000803e3d6000fd5b505050506040513d601f19601f820116820180604052508101906150039190616bed565b90505b73ffffffffffffffffffffffffffffffffffffffff84166150d5578034101561508b576040517f08c379a000000000000000000000000000000000000000000000000000000000815260206004820152601a60248201527f706169644665653a20496e73756666696369656e7420706169640000000000006044820152606401610a5f565b803411156150a6576150a6336150a18334616c64565b615d06565b6150d07f000000000000000000000000000000000000000000000000000000000000000082615d06565b615237565b6150e184333084615e10565b6040517fdd62ed3e00000000000000000000000000000000000000000000000000000000815230600482015273ffffffffffffffffffffffffffffffffffffffff7f00000000000000000000000000000000000000000000000000000000000000008116602483015285169063dd62ed3e90604401602060405180830381865afa158015615173573d6000803e3d6000fd5b505050506040513d601f19601f820116820180604052508101906151979190616bed565b60000361523757615237847f00000000000000000000000000000000000000000000000000000000000000008673ffffffffffffffffffffffffffffffffffffffff166318160ddd6040518163ffffffff1660e01b8152600401602060405180830381865afa15801561520e573d6000803e3d6000fd5b505050506040513d601f19601f820116820180604052508101906152329190616bed565b616025565b60007f000000000000000000000000000000000000000000000000000000000000000073ffffffffffffffffffffffffffffffffffffffff1663e2f6f5116040518163ffffffff1660e01b8152600401602060405180830381865afa1580156152a4573d6000803e3d6000fd5b505050506040513d601f19601f820116820180604052508101906152c89190616c77565b905060008286836040516020016153089392919092835273ffffffffffffffffffffffffffffffffffffffff918216602084015216604082015260600190565b604080517fffffffffffffffffffffffffffffffffffffffffffffffffffffffffffffffe0818403018152908290527fab4e9ba6000000000000000000000000000000000000000000000000000000008252915060009073ffffffffffffffffffffffffffffffffffffffff7f0000000000000000000000000000000000000000000000000000000000000000169063ab4e9ba6906153ab9085906004016170bb565b6020604051808303816000875af11580156153ca573d6000803e3d6000fd5b505050506040513d601f19601f820116820180604052508101906153ee9190616bed565b6040517fdd62ed3e00000000000000000000000000000000000000000000000000000000815230600482015273ffffffffffffffffffffffffffffffffffffffff7f0000000000000000000000000000000000000000000000000000000000000000811660248301529192509084169063dd62ed3e90604401602060405180830381865afa158015615484573d6000803e3d6000fd5b505050506040513d601f19601f820116820180604052508101906154a89190616bed565b60000361551f5761551f837f00000000000000000000000000000000000000000000000000000000000000008573ffffffffffffffffffffffffffffffffffffffff166318160ddd6040518163ffffffff1660e01b8152600401602060405180830381865afa15801561520e573d6000803e3d6000fd5b6040517f3a53ed49000000000000000000000000000000000000000000000000000000008152600481018290527f000000000000000000000000000000000000000000000000000000000000000073ffffffffffffffffffffffffffffffffffffffff1690633a53ed4990602401600060405180830381600087803b1580156155a757600080fd5b505af11580156135d5573d6000803e3d6000fd5b60008381526004602052604080822081516101c081019092528054829082906155e390616d19565b80601f016020809104026020016040519081016040528092919081815260200182805461560f90616d19565b801561565c5780601f106156315761010080835404028352916020019161565c565b820191906000526020600020905b81548152906001019060200180831161563f57829003601f168201915b5050505050815260200160018201805461567590616d19565b80601f01602080910402602001604051908101604052809291908181526020018280546156a190616d19565b80156156ee5780601f106156c3576101008083540402835291602001916156ee565b820191906000526020600020905b8154815290600101906020018083116156d157829003601f168201915b505050505081526020016002820180548060200260200160405190810160405280929190818152602001828054801561574657602002820191906000526020600020905b815481526020019060010190808311615732575b50505050508152602001600382018054806020026020016040519081016040528092919081815260200182805480156157b557602002820191906000526020600020905b815473ffffffffffffffffffffffffffffffffffffffff16815260019091019060200180831161578a575b50505091835250506004820154602082015260058083015460408301526006830154606083015260078301546080830152600883015460a0830152600983015460c0830152600a83015460e0830152600b830154610100830152600c83015473ffffffffffffffffffffffffffffffffffffffff81166101208401526101409092019174010000000000000000000000000000000000000000900460ff169081111561586357615863616733565b600581111561587457615874616733565b90525060608101515190915060005b8181101561468a5760006402540be400846040015183815181106158a9576158a9616c06565b6020026020010151876158bc9190616ffc565b6158c69190617013565b60008681526007602090815260408083208b84529091528120606087015180519394508493919291869081106158fe576158fe616c06565b602002602001015173ffffffffffffffffffffffffffffffffffffffff1673ffffffffffffffffffffffffffffffffffffffff168152602001908152602001600020600082825461594f9190616d06565b9250508190555061597d8460600151838151811061596f5761596f616c06565b602002602001015188616232565b50600101615883565b6040517f93b1138b000000000000000000000000000000000000000000000000000000008152600481018490526000907f000000000000000000000000000000000000000000000000000000000000000073ffffffffffffffffffffffffffffffffffffffff16906393b1138b90602401602060405180830381865afa158015615a14573d6000803e3d6000fd5b505050506040513d601f19601f82011682018060405250810190615a389190616bed565b90508015610f29576040517fe948159c000000000000000000000000000000000000000000000000000000008152600481018590526000907f000000000000000000000000000000000000000000000000000000000000000073ffffffffffffffffffffffffffffffffffffffff169063e948159c90602401600060405180830381865afa158015615ace573d6000803e3d6000fd5b505050506040513d6000823e601f3d9081017fffffffffffffffffffffffffffffffffffffffffffffffffffffffffffffffe0168201604052615b1491908101906170ce565b905060005b815181101561468a5760007f000000000000000000000000000000000000000000000000000000000000000073ffffffffffffffffffffffffffffffffffffffff1663e4ed62ff848481518110615b7257615b72616c06565b6020026020010151896040518363ffffffff1660e01b8152600401615bb992919073ffffffffffffffffffffffffffffffffffffffff929092168252602082015260400190565b602060405180830381865afa158015615bd6573d6000803e3d6000fd5b505050506040513d601f19601f82011682018060405250810190615bfa9190616bed565b905080600003615c0a5750615cfe565b600084615c1c836402540be400616ffc565b615c269190617013565b905060006402540be400615c3a838a616ffc565b615c449190617013565b9050806007600089815260200190815260200160002060008b81526020019081526020016000206000878781518110615c7f57615c7f616c06565b602002602001015173ffffffffffffffffffffffffffffffffffffffff1673ffffffffffffffffffffffffffffffffffffffff1681526020019081526020016000206000828254615cd09190616d06565b92505081905550615cfa858581518110615cec57615cec616c06565b60200260200101518a616232565b5050505b600101615b19565b6040805160008082526020820190925273ffffffffffffffffffffffffffffffffffffffff8416908390604051615d3d919061709f565b60006040518083038185875af1925050503d8060008114615d7a576040519150601f19603f3d011682016040523d82523d6000602084013e615d7f565b606091505b50509050806116c6576040517f08c379a000000000000000000000000000000000000000000000000000000000815260206004820152602f60248201527f566162626c6544414f3a3a736166655472616e736665724554483a204554482060448201527f7472616e73666572206661696c656400000000000000000000000000000000006064820152608401610a5f565b73ffffffffffffffffffffffffffffffffffffffff84163b615e8e576040517f08c379a000000000000000000000000000000000000000000000000000000000815260206004820152600160248201527f43000000000000000000000000000000000000000000000000000000000000006044820152606401610a5f565b6040805173ffffffffffffffffffffffffffffffffffffffff85811660248301528481166044830152606480830185905283518084039091018152608490920183526020820180517bffffffffffffffffffffffffffffffffffffffffffffffffffffffff167f23b872dd000000000000000000000000000000000000000000000000000000001790529151600092839290881691615f2d919061709f565b6000604051808303816000865af19150503d8060008114615f6a576040519150601f19603f3d011682016040523d82523d6000602084013e615f6f565b606091505b5091509150818015615f99575080511580615f99575080806020019051810190615f999190616da4565b61468a576040517f08c379a000000000000000000000000000000000000000000000000000000000815260206004820152602c60248201527f566162626c6544414f3a3a7472616e7366657246726f6d3a207472616e73666560448201527f7246726f6d206661696c656400000000000000000000000000000000000000006064820152608401610a5f565b73ffffffffffffffffffffffffffffffffffffffff83163b6160a3576040517f08c379a000000000000000000000000000000000000000000000000000000000815260206004820152600160248201527f43000000000000000000000000000000000000000000000000000000000000006044820152606401610a5f565b6040805173ffffffffffffffffffffffffffffffffffffffff8481166024830152604480830185905283518084039091018152606490920183526020820180517bffffffffffffffffffffffffffffffffffffffffffffffffffffffff167f095ea7b300000000000000000000000000000000000000000000000000000000179052915160009283929087169161613a919061709f565b6000604051808303816000865af19150503d8060008114616177576040519150601f19603f3d011682016040523d82523d6000602084013e61617c565b606091505b50915091508180156161a65750805115806161a65750808060200190518101906161a69190616da4565b613d92576040517f08c379a000000000000000000000000000000000000000000000000000000000815260206004820152602b60248201527f5472616e7366657248656c7065723a3a73616665417070726f76653a2061707060448201527f726f7665206661696c65640000000000000000000000000000000000000000006064820152608401610a5f565b73ffffffffffffffffffffffffffffffffffffffff8216600090815260096020908152604080832084845290915290205460ff1661109b5773ffffffffffffffffffffffffffffffffffffffff821660008181526005602090815260408083206004845282528083208054600181810183559185528385200186905593835260098252808320858452909152902080547fffffffffffffffffffffffffffffffffffffffffffffffffffffffffffffff001690911790555050565b5080546000825590600052602060002090810190611a0e91906163ce565b828054828255906000526020600020908101928215616346579160200282015b8281111561634657823582559160200191906001019061632b565b506163529291506163ce565b5090565b828054828255906000526020600020908101928215616346579160200282015b828111156163465781547fffffffffffffffffffffffff00000000000000000000000000000000000000001673ffffffffffffffffffffffffffffffffffffffff843516178255602090920191600190910190616376565b5b8082111561635257600081556001016163cf565b600080604083850312156163f657600080fd5b50508035926020909101359150565b60006020828403121561641757600080fd5b5035919050565b60008083601f84011261643057600080fd5b50813567ffffffffffffffff81111561644857600080fd5b6020830191508360208260051b850101111561646357600080fd5b9250929050565b6000806020838503121561647d57600080fd5b823567ffffffffffffffff81111561649457600080fd5b6164a08582860161641e565b90969095509350505050565b6020808252825182820181905260009190848201906040850190845b818110156164e65783511515835292840192918401916001016164c8565b50909695505050505050565b6000806000806040858703121561650857600080fd5b843567ffffffffffffffff8082111561652057600080fd5b61652c8883890161641e565b9096509450602087013591508082111561654557600080fd5b506165528782880161641e565b95989497509550505050565b73ffffffffffffffffffffffffffffffffffffffff81168114611a0e57600080fd5b6000806040838503121561659357600080fd5b8235915060208301356165a58161655e565b809150509250929050565b600080604083850312156165c357600080fd5b82356165ce8161655e565b946020939093013593505050565b60008151808452602080850194506020840160005b8381101561660d578151875295820195908201906001016165f1565b509495945050505050565b60208152600061662b60208301846165dc565b9392505050565b60008151808452602080850194506020840160005b8381101561660d57815173ffffffffffffffffffffffffffffffffffffffff1687529582019590820190600101616647565b60208152600061662b6020830184616632565b6000806000606084860312156166a157600080fd5b833592506020840135915060408401356166ba8161655e565b809150509250925092565b60005b838110156166e05781810151838201526020016166c8565b50506000910152565b600081518084526167018160208601602086016166c5565b601f017fffffffffffffffffffffffffffffffffffffffffffffffffffffffffffffffe0169290920160200192915050565b7f4e487b7100000000000000000000000000000000000000000000000000000000600052602160045260246000fd5b60068110616799577f4e487b7100000000000000000000000000000000000000000000000000000000600052602160045260246000fd5b9052565b610180815260006167b261018083018f6166e9565b82810360208401526167c4818f6166e9565b9150508b60408301528a60608301528960808301528860a08301528760c08301528660e0830152856101008301528461012083015273ffffffffffffffffffffffffffffffffffffffff8416610140830152616824610160830184616762565b9d9c50505050505050505050505050565b6000806000806080858703121561684b57600080fd5b843593506020850135925060408501359150606085013561686b8161655e565b939692955090935050565b60006020828403121561688857600080fd5b813561662b8161655e565b7f4e487b7100000000000000000000000000000000000000000000000000000000600052604160045260246000fd5b604051601f82017fffffffffffffffffffffffffffffffffffffffffffffffffffffffffffffffe016810167ffffffffffffffff8111828210171561690957616909616893565b604052919050565b600082601f83011261692257600080fd5b813567ffffffffffffffff81111561693c5761693c616893565b61696d60207fffffffffffffffffffffffffffffffffffffffffffffffffffffffffffffffe0601f840116016168c2565b81815284602083860101111561698257600080fd5b816020850160208301376000918101602001919091529392505050565b60008060008060008060008060008060006101208c8e0312156169c157600080fd5b8b359a5067ffffffffffffffff8060208e013511156169df57600080fd5b6169ef8e60208f01358f01616911565b9a508060408e01351115616a0257600080fd5b616a128e60408f01358f01616911565b99508060608e01351115616a2557600080fd5b616a358e60608f01358f0161641e565b909950975060808d0135811015616a4b57600080fd5b50616a5c8d60808e01358e0161641e565b9b9e9a9d50989b979a9699969760a08101359760c0820135975060e0820135965061010090910135945092505050565b600067ffffffffffffffff821115616aa657616aa6616893565b5060051b60200190565b60006020808385031215616ac357600080fd5b823567ffffffffffffffff811115616ada57600080fd5b8301601f81018513616aeb57600080fd5b8035616afe616af982616a8c565b6168c2565b81815260059190911b82018301908381019087831115616b1d57600080fd5b928401925b82841015616b3b57833582529284019290840190616b22565b979650505050505050565b600080600080600060608688031215616b5e57600080fd5b853567ffffffffffffffff80821115616b7657600080fd5b616b8289838a0161641e565b90975095506020880135915080821115616b9b57600080fd5b50616ba88882890161641e565b96999598509660400135949350505050565b602081016111da8284616762565b604081526000616bdb60408301856165dc565b8281036020840152613f228185616632565b600060208284031215616bff57600080fd5b5051919050565b7f4e487b7100000000000000000000000000000000000000000000000000000000600052603260045260246000fd5b7f4e487b7100000000000000000000000000000000000000000000000000000000600052601160045260246000fd5b818103818111156111da576111da616c35565b600060208284031215616c8957600080fd5b815161662b8161655e565b81835260007f07ffffffffffffffffffffffffffffffffffffffffffffffffffffffffffffff831115616cc657600080fd5b8260051b80836020870137939093016020019392505050565b604081526000616cf3604083018688616c94565b8281036020840152616b3b818587616c94565b808201808211156111da576111da616c35565b600181811c90821680616d2d57607f821691505b602082108103616d66577f4e487b7100000000000000000000000000000000000000000000000000000000600052602260045260246000fd5b50919050565b60007fffffffffffffffffffffffffffffffffffffffffffffffffffffffffffffffff8203616d9d57616d9d616c35565b5060010190565b600060208284031215616db657600080fd5b8151801515811461662b57600080fd5b601f8211156116c6576000816000526020600020601f850160051c81016020861015616def5750805b601f850160051c820191505b8181101561468a57828155600101616dfb565b815167ffffffffffffffff811115616e2857616e28616893565b616e3c81616e368454616d19565b84616dc6565b602080601f831160018114616e8f5760008415616e595750858301515b7fffffffffffffffffffffffffffffffffffffffffffffffffffffffffffffffff600386901b1c1916600185901b17855561468a565b6000858152602081207fffffffffffffffffffffffffffffffffffffffffffffffffffffffffffffffe08616915b82811015616edc57888601518255948401946001909101908401616ebd565b5085821015616f1857878501517fffffffffffffffffffffffffffffffffffffffffffffffffffffffffffffffff600388901b60f8161c191681555b5050505050600190811b01905550565b8183526000602080850194508260005b8581101561660d578135616f4b8161655e565b73ffffffffffffffffffffffffffffffffffffffff1687529582019590820190600101616f38565b606081526000616f87606083018789616f28565b73ffffffffffffffffffffffffffffffffffffffff861660208401528281036040840152616fb6818587616c94565b98975050505050505050565b606081526000616fd6606083018789616f28565b8281036020840152616fe9818688616c94565b9150508260408301529695505050505050565b80820281158282048414176111da576111da616c35565b600082617049577f4e487b7100000000000000000000000000000000000000000000000000000000600052601260045260246000fd5b500490565b7f4e487b7100000000000000000000000000000000000000000000000000000000600052603160045260246000fd5b60408152600061709060408301856165dc565b90508260208301529392505050565b600082516170b18184602087016166c5565b9190910192915050565b60208152600061662b60208301846166e9565b600060208083850312156170e157600080fd5b825167ffffffffffffffff8111156170f857600080fd5b8301601f8101851361710957600080fd5b8051617117616af982616a8c565b81815260059190911b8201830190838101908783111561713657600080fd5b928401925b82841015616b3b57835161714e8161655e565b8252928401929084019061713b56fea26469706673582212201b06c36f13bc4acc19297e58e3f4e19a4b1e50dcc334027097e72a8d968b36e064736f6c63430008180033","linkReferences":{}},"methodIdentifiers":{"DAO_PROPERTY()":"0305c007","OWNABLE()":"1c017d55","STAKING_POOL()":"14ae36ae","StudioPool()":"63c7b9a4","UNI_HELPER()":"c631106a","VABBLE_FUND()":"4ed9e0dd","VOTE()":"aa449396","allocateFromEdgePool(uint256)":"4122caec","allocateToPool(address[],uint256[],uint256)":"d50363b2","approveFilmByVote(uint256,uint256)":"3f066917","changeOwner(uint256,address)":"784796f7","checkSetFinalFilms(uint256[])":"1e123e20","claimAllReward()":"8a623d86","claimReward(uint256[])":"c94c7ff4","filmCount()":"224b5612","filmInfo(uint256)":"87589a03","finalFilmCalledTime(uint256)":"1b6527fd","finalizedAmount(uint256,uint256,address)":"58f3b252","getAllAvailableRewards(uint256,address)":"2596ca82","getFilmFund(uint256)":"2c6cab34","getFilmIds(uint256)":"d8a598e0","getFilmOwner(uint256)":"cb3a6063","getFilmProposalTime(uint256)":"7bcd52b0","getFilmShare(uint256)":"edce84b1","getFilmStatus(uint256)":"d5443afd","getFinalizedFilmIds(uint256)":"87953527","getPoolUsers(uint256)":"5237f731","getUserFilmIds(address,uint256)":"2e5dc17e","getUserRewardAmountBetweenMonths(uint256,uint256,uint256,address)":"a3a73a14","getUserRewardAmountForUser(uint256,uint256,address)":"ff404953","isEnabledClaimer(uint256)":"c330686c","latestClaimMonthId(uint256,address)":"c6885081","monthId()":"b7803431","proposalFilmCreate(uint256,uint256,address)":"bab52969","proposalFilmUpdate(uint256,string,string,uint256[],address[],uint256,uint256,uint256,uint256)":"c194a605","setFinalFilms(uint256[],uint256[])":"20f8bd37","startNewMonth()":"2acfdee5","updateEnabledClaimer(uint256,uint256)":"17193542","updateFilmFundPeriod(uint256,uint256)":"2489b5d3","updatedFilmCount()":"fbe4debb","withdrawVABFromStudioPool(address)":"a7a9dbce"},"id":9}