{"abi":[{"type":"constructor","inputs":[{"name":"_vabbleWallet","type":"address","internalType":"address"},{"name":"_payoutToken","type":"address","internalType":"address"},{"name":"_usdcToken","type":"address","internalType":"address"},{"name":"_multiSigWallet","type":"address","internalType":"address"}],"stateMutability":"nonpayable"},{"type":"function","name":"PAYOUT_TOKEN","inputs":[],"outputs":[{"name":"","type":"address","internalType":"address"}],"stateMutability":"view"},{"type":"function","name":"USDC_TOKEN","inputs":[],"outputs":[{"name":"","type":"address","internalType":"address"}],"stateMutability":"view"},{"type":"function","name":"VAB_WALLET","inputs":[],"outputs":[{"name":"","type":"address","internalType":"address"}],"stateMutability":"view"},{"type":"function","name":"addDepositAsset","inputs":[{"name":"_assetList","type":"address[]","internalType":"address[]"}],"outputs":[],"stateMutability":"nonpayable"},{"type":"function","name":"addToStudioPool","inputs":[{"name":"_amount","type":"uint256","internalType":"uint256"}],"outputs":[],"stateMutability":"nonpayable"},{"type":"function","name":"auditor","inputs":[],"outputs":[{"name":"","type":"address","internalType":"address"}],"stateMutability":"view"},{"type":"function","name":"deployer","inputs":[],"outputs":[{"name":"","type":"address","internalType":"address"}],"stateMutability":"view"},{"type":"function","name":"depositVABToEdgePool","inputs":[{"name":"_amount","type":"uint256","internalType":"uint256"}],"outputs":[],"stateMutability":"nonpayable"},{"type":"function","name":"getDepositAssetList","inputs":[],"outputs":[{"name":"","type":"address[]","internalType":"address[]"}],"stateMutability":"view"},{"type":"function","name":"getStakingPoolAddress","inputs":[],"outputs":[{"name":"","type":"address","internalType":"address"}],"stateMutability":"view"},{"type":"function","name":"getVabbleDAO","inputs":[],"outputs":[{"name":"dao_","type":"address","internalType":"address"}],"stateMutability":"view"},{"type":"function","name":"getVoteAddress","inputs":[],"outputs":[{"name":"","type":"address","internalType":"address"}],"stateMutability":"view"},{"type":"function","name":"isDepositAsset","inputs":[{"name":"_asset","type":"address","internalType":"address"}],"outputs":[{"name":"","type":"bool","internalType":"bool"}],"stateMutability":"view"},{"type":"function","name":"removeDepositAsset","inputs":[{"name":"_assetList","type":"address[]","internalType":"address[]"}],"outputs":[],"stateMutability":"nonpayable"},{"type":"function","name":"replaceAuditor","inputs":[{"name":"_newAuditor","type":"address","internalType":"address"}],"outputs":[],"stateMutability":"nonpayable"},{"type":"function","name":"setup","inputs":[{"name":"_vote","type":"address","internalType":"address"},{"name":"_dao","type":"address","internalType":"address"},{"name":"_stakingPool","type":"address","internalType":"address"}],"outputs":[],"stateMutability":"nonpayable"},{"type":"function","name":"transferAuditor","inputs":[{"name":"_newAuditor","type":"address","internalType":"address"}],"outputs":[],"stateMutability":"nonpayable"},{"type":"function","name":"withdrawVABFromEdgePool","inputs":[{"name":"_to","type":"address","internalType":"address"}],"outputs":[{"name":"","type":"uint256","internalType":"uint256"}],"stateMutability":"nonpayable"},{"type":"event","name":"VABWalletChanged","inputs":[{"name":"wallet","type":"address","indexed":true,"internalType":"address"}],"anonymous":false}],"bytecode":{"object":"0x60e06040523480156200001157600080fd5b5060405162001ec038038062001ec083398101604081905262000034916200025f565b336080526001600160a01b038116620000945760405162461bcd60e51b815260206004820152601c60248201527f6d756c746953696757616c6c65743a205a65726f20616464726573730000000060448201526064015b60405180910390fd5b600080546001600160a01b0319166001600160a01b03838116919091179091558416620001045760405162461bcd60e51b815260206004820152601a60248201527f766162626c6557616c6c65743a205a65726f206164647265737300000000000060448201526064016200008b565b600180546001600160a01b0319166001600160a01b03868116919091179091558316620001745760405162461bcd60e51b815260206004820152601960248201527f7061796f7574546f6b656e3a205a65726f20616464726573730000000000000060448201526064016200008b565b6001600160a01b0380841660a0528216620001d25760405162461bcd60e51b815260206004820152601760248201527f75736463546f6b656e3a205a65726f206164647265737300000000000000000060448201526064016200008b565b506001600160a01b031660c08190526005805460018181019092557f036b6384b5eca791c62761152d0c79bb0604c104a5fb6f4eb0703f3154bb3db00180546001600160a01b03191683179055600091825260066020526040909120805460ff1916909117905550620002bc9050565b80516001600160a01b03811681146200025a57600080fd5b919050565b600080600080608085870312156200027657600080fd5b620002818562000242565b9350620002916020860162000242565b9250620002a16040860162000242565b9150620002b16060860162000242565b905092959194509250565b60805160a05160c051611ba36200031d600039600061035401526000818161031a01528181610659015281816106e601528181610bf601528181610d0d015261149c0152600081816102f3015281816107ad0152610d850152611ba36000f3fe608060405234801561001057600080fd5b50600436106101365760003560e01c80638f486016116100b2578063bdbef07d11610081578063e2f6f51111610066578063e2f6f51114610315578063f95459dc1461033c578063fa5692741461034f57600080fd5b8063bdbef07d146102a5578063d5f39488146102ee57600080fd5b80638f4860161461024e5780639ec684d714610261578063a19e623c14610274578063b6217be71461028757600080fd5b806341c0056f1161010957806377b8b1c7116100ee57806377b8b1c7146101fd5780637d328e5c1461021057806387a843571461023057600080fd5b806341c0056f146101c9578063445b8477146101ea57600080fd5b8063297ae84d1461013b5780632c2379541461017f57806331c4cd07146101945780633ec045a6146101a9575b600080fd5b60035473ffffffffffffffffffffffffffffffffffffffff165b60405173ffffffffffffffffffffffffffffffffffffffff90911681526020015b60405180910390f35b61019261018d366004611918565b610376565b005b61019c61050f565b604051610176919061193a565b6000546101559073ffffffffffffffffffffffffffffffffffffffff1681565b6101dc6101d7366004611918565b61057e565b604051908152602001610176565b6101926101f8366004611918565b610714565b61019261020b366004611994565b610795565b6001546101559073ffffffffffffffffffffffffffffffffffffffff1681565b60025473ffffffffffffffffffffffffffffffffffffffff16610155565b61019261025c3660046119d7565b610b45565b61019261026f3660046119f0565b610d4c565b6101926102823660046119f0565b611010565b60045473ffffffffffffffffffffffffffffffffffffffff16610155565b6102de6102b3366004611918565b73ffffffffffffffffffffffffffffffffffffffff1660009081526006602052604090205460ff1690565b6040519015158152602001610176565b6101557f000000000000000000000000000000000000000000000000000000000000000081565b6101557f000000000000000000000000000000000000000000000000000000000000000081565b61019261034a3660046119d7565b611386565b6101557f000000000000000000000000000000000000000000000000000000000000000081565b60025473ffffffffffffffffffffffffffffffffffffffff1633146103fc576040517f08c379a000000000000000000000000000000000000000000000000000000000815260206004820152601f60248201527f63616c6c6572206973206e6f742074686520766f746520636f6e74726163740060448201526064015b60405180910390fd5b73ffffffffffffffffffffffffffffffffffffffff81161580159061043c575060005473ffffffffffffffffffffffffffffffffffffffff828116911614155b6104c8576040517f08c379a000000000000000000000000000000000000000000000000000000000815260206004820152602160248201527f4f776e61626c65653a205a65726f206e657741756469746f722061646472657360448201527f730000000000000000000000000000000000000000000000000000000000000060648201526084016103f3565b600080547fffffffffffffffffffffffff00000000000000000000000000000000000000001673ffffffffffffffffffffffffffffffffffffffff92909216919091179055565b6060600580548060200260200160405190810160405280929190818152602001828054801561057457602002820191906000526020600020905b815473ffffffffffffffffffffffffffffffffffffffff168152600190910190602001808311610549575b5050505050905090565b60045460009073ffffffffffffffffffffffffffffffffffffffff163314610628576040517f08c379a000000000000000000000000000000000000000000000000000000000815260206004820152602660248201527f63616c6c6572206973206e6f7420746865205374616b696e67506f6f6c20636f60448201527f6e7472616374000000000000000000000000000000000000000000000000000060648201526084016103f3565b6040517f70a082310000000000000000000000000000000000000000000000000000000081523060048201526000907f000000000000000000000000000000000000000000000000000000000000000073ffffffffffffffffffffffffffffffffffffffff16906370a0823190602401602060405180830381865afa1580156106b5573d6000803e3d6000fd5b505050506040513d601f19601f820116820180604052508101906106d99190611a65565b9050801561070c5761070c7f000000000000000000000000000000000000000000000000000000000000000084836114c3565b90505b919050565b60005473ffffffffffffffffffffffffffffffffffffffff1633146103fc576040517f08c379a000000000000000000000000000000000000000000000000000000000815260206004820152601960248201527f63616c6c6572206973206e6f74207468652061756469746f720000000000000060448201526064016103f3565b3373ffffffffffffffffffffffffffffffffffffffff7f00000000000000000000000000000000000000000000000000000000000000001614610834576040517f08c379a000000000000000000000000000000000000000000000000000000000815260206004820152601a60248201527f63616c6c6572206973206e6f7420746865206465706c6f79657200000000000060448201526064016103f3565b60035473ffffffffffffffffffffffffffffffffffffffff16156108b4576040517f08c379a000000000000000000000000000000000000000000000000000000000815260206004820152601860248201527f7365747570566f74653a20616c7265616479207365747570000000000000000060448201526064016103f3565b73ffffffffffffffffffffffffffffffffffffffff8316610956576040517f08c379a0000000000000000000000000000000000000000000000000000000008152602060048201526024808201527f7365747570566f74653a2062616420566f746520436f6e74726163742061646460448201527f726573730000000000000000000000000000000000000000000000000000000060648201526084016103f3565b600280547fffffffffffffffffffffffff00000000000000000000000000000000000000001673ffffffffffffffffffffffffffffffffffffffff858116919091179091558216610a29576040517f08c379a000000000000000000000000000000000000000000000000000000000815260206004820152602960248201527f7365747570566f74653a2062616420566162626c6544414f20636f6e7472616360448201527f742061646472657373000000000000000000000000000000000000000000000060648201526084016103f3565b600380547fffffffffffffffffffffffff00000000000000000000000000000000000000001673ffffffffffffffffffffffffffffffffffffffff848116919091179091558116610afc576040517f08c379a000000000000000000000000000000000000000000000000000000000815260206004820152602b60248201527f7365747570566f74653a20626164205374616b696e67506f6f6c20636f6e747260448201527f616374206164647265737300000000000000000000000000000000000000000060648201526084016103f3565b600480547fffffffffffffffffffffffff00000000000000000000000000000000000000001673ffffffffffffffffffffffffffffffffffffffff929092169190911790555050565b60035473ffffffffffffffffffffffffffffffffffffffff163314610bc6576040517f08c379a000000000000000000000000000000000000000000000000000000000815260206004820152601e60248201527f63616c6c6572206973206e6f74207468652044414f20636f6e7472616374000060448201526064016103f3565b6040517f70a0823100000000000000000000000000000000000000000000000000000000815230600482015281907f000000000000000000000000000000000000000000000000000000000000000073ffffffffffffffffffffffffffffffffffffffff16906370a0823190602401602060405180830381865afa158015610c52573d6000803e3d6000fd5b505050506040513d601f19601f82011682018060405250810190610c769190611a65565b1015610d04576040517f08c379a000000000000000000000000000000000000000000000000000000000815260206004820152602760248201527f616464546f53747564696f506f6f6c3a20696e73756666696369656e7420656460448201527f676520706f6f6c0000000000000000000000000000000000000000000000000060648201526084016103f3565b600354610d49907f00000000000000000000000000000000000000000000000000000000000000009073ffffffffffffffffffffffffffffffffffffffff16836114c3565b50565b60005473ffffffffffffffffffffffffffffffffffffffff16331480610da757503373ffffffffffffffffffffffffffffffffffffffff7f000000000000000000000000000000000000000000000000000000000000000016145b610e33576040517f08c379a000000000000000000000000000000000000000000000000000000000815260206004820152602560248201527f63616c6c6572206973206e6f74207468652061756469746f72206f722064657060448201527f6c6f79657200000000000000000000000000000000000000000000000000000060648201526084016103f3565b6000819003610e9e576040517f08c379a000000000000000000000000000000000000000000000000000000000815260206004820152601a60248201527f6164644465706f73697441737365743a207a65726f206c69737400000000000060448201526064016103f3565b60005b8181101561100b5760066000848484818110610ebf57610ebf611a7e565b9050602002016020810190610ed49190611918565b73ffffffffffffffffffffffffffffffffffffffff16815260208101919091526040016000205460ff16611003576005838383818110610f1657610f16611a7e565b9050602002016020810190610f2b9190611918565b81546001808201845560009384526020842090910180547fffffffffffffffffffffffff00000000000000000000000000000000000000001673ffffffffffffffffffffffffffffffffffffffff939093169290921790915590600690858585818110610f9a57610f9a611a7e565b9050602002016020810190610faf9190611918565b73ffffffffffffffffffffffffffffffffffffffff168152602081019190915260400160002080547fffffffffffffffffffffffffffffffffffffffffffffffffffffffffffffff00169115159190911790555b600101610ea1565b505050565b60005473ffffffffffffffffffffffffffffffffffffffff163314611091576040517f08c379a000000000000000000000000000000000000000000000000000000000815260206004820152601960248201527f63616c6c6572206973206e6f74207468652061756469746f720000000000000060448201526064016103f3565b60008190036110fc576040517f08c379a000000000000000000000000000000000000000000000000000000000815260206004820152601d60248201527f72656d6f76654465706f73697441737365743a207a65726f206c69737400000060448201526064016103f3565b60005b8181101561100b576006600084848481811061111d5761111d611a7e565b90506020020160208101906111329190611918565b73ffffffffffffffffffffffffffffffffffffffff16815260208101919091526040016000205460ff161561137e5760005b60055481101561137c576005818154811061118157611181611a7e565b60009182526020909120015473ffffffffffffffffffffffffffffffffffffffff168484848181106111b5576111b5611a7e565b90506020020160208101906111ca9190611918565b73ffffffffffffffffffffffffffffffffffffffff160361137457600580546111f590600190611aad565b8154811061120557611205611a7e565b6000918252602090912001546005805473ffffffffffffffffffffffffffffffffffffffff909216918390811061123e5761123e611a7e565b9060005260206000200160006101000a81548173ffffffffffffffffffffffffffffffffffffffff021916908373ffffffffffffffffffffffffffffffffffffffff160217905550600580548061129757611297611aed565b60008281526020812082017fffffffffffffffffffffffffffffffffffffffffffffffffffffffffffffffff90810180547fffffffffffffffffffffffff000000000000000000000000000000000000000016905590910190915560068186868681811061130757611307611a7e565b905060200201602081019061131c9190611918565b73ffffffffffffffffffffffffffffffffffffffff168152602081019190915260400160002080547fffffffffffffffffffffffffffffffffffffffffffffffffffffffffffffff001691151591909117905561137c565b600101611164565b505b6001016110ff565b60005473ffffffffffffffffffffffffffffffffffffffff163314611407576040517f08c379a000000000000000000000000000000000000000000000000000000000815260206004820152601960248201527f63616c6c6572206973206e6f74207468652061756469746f720000000000000060448201526064016103f3565b80600003611497576040517f08c379a000000000000000000000000000000000000000000000000000000000815260206004820152602160248201527f6465706f736974564142546f45646765506f6f6c3a205a65726f20616d6f756e60448201527f740000000000000000000000000000000000000000000000000000000000000060648201526084016103f3565b610d497f00000000000000000000000000000000000000000000000000000000000000003330846116d7565b73ffffffffffffffffffffffffffffffffffffffff83163b611541576040517f08c379a000000000000000000000000000000000000000000000000000000000815260206004820152600160248201527f430000000000000000000000000000000000000000000000000000000000000060448201526064016103f3565b6040805173ffffffffffffffffffffffffffffffffffffffff8481166024830152604480830185905283518084039091018152606490920183526020820180517bffffffffffffffffffffffffffffffffffffffffffffffffffffffff167fa9059cbb0000000000000000000000000000000000000000000000000000000017905291516000928392908716916115d89190611b1c565b6000604051808303816000865af19150503d8060008114611615576040519150601f19603f3d011682016040523d82523d6000602084013e61161a565b606091505b50915091508180156116445750805115806116445750808060200190518101906116449190611b4b565b6116d0576040517f08c379a000000000000000000000000000000000000000000000000000000000815260206004820152602860248201527f566162626c6544414f3a3a736166655472616e736665723a207472616e73666560448201527f72206661696c656400000000000000000000000000000000000000000000000060648201526084016103f3565b5050505050565b73ffffffffffffffffffffffffffffffffffffffff84163b611755576040517f08c379a000000000000000000000000000000000000000000000000000000000815260206004820152600160248201527f430000000000000000000000000000000000000000000000000000000000000060448201526064016103f3565b6040805173ffffffffffffffffffffffffffffffffffffffff85811660248301528481166044830152606480830185905283518084039091018152608490920183526020820180517bffffffffffffffffffffffffffffffffffffffffffffffffffffffff167f23b872dd0000000000000000000000000000000000000000000000000000000017905291516000928392908816916117f49190611b1c565b6000604051808303816000865af19150503d8060008114611831576040519150601f19603f3d011682016040523d82523d6000602084013e611836565b606091505b50915091508180156118605750805115806118605750808060200190518101906118609190611b4b565b6118ec576040517f08c379a000000000000000000000000000000000000000000000000000000000815260206004820152602c60248201527f566162626c6544414f3a3a7472616e7366657246726f6d3a207472616e73666560448201527f7246726f6d206661696c6564000000000000000000000000000000000000000060648201526084016103f3565b505050505050565b803573ffffffffffffffffffffffffffffffffffffffff8116811461070f57600080fd5b60006020828403121561192a57600080fd5b611933826118f4565b9392505050565b6020808252825182820181905260009190848201906040850190845b8181101561198857835173ffffffffffffffffffffffffffffffffffffffff1683529284019291840191600101611956565b50909695505050505050565b6000806000606084860312156119a957600080fd5b6119b2846118f4565b92506119c0602085016118f4565b91506119ce604085016118f4565b90509250925092565b6000602082840312156119e957600080fd5b5035919050565b60008060208385031215611a0357600080fd5b823567ffffffffffffffff80821115611a1b57600080fd5b818501915085601f830112611a2f57600080fd5b813581811115611a3e57600080fd5b8660208260051b8501011115611a5357600080fd5b60209290920196919550909350505050565b600060208284031215611a7757600080fd5b5051919050565b7f4e487b7100000000000000000000000000000000000000000000000000000000600052603260045260246000fd5b81810381811115611ae7577f4e487b7100000000000000000000000000000000000000000000000000000000600052601160045260246000fd5b92915050565b7f4e487b7100000000000000000000000000000000000000000000000000000000600052603160045260246000fd5b6000825160005b81811015611b3d5760208186018101518583015201611b23565b506000920191825250919050565b600060208284031215611b5d57600080fd5b8151801515811461193357600080fdfea2646970667358221220dd72c58d964af62c6bb522b2bb944fec694982c7fe99c3539c3e2087578b6f5b64736f6c63430008180033","linkReferences":{}},"methodIdentifiers":{"PAYOUT_TOKEN()":"e2f6f511","USDC_TOKEN()":"fa569274","VAB_WALLET()":"7d328e5c","addDepositAsset(address[])":"9ec684d7","addToStudioPool(uint256)":"8f486016","auditor()":"3ec045a6","deployer()":"d5f39488","depositVABToEdgePool(uint256)":"f95459dc","getDepositAssetList()":"31c4cd07","getStakingPoolAddress()":"b6217be7","getVabbleDAO()":"297ae84d","getVoteAddress()":"87a84357","isDepositAsset(address)":"bdbef07d","removeDepositAsset(address[])":"a19e623c","replaceAuditor(address)":"2c237954","setup(address,address,address)":"77b8b1c7","transferAuditor(address)":"445b8477","withdrawVABFromEdgePool(address)":"41c0056f"},"id":4}