{"abi":[{"type":"constructor","inputs":[{"name":"_vabbleWallet","type":"address","internalType":"address"},{"name":"_payoutToken","type":"address","internalType":"address"},{"name":"_usdcToken","type":"address","internalType":"address"},{"name":"_multiSigWallet","type":"address","internalType":"address"}],"stateMutability":"nonpayable"},{"type":"function","name":"PAYOUT_TOKEN","inputs":[],"outputs":[{"name":"","type":"address","internalType":"address"}],"stateMutability":"view"},{"type":"function","name":"USDC_TOKEN","inputs":[],"outputs":[{"name":"","type":"address","internalType":"address"}],"stateMutability":"view"},{"type":"function","name":"VAB_WALLET","inputs":[],"outputs":[{"name":"","type":"address","internalType":"address"}],"stateMutability":"view"},{"type":"function","name":"addDepositAsset","inputs":[{"name":"_assetList","type":"address[]","internalType":"address[]"}],"outputs":[],"stateMutability":"nonpayable"},{"type":"function","name":"addToStudioPool","inputs":[{"name":"_amount","type":"uint256","internalType":"uint256"}],"outputs":[],"stateMutability":"nonpayable"},{"type":"function","name":"auditor","inputs":[],"outputs":[{"name":"","type":"address","internalType":"address"}],"stateMutability":"view"},{"type":"function","name":"deployer","inputs":[],"outputs":[{"name":"","type":"address","internalType":"address"}],"stateMutability":"view"},{"type":"function","name":"depositVABToEdgePool","inputs":[{"name":"_amount","type":"uint256","internalType":"uint256"}],"outputs":[],"stateMutability":"nonpayable"},{"type":"function","name":"getDepositAssetList","inputs":[],"outputs":[{"name":"","type":"address[]","internalType":"address[]"}],"stateMutability":"view"},{"type":"function","name":"getStakingPoolAddress","inputs":[],"outputs":[{"name":"","type":"address","internalType":"address"}],"stateMutability":"view"},{"type":"function","name":"getVabbleDAO","inputs":[],"outputs":[{"name":"dao_","type":"address","internalType":"address"}],"stateMutability":"view"},{"type":"function","name":"getVoteAddress","inputs":[],"outputs":[{"name":"","type":"address","internalType":"address"}],"stateMutability":"view"},{"type":"function","name":"isDepositAsset","inputs":[{"name":"_asset","type":"address","internalType":"address"}],"outputs":[{"name":"","type":"bool","internalType":"bool"}],"stateMutability":"view"},{"type":"function","name":"removeDepositAsset","inputs":[{"name":"_assetList","type":"address[]","internalType":"address[]"}],"outputs":[],"stateMutability":"nonpayable"},{"type":"function","name":"replaceAuditor","inputs":[{"name":"_newAuditor","type":"address","internalType":"address"}],"outputs":[],"stateMutability":"nonpayable"},{"type":"function","name":"setup","inputs":[{"name":"_vote","type":"address","internalType":"address"},{"name":"_dao","type":"address","internalType":"address"},{"name":"_stakingPool","type":"address","internalType":"address"}],"outputs":[],"stateMutability":"nonpayable"},{"type":"function","name":"transferAuditor","inputs":[{"name":"_newAuditor","type":"address","internalType":"address"}],"outputs":[],"stateMutability":"nonpayable"},{"type":"function","name":"withdrawVABFromEdgePool","inputs":[{"name":"_to","type":"address","internalType":"address"}],"outputs":[{"name":"","type":"uint256","internalType":"uint256"}],"stateMutability":"nonpayable"},{"type":"event","name":"VABWalletChanged","inputs":[{"name":"wallet","type":"address","indexed":true,"internalType":"address"}],"anonymous":false}],"bytecode":{"object":"0x60e06040523480156200001157600080fd5b5060405162002f7838038062002f7883398181016040528101906200003791906200044b565b3373ffffffffffffffffffffffffffffffffffffffff1660808173ffffffffffffffffffffffffffffffffffffffff1681525050600073ffffffffffffffffffffffffffffffffffffffff168173ffffffffffffffffffffffffffffffffffffffff1603620000dd576040517f08c379a0000000000000000000000000000000000000000000000000000000008152600401620000d4906200051e565b60405180910390fd5b806000806101000a81548173ffffffffffffffffffffffffffffffffffffffff021916908373ffffffffffffffffffffffffffffffffffffffff160217905550600073ffffffffffffffffffffffffffffffffffffffff168473ffffffffffffffffffffffffffffffffffffffff16036200018f576040517f08c379a0000000000000000000000000000000000000000000000000000000008152600401620001869062000590565b60405180910390fd5b83600160006101000a81548173ffffffffffffffffffffffffffffffffffffffff021916908373ffffffffffffffffffffffffffffffffffffffff160217905550600073ffffffffffffffffffffffffffffffffffffffff168373ffffffffffffffffffffffffffffffffffffffff160362000242576040517f08c379a0000000000000000000000000000000000000000000000000000000008152600401620002399062000602565b60405180910390fd5b8273ffffffffffffffffffffffffffffffffffffffff1660a08173ffffffffffffffffffffffffffffffffffffffff1681525050600073ffffffffffffffffffffffffffffffffffffffff168273ffffffffffffffffffffffffffffffffffffffff1603620002e8576040517f08c379a0000000000000000000000000000000000000000000000000000000008152600401620002df9062000674565b60405180910390fd5b8173ffffffffffffffffffffffffffffffffffffffff1660c08173ffffffffffffffffffffffffffffffffffffffff16815250506005829080600181540180825580915050600190039060005260206000200160009091909190916101000a81548173ffffffffffffffffffffffffffffffffffffffff021916908373ffffffffffffffffffffffffffffffffffffffff1602179055506001600660008473ffffffffffffffffffffffffffffffffffffffff1673ffffffffffffffffffffffffffffffffffffffff16815260200190815260200160002060006101000a81548160ff0219169083151502179055505050505062000696565b600080fd5b600073ffffffffffffffffffffffffffffffffffffffff82169050919050565b60006200041382620003e6565b9050919050565b620004258162000406565b81146200043157600080fd5b50565b60008151905062000445816200041a565b92915050565b60008060008060808587031215620004685762000467620003e1565b5b6000620004788782880162000434565b94505060206200048b8782880162000434565b93505060406200049e8782880162000434565b9250506060620004b18782880162000434565b91505092959194509250565b600082825260208201905092915050565b7f6d756c746953696757616c6c65743a205a65726f206164647265737300000000600082015250565b600062000506601c83620004bd565b91506200051382620004ce565b602082019050919050565b600060208201905081810360008301526200053981620004f7565b9050919050565b7f766162626c6557616c6c65743a205a65726f2061646472657373000000000000600082015250565b600062000578601a83620004bd565b9150620005858262000540565b602082019050919050565b60006020820190508181036000830152620005ab8162000569565b9050919050565b7f7061796f7574546f6b656e3a205a65726f206164647265737300000000000000600082015250565b6000620005ea601983620004bd565b9150620005f782620005b2565b602082019050919050565b600060208201905081810360008301526200061d81620005db565b9050919050565b7f75736463546f6b656e3a205a65726f2061646472657373000000000000000000600082015250565b60006200065c601783620004bd565b9150620006698262000624565b602082019050919050565b600060208201905081810360008301526200068f816200064d565b9050919050565b60805160a05160c051612881620006f7600039600061163701526000818161065a0152818161070101528181610ce101528181610dbf01528181611513015261160b0152600081816108cc01528181610e6101526114ef01526128816000f3fe608060405234801561001057600080fd5b50600436106101165760003560e01c80638f486016116100a2578063bdbef07d11610071578063bdbef07d146102a7578063d5f39488146102d7578063e2f6f511146102f5578063f95459dc14610313578063fa5692741461032f57610116565b80638f486016146102355780639ec684d714610251578063a19e623c1461026d578063b6217be71461028957610116565b806341c0056f116100e957806341c0056f14610191578063445b8477146101c157806377b8b1c7146101dd5780637d328e5c146101f957806387a843571461021757610116565b8063297ae84d1461011b5780632c2379541461013957806331c4cd07146101555780633ec045a614610173575b600080fd5b61012361034d565b60405161013091906119bc565b60405180910390f35b610153600480360381019061014e9190611a0d565b610377565b005b61015d610512565b60405161016a9190611af8565b60405180910390f35b61017b6105a0565b60405161018891906119bc565b60405180910390f35b6101ab60048036038101906101a69190611a0d565b6105c4565b6040516101b89190611b33565b60405180910390f35b6101db60048036038101906101d69190611a0d565b610731565b005b6101f760048036038101906101f29190611b4e565b6108ca565b005b610201610bfe565b60405161020e91906119bc565b60405180910390f35b61021f610c24565b60405161022c91906119bc565b60405180910390f35b61024f600480360381019061024a9190611bcd565b610c4e565b005b61026b60048036038101906102669190611c5f565b610e0a565b005b61028760048036038101906102829190611c5f565b6110d4565b005b61029161146d565b60405161029e91906119bc565b60405180910390f35b6102c160048036038101906102bc9190611a0d565b611497565b6040516102ce9190611cc7565b60405180910390f35b6102df6114ed565b6040516102ec91906119bc565b60405180910390f35b6102fd611511565b60405161030a91906119bc565b60405180910390f35b61032d60048036038101906103289190611bcd565b611535565b005b610337611635565b60405161034491906119bc565b60405180910390f35b6000600360009054906101000a900473ffffffffffffffffffffffffffffffffffffffff16905090565b600260009054906101000a900473ffffffffffffffffffffffffffffffffffffffff1673ffffffffffffffffffffffffffffffffffffffff163373ffffffffffffffffffffffffffffffffffffffff1614610407576040517f08c379a00000000000000000000000000000000000000000000000000000000081526004016103fe90611d3f565b60405180910390fd5b600073ffffffffffffffffffffffffffffffffffffffff168173ffffffffffffffffffffffffffffffffffffffff1614158015610490575060008054906101000a900473ffffffffffffffffffffffffffffffffffffffff1673ffffffffffffffffffffffffffffffffffffffff168173ffffffffffffffffffffffffffffffffffffffff1614155b6104cf576040517f08c379a00000000000000000000000000000000000000000000000000000000081526004016104c690611dd1565b60405180910390fd5b806000806101000a81548173ffffffffffffffffffffffffffffffffffffffff021916908373ffffffffffffffffffffffffffffffffffffffff16021790555050565b6060600580548060200260200160405190810160405280929190818152602001828054801561059657602002820191906000526020600020905b8160009054906101000a900473ffffffffffffffffffffffffffffffffffffffff1673ffffffffffffffffffffffffffffffffffffffff168152602001906001019080831161054c575b5050505050905090565b60008054906101000a900473ffffffffffffffffffffffffffffffffffffffff1681565b6000600460009054906101000a900473ffffffffffffffffffffffffffffffffffffffff1673ffffffffffffffffffffffffffffffffffffffff163373ffffffffffffffffffffffffffffffffffffffff1614610656576040517f08c379a000000000000000000000000000000000000000000000000000000000815260040161064d90611e63565b60405180910390fd5b60007f000000000000000000000000000000000000000000000000000000000000000073ffffffffffffffffffffffffffffffffffffffff166370a08231306040518263ffffffff1660e01b81526004016106b191906119bc565b602060405180830381865afa1580156106ce573d6000803e3d6000fd5b505050506040513d601f19601f820116820180604052508101906106f29190611e98565b905060008114610728576107277f00000000000000000000000000000000000000000000000000000000000000008483611659565b5b80915050919050565b60008054906101000a900473ffffffffffffffffffffffffffffffffffffffff1673ffffffffffffffffffffffffffffffffffffffff163373ffffffffffffffffffffffffffffffffffffffff16146107bf576040517f08c379a00000000000000000000000000000000000000000000000000000000081526004016107b690611f11565b60405180910390fd5b600073ffffffffffffffffffffffffffffffffffffffff168173ffffffffffffffffffffffffffffffffffffffff1614158015610848575060008054906101000a900473ffffffffffffffffffffffffffffffffffffffff1673ffffffffffffffffffffffffffffffffffffffff168173ffffffffffffffffffffffffffffffffffffffff1614155b610887576040517f08c379a000000000000000000000000000000000000000000000000000000000815260040161087e90611dd1565b60405180910390fd5b806000806101000a81548173ffffffffffffffffffffffffffffffffffffffff021916908373ffffffffffffffffffffffffffffffffffffffff16021790555050565b7f000000000000000000000000000000000000000000000000000000000000000073ffffffffffffffffffffffffffffffffffffffff163373ffffffffffffffffffffffffffffffffffffffff1614610958576040517f08c379a000000000000000000000000000000000000000000000000000000000815260040161094f90611f7d565b60405180910390fd5b600073ffffffffffffffffffffffffffffffffffffffff16600360009054906101000a900473ffffffffffffffffffffffffffffffffffffffff1673ffffffffffffffffffffffffffffffffffffffff16146109e9576040517f08c379a00000000000000000000000000000000000000000000000000000000081526004016109e090611fe9565b60405180910390fd5b600073ffffffffffffffffffffffffffffffffffffffff168373ffffffffffffffffffffffffffffffffffffffff1603610a58576040517f08c379a0000000000000000000000000000000000000000000000000000000008152600401610a4f9061207b565b60405180910390fd5b82600260006101000a81548173ffffffffffffffffffffffffffffffffffffffff021916908373ffffffffffffffffffffffffffffffffffffffff160217905550600073ffffffffffffffffffffffffffffffffffffffff168273ffffffffffffffffffffffffffffffffffffffff1603610b08576040517f08c379a0000000000000000000000000000000000000000000000000000000008152600401610aff9061210d565b60405180910390fd5b81600360006101000a81548173ffffffffffffffffffffffffffffffffffffffff021916908373ffffffffffffffffffffffffffffffffffffffff160217905550600073ffffffffffffffffffffffffffffffffffffffff168173ffffffffffffffffffffffffffffffffffffffff1603610bb8576040517f08c379a0000000000000000000000000000000000000000000000000000000008152600401610baf9061219f565b60405180910390fd5b80600460006101000a81548173ffffffffffffffffffffffffffffffffffffffff021916908373ffffffffffffffffffffffffffffffffffffffff160217905550505050565b600160009054906101000a900473ffffffffffffffffffffffffffffffffffffffff1681565b6000600260009054906101000a900473ffffffffffffffffffffffffffffffffffffffff16905090565b600360009054906101000a900473ffffffffffffffffffffffffffffffffffffffff1673ffffffffffffffffffffffffffffffffffffffff163373ffffffffffffffffffffffffffffffffffffffff1614610cde576040517f08c379a0000000000000000000000000000000000000000000000000000000008152600401610cd59061220b565b60405180910390fd5b807f000000000000000000000000000000000000000000000000000000000000000073ffffffffffffffffffffffffffffffffffffffff166370a08231306040518263ffffffff1660e01b8152600401610d3891906119bc565b602060405180830381865afa158015610d55573d6000803e3d6000fd5b505050506040513d601f19601f82011682018060405250810190610d799190611e98565b1015610dba576040517f08c379a0000000000000000000000000000000000000000000000000000000008152600401610db19061229d565b60405180910390fd5b610e077f0000000000000000000000000000000000000000000000000000000000000000600360009054906101000a900473ffffffffffffffffffffffffffffffffffffffff1683611659565b50565b60008054906101000a900473ffffffffffffffffffffffffffffffffffffffff1673ffffffffffffffffffffffffffffffffffffffff163373ffffffffffffffffffffffffffffffffffffffff161480610eaf57507f000000000000000000000000000000000000000000000000000000000000000073ffffffffffffffffffffffffffffffffffffffff163373ffffffffffffffffffffffffffffffffffffffff16145b610eee576040517f08c379a0000000000000000000000000000000000000000000000000000000008152600401610ee59061232f565b60405180910390fd5b60008282905003610f34576040517f08c379a0000000000000000000000000000000000000000000000000000000008152600401610f2b9061239b565b60405180910390fd5b60005b828290508110156110cf5760066000848484818110610f5957610f586123bb565b5b9050602002016020810190610f6e9190611a0d565b73ffffffffffffffffffffffffffffffffffffffff1673ffffffffffffffffffffffffffffffffffffffff16815260200190815260200160002060009054906101000a900460ff166110c4576005838383818110610fcf57610fce6123bb565b5b9050602002016020810190610fe49190611a0d565b9080600181540180825580915050600190039060005260206000200160009091909190916101000a81548173ffffffffffffffffffffffffffffffffffffffff021916908373ffffffffffffffffffffffffffffffffffffffff16021790555060016006600085858581811061105d5761105c6123bb565b5b90506020020160208101906110729190611a0d565b73ffffffffffffffffffffffffffffffffffffffff1673ffffffffffffffffffffffffffffffffffffffff16815260200190815260200160002060006101000a81548160ff0219169083151502179055505b806001019050610f37565b505050565b60008054906101000a900473ffffffffffffffffffffffffffffffffffffffff1673ffffffffffffffffffffffffffffffffffffffff163373ffffffffffffffffffffffffffffffffffffffff1614611162576040517f08c379a000000000000000000000000000000000000000000000000000000000815260040161115990611f11565b60405180910390fd5b600082829050036111a8576040517f08c379a000000000000000000000000000000000000000000000000000000000815260040161119f90612436565b60405180910390fd5b60005b8282905081101561146857600660008484848181106111cd576111cc6123bb565b5b90506020020160208101906111e29190611a0d565b73ffffffffffffffffffffffffffffffffffffffff1673ffffffffffffffffffffffffffffffffffffffff16815260200190815260200160002060009054906101000a900460ff161561145d5760005b60058054905081101561145b5760058181548110611253576112526123bb565b5b9060005260206000200160009054906101000a900473ffffffffffffffffffffffffffffffffffffffff1673ffffffffffffffffffffffffffffffffffffffff168484848181106112a7576112a66123bb565b5b90506020020160208101906112bc9190611a0d565b73ffffffffffffffffffffffffffffffffffffffff160361144e57600560016005805490506112eb9190612485565b815481106112fc576112fb6123bb565b5b9060005260206000200160009054906101000a900473ffffffffffffffffffffffffffffffffffffffff166005828154811061133b5761133a6123bb565b5b9060005260206000200160006101000a81548173ffffffffffffffffffffffffffffffffffffffff021916908373ffffffffffffffffffffffffffffffffffffffff1602179055506005805480611395576113946124b9565b5b6001900381819060005260206000200160006101000a81549073ffffffffffffffffffffffffffffffffffffffff021916905590556000600660008686868181106113e3576113e26123bb565b5b90506020020160208101906113f89190611a0d565b73ffffffffffffffffffffffffffffffffffffffff1673ffffffffffffffffffffffffffffffffffffffff16815260200190815260200160002060006101000a81548160ff02191690831515021790555061145b565b8080600101915050611232565b505b8060010190506111ab565b505050565b6000600460009054906101000a900473ffffffffffffffffffffffffffffffffffffffff16905090565b6000600660008373ffffffffffffffffffffffffffffffffffffffff1673ffffffffffffffffffffffffffffffffffffffff16815260200190815260200160002060009054906101000a900460ff169050919050565b7f000000000000000000000000000000000000000000000000000000000000000081565b7f000000000000000000000000000000000000000000000000000000000000000081565b60008054906101000a900473ffffffffffffffffffffffffffffffffffffffff1673ffffffffffffffffffffffffffffffffffffffff163373ffffffffffffffffffffffffffffffffffffffff16146115c3576040517f08c379a00000000000000000000000000000000000000000000000000000000081526004016115ba90611f11565b60405180910390fd5b60008103611606576040517f08c379a00000000000000000000000000000000000000000000000000000000081526004016115fd9061255a565b60405180910390fd5b6116327f00000000000000000000000000000000000000000000000000000000000000003330846117d7565b50565b7f000000000000000000000000000000000000000000000000000000000000000081565b61166283611958565b6116a1576040517f08c379a0000000000000000000000000000000000000000000000000000000008152600401611698906125c6565b60405180910390fd5b6000808473ffffffffffffffffffffffffffffffffffffffff1663a9059cbb85856040516024016116d39291906125e6565b6040516020818303038152906040529060e01b6020820180517bffffffffffffffffffffffffffffffffffffffffffffffffffffffff83818316178352505050506040516117219190612680565b6000604051808303816000865af19150503d806000811461175e576040519150601f19603f3d011682016040523d82523d6000602084013e611763565b606091505b5091509150818015611791575060008151148061179057508080602001905181019061178f91906126c3565b5b5b6117d0576040517f08c379a00000000000000000000000000000000000000000000000000000000081526004016117c790612762565b60405180910390fd5b5050505050565b6117e084611958565b61181f576040517f08c379a0000000000000000000000000000000000000000000000000000000008152600401611816906125c6565b60405180910390fd5b6000808573ffffffffffffffffffffffffffffffffffffffff166323b872dd86868660405160240161185393929190612782565b6040516020818303038152906040529060e01b6020820180517bffffffffffffffffffffffffffffffffffffffffffffffffffffffff83818316178352505050506040516118a19190612680565b6000604051808303816000865af19150503d80600081146118de576040519150601f19603f3d011682016040523d82523d6000602084013e6118e3565b606091505b5091509150818015611911575060008151148061191057508080602001905181019061190f91906126c3565b5b5b611950576040517f08c379a00000000000000000000000000000000000000000000000000000000081526004016119479061282b565b60405180910390fd5b505050505050565b6000808273ffffffffffffffffffffffffffffffffffffffff163b119050919050565b600073ffffffffffffffffffffffffffffffffffffffff82169050919050565b60006119a68261197b565b9050919050565b6119b68161199b565b82525050565b60006020820190506119d160008301846119ad565b92915050565b600080fd5b600080fd5b6119ea8161199b565b81146119f557600080fd5b50565b600081359050611a07816119e1565b92915050565b600060208284031215611a2357611a226119d7565b5b6000611a31848285016119f8565b91505092915050565b600081519050919050565b600082825260208201905092915050565b6000819050602082019050919050565b611a6f8161199b565b82525050565b6000611a818383611a66565b60208301905092915050565b6000602082019050919050565b6000611aa582611a3a565b611aaf8185611a45565b9350611aba83611a56565b8060005b83811015611aeb578151611ad28882611a75565b9750611add83611a8d565b925050600181019050611abe565b5085935050505092915050565b60006020820190508181036000830152611b128184611a9a565b905092915050565b6000819050919050565b611b2d81611b1a565b82525050565b6000602082019050611b486000830184611b24565b92915050565b600080600060608486031215611b6757611b666119d7565b5b6000611b75868287016119f8565b9350506020611b86868287016119f8565b9250506040611b97868287016119f8565b9150509250925092565b611baa81611b1a565b8114611bb557600080fd5b50565b600081359050611bc781611ba1565b92915050565b600060208284031215611be357611be26119d7565b5b6000611bf184828501611bb8565b91505092915050565b600080fd5b600080fd5b600080fd5b60008083601f840112611c1f57611c1e611bfa565b5b8235905067ffffffffffffffff811115611c3c57611c3b611bff565b5b602083019150836020820283011115611c5857611c57611c04565b5b9250929050565b60008060208385031215611c7657611c756119d7565b5b600083013567ffffffffffffffff811115611c9457611c936119dc565b5b611ca085828601611c09565b92509250509250929050565b60008115159050919050565b611cc181611cac565b82525050565b6000602082019050611cdc6000830184611cb8565b92915050565b600082825260208201905092915050565b7f63616c6c6572206973206e6f742074686520766f746520636f6e747261637400600082015250565b6000611d29601f83611ce2565b9150611d3482611cf3565b602082019050919050565b60006020820190508181036000830152611d5881611d1c565b9050919050565b7f4f776e61626c65653a205a65726f206e657741756469746f722061646472657360008201527f7300000000000000000000000000000000000000000000000000000000000000602082015250565b6000611dbb602183611ce2565b9150611dc682611d5f565b604082019050919050565b60006020820190508181036000830152611dea81611dae565b9050919050565b7f63616c6c6572206973206e6f7420746865205374616b696e67506f6f6c20636f60008201527f6e74726163740000000000000000000000000000000000000000000000000000602082015250565b6000611e4d602683611ce2565b9150611e5882611df1565b604082019050919050565b60006020820190508181036000830152611e7c81611e40565b9050919050565b600081519050611e9281611ba1565b92915050565b600060208284031215611eae57611ead6119d7565b5b6000611ebc84828501611e83565b91505092915050565b7f63616c6c6572206973206e6f74207468652061756469746f7200000000000000600082015250565b6000611efb601983611ce2565b9150611f0682611ec5565b602082019050919050565b60006020820190508181036000830152611f2a81611eee565b9050919050565b7f63616c6c6572206973206e6f7420746865206465706c6f796572000000000000600082015250565b6000611f67601a83611ce2565b9150611f7282611f31565b602082019050919050565b60006020820190508181036000830152611f9681611f5a565b9050919050565b7f7365747570566f74653a20616c72656164792073657475700000000000000000600082015250565b6000611fd3601883611ce2565b9150611fde82611f9d565b602082019050919050565b6000602082019050818103600083015261200281611fc6565b9050919050565b7f7365747570566f74653a2062616420566f746520436f6e74726163742061646460008201527f7265737300000000000000000000000000000000000000000000000000000000602082015250565b6000612065602483611ce2565b915061207082612009565b604082019050919050565b6000602082019050818103600083015261209481612058565b9050919050565b7f7365747570566f74653a2062616420566162626c6544414f20636f6e7472616360008201527f7420616464726573730000000000000000000000000000000000000000000000602082015250565b60006120f7602983611ce2565b91506121028261209b565b604082019050919050565b60006020820190508181036000830152612126816120ea565b9050919050565b7f7365747570566f74653a20626164205374616b696e67506f6f6c20636f6e747260008201527f6163742061646472657373000000000000000000000000000000000000000000602082015250565b6000612189602b83611ce2565b91506121948261212d565b604082019050919050565b600060208201905081810360008301526121b88161217c565b9050919050565b7f63616c6c6572206973206e6f74207468652044414f20636f6e74726163740000600082015250565b60006121f5601e83611ce2565b9150612200826121bf565b602082019050919050565b60006020820190508181036000830152612224816121e8565b9050919050565b7f616464546f53747564696f506f6f6c3a20696e73756666696369656e7420656460008201527f676520706f6f6c00000000000000000000000000000000000000000000000000602082015250565b6000612287602783611ce2565b91506122928261222b565b604082019050919050565b600060208201905081810360008301526122b68161227a565b9050919050565b7f63616c6c6572206973206e6f74207468652061756469746f72206f722064657060008201527f6c6f796572000000000000000000000000000000000000000000000000000000602082015250565b6000612319602583611ce2565b9150612324826122bd565b604082019050919050565b600060208201905081810360008301526123488161230c565b9050919050565b7f6164644465706f73697441737365743a207a65726f206c697374000000000000600082015250565b6000612385601a83611ce2565b91506123908261234f565b602082019050919050565b600060208201905081810360008301526123b481612378565b9050919050565b7f4e487b7100000000000000000000000000000000000000000000000000000000600052603260045260246000fd5b7f72656d6f76654465706f73697441737365743a207a65726f206c697374000000600082015250565b6000612420601d83611ce2565b915061242b826123ea565b602082019050919050565b6000602082019050818103600083015261244f81612413565b9050919050565b7f4e487b7100000000000000000000000000000000000000000000000000000000600052601160045260246000fd5b600061249082611b1a565b915061249b83611b1a565b92508282039050818111156124b3576124b2612456565b5b92915050565b7f4e487b7100000000000000000000000000000000000000000000000000000000600052603160045260246000fd5b7f6465706f736974564142546f45646765506f6f6c3a205a65726f20616d6f756e60008201527f7400000000000000000000000000000000000000000000000000000000000000602082015250565b6000612544602183611ce2565b915061254f826124e8565b604082019050919050565b6000602082019050818103600083015261257381612537565b9050919050565b7f4300000000000000000000000000000000000000000000000000000000000000600082015250565b60006125b0600183611ce2565b91506125bb8261257a565b602082019050919050565b600060208201905081810360008301526125df816125a3565b9050919050565b60006040820190506125fb60008301856119ad565b6126086020830184611b24565b9392505050565b600081519050919050565b600081905092915050565b60005b83811015612643578082015181840152602081019050612628565b60008484015250505050565b600061265a8261260f565b612664818561261a565b9350612674818560208601612625565b80840191505092915050565b600061268c828461264f565b915081905092915050565b6126a081611cac565b81146126ab57600080fd5b50565b6000815190506126bd81612697565b92915050565b6000602082840312156126d9576126d86119d7565b5b60006126e7848285016126ae565b91505092915050565b7f566162626c6544414f3a3a736166655472616e736665723a207472616e73666560008201527f72206661696c6564000000000000000000000000000000000000000000000000602082015250565b600061274c602883611ce2565b9150612757826126f0565b604082019050919050565b6000602082019050818103600083015261277b8161273f565b9050919050565b600060608201905061279760008301866119ad565b6127a460208301856119ad565b6127b16040830184611b24565b949350505050565b7f566162626c6544414f3a3a7472616e7366657246726f6d3a207472616e73666560008201527f7246726f6d206661696c65640000000000000000000000000000000000000000602082015250565b6000612815602c83611ce2565b9150612820826127b9565b604082019050919050565b6000602082019050818103600083015261284481612808565b905091905056fea2646970667358221220c381e437aa06ae58849a12c17199ab02f7f294c4dd0b29e336184421494e234364736f6c63430008180033","linkReferences":{}},"methodIdentifiers":{"PAYOUT_TOKEN()":"e2f6f511","USDC_TOKEN()":"fa569274","VAB_WALLET()":"7d328e5c","addDepositAsset(address[])":"9ec684d7","addToStudioPool(uint256)":"8f486016","auditor()":"3ec045a6","deployer()":"d5f39488","depositVABToEdgePool(uint256)":"f95459dc","getDepositAssetList()":"31c4cd07","getStakingPoolAddress()":"b6217be7","getVabbleDAO()":"297ae84d","getVoteAddress()":"87a84357","isDepositAsset(address)":"bdbef07d","removeDepositAsset(address[])":"a19e623c","replaceAuditor(address)":"2c237954","setup(address,address,address)":"77b8b1c7","transferAuditor(address)":"445b8477","withdrawVABFromEdgePool(address)":"41c0056f"},"id":4}