{"abi":[{"type":"constructor","inputs":[{"name":"_ownable","type":"address","internalType":"address"},{"name":"_uniHelper","type":"address","internalType":"address"}],"stateMutability":"nonpayable"},{"type":"receive","stateMutability":"payable"},{"type":"function","name":"baseUri","inputs":[],"outputs":[{"name":"","type":"string","internalType":"string"}],"stateMutability":"view"},{"type":"function","name":"categoryList","inputs":[{"name":"","type":"uint256","internalType":"uint256"}],"outputs":[{"name":"","type":"uint256","internalType":"uint256"}],"stateMutability":"view"},{"type":"function","name":"collectionUri","inputs":[],"outputs":[{"name":"","type":"string","internalType":"string"}],"stateMutability":"view"},{"type":"function","name":"deploySubNFTContract","inputs":[{"name":"_name","type":"string","internalType":"string"},{"name":"_symbol","type":"string","internalType":"string"}],"outputs":[],"stateMutability":"nonpayable"},{"type":"function","name":"getExpectedTokenAmount","inputs":[{"name":"_token","type":"address","internalType":"address"},{"name":"_usdcAmount","type":"uint256","internalType":"uint256"}],"outputs":[{"name":"amount_","type":"uint256","internalType":"uint256"}],"stateMutability":"view"},{"type":"function","name":"getLockInfo","inputs":[{"name":"_tokenId","type":"uint256","internalType":"uint256"}],"outputs":[{"name":"subPeriod_","type":"uint256","internalType":"uint256"},{"name":"lockPeriod_","type":"uint256","internalType":"uint256"},{"name":"lockTime_","type":"uint256","internalType":"uint256"},{"name":"category_","type":"uint256","internalType":"uint256"},{"name":"minter_","type":"address","internalType":"address"}],"stateMutability":"view"},{"type":"function","name":"getMintInfo","inputs":[{"name":"_category","type":"uint256","internalType":"uint256"}],"outputs":[{"name":"mintAmount_","type":"uint256","internalType":"uint256"},{"name":"mintPrice_","type":"uint256","internalType":"uint256"},{"name":"lockPeriod_","type":"uint256","internalType":"uint256"}],"stateMutability":"view"},{"type":"function","name":"getNFTOwner","inputs":[{"name":"_tokenId","type":"uint256","internalType":"uint256"}],"outputs":[{"name":"owner_","type":"address","internalType":"address"}],"stateMutability":"view"},{"type":"function","name":"getTokenUri","inputs":[{"name":"_tokenId","type":"uint256","internalType":"uint256"}],"outputs":[{"name":"tokeUri_","type":"string","internalType":"string"}],"stateMutability":"view"},{"type":"function","name":"getTotalSupply","inputs":[],"outputs":[{"name":"","type":"uint256","internalType":"uint256"}],"stateMutability":"view"},{"type":"function","name":"getUserTokenIdList","inputs":[{"name":"_owner","type":"address","internalType":"address"}],"outputs":[{"name":"tokenIds_","type":"uint256[]","internalType":"uint256[]"}],"stateMutability":"view"},{"type":"function","name":"lockNFT","inputs":[{"name":"_tokenId","type":"uint256","internalType":"uint256"}],"outputs":[],"stateMutability":"nonpayable"},{"type":"function","name":"mintToBatch","inputs":[{"name":"_token","type":"address","internalType":"address"},{"name":"_toList","type":"address[]","internalType":"address[]"},{"name":"_periodList","type":"uint256[]","internalType":"uint256[]"},{"name":"_categoryList","type":"uint256[]","internalType":"uint256[]"}],"outputs":[],"stateMutability":"payable"},{"type":"function","name":"onERC721Received","inputs":[{"name":"","type":"address","internalType":"address"},{"name":"","type":"address","internalType":"address"},{"name":"","type":"uint256","internalType":"uint256"},{"name":"","type":"bytes","internalType":"bytes"}],"outputs":[{"name":"","type":"bytes4","internalType":"bytes4"}],"stateMutability":"pure"},{"type":"function","name":"setBaseURI","inputs":[{"name":"_baseUri","type":"string","internalType":"string"},{"name":"_collectionUri","type":"string","internalType":"string"}],"outputs":[],"stateMutability":"nonpayable"},{"type":"function","name":"setMintInfo","inputs":[{"name":"_mintAmount","type":"uint256","internalType":"uint256"},{"name":"_mintPrice","type":"uint256","internalType":"uint256"},{"name":"_lockPeriod","type":"uint256","internalType":"uint256"},{"name":"_category","type":"uint256","internalType":"uint256"}],"outputs":[],"stateMutability":"nonpayable"},{"type":"function","name":"subNFTAddress","inputs":[],"outputs":[{"name":"","type":"address","internalType":"address"}],"stateMutability":"view"},{"type":"function","name":"subNFTTokenList","inputs":[{"name":"","type":"address","internalType":"address"},{"name":"","type":"uint256","internalType":"uint256"}],"outputs":[{"name":"","type":"uint256","internalType":"uint256"}],"stateMutability":"view"},{"type":"function","name":"unlockNFT","inputs":[{"name":"_tokenId","type":"uint256","internalType":"uint256"}],"outputs":[],"stateMutability":"nonpayable"},{"type":"event","name":"SubscriptionERC721Created","inputs":[{"name":"nftCreator","type":"address","indexed":true,"internalType":"address"},{"name":"nftContract","type":"address","indexed":false,"internalType":"address"}],"anonymous":false},{"type":"event","name":"SubscriptionERC721Minted","inputs":[{"name":"receiver","type":"address","indexed":false,"internalType":"address"},{"name":"subscriptionPeriod","type":"uint256","indexed":false,"internalType":"uint256"},{"name":"tokenId","type":"uint256","indexed":true,"internalType":"uint256"}],"anonymous":false},{"type":"event","name":"SubscriptionNFTLocked","inputs":[{"name":"tokenId","type":"uint256","indexed":true,"internalType":"uint256"},{"name":"lockPeriod","type":"uint256","indexed":false,"internalType":"uint256"},{"name":"owner","type":"address","indexed":false,"internalType":"address"}],"anonymous":false},{"type":"event","name":"SubscriptionNFTUnLocked","inputs":[{"name":"tokenId","type":"uint256","indexed":true,"internalType":"uint256"},{"name":"owner","type":"address","indexed":false,"internalType":"address"}],"anonymous":false}],"bytecode":{"object":"0x60c06040523480156200001157600080fd5b506040516200682b3803806200682b833981016040819052620000349162000123565b60016000556001600160a01b038216620000955760405162461bcd60e51b815260206004820152601d60248201527f6f776e61626c65436f6e74726163743a205a65726f206164647265737300000060448201526064015b60405180910390fd5b6001600160a01b038083166080528116620000f35760405162461bcd60e51b815260206004820152601f60248201527f756e6948656c706572436f6e74726163743a205a65726f20616464726573730060448201526064016200008c565b6001600160a01b031660a052506200015b565b80516001600160a01b03811681146200011e57600080fd5b919050565b600080604083850312156200013757600080fd5b620001428362000106565b9150620001526020840162000106565b90509250929050565b60805160a051616656620001d5600039600081816108ed01528181611ef901528181611f7601528181611ffb01526122100152600081816108280152818161092a01528181610d1601528181610f2101528181611463015281816120970152818161229f01528181612343015261246f01526166566000f3fe608060405260043610620001625760003560e01c80638ad9134511620000cf578063c4e41b22116200007d578063deaea2e31162000060578063deaea2e314620004ab578063defcd4b314620004d0578063f826276c14620004e857600080fd5b8063c4e41b22146200042f578063c9102afd146200044757600080fd5b8063b1b2274111620000b2578063b1b2274114620003b1578063c21260a514620003e5578063c2935d13146200040a57600080fd5b80638ad9134514620003655780639abc8320146200039957600080fd5b806342189514116200012d5780636711c37311620001105780636711c37314620002c65780636790a9de14620002eb5780636bba2ff7146200031057600080fd5b806342189514146200026e5780636014606c14620002af57600080fd5b806308e4b463146200016f578063150b7a0214620001a75780632b7170d014620002225780633e96c149146200024957600080fd5b366200016a57005b600080fd5b3480156200017c57600080fd5b50620001946200018e36600462002ff5565b6200050d565b6040519081526020015b60405180910390f35b348015620001b457600080fd5b50620001f0620001c636600462003024565b7f150b7a020000000000000000000000000000000000000000000000000000000095945050505050565b6040517fffffffff0000000000000000000000000000000000000000000000000000000090911681526020016200019e565b3480156200022f57600080fd5b506200024762000241366004620030cc565b6200053f565b005b3480156200025657600080fd5b50620001946200026836600462002ff5565b62000821565b3480156200027b57600080fd5b50620002936200028d366004620030cc565b62000a62565b604080519384526020840192909252908201526060016200019e565b62000247620002c036600462003135565b62000b11565b348015620002d357600080fd5b5062000247620002e536600462003314565b62000d14565b348015620002f857600080fd5b50620002476200030a36600462003314565b62000f1f565b3480156200031d57600080fd5b506008546200033f9073ffffffffffffffffffffffffffffffffffffffff1681565b60405173ffffffffffffffffffffffffffffffffffffffff90911681526020016200019e565b3480156200037257600080fd5b506200038a62000384366004620030cc565b62001149565b6040516200019e9190620033f1565b348015620003a657600080fd5b506200038a6200126f565b348015620003be57600080fd5b50620003d6620003d036600462003406565b62001305565b6040516200019e91906200342d565b348015620003f257600080fd5b506200019462000404366004620030cc565b6200143f565b3480156200041757600080fd5b50620002476200042936600462003473565b62001461565b3480156200043c57600080fd5b5062000194620016c3565b3480156200045457600080fd5b506200046c62000466366004620030cc565b6200175f565b60408051958652602086019490945292840191909152606083015273ffffffffffffffffffffffffffffffffffffffff16608082015260a0016200019e565b348015620004b857600080fd5b506200033f620004ca366004620030cc565b62001845565b348015620004dd57600080fd5b506200038a62001949565b348015620004f557600080fd5b506200024762000507366004620030cc565b62001958565b600560205281600052604060002081815481106200052a57600080fd5b90600052602060002001600091509150505481565b6200054962001cdd565b6007546040517f6352211e0000000000000000000000000000000000000000000000000000000081526004810183905273ffffffffffffffffffffffffffffffffffffffff90911690636352211e90602401602060405180830381865afa158015620005b9573d6000803e3d6000fd5b505050506040513d601f19601f82011682018060405250810190620005df9190620034a6565b73ffffffffffffffffffffffffffffffffffffffff163373ffffffffffffffffffffffffffffffffffffffff161462000679576040517f08c379a000000000000000000000000000000000000000000000000000000000815260206004820152601560248201527f6c6f636b3a206e6f7420746f6b656e206f776e6572000000000000000000000060448201526064015b60405180910390fd5b6000818152600460208190526040909120015473ffffffffffffffffffffffffffffffffffffffff1633146200070c576040517f08c379a000000000000000000000000000000000000000000000000000000000815260206004820152601660248201527f6c6f636b3a206e6f7420746f6b656e206d696e74657200000000000000000000604482015260640162000670565b6007546040517f9036c0500000000000000000000000000000000000000000000000000000000081526004810183905230602482015273ffffffffffffffffffffffffffffffffffffffff90911690639036c05090604401600060405180830381600087803b1580156200077f57600080fd5b505af115801562000794573d6000803e3d6000fd5b505050600082815260046020818152604080842060038082015480875290845282862060029081015496899052948452600182018690554294909101939093558051848152339281019290925291935084917f0bf8275e64e47de3fbe23827caa9b7cf95be0d06a73e56afb99f285381663bf6910160405180910390a250506200081e6001600055565b50565b60008190507f000000000000000000000000000000000000000000000000000000000000000073ffffffffffffffffffffffffffffffffffffffff1663fa5692746040518163ffffffff1660e01b8152600401602060405180830381865afa15801562000892573d6000803e3d6000fd5b505050506040513d601f19601f82011682018060405250810190620008b89190620034a6565b73ffffffffffffffffffffffffffffffffffffffff168373ffffffffffffffffffffffffffffffffffffffff161462000a5c577f000000000000000000000000000000000000000000000000000000000000000073ffffffffffffffffffffffffffffffffffffffff1663eeee26ce837f000000000000000000000000000000000000000000000000000000000000000073ffffffffffffffffffffffffffffffffffffffff1663fa5692746040518163ffffffff1660e01b8152600401602060405180830381865afa15801562000994573d6000803e3d6000fd5b505050506040513d601f19601f82011682018060405250810190620009ba9190620034a6565b6040517fffffffff0000000000000000000000000000000000000000000000000000000060e085901b168152600481019290925273ffffffffffffffffffffffffffffffffffffffff908116602483015286166044820152606401602060405180830381865afa15801562000a33573d6000803e3d6000fd5b505050506040513d601f19601f8201168201806040525081019062000a599190620034c6565b90505b92915050565b60008060008360000362000ad3576040517f08c379a000000000000000000000000000000000000000000000000000000000815260206004820152601260248201527f6765743a207a65726f2063617465676f72790000000000000000000000000000604482015260640162000670565b505050600090815260036020908152604091829020825160608101845281548082526001830154938201849052600290920154930183905292909190565b62000b1b62001cdd565b84801580159062000b2d57506103e881105b62000b95576040517f08c379a000000000000000000000000000000000000000000000000000000000815260206004820152601b60248201527f62617463684d696e743a207a65726f206974656d206c656e6774680000000000604482015260640162000670565b80841462000c00576040517f08c379a000000000000000000000000000000000000000000000000000000000815260206004820152601c60248201527f62617463684d696e743a20626164206974656d2d31206c656e67746800000000604482015260640162000670565b80821462000c6b576040517f08c379a000000000000000000000000000000000000000000000000000000000815260206004820152601c60248201527f62617463684d696e743a20626164206974656d2d32206c656e67746800000000604482015260640162000670565b62000c7a888686868662001d52565b60005b8181101562000cfe5762000cf58989898481811062000ca05762000ca0620034e0565b905060200201602081019062000cb7919062003406565b88888581811062000ccc5762000ccc620034e0565b9050602002013587878681811062000ce85762000ce8620034e0565b9050602002013562002341565b60010162000c7d565b505062000d0b6001600055565b50505050505050565b7f000000000000000000000000000000000000000000000000000000000000000073ffffffffffffffffffffffffffffffffffffffff16633ec045a66040518163ffffffff1660e01b8152600401602060405180830381865afa15801562000d80573d6000803e3d6000fd5b505050506040513d601f19601f8201168201806040525081019062000da69190620034a6565b73ffffffffffffffffffffffffffffffffffffffff163373ffffffffffffffffffffffffffffffffffffffff161462000e3c576040517f08c379a000000000000000000000000000000000000000000000000000000000815260206004820152601960248201527f63616c6c6572206973206e6f74207468652061756469746f7200000000000000604482015260640162000670565b62000e4662001cdd565b6001600283833060405162000e5b9062002fc4565b62000e6b95949392919062003607565b604051809103906000f08015801562000e88573d6000803e3d6000fd5b50600780547fffffffffffffffffffffffff000000000000000000000000000000000000000090811673ffffffffffffffffffffffffffffffffffffffff93909316928317909155600880549091168217905560405190815233907fe2456ef0668a09be4575615c8127f8793202a972ce32e09db0eeb5f1979fbf989060200160405180910390a262000f1b6001600055565b5050565b7f000000000000000000000000000000000000000000000000000000000000000073ffffffffffffffffffffffffffffffffffffffff16633ec045a66040518163ffffffff1660e01b8152600401602060405180830381865afa15801562000f8b573d6000803e3d6000fd5b505050506040513d601f19601f8201168201806040525081019062000fb19190620034a6565b73ffffffffffffffffffffffffffffffffffffffff163373ffffffffffffffffffffffffffffffffffffffff161462001047576040517f08c379a000000000000000000000000000000000000000000000000000000000815260206004820152601960248201527f63616c6c6572206973206e6f74207468652061756469746f7200000000000000604482015260640162000670565b81518290600003620010b6576040517f08c379a000000000000000000000000000000000000000000000000000000000815260206004820152600d60248201527f656d707479206261736555726900000000000000000000000000000000000000604482015260640162000670565b8151829060000362001125576040517f08c379a000000000000000000000000000000000000000000000000000000000815260206004820152601360248201527f656d70747920636f6c6c656374696f6e55726900000000000000000000000000604482015260640162000670565b6001620011338582620036d1565b506002620011428482620036d1565b5050505050565b606081600003620011b7576040517f08c379a000000000000000000000000000000000000000000000000000000000815260206004820152601260248201527f6765743a207a65726f20746f6b656e2069640000000000000000000000000000604482015260640162000670565b6007546040517fc87b56dd0000000000000000000000000000000000000000000000000000000081526004810184905273ffffffffffffffffffffffffffffffffffffffff9091169063c87b56dd90602401600060405180830381865afa15801562001227573d6000803e3d6000fd5b505050506040513d6000823e601f3d9081017fffffffffffffffffffffffffffffffffffffffffffffffffffffffffffffffe016820160405262000a5c9190810190620037f8565b600180546200127e906200350f565b80601f0160208091040260200160405190810160405280929190818152602001828054620012ac906200350f565b8015620012fd5780601f10620012d157610100808354040283529160200191620012fd565b820191906000526020600020905b815481529060010190602001808311620012df57829003601f168201915b505050505081565b606073ffffffffffffffffffffffffffffffffffffffff821662001386576040517f08c379a000000000000000000000000000000000000000000000000000000000815260206004820152600f60248201527f6765743a207a65726f206f776e65720000000000000000000000000000000000604482015260640162000670565b6007546040517f8097110300000000000000000000000000000000000000000000000000000000815273ffffffffffffffffffffffffffffffffffffffff848116600483015290911690638097110390602401600060405180830381865afa158015620013f7573d6000803e3d6000fd5b505050506040513d6000823e601f3d9081017fffffffffffffffffffffffffffffffffffffffffffffffffffffffffffffffe016820160405262000a5c919081019062003878565b600681815481106200145057600080fd5b600091825260209091200154905081565b7f000000000000000000000000000000000000000000000000000000000000000073ffffffffffffffffffffffffffffffffffffffff16633ec045a66040518163ffffffff1660e01b8152600401602060405180830381865afa158015620014cd573d6000803e3d6000fd5b505050506040513d601f19601f82011682018060405250810190620014f39190620034a6565b73ffffffffffffffffffffffffffffffffffffffff163373ffffffffffffffffffffffffffffffffffffffff161462001589576040517f08c379a000000000000000000000000000000000000000000000000000000000815260206004820152601960248201527f63616c6c6572206973206e6f74207468652061756469746f7200000000000000604482015260640162000670565b83600003620015f5576040517f08c379a000000000000000000000000000000000000000000000000000000000815260206004820152601e60248201527f73657441646d696e4d696e743a207a65726f206d696e7420616d6f756e740000604482015260640162000670565b8060000362001661576040517f08c379a000000000000000000000000000000000000000000000000000000000815260206004820152601b60248201527f73657441646d696e4d696e743a207a65726f2063617465676f72790000000000604482015260640162000670565b60008181526003602052604081208054909103620016af57600680546001810182556000919091527ff652222313e28459528d920b65115c16c04f3efc82aaedc97be59f3f377c0d3f018290555b938455506001830191909155600290910155565b600754604080517f18160ddd000000000000000000000000000000000000000000000000000000008152905160009273ffffffffffffffffffffffffffffffffffffffff16916318160ddd9160048083019260209291908290030181865afa15801562001734573d6000803e3d6000fd5b505050506040513d601f19601f820116820180604052508101906200175a9190620034c6565b905090565b600080600080600085600003620017d3576040517f08c379a000000000000000000000000000000000000000000000000000000000815260206004820152601160248201527f6765743a207a65726f20746f6b656e4964000000000000000000000000000000604482015260640162000670565b5050506000928352505060046020818152604092839020835160a081018552815480825260018301549382018490526002830154958201869052600383015460608301819052929094015473ffffffffffffffffffffffffffffffffffffffff16608090910181905292949193929091565b600081600003620018b3576040517f08c379a000000000000000000000000000000000000000000000000000000000815260206004820152601260248201527f6765743a207a65726f20746f6b656e2069640000000000000000000000000000604482015260640162000670565b6007546040517f6352211e0000000000000000000000000000000000000000000000000000000081526004810184905273ffffffffffffffffffffffffffffffffffffffff90911690636352211e90602401602060405180830381865afa15801562001923573d6000803e3d6000fd5b505050506040513d601f19601f8201168201806040525081019062000a5c9190620034a6565b600280546200127e906200350f565b6200196262001cdd565b6007546040517f6352211e0000000000000000000000000000000000000000000000000000000081526004810183905273ffffffffffffffffffffffffffffffffffffffff90911690636352211e90602401602060405180830381865afa158015620019d2573d6000803e3d6000fd5b505050506040513d601f19601f82011682018060405250810190620019f89190620034a6565b73ffffffffffffffffffffffffffffffffffffffff163073ffffffffffffffffffffffffffffffffffffffff161462001a8e576040517f08c379a000000000000000000000000000000000000000000000000000000000815260206004820152601760248201527f756e6c6f636b3a206e6f7420746f6b656e206f776e6572000000000000000000604482015260640162000670565b6000818152600460208190526040909120015473ffffffffffffffffffffffffffffffffffffffff16331462001b21576040517f08c379a000000000000000000000000000000000000000000000000000000000815260206004820152601860248201527f756e6c6f636b3a206e6f7420746f6b656e206d696e7465720000000000000000604482015260640162000670565b600081815260046020818152604092839020835160a08101855281548152600182015492810183905260028201549481018590526003820154606082015292015473ffffffffffffffffffffffffffffffffffffffff166080830152909162001b8a9162003958565b421162001bf4576040517f08c379a000000000000000000000000000000000000000000000000000000000815260206004820152601260248201527f756e6c6f636b3a206c6f636b6564207965740000000000000000000000000000604482015260640162000670565b6007546040517f9036c0500000000000000000000000000000000000000000000000000000000081526004810184905233602482015273ffffffffffffffffffffffffffffffffffffffff90911690639036c05090604401600060405180830381600087803b15801562001c6757600080fd5b505af115801562001c7c573d6000803e3d6000fd5b5050506000838152600460209081526040808320600181018490556002019290925590513381528492507f9d7ae7064b9e89d4b180b297cdbd05ec2251ce94142ab5cc72d13ef64716ea97910160405180910390a2506200081e6001600055565b60026000540362001d4b576040517f08c379a000000000000000000000000000000000000000000000000000000000815260206004820152601f60248201527f5265656e7472616e637947756172643a207265656e7472616e742063616c6c00604482015260640162000670565b6002600055565b6000836103e8811062001dc2576040517f08c379a000000000000000000000000000000000000000000000000000000000815260206004820152600960248201527f6261642061727261790000000000000000000000000000000000000000000000604482015260640162000670565b60005b8181101562001e4a5760006003600087878581811062001de95762001de9620034e0565b90506020020135815260200190815260200160002060010154905062001e3289828a8a8681811062001e1f5762001e1f620034e0565b905060200201356200026891906200396e565b62001e3e908562003958565b93505060010162001dc5565b5073ffffffffffffffffffffffffffffffffffffffff871662001f25578134101562001ed3576040517f08c379a000000000000000000000000000000000000000000000000000000000815260206004820152601c60248201527f68616e646c655061793a20496e73756666696369656e74207061696400000000604482015260640162000670565b8134111562001ef35762001ef33362001eed843462003988565b62002854565b62001f1f7f00000000000000000000000000000000000000000000000000000000000000008362002854565b62002092565b62001f338733308562002969565b6040517fdd62ed3e00000000000000000000000000000000000000000000000000000000815230600482015273ffffffffffffffffffffffffffffffffffffffff7f00000000000000000000000000000000000000000000000000000000000000008116602483015288169063dd62ed3e90604401602060405180830381865afa15801562001fc6573d6000803e3d6000fd5b505050506040513d601f19601f8201168201806040525081019062001fec9190620034c6565b600003620020925762002092877f00000000000000000000000000000000000000000000000000000000000000008973ffffffffffffffffffffffffffffffffffffffff166318160ddd6040518163ffffffff1660e01b8152600401602060405180830381865afa15801562002066573d6000803e3d6000fd5b505050506040513d601f19601f820116820180604052508101906200208c9190620034c6565b62002b92565b6000807f000000000000000000000000000000000000000000000000000000000000000073ffffffffffffffffffffffffffffffffffffffff1663fa5692746040518163ffffffff1660e01b8152600401602060405180830381865afa15801562002101573d6000803e3d6000fd5b505050506040513d601f19601f82011682018060405250810190620021279190620034a6565b90508073ffffffffffffffffffffffffffffffffffffffff168973ffffffffffffffffffffffffffffffffffffffff1603620021665783915062002291565b6000848a83604051602001620021a59392919092835273ffffffffffffffffffffffffffffffffffffffff918216602084015216604082015260600190565b604080517fffffffffffffffffffffffffffffffffffffffffffffffffffffffffffffffe0818403018152908290527fab4e9ba6000000000000000000000000000000000000000000000000000000008252915073ffffffffffffffffffffffffffffffffffffffff7f0000000000000000000000000000000000000000000000000000000000000000169063ab4e9ba69062002247908490600401620033f1565b6020604051808303816000875af115801562002267573d6000803e3d6000fd5b505050506040513d601f19601f820116820180604052508101906200228d9190620034c6565b9250505b8115620023365762002336817f000000000000000000000000000000000000000000000000000000000000000073ffffffffffffffffffffffffffffffffffffffff16637d328e5c6040518163ffffffff1660e01b8152600401602060405180830381865afa15801562002309573d6000803e3d6000fd5b505050506040513d601f19601f820116820180604052508101906200232f9190620034a6565b8462002dab565b505050505050505050565b7f000000000000000000000000000000000000000000000000000000000000000073ffffffffffffffffffffffffffffffffffffffff1663e2f6f5116040518163ffffffff1660e01b8152600401602060405180830381865afa158015620023ad573d6000803e3d6000fd5b505050506040513d601f19601f82011682018060405250810190620023d39190620034a6565b73ffffffffffffffffffffffffffffffffffffffff168473ffffffffffffffffffffffffffffffffffffffff161415801562002424575073ffffffffffffffffffffffffffffffffffffffff841615155b1562002545576040517fbdbef07d00000000000000000000000000000000000000000000000000000000815273ffffffffffffffffffffffffffffffffffffffff85811660048301527f0000000000000000000000000000000000000000000000000000000000000000169063bdbef07d90602401602060405180830381865afa158015620024b7573d6000803e3d6000fd5b505050506040513d601f19601f82011682018060405250810190620024dd91906200399e565b62002545576040517f08c379a000000000000000000000000000000000000000000000000000000000815260206004820152601760248201527f6d696e743a206e6f7420616c6c6f776564206173736574000000000000000000604482015260640162000670565b60085473ffffffffffffffffffffffffffffffffffffffff16620025c6576040517f08c379a000000000000000000000000000000000000000000000000000000000815260206004820152601460248201527f6d696e743a206e6f74206465706c6f7920796574000000000000000000000000604482015260640162000670565b60008181526003602052604081205490036200263f576040517f08c379a000000000000000000000000000000000000000000000000000000000815260206004820152601860248201527f6d696e743a206e6f2061646d696e206d696e7420696e666f0000000000000000604482015260640162000670565b62002649620016c3565b60008281526003602052604090205411620026c1576040517f08c379a000000000000000000000000000000000000000000000000000000000815260206004820152601c60248201527f6d696e743a20657863656564206d6178206d696e7420616d6f756e7400000000604482015260640162000670565b600081815260036020526040902060020154838115620026de5750305b6007546040517f755edd1700000000000000000000000000000000000000000000000000000000815273ffffffffffffffffffffffffffffffffffffffff8381166004830152600092169063755edd17906024016020604051808303816000875af115801562002752573d6000803e3d6000fd5b505050506040513d601f19601f82011682018060405250810190620027789190620034c6565b60008181526004602081905260409091208781556001810186905590810180547fffffffffffffffffffffffff00000000000000000000000000000000000000001633179055600381018690559091508315620027d6574260028201555b73ffffffffffffffffffffffffffffffffffffffff831660008181526005602090815260408083208054600181018255908452928290209092018590558151928352820188905283917ff339f77ef29917341ef747d9d123a5972effad8d265b0f53e463ed3c93173aac910160405180910390a25050505050505050565b6040805160008082526020820190925273ffffffffffffffffffffffffffffffffffffffff84169083906040516200288d9190620039c2565b60006040518083038185875af1925050503d8060008114620028cc576040519150601f19603f3d011682016040523d82523d6000602084013e620028d1565b606091505b505090508062002964576040517f08c379a000000000000000000000000000000000000000000000000000000000815260206004820152602f60248201527f566162626c6544414f3a3a736166655472616e736665724554483a204554482060448201527f7472616e73666572206661696c65640000000000000000000000000000000000606482015260840162000670565b505050565b73ffffffffffffffffffffffffffffffffffffffff84163b620029e9576040517f08c379a000000000000000000000000000000000000000000000000000000000815260206004820152600160248201527f4300000000000000000000000000000000000000000000000000000000000000604482015260640162000670565b6040805173ffffffffffffffffffffffffffffffffffffffff85811660248301528481166044830152606480830185905283518084039091018152608490920183526020820180517bffffffffffffffffffffffffffffffffffffffffffffffffffffffff167f23b872dd00000000000000000000000000000000000000000000000000000000179052915160009283929088169162002a8a9190620039c2565b6000604051808303816000865af19150503d806000811462002ac9576040519150601f19603f3d011682016040523d82523d6000602084013e62002ace565b606091505b509150915081801562002afc57508051158062002afc57508080602001905181019062002afc91906200399e565b62002b8a576040517f08c379a000000000000000000000000000000000000000000000000000000000815260206004820152602c60248201527f566162626c6544414f3a3a7472616e7366657246726f6d3a207472616e73666560448201527f7246726f6d206661696c65640000000000000000000000000000000000000000606482015260840162000670565b505050505050565b73ffffffffffffffffffffffffffffffffffffffff83163b62002c12576040517f08c379a000000000000000000000000000000000000000000000000000000000815260206004820152600160248201527f4300000000000000000000000000000000000000000000000000000000000000604482015260640162000670565b6040805173ffffffffffffffffffffffffffffffffffffffff8481166024830152604480830185905283518084039091018152606490920183526020820180517bffffffffffffffffffffffffffffffffffffffffffffffffffffffff167f095ea7b300000000000000000000000000000000000000000000000000000000179052915160009283929087169162002cab9190620039c2565b6000604051808303816000865af19150503d806000811462002cea576040519150601f19603f3d011682016040523d82523d6000602084013e62002cef565b606091505b509150915081801562002d1d57508051158062002d1d57508080602001905181019062002d1d91906200399e565b62001142576040517f08c379a000000000000000000000000000000000000000000000000000000000815260206004820152602b60248201527f5472616e7366657248656c7065723a3a73616665417070726f76653a2061707060448201527f726f7665206661696c6564000000000000000000000000000000000000000000606482015260840162000670565b73ffffffffffffffffffffffffffffffffffffffff83163b62002e2b576040517f08c379a000000000000000000000000000000000000000000000000000000000815260206004820152600160248201527f4300000000000000000000000000000000000000000000000000000000000000604482015260640162000670565b6040805173ffffffffffffffffffffffffffffffffffffffff8481166024830152604480830185905283518084039091018152606490920183526020820180517bffffffffffffffffffffffffffffffffffffffffffffffffffffffff167fa9059cbb00000000000000000000000000000000000000000000000000000000179052915160009283929087169162002ec49190620039c2565b6000604051808303816000865af19150503d806000811462002f03576040519150601f19603f3d011682016040523d82523d6000602084013e62002f08565b606091505b509150915081801562002f3657508051158062002f3657508080602001905181019062002f3691906200399e565b62001142576040517f08c379a000000000000000000000000000000000000000000000000000000000815260206004820152602860248201527f566162626c6544414f3a3a736166655472616e736665723a207472616e73666560448201527f72206661696c6564000000000000000000000000000000000000000000000000606482015260840162000670565b612c4080620039e183390190565b73ffffffffffffffffffffffffffffffffffffffff811681146200081e57600080fd5b600080604083850312156200300957600080fd5b8235620030168162002fd2565b946020939093013593505050565b6000806000806000608086880312156200303d57600080fd5b85356200304a8162002fd2565b945060208601356200305c8162002fd2565b935060408601359250606086013567ffffffffffffffff808211156200308157600080fd5b818801915088601f8301126200309657600080fd5b813581811115620030a657600080fd5b896020828501011115620030b957600080fd5b9699959850939650602001949392505050565b600060208284031215620030df57600080fd5b5035919050565b60008083601f840112620030f957600080fd5b50813567ffffffffffffffff8111156200311257600080fd5b6020830191508360208260051b85010111156200312e57600080fd5b9250929050565b60008060008060008060006080888a0312156200315157600080fd5b87356200315e8162002fd2565b9650602088013567ffffffffffffffff808211156200317c57600080fd5b6200318a8b838c01620030e6565b909850965060408a0135915080821115620031a457600080fd5b620031b28b838c01620030e6565b909650945060608a0135915080821115620031cc57600080fd5b50620031db8a828b01620030e6565b989b979a50959850939692959293505050565b7f4e487b7100000000000000000000000000000000000000000000000000000000600052604160045260246000fd5b604051601f82017fffffffffffffffffffffffffffffffffffffffffffffffffffffffffffffffe016810167ffffffffffffffff81118282101715620032675762003267620031ee565b604052919050565b600067ffffffffffffffff8211156200328c576200328c620031ee565b50601f017fffffffffffffffffffffffffffffffffffffffffffffffffffffffffffffffe01660200190565b600082601f830112620032ca57600080fd5b8135620032e1620032db826200326f565b6200321d565b818152846020838601011115620032f757600080fd5b816020850160208301376000918101602001919091529392505050565b600080604083850312156200332857600080fd5b823567ffffffffffffffff808211156200334157600080fd5b6200334f86838701620032b8565b935060208501359150808211156200336657600080fd5b506200337585828601620032b8565b9150509250929050565b60005b838110156200339c57818101518382015260200162003382565b50506000910152565b60008151808452620033bf8160208601602086016200337f565b601f017fffffffffffffffffffffffffffffffffffffffffffffffffffffffffffffffe0169290920160200192915050565b60208152600062000a596020830184620033a5565b6000602082840312156200341957600080fd5b8135620034268162002fd2565b9392505050565b6020808252825182820181905260009190848201906040850190845b81811015620034675783518352928401929184019160010162003449565b50909695505050505050565b600080600080608085870312156200348a57600080fd5b5050823594602084013594506040840135936060013592509050565b600060208284031215620034b957600080fd5b8151620034268162002fd2565b600060208284031215620034d957600080fd5b5051919050565b7f4e487b7100000000000000000000000000000000000000000000000000000000600052603260045260246000fd5b600181811c908216806200352457607f821691505b6020821081036200355e577f4e487b7100000000000000000000000000000000000000000000000000000000600052602260045260246000fd5b50919050565b6000815462003573816200350f565b808552602060018381168015620035935760018114620035cc57620035fc565b7fffffffffffffffffffffffffffffffffffffffffffffffffffffffffffffff008516838901528284151560051b8901019550620035fc565b866000528260002060005b85811015620035f45781548a8201860152908301908401620035d7565b890184019650505b505050505092915050565b60a0815260006200361c60a083018862003564565b828103602084015262003630818862003564565b90508281036040840152620036468187620033a5565b905082810360608401526200365c8186620033a5565b91505073ffffffffffffffffffffffffffffffffffffffff831660808301529695505050505050565b601f82111562002964576000816000526020600020601f850160051c81016020861015620036b05750805b601f850160051c820191505b8181101562002b8a57828155600101620036bc565b815167ffffffffffffffff811115620036ee57620036ee620031ee565b6200370681620036ff84546200350f565b8462003685565b602080601f8311600181146200375c5760008415620037255750858301515b7fffffffffffffffffffffffffffffffffffffffffffffffffffffffffffffffff600386901b1c1916600185901b17855562002b8a565b6000858152602081207fffffffffffffffffffffffffffffffffffffffffffffffffffffffffffffffe08616915b82811015620037ab578886015182559484019460019091019084016200378a565b5085821015620037e857878501517fffffffffffffffffffffffffffffffffffffffffffffffffffffffffffffffff600388901b60f8161c191681555b5050505050600190811b01905550565b6000602082840312156200380b57600080fd5b815167ffffffffffffffff8111156200382357600080fd5b8201601f810184136200383557600080fd5b805162003846620032db826200326f565b8181528560208385010111156200385c57600080fd5b6200386f8260208301602086016200337f565b95945050505050565b600060208083850312156200388c57600080fd5b825167ffffffffffffffff80821115620038a557600080fd5b818501915085601f830112620038ba57600080fd5b815181811115620038cf57620038cf620031ee565b8060051b9150620038e28483016200321d565b8181529183018401918481019088841115620038fd57600080fd5b938501935b838510156200391d5784518252938501939085019062003902565b98975050505050505050565b7f4e487b7100000000000000000000000000000000000000000000000000000000600052601160045260246000fd5b8082018082111562000a5c5762000a5c62003929565b808202811582820484141762000a5c5762000a5c62003929565b8181038181111562000a5c5762000a5c62003929565b600060208284031215620039b157600080fd5b815180151581146200342657600080fd5b60008251620039d68184602087016200337f565b919091019291505056fe60a06040523480156200001157600080fd5b5060405162002c4038038062002c40833981016040819052620000349162000158565b82826002620000448382620002c6565b506003620000538282620002c6565b50506001600c5550600e620000698682620002c6565b50600f620000788582620002c6565b506001600160a01b0316608052506200039292505050565b634e487b7160e01b600052604160045260246000fd5b600082601f830112620000b857600080fd5b81516001600160401b0380821115620000d557620000d562000090565b604051601f8301601f19908116603f0116810190828211818310171562000100576200010062000090565b81604052838152602092508660208588010111156200011e57600080fd5b600091505b8382101562000142578582018301518183018401529082019062000123565b6000602085830101528094505050505092915050565b600080600080600060a086880312156200017157600080fd5b85516001600160401b03808211156200018957600080fd5b6200019789838a01620000a6565b96506020880151915080821115620001ae57600080fd5b620001bc89838a01620000a6565b95506040880151915080821115620001d357600080fd5b620001e189838a01620000a6565b94506060880151915080821115620001f857600080fd5b506200020788828901620000a6565b608088015190935090506001600160a01b03811681146200022757600080fd5b809150509295509295909350565b600181811c908216806200024a57607f821691505b6020821081036200026b57634e487b7160e01b600052602260045260246000fd5b50919050565b601f821115620002c1576000816000526020600020601f850160051c810160208610156200029c5750805b601f850160051c820191505b81811015620002bd57828155600101620002a8565b5050505b505050565b81516001600160401b03811115620002e257620002e262000090565b620002fa81620002f3845462000235565b8462000271565b602080601f831160018114620003325760008415620003195750858301515b600019600386901b1c1916600185901b178555620002bd565b600085815260208120601f198616915b82811015620003635788860151825594840194600190910190840162000342565b5085821015620003825787850151600019600388901b60f8161c191681555b5050505050600190811b01905550565b60805161288b620003b5600039600081816102940152610b31015261288b6000f3fe608060405234801561001057600080fd5b50600436106101985760003560e01c806370a08231116100e3578063a22cb4651161008c578063defcd4b311610066578063defcd4b3146103a4578063e8a3d485146103ac578063e985e9c5146103b457600080fd5b8063a22cb4651461036b578063b88d4fde1461037e578063c87b56dd1461039157600080fd5b80639036c050116100bd5780639036c0501461034857806395d89b411461035b5780639abc83201461036357600080fd5b806370a0823114610302578063755edd1714610315578063809711031461032857600080fd5b80632a55205a1161014557806342842e0e1161011f57806342842e0e146102c95780634f6ccce7146102dc5780636352211e146102ef57600080fd5b80632a55205a146102505780632dd310001461028f5780632f745c59146102b657600080fd5b8063095ea7b311610176578063095ea7b31461021257806318160ddd1461022757806323b872dd1461023d57600080fd5b806301ffc9a71461019d57806306fdde03146101c5578063081812fc146101da575b600080fd5b6101b06101ab366004612201565b6103fd565b60405190151581526020015b60405180910390f35b6101cd61040e565b6040516101bc9190612293565b6101ed6101e83660046122a6565b6104a0565b60405173ffffffffffffffffffffffffffffffffffffffff90911681526020016101bc565b6102256102203660046122e3565b6104d4565b005b61022f610665565b6040519081526020016101bc565b61022561024b36600461230d565b610675565b61026361025e366004612349565b610716565b6040805173ffffffffffffffffffffffffffffffffffffffff90931683526020830191909152016101bc565b6101ed7f000000000000000000000000000000000000000000000000000000000000000081565b61022f6102c43660046122e3565b61080d565b6102256102d736600461230d565b6108dc565b61022f6102ea3660046122a6565b6108f7565b6101ed6102fd3660046122a6565b6109b5565b61022f61031036600461236b565b610a41565b61022f61032336600461236b565b610b0f565b61033b61033636600461236b565b610c05565b6040516101bc9190612386565b6102256103563660046123ca565b610c9c565b6101cd610cb4565b6101cd610cc3565b6102256103793660046123f6565b610d51565b61022561038c366004612461565b610d60565b6101cd61039f3660046122a6565b610e08565b6101cd610eee565b6101cd610efb565b6101b06103c236600461255b565b73ffffffffffffffffffffffffffffffffffffffff918216600090815260076020908152604080832093909416825291909152205460ff1690565b600061040882610f0a565b92915050565b60606002805461041d90612585565b80601f016020809104026020016040519081016040528092919081815260200182805461044990612585565b80156104965780601f1061046b57610100808354040283529160200191610496565b820191906000526020600020905b81548152906001019060200180831161047957829003601f168201915b5050505050905090565b60006104ab82610f60565b5060009081526006602052604090205473ffffffffffffffffffffffffffffffffffffffff1690565b60006104df826109b5565b90508073ffffffffffffffffffffffffffffffffffffffff168373ffffffffffffffffffffffffffffffffffffffff16036105a1576040517f08c379a000000000000000000000000000000000000000000000000000000000815260206004820152602160248201527f4552433732313a20617070726f76616c20746f2063757272656e74206f776e6560448201527f720000000000000000000000000000000000000000000000000000000000000060648201526084015b60405180910390fd5b3373ffffffffffffffffffffffffffffffffffffffff821614806105ca57506105ca81336103c2565b610656576040517f08c379a000000000000000000000000000000000000000000000000000000000815260206004820152603d60248201527f4552433732313a20617070726f76652063616c6c6572206973206e6f7420746f60448201527f6b656e206f776e6572206f7220617070726f76656420666f7220616c6c0000006064820152608401610598565b6106608383610fee565b505050565b6000610670600d5490565b905090565b61067f338261108e565b61070b576040517f08c379a000000000000000000000000000000000000000000000000000000000815260206004820152602d60248201527f4552433732313a2063616c6c6572206973206e6f7420746f6b656e206f776e6560448201527f72206f7220617070726f766564000000000000000000000000000000000000006064820152608401610598565b61066083838361114e565b600082815260016020908152604080832081518083019092525473ffffffffffffffffffffffffffffffffffffffff8116808352740100000000000000000000000000000000000000009091046bffffffffffffffffffffffff169282019290925282916107d157506040805180820190915260005473ffffffffffffffffffffffffffffffffffffffff811682527401000000000000000000000000000000000000000090046bffffffffffffffffffffffff1660208201525b6020810151600090612710906107f5906bffffffffffffffffffffffff1687612601565b6107ff9190612618565b915196919550909350505050565b600061081883610a41565b82106108a6576040517f08c379a000000000000000000000000000000000000000000000000000000000815260206004820152602b60248201527f455243373231456e756d657261626c653a206f776e657220696e646578206f7560448201527f74206f6620626f756e64730000000000000000000000000000000000000000006064820152608401610598565b5073ffffffffffffffffffffffffffffffffffffffff919091166000908152600860209081526040808320938352929052205490565b61066083838360405180602001604052806000815250610d60565b6000610902600a5490565b8210610990576040517f08c379a000000000000000000000000000000000000000000000000000000000815260206004820152602c60248201527f455243373231456e756d657261626c653a20676c6f62616c20696e646578206f60448201527f7574206f6620626f756e647300000000000000000000000000000000000000006064820152608401610598565b600a82815481106109a3576109a3612653565b90600052602060002001549050919050565b60008181526004602052604081205473ffffffffffffffffffffffffffffffffffffffff1680610408576040517f08c379a000000000000000000000000000000000000000000000000000000000815260206004820152601860248201527f4552433732313a20696e76616c696420746f6b656e20494400000000000000006044820152606401610598565b600073ffffffffffffffffffffffffffffffffffffffff8216610ae6576040517f08c379a000000000000000000000000000000000000000000000000000000000815260206004820152602960248201527f4552433732313a2061646472657373207a65726f206973206e6f74206120766160448201527f6c6964206f776e657200000000000000000000000000000000000000000000006064820152608401610598565b5073ffffffffffffffffffffffffffffffffffffffff1660009081526005602052604090205490565b6000610b19611456565b3373ffffffffffffffffffffffffffffffffffffffff7f00000000000000000000000000000000000000000000000000000000000000001614610bde576040517f08c379a000000000000000000000000000000000000000000000000000000000815260206004820152602660248201527f6d696e74546f3a2063616c6c6572206973206e6f7420666163746f727920636f60448201527f6e747261637400000000000000000000000000000000000000000000000000006064820152608401610598565b6000610be86114c9565b9050610bf483826114e0565b9050610c006001600c55565b919050565b6060610c1082610a41565b67ffffffffffffffff811115610c2857610c28612432565b604051908082528060200260200182016040528015610c51578160200160208202803683370190505b50905060005b610c6083610a41565b811015610c9657610c71838261080d565b828281518110610c8357610c83612653565b6020908102919091010152600101610c57565b50919050565b6000610ca7836109b5565b9050610660818385610675565b60606003805461041d90612585565b600e8054610cd090612585565b80601f0160208091040260200160405190810160405280929190818152602001828054610cfc90612585565b8015610d495780601f10610d1e57610100808354040283529160200191610d49565b820191906000526020600020905b815481529060010190602001808311610d2c57829003601f168201915b505050505081565b610d5c3383836114fa565b5050565b610d6a338361108e565b610df6576040517f08c379a000000000000000000000000000000000000000000000000000000000815260206004820152602d60248201527f4552433732313a2063616c6c6572206973206e6f7420746f6b656e206f776e6560448201527f72206f7220617070726f766564000000000000000000000000000000000000006064820152608401610598565b610e0284848484611627565b50505050565b60008181526004602052604090205460609073ffffffffffffffffffffffffffffffffffffffff16610ebc576040517f08c379a000000000000000000000000000000000000000000000000000000000815260206004820152602f60248201527f4552433732314d657461646174613a2055524920717565727920666f72206e6f60448201527f6e6578697374656e7420746f6b656e00000000000000000000000000000000006064820152608401610598565b600e610ec7836116ca565b604051602001610ed892919061269e565b6040516020818303038152906040529050919050565b600f8054610cd090612585565b6060600f805461041d90612585565b60007fffffffff0000000000000000000000000000000000000000000000000000000082167f780e9d63000000000000000000000000000000000000000000000000000000001480610408575061040882611788565b60008181526004602052604090205473ffffffffffffffffffffffffffffffffffffffff16610feb576040517f08c379a000000000000000000000000000000000000000000000000000000000815260206004820152601860248201527f4552433732313a20696e76616c696420746f6b656e20494400000000000000006044820152606401610598565b50565b600081815260066020526040902080547fffffffffffffffffffffffff00000000000000000000000000000000000000001673ffffffffffffffffffffffffffffffffffffffff84169081179091558190611048826109b5565b73ffffffffffffffffffffffffffffffffffffffff167f8c5be1e5ebec7d5bd14f71427d1e84f3dd0314c0f7b2291e5b200ac8c7c3b92560405160405180910390a45050565b60008061109a836109b5565b90508073ffffffffffffffffffffffffffffffffffffffff168473ffffffffffffffffffffffffffffffffffffffff161480611108575073ffffffffffffffffffffffffffffffffffffffff80821660009081526007602090815260408083209388168352929052205460ff165b8061114657508373ffffffffffffffffffffffffffffffffffffffff1661112e846104a0565b73ffffffffffffffffffffffffffffffffffffffff16145b949350505050565b8273ffffffffffffffffffffffffffffffffffffffff1661116e826109b5565b73ffffffffffffffffffffffffffffffffffffffff1614611211576040517f08c379a000000000000000000000000000000000000000000000000000000000815260206004820152602560248201527f4552433732313a207472616e736665722066726f6d20696e636f72726563742060448201527f6f776e65720000000000000000000000000000000000000000000000000000006064820152608401610598565b73ffffffffffffffffffffffffffffffffffffffff82166112b3576040517f08c379a0000000000000000000000000000000000000000000000000000000008152602060048201526024808201527f4552433732313a207472616e7366657220746f20746865207a65726f2061646460448201527f72657373000000000000000000000000000000000000000000000000000000006064820152608401610598565b6112c0838383600161182a565b8273ffffffffffffffffffffffffffffffffffffffff166112e0826109b5565b73ffffffffffffffffffffffffffffffffffffffff1614611383576040517f08c379a000000000000000000000000000000000000000000000000000000000815260206004820152602560248201527f4552433732313a207472616e736665722066726f6d20696e636f72726563742060448201527f6f776e65720000000000000000000000000000000000000000000000000000006064820152608401610598565b600081815260066020908152604080832080547fffffffffffffffffffffffff000000000000000000000000000000000000000090811690915573ffffffffffffffffffffffffffffffffffffffff8781168086526005855283862080547fffffffffffffffffffffffffffffffffffffffffffffffffffffffffffffffff01905590871680865283862080546001019055868652600490945282852080549092168417909155905184937fddf252ad1be2c89b69c2b068fc378daa952ba7f163c4a11628f55a4df523b3ef91a4505050565b6002600c54036114c2576040517f08c379a000000000000000000000000000000000000000000000000000000000815260206004820152601f60248201527f5265656e7472616e637947756172643a207265656e7472616e742063616c6c006044820152606401610598565b6002600c55565b60006114d9600d80546001019055565b50600d5490565b610d5c828260405180602001604052806000815250611836565b8173ffffffffffffffffffffffffffffffffffffffff168373ffffffffffffffffffffffffffffffffffffffff160361158f576040517f08c379a000000000000000000000000000000000000000000000000000000000815260206004820152601960248201527f4552433732313a20617070726f766520746f2063616c6c6572000000000000006044820152606401610598565b73ffffffffffffffffffffffffffffffffffffffff83811660008181526007602090815260408083209487168084529482529182902080547fffffffffffffffffffffffffffffffffffffffffffffffffffffffffffffff001686151590811790915591519182527f17307eab39ab6107e8899845ad3d59bd9653f200f220920489ca2b5937696c31910160405180910390a3505050565b61163284848461114e565b61163e848484846118d9565b610e02576040517f08c379a000000000000000000000000000000000000000000000000000000000815260206004820152603260248201527f4552433732313a207472616e7366657220746f206e6f6e20455243373231526560448201527f63656976657220696d706c656d656e74657200000000000000000000000000006064820152608401610598565b606060006116d783611acc565b600101905060008167ffffffffffffffff8111156116f7576116f7612432565b6040519080825280601f01601f191660200182016040528015611721576020820181803683370190505b5090508181016020015b7fffffffffffffffffffffffffffffffffffffffffffffffffffffffffffffffff017f3031323334353637383961626364656600000000000000000000000000000000600a86061a8153600a850494508461172b57509392505050565b60007fffffffff0000000000000000000000000000000000000000000000000000000082167f80ac58cd00000000000000000000000000000000000000000000000000000000148061181b57507fffffffff0000000000000000000000000000000000000000000000000000000082167f5b5e139f00000000000000000000000000000000000000000000000000000000145b80610408575061040882611bae565b610e0284848484611c45565b6118408383611de9565b61184d60008484846118d9565b610660576040517f08c379a000000000000000000000000000000000000000000000000000000000815260206004820152603260248201527f4552433732313a207472616e7366657220746f206e6f6e20455243373231526560448201527f63656976657220696d706c656d656e74657200000000000000000000000000006064820152608401610598565b600073ffffffffffffffffffffffffffffffffffffffff84163b15611ac1576040517f150b7a0200000000000000000000000000000000000000000000000000000000815273ffffffffffffffffffffffffffffffffffffffff85169063150b7a02906119509033908990889088906004016127ad565b6020604051808303816000875af19250505080156119a9575060408051601f3d9081017fffffffffffffffffffffffffffffffffffffffffffffffffffffffffffffffe01682019092526119a6918101906127f6565b60015b611a76573d8080156119d7576040519150601f19603f3d011682016040523d82523d6000602084013e6119dc565b606091505b508051600003611a6e576040517f08c379a000000000000000000000000000000000000000000000000000000000815260206004820152603260248201527f4552433732313a207472616e7366657220746f206e6f6e20455243373231526560448201527f63656976657220696d706c656d656e74657200000000000000000000000000006064820152608401610598565b805181602001fd5b7fffffffff00000000000000000000000000000000000000000000000000000000167f150b7a0200000000000000000000000000000000000000000000000000000000149050611146565b506001949350505050565b6000807a184f03e93ff9f4daa797ed6e38ed64bf6a1f0100000000000000008310611b15577a184f03e93ff9f4daa797ed6e38ed64bf6a1f010000000000000000830492506040015b6d04ee2d6d415b85acef81000000008310611b41576d04ee2d6d415b85acef8100000000830492506020015b662386f26fc100008310611b5f57662386f26fc10000830492506010015b6305f5e1008310611b77576305f5e100830492506008015b6127108310611b8b57612710830492506004015b60648310611b9d576064830492506002015b600a83106104085760010192915050565b60007fffffffff0000000000000000000000000000000000000000000000000000000082167f2a55205a00000000000000000000000000000000000000000000000000000000148061040857507f01ffc9a7000000000000000000000000000000000000000000000000000000007fffffffff00000000000000000000000000000000000000000000000000000000831614610408565b6001811115611cd6576040517f08c379a000000000000000000000000000000000000000000000000000000000815260206004820152603560248201527f455243373231456e756d657261626c653a20636f6e736563757469766520747260448201527f616e7366657273206e6f7420737570706f7274656400000000000000000000006064820152608401610598565b8173ffffffffffffffffffffffffffffffffffffffff8516611d3f57611d3a81600a80546000838152600b60205260408120829055600182018355919091527fc65a7bb8d6351c1cf70c95a316cc6a92839c986682d98bc35f958f4883f9d2a80155565b611d7c565b8373ffffffffffffffffffffffffffffffffffffffff168573ffffffffffffffffffffffffffffffffffffffff1614611d7c57611d7c858261201c565b73ffffffffffffffffffffffffffffffffffffffff8416611da557611da0816120d3565b611de2565b8473ffffffffffffffffffffffffffffffffffffffff168473ffffffffffffffffffffffffffffffffffffffff1614611de257611de28482612182565b5050505050565b73ffffffffffffffffffffffffffffffffffffffff8216611e66576040517f08c379a000000000000000000000000000000000000000000000000000000000815260206004820181905260248201527f4552433732313a206d696e7420746f20746865207a65726f20616464726573736044820152606401610598565b60008181526004602052604090205473ffffffffffffffffffffffffffffffffffffffff1615611ef2576040517f08c379a000000000000000000000000000000000000000000000000000000000815260206004820152601c60248201527f4552433732313a20746f6b656e20616c7265616479206d696e746564000000006044820152606401610598565b611f0060008383600161182a565b60008181526004602052604090205473ffffffffffffffffffffffffffffffffffffffff1615611f8c576040517f08c379a000000000000000000000000000000000000000000000000000000000815260206004820152601c60248201527f4552433732313a20746f6b656e20616c7265616479206d696e746564000000006044820152606401610598565b73ffffffffffffffffffffffffffffffffffffffff8216600081815260056020908152604080832080546001019055848352600490915280822080547fffffffffffffffffffffffff0000000000000000000000000000000000000000168417905551839291907fddf252ad1be2c89b69c2b068fc378daa952ba7f163c4a11628f55a4df523b3ef908290a45050565b6000600161202984610a41565b6120339190612813565b6000838152600960205260409020549091508082146120935773ffffffffffffffffffffffffffffffffffffffff841660009081526008602090815260408083208584528252808320548484528184208190558352600990915290208190555b50600091825260096020908152604080842084905573ffffffffffffffffffffffffffffffffffffffff9094168352600881528383209183525290812055565b600a546000906120e590600190612813565b6000838152600b6020526040812054600a805493945090928490811061210d5761210d612653565b9060005260206000200154905080600a838154811061212e5761212e612653565b6000918252602080832090910192909255828152600b9091526040808220849055858252812055600a80548061216657612166612826565b6001900381819060005260206000200160009055905550505050565b600061218d83610a41565b73ffffffffffffffffffffffffffffffffffffffff9093166000908152600860209081526040808320868452825280832085905593825260099052919091209190915550565b7fffffffff0000000000000000000000000000000000000000000000000000000081168114610feb57600080fd5b60006020828403121561221357600080fd5b813561221e816121d3565b9392505050565b60005b83811015612240578181015183820152602001612228565b50506000910152565b60008151808452612261816020860160208601612225565b601f017fffffffffffffffffffffffffffffffffffffffffffffffffffffffffffffffe0169290920160200192915050565b60208152600061221e6020830184612249565b6000602082840312156122b857600080fd5b5035919050565b803573ffffffffffffffffffffffffffffffffffffffff81168114610c0057600080fd5b600080604083850312156122f657600080fd5b6122ff836122bf565b946020939093013593505050565b60008060006060848603121561232257600080fd5b61232b846122bf565b9250612339602085016122bf565b9150604084013590509250925092565b6000806040838503121561235c57600080fd5b50508035926020909101359150565b60006020828403121561237d57600080fd5b61221e826122bf565b6020808252825182820181905260009190848201906040850190845b818110156123be578351835292840192918401916001016123a2565b50909695505050505050565b600080604083850312156123dd57600080fd5b823591506123ed602084016122bf565b90509250929050565b6000806040838503121561240957600080fd5b612412836122bf565b91506020830135801515811461242757600080fd5b809150509250929050565b7f4e487b7100000000000000000000000000000000000000000000000000000000600052604160045260246000fd5b6000806000806080858703121561247757600080fd5b612480856122bf565b935061248e602086016122bf565b925060408501359150606085013567ffffffffffffffff808211156124b257600080fd5b818701915087601f8301126124c657600080fd5b8135818111156124d8576124d8612432565b604051601f82017fffffffffffffffffffffffffffffffffffffffffffffffffffffffffffffffe0908116603f0116810190838211818310171561251e5761251e612432565b816040528281528a602084870101111561253757600080fd5b82602086016020830137600060208483010152809550505050505092959194509250565b6000806040838503121561256e57600080fd5b612577836122bf565b91506123ed602084016122bf565b600181811c9082168061259957607f821691505b602082108103610c96577f4e487b7100000000000000000000000000000000000000000000000000000000600052602260045260246000fd5b7f4e487b7100000000000000000000000000000000000000000000000000000000600052601160045260246000fd5b8082028115828204841417610408576104086125d2565b60008261264e577f4e487b7100000000000000000000000000000000000000000000000000000000600052601260045260246000fd5b500490565b7f4e487b7100000000000000000000000000000000000000000000000000000000600052603260045260246000fd5b60008151612694818560208601612225565b9290920192915050565b60008084548160018260011c915060018316806126bc57607f831692505b602080841082036126f4577f4e487b710000000000000000000000000000000000000000000000000000000086526022600452602486fd5b818015612708576001811461273b57612768565b7fffffffffffffffffffffffffffffffffffffffffffffffffffffffffffffff0086168952841515850289019650612768565b60008b81526020902060005b868110156127605781548b820152908501908301612747565b505084890196505b5050505050506127a461277b8286612682565b7f2e6a736f6e000000000000000000000000000000000000000000000000000000815260050190565b95945050505050565b600073ffffffffffffffffffffffffffffffffffffffff8087168352808616602084015250836040830152608060608301526127ec6080830184612249565b9695505050505050565b60006020828403121561280857600080fd5b815161221e816121d3565b81810381811115610408576104086125d2565b7f4e487b7100000000000000000000000000000000000000000000000000000000600052603160045260246000fdfea264697066735822122068cf5c620dcf8e2f5baba18d74940eade01878ff06be7574d06a5b0525b7fabb64736f6c63430008180033a2646970667358221220383f03b78c8344a4867e2ede90cf29f6ad30bf59409eedd4c7bfd615113d24dd64736f6c63430008180033","linkReferences":{}},"methodIdentifiers":{"baseUri()":"9abc8320","categoryList(uint256)":"c21260a5","collectionUri()":"defcd4b3","deploySubNFTContract(string,string)":"6711c373","getExpectedTokenAmount(address,uint256)":"3e96c149","getLockInfo(uint256)":"c9102afd","getMintInfo(uint256)":"42189514","getNFTOwner(uint256)":"deaea2e3","getTokenUri(uint256)":"8ad91345","getTotalSupply()":"c4e41b22","getUserTokenIdList(address)":"b1b22741","lockNFT(uint256)":"2b7170d0","mintToBatch(address,address[],uint256[],uint256[])":"6014606c","onERC721Received(address,address,uint256,bytes)":"150b7a02","setBaseURI(string,string)":"6790a9de","setMintInfo(uint256,uint256,uint256,uint256)":"c2935d13","subNFTAddress()":"6bba2ff7","subNFTTokenList(address,uint256)":"08e4b463","unlockNFT(uint256)":"f826276c"},"id":1}