{"abi":[{"type":"constructor","inputs":[{"name":"_ownable","type":"address","internalType":"address"},{"name":"_uniHelper","type":"address","internalType":"address"},{"name":"_vote","type":"address","internalType":"address"},{"name":"_staking","type":"address","internalType":"address"}],"stateMutability":"nonpayable"},{"type":"function","name":"DAO_FUND_REWARD","inputs":[],"outputs":[{"name":"","type":"address","internalType":"address"}],"stateMutability":"view"},{"type":"function","name":"agentVotePeriod","inputs":[],"outputs":[{"name":"","type":"uint256","internalType":"uint256"}],"stateMutability":"view"},{"type":"function","name":"availableVABAmount","inputs":[],"outputs":[{"name":"","type":"uint256","internalType":"uint256"}],"stateMutability":"view"},{"type":"function","name":"boardRewardRate","inputs":[],"outputs":[{"name":"","type":"uint256","internalType":"uint256"}],"stateMutability":"view"},{"type":"function","name":"boardVotePeriod","inputs":[],"outputs":[{"name":"","type":"uint256","internalType":"uint256"}],"stateMutability":"view"},{"type":"function","name":"boardVoteWeight","inputs":[],"outputs":[{"name":"","type":"uint256","internalType":"uint256"}],"stateMutability":"view"},{"type":"function","name":"checkGovWhitelist","inputs":[{"name":"_flag","type":"uint256","internalType":"uint256"},{"name":"_address","type":"address","internalType":"address"}],"outputs":[{"name":"","type":"uint256","internalType":"uint256"}],"stateMutability":"view"},{"type":"function","name":"checkPropertyWhitelist","inputs":[{"name":"_flag","type":"uint256","internalType":"uint256"},{"name":"_property","type":"uint256","internalType":"uint256"}],"outputs":[{"name":"","type":"uint256","internalType":"uint256"}],"stateMutability":"view"},{"type":"function","name":"disputeGracePeriod","inputs":[],"outputs":[{"name":"","type":"uint256","internalType":"uint256"}],"stateMutability":"view"},{"type":"function","name":"filmRewardClaimPeriod","inputs":[],"outputs":[{"name":"","type":"uint256","internalType":"uint256"}],"stateMutability":"view"},{"type":"function","name":"filmVotePeriod","inputs":[],"outputs":[{"name":"","type":"uint256","internalType":"uint256"}],"stateMutability":"view"},{"type":"function","name":"fundFeePercent","inputs":[],"outputs":[{"name":"","type":"uint256","internalType":"uint256"}],"stateMutability":"view"},{"type":"function","name":"getAgentProposerStakeAmount","inputs":[{"name":"_index","type":"uint256","internalType":"uint256"}],"outputs":[{"name":"","type":"uint256","internalType":"uint256"}],"stateMutability":"view"},{"type":"function","name":"getAllGovProposalInfo","inputs":[{"name":"_flag","type":"uint256","internalType":"uint256"}],"outputs":[{"name":"","type":"address[]","internalType":"address[]"}],"stateMutability":"view"},{"type":"function","name":"getGovProposalInfo","inputs":[{"name":"_index","type":"uint256","internalType":"uint256"},{"name":"_flag","type":"uint256","internalType":"uint256"}],"outputs":[{"name":"","type":"uint256","internalType":"uint256"},{"name":"","type":"uint256","internalType":"uint256"},{"name":"","type":"uint256","internalType":"uint256"},{"name":"","type":"address","internalType":"address"},{"name":"","type":"address","internalType":"address"},{"name":"","type":"uint8","internalType":"enum Helper.Status"}],"stateMutability":"view"},{"type":"function","name":"getGovProposalList","inputs":[{"name":"_flag","type":"uint256","internalType":"uint256"}],"outputs":[{"name":"","type":"address[]","internalType":"address[]"}],"stateMutability":"view"},{"type":"function","name":"getGovProposalStr","inputs":[{"name":"_index","type":"uint256","internalType":"uint256"},{"name":"_flag","type":"uint256","internalType":"uint256"}],"outputs":[{"name":"","type":"string","internalType":"string"},{"name":"","type":"string","internalType":"string"}],"stateMutability":"view"},{"type":"function","name":"getPropertyProposalInfo","inputs":[{"name":"_index","type":"uint256","internalType":"uint256"},{"name":"_flag","type":"uint256","internalType":"uint256"}],"outputs":[{"name":"","type":"uint256","internalType":"uint256"},{"name":"","type":"uint256","internalType":"uint256"},{"name":"","type":"uint256","internalType":"uint256"},{"name":"","type":"uint256","internalType":"uint256"},{"name":"","type":"address","internalType":"address"},{"name":"","type":"uint8","internalType":"enum Helper.Status"}],"stateMutability":"view"},{"type":"function","name":"getPropertyProposalList","inputs":[{"name":"_flag","type":"uint256","internalType":"uint256"}],"outputs":[{"name":"_list","type":"uint256[]","internalType":"uint256[]"}],"stateMutability":"view"},{"type":"function","name":"getPropertyProposalStr","inputs":[{"name":"_index","type":"uint256","internalType":"uint256"},{"name":"_flag","type":"uint256","internalType":"uint256"}],"outputs":[{"name":"","type":"string","internalType":"string"},{"name":"","type":"string","internalType":"string"}],"stateMutability":"view"},{"type":"function","name":"governanceProposalCount","inputs":[],"outputs":[{"name":"","type":"uint256","internalType":"uint256"}],"stateMutability":"view"},{"type":"function","name":"lockPeriod","inputs":[],"outputs":[{"name":"","type":"uint256","internalType":"uint256"}],"stateMutability":"view"},{"type":"function","name":"maxAllowPeriod","inputs":[],"outputs":[{"name":"","type":"uint256","internalType":"uint256"}],"stateMutability":"view"},{"type":"function","name":"maxDepositAmount","inputs":[],"outputs":[{"name":"","type":"uint256","internalType":"uint256"}],"stateMutability":"view"},{"type":"function","name":"maxMintFeePercent","inputs":[],"outputs":[{"name":"","type":"uint256","internalType":"uint256"}],"stateMutability":"view"},{"type":"function","name":"minDepositAmount","inputs":[],"outputs":[{"name":"","type":"uint256","internalType":"uint256"}],"stateMutability":"view"},{"type":"function","name":"minStakerCountPercent","inputs":[],"outputs":[{"name":"","type":"uint256","internalType":"uint256"}],"stateMutability":"view"},{"type":"function","name":"minVoteCount","inputs":[],"outputs":[{"name":"","type":"uint256","internalType":"uint256"}],"stateMutability":"view"},{"type":"function","name":"propertyVotePeriod","inputs":[],"outputs":[{"name":"","type":"uint256","internalType":"uint256"}],"stateMutability":"view"},{"type":"function","name":"proposalAuditor","inputs":[{"name":"_agent","type":"address","internalType":"address"},{"name":"_title","type":"string","internalType":"string"},{"name":"_description","type":"string","internalType":"string"}],"outputs":[],"stateMutability":"nonpayable"},{"type":"function","name":"proposalFeeAmount","inputs":[],"outputs":[{"name":"","type":"uint256","internalType":"uint256"}],"stateMutability":"view"},{"type":"function","name":"proposalFilmBoard","inputs":[{"name":"_member","type":"address","internalType":"address"},{"name":"_title","type":"string","internalType":"string"},{"name":"_description","type":"string","internalType":"string"}],"outputs":[],"stateMutability":"nonpayable"},{"type":"function","name":"proposalProperty","inputs":[{"name":"_property","type":"uint256","internalType":"uint256"},{"name":"_flag","type":"uint256","internalType":"uint256"},{"name":"_title","type":"string","internalType":"string"},{"name":"_description","type":"string","internalType":"string"}],"outputs":[],"stateMutability":"nonpayable"},{"type":"function","name":"proposalRewardFund","inputs":[{"name":"_rewardAddress","type":"address","internalType":"address"},{"name":"_title","type":"string","internalType":"string"},{"name":"_description","type":"string","internalType":"string"}],"outputs":[],"stateMutability":"nonpayable"},{"type":"function","name":"removeFilmBoardMember","inputs":[{"name":"_member","type":"address","internalType":"address"}],"outputs":[],"stateMutability":"nonpayable"},{"type":"function","name":"rewardRate","inputs":[],"outputs":[{"name":"","type":"uint256","internalType":"uint256"}],"stateMutability":"view"},{"type":"function","name":"rewardVotePeriod","inputs":[],"outputs":[{"name":"","type":"uint256","internalType":"uint256"}],"stateMutability":"view"},{"type":"function","name":"subscriptionAmount","inputs":[],"outputs":[{"name":"","type":"uint256","internalType":"uint256"}],"stateMutability":"view"},{"type":"function","name":"updateGovProposal","inputs":[{"name":"_index","type":"uint256","internalType":"uint256"},{"name":"_flag","type":"uint256","internalType":"uint256"},{"name":"_approveStatus","type":"uint256","internalType":"uint256"}],"outputs":[],"stateMutability":"nonpayable"},{"type":"function","name":"updatePropertyProposal","inputs":[{"name":"_index","type":"uint256","internalType":"uint256"},{"name":"_flag","type":"uint256","internalType":"uint256"},{"name":"_approveStatus","type":"uint256","internalType":"uint256"}],"outputs":[],"stateMutability":"nonpayable"},{"type":"function","name":"userGovProposalCount","inputs":[{"name":"","type":"address","internalType":"address"}],"outputs":[{"name":"","type":"uint256","internalType":"uint256"}],"stateMutability":"view"},{"type":"event","name":"AuditorProposalCreated","inputs":[{"name":"creator","type":"address","indexed":true,"internalType":"address"},{"name":"member","type":"address","indexed":false,"internalType":"address"},{"name":"title","type":"string","indexed":false,"internalType":"string"},{"name":"description","type":"string","indexed":false,"internalType":"string"}],"anonymous":false},{"type":"event","name":"FilmBoardMemberRemoved","inputs":[{"name":"caller","type":"address","indexed":true,"internalType":"address"},{"name":"member","type":"address","indexed":false,"internalType":"address"}],"anonymous":false},{"type":"event","name":"FilmBoardProposalCreated","inputs":[{"name":"creator","type":"address","indexed":true,"internalType":"address"},{"name":"member","type":"address","indexed":false,"internalType":"address"},{"name":"title","type":"string","indexed":false,"internalType":"string"},{"name":"description","type":"string","indexed":false,"internalType":"string"}],"anonymous":false},{"type":"event","name":"PropertyProposalCreated","inputs":[{"name":"creator","type":"address","indexed":true,"internalType":"address"},{"name":"property","type":"uint256","indexed":false,"internalType":"uint256"},{"name":"flag","type":"uint256","indexed":false,"internalType":"uint256"},{"name":"title","type":"string","indexed":false,"internalType":"string"},{"name":"description","type":"string","indexed":false,"internalType":"string"}],"anonymous":false},{"type":"event","name":"RewardFundProposalCreated","inputs":[{"name":"creator","type":"address","indexed":true,"internalType":"address"},{"name":"member","type":"address","indexed":false,"internalType":"address"},{"name":"title","type":"string","indexed":false,"internalType":"string"},{"name":"description","type":"string","indexed":false,"internalType":"string"}],"anonymous":false}],"bytecode":{"object":"0x6101006040523480156200001257600080fd5b50604051620064b0380380620064b0833981016040819052620000359162000cdd565b60016000556001600160a01b038416620000965760405162461bcd60e51b815260206004820152601560248201527f6f776e61626c653a207a65726f2061646472657373000000000000000000000060448201526064015b60405180910390fd5b6001600160a01b038085166080528316620000f45760405162461bcd60e51b815260206004820152601760248201527f756e6948656c7065723a207a65726f206164647265737300000000000000000060448201526064016200008d565b6001600160a01b0380841660e0528216620001475760405162461bcd60e51b8152602060048201526012602482015271766f74653a207a65726f206164647265737360701b60448201526064016200008d565b6001600160a01b0380831660a0528116620001a55760405162461bcd60e51b815260206004820152601560248201527f7374616b696e673a207a65726f2061646472657373000000000000000000000060448201526064016200008d565b6001600160a01b0380821660c052620d2f00600281905562127500601255600381905562278d00600481815560059290925562093a8060145560068190556276a70060095560085563b2d05e00601355622625a0600755639502f900601655630bebc200600b55633b9aca00600e55631dcd650060105560408051633e95a49d60e21b8152905160009388169263fa569274928082019260209290918290030181865afa1580156200025b573d6000803e3d6000fd5b505050506040513d601f19601f8201168201806040525081019062000281919062000d3a565b90506000856001600160a01b031663e2f6f5116040518163ffffffff1660e01b8152600401602060405180830381865afa158015620002c4573d6000803e3d6000fd5b505050506040513d601f19601f82011682018060405250810190620002ea919062000d3a565b9050816001600160a01b031663313ce5676040518163ffffffff1660e01b8152600401602060405180830381865afa1580156200032b573d6000803e3d6000fd5b505050506040513d601f19601f8201168201806040525081019062000351919062000d5f565b6200035e90600a62000e99565b6200036b90601462000eaa565b600a81905550816001600160a01b031663313ce5676040518163ffffffff1660e01b8152600401602060405180830381865afa158015620003b0573d6000803e3d6000fd5b505050506040513d601f19601f82011682018060405250810190620003d6919062000d5f565b620003e390600a62000e99565b620003f090603262000eaa565b600c81905550816001600160a01b031663313ce5676040518163ffffffff1660e01b8152600401602060405180830381865afa15801562000435573d6000803e3d6000fd5b505050506040513d601f19601f820116820180604052508101906200045b919062000d5f565b6200046890600a62000e99565b620004769061138862000eaa565b600d81905550806001600160a01b031663313ce5676040518163ffffffff1660e01b8152600401602060405180830381865afa158015620004bb573d6000803e3d6000fd5b505050506040513d601f19601f82011682018060405250810190620004e1919062000d5f565b620004ee90600a62000e99565b620004fe906302faf08062000eaa565b6011819055506064826001600160a01b031663313ce5676040518163ffffffff1660e01b8152600401602060405180830381865afa15801562000545573d6000803e3d6000fd5b505050506040513d601f19601f820116820180604052508101906200056b919062000d5f565b6200057890600a62000e99565b620005869061012b62000eaa565b62000592919062000ec4565b6015819055506001600f81905550604051806102a0016040528062093a80815260200162093a80815260200162093a80815260200162093a80815260200162093a80815260200162030d40815260200162015180815260200162093a808152602001836001600160a01b031663313ce5676040518163ffffffff1660e01b8152600401602060405180830381865afa15801562000633573d6000803e3d6000fd5b505050506040513d601f19601f8201168201806040525081019062000659919062000d5f565b6200066690600a62000e99565b6200067390601462000eaa565b8152602001630bebc2008152602001836001600160a01b031663313ce5676040518163ffffffff1660e01b8152600401602060405180830381865afa158015620006c1573d6000803e3d6000fd5b505050506040513d601f19601f82011682018060405250810190620006e7919062000d5f565b620006f490600a62000e99565b6200070190600562000eaa565b8152602001836001600160a01b031663313ce5676040518163ffffffff1660e01b8152600401602060405180830381865afa15801562000745573d6000803e3d6000fd5b505050506040513d601f19601f820116820180604052508101906200076b919062000d5f565b6200077890600a62000e99565b6200078590600562000eaa565b81526020016305f5e1008152602001600181526020016311e1a3008152602001826001600160a01b031663313ce5676040518163ffffffff1660e01b8152600401602060405180830381865afa158015620007e4573d6000803e3d6000fd5b505050506040513d601f19601f820116820180604052508101906200080a919062000d5f565b6200081790600a62000e99565b62000827906302faf08062000eaa565b815260200162093a808152602001631dcd6500815260200162093a8081526020016064846001600160a01b031663313ce5676040518163ffffffff1660e01b8152600401602060405180830381865afa15801562000889573d6000803e3d6000fd5b505050506040513d601f19601f82011682018060405250810190620008af919062000d5f565b620008bc90600a62000e99565b620008ca9061012b62000eaa565b620008d6919062000ec4565b81526305f5e100602090910152620008f390601890601562000c59565b50604051806102a001604052806276a70081526020016276a70081526020016276a70081526020016276a70081526020016276a70081526020016258804081526020016276a70081526020016276a7008152602001836001600160a01b031663313ce5676040518163ffffffff1660e01b8152600401602060405180830381865afa15801562000987573d6000803e3d6000fd5b505050506040513d601f19601f82011682018060405250810190620009ad919062000d5f565b620009ba90600a62000e99565b620009c8906101f462000eaa565b8152602001633b9aca008152602001836001600160a01b031663313ce5676040518163ffffffff1660e01b8152600401602060405180830381865afa15801562000a16573d6000803e3d6000fd5b505050506040513d601f19601f8201168201806040525081019062000a3c919062000d5f565b62000a4990600a62000e99565b62000a58906298968062000eaa565b8152602001836001600160a01b031663313ce5676040518163ffffffff1660e01b8152600401602060405180830381865afa15801562000a9c573d6000803e3d6000fd5b505050506040513d601f19601f8201168201806040525081019062000ac2919062000d5f565b62000acf90600a62000e99565b62000ade906298968062000eaa565b8152602001633b9aca008152602001600a8152602001633b9aca008152602001826001600160a01b031663313ce5676040518163ffffffff1660e01b8152600401602060405180830381865afa15801562000b3d573d6000803e3d6000fd5b505050506040513d601f19601f8201168201806040525081019062000b63919062000d5f565b62000b7090600a62000e99565b62000b8090630bebc20062000eaa565b81526020016276a700815260200163b2d05e0081526020016276a70081526020016064846001600160a01b031663313ce5676040518163ffffffff1660e01b8152600401602060405180830381865afa15801562000be2573d6000803e3d6000fd5b505050506040513d601f19601f8201168201806040525081019062000c08919062000d5f565b62000c1590600a62000e99565b62000c239061270f62000eaa565b62000c2f919062000ec4565b8152637735940060209091015262000c4c90601790601562000c59565b5050505050505062000ee7565b82805482825590600052602060002090810192821562000c97579160200282015b8281111562000c9757825182559160200191906001019062000c7a565b5062000ca592915062000ca9565b5090565b5b8082111562000ca5576000815560010162000caa565b80516001600160a01b038116811462000cd857600080fd5b919050565b6000806000806080858703121562000cf457600080fd5b62000cff8562000cc0565b935062000d0f6020860162000cc0565b925062000d1f6040860162000cc0565b915062000d2f6060860162000cc0565b905092959194509250565b60006020828403121562000d4d57600080fd5b62000d588262000cc0565b9392505050565b60006020828403121562000d7257600080fd5b815160ff8116811462000d5857600080fd5b634e487b7160e01b600052601160045260246000fd5b600181815b8085111562000ddb57816000190482111562000dbf5762000dbf62000d84565b8085161562000dcd57918102915b93841c939080029062000d9f565b509250929050565b60008262000df45750600162000e93565b8162000e035750600062000e93565b816001811462000e1c576002811462000e275762000e47565b600191505062000e93565b60ff84111562000e3b5762000e3b62000d84565b50506001821b62000e93565b5060208310610133831016604e8410600b841016171562000e6c575081810a62000e93565b62000e78838362000d9a565b806000190482111562000e8f5762000e8f62000d84565b0290505b92915050565b600062000d5860ff84168362000de3565b808202811582820484141762000e935762000e9362000d84565b60008262000ee257634e487b7160e01b600052601260045260246000fd5b500490565b60805160a05160c05160e05161551162000f9f6000396000614575015260008181610b6f01528181610e52015281816112d5015281816115ad01528181611d9901528181612d38015281816136350152818161388501528181613c4101528181613d640152818161411d015281816142c901528181614674015281816146f401526147a90152600081816105bb015281816137be01526139f0015260008181613e8f0152818161442201526144a801526155116000f3fe608060405234801561001057600080fd5b50600436106102d35760003560e01c80638ed8327111610186578063bd038cd4116100e3578063dcccc8e811610097578063f2a3b34311610071578063f2a3b34314610581578063f8a149cc1461058a578063fd35e2241461059d57600080fd5b8063dcccc8e814610545578063eb7c5fbb14610558578063ef75552c1461057857600080fd5b8063cb9f7d23116100c8578063cb9f7d231461052a578063d56b587414610533578063da18716f1461053c57600080fd5b8063bd038cd414610518578063c4ad4fbd1461052157600080fd5b8063a6be63be1161013a578063b1276d891161011f578063b1276d89146104e6578063b35cf4bf146104ef578063bc2a78c31461050f57600080fd5b8063a6be63be146104ae578063ac92074e146104d357600080fd5b8063999a4fc41161016b578063999a4fc41461046d578063a0658cef14610476578063a3b135611461048957600080fd5b80638ed83271146104515780638f5518701461045a57600080fd5b80634be520e21161023457806368477d58116101e85780637b0a47ee116101cd5780637b0a47ee14610422578063814f10b61461042b57806382f94d951461043e57600080fd5b806368477d58146103d95780636ea0cce31461040f57600080fd5b80635e28407d116102195780635e28407d1461039c57806363d8efb5146103af578063645006ca146103d057600080fd5b80634be520e21461038a57806354f8a8c21461039357600080fd5b80632145fb481161028b5780633fd8b02f116102705780633fd8b02f1461036f57806340be28831461037857806341d4e3511461038157600080fd5b80632145fb48146103465780633346cfb61461036657600080fd5b806309eca169116102bc57806309eca169146102fd5780630b63a6e1146103285780631d00c7fa1461033157600080fd5b806303b9b14c146102d857806306b25c7b146102f4575b600080fd5b6102e1600b5481565b6040519081526020015b60405180910390f35b6102e1600a5481565b600154610310906001600160a01b031681565b6040516001600160a01b0390911681526020016102eb565b6102e160045481565b61034461033f366004614cda565b6105b0565b005b610359610354366004614d06565b6108c3565b6040516102eb9190614d1f565b6102e160105481565b6102e160065481565b6102e1600f5481565b6102e160025481565b6102e160085481565b6102e160155481565b6102e16103aa366004614d6c565b61092f565b6103c26103bd366004614d6c565b610950565b6040516102eb929190614dfc565b6102e1600c5481565b6102e16103e7366004614e3f565b60009182526033602090815260408084206001600160a01b0393909316845291905290205490565b61034461041d366004614f49565b610b3e565b6102e160075481565b610359610439366004614d06565b61104b565b61034461044c366004614f49565b6112a7565b6102e1600d5481565b6103c2610468366004614d6c565b61178e565b6102e160055481565b6102e1610484366004614d06565b611958565b61049c610497366004614d6c565b611986565b6040516102eb96959493929190615029565b6104c16104bc366004614d6c565b611b9f565b6040516102eb9695949392919061506d565b6103446104e13660046150a6565b611d6b565b6102e160195481565b6105026104fd366004614d06565b612e53565b6040516102eb919061511d565b6102e1600e5481565b6102e160095481565b6102e160135481565b6102e160165481565b6102e160035481565b6102e160125481565b610344610553366004615155565b613607565b6102e1610566366004615155565b60386020526000908152604090205481565b6102e160115481565b6102e160145481565b610344610598366004614cda565b6139e5565b6103446105ab366004614f49565b613d33565b336001600160a01b037f0000000000000000000000000000000000000000000000000000000000000000161461062d5760405162461bcd60e51b815260206004820152601f60248201527f63616c6c6572206973206e6f742074686520766f746520636f6e74726163740060448201526064015b60405180910390fd5b6000828152603660209081526040808320868452909152902060058101544260039092019190915560018290036106d2576000838152603660209081526040808320878452825280832060060180547fffffffffffffffffffffff00ffffffffffffffffffffffffffffffffffffffff16740100000000000000000000000000000000000000001790558583526034825280832084845290915290206002905561073f565b6000838152603660209081526040808320878452825280832060060180547fffffffffffffffffffffff00ffffffffffffffffffffffffffffffffffffffff1674040000000000000000000000000000000000000000179055858352603482528083208484529091528120555b816001036108bd57826000036107595760028190556108bd565b8260010361076b5760038190556108bd565b8260020361077d5760048190556108bd565b8260030361078f5760058190556108bd565b826004036107a15760068190556108bd565b826005036107b35760078190556108bd565b826006036107c55760088190556108bd565b826007036107d75760098190556108bd565b826008036107e957600a8190556108bd565b826009036107fb57600b8190556108bd565b82600a0361080d57600c8190556108bd565b82600b0361081f57600d8190556108bd565b82600c0361083157600e8190556108bd565b82600d0361084357600f8190556108bd565b82600e036108555760108190556108bd565b82600f036108675760118190556108bd565b826010036108795760128190556108bd565b8260110361088b5760138190556108bd565b8260120361089d5760148190556108bd565b826013036108af5760158190556108bd565b826014036108bd5760168190555b50505050565b60008181526037602090815260409182902080548351818402810184019094528084526060939283018282801561092357602002820191906000526020600020905b81546001600160a01b03168152600190910190602001808311610905575b50505050509050919050565b60008281526034602090815260408083208484529091529020545b92915050565b60608060006036600085815260200190815260200160002060008681526020019081526020016000206040518061010001604052908160008201805461099590615179565b80601f01602080910402602001604051908101604052809291908181526020018280546109c190615179565b8015610a0e5780601f106109e357610100808354040283529160200191610a0e565b820191906000526020600020905b8154815290600101906020018083116109f157829003601f168201915b50505050508152602001600182018054610a2790615179565b80601f0160208091040260200160405190810160405280929190818152602001828054610a5390615179565b8015610aa05780601f10610a7557610100808354040283529160200191610aa0565b820191906000526020600020905b815481529060010190602001808311610a8357829003601f168201915b5050509183525050600282015460208201526003820154604082015260048201546060820152600580830154608083015260068301546001600160a01b03811660a084015260c09092019174010000000000000000000000000000000000000000900460ff1690811115610b1657610b16614fbf565b6005811115610b2757610b27614fbf565b905250805160209091015190969095509350505050565b6011546040517f0c2eb4030000000000000000000000000000000000000000000000000000000081523360048201527f00000000000000000000000000000000000000000000000000000000000000006001600160a01b031690630c2eb40390602401602060405180830381865afa158015610bbe573d6000803e3d6000fd5b505050506040513d601f19601f82011682018060405250810190610be291906151cc565b1015610c305760405162461bcd60e51b815260206004820152600960248201527f4e6f74206d616a6f7200000000000000000000000000000000000000000000006044820152606401610624565b610c386143c5565b6001600160a01b038316610c8e5760405162461bcd60e51b815260206004820152600960248201527f7052463a207a65726f00000000000000000000000000000000000000000000006044820152606401610624565b6001600160a01b03831660009081527fe88f4be96ed539661cee3b41510d312b428e0ad7225259b5c818476011acd4af602052604090205415610d135760405162461bcd60e51b815260206004820152601660248201527f7052463a20616c72656164792063616e646964617465000000000000000000006044820152606401610624565b610d2a600a54600a610d259190615214565b61441e565b60305460009081527fe5602d426990c0b7b248ffeae167f30eba43086d790c7aa793e2bf3d0e5939196020526040902080610d658482615273565b5060018101610d748382615273565b5042600282018190556005820180546001600160a01b038781167fffffffffffffffffffffffff0000000000000000000000000000000000000000909216919091179091556006830180547fffffffffffffffffffffff00ffffffffffffffffffffffffffffffffffffffff339081167fffffffffffffffffffffff000000000000000000000000000000000000000000909216919091179091556014546040517f4037f8aa0000000000000000000000000000000000000000000000000000000081526004810192909252602482019390935260448101929092527f00000000000000000000000000000000000000000000000000000000000000001690634037f8aa906064016020604051808303816000875af1158015610e9b573d6000803e3d6000fd5b505050506040513d601f19601f82011682018060405250810190610ebf91906151cc565b60048201556001600160a01b03841660009081527fe88f4be96ed539661cee3b41510d312b428e0ad7225259b5c818476011acd4af602052604081206001908190556019805491929091610f1490849061538d565b9091555050336000908152603860205260408120805460019290610f3990849061538d565b909155505060376020527f81d0999fde243adcc41b7fa1be5cea14f789e3a6065b815ac58f4bc0838c3155805460018181019092557fc5e939af4ad9ec52215436cdae422a4d44cb030db6a8769f824f07d08288fcdd0180546001600160a01b0387167fffffffffffffffffffffffff000000000000000000000000000000000000000091821681179092556030805493840181556000527f6ff97a59c90d62cc7236ba3a37cd85351bf564556780cf8c1157a220f31f0cbb909201805490921617905560405133907fefb847defb19fc0750143c2b0770cb73c541e41364fe326173bc04357cfae78d90611033908790879087906153a0565b60405180910390a2506110466001600055565b505050565b6060811580159061105c5750600582105b6110a85760405162461bcd60e51b815260206004820152600860248201527f62616420666c61670000000000000000000000000000000000000000000000006044820152606401610624565b8160010361117257602f5460009067ffffffffffffffff8111156110ce576110ce614e6f565b6040519080825280602002602001820160405280156110f7578160200160208202803683370190505b50905060005b602f5481101561116b57602f818154811061111a5761111a6153de565b600091825260209091206002909102015482516001600160a01b039091169083908390811061114b5761114b6153de565b6001600160a01b03909216602092830291909101909101526001016110fd565b5092915050565b816002036111da576031805480602002602001604051908101604052809291908181526020018280548015610923576020028201919060005260206000209081546001600160a01b031681526001909101906020018083116109055750505050509050919050565b81600303611242576030805480602002602001604051908101604052809291908181526020018280548015610923576020028201919060005260206000209081546001600160a01b031681526001909101906020018083116109055750505050509050919050565b6032805480602002602001604051908101604052809291908181526020018280548015610923576020028201919060005260206000209081546001600160a01b031681526001909101906020018083116109055750505050509050919050565b919050565b6040517f0c2eb4030000000000000000000000000000000000000000000000000000000081523360048201527f00000000000000000000000000000000000000000000000000000000000000006001600160a01b031690630c2eb40390602401602060405180830381865afa158015611324573d6000803e3d6000fd5b505050506040513d601f19601f8201168201806040525081019061134891906151cc565b6000036113975760405162461bcd60e51b815260206004820152600a60248201527f4e6f74207374616b6572000000000000000000000000000000000000000000006044820152606401610624565b61139f6143c5565b6001600160a01b0383166113f55760405162461bcd60e51b815260206004820152600960248201527f7046423a207a65726f00000000000000000000000000000000000000000000006044820152606401610624565b6001600160a01b03831660009081527f4c61297e4655be30d3d195f2bd8fb04ca1887c13893ca54a860373a17c0d760460205260409020541561147a5760405162461bcd60e51b815260206004820152601660248201527f7046423a20616c72656164792063616e646964617465000000000000000000006044820152606401610624565b611485600a5461441e565b60315460009081527ff45abd214a7998af36d567f4bc75c5d50e868cf767d965b54d3b0f5c6200ab6460205260409020806114c08482615273565b50600181016114cf8382615273565b5042600282018190556005820180546001600160a01b038781167fffffffffffffffffffffffff0000000000000000000000000000000000000000909216919091179091556006830180547fffffffffffffffffffffff00ffffffffffffffffffffffffffffffffffffffff339081167fffffffffffffffffffffff000000000000000000000000000000000000000000909216919091179091556012546040517f4037f8aa0000000000000000000000000000000000000000000000000000000081526004810192909252602482019390935260448101929092527f00000000000000000000000000000000000000000000000000000000000000001690634037f8aa906064016020604051808303816000875af11580156115f6573d6000803e3d6000fd5b505050506040513d601f19601f8201168201806040525081019061161a91906151cc565b60048201556001600160a01b03841660009081527f4c61297e4655be30d3d195f2bd8fb04ca1887c13893ca54a860373a17c0d760460205260408120600190819055601980549192909161166f90849061538d565b909155505033600090815260386020526040812080546001929061169490849061538d565b909155505060376020527f67dcc86da9aaaf40a183002157e56801115aa6057705e43279b4c1c90942d6b2805460018181019092557fa3f4856930af8b405d0c4dfd71f5e436241d797d5312971aeb91eb56f8a5c0120180546001600160a01b0387167fffffffffffffffffffffffff000000000000000000000000000000000000000091821681179092556031805493840181556000527fc54045fa7c6ec765e825df7f9e9bf9dec12c5cef146f93a5eee56772ee647fbc909201805490921617905560405133907f073a273fd3d419a0d24840be1b45b44d4233d4d2a60f957ca3883689d9beb76390611033908790879087906153a0565b6060806000603560008581526020019081526020016000206000868152602001908152602001600020604051806101000160405290816000820180546117d390615179565b80601f01602080910402602001604051908101604052809291908181526020018280546117ff90615179565b801561184c5780601f106118215761010080835404028352916020019161184c565b820191906000526020600020905b81548152906001019060200180831161182f57829003601f168201915b5050505050815260200160018201805461186590615179565b80601f016020809104026020016040519081016040528092919081815260200182805461189190615179565b80156118de5780601f106118b3576101008083540402835291602001916118de565b820191906000526020600020905b8154815290600101906020018083116118c157829003601f168201915b50505091835250506002820154602082015260038201546040820152600482015460608201526005808301546001600160a01b039081166080840152600684015490811660a084015260c09092019174010000000000000000000000000000000000000000900460ff1690811115610b1657610b16614fbf565b6000602f828154811061196d5761196d6153de565b9060005260206000209060020201600101549050919050565b60008060008060008060006035600089815260200190815260200160002060008a8152602001908152602001600020604051806101000160405290816000820180546119d190615179565b80601f01602080910402602001604051908101604052809291908181526020018280546119fd90615179565b8015611a4a5780601f10611a1f57610100808354040283529160200191611a4a565b820191906000526020600020905b815481529060010190602001808311611a2d57829003601f168201915b50505050508152602001600182018054611a6390615179565b80601f0160208091040260200160405190810160405280929190818152602001828054611a8f90615179565b8015611adc5780601f10611ab157610100808354040283529160200191611adc565b820191906000526020600020905b815481529060010190602001808311611abf57829003601f168201915b50505091835250506002820154602082015260038201546040820152600482015460608201526005808301546001600160a01b039081166080840152600684015490811660a084015260c09092019174010000000000000000000000000000000000000000900460ff1690811115611b5657611b56614fbf565b6005811115611b6757611b67614fbf565b90525060408101516060820151608083015160a084015160c085015160e090950151939e929d50909b50995091975095509350505050565b60008060008060008060006036600089815260200190815260200160002060008a815260200190815260200160002060405180610100016040529081600082018054611bea90615179565b80601f0160208091040260200160405190810160405280929190818152602001828054611c1690615179565b8015611c635780601f10611c3857610100808354040283529160200191611c63565b820191906000526020600020905b815481529060010190602001808311611c4657829003601f168201915b50505050508152602001600182018054611c7c90615179565b80601f0160208091040260200160405190810160405280929190818152602001828054611ca890615179565b8015611cf55780601f10611cca57610100808354040283529160200191611cf5565b820191906000526020600020905b815481529060010190602001808311611cd857829003601f168201915b5050509183525050600282015460208201526003820154604082015260048201546060820152600580830154608083015260068301546001600160a01b03811660a084015260c09092019174010000000000000000000000000000000000000000900460ff1690811115611b5657611b56614fbf565b6040517f0c2eb4030000000000000000000000000000000000000000000000000000000081523360048201527f00000000000000000000000000000000000000000000000000000000000000006001600160a01b031690630c2eb40390602401602060405180830381865afa158015611de8573d6000803e3d6000fd5b505050506040513d601f19601f82011682018060405250810190611e0c91906151cc565b600003611e5b5760405162461bcd60e51b815260206004820152600a60248201527f4e6f74207374616b6572000000000000000000000000000000000000000000006044820152606401610624565b611e636143c5565b8315801590611e70575060015b8015611e7d575060175483105b611ec95760405162461bcd60e51b815260206004820152600d60248201527f70503a206261642076616c7565000000000000000000000000000000000000006044820152606401610624565b600083815260346020908152604080832087845290915290205415611f305760405162461bcd60e51b815260206004820152601560248201527f70503a20616c72656164792063616e64696461746500000000000000000000006044820152606401610624565b8360188481548110611f4457611f446153de565b906000526020600020015411158015611f7a575060178381548110611f6b57611f6b6153de565b90600052602060002001548411155b611fc65760405162461bcd60e51b815260206004820152600b60248201527f70503a20696e76616c69640000000000000000000000000000000000000000006044820152606401610624565b611fd1600a5461441e565b60008360000361206857846002540361202c5760405162461bcd60e51b815260206004820152601a60248201527f70503a20616c72656164792066696c6d566f7465506572696f640000000000006044820152606401610624565b50601a80546001810182556000919091527f057c384a7d1c54f3a1b2e5e67b2617b8224fdfd1ea7234eea573a6ff665ff63e8101859055612c54565b836001036120fd5784600354036120c15760405162461bcd60e51b815260206004820152601b60248201527f70503a20616c7265616479206167656e74566f7465506572696f6400000000006044820152606401610624565b50601b80546001810182556000919091527f3ad8aa4f87544323a9d1e5dd902f40c356527a7955687113db5f9a85ad579dc18101859055612c54565b836002036121925784600454036121565760405162461bcd60e51b815260206004820152601e60248201527f70503a20616c726561647920646973707574654772616365506572696f6400006044820152606401610624565b50601c80546001810182556000919091527f0e4562a10381dec21b205ed72637e6b1b523bdd0e4d4d50af5cd23dd4500a2118101859055612c54565b836003036122275784600554036121eb5760405162461bcd60e51b815260206004820152601e60248201527f70503a20616c72656164792070726f7065727479566f7465506572696f6400006044820152606401610624565b50601d80546001810182556000919091527f6d4407e7be21f808e6509aa9fa9143369579dd7d760fe20a2c09680fc146134f8101859055612c54565b836004036122bc5784600654036122805760405162461bcd60e51b815260206004820152601660248201527f70503a20616c7265616479206c6f636b506572696f64000000000000000000006044820152606401610624565b50601e80546001810182556000919091527f50bb669a95c7b50b7e8a6f09454034b2b14cf2b85c730dca9a539ca82cb6e3508101859055612c54565b836005036123515784600754036123155760405162461bcd60e51b815260206004820152601660248201527f70503a20616c72656164792072657761726452617465000000000000000000006044820152606401610624565b50601f80546001810182556000919091527fa03837a25210ee280c2113ff4b77ca23440b19d4866cca721c801278fd08d8078101859055612c54565b8360060361240c5784600854036123d05760405162461bcd60e51b815260206004820152602160248201527f70503a20616c72656164792066696c6d526577617264436c61696d506572696f60448201527f64000000000000000000000000000000000000000000000000000000000000006064820152608401610624565b50602080546001810182556000919091527fc97bfaf2f8ee708c303a06d134f5ecd8389ae0432af62dc132a24118292866bb8101859055612c54565b836007036124a15784600954036124655760405162461bcd60e51b815260206004820152601a60248201527f70503a20616c7265616479206d6178416c6c6f77506572696f640000000000006044820152606401610624565b50602180546001810182556000919091527f3a6357012c1a3ae0a17d304c9920310382d968ebcc4b1771f41c6b304205b5708101859055612c54565b836008036125365784600a54036124fa5760405162461bcd60e51b815260206004820152601d60248201527f70503a20616c72656164792070726f706f73616c466565416d6f756e740000006044820152606401610624565b50602280546001810182556000919091527f61035b26e3e9eee00e0d72fd1ee8ddca6894550dca6916ea2ac6baa90d11e5108101859055612c54565b836009036125cb5784600b540361258f5760405162461bcd60e51b815260206004820152601a60248201527f70503a20616c72656164792066756e6446656550657263656e740000000000006044820152606401610624565b50602380546001810182556000919091527fd57b2b5166478fd4318d2acc6cc2c704584312bdd8781b32d5d06abda57f42308101859055612c54565b83600a036126605784600c54036126245760405162461bcd60e51b815260206004820152601c60248201527f70503a20616c7265616479206d696e4465706f736974416d6f756e74000000006044820152606401610624565b50602480546001810182556000919091527f7cd332d19b93bcabe3cce7ca0c18a052f57e5fd03b4758a09f30f5ddc4b22ec48101859055612c54565b83600b036126f55784600d54036126b95760405162461bcd60e51b815260206004820152601c60248201527f70503a20616c7265616479206d61784465706f736974416d6f756e74000000006044820152606401610624565b50602580546001810182556000919091527f401968ff42a154441da5f6c4c935ac46b8671f0e062baaa62a7545ba53bb6e4c8101859055612c54565b83600c0361278a5784600e540361274e5760405162461bcd60e51b815260206004820152601d60248201527f70503a20616c7265616479206d61784d696e7446656550657263656e740000006044820152606401610624565b50602680546001810182556000919091527f744a2cf8fd7008e3d53b67916e73460df9fa5214e3ef23dd4259ca09493a35948101859055612c54565b83600d0361281f5784600f54036127e35760405162461bcd60e51b815260206004820152601860248201527f70503a20616c7265616479206d696e566f7465436f756e7400000000000000006044820152606401610624565b50602780546001810182556000919091527f98a476f1687bc3d60a2da2adbcba2c46958e61fa2fb4042cd7bc5816a710195b8101859055612c54565b83600e036128da57846010540361289e5760405162461bcd60e51b815260206004820152602160248201527f70503a20616c7265616479206d696e5374616b6572436f756e7450657263656e60448201527f74000000000000000000000000000000000000000000000000000000000000006064820152608401610624565b50602880546001810182556000919091527fe16da923a2d88192e5070f37b4571d58682c0d66212ec634d495f33de3f77ab58101859055612c54565b83600f0361296f5784601154036129335760405162461bcd60e51b815260206004820152601e60248201527f70503a20616c726561647920617661696c61626c65564142416d6f756e7400006044820152606401610624565b50602980546001810182556000919091527fcb7c14ce178f56e2e8d86ab33ebc0ae081ba8556a00cd122038841867181caac8101859055612c54565b83601003612a045784601254036129c85760405162461bcd60e51b815260206004820152601b60248201527f70503a20616c726561647920626f617264566f7465506572696f6400000000006044820152606401610624565b50602a80546001810182556000919091527fbeced09521047d05b8960b7e7bcc1d1292cf3e4b2a6b63f48335cbde5f7545d28101859055612c54565b83601103612a99578460135403612a5d5760405162461bcd60e51b815260206004820152601b60248201527f70503a20616c726561647920626f617264566f746557656967687400000000006044820152606401610624565b50602b80546001810182556000919091527f11c44e4875b74d31ff9fd779bf2566af7bd15b87fc985d01f5094b89e3669e4f8101859055612c54565b83601203612b2e578460145403612af25760405162461bcd60e51b815260206004820152601c60248201527f70503a20616c726561647920726577617264566f7465506572696f64000000006044820152606401610624565b50602c80546001810182556000919091527f7416c943b4a09859521022fd2e90eac0dd9026dad28fa317782a135f28a860918101859055612c54565b83601303612bc3578460155403612b875760405162461bcd60e51b815260206004820152601e60248201527f70503a20616c726561647920737562736372697074696f6e416d6f756e7400006044820152606401610624565b50602d80546001810182556000919091527f4a2cc91ee622da3bc833a54c37ffcb6f3ec23b7793efc5eaf5e71b7b406c5c068101859055612c54565b83601403612c54578460165403612c1c5760405162461bcd60e51b815260206004820152601b60248201527f70503a20616c726561647920626f6172645265776172645261746500000000006044820152606401610624565b50602e80546001810182556000919091527f37fa166cbdbfbb1561ccd9ea985ec0218b5e68502e230525f544285b2bdf3d7e81018590555b6000848152603660209081526040808320848452909152902080612c788582615273565b5060018101612c878482615273565b50426002820181905560058083018890556006830180547fffffffffffffffffffffff00ffffffffffffffffffffffffffffffffffffffff339081167fffffffffffffffffffffff0000000000000000000000000000000000000000009092169190911790915590546040517f4037f8aa0000000000000000000000000000000000000000000000000000000081526004810192909252602482019290925260448101919091526001600160a01b037f00000000000000000000000000000000000000000000000000000000000000001690634037f8aa906064016020604051808303816000875af1158015612d81573d6000803e3d6000fd5b505050506040513d601f19601f82011682018060405250810190612da591906151cc565b8160040181905550600160196000828254612dc0919061538d565b9091555050336000908152603860205260408120805460019290612de590849061538d565b9091555050600085815260346020908152604080832089845290915290819020600190555133907f525af3b2c674c5c4b0e536c2756eb8111f2fa70f8e7ebd601c51c1e9bc4e777390612e3f90899089908990899061540d565b60405180910390a250506108bd6001600055565b606081600003612eb457601a80548060200260200160405190810160405280929190818152602001828054801561092357602002820191906000526020600020905b815481526020019060010190808311612e955750505050509050919050565b81600103612f1257601b8054806020026020016040519081016040528092919081815260200182805480156109235760200282019190600052602060002090815481526020019060010190808311612e955750505050509050919050565b81600203612f7057601c8054806020026020016040519081016040528092919081815260200182805480156109235760200282019190600052602060002090815481526020019060010190808311612e955750505050509050919050565b81600303612fce57601d8054806020026020016040519081016040528092919081815260200182805480156109235760200282019190600052602060002090815481526020019060010190808311612e955750505050509050919050565b8160040361302c57601e8054806020026020016040519081016040528092919081815260200182805480156109235760200282019190600052602060002090815481526020019060010190808311612e955750505050509050919050565b8160050361308a57601f8054806020026020016040519081016040528092919081815260200182805480156109235760200282019190600052602060002090815481526020019060010190808311612e955750505050509050919050565b816006036130e3576020805460408051828402810184019091528181529190828201828280156109235760200282019190600052602060002090815481526020019060010190808311612e955750505050509050919050565b816007036131415760218054806020026020016040519081016040528092919081815260200182805480156109235760200282019190600052602060002090815481526020019060010190808311612e955750505050509050919050565b8160080361319f5760228054806020026020016040519081016040528092919081815260200182805480156109235760200282019190600052602060002090815481526020019060010190808311612e955750505050509050919050565b816009036131fd5760238054806020026020016040519081016040528092919081815260200182805480156109235760200282019190600052602060002090815481526020019060010190808311612e955750505050509050919050565b81600a0361325b5760248054806020026020016040519081016040528092919081815260200182805480156109235760200282019190600052602060002090815481526020019060010190808311612e955750505050509050919050565b81600b036132b95760258054806020026020016040519081016040528092919081815260200182805480156109235760200282019190600052602060002090815481526020019060010190808311612e955750505050509050919050565b81600c036133175760268054806020026020016040519081016040528092919081815260200182805480156109235760200282019190600052602060002090815481526020019060010190808311612e955750505050509050919050565b81600d036133755760278054806020026020016040519081016040528092919081815260200182805480156109235760200282019190600052602060002090815481526020019060010190808311612e955750505050509050919050565b81600e036133d35760288054806020026020016040519081016040528092919081815260200182805480156109235760200282019190600052602060002090815481526020019060010190808311612e955750505050509050919050565b81600f036134315760298054806020026020016040519081016040528092919081815260200182805480156109235760200282019190600052602060002090815481526020019060010190808311612e955750505050509050919050565b8160100361348f57602a8054806020026020016040519081016040528092919081815260200182805480156109235760200282019190600052602060002090815481526020019060010190808311612e955750505050509050919050565b816011036134ed57602b8054806020026020016040519081016040528092919081815260200182805480156109235760200282019190600052602060002090815481526020019060010190808311612e955750505050509050919050565b8160120361354b57602c8054806020026020016040519081016040528092919081815260200182805480156109235760200282019190600052602060002090815481526020019060010190808311612e955750505050509050919050565b816013036135a957602d8054806020026020016040519081016040528092919081815260200182805480156109235760200282019190600052602060002090815481526020019060010190808311612e955750505050509050919050565b816014036112a257602e8054806020026020016040519081016040528092919081815260200182805480156109235760200282019190600052602060002090815481526020019060010190808311612e955750505050509050919050565b6040517f0c2eb4030000000000000000000000000000000000000000000000000000000081523360048201527f00000000000000000000000000000000000000000000000000000000000000006001600160a01b031690630c2eb40390602401602060405180830381865afa158015613684573d6000803e3d6000fd5b505050506040513d601f19601f820116820180604052508101906136a891906151cc565b6000036136f75760405162461bcd60e51b815260206004820152600a60248201527f4e6f74207374616b6572000000000000000000000000000000000000000000006044820152606401610624565b6136ff6143c5565b6001600160a01b03811660009081527f4c61297e4655be30d3d195f2bd8fb04ca1887c13893ca54a860373a17c0d760460205260409020546002146137865760405162461bcd60e51b815260206004820152601660248201527f7246424d3a206e6f7420626f617264206d656d626572000000000000000000006044820152606401610624565b6040517fda081df00000000000000000000000000000000000000000000000000000000081526001600160a01b0382811660048301527f0000000000000000000000000000000000000000000000000000000000000000169063da081df090602401602060405180830381865afa158015613805573d6000803e3d6000fd5b505050506040513d601f19601f8201168201806040525081019061382991906151cc565b613833904261543e565b600954106138835760405162461bcd60e51b815260206004820152600860248201527f7246424d3a2065310000000000000000000000000000000000000000000000006044820152606401610624565b7f00000000000000000000000000000000000000000000000000000000000000006001600160a01b031663178e5aea6040518163ffffffff1660e01b8152600401602060405180830381865afa1580156138e1573d6000803e3d6000fd5b505050506040513d601f19601f8201168201806040525081019061390591906151cc565b61390f904261543e565b6009541161395f5760405162461bcd60e51b815260206004820152600860248201527f7246424d3a2065320000000000000000000000000000000000000000000000006044820152606401610624565b61396881614813565b6001600160a01b03811660008181527f4c61297e4655be30d3d195f2bd8fb04ca1887c13893ca54a860373a17c0d76046020908152604080832092909255905191825233917f437522ff564350feae203c088777f11958473d8dcd0bae7cfab48f1abeb23f77910160405180910390a26139e26001600055565b50565b336001600160a01b037f00000000000000000000000000000000000000000000000000000000000000001614613a5d5760405162461bcd60e51b815260206004820152601f60248201527f63616c6c6572206973206e6f742074686520766f746520636f6e7472616374006044820152606401610624565b60008281526035602090815260408083208684529091529020600580820154426003909301929092556001600160a01b0390911690829003613b2557600083815260356020908152604080832087845290915290206006018054600591907fffffffffffffffffffffff00ffffffffffffffffffffffffffffffffffffffff1674010000000000000000000000000000000000000000835b021790555060008381526033602090815260408083206001600160a01b0385168452909152902060029055613c03565b81600103613b8d57600083815260356020908152604080832087845290915290206006018054600191907fffffffffffffffffffffff00ffffffffffffffffffffffffffffffffffffffff167401000000000000000000000000000000000000000083613af5565b6000838152603560209081526040808320878452825280832060060180547fffffffffffffffffffffff00ffffffffffffffffffffffffffffffffffffffff1674040000000000000000000000000000000000000000179055858352603382528083206001600160a01b03851684529091528120555b826003148015613c135750816001145b15613cb35780600160006101000a8154816001600160a01b0302191690836001600160a01b031602179055507f00000000000000000000000000000000000000000000000000000000000000006001600160a01b03166371e6651a6040518163ffffffff1660e01b8152600401600060405180830381600087803b158015613c9a57600080fd5b505af1158015613cae573d6000803e3d6000fd5b505050505b826002148015613cc35750816001145b156108bd57603280546001810182556000919091527f11df491316f14931039edfd4f8964c9a443b862f02d4c7611d18c2bc4e6ff6970180546001600160a01b0383167fffffffffffffffffffffffff000000000000000000000000000000000000000090911617905550505050565b6011546040517f0c2eb4030000000000000000000000000000000000000000000000000000000081523360048201527f00000000000000000000000000000000000000000000000000000000000000006001600160a01b031690630c2eb40390602401602060405180830381865afa158015613db3573d6000803e3d6000fd5b505050506040513d601f19601f82011682018060405250810190613dd791906151cc565b1015613e255760405162461bcd60e51b815260206004820152600960248201527f4e6f74206d616a6f7200000000000000000000000000000000000000000000006044820152606401610624565b613e2d6143c5565b6001600160a01b038316613e835760405162461bcd60e51b815260206004820152600860248201527f70413a207a65726f0000000000000000000000000000000000000000000000006044820152606401610624565b826001600160a01b03167f00000000000000000000000000000000000000000000000000000000000000006001600160a01b0316633ec045a66040518163ffffffff1660e01b8152600401602060405180830381865afa158015613eeb573d6000803e3d6000fd5b505050506040513d601f19601f82011682018060405250810190613f0f9190615451565b6001600160a01b031603613f655760405162461bcd60e51b815260206004820152601360248201527f70413a20616c72656164792061756469746f72000000000000000000000000006044820152606401610624565b6001600160a01b03831660009081527f10f6f77027d502f219862b0303542eb5dd005b06fa23ff4d1775aaa45bbf9477602052604090205415613fea5760405162461bcd60e51b815260206004820152601560248201527f70413a20616c72656164792063616e64696461746500000000000000000000006044820152606401610624565b613ff5600a5461441e565b602f5460009081527f8e3caac72b6c5bb0462da38c8c8c3b5fbc00a646bd75367c23c11d594c4e36c960205260409020806140308482615273565b506001810161403f8382615273565b5042600282018190556005820180546001600160a01b038781167fffffffffffffffffffffffff0000000000000000000000000000000000000000909216919091179091556006830180547fffffffffffffffffffffff00ffffffffffffffffffffffffffffffffffffffff339081167fffffffffffffffffffffff000000000000000000000000000000000000000000909216919091179091556003546040517f4037f8aa0000000000000000000000000000000000000000000000000000000081526004810192909252602482019390935260448101929092527f00000000000000000000000000000000000000000000000000000000000000001690634037f8aa906064016020604051808303816000875af1158015614166573d6000803e3d6000fd5b505050506040513d601f19601f8201168201806040525081019061418a91906151cc565b81600401819055506001601960008282546141a5919061538d565b90915550503360009081526038602052604081208054600192906141ca90849061538d565b90915550506001600160a01b0384811660008181527f10f6f77027d502f219862b0303542eb5dd005b06fa23ff4d1775aaa45bbf947760209081526040808320600190819055603783527f8e0cc0f1f0504b4cb44a23b328568106915b169e79003737a7b094503cdbeeb0805491820181559093527f39fe8831f12e5d1ecfa13b1c4de9c59bb9a0396ce2c001c520b54bac91c8af5890920180547fffffffffffffffffffffffff000000000000000000000000000000000000000016841790558151808301835292835290517f0c2eb403000000000000000000000000000000000000000000000000000000008152336004820152602f93918301917f00000000000000000000000000000000000000000000000000000000000000001690630c2eb40390602401602060405180830381865afa158015614310573d6000803e3d6000fd5b505050506040513d601f19601f8201168201806040525081019061433491906151cc565b90528154600180820184556000938452602093849020835160029093020180547fffffffffffffffffffffffff0000000000000000000000000000000000000000166001600160a01b03909316929092178255919092015191015560405133907fb9b2f8d4f50ab8ea9532d1c9ffb2bd82f749566876118adb73e2954bf5b4e04190611033908790879087906153a0565b6002600054036144175760405162461bcd60e51b815260206004820152601f60248201527f5265656e7472616e637947756172643a207265656e7472616e742063616c6c006044820152606401610624565b6002600055565b60007f00000000000000000000000000000000000000000000000000000000000000006001600160a01b031663fa5692746040518163ffffffff1660e01b8152600401602060405180830381865afa15801561447e573d6000803e3d6000fd5b505050506040513d601f19601f820116820180604052508101906144a29190615451565b905060007f00000000000000000000000000000000000000000000000000000000000000006001600160a01b031663e2f6f5116040518163ffffffff1660e01b8152600401602060405180830381865afa158015614504573d6000803e3d6000fd5b505050506040513d601f19601f820116820180604052508101906145289190615451565b6040517feeee26ce000000000000000000000000000000000000000000000000000000008152600481018590526001600160a01b03848116602483015280831660448301529192506000917f0000000000000000000000000000000000000000000000000000000000000000169063eeee26ce90606401602060405180830381865afa1580156145bc573d6000803e3d6000fd5b505050506040513d601f19601f820116820180604052508101906145e091906151cc565b9050806000036146325760405162461bcd60e51b815260206004820152601260248201527f704665653a204e6f7420706169642066656500000000000000000000000000006044820152606401610624565b61463e82333084614945565b6040517fdd62ed3e0000000000000000000000000000000000000000000000000000000081523060048201526001600160a01b037f00000000000000000000000000000000000000000000000000000000000000008116602483015283169063dd62ed3e90604401602060405180830381865afa1580156146c3573d6000803e3d6000fd5b505050506040513d601f19601f820116820180604052508101906146e791906151cc565b60000361477a5761477a827f0000000000000000000000000000000000000000000000000000000000000000846001600160a01b03166318160ddd6040518163ffffffff1660e01b8152600401602060405180830381865afa158015614751573d6000803e3d6000fd5b505050506040513d601f19601f8201168201806040525081019061477591906151cc565b614b14565b6040517f3a53ed49000000000000000000000000000000000000000000000000000000008152600481018290527f00000000000000000000000000000000000000000000000000000000000000006001600160a01b031690633a53ed4990602401600060405180830381600087803b1580156147f557600080fd5b505af1158015614809573d6000803e3d6000fd5b5050505050505050565b60005b6032548110156149415760328181548110614833576148336153de565b6000918252602090912001546001600160a01b039081169083160361493957603280546148629060019061543e565b81548110614872576148726153de565b600091825260209091200154603280546001600160a01b03909216918390811061489e5761489e6153de565b9060005260206000200160006101000a8154816001600160a01b0302191690836001600160a01b0316021790555060328054806148dd576148dd61546e565b60008281526020902081017fffffffffffffffffffffffffffffffffffffffffffffffffffffffffffffffff90810180547fffffffffffffffffffffffff00000000000000000000000000000000000000001690550190555050565b600101614816565b5050565b6001600160a01b0384163b61499c5760405162461bcd60e51b815260206004820152600160248201527f43000000000000000000000000000000000000000000000000000000000000006044820152606401610624565b604080516001600160a01b0385811660248301528481166044830152606480830185905283518084039091018152608490920183526020820180517bffffffffffffffffffffffffffffffffffffffffffffffffffffffff167f23b872dd000000000000000000000000000000000000000000000000000000001790529151600092839290881691614a2e919061549d565b6000604051808303816000865af19150503d8060008114614a6b576040519150601f19603f3d011682016040523d82523d6000602084013e614a70565b606091505b5091509150818015614a9a575080511580614a9a575080806020019051810190614a9a91906154b9565b614b0c5760405162461bcd60e51b815260206004820152602c60248201527f566162626c6544414f3a3a7472616e7366657246726f6d3a207472616e73666560448201527f7246726f6d206661696c656400000000000000000000000000000000000000006064820152608401610624565b505050505050565b6001600160a01b0383163b614b6b5760405162461bcd60e51b815260206004820152600160248201527f43000000000000000000000000000000000000000000000000000000000000006044820152606401610624565b604080516001600160a01b038481166024830152604480830185905283518084039091018152606490920183526020820180517bffffffffffffffffffffffffffffffffffffffffffffffffffffffff167f095ea7b3000000000000000000000000000000000000000000000000000000001790529151600092839290871691614bf5919061549d565b6000604051808303816000865af19150503d8060008114614c32576040519150601f19603f3d011682016040523d82523d6000602084013e614c37565b606091505b5091509150818015614c61575080511580614c61575080806020019051810190614c6191906154b9565b614cd35760405162461bcd60e51b815260206004820152602b60248201527f5472616e7366657248656c7065723a3a73616665417070726f76653a2061707060448201527f726f7665206661696c65640000000000000000000000000000000000000000006064820152608401610624565b5050505050565b600080600060608486031215614cef57600080fd5b505081359360208301359350604090920135919050565b600060208284031215614d1857600080fd5b5035919050565b6020808252825182820181905260009190848201906040850190845b81811015614d605783516001600160a01b031683529284019291840191600101614d3b565b50909695505050505050565b60008060408385031215614d7f57600080fd5b50508035926020909101359150565b60005b83811015614da9578181015183820152602001614d91565b50506000910152565b60008151808452614dca816020860160208601614d8e565b601f017fffffffffffffffffffffffffffffffffffffffffffffffffffffffffffffffe0169290920160200192915050565b604081526000614e0f6040830185614db2565b8281036020840152614e218185614db2565b95945050505050565b6001600160a01b03811681146139e257600080fd5b60008060408385031215614e5257600080fd5b823591506020830135614e6481614e2a565b809150509250929050565b7f4e487b7100000000000000000000000000000000000000000000000000000000600052604160045260246000fd5b600082601f830112614eaf57600080fd5b813567ffffffffffffffff80821115614eca57614eca614e6f565b604051601f83017fffffffffffffffffffffffffffffffffffffffffffffffffffffffffffffffe0908116603f01168101908282118183101715614f1057614f10614e6f565b81604052838152866020858801011115614f2957600080fd5b836020870160208301376000602085830101528094505050505092915050565b600080600060608486031215614f5e57600080fd5b8335614f6981614e2a565b9250602084013567ffffffffffffffff80821115614f8657600080fd5b614f9287838801614e9e565b93506040860135915080821115614fa857600080fd5b50614fb586828701614e9e565b9150509250925092565b7f4e487b7100000000000000000000000000000000000000000000000000000000600052602160045260246000fd5b60068110615025577f4e487b7100000000000000000000000000000000000000000000000000000000600052602160045260246000fd5b9052565b86815260208101869052604081018590526001600160a01b0384811660608301528316608082015260c0810161506260a0830184614fee565b979650505050505050565b600060c0820190508782528660208301528560408301528460608301526001600160a01b038416608083015261506260a0830184614fee565b600080600080608085870312156150bc57600080fd5b8435935060208501359250604085013567ffffffffffffffff808211156150e257600080fd5b6150ee88838901614e9e565b9350606087013591508082111561510457600080fd5b5061511187828801614e9e565b91505092959194509250565b6020808252825182820181905260009190848201906040850190845b81811015614d6057835183529284019291840191600101615139565b60006020828403121561516757600080fd5b813561517281614e2a565b9392505050565b600181811c9082168061518d57607f821691505b6020821081036151c6577f4e487b7100000000000000000000000000000000000000000000000000000000600052602260045260246000fd5b50919050565b6000602082840312156151de57600080fd5b5051919050565b7f4e487b7100000000000000000000000000000000000000000000000000000000600052601160045260246000fd5b808202811582820484141761094a5761094a6151e5565b601f821115611046576000816000526020600020601f850160051c810160208610156152545750805b601f850160051c820191505b81811015614b0c57828155600101615260565b815167ffffffffffffffff81111561528d5761528d614e6f565b6152a18161529b8454615179565b8461522b565b602080601f8311600181146152f457600084156152be5750858301515b7fffffffffffffffffffffffffffffffffffffffffffffffffffffffffffffffff600386901b1c1916600185901b178555614b0c565b6000858152602081207fffffffffffffffffffffffffffffffffffffffffffffffffffffffffffffffe08616915b8281101561534157888601518255948401946001909101908401615322565b508582101561537d57878501517fffffffffffffffffffffffffffffffffffffffffffffffffffffffffffffffff600388901b60f8161c191681555b5050505050600190811b01905550565b8082018082111561094a5761094a6151e5565b6001600160a01b03841681526060602082015260006153c26060830185614db2565b82810360408401526153d48185614db2565b9695505050505050565b7f4e487b7100000000000000000000000000000000000000000000000000000000600052603260045260246000fd5b84815283602082015260806040820152600061542c6080830185614db2565b82810360608401526150628185614db2565b8181038181111561094a5761094a6151e5565b60006020828403121561546357600080fd5b815161517281614e2a565b7f4e487b7100000000000000000000000000000000000000000000000000000000600052603160045260246000fd5b600082516154af818460208701614d8e565b9190910192915050565b6000602082840312156154cb57600080fd5b8151801515811461517257600080fdfea264697066735822122058302dea3a9d80af9803bde580627ab29abe7b7268b2fa42ca83eb38e647ea9a64736f6c63430008180033","linkReferences":{}},"methodIdentifiers":{"DAO_FUND_REWARD()":"09eca169","agentVotePeriod()":"d56b5874","availableVABAmount()":"ef75552c","boardRewardRate()":"cb9f7d23","boardVotePeriod()":"da18716f","boardVoteWeight()":"c4ad4fbd","checkGovWhitelist(uint256,address)":"68477d58","checkPropertyWhitelist(uint256,uint256)":"5e28407d","disputeGracePeriod()":"0b63a6e1","filmRewardClaimPeriod()":"4be520e2","filmVotePeriod()":"41d4e351","fundFeePercent()":"03b9b14c","getAgentProposerStakeAmount(uint256)":"a0658cef","getAllGovProposalInfo(uint256)":"2145fb48","getGovProposalInfo(uint256,uint256)":"a3b13561","getGovProposalList(uint256)":"814f10b6","getGovProposalStr(uint256,uint256)":"8f551870","getPropertyProposalInfo(uint256,uint256)":"a6be63be","getPropertyProposalList(uint256)":"b35cf4bf","getPropertyProposalStr(uint256,uint256)":"63d8efb5","governanceProposalCount()":"b1276d89","lockPeriod()":"3fd8b02f","maxAllowPeriod()":"bd038cd4","maxDepositAmount()":"8ed83271","maxMintFeePercent()":"bc2a78c3","minDepositAmount()":"645006ca","minStakerCountPercent()":"3346cfb6","minVoteCount()":"40be2883","propertyVotePeriod()":"999a4fc4","proposalAuditor(address,string,string)":"fd35e224","proposalFeeAmount()":"06b25c7b","proposalFilmBoard(address,string,string)":"82f94d95","proposalProperty(uint256,uint256,string,string)":"ac92074e","proposalRewardFund(address,string,string)":"6ea0cce3","removeFilmBoardMember(address)":"dcccc8e8","rewardRate()":"7b0a47ee","rewardVotePeriod()":"f2a3b343","subscriptionAmount()":"54f8a8c2","updateGovProposal(uint256,uint256,uint256)":"f8a149cc","updatePropertyProposal(uint256,uint256,uint256)":"1d00c7fa","userGovProposalCount(address)":"eb7c5fbb"},"id":4}